:020000040800F2
:1000000000000220310D0008490E0008570E0008BC
:100010005D0E0008630E0008690E00080000000075
:10002000000000000000000000000000115C01085A
:100030006F0E000800000000515E0108B95E010863
:10004000810D0008810D0008810D0008810D000858
:10005000810D0008810D0008810D0008810D000848
:10006000810D0008810D0008810D0008810D000838
:10007000810D0008810D0008810D0008810D000828
:10008000810D0008810D0008810D0008810D000818
:10009000810D0008810D0008810D0008810D000808
:1000A000810D0008810D0008810D0008810D0008F8
:1000B000810D0008810D0008810D0008810D0008E8
:1000C000810D0008810D0008810D0008810D0008D8
:1000D000810D0008810D0008810D0008810D0008C8
:1000E000810D0008810D0008810D0008810D0008B8
:1000F000810D0008810D0008810D0008810D0008A8
:10010000810D0008810D0008810D0008810D000897
:10011000810D0008810D0008810D0008810D000887
:10012000810D0008810D0008810D0008810D000877
:10013000810D0008810D0008810D0008810D000867
:10014000810D0008810D0008810D0008810D000857
:10015000810D0008810D0008810D0008810D000847
:10016000810D0008810D0008810D0008810D000837
:10017000810D0008810D0008810D0008810D000827
:08018000810D0008810D00084B
:1001900010B5054C237833B9044B13B10448AFF3C1
:1001A00000800123237010BD8000002000000000AB
:1001B000688A010808B5034B1BB103490348AFF334
:1001C000008008BD0000000084000020688A01084B
:1001D00080B582B000AF78607B6893F82D3003F073
:1001E0000103002B05D001220121064814F0F6F985
:1001F00004E001220221034814F0F0F900BF08379F
:10020000BD4680BD0010024080B582B000AF154BE6
:10021000154A1A6013F0CEFE786000BF13F0CAFED4
:1002200002467B689A42F9D000233B6002E03B68BB
:1002300001333B603A680B4B1B689A42F7D313F0CB
:10024000B9FE02467B68D31A4FF47A7202FB03F3BD
:10025000044A1268B2FBF3F3024A136000BF083786
:10026000BD4680BD9C00002040420F0080B485B098
:1002700000AF78600023FB6002E0FB680133FB60A5
:10028000064B1B687A6802FB03F2FB689A42F4D8BB
:1002900000BF1437BD465DF8047B70479C0000200A
:1002A00080B584B000AF0346FB71FB793B7307F167
:1002B0000C0107F10C030222184605F095FE7B7B2A
:1002C00018461037BD4680BD80B584B000AF0346E8
:1002D0000A46FB711346BB71FB793B73BB797B7399
:1002E00007F10C0302220021184605F07DFE00BF35
:1002F0001037BD4680BD80B586B000AF0346FB71A8
:100300000B46BB7113467B7113F054FE7861FB7989
:1003100003F01F03DBB21846FFF7C2FF0346FB746E
:1003200013F048FE02467B69D31AFB60FA7CBB7966
:100330001340DBB27A799A4202D0FB68312BE6D9BE
:10034000FA7CBB791340DBB27A799A420CBF012365
:100350000023DBB218461837BD4680BD80B586B095
:1003600000AF0346FB710B46BB7113467B7113F064
:1003700021FE7861FB7903F01F03DBB21846FFF71B
:100380008FFF0346FB7413F015FE02467B69D31AF8
:10039000FB60FA7CBB791340DBB27A799A4202D1D6
:1003A000FB68312BE6D9FA7CBB791340DBB27A7952
:1003B0009A4214BF01230023DBB218461837BD460A
:1003C00080BD80B582B000AF7860FF2005F0DEFD13
:1003D0007B6800221A74022013F0F8FD00BF083772
:1003E000BD4680BD80B582B000AF78600B46FB7023
:1003F0007B681B7CFA789A420ED00321BF20FFF75E
:1004000063FFFB78002B04D0FB7819469F20FFF791
:100410005BFF7B68FA781A7400BF0837BD4680BD61
:1004200080B584B000AF78600B46FB70FB785B0949
:10043000DBB203F00303DBB219467868FFF7D2FFA3
:10044000FB7803F01F03DBB23B7397F90330002BFB
:1004500001DA032200E0022207F10C0107F10C038C
:10046000184605F0C1FD97F90330002B01DABB7B7C
:1004700000E07B7B18461037BD4680BD80B584B058
:1004800000AF78600B46FB701346BB70FB785B09CE
:10049000DBB203F00303DBB219467868FFF7A2FF73
:1004A00097F9033003F01F035BB243F040035BB2E4
:1004B000DBB23B73BB787B7307F10C030222002194
:1004C000184605F091FD00BF1037BD4680BD80B5D0
:1004D00086B000AF7860084611461A460346FB70A6
:1004E0000B46BB7013467B7013F064FD7861FB789C
:1004F00019467868FFF794FF0346FB7413F05AFD22
:1005000002467B69D31AFB60FA7CBB781340DBB2EE
:100510007A789A4202D0FB68312BE8D9FA7CBB7812
:100520001340DBB27A789A420CBF01230023DBB27E
:1005300018461837BD4680BD80B582B000AF7860E0
:100540000B46FB7013463B80FB781A46D421786833
:10055000FFF794FF3B88DBB21A46D6217868FFF795
:100560008DFF3B881B0A9BB2DBB21A46D721786805
:10057000FFF784FF0C20FFF779FE00230122EA2118
:100580007868FFF7A4FF00BF0837BD4680BD80B57F
:1005900084B000AF7860FFF737FE7868FFF711FF8F
:1005A00000217868FFF71EFF72217868FFF738FF97
:1005B0000346FB73FB7B002B02D0FB7BFF2B01D19F
:1005C0000023CCE080215E20FFF77EFE7B680022C6
:1005D0009A82002208217868FFF750FF0022092143
:1005E0007868FFF74BFFFF220C217868FFF746FF82
:1005F00019220D217868FFF741FFFF220A21786850
:10060000FFF73CFF19220B217868FFF737FF7B6863
:1006100000221A83002204217868FFF72FFF1A2294
:1006200005217868FFF72AFFA12238217868FFF7B3
:1006300025FF0A2013F0CAFC1D217868FFF7F0FEA1
:100640000346FB73FB7B03F00103002BF1D00D226B
:10065000C0217868FFF712FF7B681B68002B20D150
:100660007B689B68002B01D1322300E002231A46ED
:10067000C2217868FFF702FF4022C3217868FFF7A4
:10068000FDFE1222C6217868FFF7F8FE0C22C72172
:100690007868FFF7F3FE1222C4217868FFF7EEFEB8
:1006A00015E07B689B68002B01D1332300E0032316
:1006B0001A46C2217868FFF7E1FE1222C621786847
:1006C000FFF7DCFE1522C4217868FFF7D7FEEE2283
:1006D000CA217868FFF7D2FE0522CB217868FFF7A0
:1006E000CDFE7B681B68002B0BD1002200217868AF
:1006F000FFF722FF4FF4807210217868FFF71CFF8C
:100700000AE04FF4807200217868FFF715FF00229D
:1007100010217868FFF710FF7B681B7B03F0100344
:10072000002B04D0122212217868FFF705FF3B212D
:10073000BC20FFF7C9FD7B681B7BFB73FB7B002B99
:1007400003D0FB7B63F07F03FB73FB7B19469B208D
:10075000FFF7BAFD04219F20FFF7B6FD01231846DD
:100760001037BD4680BD80B582B000AF78607B6831
:100770005B681B781A46E4217868FFF77FFE7B6888
:100780005B6801331B781A46E5217868FFF776FE2F
:100790007B685B6802331B781A46E2217868FFF7B2
:1007A0006DFE7B685B6803331B781A46E32178682B
:1007B000FFF764FE7B685B6804331B781A46E02110
:1007C0007868FFF75BFE7B685B6805331B781A4629
:1007D000E1217868FFF752FE00BF0837BD4680BDB3
:1007E00080B582B000AF78600B467B80012005F0B9
:1007F00043FC7A2005F0B4FB7B881A460021786818
:1008000005F0F2FB00BF0837BD4680BD80B582B061
:1008100000AF78600B467B80012005F02DFC3A206C
:1008200005F09EFB7B881A467968002005F0DCFB0A
:1008300000BF0837BD4680BD80B584B000AF78608A
:100840000B467B80002208211F20FFF754FD034642
:1008500083F00103DBB2002B02D06FF002033CE017
:10086000002204217868FFF709FE1A220521786822
:10087000FFF704FE002202217868FFF7FFFD1A222D
:1008800003217868FFF7FAFD7B8803F5D053FB81DD
:10089000FB890833B3F5005F02DD4FF0FF331CE046
:1008A000FB89DBB21A4606217868FFF7E7FDFB8972
:1008B0001B0A9BB2DBB21A4607217868FFF7DEFD00
:1008C0007A233B730E237B7307F10C0107F10C03B2
:1008D0000222184605F088FB002318461037BD4653
:1008E00080BD80B584B000AF78607B681B8B002B27
:1008F00053D07B6810229A8480219F20FFF7E4FC6C
:100900008021BF20FFF7E0FC0A21BC20FFF7DCFCC0
:1009100008219F20FFF7D8FC00220A211C20FFF7A6
:100920001DFD0821BF20FFF7CFFC7B681B8B03F563
:10093000D0530433FB81FB89DBB21A46002178686F
:10094000FFF79CFDFB891B0A9BB2DBB21A46012113
:100950007868FFF793FD07F10C0301211846FFF7B4
:1009600055FF1C20FFF79CFC03467B737B7B03F049
:100970000203002B0ED03B7B03F02003002B09D099
:100980007B689B8C013B9AB27B689A847B689B8CCA
:10099000002BB1D17B6800221A8300BF1037BD46FF
:1009A00080BD80B483B000AF7860FEE780B582B0D0
:1009B00000AF786000F098FA05F0C8FA4FF4FA70CA
:1009C00016F028FBF6E7000080B582B002AF13F006
:1009D000B3FA00F02FF800F075F91048FFF7F8FBB4
:1009E00000F08EF800F03CF90D4B019300230093CA
:1009F00000234FF416720B490B4816F0D9F9084B37
:100A000001930223009300234FF4C872074908485A
:100A100016F0CEF916F032FBFEE700BF8C30012055
:100A2000A0000020808A0108AD090008888A01081A
:100A3000A309000880B594B000AF0023BB602D4A25
:100A40002C4B1B6C43F0805313642A4B1B6C03F03C
:100A50008053BB60BB6800237B60274A264B1B6822
:100A600043F480431360244B1B6803F480437B6092
:100A70007B6801233B624FF480337B620223BB63BC
:100A80004FF48003FB6304233B64A8237B640223AD
:100A9000BB640423FB6407F12003184613F0B8FD80
:100AA0000F23FB6002233B6100237B614FF4A053C3
:100AB000BB614FF48053FB6107F10C03052118461D
:100AC00014F000F814F08EF902460C4BA3FB02233D
:100AD0009B09184613F0BFFB042013F0C9FB00224A
:100AE00000214FF0FF3013F07EFB00BF5037BD46B2
:100AF00080BD00BF0038024000700040D34D62103E
:100B000080B58AB000AF00233B614F4A4E4B1B6B50
:100B100043F0800313634C4B1B6B03F080033B617A
:100B20003B690023FB60484A474B1B6B43F00103C2
:100B30001363454B1B6B03F00103FB60FB68002351
:100B4000BB60414A404B1B6B43F0040313633E4BB5
:100B50001B6B03F00403BB60BB6800237B603A4A55
:100B6000394B1B6B43F010031363374B1B6B03F0C4
:100B700010037B607B6800221021344813F02EFDA7
:100B800000220321324813F029FD10237B61314BF1
:100B9000BB610023FB6107F1140319462E4813F0D3
:100BA00083FB10237B610123BB610023FB610123D5
:100BB0003B6207F114031946244813F075FB032325
:100BC0007B610123BB610023FB6100233B6207F1D2
:100BD000140319461E4813F067FB1B4A1A4B1B6B84
:100BE00043F0010313631C4A1B4B1B6843F08073E3
:100BF0001360194A184B5B6823F480535360164AFC
:100C0000154B9B6843F0407393600F4A0E4B5B6C2F
:100C100043F480435364114A104B1B6A43F00103B1
:100C2000136200BF0D4B1B6A03F48073B3F5807F22
:100C3000F8D1094A084BDB6823F04073D36000BF4A
:100C40002837BD4680BD00BF003802400008024082
:100C50000010024000002110000002400038014056
:100C600080B500AF154B164A1A60144B4FF48272D0
:100C70005A60124B00229A60104B0022DA600F4B30
:100C800000221A610D4B00225A610C4B4FF4007286
:100C90009A610A4B1022DA61084B00221A62074B54
:100CA00000225A62054B00229A62044B0A22DA6241
:100CB000024814F0A3F800BF80BD00BFC03001207F
:100CC0000030014080B588B004AF0021002012F050
:100CD00065FC134BFB606FF07F43BB6000237B60C0
:100CE000381D07F1080207F10C010E4B02930E4B61
:100CF00001930023009303460C4806F0E9F80B48E3
:100D000006F0B6FA094B93F82D3003F00403002BDC
:100D100002D0064806F0BCFA00BF1037BD4680BDC1
:100D2000A9FEC111A5340108E55E00088C30012040
:100D3000DFF834D0002103E00C4B5B584350043102
:100D40000B480C4B42189A42F6D30B4A02E00023A0
:100D500042F8043B094B9A42F9D300F08FF817F0A0
:100D600067FCFFF731FE704700000220A0C80108B1
:100D70000000002080000020800000206C6F012017
:100D8000FEE780B500AF032013F022FA0022002115
:100D90006FF00B0013F027FA002200216FF00A0019
:100DA00013F021FA002200216FF0090013F01BFA62
:100DB000002200216FF0040013F015FA0022002138
:100DC0006FF0030013F00FFA002200216FF0010012
:100DD00013F009FA002200214FF0FF3013F003FA5C
:100DE00000BF80BD80B588B000AF78607B681B68AD
:100DF000124A93421DD10023BB60114A104B5B6C19
:100E000043F4805353640E4B5B6C03F48053BB601C
:100E1000BB68E023FB6002233B6100237B6103236B
:100E2000BB610523FB6107F10C031946054813F06C
:100E30003BFA00BF2037BD4680BD00BF00300140F7
:100E4000003802400000024080B400AF00BFBD4641
:100E50005DF8047B704780B400AFFEE780B400AF5C
:100E6000FEE780B400AFFEE780B400AFFEE780B4D9
:100E700000AF00BFBD465DF8047B704780B400AF93
:100E8000164A164BD3F8883043F47003C2F8883002
:100E9000134A134B1B6843F001031360104B0022ED
:100EA0009A600F4A0E4B1B6823F0847323F480333F
:100EB00013600B4B0B4A5A60094A094B1B6823F419
:100EC00080231360064B0022DA60044B4FF000626F
:100ED0009A6000BFBD465DF8047B704700ED00E0FE
:100EE000003802401030002480B582B002AF0123E8
:100EF0000093002300220349034812F0D7FF00BFEC
:100F0000BD4680BD0D0F0008908A010880B5ADF583
:100F1000C46D00AF3B1D1860464B1B680133454A4A
:100F20001360444B1B68012B12D1434B4FF480528A
:100F30009A610023C7F81C3604E0D7F81C36013349
:100F4000C7F81C36D7F81C363C4A9342F5DD18E04A
:100F5000384B1B68022B14D1374B4FF080529A61EB
:100F60000023C7F8183604E0D7F818360133C7F85D
:100F70001836D7F81836314A9342F5DD2D4B00224A
:100F80001A6006220121022011F0A0FFC7F8140602
:100F9000D7F81436002B46DB022387F8F93540F2E8
:100FA000E73004F053FE0346A7F8FA350023C7F8EC
:100FB000FC3507F5BF6310221946D7F8140611F067
:100FC00075FA0346002B30DB0521D7F8140611F023
:100FD000D3FA1023C7F8083607F5C16207F5BD63D9
:100FE0001946D7F8140611F039F9C7F81006D7F8E2
:100FF0001036002BF0D007F10C0340F2DC521946FA
:10100000D7F8100611F044FEC7F80C06D7F80C36D6
:10101000002BE1D00A4A07F10C031946D7F8100655
:1010200011F0ACFFD8E700BF00E000BF07F5C467D0
:10103000BD4680BDA400002000000240DF930400F4
:101040004589010880B487B000AFF860B9607A6064
:1010500001237B6104E07B697A6802FB03F37B6117
:101060007B69BA68B2FBF3F27B689A42F3D229E05B
:101070007B69BA68B2FBF3F33B617A69BB68B3FB87
:10108000F2F102FB01F29B1ABB607A697B6892FB6A
:10109000F3F37B613B69092B0ADDFB681B68591C74
:1010A000FA6811603A69D2B23732D2B21A7009E0E6
:1010B000FB681B68591CFA6811603A69D2B2303279
:1010C000D2B21A707B69002BD2D100BF1C37BD464B
:1010D0005DF8047B704780B588B000AFF860B960F8
:1010E0007A60FB687B617DE0BB681B78252B71D142
:1010F000BB680133BB60BB681B78642B1ED0642BBC
:1011000006DC582B50D0632B0ED0252B58D05DE039
:10111000732B2BD0732B02DC692B0FD056E0752B71
:1011200037D0782B40D051E0FB685A1CFA607A68BF
:10113000111D79601268D2B21A7047E07B681A1DDF
:101140007A601B68FB61FB69002B07DAFB695B4275
:10115000FB61FB685A1CFA602D221A70F96907F1CD
:101160000C030A221846FFF76DFF2FE07B681A1D5B
:101170007A601B68BB6107E0FB685A1CFA60BA69B9
:10118000511CB96112781A70BB691B78002BF3D11E
:101190001CE07B681A1D7A60196807F10C030A22AB
:1011A0001846FFF74FFF11E07B681A1D7A601B6835
:1011B000194607F10C0310221846FFF743FF05E01C
:1011C000FB685A1CFA6025221A7000BFBB68013305
:1011D000BB6007E0FB685A1CFA60BA68511CB96032
:1011E00012781A70BB681B78002B7FF47DAFFB6808
:1011F00000221A70FB681A467B69D31A18462037FA
:10120000BD4680BD80B485B000AF786039600023F2
:10121000FB6081E07B681B78252B77D17B680133ED
:101220007B607B681B78583B202B6AD801A252F860
:1012300023F000BFF5120008031300080313000891
:101240000313000803130008031300080313000826
:101250000313000803130008031300080313000816
:10126000B9120008C712000803130008031300088E
:101270000313000803130008C71200080313000833
:1012800003130008031300080313000803130008E6
:1012900003130008031300080313000803130008D6
:1012A000D512000803130008C71200080313000832
:1012B00003130008F51200083B6804333B60FB6829
:1012C0000133FB6025E0FB680B33FB603B680433B4
:1012D0003B601EE03B681A1D3A601B68BB6002E081
:1012E000FB680133FB60BB685A1CBA601B78002B9B
:1012F000F6D10EE0FB680833FB603B6804333B60CB
:1013000007E0FB680133FB6000BF02E0FB680133CC
:10131000FB607B6801337B607B681B78002B7FF46C
:1013200079AFFB6818461437BD465DF8047B7047FB
:101330000FB42DE9F04385B000AF0023FB6007F147
:1013400034033B603968386BFFF75CFFF8606B462D
:101350001E46F9684B1EBB600B461A464FF0000351
:101360004FEAC30949EA52794FEAC2080B461A46C6
:101370004FF00003DD0045EA5275D4000B460733F9
:10138000DB08DB00ADEB030D6B4600337B6007F140
:1013900034033B607B683A68396B1846FFF79BFE65
:1013A000F8607B68FA681946012017F053FBF86073
:1013B000B546FB6818461437BD46BDE8F04304B097
:1013C0007047000080B586B000AF786039600E23AA
:1013D000FB827B685B890E2B0CD8514B1B8D013334
:1013E0009AB24F4B1A854E4BDB8B01339AB24C4B62
:1013F000DA838DE07B68DB7B002B06D13B6893F8BA
:1014000030300133DAB27B68DA737B685B683B614A
:101410003B691A7B5B7B1B021343FB813B691B7897
:1014200003F00103002B23D03B691B78012B0FD164
:101430003B695B78002B1BD13B699B785E2B17D1F6
:101440007B685B7B43F01003DAB27B685A730FE072
:101450003B6906223349184617F00EF90346002B64
:1014600006D17B685B7B43F00803DAB27B685A7372
:10147000FB89082B03D0B3F5C16F14D034E03B686F
:1014800093F82D3003F00803002B3CD0FB8A19465B
:10149000786806F065FA0346002B36D1396878681B
:1014A00003F0AEF92DE03B6893F82D3003F008030C
:1014B000002B2CD0FB8A1946786806F051FA0346B7
:1014C000002B0CD0164B5B8C01339AB2144B5A8410
:1014D000134BDB8B01339AB2114BDA8318E0396876
:1014E000786802F039FA0CE00D4B1B8D01339AB28B
:1014F0000B4B1A850A4BDB8B01339AB2084BDA830C
:1015000006E0002308E000BF02E000BF00E000BFEB
:10151000786806F0E5FA002318461837BD4680BD06
:10152000446E012080C6010880B586B000AFF86027
:10153000B9607A603B603B8C184604F087FB034639
:10154000FB820E21B86806F0FBF90346002B2AD176
:10155000BB685B683B613B69FA8A9A813B690622FA
:101560003968184617F097F83B6906330622796800
:10157000184617F090F8FB6893F82C30062B0BD028
:101580000F4B40F233120F490F48FFF7D1FE0020F6
:1015900016F072FF16F0B6FEFB689B69B968F86832
:1015A0009847034608E000BF084B5B8901339AB2B5
:1015B000064B5A816FF0010318461837BD4680BDAF
:1015C000EC8A01080C8B0108408B0108446E012055
:1015D00080B500AF224B1B78002B38D1214B1B6804
:1015E000002B0AD0204BE52220492148FFF7A0FE1E
:1015F000002016F041FF16F085FE0EF0D7F80246E7
:10160000184B1A60174B1B68002B02D14FF0FF33A9
:1016100024E0144B1B68134A1268527A42F02002ED
:10162000D2B25A720F4B1B684422124918460DF071
:1016300055FF0C4B1B6843220E4918460DF0D8FF8E
:10164000084B1B6800220C4918460EF043F8044B67
:101650001B780133DAB2024B1A700023184680BDA2
:10166000AC000020A8000020688B0108888B0108CE
:10167000B08B010890C60108392F000880B500AF73
:10168000114B1B78002B0AD1104BFF221049114837
:10169000FFF74EFE002016F0EFFE16F033FE0A4B69
:1016A0001B78013BDAB2084B1A70074B1B78002BF2
:1016B00007D1094B1B6818460EF032F8064B002282
:1016C0001A6000BF80BD00BFAC000020688B01081D
:1016D000D88B0108B08B0108A800002080B584B029
:1016E00000AF78607B681B6AFB600C21F86801F032
:1016F0002FF8064B054A0549786805F06FFD7868B4
:1017000000F01AFC00BF1037BD4680BD90C601082E
:1017100080B584B000AF78607B681B6AFB600821ED
:10172000F86801F015F8FB681C3300221946786848
:1017300002F07AFB0346FB72FB689B79FF2B05D016
:10174000FB689B790133DAB2FB689A714FF4FA7344
:101750003B813B8903F2F313064A82FB03125211C9
:10176000DB17D31A9AB2FB681A8100BF1037BD4647
:1017700080BD00BFD34D621080B584B000AF7860EB
:1017800039607B681B6AFB600C4B9B78002B11D087
:10179000FB6800221A810A4B9B68184604F06BFA1A
:1017A0000246FB689A613B681A69FB68DA617868EF
:1017B00000F008F800BF1037BD4680BD1831012089
:1017C00020310120B0B58AB002AF78607B68002B71
:1017D0000BD1734B40F2771272497348FFF7A8FDA3
:1017E000002016F049FE16F08DFD7B681B6ABB6178
:1017F000BB69002B0BD16A4B40F279126B496A48E6
:10180000FFF796FD002016F037FE16F07BFD012154
:10181000B86900F09DFF07F10C030322B9697868ED
:1018200001F052FC78617B69002B00F085807B69B8
:101830005B683B61B8893B6903F1F00102233922FF
:1018400000F0A0FF0346BB81B8893B6903F1F001BA
:101850007B689B8C1A4600F0F9FF0346BB81B88970
:101860003B6903F1F0010423322200F08BFF0346B1
:10187000BB81BC893B6903F1F005BB69DB69184694
:1018800004F0F9F903461A462946204601F016F8F5
:101890000346BB81B8893B6903F1F001042336227A
:1018A00000F070FF0346BB81BC893B6903F1F00582
:1018B000BB699B69184604F0DEF903461A462946BF
:1018C000204600F0FBFF0346BB81B8893B6903F16A
:1018D000F0010323372200F055FF0346BB810023AC
:1018E000BB770EE0B8893B6903F1F001BB7F304A5A
:1018F000D35C1A4600F080FF0346BB81BB7F0133F7
:10190000BB77BB7F022BEDD9B8893B69F0337A698D
:10191000194601F0B9FC274B1868274B01937B68E7
:1019200000934323254A79690DF0BEFC0346FB77FB
:10193000786906F0D5F801E0FF23FB77BB699B7956
:10194000FF2B05D0BB699B790133DAB2BB699A7171
:10195000BB699B79052B0DD8BB699B791A4601237E
:1019600093409BB21A465201D21A92001344DB00F4
:101970009BB201E04EF66023FB81FB8903F2F31377
:101980000F4A82FB03125211DB17D31A9AB2BB69BA
:101990001A8197F91F3018462037BD46B0BD00BFE9
:1019A000688B0108FC8B0108B08B0108188C0108BA
:1019B00004000020A800002090C6010894C6010879
:1019C000D34D621080B582B000AF274B1B687B609F
:1019D00042E07B681B6A3B603B68002B39D03B6868
:1019E0005B79002B35D03B689B8A002B12D03B687B
:1019F0005B8A01339AB23B685A823B685A8A3B68D9
:101A00009B8A9A4206D1786800F008FE786800F058
:101A100069F91EE03B681B8A002B0BD03B681B8AD0
:101A20005A1E91B23A681182012B03D1786800F0F6
:101A3000C6F80EE03B68DB89002B0AD03B68DB89E7
:101A40005A1E91B23A68D181012B02D1786800F018
:101A500088F87B681B687B607B68002BB9D100BF6E
:101A60000837BD4680BD00BF386E012080B582B00A
:101A700000AF164B1B687B6020E07B681B6A3B60F5
:101A80003B68002B17D03B681B89012B06D93B68AC
:101A90001B89013B9AB23B681A810CE03B681B89A9
:101AA000012B08D13B681B89013B9AB23B681A8124
:101AB000786800F00DF87B681B687B607B68002B02
:101AC000DBD100BF0837BD4680BD00BF386E0120A6
:101AD00080B584B000AF78607B681B6AFB60FB68F0
:101AE0005B790C2B03D0FB685B79062B03D17868FC
:101AF00000F022FA31E0FB685B79012B0ED1FB6824
:101B00009B79052B03D87868FFF75CFE25E07868A1
:101B100000F084FD786800F0E5F81EE0FB685B7972
:101B2000082B0BD1FB689B79012B03D87868FFF752
:101B3000EFFD12E0786800F0A1FA0EE0FB685B7937
:101B4000032B0AD1FB689B79012B03D8786800F03E
:101B5000AFFC02E0786800F0EFF900BF1037BD4637
:101B600080BD80B584B000AF78607B681B6AFB6085
:101B7000FB685B79012B07D0FB685B790A2B03D0EC
:101B8000FB685B79052B16D1786800F059FBFB6880
:101B90009B891A46FB685B8AD31A012B0BDDFB6815
:101BA0009B891A46FB685B8AD31ADA0F13445B10D1
:101BB0009AB2FB68DA8100BF1037BD4680BD80B5A0
:101BC00084B000AF78607B681B6AFB60FB685B7960
:101BD000012B0BD0FB685B790A2B07D0FB685B7984
:101BE000052B03D0FB685B79042B16D1786800F0D5
:101BF000C3FBFB689B8A1A46FB685B8AD31A012BDE
:101C00000BDDFB689B8A1A46FB685B8AD31ADA0FE6
:101C100013445B109AB2FB681A8200BF1037BD46AE
:101C200080BD000080B584B000AF786039607B680B
:101C30001B6AFB60FB6800221A62FB6800225A6282
:101C4000264BDB78002B03D0254BDA68FB689A62C1
:101C5000224B1B79002B04D0214B1A69FB68DA62F6
:101C600004E0FB689B6A5A08FB68DA621B4B5B79ED
:101C7000002B04D01A4B5A69FB681A6307E0FB6813
:101C80009A6A1346DB009B1ADA08FB681A633B6802
:101C90001A69FB68DA61114B9B79002B0BD0104B52
:101CA0009B69184603F0E7FF0246FB681A62FB686F
:101CB0000122DA7102E0FB680022DA71074BDB795E
:101CC000002B07D0064BDB69184603F0D4FF024611
:101CD000FB685A6200BF1037BD4680BD1831012035
:101CE0002031012080B584B000AF78607B68002B84
:101CF0000BD1394B40F2E72238493948FFF718FB3E
:101D0000002016F0B9FB16F0FDFA7B6893F82D3031
:101D100003F00103002B0BD12F4B4FF43A723149E2
:101D20002F48FFF705FB002016F0A6FB16F0EAFA95
:101D30007B681B6AFB607B689B8CB3F5107F02D2CB
:101D40004FF0FF3344E0FB68002B0DD1342004F04A
:101D500079FEF860FB68002B02D14FF0FF3337E0CB
:101D60007B68FA681A6205E0FB681B79002B01D0DA
:101D7000FFF784FC34220021F86816F097FCFFF787
:101D800027FC0346002B02D04FF0FF3320E0FB6816
:101D900001221A717B6893F82D3003F00403002BA5
:101DA00005D10221F86800F0D3FC002310E0786828
:101DB00000F0C2F80346FB7297F90B30002B05D0F8
:101DC000786800F02BFC4FF0FF3301E097F90B30FF
:101DD00018461037BD4680BD688B0108348C010859
:101DE000B08B0108788C010880B584B000AF7860B2
:101DF00039607B68002B0BD1114B40F28B321149BB
:101E00001148FFF795FA002016F036FB16F07AFA23
:101E10007B681B6AFB60FB68002B0CD0FB685B795E
:101E2000082B08D13B681A68FB68DB699A4202D12B
:101E3000786800F00BF800BF1037BD4680BD00BFCA
:101E4000688B0108348C0108B08B0108B0B58AB0EA
:101E500002AF78607B681B6ABB610C21B86900F037
:101E600077FC07F10C030422B969786801F02CF9BA
:101E700078617B69002B35D07B695B683B61B889F1
:101E80003B6903F1F0010423322200F07BFC03469E
:101E9000BB81BC893B6903F1F005BB69DB6918466E
:101EA00003F0E9FE03461A462946204600F006FDE7
:101EB0000346BB81B8893B69F0337A69194601F062
:101EC000E3F9194B1868194B01937B68009343237E
:101ED000174A79690DF0E8F90346FB77786905F050
:101EE000FFFD01E0FF23FB77BB699B79FF2B05D04A
:101EF000BB699B790133DAB2BB699A7142F2107304
:101F0000FB81FB8903F2F3130A4A82FB031252118D
:101F1000DB17D31A9AB2BB691A8197F91F3018469A
:101F20002037BD46B0BD00BFA800002090C6010804
:101F300094C60108D34D621080B58AB002AF7860B4
:101F40007B681B6ABB610023FB75BB690022DA61F9
:101F50000621B86900F0FCFB07F108030122B9690A
:101F6000786801F0B1F838613B69002B4BD03B69D0
:101F70005B68FB603889FB6803F1F00102233922BA
:101F800000F000FC03463B813889FB6803F1F00157
:101F90007B689B8C1A4600F059FC03463B813889CC
:101FA000FB6803F1F0010323372200F0EBFB03464B
:101FB0003B810023FB770EE03889FB6803F1F001D9
:101FC000FB7F294AD35C1A4600F016FC03463B818E
:101FD000FB7F0133FB77FB7F022BEDD93889FB6850
:101FE000F0333A69194601F04FF9204B1868204B3D
:101FF00001937B68009343231E4A39690DF054F91D
:10200000386905F06DFDBB699B79FF2B05D0BB6975
:102010009B790133DAB2BB699A71BB699B79052B55
:102020000DD8BB699B791A46012393409BB21A468F
:102030005201D21A92001344DB009BB201E04EF62B
:1020400060237B817B8903F2F3130B4A82FB03122B
:102050005211DB17D31A9AB2BB691A8197F917305C
:1020600018462037BD4680BD04000020A80000208F
:1020700090C6010894C60108D34D621080B588B09F
:1020800000AF78607B68002B0BD1684B40F21542A3
:1020900067496848FFF74CF9002016F0EDF916F093
:1020A00031F97B681B6ABB61BB69002B0BD15F4BAD
:1020B00040F2174260495F48FFF73AF9002016F0F6
:1020C000DBF916F01FF9BB6900225A82BB699B6AD3
:1020D000B3F1FF3F19D0BB699B6A1E33574AA2FB7D
:1020E00003235B09FB61FB69B3F5803F02D34FF625
:1020F000FF73FB61FB699AB2BB699A82BB699B8AD9
:10210000002B02D1BB6901229A82BB69DB6AB3F161
:10211000FF3F1DD0BB69DB6A1E33484AA2FB032385
:102120005B09FB61FB69B3F5803F02D34FF6FF7398
:10213000FB61FB699AB2BB695A81BB695B89002B61
:1021400002D1BB6901225A81BB695A89BB69DA8114
:10215000BB691B6BB3F1FF3F1DD0BB691B6B1E330B
:10216000364AA2FB03235B09FB61FB69B3F5803FA1
:1021700002D34FF6FF73FB61FB699AB2BB699A8188
:10218000BB699B89002B02D1BB6901229A81BB6983
:102190009A89BB691A82BB695A89BB699B899A4231
:1021A00006D3BB699B89002B02D0BB6900225A81F0
:1021B000BB69DB79002B03D0BB691B6A3B6114E070
:1021C000BB691C331B78FB7597F91730002B02DBBA
:1021D000FF233B6109E0FB7DBF2B03D96FF07F43F9
:1021E0003B6102E04FF6FF733B61BB695B6AFB60DA
:1021F000FB68002B08D1BB69DA693B691340FB60BF
:10220000FB6843F08073FB600A21B86900F0A0FA14
:10221000BB6903F11C0107F10C0307F11002786898
:1022200004F0DCFF00BF2037BD4680BD688B01088D
:10223000B08C0108B08B0108CC8C01088988888893
:1022400080B58AB002AF78607B681B6ABB610521EC
:10225000B86900F07DFA07F10C030322B9697868C8
:1022600000F032FF78617B69002B4ED07B695B68A0
:102270003B61B8893B6903F1F0010223392200F088
:1022800081FA0346BB81B8893B6903F1F0017B68A1
:102290009B8C1A4600F0DAFA0346BB81B8893B6989
:1022A00003F1F0010323372200F06CFA0346BB81EF
:1022B0000023BB770EE0B8893B6903F1F001BB7FD7
:1022C0002A4AD35C1A4600F097FA0346BB81BB7FCB
:1022D0000133BB77BB7F022BEDD9B8893B69F03363
:1022E0007A69194600F0D0FF214B1868BB6903F1E9
:1022F00018027B680093432379690CF059FF034669
:10230000FB77786905F0ECFB01E0FF23FB77BB6905
:102310009B79FF2B05D0BB699B790133DAB2BB698E
:102320009A71BB699B79092B0AD8BB699B799BB2CF
:102330001A465201D21A920013441B019BB201E0CB
:1023400044F62063FB81FB8903F2F313094A82FB05
:1023500003125211DB17D31A9AB2BB691A8197F98B
:102360001F3018462037BD4680BD00BF0400002046
:10237000A8000020D34D621080B58AB002AF78600B
:102380007B681B6ABB610421B86900F0E1F907F1C1
:102390000C030322B969786800F096FE78617B69C6
:1023A000002B4CD07B695B683B61B8893B6903F1CA
:1023B000F0010223392200F0E5F90346BB81B88918
:1023C0003B6903F1F0017B689B8C1A4600F03EFAF2
:1023D0000346BB81B8893B6903F1F001032337222F
:1023E00000F0D0F90346BB810023BB770EE0B8892B
:1023F0003B6903F1F001BB7F294AD35C1A4600F028
:10240000FBF90346BB81BB7F0133BB77BB7F022B4C
:10241000EDD9B8893B69F0337A69194600F034FF89
:10242000204B18687B68009343231F4A79690CF09E
:10243000BFFE0346FB77786905F052FB01E0FF23FE
:10244000FB77BB699B79FF2B05D0BB699B79013377
:10245000DAB2BB699A71BB699B79092B0AD8BB694F
:102460009B799BB21A465201D21A92001344DB00A8
:102470009BB201E042F21073FB81FB8903F2F3137C
:102480000A4A82FB03125211DB17D31A9AB2BB69B4
:102490001A8197F91F3018462037BD4680BD00BF0E
:1024A00004000020A800002094C60108D34D62104B
:1024B000B0B58AB002AF78607B681B6ABB6103214C
:1024C000B86900F045F907F10C030322B96978688F
:1024D00000F0FAFD78617B69002B66D07B695B6850
:1024E0003B61B8893B6903F1F0010223392200F016
:1024F00049F90346BB81B8893B69F0334FF4107248
:10250000194600F0A3F90346BB81B8893B6903F182
:10251000F0010423322200F035F90346BB81BC8967
:102520003B6903F1F005BB69DB69184603F0A3FBC7
:1025300003461A462946204600F0C0F90346BB81EF
:10254000B8893B6903F1F0010323372200F01AF93F
:102550000346BB810023BB770EE0B8893B6903F1DA
:10256000F001BB7F294AD35C1A4600F045F90346C7
:10257000BB81BB7F0133BB77BB7F022BEDD9B88911
:102580003B69F0337A69194600F07EFE204B1868EB
:102590007B68009343231F4A79690CF009FE0346C8
:1025A000FB77786905F09CFA01E0FF23FB77BB69B4
:1025B0009B79FF2B05D0BB699B790133DAB2BB69EC
:1025C0009A71BB699B79092B0AD8BB699B799BB22D
:1025D0001A465201D21A92001344DB009BB201E06A
:1025E00042F21073FB81FB8903F2F3130A4A82FB68
:1025F00003125211DB17D31A9AB2BB691A8197F9E9
:102600001F3018462037BD46B0BD00BF0400002073
:10261000A800002094C60108D34D6210B0B58AB05E
:1026200002AF78607B681B6AFB61FB69002B00F0DE
:102630008480FB695B79002B00F08180FB699B69DA
:102640003B61FB6900229A61FB690022DA61FB6948
:1026500000221A62FB6900225A62FB6900221A6397
:10266000FB691A6BFB69DA62FB69DA6AFB699A62D9
:10267000FB6900229A82FB699A8AFB695A82FB698C
:102680005A8AFB691A82FB691A8AFB69DA817868BF
:1026900000F028FE0346002B3BD007F10E03072273
:1026A000F969786800F010FDB861BB69002B30D083
:1026B000BB695B687B61F8897B6903F1F0010423E6
:1026C000362200F05FF80346FB81FC897B6903F149
:1026D000F0053B69184603F0CEFA03461A46294630
:1026E000204600F0EBF80346FB81F8897B69F03364
:1026F000BA69194600F0C8FD134B186807F11002BB
:102700007B6800934323B9690CF052FDB86905F06A
:10271000E7F90E4B0D4A0D49786804F05FFD002182
:10272000F86900F015F8FB691B79002B08D0FEF75B
:10273000A5FFFB6900221A7102E000BF00E000BFA4
:102740002037BD46B0BD00BFA800002090C60108DC
:1027500080B483B000AF78600B46FB707B685B7918
:10276000FA789A4208D07B68FA785A717B6800221E
:102770009A717B6800221A8100BF0C37BD465DF854
:10278000047B704780B582B000AF396011461A46AD
:102790000346FB800B467B7113463B71FA883B79FD
:1027A00013440233442B0BD9104B40F29A52104978
:1027B0001048FEF7BDFD002015F05EFE15F0A2FDED
:1027C000FB885A1CFA801A463B6813447A791A70BF
:1027D000FB885A1CFA801A463B6813443A791A70EF
:1027E000FB8818460837BD4680BD00BF688B0108CE
:1027F000E48C0108B08B010880B582B000AF0346BD
:102800003960FB8013467B71FB88432B0BD90C4B43
:1028100040F2A6520B490C48FEF78AFD002015F045
:102820002BFE15F06FFDFB885A1CFA801A463B6898
:1028300013447A791A70FB8818460837BD4680BD64
:10284000688B0108288D0108B08B010880B582B023
:1028500000AF03463960FB801346BB80FB88023320
:10286000442B0BD9124B40F2AE5212491248FEF7DC
:102870005FFD002015F000FE15F044FDFB885A1C9A
:10288000FA801A463B681344BA88120A92B2D2B24E
:102890001A70FB885A1CFA801A463B681344BA889F
:1028A000D2B21A70FB8818460837BD4680BD00BFFB
:1028B000688B0108608D0108B08B010880B584B079
:1028C00000AF0346B9607A60FB81FB890433442B77
:1028D0000BD91C4B40F2B7521B491C48FEF728FD90
:1028E000002015F0C9FD15F00DFDFB895A1CFA8179
:1028F0001A46BB6813447A68120ED2B21A70FB896A
:102900005A1CFA811A46BB6813447A68120CD2B278
:102910001A70FB895A1CFA811A46BB6813447A68FC
:10292000120AD2B21A70FB895A1CFA811A46BB6885
:1029300013447A68D2B21A70FB8918461037BD4624
:1029400080BD00BF688B01089C8D0108B08B010819
:1029500080B590B000AF786039600023FB6200233F
:10296000BB6208220021BC4815F0A0FE7B685B8991
:102970002B2B02D86FF00103C7E27B685B68BB6159
:10298000F023FB867B681B89BB867B683B630CE07E
:102990003B6B5B89FA8ED31AFB863B6B5B89BA8EE5
:1029A000D31ABB863B6B1B683B633B6B002B04D08D
:1029B0003B6B5B89FA8E9A42EAD23B6B002B02D1C9
:1029C0006FF00103A1E2FB8E7B87BB8E3B873B6BE5
:1029D0005B68FB6359E27B8FFA6B13441B78FB75D2
:1029E000002387F826304FF0FF333B627B8F0233A2
:1029F000FB83FA8B7B8F9A4202D26FF0010384E251
:102A00007B8F01333A6B5289934207DA7B8F013314
:102A1000FA6B13441B7887F827300BE03B6B1B687D
:102A2000002B04D03B6B1B685B681B7800E0002325
:102A300087F8273097F8273087F82630FB7D3B2B27
:102A400000F23E8101A252F823F000BF3D2B0008A6
:102A50004D2B0008C12C0008732B0008C12C000866
:102A6000C12C0008C12C0008C12C0008C12C000892
:102A7000C12C0008C12C0008C12C0008C12C000882
:102A8000C12C0008C12C0008C12C0008C12C000872
:102A9000C12C0008C12C0008C12C0008C12C000862
:102AA000C12C0008C12C0008C12C0008C12C000852
:102AB000C12C0008C12C0008C12C0008C12C000842
:102AC000C12C0008C12C0008C12C0008C12C000832
:102AD000C12C0008C12C0008C12C0008C12C000822
:102AE000C12C0008C12C0008C12C0008C12C000812
:102AF000C12C0008C12C0008C12C0008C12C000802
:102B0000C12C0008C12C0008C12C0008C12C0008F1
:102B1000C12C0008C12C0008A32B0008C92B0008F9
:102B20000D2C0008332C0008C12C0008C12C000813
:102B3000C12C0008752C00089B2C0008002387F886
:102B4000273097F8273087F82630BDE097F82730F0
:102B5000042B0BD0414B40F22E6241494148FEF715
:102B6000E7FB002015F088FC15F0CCFB06233B6248
:102B7000AAE0042387F8263097F8272097F8263014
:102B80009A420BD2354B40F2336237493548FEF753
:102B9000CFFB002015F070FC15F0B4FB07233B625F
:102BA00092E097F82730042B0BD02C4B40F2416277
:102BB0002B492C48FEF7BCFB002015F05DFC15F0FE
:102BC000A1FB03233B627FE097F82730012B0BD05A
:102BD000224B40F24F6225492248FEF7A9FB002014
:102BE00015F04AFC15F08EFBFB8EF02B0BD01B4B27
:102BF00040F251621E491B48FEF79AFB002015F077
:102C00003BFC15F07FFB00233B625DE097F827302B
:102C1000012B0BD0114B40F2556214491148FEF7BD
:102C200087FB002015F028FC15F06CFB01233B62AC
:102C30004AE097F82730042B0BD0084B40F259623A
:102C400007490848FEF774FB002015F015FC15F045
:102C500059FB02233B6237E018310120688B0108E1
:102C6000D88D0108B08B0108E48D0108F88D0108AA
:102C7000048E010897F82730042B0BD0A54B40F2A7
:102C80005D62A549A548FEF753FB002015F0F4FB53
:102C900015F038FB04233B6216E097F82730042B2D
:102CA0000BD09C4B40F261629B499C48FEF740FB75
:102CB000002015F0E1FB15F025FB05233B6203E046
:102CC000002387F8263000BFFB7D002B03D17B8FCC
:102CD00001337B87ADE07A8F97F8273013440233B6
:102CE000B3F5803F02DB6FF001030EE197F8273068
:102CF0009AB27B8F13449BB202337B8797F82630BE
:102D0000002B00F096800023BB603B6A002B02DBA7
:102D10003B6A072B0BDD7F4B4FF4CF6280497F4826
:102D2000FEF706FB002015F0A7FB15F0EBFA7D4A35
:102D30003B6A13441B78002B7BD197F82630032B7A
:102D400003D897F826309BB200E00423BB82FB8BAC
:102D5000BA8A07F10801386B05F002F903461A46F2
:102D6000BB8A934202D06FF00103CEE097F8263081
:102D7000042B35D997F8263003F00303DBB2002B80
:102D80000BD0644B40F2816267496448FEF7D0FA89
:102D9000002015F071FB15F0B5FA624A3B6A134446
:102DA00001221A70BB68184602F065FF01465F4AAF
:102DB0003B6A42F8231097F82630043B87F8263008
:102DC000FB8B04337B827A8AFB8B9A4202D26FF0B0
:102DD00001039AE07B8AFB833B6A01333B6294E701
:102DE00097F82630042B06D1BB68184602F043FF43
:102DF0000346BB6013E097F82630012B0BD0454B00
:102E00004FF4D2624A494548FEF792FA002015F085
:102E100033FB15F077FA07F108031B78BB60414AD2
:102E20003B6A134401221A70BA6840493B6A41F870
:102E300023203B6B5B897A8F9A4226D33B6B5B895D
:102E40007A8FD31A7B873B6B5B893A8FD31A3B8788
:102E50007A8F3B8F9A4215D23B6B1B683B633B6B6F
:102E6000002B0BD12B4B40F29D6232492B48FEF7D1
:102E70005FFA002015F000FB15F044FA3B6B5B682D
:102E8000FB6302E06FF001033FE03B6B002B0AD0D5
:102E90007A8F3B8F9A4206D27B8FFA6B13441B7852
:102EA000FF2B7FF498AD1F4B1B78002B18D01F4BC6
:102EB0001B68FB601B4B00221A70FB68012B02D1C0
:102EC0000123FB620CE0FB68022B02D10123BB62F1
:102ED00006E0FB68032B03D10123BB620123FB62E5
:102EE000FB6A002B06D00023FB626C23FB86EC23DD
:102EF000BB864AE5BB6A002B06D00023BB622C23AD
:102F0000FB866C23BB8640E5002318464037BD4650
:102F100080BD00BF688B0108D88D0108B08B010807
:102F20001C8E010818310120308E0108203101204B
:102F3000488E01085C8E010880B58AB000AFF86049
:102F4000B9607A603B605D4B5B683B623B6A1B6AC1
:102F5000FB617B685B68BB61FB69002B00F0A780AD
:102F6000FB691B79002B00F0A2807B685B892B2B0F
:102F700040F29280BB691B78022B40F08F800023C7
:102F800087F8273011E097F827303A6A134493F80E
:102F9000262097F82730B9690B441B7F9A427FD1CE
:102FA00097F82730013387F827303B6A93F82C30A5
:102FB00097F827209A4203D297F82730052BE2D9B9
:102FC000BB695B68184602F056FE0246FB691B6847
:102FD0009A4267D1F9697868FFF7BAFC0346002B7B
:102FE00062D1374B5B78002B60D07B685B687B617C
:102FF000344B5B68FB74FB7C052B2AD1FB695B7946
:10300000012B12D17969386AFEF70CFE3B6A93F8FE
:103010002D3003F00803002B03D0386AFEF778FB4D
:1030200045E0386AFFF72AF841E0FB695B79032B3A
:1030300007D0FB695B79042B03D0FB695B79052B17
:1030400035D17969386AFEF7EDFD386AFFF716F871
:103050002DE0FB7C062B13D1FB695B79032B0BD096
:10306000FB695B79012B07D0FB695B79042B03D0EB
:10307000FB695B79052B03D1386AFEF72FFB16E05D
:10308000FB7C022B13D1FB695B79062B0FD179698D
:10309000386AFEF771FB0AE000BF08E000BF06E0F7
:1030A00000BF04E000BF02E000BF00E000BF78689E
:1030B00004F016FD00BF2837BD4680BD70370120E3
:1030C000183101202031012080B588B000AFF860B0
:1030D000B9603B601346FB71FB68002B0BD1644B5E
:1030E00040F2697263496448FEF722F9002015F046
:1030F000C3F915F007F9BB68002B0BD15C4B40F20C
:103100006A725E495C48FEF713F9002015F0B4F9C5
:1031100015F0F8F84FF420724FF49A71362004F04D
:10312000E7F9B861BB69002B01D100239CE0BB69C2
:103130005B89B3F59A7F0BD24D4B40F272725049C6
:103140004D48FEF7F5F8002015F096F915F0DAF87D
:10315000FB79032B03D1BB685B79032B0CD1BB68D4
:103160009B79002B04D1474B1B680133454A136000
:10317000444B1A68BB681A60BB695B687B614FF49B
:103180009A720021786915F091FA7B6901221A7010
:103190007B6901225A70FB6893F82C207B699A7036
:1031A000BB681B68184602F066FD02467B695A60E0
:1031B000FB79082B10D0FB79042B0DD0FB79072B62
:1031C0000AD0FB79032B0CD1BB685B79052B03D0AC
:1031D000BB685B79042B04D1FB6804331A687B69F4
:1031E000DA600023FB830CE0FB8BFA8BF9680A445E
:1031F00092F826107A6913440A461A77FB8B01333A
:10320000FB83FB8B052BEFD97B69002242F0630225
:1032100083F8EC20002262F07D0283F8ED2000228A
:1032200042F0530283F8EE20002242F0630283F85A
:10323000EF207B6903F1F001012335220020FFF725
:10324000A1FA03467B827B6903F1F001FA797B8A5C
:103250001846FFF7D1FA03467B823B68002B02D069
:103260003B687A8A1A80BB6918462037BD4680BD04
:10327000688B0108708E0108B08B0108908E0108E0
:10328000B08E01080800002080B584B000AF03466E
:10329000B9607A60FB81FB895A1CFA811A46BB68C7
:1032A0001344FF221A7007E0FB895A1CFA811A4660
:1032B000BB68134400221A70FB89432B04D9FB8995
:1032C00003F00303002B02D0FB89432BECD9FB89CD
:1032D000F0339BB21946786804F02CFA00BF10371F
:1032E000BD4680BD80B485B000AF78607B68002BA0
:1032F00017D07B681B6A002B13D07B681B6AFB60AE
:10330000FB685B790A2B07D0FB685B79052B03D040
:10331000FB685B79042B01D1012300E00023DBB2C1
:1033200000E0002318461437BD465DF8047B704763
:1033300080B582B000AF786015497A6813465B00AB
:103340001344DB000B441B68002B13D010497A6830
:1033500013465B001344DB000B441B68184604F063
:10336000BFFB0B497A6813465B001344DB000B4438
:1033700000221A6006497A6813465B001344DB009A
:103380000B44143300221A7000BF0837BD4680BDBD
:10339000B000002080B582B000AF00237B6096E0D3
:1033A0004F497A6813465B001344DB000B44143327
:1033B0001B78FB70FB78002B00F0868048497A6808
:1033C00013465B001344DB000B4412331B880133AC
:1033D00098B243497A6813465B001344DB000B4400
:1033E000123302461A803E497A6813465B00134442
:1033F000DB000B4412331B88B3F5967F15D2384996
:103400007A6813465B001344DB000B4414331B78CB
:10341000012B0ED132497A6813465B001344DB005E
:103420000B4412331B88042B03D97868FFF780FF05
:103430004AE02B497A6813465B001344DB000B44D7
:1034400014331B78032B0AD125497A6813465B0095
:103450001344DB000B44143304221A7034E0204977
:103460007A6813465B001344DB000B4414331B786B
:10347000042B0AD11A497A6813465B001344DB0017
:103480000B44143302221A701EE015497A68134661
:103490005B001344DB000B4414331B78012B13D166
:1034A0000F497A6813465B001344DB000B44083372
:1034B00018687A6813465B001344DB00084A13441B
:1034C0000433194600F0E0FE7B6801337B607B68C3
:1034D000092B7FF765AF00BF0837BD4680BD00BF31
:1034E000B000002080B58AB000AFF8600B467A606B
:1034F000FB720A23FB840A23BB840A237B840023F8
:103500003B840A23FB830023BB8300237B830023AC
:103510003B8300233B84B3E0B7F92020B249134634
:103520005B001344DB000B4414331B78FB75B7F9C5
:1035300022300A2B05D1FB7D002B02D13B8C7B84F2
:103540009AE0FB7D002B00F09780FB7D012B0ED0D5
:10355000FB7D012B0BD8A54B4FF49272A449A548D3
:10356000FDF7E6FE002014F087FF14F0CBFEFB68A9
:10357000002B20D0FB681968B7F920209A48134621
:103580005B001344DB00034404331B68994212D1EF
:103590007B68002B0CD0B7F92020934913465B00C1
:1035A0001344DB000B4408331A687B689A4202D14B
:1035B000B7F9203013E1FB7D012B40D1B7F9202072
:1035C000894913465B001344DB000B441B68002B46
:1035D0001AD0B7F92020844913465B001344DB005E
:1035E0000B4412331B88BA8B9A4245D83B8CFB8321
:1035F000B7F920207C4913465B001344DB000B44E1
:1036000012331B88BB8337E0B7F920207649134675
:103610005B001344DB000B4412331B887A8B9A4205
:103620002AD83B8CFB84B7F920206F4913465B00F6
:103630001344DB000B4412331B887B831CE0FB7DAF
:10364000012B19D9B7F92020674913465B001344B1
:10365000DB000B4412331B883A8B9A420CD83B8C0C
:10366000BB84B7F92020604913465B001344DB009C
:103670000B4412331B883B833B8C01339BB23B844E
:10368000B7F92030092B7FF747AFFB7A03F002032D
:10369000002B08D1B7F922300A2B07D1FB7A03F0AF
:1036A0000103002B02D14FF0FF3398E0B7F922302D
:1036B000092B02DC7B8C3B8442E0B7F92430092BD8
:1036C00018DCBB8C3B84B7F92020474913465B00CC
:1036D0001344DB000B441B68002B1CD0434B40F20F
:1036E0006D1245494348FDF723FE002014F0C4FE47
:1036F00014F008FEB7F92630092B02DCFB8C3B8462
:1037000009E0B7F91E30092B02DCFB8B3B8402E099
:103710004FF0FF3363E0B7F92030092B0BDD334B5B
:1037200040F27F1235493348FDF702FE002014F0C5
:10373000A3FE14F0E7FDB7F920301846FFF7F8FDB7
:10374000B7F92030092B0BDD284B40F283122B49AF
:103750002848FDF7EDFD002014F08EFE14F0D2FD98
:10376000B7F92020204913465B001344DB000B44CB
:1037700014331B78002B0BD01C4B40F285122049D0
:103780001C48FDF7D5FD002014F076FE14F0BAFDBC
:10379000FB68002B0BD0B7F92020FB681968124892
:1037A00013465B001344DB00034404331960B7F98C
:1037B00020200D4913465B001344DB000B441233F9
:1037C00000221A80B7F92020074913465B001344F2
:1037D000DB000B4408337A681A60B7F920301846CA
:1037E0002837BD4680BD00BFB0000020F08E010824
:1037F000108F0108508F0108788F0108908F010801
:10380000A48F010880B588B002AFF860B9607A6013
:10381000FB70FB6893F82C30062B0BD04A4B40F220
:10382000A9124A494A48FDF783FD002014F024FEFE
:1038300014F068FDBB68002B12D0BB681B68002B1E
:103840000ED0BB681B68F968184601F0E5FA03461C
:10385000002B05D1BB681B6803F0F003E02B02D1FD
:103860006FF00F036CE0FB78FA681946B868FFF751
:1038700039FE0346FB82B7F91630002B02DAFB8AC9
:103880005BB25DE0B7F91620324913465B00134482
:10389000DB000B44143302221A70B7F916202D49AD
:1038A00013465B001344DB000B440833FA681A60CC
:1038B000B7F9162013465B001344DB000833254A92
:1038C0001344043306227968184614F0E4FEB7F96D
:1038D0001620204913465B001344DB000B441233CF
:1038E00000221A80B7F916201A4913465B001344C8
:1038F000DB000B441B68002B21D0B7F916201549BB
:1039000013465B001344DB000B441B683B61B7F9B3
:103910001620104913465B001344DB000B440022C1
:103920001A60FB6803F126024FF4006300937B6882
:103930003969F868FDF7F8FD386904F0D1F800231B
:1039400018461837BD4680BDF08E0108D08F01089B
:10395000508F0108B0000020B0B58AB004AF786085
:1039600039603B68002B0BD14E4B40F28A224E4906
:103970004E48FDF7DDFC002014F07EFD14F0C2FC83
:103980007B685B683B613B691B889BB2B3F5807FBA
:103990000CD13B691B79062B08D13B695B79042B61
:1039A00004D13B695B889BB2082B0FD0404B1B8D29
:1039B00001339AB23E4B1A853D4BDB8B01339AB2F1
:1039C0003B4BDA83786804F08BF867E0384B5B8B0D
:1039D00001339AB2364B5A833B690E331B68FB6046
:1039E0003B6918331B68BB603B6804331B68002BC2
:1039F00002D10023FB7509E0BA683B6804331B68F9
:103A00009A420CBF01230023DBB2FB753B6903F133
:103A10000802FB7D002B01D0012300E0022307F107
:103A20000C013868FFF7EEFE3B69DB889BB2B3F50B
:103A3000807F03D0B3F5007F1ED024E0FB7D002BF8
:103A400028D03B6803F126003B6903F108043B687A
:103A500003F126053B6804333A69083202210391D9
:103A600007F10C010291019200932B462246014678
:103A7000386800F03DFB0DE007F10C03194638688B
:103A8000FEF7B2F907E00A4B9B8D01339AB2084B5F
:103A90009A8500E000BF786804F022F81837BD4628
:103AA000B0BD00BFF08E010828900108508F0108BA
:103AB000446E012080B586B002AFF860B96013464D
:103AC000FB71FA79474913465B001344DB000B4452
:103AD00014331B78012B0BD8434B40F2EF224349A0
:103AE0004348FDF725FC002014F0C6FC14F00AFC46
:103AF000FA793C4913465B001344DB000B44143352
:103B00001B78022B53D1FA79364913465B001344D4
:103B1000DB000B4412331B88B3F58E7F19D9FA7979
:103B200013465B001344DB002E4A1344043319464A
:103B3000F86800F0A9FB0346002B38D1FA7929492F
:103B400013465B001344DB000B44143303221A704A
:103B50002DE0FA79234913465B001344DB000B4444
:103B600012331B88B3F5877F21D3FA7913465B00A4
:103B70001344DB001B4A1344191DFA7913465B00FA
:103B80001344DB000833174A134404331A46F86819
:103B900000F058FB0346002B09D1FA79114913466E
:103BA0005B001344DB000B44143303221A70FB68E0
:103BB00003F12601FA7913465B001344DB00083356
:103BC000084A13441A1D4FF40063009313460A4633
:103BD000B968F868FDF7A8FC034618461037BD46DB
:103BE00080BD00BFB0000020F08E010848900108A1
:103BF000508F010880B58AB002AFF860B9607A6072
:103C00007B68BB61FB68002B0BD17E4B40F21E3200
:103C10007D497E48FDF78CFB002014F02DFC14F04C
:103C200071FBBB68002B0BD1764B40F21F327849F9
:103C30007648FDF77DFB002014F01EFC14F062FBBB
:103C40007B68002B0BD16F4B4FF4487271496F4862
:103C5000FDF76EFB002014F00FFC14F053FB7B68A3
:103C60001B68F968184601F0D7F80346002B02D00C
:103C7000694BFB61B5E07B681B6803F0F003E02B48
:103C800018D101233B7400237B745E23BB747B68D3
:103C900001331B7803F07F03DBB2FB747B680233D4
:103CA0001B783B757B6803331B787B7507F110032A
:103CB000FB6196E07B681A68FB6804331B685A4016
:103CC000FB6808331B681340002B12D07B681B680D
:103CD0009BB24FF6A96293420BD0FB680C331B6872
:103CE000002B03D0FB680C33BB6102E06FF00303D1
:103CF00083E04A4B1B781946494A0B465B000B444C
:103D0000DB00134414331B78012B2BD9434B1B7856
:103D10001946434A0B465B000B44DB00134408334F
:103D20001A68FB689A421DD1BB691A683B4B1B7825
:103D300018463B4903465B000344DB000B44043355
:103D40001B689A420ED1374BDB8D01339AB2354B4B
:103D5000DA85324B1B781A46B968F868FFF7AAFE75
:103D600003464AE00023FB7531E0FA7D2C491346F7
:103D70005B001344DB000B4414331B78012B23D965
:103D8000FA7D274913465B001344DB000B440833DC
:103D90001A68FB689A4217D1BB691968FA7D2048F6
:103DA00013465B001344DB00034404331B68994251
:103DB0000AD11A4AFB7D1370FB7D1A46B968F86870
:103DC000FFF778FE034618E0FB7D0133FB75FB7DB2
:103DD000092BCAD9BA68B969F86800F025F8034612
:103DE0000BE0FB6803F126024FF400630093FB69CC
:103DF000B968F868FDF798FB034618462037BD46BA
:103E000080BD00BFF08E010828900108508F010886
:103E1000789001081890010880C60108A0010020D0
:103E2000B0000020446E012080B58CB002AFF86075
:103E3000B9607A60FB6826337B61FF2387F82730FF
:103E400000233B62BB681B68F968184600F0E4FF7A
:103E50000346002B0CD1BB681B6803F0F003E02B7A
:103E600006D0BB68002B03D0BB681B68002B02D1B7
:103E70006FF00F0325E1FA680121B868FFF732FB04
:103E800003467B82B7F91230002B0BDA7B68002BDC
:103E900005D08E4B9B8C01339AB28C4B9A847B8AD3
:103EA0005BB20EE17B8A7E2B0BD9894B40F2C1328B
:103EB00088498948FDF73CFA002014F0DDFA14F037
:103EC00021FA7B8A7B747A7C844913465B00134415
:103ED000DB000B4414331B78002B15D101233B620C
:103EE0007A7C7E4913465B001344DB000B44143399
:103EF00001221A707A7C794913465B001344DB0077
:103F00000B440833FA681A607A7C744913465B00E4
:103F10001344DB000B4414331B78012B16D07A7C3E
:103F20006E4913465B001344DB000B4414331B78CB
:103F3000012B0BD8664B40F2CF3269496648FDF73A
:103F4000F7F9002014F098FA14F0DCF93B6A002B22
:103F500002D17B68002B0CD1B968F86800F094F9A5
:103F6000034687F827307B68002B02D197F927306A
:103F7000A7E07B68002B0BD1554B40F2E132594949
:103F80005548FDF7D5F9002014F076FA14F0BAF987
:103F90007A7C524913465B001344DB000B44143314
:103FA0001B78012B18D9504A7B7C13707A7C1346FE
:103FB0005B001344DB000833484A13441A1D4FF4D6
:103FC0000063009313467A697968F868FDF7ACFAE4
:103FD000034687F8273072E07A7C404913465B003D
:103FE0001344DB000B4414331B78012B67D10023EF
:103FF000BB617B68FB6121E0FB695A89FB691B8916
:104000009A420FD1FB691B68002B0BD0304B40F25A
:10401000F13236493048FDF78BF9002014F02CFAC4
:1040200014F070F9FB691B7B03F04003002B02D0F6
:104030000123BB6105E0FB691B68FB61FB69002B89
:10404000DAD1BB69002B07D07A684FF420710E20BB
:1040500003F0FEFFF86104E07B68FB61F86903F0A0
:10406000F9FDFB69002B21D07A7C1C4913465B00CB
:104070001344DB000B441B68002B0AD07A7C1749E1
:1040800013465B001344DB000B441B68184603F027
:1040900027FD7A7C114913465B001344DB000B4477
:1040A000FA691A60002387F8273008E0074B9B8CD9
:1040B00001339AB2054B9A84FF2387F8273097F98A
:1040C000273018462837BD4680BD00BF446E01200A
:1040D000F08E010884900108508F0108B000002084
:1040E0009490010878900108A0010020BC9001087C
:1040F00080B58AB002AFF860B9607A603B60002397
:10410000FB77FB68002B0BD1484B40F257424849E4
:104110004848FDF70DF9002014F0AEF914F0F2F85C
:104120004FF420721C210E2003F0E2F9B861BB6944
:10413000002B08D1404B9B8C01339AB23E4B9A84A2
:104140004FF0FF336DE0BB695B891B2B0BD8374BFE
:1041500040F2634239493748FDF7EAF8002014F08D
:104160008BF914F0CFF8BB695B687B61BB8E184696
:1041700001F06CFD03461A467B69DA80FB6893F810
:104180002C30062B0BD0294B40F26A422C4929488F
:10419000FDF7CEF8002014F06FF914F0B3F87B6946
:1041A000083306223968184614F075FA7B69123311
:1041B0000622F96A184614F06EFA7B690E33BA6A61
:1041C00012681A607B6918333A6B12681A607B694F
:1041D00000221A70002242F001025A707B6900220C
:1041E00042F008029A700022DA707B6906221A7186
:1041F0007B6904225A7140F6060300937B68BA6813
:10420000B969F868FDF790F90B4B1B8B01339AB233
:10421000094B1A83B86903F063FC0023BB6197F96B
:104220001F3018462037BD4680BD00BFF08E010804
:1042300028900108508F0108446E0120D890010891
:104240000C91010880B588B004AFF860B9607A605D
:10425000FB6803F12601FB6803F12600FB680433C9
:1042600001220392BA680292064A01920093034621
:104270007A68F868FFF73CFF034618461037BD46DA
:1042800080BD00BF88C6010880B582B000AF7860ED
:104290003960054A39687868FFF7D4FF0346184645
:1042A0000837BD4680BD00BF80C6010880B58EB00E
:1042B00004AF78603960AA4BB3F8623001339AB228
:1042C000A74BA3F86220A74B9B687B627B6A1B7895
:1042D00003F00F03DBB29B00DBB27B847B8C132BE0
:1042E00040F217817B685B89032B40F214817B6865
:1042F0005B681B7887F8213097F82130002B00F09D
:104300000181082B40F0ED80974BFB61954B5B6979
:1043100003F0F003E02B00F00D81924B5A69914BB2
:104320001B681946104600F077FD0346002B40F04D
:1043300003817B681B89072B40F2EF80786801F0CE
:10434000EDFF0346002B0BD0786803F0C9FB844BCC
:10435000B3F8683001339AB2814BA3F86820FCE0CF
:104360007B8C0E331946786803F0EAFA0346002B7B
:104370004CD07B681A897B8C13447B837B681B89B8
:104380007A8B9A42C0F0DA807B8B4FF42072194608
:104390000E2003F0ADF878617B69002B00F0D0802F
:1043A0007B695B891A467B8C08339A4203D2786911
:1043B00003F096FBC5E07B695B687A8C796A1846E6
:1043C00014F069F97B8C1946786903F0C9FA034641
:1043D000002B0AD0654BB62265496648FCF7A8FF5A
:1043E000002014F049F813F08DFF7968786903F024
:1043F000D3FC0346002B03D0786903F071FBA0E0E7
:10440000786803F06DFB7B697B6013E07B8C0E3377
:104410001946786803F0A4FA0346002B0AD0534BE0
:10442000C72255495348FCF783FF002014F024F8B5
:1044300013F068FF7B685B683B617B8C194678688A
:1044400003F07EFA0346002B5ED17B685B68FB605D
:10445000FB691A68FB68DA60424B1A69FB681A61EB
:104460003B6900221A703B695B889BB24FF6F7727A
:10447000934207D93B695B889BB209339AB23B6987
:104480005A8006E03B695B889BB208339AB23B696D
:104490005A80FB68FF221A72FB6800229A7200227F
:1044A000DA727B8C1946F86801F026FF03461A463B
:1044B000FB685A812A4BB3F8603001339AB2284B1B
:1044C000A3F860203B68029301230193002300932B
:1044D000FF230022F969786800F03CFB0346FB7279
:1044E00012E01F4BB3F8703001339AB21C4BA3F8A3
:1044F00070201B4BB3F8663001339AB2184BA3F807
:10450000662002E000BF00E000BF786803F0E8FA30
:1045100023E000BF02E000BF00E000BF786803F0C6
:10452000DFFA0F4BB3F86A3001339AB20C4BA3F8A1
:104530006A2012E000BF04E000BF02E000BF00E01C
:1045400000BF786803F0CCFA054BB3F87430013340
:104550009AB2034BA3F8742000BF2837BD4680BD34
:10456000446E0120703701208437012050910108EA
:1045700070910108A8910108D091010880B582B01E
:1045800000AF78600B46FB70FB781A460321786811
:1045900000F014F800BF0837BD4680BD80B582B07A
:1045A00000AF78600B46FB70FB781A460B217868E9
:1045B00000F004F800BF0837BD4680BD80B58CB060
:1045C00004AF78600B46FB701346BB704FF420724B
:1045D0002421222002F08CFFF861FB69002B63D0BC
:1045E000FB695B89232B0BD8314B40F269123149AF
:1045F0003148FCF79DFE002013F03EFF13F082FED1
:104600007B685B68BB61FB695B687B617B69FA788F
:104610001A707B69BA785A707B6900221A7100227D
:104620005A717B6900229A710022DA71FB695B681A
:1046300003F108007B685B681C22194614F02BF814
:10464000BB69DB68FB6007F10C03184600F038F823
:1046500038613B69002B23D07B6900229A700022CD
:10466000DA70FB695B891946786901F045FE0346FB
:104670001A467B695A80114BB3F8603001339AB205
:104680000E4BA3F8602007F10C023B690293012353
:10469000019300230093FF230021F86900F05AFAE8
:1046A000F86903F01DFA00E000BF2037BD4680BD69
:1046B0005091010804920108A8910108446E01205C
:1046C00080B485B000AF7860354B1B68FB6033E089
:1046D000FB6893F82D3003F00103002B29D0FB6811
:1046E00093F82D3003F00403002B22D0FB68043331
:1046F0001B68002B1DD07B681A68FB6804331B689D
:104700005A40FB6808331B681340002B01D1FB683B
:1047100040E0FB6893F82D3003F00203002B08D132
:104720007B681A68FB680C331B689A4201D1FB68EE
:1047300030E0FB681B68FB60FB68002BC8D1194B9D
:104740001B68002B1AD0174B1B6893F82D3003F011
:104750000103002B12D0134B1B6893F82D3003F08C
:104760000403002B0AD00F4B1B6804331B68002B7B
:1047700004D07B681B68DBB27F2B09D10A4BB3F8EE
:10478000563001339AB2084BA3F85620002301E0BB
:10479000044B1B6818461437BD465DF8047B704710
:1047A000386E01203C6E0120446E012080B582B03D
:1047B00000AF78607B6893F82D3003F00103002B85
:1047C00016D07B6804331B68002B11D00B4B5A6941
:1047D0007B6804331B689A4208D0084B5B69796890
:1047E000184600F019FB0346002B01D0012300E01E
:1047F000002318460837BD4680BD00BF7037012032
:1048000080B588B000AF7860396001237B61A24B2E
:10481000B3F84A3001339AB29F4BA3F84A207B6821
:104820005B68FB61FB691B781B09DBB2042B14D0AE
:10483000786803F055F9984BB3F85C3001339AB2BD
:10484000954BA3F85C20944BB3F84E3001339AB2E9
:10485000914BA3F84E20002373E1FB691B7803F012
:104860000F03DBB29B00DBB27B82FB695B889BB2F0
:10487000184601F0EBF903463B827B681B893A8AB4
:104880009A4204D23B8A1946786802F053FF7B684B
:104890005B897A8A9A4207D87B681B893A8A9A424E
:1048A00002D87B8A132B14D8786803F019F97A4B55
:1048B000B3F8523001339AB2774BA3F85220764BBB
:1048C000B3F84E3001339AB2734BA3F84E20002355
:1048D00037E17B8A1946F86901F00EFD0346002B8B
:1048E00014D0786803F0FCF86B4BB3F85030013308
:1048F0009AB2694BA3F85020674BB3F84E3001339E
:104900009AB2654BA3F84E2000231AE1FB691B699C
:10491000624A5361FB69DB68604A13615F4B5B6904
:1049200003F0F003E02B11D13B6893F82D3003F036
:104930000103002B07D03B6804331B68002B02D017
:104940003B68BB612AE00023BB6127E03868FFF7C2
:104950002DFF0346002B02D03B68BB611EE0002305
:10496000BB614E4B5B69DBB27F2B17D04C4B1B6896
:10497000BB610EE0BA693B689A4206D0B869FFF79E
:1049800015FF0346002B08D100E000BFBB691B6880
:10499000BB61BB69002BEDD100E000BFBB69002B00
:1049A00011D1FB695B7A112B0DD17B8AFA69134413
:1049B000FB60FB685B889BB2B3F5884F03D13B6813
:1049C000BB6100237B617B69002B1FD0334B1B69CC
:1049D000002B1BD0314B1B693968184600F01CFABC
:1049E0000346002B05D12D4B1B6903F0F003E02B90
:1049F0000CD1786803F074F8274BB3F84E300133CC
:104A00009AB2254BA3F84E2000239AE0BB69002BF5
:104A10000CD1214BB3F84E3001339AB21E4BA3F8A0
:104A20004E20786803F05CF800238AE0FB69DB889D
:104A30009BB21A464FF63F731340002B0BD0786899
:104A400000F06EFD78607B68002B01D1002378E0D8
:104A50007B685B68FB61114ABB6913600F4A3B6866
:104A600053600E4AFB699360FB691B7803F00F03E8
:104A7000DBB29B00DBB29AB2084B9A817B8A194663
:104A8000786802F06DFFFB695B7A062B0FD0112B63
:104A900008D0012B10D014E0446E012070370120A3
:104AA000386E0120396878680AF062F936E03968B2
:104AB000786805F069FA31E039687868FFF7F6FB45
:104AC0002CE0224B5B69B969184600F0A5F9034652
:104AD000002B0FD11D4B5B6903F0F003E02B09D0D5
:104AE000B7F912301946786802F0B5FF02217868EC
:104AF000FFF744FD164BB3F8583001339AB2144B0C
:104B0000A3F85820124BB3F84E3001339AB2104B31
:104B1000A3F84E20786802F0E3FF00BF0B4B0022A1
:104B20001A600A4B00225A60084B00229A60074B19
:104B300000229A81054B00221A61044B00225A611F
:104B4000002318462037BD4680BD00BF70370120C6
:104B5000446E012080B58AB004AFF860B9607A6015
:104B6000FB70BB687B617B68002B09D0BB68002BA6
:104B700003D0BB681B68002B02D1BB6A04337B6186
:104B8000FA78BB6A029397F82430019397F82030A3
:104B9000009313467A687969F86800F005F80346CF
:104BA00018461837BD4680BD80B588B000AFF860A4
:104BB000B9607A60FB700023FB61FB689B7B012B73
:104BC0000BD08E4B4FF455728D498E48FCF7B0FBDD
:104BD000002013F051FC13F095FB7B68002B00F0D4
:104BE000D18014237B831421F86802F0A9FE0346C8
:104BF000002B0AD0844BB3F85C3001339AB2824B5D
:104C0000A3F85C206FF00103F4E0FB685B687B6154
:104C1000FB685B89132B0BD8784B40F289327B49B8
:104C20007848FCF785FB002013F026FC13F06AFBA4
:104C30007B69FA781A727B6997F82C205A7297F878
:104C40002C20FB781B0213431B021AB297F82C107E
:104C5000FB781B020B431B121BB2DBB21BB21343CC
:104C60001BB29BB21A46FB691344FB617B681A684E
:104C70007B691A617B691B699BB2FA691344FB610A
:104C80007B691B691B0CFA691344FB617B8B9B08D6
:104C90009BB2DBB243F04003DAB27B691A707B69E6
:104CA00097F828205A7097F828207B691B781B02F8
:104CB00013431B021AB297F828107B691B781B025A
:104CC0000B431B121BB2DBB21BB213431BB29BB2D2
:104CD0001A46FB691344FB61FB681B89184600F008
:104CE000B5FF03461A467B695A807B695B889BB295
:104CF0001A46FB691344FB617B6900229A7100220A
:104D0000DA71434B1B88184600F0A0FF03461A4691
:104D10007B699A807B699B889BB21A46FB69134426
:104D2000FB613B4B1B8801339AB2394B1A80BB683D
:104D3000002B04D1374B1A687B69DA6003E0BB684B
:104D40001A687B69DA607B69DB689BB2FA69134495
:104D5000FB617B69DB681B0CFA691344FB61FB692F
:104D60001A0CFB699BB21344FB61FB691B0CFA69CB
:104D70001344FB61FB69DB43FB61FB699AB27B690E
:104D80005A8117E0FB685B89132B0AD81E4BB3F8D6
:104D90005C3001339AB21C4BA3F85C206FF0010326
:104DA00028E0FB685B687B617B691B693B6107F1FD
:104DB00010037B60144BB3F8483001339AB2124BA6
:104DC000A3F848203B6B9B8C002B0CD0FB681A8906
:104DD0003B6B9B8C9A4206D97A68396BF86800F075
:104DE000D5FD034606E03B6B5B697A68F968386B72
:104DF0009847034618462037BD4680BD30920108CB
:104E00004C92010858920108446E012080920108DA
:104E1000A201002090C6010880B485B000AF786080
:104E200039607B68FB607B68B3F1FF3F02D07B6831
:104E3000002B01D101232AE03B6893F82D3003F0C9
:104E40000203002B01D1002321E03B6804331A68E0
:104E50007B689A4201D1002319E0FA683B68043369
:104E60001B685A403B6808331B681340002B0DD168
:104E70003B6808331B68DA437B681A403B68083399
:104E80001B68DB439A4201D1012300E0002318464E
:104E90001437BD465DF8047B7047000080B584B0D0
:104EA00000AF0023BB60124B1B68FB6018E0FB687F
:104EB000DB7F002B0BD0FB68DB7F013BDAB2FB68AA
:104EC000DA77FB68BB60FB681B68FB6008E0FB6887
:104ED0007B60FB681B68FB60B968786800F00AF8C3
:104EE000FB68002BE3D100BF1037BD4680BD00BF7B
:104EF000A401002080B588B000AF7860396000233D
:104F0000FB833A687B689A420AD1514BAB225149E4
:104F10005148FCF70DFA002013F0AEFA13F0F2F945
:104F20003B68002B0FD03B681A687B689A420AD016
:104F3000474BAD2249494848FCF7FAF9002013F0E5
:104F40009BFA13F0DFF97B685B685B687B617B69C8
:104F50009B889BB2002B2FD17B685B68BB617B6910
:104F60001A687B685A60BB6958687B6808331422EA
:104F7000194613F090FB0121B869FFF70FFBB869E0
:104F800002F050FE03467B82FA8B7B8A1344B3F512
:104F9000803F0ADB2E4BBC2231492F48FCF7C8F971
:104FA000002013F069FA13F0ADF9FA8B7B8A1344F1
:104FB000FB83B86902F094FD7B685B68BB6124E009
:104FC000BB695B687B61BB69FB607B691B68BB611C
:104FD000F86802F027FE03467B82FA8B7B8A134433
:104FE000B3F5803F0ADB1A4BCC221D491A48FCF767
:104FF0009FF9002013F040FA13F084F9FA8B7B8AB2
:105000001344FB83F86802F06BFDBB69002BD7D11A
:105010003968786800F0CEF8124B1B88FA8B9A42F8
:105020000AD90B4BD22210490B48FCF781F900201A
:1050300013F022FA13F066F90A4B1A88FB8BD31A85
:105040009AB2084B1A80FB8B18462037BD4680BDAC
:10505000B0920108D4920108E09201080893010877
:105060001C930108A80100203C93010880B58AB078
:1050700000AF7860396000237B6100233B6200232E
:10508000FB610023BB6100233B61284B1B687B62F3
:1050900030E07B6A5A697B68DB689A420CD17B6A94
:1050A0009A697B681B699A4206D17B6A9A897B68F8
:1050B0009B889BB29A4214D03B6901333B613B6AA7
:1050C000002B04D17B6A3B62FB69BB6109E07B6A10
:1050D000DA7F3B6ADB7F9A4203D87B6A3B62FB69DB
:1050E000BB617B6A1B68002B01D07B6AFB617B6A1A
:1050F0001B687B627B6A002BCBD13B6A002B08D0FC
:10510000B969386AFFF7F6FEF8607A69FB681344FC
:105110007B617A693B689A4202DA3B69012BACDC1D
:105120007B6918462837BD4680BD00BFA40100201A
:1051300080B584B000AF78603960042001F048FE8B
:10514000F860FB68002B16D139687868FFF78EFF8E
:1051500002463B689A4203DB042001F039FEF86006
:10516000FB68002B07D1114B9B8F01339AB20F4B79
:105170009A87002316E020220021F86813F096FA9F
:10518000FB680F22DA770A4B1A68FB681A60084A34
:10519000FB681360FB68083314227968184613F023
:1051A0007AFAFB6818461037BD4680BD446E012070
:1051B000A401002080B582B000AF78603960124B46
:1051C0001A687B689A4204D17B681B680E4A136098
:1051D00012E03B68002B0BD10C4B40F245120C49FE
:1051E0000C48FCF7A5F8002013F046F913F08AF8F4
:1051F0007B681A683B681A607968042001F032FE07
:1052000000BF0837BD4680BDA4010020B092010850
:1052100060930108E092010880B58CB000AFF8609F
:10522000B9607A600023BB6201233B62BB685B68A4
:10523000FB61FB695B889BB2184600F007FD0346E3
:105240007B83FB691B7803F00F03DBB29B007B764B
:105250007B7E9BB27A8B9A4202D24FF0FF334EE1B3
:105260007B7E9BB27A8BD31A7B83FB69DB889BB2F4
:10527000184600F0EBFC0346C3F30C039BB2DB00C3
:10528000FB82BB685B68FB62FB6A00221A7000222B
:105290005A7000229A700022DA70FB6AFA8A9A80A9
:1052A000FA8A7B8B13449AB2FB6ADA80FB6ADB884A
:1052B0009BB2FA8A9A4202D94FF0FF331FE1FB6892
:1052C0005B687B6268E07B6A5B683B61FB6A9B882A
:1052D0009AB23B699B889BB29A4235D2FB6A7A6A42
:1052E0001A60BB6A002B20D0FB6A9B889AB2BB6A0B
:1052F000DB889BB29A4207D3FB6ADB889AB23B6990
:105300009B889BB29A4202D94FF0FF33F7E0BB6A09
:10531000BA681A60BB6ADB889AB2FB6A9B889BB248
:105320009A423DD000233B623AE0FB6ADB889AB2A6
:105330003B699B889BB29A4202D94FF0FF33DEE073
:10534000FB68BA685A602BE0FB6A9B889AB23B699B
:105350009B889BB29A4202D14FF0FF33CFE0FB6AA9
:105360009B889AB23B69DB889BB29A4202D24FF08B
:10537000FF33C4E0BB6A002B09D0BB6ADB889AB25A
:105380003B699B889BB29A4201D000233B623B69F8
:105390001B687B623B69BB627B6A002B93D100E098
:1053A00000BF7B6A002B37D1BB6A002B21D0BB6AC0
:1053B000DB889AB2FB6A9B889BB29A420BD9524B0C
:1053C0004FF4DB7251495248FBF7B2FF002013F053
:1053D00053F812F097FFBB6ABA681A60BB6ADB88A1
:1053E0009AB2FB6A9B889BB29A4215D000233B621B
:1053F00012E0FB685B68002B0BD0434B40F2BF12FE
:1054000044494348FBF794FF002013F035F812F0AD
:1054100079FFFB68BA685A607B68002B05D1FB688E
:105420009B7F03F00103002B68D03B6A002B5ED00A
:10543000FB685B68002B06D0FB685B685B689B8839
:105440009BB2002B02D000233B6250E0FB6ABB62A0
:10545000FB6A1B687B6212E07B6A5B68FB62BB6A6B
:10546000DB889AB2FB6A9B889BB29A4202D00023E7
:105470003B6207E0FB6ABB62FB6A1B687B627B6A7C
:10548000002BE9D13B6A002B31D0FB685B68002B15
:105490000BD11D4B40F2DF121F491D48FBF748FF9F
:1054A000002012F0E9FF12F02DFFFB685B685A68DC
:1054B000FB6A9A420BD1144B40F2E1121649144890
:1054C000FBF736FF002012F0D7FF12F01BFFFB6A3C
:1054D0001B68002B0BD00C4B40F2E3120F490C4819
:1054E000FBF726FF002012F0C7FF12F00BFF3B6A0C
:1054F000002B14BF01230023DBB200E00023184679
:105500003037BD4680BD00BFB09201087C930108D2
:10551000E09201089C930108D4930108E4930108E8
:1055200080B58EB000AF7860A34B5B8E01339AB22A
:10553000A14B5A867B685B68BB62BB6A1B7803F031
:105540000F03DBB29B00DBB2142B08D09A4BB3F8ED
:10555000443001339AB2984BA3F844208FE1BB6AE0
:10556000DB889BB2184600F071FB0346C3F30C03C3
:105570009BB2DB00FB84BB6A5B889BB2184600F0E1
:1055800065FB0346BB84BB6A1B7803F00F03DBB2E9
:105590009B0087F8233097F823309BB2BA8C9A424D
:1055A000C0F06C8197F823309BB2BA8CD31ABB84BD
:1055B000786802F037FB03463B84804B1B881A4611
:1055C0003B8C13440A2B15DD3B8C1946B86AFFF758
:1055D0004DFD0346002B06D0784B1B881A463B8CAA
:1055E00013440A2B06DD744B9B8F01339AB2724B26
:1055F0009A8744E1724B1B683B631EE03B6B5A6920
:10560000BB6ADB689A4215D13B6B9A69BB6A1B691E
:105610009A420FD13B6B9A89BB6A9B889BB29A4294
:1056200008D1654BB3F8463001339AB2624BA3F808
:10563000462005E03B6B1B683B633B6B002BDDD1D9
:105640003B6B002B09D13B8C1946B86AFFF770FD04
:1056500038633B6B002B1CD111E1BB6ADB889BB22A
:10566000184600F0F3FA0346C3F30C03002B10D1E5
:105670003B6BDB89184600F0E9FA0346C3F30C03E1
:10568000002B06D03B6B08331422B96A184613F07E
:1056900002F8BB6ADB889BB203F02003002B0CBF2F
:1056A00001230023DBB2FB61FB69002B0ED0FA8CD7
:1056B000BB8C13447B837A8BFB8C9A42C0F0B58001
:1056C0007B8B4FF6EB72934200F2AF80FA697968F8
:1056D000386BFFF7A1FD78617B69B3F1FF3F00F004
:1056E000A380364B1A883B8C13449AB2334B1A80F2
:1056F000FB69002B0DD0FA8CBB8C13447B823B6B77
:105700007A8A9A833B6B9B7F43F00103DAB23B6B4F
:105710009A777B69012B40F085803B6B9B8B143320
:105720003B823B6B5B685B681B687B633B6B5B68C6
:105730005B68BB623B6B083314221946B86A12F0EF
:10574000AAFF3B8A184600F081FA03461A46BB6A54
:105750005A80BB6A00229A710022DA71BB6A002269
:105760009A720022DA721421B86A00F0C5FD03466D
:105770001A46BB6A5A813B6B5B687B600DE07B6BB2
:105780005B68FB601421786B02F0EAF8796B78684B
:1057900002F08EFAFB681B687B637B6B002BEED1FB
:1057A000074B1B683A6B9A4202D10023FB6216E05A
:1057B000034B1B68FB620DE0446E0120A801002032
:1057C000A4010020FB6A1A683B6B9A4206D0FB6A70
:1057D0001B68FB62FB6A002BF4D100E000BFF96A92
:1057E000386BFFF7E7FC786802F01CFA03463B844D
:1057F0002A4B1B883A8C9A420BD9294B40F29B22A8
:1058000028492948FBF794FD002012F035FE12F0DC
:1058100079FD224B1A883B8CD31A9AB21F4B1A80FF
:105820007B6836E0002334E000BF3B6B002B0BD1DC
:105830001B4B4FF42A721D491B48FBF779FD0020D2
:1058400012F01AFE12F05EFD3B6B5B68002B16D166
:10585000174B1B683A6B9A420BD0114B40F2AB22AC
:1058600014491148FBF764FD002012F005FE12F008
:1058700049FD0021386BFFF79DFC00E000BF0E4B97
:10588000DB8E01339AB20C4BDA86786802F028F985
:10589000002318463837BD4680BD00BFA801002050
:1058A000B092010808940108E092010824940108CC
:1058B000A401002030940108446E012080B500AF9F
:1058C000052001F085FA0346184680BD80B582B0F8
:1058D00000AF78607B68002B0BD10A4B4FF431721C
:1058E00009490A48FBF724FD002012F0C5FD12F01B
:1058F00009FD7968052001F0B5FA00BF0837BD46FB
:1059000080BD00BFB092010850940108E0920108E8
:1059100080B584B000AF78607B68FB60FB68002BCB
:105920000BD1164B40F2CE2215491648FBF700FD6D
:10593000002012F0A1FD12F0E5FCFA687B689A42A3
:105940000BD00E4B40F2CF220F490E48FBF7F0FC74
:10595000002012F091FD12F0D5FCFB685B69002B72
:1059600004D0FB685B69184602F0BAF8F868FFF7E4
:10597000ADFF00BF1037BD4680BD00BFB09201082B
:105980005C940108E09201086894010880B594B025
:1059900002AFF860B9607A600023A7F84630BB68B0
:1059A0009B8C143B002B00DA0733DB107B8714231E
:1059B000FB87FB685B687B637B6B3B633B6B1B78A4
:1059C00003F00F03DBB29B00DBB2142B02D06FF0AD
:1059D000050329E1FB685B89132B0BD8944B4FF42B
:1059E0003F7294499448FBF7A3FC002012F044FD59
:1059F00012F088FC3B6BDB889BB2184600F026F95E
:105A00000346BB87BB8FC3F30C03A7F84030BB8FA3
:105A100003F40053FB62FB681B89143BA7F8423078
:105A2000F8E07B8FDB009AB2B7F84230934228BF90
:105A300013467B854FF4207214210E2001F058FD8F
:105A400078627B6A002B00F0EC807B6A5B89132B09
:105A50000BD8774B40F2253278497748FBF768FC42
:105A6000002012F009FD12F04DFC7B6A5B681422E5
:105A7000796B184612F00FFE7B6A5B683B637B8D87
:105A8000A7F8443069E0FB685A89FB8FD31A7B84FE
:105A9000FB685B89FA8F9A420BD9654B40F22D3235
:105AA00067496548FBF744FC002012F0E5FC12F062
:105AB00029FC7A8CB7F84430934228BF1346A7F8E4
:105AC0004630B7F84630002B05D10023FB87FB6832
:105AD0001B68FB6041E0FFF7F1FEF861FB69002BFA
