:020000040800F2
:10000000008001202D320008C1310008C3310008F2
:10001000C5310008C7310008C931000800000000E0
:10002000000000000000000000000000CB310008CC
:10003000CD31000800000000CF310008D1310008A8
:100040007D3200087D3200087D3200087D320008D4
:100050007D3200087D3200087D3200087D320008C4
:100060007D3200087D320008D53100087D3200085D
:100070007D3200087D3200087D3200087D320008A4
:100080007D3200087D3200087D320008000000004B
:100090000000000000000000000000007D320008A9
:1000A0007D3200087D3200087D3200087D32000874
:1000B0007D3200087D3200087D3200087D32000864
:1000C0007D3200087D3200087D3200087D32000854
:1000D0007D3200087D3200087D32000800000000FB
:1000E0007D3200087D3200087D32000800000000EB
:1000F0000000000000000000000000007D32000849
:10010000000000007D3200087D3200087D320008CA
:1001100000000000000000000000000000000000DF
:100120007D3200087D3200087D3200087D320008F3
:100130007D32000800000000000000000000000008
:100140000000000000000000000000007D320008F8
:100150007D3200087D3200087D3200087D320008C3
:100160007D3200087D320008000000000000000021
:10017000000000000000000000000000000000007F
:10018000000000007D3200080000000000000000B8
:040190007D320008B4
:1001A00010B5054C237833B9044B13B10448AFF3B1
:1001B00000800123237010BD7000002000000000AB
:1001C000683B000808B5034B1BB103490348AFF374
:1001D000008008BD0000000074000020683B00089B
:1001E000034613F8012B002AFBD1181A0138704777
:1001F00001F0FF01102A2BDB10F0070F08D010F8D8
:10020000013B013A8B422DD010F0070F42B3F6D1DB
:10021000F0B441EA012141EA014122F007047FF0F4
:1002200000070023F0E80256083C85EA010586EA4B
:10023000010685FA47F5A3FA87F586FA47F6A5FA87
:1002400087F68EB9EED1F0BC01F0FF0102F0070293
:1002500032B110F8013B013A83EA010313B1F8D13E
:100260000020704701387047002D06BF354603381F
:10027000073815F0010F07D1013015F4807F02BF58
:10028000013015F4C03F0130F0BC0138704700BFA9
:1002900081F0004102E000BF83F0004330B54FEA37
:1002A00041044FEA430594EA050F08BF90EA020FA4
:1002B0001FBF54EA000C55EA020C7FEA645C7FEA37
:1002C000655C00F0E2804FEA5454D4EB5555B8BF5A
:1002D0006D420CDD2C4480EA020281EA030382EACB
:1002E000000083EA010180EA020281EA0303362D5D
:1002F00088BF30BD11F0004F4FEA01314FF4801C30
:100300004CEA113102D0404261EB410113F0004F41
:100310004FEA03334CEA133302D0524263EB4303F8
:1003200094EA050F00F0A780A4F10104D5F1200E96
:100330000DDB02FA0EFC22FA05F2801841F10001F1
:1003400003FA0EF2801843FA05F359410EE0A5F1C5
:1003500020050EF1200E012A03FA0EFC28BF4CF0F6
:10036000020C43FA05F3C01851EBE37101F00045AC
:1003700007D54FF0000EDCF1000C7EEB00006EEBB9
:100380000101B1F5801F1BD3B1F5001F0CD3490843
:100390005FEA30004FEA3C0C04F101044FEA44529A
:1003A00012F5800F80F09A80BCF1004F08BF5FEA21
:1003B000500C50F1000041EB045141EA050130BD01
:1003C0005FEA4C0C404141EB010111F4801FA4F1A4
:1003D0000104E9D191F0000F04BF01460020B1FAF9
:1003E00081F308BF2033A3F10B03B3F120020CDA31
:1003F0000C3208DD02F1140CC2F10C0201FA0CF00F
:1004000021FA02F10CE002F11402D8BFC2F1200C73
:1004100001FA02F120FA0CFCDCBF41EA0C01904029
:10042000E41AA2BF01EB0451294330BD6FEA040472
:100430001F3C1CDA0C340EDC04F11404C4F120025D
:1004400020FA04F001FA02F340EA030021FA04F36F
:1004500045EA030130BDC4F10C04C4F1200220FAC6
:1004600002F001FA04F340EA0300294630BD21FA04
:1004700004F0294630BD94F0000F83F4801306BFCA
:1004800081F480110134013D4EE77FEA645C18BFBE
:100490007FEA655C29D094EA050F08BF90EA020F55
:1004A00005D054EA000C04BF1946104630BD91EA4D
:1004B000030F1EBF0021002030BD5FEA545C05D150
:1004C0004000494128BF41F0004130BD14F580048F
:1004D0003CBF01F5801130BD01F0004545F0FE4103
:1004E00041F470014FF0000030BD7FEA645C1ABF38
:1004F000194610467FEA655C1CBF0B46024650EA6F
:10050000013406BF52EA033591EA030F41F400219A
:1005100030BD00BF90F0000F04BF0021704730B520
:100520004FF4806404F132044FF000054FF00001F5
:1005300050E700BF90F0000F04BF0021704730B5B6
:100540004FF4806404F1320410F0004548BF40428B
:100550004FF000013EE700BF42004FEAE2014FEAE0
:1005600031014FEA02701FBF12F07F4393F07F4FBB
:1005700081F06051704792F0000F14BF93F07F4FED
:10058000704730B54FF4607401F0004521F0004130
:1005900020E700BF50EA010208BF704730B54FF0B6
:1005A00000050AE050EA010208BF704730B511F0BB
:1005B000004502D5404261EB41014FF4806404F1F3
:1005C00032045FEA915C3FF4DCAE4FF003025FEA75
:1005D000DC0C18BF03325FEADC0C18BF033202EBFD
:1005E000DC02C2F1200300FA03FC20FA02F001FA57
:1005F00003FE40EA0E0021FA02F11444C1E600BFF6
:1006000070B54FF0FF0C4CF4E06C1CEA11541DBFA8
:100610001CEA135594EA0C0F95EA0C0F00F0DEF873
:100620002C4481EA030621EA4C5123EA4C5350EA58
:10063000013518BF52EA033541F4801143F48013A9
:1006400038D0A0FB02CE4FF00005E1FB02E506F03A
:100650000042E0FB03E54FF00006E1FB03569CF08F
:10066000000F18BF4EF0010EA4F1FF04B6F5007F95
:1006700064F5407404D25FEA4E0E6D4146EB060607
:1006800042EAC62141EA55514FEAC52040EA5E5090
:100690004FEACE2EB4F1FD0C88BFBCF5E06F1ED83A
:1006A000BEF1004F08BF5FEA500E50F1000041EB71
:1006B000045170BD06F0004646EA010140EA02001E
:1006C00081EA0301B4EB5C04C2BFD4EB0C0541EA40
:1006D000045170BD41F480114FF0000E013C00F355
:1006E000AB8014F1360FDEBF002001F0004170BD79
:1006F000C4F10004203C35DA0C341BDC04F1140492
:10070000C4F1200500FA05F320FA04F001FA05F21D
:1007100040EA020001F0004221F0004110EBD370EA
:1007200021FA04F642EB06015EEA430E08BF20EA16
:10073000D37070BDC4F10C04C4F1200500FA04F3B9
:1007400020FA05F001FA04F240EA020001F000414B
:1007500010EBD37041F100015EEA430E08BF20EABE
:10076000D37070BDC4F1200500FA05F24EEA020E06
:1007700020FA04F301FA05F243EA020321FA04F035
:1007800001F0004121FA04F220EA020000EBD370EC
:100790005EEA430E08BF20EAD37070BD94F0000FEC
:1007A0000FD101F00046400041EB010111F4801F20
:1007B00008BF013CF7D041EA060195F0000F18BFD1
:1007C000704703F00046520043EB030313F4801F0D
:1007D00008BF013DF7D043EA0603704794EA0C0FC7
:1007E0000CEA135518BF95EA0C0F0CD050EA4106DD
:1007F00018BF52EA4306D1D181EA030101F000415A
:100800004FF0000070BD50EA410606BF1046194681
:1008100052EA430619D094EA0C0F02D150EA01368D
:1008200013D195EA0C0F05D152EA03361CBF1046CE
:1008300019460AD181EA030101F0004141F0FE416D
:1008400041F470014FF0000070BD41F0FE4141F4F1
:10085000780170BD70B54FF0FF0C4CF4E06C1CEAF1
:1008600011541DBF1CEA135594EA0C0F95EA0C0FA6
:1008700000F0A7F8A4EB050481EA030E52EA033561
:100880004FEA013100F088804FEA03334FF0805582
:1008900045EA131343EA12634FEA022245EA1115AF
:1008A00045EA10654FEA00260EF000419D4208BF60
:1008B000964244F1FD0404F5407402D25B084FEA0D
:1008C0003202B61A65EB03055B084FEA32024FF4B9
:1008D00080104FF4002CB6EB020E75EB030E22BF16
:1008E000B61A754640EA0C005B084FEA3202B6EBD6
:1008F000020E75EB030E22BFB61A754640EA5C0085
:100900005B084FEA3202B6EB020E75EB030E22BF14
:10091000B61A754640EA9C005B084FEA3202B6EB15
:10092000020E75EB030E22BFB61A754640EADC00D4
:1009300055EA060E18D04FEA051545EA16754FEA36
:1009400006164FEAC30343EA52734FEAC2025FEA54
:100950001C1CC0D111F4801F0BD141EA00014FF0E3
:1009600000004FF0004CB6E711F4801F04BF0143B4
:100970000020B4F1FD0C88BFBCF5E06F3FF6AFAED0
:10098000B5EB030C04BFB6EB020C5FEA500C50F160
:10099000000041EB045170BD0EF0004E4EEA1131E3
:1009A00014EB5C04C2BFD4EB0C0541EA045170BDEA
:1009B00041F480114FF0000E013C90E645EA060E2E
:1009C0008DE60CEA135594EA0C0F08BF95EA0C0F5C
:1009D0003FF43BAF94EA0C0F0AD150EA01347FF4A4
:1009E00034AF95EA0C0F7FF425AF104619462CE77B
:1009F00095EA0C0F06D152EA03353FF4FDAE1046DE
:100A0000194622E750EA410618BF52EA43067FF42E
:100A1000C5AE50EA41047FF40DAF52EA43057FF4BE
:100A2000EBAE12E74A0011D212F5001211D20DD529
:100A30006FF47873B3EB62520ED44FEAC12343F0E4
:100A4000004343EA505323FA02F070474FF000008E
:100A5000704750EA013002D14FF0FF3070474FF03D
:100A60000000704753B94AB9002908BF00281CBFCD
:100A70004FF0FF314FF0FF3000F07AB9ADF1080CC4
:100A80006DE904CE00F006F8DDF804E0DDE90223AC
:100A900004B070472DE9F0478C460D460446089E89
:100AA000002B51D18A4217466DD9B2FA82FEBEF1AF
:100AB000000F0BD0CEF1200C01FA0EF520FA0CFC41
:100AC00002FA0EF74CEA050C00FA0EF44FEA174A48
:100AD000250CBCFBFAF81FFA87F90AFB18CC45EA8B
:100AE0000C4508FB09F3AB420AD9ED1908F1FF32B6
:100AF00080F02381AB4240F22081A8F102083D44FE
:100B0000ED1AA4B2B5FBFAF00AFB105544EA05440D
:100B100000FB09F9A14509D9E41900F1FF3380F080
:100B20000A81A14540F2078102383C44A4EB090444
:100B300040EA08400021002E61D024FA0EF4002380
:100B400034607360BDE8F0878B4207D9002E54D023
:100B5000002186E821000846BDE8F087B3FA83F15A
:100B6000002940F08E80AB4202D3824200F2FA802C
:100B7000841A65EB03050120AC46002E3FD086E8C1
:100B80001010BDE8F08712B90127B7FBF2F7B7FAEA
:100B900087FEBEF1000F34D1EB1B3A0C1FFA87FC25
:100BA0000121B3FBF2F8250C02FB183345EA03459B
:100BB0000CFB08F3AB4207D9ED1908F1FF3002D264
:100BC000AB4200F2D1808046ED1AA3B2B5FBF2F041
:100BD00002FB105543EA05440CFB00FCA44507D971
:100BE000E41900F1FF3302D2A44500F2B8801846A0
:100BF000A4EB0C0440EA08409DE731463046BDE8CE
:100C0000F087CEF1200405FA0EF307FA0EF720FA6A
:100C100004F83A0C25FA04F448EA0308B4FBF2F1AC
:100C20004FEA184502FB11441FFA87FC45EA0445C8
:100C300001FB0CF3AB4200FA0EF409D9ED1901F1F6
:100C4000FF3080F08A80AB4240F2878002393D4419
:100C5000EB1A1FFA88F5B3FBF2F002FB103345EAFA
:100C6000034500FB0CF3AB4207D9ED1900F1FF3847
:100C70006FD2AB426DD902383D44EB1A40EA0141D4
:100C80008FE7C1F1200722FA07F88B4005FA01F43B
:100C900048EA030320FA07FE4FEA134CFD404EEAF0
:100CA000040EB5FBFCF94FEA1E440CFB19551FFA64
:100CB00083F844EA054509FB08F4AC4202FA01F264
:100CC00000FA01FA08D9ED1809F1FF3043D2AC421D
:100CD00041D9A9F102091D442D1B1FFA8EFEB5FB57
:100CE000FCF00CFB10554EEA054400FB08F8A0454B
:100CF00007D9E41800F1FF3529D2A04527D90238D9
:100D00001C4440EA0940A4EB0804A0FB02894C45BE
:100D1000C6464D4615D312D056B1BAEB0E0364EB5E
:100D2000050404FA07F7CB401F43CC4037607460DA
:100D30000021BDE8F0871846F8E69046E0E6C24597
:100D4000EAD2B8EB020E69EB03050138E4E7284666
:100D5000D7E7404691E78146BEE7014678E702388B
:100D60003C4445E7084608E7A8F102083D442BE764
:100D7000704700BF38B50E4A0E4B054618784FF441
:100D80007A73B3FBF0F31068B0FBF3F000F0AAF84D
:100D9000044658B90F2D09D8024629464FF0FF30B6
:100DA00000F05EF8044B20461D6038BD012038BDC0
:100DB00008000020000000200400002008B50B4BB4
:100DC0001A6842F400721A601A6842F480621A606B
:100DD0001A6842F480721A60032000F02FF8002095
:100DE000FFF7C8FF02F012F9002008BD003C0240E6
:100DF000034A044B11681B780B441360704700BF13
:100E00009800002000000020014B1868704700BFC8
:100E10009800002038B50446FFF7F6FF631C1CBF9E
:100E2000054B1B78054618BFE418FFF7EDFF401B84
:100E30008442FAD838BD00BF00000020074AD368BA
:100E400023F4E0631B041B0C43F0BF63000243F474
:100E5000003300F4E0600343D360704700ED00E02E
:100E6000174B30B5DC68C4F30224C4F10703251D19
:100E7000042B28BF0423062D4FF0010505FA03F3C8
:100E800003F1FF338CBF033C00241940A14005FA55
:100E900004F4013C2240002842EA01024FEA021217
:100EA000ADBF00F1604000F00F00064B00F561405F
:100EB000B5BFD2B2D2B21A5480F8002330BD00BF01
:100EC00000ED00E014ED00E0002808DB42090123FA
:100ED00000F01F0003FA00F0014B43F822007047B6
:100EE00000E100E00138B0F1807F0AD2064B074AEA
:100EF0005860F02182F823100020072298601A60C1
:100F000070470120704700BF10E000E000ED00E0F6
:100F10002DE9F04F85B00B68DFF88C81604A0193B2
:100F20004FF001090023019D09FA03F42540AC426A
:100F300040F0A6804C6824F0100C0CF1FF36012E16
:100F40004FEA430E12D88768032606FA0EF627EA00
:100F50000607CE6806FA0EF63E4386604768C4F37D
:100F6000001627EA05079E403E4346600326C768F1
:100F700006FA0EF6F64307EA060A8F6807FA0EF736
:100F800047EA0A07BCF1020FC76016D14FEAD30A3D
:100F900000EB8A0A03F0070BDAF820704FEA8B0B9C
:100FA0004FF00F0C0CFA0BFC27EA0C0C0F6907FA38
:100FB0000BF747EA0C07CAF8207007683E4004F0B8
:100FC000030707FA0EFE4EEA06060660E60057D54E
:100FD0004FF0000BCDF80CB0D8F84470314E47F408
:100FE0008047C8F84470D8F8447007F480470397E6
:100FF000039F23F0030707F1804707F59C3703F0B1
:10100000030CD7F808A04FEA8C0C4FF00F0E0EFA25
:101010000CFEB0422AEA0E0E39D006F58066B042C8
:1010200037D006F58066B04235D006F58066B0420E
:1010300033D006F58066B04214BF0726042606FAB0
:101040000CF646EA0E06BE601668EF4314F4803FC5
:101050000CBF3E402E431660566814F4003F0CBF90
:101060003E402E435660966814F4801F0CBF3E40ED
:101070002E439660D668A40254BF3E402E43D660ED
:101080000133102B7FF44FAF05B0BDE8F08F5E4603
:10109000D5E70126D3E70226D1E70326CFE700BF35
:1010A000003C014000000240003802400AB181616A
:1010B00070470904FBE7436931EA030308BF0904E9
:1010C0008161704708B5044B5969014202D05861EB
:1010D00001F066FB08BD00BF003C014001684B69A0
:1010E00013F480634FF0000210D06FF480634B6103
:1010F0002023026380F83D3080F83E20036C80F8A6
:101100003C2043F0040303640120704718467047F5
:101110002DE9F843044617469946C1F307488EB2B5
:101120002568B8F1010F0CBF6B69AB6936EA0303A0
:1011300014BF0120002008B9BDE8F8836B695A0587
:1011400016D52B6843F400732B606FF480636B61DA
:1011500020220023236384F83D2084F83E30226C53
:1011600042F00402226484F83C300120BDE8F88398
:101170007B1CD5D0FFF748FEA0EB0900874201D3C6
:10118000002FCDD100232022236384F83D2084F852
:101190003E30226C42F02002E4E770B504460D4672
:1011A000164623685B695B0701D5002070BD2046A9
:1011B000FFF794FFA8B96A1CF3D0FFF725FE801B48
:1011C000854201D3002DECD100232022236384F833
:1011D0003D2084F83E30226C84F83C3042F02002FE
:1011E0002264012070BD70B504460D461646206885
:1011F000436913F0400301D0002070BD4269D2065C
:101200000ED56FF0100242612022236384F83D2046
:1012100084F83E30226C226484F83C30012070BD9A
:10122000FFF7F2FD801BA84201D8002DDFD100237B
:101230002022236384F83D2084F83E30226C42F063
:101240002002E8E72DE9F843089E044690461F4631
:10125000C1F307498DB22368B9F1010F0CBF5B6977
:101260009B6935EA03030CBF01230023434502D0E9
:101270000020BDE8F8837B1CEDD0FFF7C5FD801B87
:10128000874201D3002FE6D100232022236384F874
:101290003D2084F83E30226C84F83C3042F020023D
:1012A00022640120BDE8F88370B504460D46164659
:1012B00023685B691B0601D5002070BD2046FFF73F
:1012C0000DFFA8B96A1CF3D0FFF79EFD801B854275
:1012D00001D3002DECD100232022236384F83D208C
:1012E00084F83E30226C84F83C3042F020022264C4
:1012F000012070BD70B5044608B9012070BD90F89A
:101300003D3003F0FF021BB980F83C2001F09EFE47
:10131000242384F83D3023681A6822F001021A6001
:101320001A6842F400421A601A6822F400421A60F5
:1013300000F044FD6568414B9D424DD8404B9842BA
:10134000DBD922683F495368B0FBF1F123F03F033A
:101350000B435360136A23F03F03013119431162B9
:10136000D169364B21F44F419D4221F0FF0100F13C
:10137000FF3048D86D00B0FBF5F00130C0F30B032F
:10138000042B38BF04230B43D3611168206AE3693F
:1013900021F0C00103430B4313609168E0682369A7
:1013A00021F40341034321F0FF010B439360D16813
:1013B000A069636921F0FF0103430B43D360136805
:1013C00043F00103136000202023206484F83D30A3
:1013D000206384F83E0070BD1B4B98428DD9226873
:1013E000184E5368B0FBF6F623F03F0333435360C7
:1013F000136A4FF49671714323F03F034FF47A76EA
:10140000B1FBF6F1A9E7A36853B905EB4503B0FBBF
:10141000F3F0431CC3F30B036BB143F40043B2E797
:1014200019236B43B0FBF3F0431CC3F30B0313B15D
:1014300043F44043A7E70123A5E700BFA0860100CE
:101440007F841E0040420F00FF083D002DE9FF4150
:1014500004461F460D469046FFF7D6FC94F83D30F3
:10146000202B064604D00225284604B0BDE8F081B2
:101470000090192301225B492046FFF7E3FE002874
:10148000F1D194F83C30012BEDD0012384F83C30AD
:1014900023681A68D2075EBF1A6842F001021A6018
:1014A0001A6822F400621A60212284F83D2010227A
:1014B00084F83E20002222646785628D22854A4A94
:1014C000E262E26AC4F82480082A04D0012A02D029
:1014D00012F5803F04D11A6842F480721A6002E06B
:1014E000226B122AF7D0002200960A9B4FF00111BE
:1014F0002046FFF7A7FE226838B11368DB0544BF1A
:101500004FF4007323640125AEE72369B3F5804FE0
:1015100013D105F0FE05156133460A9A334920467A
:10152000FFF7F6FD05460028EDD1236803905A69C0
:1015300003929B690393039B44E0EB1103F00603C2
:1015400043F0F00313612A490A9A33462046FFF715
:10155000DFFD0028D7D12368EDB21D61DCE73246FC
:101560000A992046FFF7A0FE40B1236C042B01BF6F
:101570002268136843F400731360C4E7636A206849
:101580001A4612F8011B01616262628D013A92B241
:101590006285228D4769511E89B27F0721850AD550
:1015A00049B15978016102336362638D013B9BB29B
:1015B000023A6385228532460A992046FFF7EDFDFF
:1015C0000028D2D1238D002BC9D121680A6842F4AA
:1015D00000720A60202284F83D2084F83C3084F8B0
:1015E0003E3041E7020010000000FFFF0200010052
:1015F000080001002DE9F043044689B098460E46E4
:101600009146109FFFF700FC94F83D30202B0546D3
:1016100004D00226304609B0BDE8F08300901923BB
:1016200001229B492046FFF70DFE0028F1D194F8D6
:101630003C30012BEDD0012384F83C3023681A683C
:10164000D2075EBF1A6842F001021A601A6822F4DB
:1016500000621A60222284F83D20102284F83E2085
:1016600000222264A4F82A80628D2285894AE262DF
:10167000E26A1968C4F8249041F48061082A19606C
:1016800004D0012A02D012F5803F04D11A6842F436
:1016900080721A6002E0226B112AF7D03B46009557
:1016A00000224FF001112046FFF7CCFD236838B12E
:1016B0001B68D80544BF4FF4007323640126A9E7D3
:1016C0002269B2F5804F40D146F00106F6B21E61A4
:1016D0002B463A4670492046FFF71AFD0646002879
:1016E000ECD1228D2368002A64D0012A75D11A68B2
:1016F00022F480621A6004965A6904929A690492EC
:10170000049A1A6842F400721A60DFF89481238DFB
:10171000002B59D0032B00F2C580012B78D12A462B
:1017200039462046FFF75FFD0028C7D12268636A6B
:1017300012691A70636A01336362238D013B23854A
:10174000638D013B9BB26385E1E74FEAE61808F041
:10175000060848F0F0021A6150492B463A462046E6
:10176000FFF7D6FC0028A9D123684B49F6B21E61C9
:101770003A462B462046FFF7CBFC024600289DD177
:101780002368079059690791996907910799196822
:1017900041F480711960204600953B464FF00111DD
:1017A000FFF750FD226808B1136882E748F0F103A3
:1017B00013618DE703965A6903929A690392039A1B
:1017C0001A6842F400721A60202384F83D30002326
:1017D00084F83E3084F83C301CE7022A1A680DD1A8
:1017E00022F480621A601A6842F400621A60059658
:1017F0005A6905929B690593059B86E742F48062CE
:101800001A6006965A6906929B690693069B7CE7C6
:10181000022B00953B464FF00002414620461AD16C
:10182000FFF710FD00287FF449AF23681A6842F4DF
:1018300000721A60626A1B691370626A531C6362E9
:10184000238D013B2385638D013B9BB26385236818
:101850001B6953706EE7FFF7F5FC024600287FF422
:101860002DAF2368196821F480611960616A1B69D2
:101870000B70636A009501336362238D013B2385FE
:10188000638D013B9BB2638541463B462046C7E7DB
:10189000020010000000FFFF02000100080001002C
:1018A000040001002A4639462046FFF79CFC002828
:1018B0007FF404AF2268636A12691A70626A531C6B
:1018C0006362238D013B2385638D013B9BB263855E
:1018D0002368596949077FF51AAFB9E72DE9F34144
:1018E000044608B901203FE00368DD0710D42368EF
:1018F00098075AD423681A0700F19C8023685B0775
:1019000000F1BA80A069002840F01B8100202BE084
:10191000A44B9A6802F00C02042A07D09A6802F0DD
:101920000C02082A0AD15B68590207D59D4B1B6837
:101930009A03DCD56368002BD9D1D3E76368994D4E
:10194000B3F5803F13D12B6843F480332B60FFF74E
:101950005BFA944D06462B689B03C8D4FFF754FAF4
:10196000801B6428F7D9032002B0BDE8F081B3F5ED
:10197000A02F04D12B6843F480232B60E3E72A686F
:1019800022F480322A602A6822F480222A60002B06
:10199000DDD1FFF739FA06462B689F03A7D5FFF77D
:1019A00033FA801B6428F7D9DDE77E4B9A6812F082
:1019B0000C0F07D09A6802F00C02082A11D15B685C
:1019C0005E020ED4774B1A68950702D5E268012AA9
:1019D00088D11A68216922F0F80242EAC1021A602D
:1019E00088E7E268704BB2B101221A60FFF70CFA87
:1019F0006C4D06462B68980707D52B68226923F0A3
:101A0000F80343EAC2032B6074E7FFF7FDF9801B7C
:101A10000228EFD9A7E71A60FFF7F6F9614D0646ED
:101A20002B6899077FF566AFFFF7EEF9801B022858
:101A3000F6D998E762695D4B7AB101221A60FFF727
:101A4000E3F9584D06466B6F9F073FF557AFFFF719
:101A5000DBF9801B0228F6D985E71A60FFF7D4F975
:101A6000504D06466B6F98077FF548AFFFF7CCF9EE
:101A7000801B0228F6D976E74A4B1A6C12F0805286
:101A800028D101921A6C42F080521A641B6C03F048
:101A900080530193019B0126454D2B68D9051BD529
:101AA000A368404D012B27D12B6F43F001032B6717
:101AB000FFF7AAF93B4D074641F288382B6F9B0789
:101AC00039D5002E3FF41EAF364A136C23F08053F5
:101AD000136417E70026DFE72B6843F480732B605D
:101AE000FFF792F907462B68DA05D9D4FFF78CF98E
:101AF000C01B0228F7D936E7052B04D12B6F43F022
:101B000004032B67D0E72A6F22F001022A672A6FAD
:101B100022F004022A67002BCAD1FFF775F941F2BF
:101B2000883807462B6F9807CBD5FFF76DF9C01B98
:101B30004045F7D917E7FFF767F9C01B4045BDD906
:101B400011E7184DAB6803F00C03082B47D0194E72
:101B500000230228336035D1FFF756F907462B687A
:101B6000990129D4226AE3691343626A43EA821322
:101B7000E26A43EA0263A26A0A4C5208013A43EA63
:101B800002436B6001233360FFF73EF9054623688B
:101B90009A013FF5BBAEFFF737F9401B0228F6D993
:101BA000E1E600BF0038024000004742800E474295
:101BB0000070004060004742FFF726F9C01B022872
:101BC000CDD9D0E6FFF720F904462B689B017FF5BD
:101BD0009DAEFFF719F9001B0228F6D9C3E60128CC
:101BE0003FF4C2AEA868E36900F480029A427FF431
:101BF00079AE226A00F03F0393427FF473AE626ACB
:101C000047F6C073034093427FF46CAEA26A00F4BF
:101C1000403393427FF466AEE36A00F07060C01A0E
:101C200018BF0120A0E600BF134908B58B6803F078
:101C30000C03042B03D0082B03D0104808BD104818
:101C400008BD4A684B68496813F4800314BF0C4808
:101C50000A48C1F3881118BF002302F03F02A1FB1C
:101C60000001FEF7FFFE044B5B68C3F30143013341
:101C70005B00B0FBF3F008BD003802400024F40024
:101C800000127A002DE9F0410D46044610B90120FA
:101C9000BDE8F081444B1A6802F00F028A4229D352
:101CA00021688F072ED4C80741D43F4B1A6802F031
:101CB0000F02954267D3226851076DD4130707D5E9
:101CC0003A4A2169936823F4604343EAC10393606D
:101CD000FFF7AAFF354B364A9B68C3F30313D35C67
:101CE000D840344B1860344B1868FFF743F8002095
:101CF000BDE8F081CAB21A701B6803F00F03994265
:101D0000C5D1CDE7294B11F0040F1EBF9A6842F4EC
:101D1000E0529A600E0742BF9A6842F460429A60AD
:101D20009A68A06822F0F00202439A60BBE76268FA
:101D30001E4B012A1DD11B6813F4003FA7D01B4E78
:101D4000B36823F003031343B360FFF75DF841F278
:101D500088380746B368626803F00C03B3EB820F60
:101D6000A3D0FFF751F8C01B4045F3D90320BDE8CD
:101D7000F081911E01291B6802D813F0007FDDE776
:101D800013F0020FDAE7EAB21A701B6803F00F03D0
:101D90009D427FF47CAF8EE70449E0688B6823F4B2
:101DA000E05303438B6089E7003C02400038024067
:101DB000DB3B00080800002004000020044B054A1B
:101DC0009B68C3F38223D35C034A1068D8407047F2
:101DD00000380240EB3B000808000020044B054A95
:101DE0009B68C3F34233D35C034A1068D840704702
:101DF00000380240EB3B000808000020F8B504461C
:101E00000E4615461F4621688A6836EA020301D04D
:101E10000020F8BD6B1CF7D0FEF7F6FFC01B854213
:101E2000F1D823685A6822F0E0025A606268B2F57D
:101E3000827F0AD1A268B2F5004F02D0B2F5806F5E
:101E400003D11A6822F040021A60A26AB2F5005F5C
:101E500007D11A6822F400521A601A6842F400523C
:101E60001A60012384F85130002384F85030032095
:101E7000F8BD000073B51346134A144E1568426846
:101E8000B5FBF6F64FF47A757543B2F5827F0446DA
:101E900001950DD10A468021FFF7B0FF10B900204F
:101EA00002B070BD636D43F0200363650320F7E764
:101EB000019B002BF3D0019B013B019323689B689E
:101EC0001B06F5D4EBE700BF0800002000366E01CA
:101ED00010B50446002836D00023836290F85130B4
:101EE00003F0FF021BB980F8502001F0E7F82168E9
:101EF000A068A269022384F851300B6823F04003E4
:101F00000B6063680343E06803432069034360692F
:101F10000343E0690343206A0343A06A034302F4D6
:101F2000007003430B60120C636A02F004021A4350
:101F30004A60CB6923F40063CB6100200123606514
:101F400084F8513010BD012010BD2DE9F7431E4625
:101F500090F850300A9F012B04460D46914600F040
:101F6000E280012380F85030FEF74EFF94F85130A4
:101F70006168DBB2012B80460AD0B1F5827F40F068
:101F8000D080A068002840F0CC80042B40F0C980AD
:101F9000002D00F0C480B9F1000F00F0C080002EC9
:101FA00000F0BD8094F85130C4F83890042B1CBF69
:101FB000052384F851300023636523646364236838
:101FC000E687E6861A68A687500658BF1A68256312
:101FD00058BF42F04002A68658BF1A60E268B2F5C8
:101FE000006F58D109B1012E07D135F8022BDA6004
:101FF000E38E2563013B9BB2E3860125E38E9BB212
:10200000ABB9E38F9BB293B9424639462046FFF7FE
:1020100031FF002840F08180A368002B32D1236873
:102020000190DA6801929B680193019B2AE0226883
:10203000936899070DD5E38E9BB253B14DB1236BD5
:1020400033F8021BD1602363E38E013B9BB2E3862E
:1020500000259368DB070CD5E38F9BB24BB1A36BD4
:10206000D26823F8022BA363E38F013B9BB2E38783
:102070000125FEF7C9FEA0EB08008742BED87E1CF2
:10208000BCD00320012384F85130002384F8503061
:1020900003B0BDE8F08309B1012E08D12A781A7384
:1020A000236B01332363E38E013B9BB2E38601255F
:1020B000E38E9BB21BB9E38F9BB2002BA4D02268A6
:1020C000936898070ED5E38E9BB25BB155B1236B35
:1020D0001B781373236B01332363E38E013B9BB2A5
:1020E000E386002522689368D9070DD5E38F9BB25C
:1020F00053B1A36BD2681A70A36B0133A363E38F50
:10210000013B9BB2E3870125FEF77EFEA0EB0800B2
:102110008742CDD87B1CCBD0B3E720236365012059
:10212000B0E70220AEE70220B2E7000038B503684E
:10213000C1681A69044622F440520A431A612569AB
:10214000A268D968C0692A43656921F416412A4307
:1021500021F00C0102430A43DA605A69A16922F4B2
:1021600040720A43B0F5004F5A61254A29D1934283
:1021700003D002F58062934220D1FFF72FFE626800
:10218000256892184FF000034FF019015B41A0FB46
:102190000101FEF767FC6421B0FBF1F401FB1403BD
:1021A000DB003233B3FBF1F303F007025B0002EB19
:1021B000041203F4F8731344AB6038BDFFF7FEFD5F
:1021C000DDE7934202D00F4A934216D1FFF706FE95
:1021D0006368256819219A00A0FB01019B0FFEF797
:1021E00041FC6422B0FBF2F102FB11031B0132330C
:1021F000B3FBF2F303EB0113DEE7FFF7DFFDE7E7E5
:102200000010014000140140F8B504460E46174680
:102210001D4621680B6836EA030301D10020F8BD92
:102220006B1CF7D095B92368DA6822F4D072DA60B3
:102230005A6922F001025A61202384F8393084F867
:102240003A30002384F838300320F8BDFEF7DCFD77
:10225000C01B8542DDD2E6E710B5044640B390F8D6
:10226000393003F0FF021BB980F8382000F074FF0A
:102270002268242384F83930D36823F40053D360D0
:102280002046FFF753FF23681A6922F490421A612F
:102290005A6922F02A025A61DA6842F40052DA607E
:1022A00000202023E06384F8393084F83A3010BDF0
:1022B000012010BD2DE9F8431F4690F83930202B3E
:1022C00004460D46904651D100294CD0002A4AD0F0
:1022D00090F83830012B49D0012380F838304FF086
:1022E00000092123C0F83C9080F83930FEF78CFDBE
:1022F000A4F824800646A4F8268084F83890E38C5D
:102300009BB25BB93B46324640212046FFF77CFF3B
:10231000A0B9202384F83930BDE8F883E38C013B71
:102320009BB2E384A368B3F5805F32463B464FF02F
:10233000800120460ED1FFF767FF10B10320BDE8F2
:10234000F8832B882268C3F308035360236943B9D9
:102350000235D4E7FFF758FF0028EFD123682A7829
:102360005A600135CBE70120BDE8F8830220BDE8C3
:10237000F883000013B500220E4901920C6B44F063
:1023800002040C63096B0C4C826001F002010191A4
:1023900001990A49C26080E812004FF4804101614E
:1023A00042618261C2610262FEF7A4FF00B1FEE7F2
:1023B00002B010BD00380240A08601000054004069
:1023C0001FB504AA0A2302F8011D417A0093406850
:1023D0000123FFF73BF8003018BF012005B05DF87E
:1023E00004FB0000F8B506460D46012014211746EF
:1023F00000F046FF044610B900242046F8BD97B10E
:1024000047230372462363722846FDF7E9FE00F076
:1024100069FF20600028EFD06660294601F060F86F
:10242000034B2361E9E7BA230372B923EBE700BF4B
:10243000AF24000810B501210446FFF7C1FF0321B6
:102440002046FFF7BDFF10212046FFF7B9FF00200F
:1024500010BD07B50A23017A009300F10C02022394
:102460004068FFF7C7F8003018BF012003B05DF8DF
:1024700004FB000010B50446007B637B43EA0020A8
:10248000FEF758F84FF03332034BFEF7E3F9FEF74F
:10249000C9FA6081002010BD3333F33F10B5044604
:1024A000FFF7D7FF2046FFF7E5FF002010BDFFF73D
:1024B000F5BF000030B595B03022002108A800F02B
:1024C00019FF0021142203A800F014FF00241C4B64
:1024D00001941A6C42F080521A641B6C194A03F082
:1024E00080530193019B0294136823F4404343F407
:1024F0000043136013680F9403F440430293029B5C
:1025000001230B9310230C9310934FF4A873119392
:1025100004230225129308A80723139308950E9508
:10252000FFF7DCF90F23039329464FF4805303A8E8
:102530000495059406930794FFF7A4FB15B030BDEE
:1025400000380240007000402DE9F04FADF20C4D14
:10255000FEF734FCFFF7AEFF1422002108A800F0BC
:10256000C9FE00247D4B04941A6B7D4FDFF82C923A
:102570007C4D7D4E42F004021A631A6B02F0040295
:102580000492049A05941A6B42F080021A631A6B43
:1025900002F080020592059A06941A6B42F001023D
:1025A0001A631A6B02F001020692069A07941A6BDC
:1025B00042F002021A631B6B03F0020338460793D2
:1025C00022460321079BFEF771FD22462021484643
:1025D000FEF76CFD4FF40053384608A94FF0010890
:1025E00008934FF0030B09950A94FEF791FC3846C7
:1025F00008A9CDF820B0CDF824800A940B94FEF7FA
:1026000087FC102308A94846089309950A94FEF709
:102610007FFC20230DEB030148460893CDF824806E
:102620000A940B94FEF774FC214642460A20FEF7FA
:1026300017FC0A20FEF748FC4C4A4D4DB4604FF49D
:10264000E13386E80C0030460C237361F46034619A
:10265000B461F461FFF700FE4649AC604FF4827349
:1026600085E80A004FF48023AB611823EB6128460C
:102670000A23EB620193EC602C616C612C626C624A
:10268000AC62FFF725FC3C48FFF774FE42463B492D
:102690003948FFF7A7FE8246FFF7CCFE04228DF8EB
:1026A00024200F228DF825208DF826200B22019B57
:1026B0008DF82720324A0A920E93324A0B92022357
:1026C000314AADF8483008A94FF010032F480C925A
:1026D00011970F97ADF850308DF820408DF821B04C
:1026E0008DF822408DF823B00D95ADF84080CDF8DF
:1026F0004C9000F0F7FB2649039403A800F0F0FE8D
:10270000244FDAF8103050469847BAF80A50394644
:102710002A4608A800F0C0FE08A8FDF761FD4FF4A6
:102720007A7382B208A93046FFF7C4FDAC4208D0E4
:1027300019492A4603A800F0AFFE03A9134800F088
:102740004BFC20211548FEF7B6FC00234FF47A70AD
:1027500003932C46FEF75EFBD3E700BF0038024030
:1027600000080240000021108401002000440040C5
:102770009C00002000380040F4000020803B00084E
:10278000D13B0008D63B0008800100204801002012
:102790008C3B0008B93B0008CE3B0008000002401B
:1027A000102802D1014800F059BA704748010020B2
:1027B000018D406A0022FEF779BC018D406A01223A
:1027C000FEF774BC2DE9F04782B002AF1E4697F8C1
:1027D00020A00AF1080323F00703ADEB030D0DF170
:1027E0000809ADEB030D4B460AF1FF38044603F828
:1027F000011B02AD511E0DF1070042444FF0000EC7
:1028000091421CD10022218CE069FEF74FFCA369A4
:1028100000932A460AF1010349466069FFF795FBD8
:10282000C8B9731E01354644B3420FD1E069218C0B
:102830000122FEF73BFC0020BD46BDE8F08711F801
:1028400001CF03F801CB00F801EFD9E715F8012B10
:1028500003F8012FE8E70120EEE7000038B5054650
:1028600008460C46FDF7BCFC4FF47A7382B2214651
:102870000348FFF71FFD002385F8363038BD00BF41
:10288000840100201FB504AC002304F8013D01239E
:10289000009313462246FFF795FF003018BF012032
:1028A00004B010BD1FB504AB002403F8014D012492
:1028B000009441F02001FFF785FF003018BF012090
:1028C00004B010BD80B582B00279D31D23F0070398
:1028D00002AFADEB030D0B460092612102AAFFF798
:1028E00071FF003018BF0120BD4680BD80B582B0A9
:1028F0000279D31D23F0070302AFADEB030D02AB4A
:1029000000920A46A021FFF75DFF003018BF0120AA
:10291000BD4680BD1FB500238DF80E308DF80F30F9
:1029200000930DF10F020DF10E03E121FFF74AFFB5
:10293000003018BF012005B05DF804FB1FB500236F
:102940008DF80E308DF80F3000930DF10F020DF160
:102950000E03E221FFF736FF003018BF012005B05B
:102960005DF804FB73B502AC002304F8013D0E468C
:10297000224606210546FFF785FF10B1012002B06F
:1029800070BD9DF8073016F0010F14BF43F020030F
:1029900023F020038DF807309DF8073016F0020F62
:1029A00014BF43F0080323F00803224606212846FB
:1029B0008DF80730FFF776FF0028DFD12E70DEE7B5
:1029C00037B502AC002304F8013D07212246054635
:1029D000FFF758FF78B99DF80730224643F070039F
:1029E000072128468DF80730FFF75CFF003018BF3D
:1029F000012003B030BD0120FBE773B502AD002319
:102A000005F8013D0C462A4605210646FFF73AFF28
:102A100010B1012002B070BD9DF8073004F07F04B2
:102A200023432A46052130468DF80730FFF73AFF49
:102A30000028EED1F471EDE773B502AD002305F87F
:102A4000013D0C462A4604210646FFF71BFF10B144
:102A5000012002B070BD9DF8073004F00F0423F090
:102A60000F0323432A46042130468DF80730FFF731
:102A700019FF0028ECD17471EBE773B502AD0023A8
:102A800005F8013D0C462A4604210646FFF7FAFEEA
:102A900010B1012002B070BD9DF8073004F00F04A2
:102AA00003F00F0343EA04132A46042130468DF84D
:102AB0000730FFF7F7FE0028EBD1B471EAE773B5F2
:102AC00002AC002304F8013D0E46224603210546D0
:102AD000FFF7D8FE10B1012002B070BD9DF807309D
:102AE00003F0030333432246032128468DF80730C1
:102AF000FFF7D8FE0028EED1EE70EDE707B502AA89
:102B000002F8011D0221FFF7CDFE003018BF0120A1
:102B100003B05DF804FB73B502AD002305F8013D79
:102B20000C462A4601210646FFF7ACFE012178B982
:102B30009DF8073001FA04F41C432A4630468DF80C
:102B40000740FFF7AFFE003018BF012002B070BD94
:102B50000846FBE773B502AC0E46002104F8011DE0
:102B600022460546FFF78EFE98B99DF807306EB1F4
:102B700043F008032246002128468DF80730FFF76E
:102B800091FE003018BF012002B070BD23F0080391
:102B9000F0E70120F8E773B502AC0E46002104F817
:102BA000011D22460546FFF76DFE10B1012002B05F
:102BB00070BD9DF80730012E0CBF43F0040323F0D5
:102BC00008032246002128468DF80730FFF76AFEE9
:102BD0000028EBD1AE70EAE773B502AC0E460021D7
:102BE00004F8011D22460546FFF74CFE98B99DF8F2
:102BF00007306EB143F002032246002128468DF8CB
:102C00000730FFF74FFE003018BF012002B070BD43
:102C100023F00203F0E70120F8E773B502AC0E469B
:102C2000002104F8011D22460546FFF72BFE98B946
:102C30009DF807306EB143F001032246002128467B
:102C40008DF80730FFF72EFE003018BF012002B0CC
:102C500070BD23F00103F0E70120F8E773B502AD82
:102C6000002305F8023D07212A460446FFF70AFE25
:102C7000002877D19DF806305E062AD502AE06F808
:102C8000010D2046FFF794FD2A4607212046FFF755
:102C900009FE324617212046FFF7F4FD9DF8073064
:102CA000D80713D4266920463146FFF70BFE9DF85E
:102CB0000630072143F040032A4620468DF80630AF
:102CC000FFF7F0FD31462046FFF7C8FD2046FFF72D
:102CD00074FD9DF8063099061AD543F0200320466E
:102CE0008DF80630FFF764FD01212046FFF795FFC0
:102CF000012384F837302046FFF75FFD2A4607217D
:102D00002046FFF7CFFD002384F8353084F83430B7
:102D10009DF80630DA0625D543F0100320468DF8DD
:102D20000630FFF7F7FD00212046FFF755FF012190
:102D30002046FFF751FF2046FFF73AFD012601210B
:102D40002046FFF76AFF204684F83760FFF735FD1D
:102D50002A4607212046FFF7A5FD002384F83560A9
:102D600084F8343002B070BD73B502AC0E46002159
:102D700004F8011D22460546FFF784FD98B99DF829
:102D800007306EB943F040032246002128468DF8F3
:102D90000730FFF787FD003018BF012002B070BD7B
:102DA00023F04003F0E70120F8E773B502AC0E46CC
:102DB000002104F8011D22460546FFF763FD98B97E
:102DC0009DF807306EB943F02003224600212846C3
:102DD0008DF80730FFF766FD003018BF012002B004
:102DE00070BD23F02003F0E70120F8E773B502ACD3
:102DF0000E46002104F8011D22460546FFF742FD5C
:102E000098B99DF807306EB943F0100322460021AF
:102E100028468DF80730FFF745FD003018BF012028
:102E200002B070BD23F01003F0E70120F8E730B5E1
:102E300085B005230C4600930A4602AB2A210546BD
:102E4000FFF7C0FC10B9AC6005B030BD0120FBE756
:102E500030B585B005230C4600930A4602AB2B2102
:102E60000546FFF7AFFC10B9AC6005B030BD0120DE
:102E7000FBE730B585B005230C4600930A4602AB4C
:102E800030210546FFF79EFC10B9EC6005B030BD5F
:102E90000120FBE713B502AA01F03F0102F8011D72
:102EA00011210446FFF7FEFC20B10023237101200D
:102EB00002B010BD9DF807302371F9E713B502AADF
:102EC00001F03F0102F8011D12210446FFF7EAFC60
:102ED00020B100232371012002B010BD9DF80730FE
:102EE0002371F9E773B50E46044605460FCE0FC5AC
:102EF0000FCE0FC50FCE0FC533682B602046FFF7EE
:102F000057FC0022218CE069FEF7D0F802AD0121C8
:102F10002046FFF761FE002305F8013D9DF80710EC
:102F200011F0020153D021792046FFF7B3FF217938
:102F30002046FFF7C3FFA1682046FFF789FFE1683D
:102F40002046FFF774FFE1682046FFF792FF01215A
:102F50002046FFF709FF01212046FFF726FF012148
:102F60002046FFF743FF01212046FFF7F3FDA1783C
:102F70002046FFF710FEE1782046FFF7A0FDE1793B
:102F80002046FFF73AFD21782046FFF7EBFC6179F8
:102F90002046FFF751FDA1792046FFF76EFD032182
:102FA0002046FFF7ABFD00212046FFF7B4FD204689
:102FB000FFF706FD01212046FFF72FFE2046FFF711
:102FC000BDFC2046FFF7F9FB002002B070BD2A4689
:102FD0002046FFF757FCA1E738B50123044680F8E7
:102FE00034300D46FFF7E4FB00212046FFF715FEC5
:102FF00029462046FFF77AFC2046FFF7DEFB94F8CF
:103000003430012BFBD094F8350038BD07B50E4B9A
:10301000002100915A6C42F480425A645A6C02F4C6
:1030200080420092009A01911A6C42F080521A6418
:103030001B6C03F0805301930720019BFDF7FEFEFC
:1030400003B05DF804FB00BF0038024030B5044611
:1030500089B01422002103A800F04CF92268144B17
:103060009A4223D1134C144800250195236B43F059
:1030700002032363236B03F002030193019BC0232C
:10308000039312230493012305930323069303A9B7
:1030900004230793FDF73CFF0295236C43F40013D0
:1030A0002364236C03F400130293029B09B030BD28
:1030B000005400400038024000040240F0B50446CD
:1030C00089B01422002103A800F014F922681F4BD4
:1030D0009A4238D103F50033002400941A6C1C483E
:1030E00042F480421A641A6C02F480420092009A00
:1030F00001941A6B42F004021A631A6B02F0040284
:103100000192019A02941A6B42F002021A631B6B3D
:1031100003F002030293029B0C230DEB0301022731
:10312000032605250393049706960795FDF7F0FE01
:103130004FF4A05303A907480393049705940696F8
:103140000795FDF7E5FE09B0F0BD00BF003800406F
:10315000000802400004024010B5044688B0142262
:10316000002103A800F0C6F82268134B9A4220D130
:1031700003F5FA33002101911A6C104842F4003231
:103180001A641A6C02F400320192019A02911A6BCD
:1031900042F001021A631B6B03F001030293029BCE
:1031A0000C2303930223049303A907230793FDF73A
:1031B000AFFE08B010BD00BF004400400000024058
:1031C0007047FEE7FEE7FEE7FEE77047704770478F
:1031D000FDF70EBE1020FDF775BF000008B50A4BC5
:1031E0001968024609B90949196018686946024414
:1031F0008A4206D900F04CF80C2303604FF0FF30F0
:1032000008BD1A6008BD00BF8C000020C801002066
:10321000054BD3F8882042F47002C3F888204FF0A1
:1032200000629A60704700BF00ED00E0DFF834D024
:10323000002103E00C4B5B58435004310B480C4B0E
:1032400042189A42F6D30B4A02E0002342F8043BAC
:10325000094B9A42F9D3FFF7DBFF00F01FF8FFF7A5
:1032600073F9704700800120383C000800000020FE
:103270007000002070000020C8010020FEE7000060
:10328000024B0A460146186800F03CB80C000020CA
:10329000014B1868704700BF0C00002070B50D4E40
:1032A0000D4CA41BA4100025A54209D10B4E0C4CBB
:1032B00000F05AFCA41BA4100025A54205D170BD46
:1032C00056F8253098470135EEE756F825309847EF
:1032D0000135F2E7303C0008303C0008303C000883
:1032E000343C0008024B0146186800F067B800BF84
:1032F0000C00002002440346934200D1704703F8BB
:10330000011BF9E738B502FB01F4214600F056F83D
:10331000054618B122460021FFF7ECFF284638BDCC
:1033200038B50546002945D051F8043C0C1F002B48
:10333000B8BFE41800F0DCF81F4A1368104633B930
:10334000636014602846BDE8384000F0D2B8A3425C
:103350000CD921686218934204BF1A685B686360E5
:1033600004BF521822600460ECE713465A680AB1A1
:10337000A242FAD919685818A0420BD1206801441A
:10338000581882421960DDD1106852685A600144B1
:103390001960D7E702D90C232B60D3E720682118E6
:1033A0008A4204BF11685268626004BF0918216034
:1033B0005C60C7E738BD00BF9000002070B5CD1C31
:1033C00025F0030508350C2D38BF0C25002D0646C9
:1033D00001DBA94203D90C233360002070BD00F04B
:1033E00087F8234A1468214691B9224C23681BB9F7
:1033F000304600F041F820602946304600F03CF8A5
:10340000431C26D10C233360304600F072F8E4E709
:103410000B685B1B1AD40B2B0FD90B60CD50CC184B
:10342000304600F066F804F10B00231D20F0070081
:10343000C31A1BD05A42E25070BD8C420DBF636864
:103440004B686360136018BF0C46E9E70C46496897
:10345000CAE7C41C24F00304A04205D0211A304658
:1034600000F00AF80130CDD02560D9E770BD00BF6B
:10347000900000209400002038B5064C002305463B
:1034800008462360FFF7AAFE431C02D1236803B15C
:103490002B6038BDC40100200EB400B59CB04FF4C1
:1034A00002711DABADF81410029006906FF0004150
:1034B0000A48049107914FF6FF7153F8042BADF8B9
:1034C00016100068019302A900F070F8029B002218
:1034D0001A701CB05DF804EB03B070470C000020BC
:1034E000034611F8012B03F8012B002AF9D170478C
:1034F000704770472DE9F0478E689E4282460C4621
:103500009146984635D88A8912F4906F31D0256853
:1035100009696F1A6569022305EB450595FBF3F50B
:1035200008F101033B449D4238BF1D46530531D588
:103530002946FFF743FF064650B90C23CAF800306E
:10354000A38943F04003A3814FF0FF30BDE8F0872B
:103550003A46216900F0B4FAA38923F4906343F05A
:103560008003A381266165613E44ED1B2660A56052
:103570004646464528BF464632464946206800F042
:10358000AAFAA3689B1BA36023681E442660002040
:10359000BDE8F0872A4600F0B8FA06460028E1D1D7
:1035A00021695046FFF7BCFEC7E700002DE9F04F48
:1035B0009DB0804603938B891C060D4616460FD599
:1035C0000B696BB94021FFF7F9FE2860286128B923
:1035D0000C23C8F800304FF0FF30C5E040236B618A
:1035E0000023099320238DF8293030238DF82A30C9
:1035F0004FF0010B37463C4614F8013B002B3CD101
:10360000B7EB060A0BD05346324629464046FFF731
:1036100071FF013000F0A380099B534409933B786C
:10362000002B00F09C8000234FF0FF32049307939F
:10363000059206938DF853301A930522217850484D
:10364000FCF7D6FD671C049BD8B9D90644BF2022DD
:103650008DF853201A0744BF2B228DF8532022786F
:103660002A2A16D0079A00210A20274601343B78DF
:10367000303B092B51D9C9B111E0252BC0D02746C9
:10368000B9E73F4A801A0BFA00F0184304903C4611
:10369000D3E7039A111D12680391002A01DB0792F8
:1036A00004E0524243F00203079204933B782E2B2E
:1036B0000ED17B782A2B07F1010132D1039B1A1D11
:1036C0001B680392002BB8BF4FF0FF3302370593FE
:1036D0002C4C397803222046FCF78AFD38B1402370
:1036E000001B03FA00F0049B03430493013739786D
:1036F00025488DF8281006227E1CFCF779FD00284D
:1037000035D0224BFBB9039B073323F00703083363
:103710000393099B4B4409936CE700FB02320121A0
:10372000A3E70023059318460A240F4601313A788F
:10373000303A092A03D9002BCAD00590C8E704FB08
:1037400000200123F1E703AB00932A46104B04A9A4
:103750004046AFF30080B0F1FF3F8146D9D1AB893D
:103760005B063FF538AF09981DB0BDE8F08F03AB9D
:1037700000932A46064B04A9404600F081F8EAE788
:10378000F33B0008F93B0008FD3B00080000000087
:10379000F53400082DE9F04791461F468A680B6909
:1037A000DDF820809342B8BF1346C9F8003091F885
:1037B000432006460C4612B10133C9F80030236895
:1037C000990642BFD9F800300233C9F800302568A5
:1037D00015F0060507D104F1190AE368D9F80020AD
:1037E0009B1A9D4229DB94F843302268003318BFAE
:1037F000012392062ED404F1430239463046C047D5
:10380000013021D02368E568D9F8002003F00603D1
:10381000042B08BFAD1AA36822690CBF25EAE57521
:1038200000259342C4BF9B1AED184FF000091A34CB
:103830004D451BD10020BDE8F08701235246394693
:103840003046C047013003D14FF0FF30BDE8F0876C
:103850000135C2E7E1185A1C302081F843002244A8
:1038600094F8451082F843100233C4E7012322463E
:1038700039463046C0470130E6D009F10109D7E7A3
:103880002DE9F04317460A7E85B06E2A9846064613
:103890000C460C9B01F1430E00F0BC801AD8632A41
:1038A0002ED00AD8002A00F0C880582A00F08A805A
:1038B00004F1420584F842202AE0642A01D0692AF2
:1038C000F6D121681A6811F0800F23D0111D1960FC
:1038D000136827E0732A00F0B48008D86F2A2AD032
:1038E000702AE5D10A6842F020020A6003E0752AD6
:1038F00021D0782ADCD1782284F845206E4964E012
:103900001A6801F14205111D1960136884F84230EC
:103910000123A3E011F0400F02F104011960D7D098
:10392000B2F90030002B03DA2D225B4284F84320E9
:1039300062490A2217E02068196810F0800F03D04E
:10394000081D18600B6806E010F0400F01F104003C
:103950001860F7D00B8859496F2A14BF0A22082231
:10396000002084F843006568A560002DC0F29C80AB
:10397000206820F004002060002B3FD1002D40F093
:1039800095807546082A0BD12368DA0708D5236984
:1039900062689A42DEBF302305F8013C05F1FF352D
:1039A000AEEB05032361CDF800803B4603AA214618
:1039B0003046FFF7EFFE013055D14FF0FF3005B034
:1039C000BDE8F08381F845203C492268186812F070
:1039D000800F00F104051D6001D0036802E0550668
:1039E000FBD50388D00744BF42F0200222601BB9F8
:1039F000226822F0200222601022B1E77546B3FB54
:103A0000F2F002FB1033CB5C05F8013D03460028C1
:103A1000F5D1B7E708681A68496910F0800F04D03B
:103A2000101D18601368196007E010F0400F02F1D4
:103A3000040018601368F6D01980002323617546CE
:103A4000B1E71A68111D19601568626800212846DF
:103A5000FCF7CEFB08B1401B606063682361002364
:103A600084F843309FE723692A4639463046C047E9
:103A70000130A2D023689B0707D5002504F119095E
:103A8000E368039A9B1A9D4205DBE068039B98421A
:103A9000B8BF184693E701234A4639463046C04727
:103AA00001308AD00135EBE7002BA7D10B7884F8E1
:103AB000423004F1420565E7153C0008043C00086B
:103AC00010B5431E0A44914200D110BD11F8014BBC
:103AD00003F8014FF7E7884210B501EB020303D862
:103AE000421E99420CD110BD9842F9D28118D21AC7
:103AF000D34200D110BD13F8014D01F8014DF7E795
:103B000011F8014B02F8014FEBE7F8B507461446F0
:103B10000E4621B91146BDE8F840FFF74FBC22B967
:103B2000FFF7FEFB25462846F8BD00F014F8844256
:103B30000FD921463846FFF741FC05460028F2D050
:103B400031462246FFF7BCFF31463846FFF7E8FB17
:103B5000E9E73546E7E751F8040C0028A0F1040036
:103B6000BCBF0B58C0187047F8B500BFF8BC08BC04
:103B70009E467047F8B500BFF8BC08BC9E4670472B
:103B800074657374206465766963650068656C6C40
:103B90006F20776F726C64204D6F68616D65642073
:103BA00066726F6D206E75636C656F2073746D3314
:103BB0003266343031210A0D00696C6C756D696EA6
:103BC0006174696F6E203D256420200A0D00256414
:103BD00000010203040501020304060000000000C6
:103BE00000000001020304060708090000000001AC
:103BF000020304232D302B2000686C4C006566679F
:103C00004546470030313233343536373839414252
:103C10004344454600303132333435363738396124
:083C20006263646566000000A8
:083C28006CCEFF7F01000000DB
:043C3000C5010008C2
:043C3400A1010008E2
:103C380001000000100000000024F4001000002023
:103C4800000000000000000000000000000000006C
:103C5800000000000000000000000000000000005C
:103C6800000000000000000000000000000000004C
:103C7800000000000000000000000000000000003C
:103C8800000000000000000000000000000000002C
:103C9800000000000000000000000000000000001C
:040000050800322D90
:00000001FF
