:020000040800F2
:1000000000800120E5400008FD18000803190008E1
:10001000091900080F190008151900080000000050
:100020000000000000000000000000001B19000894
:1000300029190008000000003719000845190008B8
:1000400035410008354100083541000835410008B8
:1000500035410008354100083541000835410008A8
:100060003541000835410008354100083541000898
:100070003541000835410008354100083541000888
:1000800035410008354100083541000800000000F6
:1000900000000000000000000000000035410008E2
:1000A0003541000835410008354100083541000858
:1000B0003541000835410008354100083541000848
:1000C0003541000835410008354100083541000838
:1000D00035410008354100083541000800000000A6
:1000E0003541000835410008354100080000000096
:1000F0000000000000000000000000003541000882
:100100000000000035410008354100083541000875
:1001100000000000000000000000000000000000DF
:1001200035410008354100083541000835410008D7
:100130003541000800000000000000000000000041
:100140000000000000000000000000003541000831
:1001500035410008354100083541000835410008A7
:100160003541000835410008000000000000000093
:10017000000000000000000000000000000000007F
:1001800000000000354100080000000000000000F1
:0401900035410008ED
:1001A00010B5054C237833B9044B13B10448AFF3B1
:1001B00000800123237010BD7C000020000000009F
:1001C000204A000808B5034B1BB103490348AFF3AD
:1001D000008008BD0000000080000020204A0008C8
:1001E000034613F8012B002AFBD1181A0138704777
:1001F00001F0FF01102A2BDB10F0070F08D010F8D8
:10020000013B013A8B422DD010F0070F42B3F6D1DB
:10021000F0B441EA012141EA014122F007047FF0F4
:1002200000070023F0E80256083C85EA010586EA4B
:10023000010685FA47F5A3FA87F586FA47F6A5FA87
:1002400087F68EB9EED1F0BC01F0FF0102F0070293
:1002500032B110F8013B013A83EA010313B1F8D13E
:100260000020704701387047002D06BF354603381F
:10027000073815F0010F07D1013015F4807F02BF58
:10028000013015F4C03F0130F0BC0138704700BFA9
:1002900081F0004102E000BF83F0004330B54FEA37
:1002A00041044FEA430594EA050F08BF90EA020FA4
:1002B0001FBF54EA000C55EA020C7FEA645C7FEA37
:1002C000655C00F0E2804FEA5454D4EB5555B8BF5A
:1002D0006D420CDD2C4480EA020281EA030382EACB
:1002E000000083EA010180EA020281EA0303362D5D
:1002F00088BF30BD11F0004F4FEA01314FF4801C30
:100300004CEA113102D0404261EB410113F0004F41
:100310004FEA03334CEA133302D0524263EB4303F8
:1003200094EA050F00F0A780A4F10104D5F1200E96
:100330000DDB02FA0EFC22FA05F2801841F10001F1
:1003400003FA0EF2801843FA05F359410EE0A5F1C5
:1003500020050EF1200E012A03FA0EFC28BF4CF0F6
:10036000020C43FA05F3C01851EBE37101F00045AC
:1003700007D54FF0000EDCF1000C7EEB00006EEBB9
:100380000101B1F5801F1BD3B1F5001F0CD3490843
:100390005FEA30004FEA3C0C04F101044FEA44529A
:1003A00012F5800F80F09A80BCF1004F08BF5FEA21
:1003B000500C50F1000041EB045141EA050130BD01
:1003C0005FEA4C0C404141EB010111F4801FA4F1A4
:1003D0000104E9D191F0000F04BF01460020B1FAF9
:1003E00081F308BF2033A3F10B03B3F120020CDA31
:1003F0000C3208DD02F1140CC2F10C0201FA0CF00F
:1004000021FA02F10CE002F11402D8BFC2F1200C73
:1004100001FA02F120FA0CFCDCBF41EA0C01904029
:10042000E41AA2BF01EB0451294330BD6FEA040472
:100430001F3C1CDA0C340EDC04F11404C4F120025D
:1004400020FA04F001FA02F340EA030021FA04F36F
:1004500045EA030130BDC4F10C04C4F1200220FAC6
:1004600002F001FA04F340EA0300294630BD21FA04
:1004700004F0294630BD94F0000F83F4801306BFCA
:1004800081F480110134013D4EE77FEA645C18BFBE
:100490007FEA655C29D094EA050F08BF90EA020F55
:1004A00005D054EA000C04BF1946104630BD91EA4D
:1004B000030F1EBF0021002030BD5FEA545C05D150
:1004C0004000494128BF41F0004130BD14F580048F
:1004D0003CBF01F5801130BD01F0004545F0FE4103
:1004E00041F470014FF0000030BD7FEA645C1ABF38
:1004F000194610467FEA655C1CBF0B46024650EA6F
:10050000013406BF52EA033591EA030F41F400219A
:1005100030BD00BF90F0000F04BF0021704730B520
:100520004FF4806404F132044FF000054FF00001F5
:1005300050E700BF90F0000F04BF0021704730B5B6
:100540004FF4806404F1320410F0004548BF40428B
:100550004FF000013EE700BF42004FEAE2014FEAE0
:1005600031014FEA02701FBF12F07F4393F07F4FBB
:1005700081F06051704792F0000F14BF93F07F4FED
:10058000704730B54FF4607401F0004521F0004130
:1005900020E700BF50EA010208BF704730B54FF0B6
:1005A00000050AE050EA010208BF704730B511F0BB
:1005B000004502D5404261EB41014FF4806404F1F3
:1005C00032045FEA915C3FF4DCAE4FF003025FEA75
:1005D000DC0C18BF03325FEADC0C18BF033202EBFD
:1005E000DC02C2F1200300FA03FC20FA02F001FA57
:1005F00003FE40EA0E0021FA02F11444C1E600BFF6
:1006000070B54FF0FF0C4CF4E06C1CEA11541DBFA8
:100610001CEA135594EA0C0F95EA0C0F00F0DEF873
:100620002C4481EA030621EA4C5123EA4C5350EA58
:10063000013518BF52EA033541F4801143F48013A9
:1006400038D0A0FB02CE4FF00005E1FB02E506F03A
:100650000042E0FB03E54FF00006E1FB03569CF08F
:10066000000F18BF4EF0010EA4F1FF04B6F5007F95
:1006700064F5407404D25FEA4E0E6D4146EB060607
:1006800042EAC62141EA55514FEAC52040EA5E5090
:100690004FEACE2EB4F1FD0C88BFBCF5E06F1ED83A
:1006A000BEF1004F08BF5FEA500E50F1000041EB71
:1006B000045170BD06F0004646EA010140EA02001E
:1006C00081EA0301B4EB5C04C2BFD4EB0C0541EA40
:1006D000045170BD41F480114FF0000E013C00F355
:1006E000AB8014F1360FDEBF002001F0004170BD79
:1006F000C4F10004203C35DA0C341BDC04F1140492
:10070000C4F1200500FA05F320FA04F001FA05F21D
:1007100040EA020001F0004221F0004110EBD370EA
:1007200021FA04F642EB06015EEA430E08BF20EA16
:10073000D37070BDC4F10C04C4F1200500FA04F3B9
:1007400020FA05F001FA04F240EA020001F000414B
:1007500010EBD37041F100015EEA430E08BF20EABE
:10076000D37070BDC4F1200500FA05F24EEA020E06
:1007700020FA04F301FA05F243EA020321FA04F035
:1007800001F0004121FA04F220EA020000EBD370EC
:100790005EEA430E08BF20EAD37070BD94F0000FEC
:1007A0000FD101F00046400041EB010111F4801F20
:1007B00008BF013CF7D041EA060195F0000F18BFD1
:1007C000704703F00046520043EB030313F4801F0D
:1007D00008BF013DF7D043EA0603704794EA0C0FC7
:1007E0000CEA135518BF95EA0C0F0CD050EA4106DD
:1007F00018BF52EA4306D1D181EA030101F000415A
:100800004FF0000070BD50EA410606BF1046194681
:1008100052EA430619D094EA0C0F02D150EA01368D
:1008200013D195EA0C0F05D152EA03361CBF1046CE
:1008300019460AD181EA030101F0004141F0FE416D
:1008400041F470014FF0000070BD41F0FE4141F4F1
:10085000780170BD70B54FF0FF0C4CF4E06C1CEAF1
:1008600011541DBF1CEA135594EA0C0F95EA0C0FA6
:1008700000F0A7F8A4EB050481EA030E52EA033561
:100880004FEA013100F088804FEA03334FF0805582
:1008900045EA131343EA12634FEA022245EA1115AF
:1008A00045EA10654FEA00260EF000419D4208BF60
:1008B000964244F1FD0404F5407402D25B084FEA0D
:1008C0003202B61A65EB03055B084FEA32024FF4B9
:1008D00080104FF4002CB6EB020E75EB030E22BF16
:1008E000B61A754640EA0C005B084FEA3202B6EBD6
:1008F000020E75EB030E22BFB61A754640EA5C0085
:100900005B084FEA3202B6EB020E75EB030E22BF14
:10091000B61A754640EA9C005B084FEA3202B6EB15
:10092000020E75EB030E22BFB61A754640EADC00D4
:1009300055EA060E18D04FEA051545EA16754FEA36
:1009400006164FEAC30343EA52734FEAC2025FEA54
:100950001C1CC0D111F4801F0BD141EA00014FF0E3
:1009600000004FF0004CB6E711F4801F04BF0143B4
:100970000020B4F1FD0C88BFBCF5E06F3FF6AFAED0
:10098000B5EB030C04BFB6EB020C5FEA500C50F160
:10099000000041EB045170BD0EF0004E4EEA1131E3
:1009A00014EB5C04C2BFD4EB0C0541EA045170BDEA
:1009B00041F480114FF0000E013C90E645EA060E2E
:1009C0008DE60CEA135594EA0C0F08BF95EA0C0F5C
:1009D0003FF43BAF94EA0C0F0AD150EA01347FF4A4
:1009E00034AF95EA0C0F7FF425AF104619462CE77B
:1009F00095EA0C0F06D152EA03353FF4FDAE1046DE
:100A0000194622E750EA410618BF52EA43067FF42E
:100A1000C5AE50EA41047FF40DAF52EA43057FF4BE
:100A2000EBAE12E74A0011D212F5001211D20DD529
:100A30006FF47873B3EB62520ED44FEAC12343F0E4
:100A4000004343EA505323FA02F070474FF000008E
:100A5000704750EA013002D14FF0FF3070474FF03D
:100A60000000704753B94AB9002908BF00281CBFCD
:100A70004FF0FF314FF0FF3000F07AB9ADF1080CC4
:100A80006DE904CE00F006F8DDF804E0DDE90223AC
:100A900004B070472DE9F0478C460D460446089E89
:100AA000002B51D18A4217466DD9B2FA82FEBEF1AF
:100AB000000F0BD0CEF1200C01FA0EF520FA0CFC41
:100AC00002FA0EF74CEA050C00FA0EF44FEA174A48
:100AD000250CBCFBFAF81FFA87F90AFB18CC45EA8B
:100AE0000C4508FB09F3AB420AD9ED1908F1FF32B6
:100AF00080F02381AB4240F22081A8F102083D44FE
:100B0000ED1AA4B2B5FBFAF00AFB105544EA05440D
:100B100000FB09F9A14509D9E41900F1FF3380F080
:100B20000A81A14540F2078102383C44A4EB090444
:100B300040EA08400021002E61D024FA0EF4002380
:100B400034607360BDE8F0878B4207D9002E54D023
:100B5000002186E821000846BDE8F087B3FA83F15A
:100B6000002940F08E80AB4202D3824200F2FA802C
:100B7000841A65EB03050120AC46002E3FD086E8C1
:100B80001010BDE8F08712B90127B7FBF2F7B7FAEA
:100B900087FEBEF1000F34D1EB1B3A0C1FFA87FC25
:100BA0000121B3FBF2F8250C02FB183345EA03459B
:100BB0000CFB08F3AB4207D9ED1908F1FF3002D264
:100BC000AB4200F2D1808046ED1AA3B2B5FBF2F041
:100BD00002FB105543EA05440CFB00FCA44507D971
:100BE000E41900F1FF3302D2A44500F2B8801846A0
:100BF000A4EB0C0440EA08409DE731463046BDE8CE
:100C0000F087CEF1200405FA0EF307FA0EF720FA6A
:100C100004F83A0C25FA04F448EA0308B4FBF2F1AC
:100C20004FEA184502FB11441FFA87FC45EA0445C8
:100C300001FB0CF3AB4200FA0EF409D9ED1901F1F6
:100C4000FF3080F08A80AB4240F2878002393D4419
:100C5000EB1A1FFA88F5B3FBF2F002FB103345EAFA
:100C6000034500FB0CF3AB4207D9ED1900F1FF3847
:100C70006FD2AB426DD902383D44EB1A40EA0141D4
:100C80008FE7C1F1200722FA07F88B4005FA01F43B
:100C900048EA030320FA07FE4FEA134CFD404EEAF0
:100CA000040EB5FBFCF94FEA1E440CFB19551FFA64
:100CB00083F844EA054509FB08F4AC4202FA01F264
:100CC00000FA01FA08D9ED1809F1FF3043D2AC421D
:100CD00041D9A9F102091D442D1B1FFA8EFEB5FB57
:100CE000FCF00CFB10554EEA054400FB08F8A0454B
:100CF00007D9E41800F1FF3529D2A04527D90238D9
:100D00001C4440EA0940A4EB0804A0FB02894C45BE
:100D1000C6464D4615D312D056B1BAEB0E0364EB5E
:100D2000050404FA07F7CB401F43CC4037607460DA
:100D30000021BDE8F0871846F8E69046E0E6C24597
:100D4000EAD2B8EB020E69EB03050138E4E7284666
:100D5000D7E7404691E78146BEE7014678E702388B
:100D60003C4445E7084608E7A8F102083D442BE764
:100D7000704700BF80B483B000AF78603960FEE791
:100D800080B584B000AF78600023FB601B4A1B4B2A
:100D90001B6B43F002031363184B1B6B03F002033E
:100DA000FB60FB687B68164A1A607B68154A5A60CC
:100DB0007B6800229A607B680022DA607B684FF4CF
:100DC00080421A617B6800225A617B6800229A6126
:100DD0007B680022DA617B6800221A62786801F081
:100DE00027F90346002B03D037210748FFF7C2FF3E
:100DF000002318461037BD4680BD00BF00380240B2
:100E000000540040A0860100384A000880B586B032
:100E100002AF78600B46FB707B6858687B685B7A32
:100E200099B2FA1C0A230093012301F039FA034610
:100E3000002B14BF01230023DBB2FB73FB7B002BD1
:100E400001D0012300E0002318461037BD4680BDC5
:100E500080B582B000AF7860786800F0C1F800BF5C
:100E60000837BD4680BD000080B586B000AFF86091
:100E7000B9601346FB711421012003F05DF90346AC
:100E80007B617B69002B01D100232DE0FB79002BD6
:100E900006D07B6947221A727B6946225A7205E0A6
:100EA0007B69BA221A727B69B9225A72B868FFF755
:100EB00097F90346184603F071F903461A467B6911
:100EC0001A607B691B68002B01D100230CE07B6951
:100ED000FA685A607B691B68B968184603F05CFAC7
:100EE0007B69034A1A617B6918461837BD4680BD85
:100EF000510E000880B582B000AF7860012178689B
:100F0000FFF784FF03217868FFF780FF10217868DE
:100F1000FFF77CFF002318460837BD4680BD80B52B
:100F200084B002AF78607B6858687B681B7A99B29E
:100F30007B6803F10C020A230093022301F0AEFA4E
:100F40000346002B01D0012300E000231846083798
:100F5000BD4680BD90B585B000AF78607B681B7BD7
:100F60009AB27B685A817B685B891B021AB27B68E4
:100F70005B7B1BB213431BB29AB27B685A817B68BE
:100F80005B891846FFF7D6FA4FF03332104BFFF764
:100F900061FC03460C4618462146FFF743FD034615
:100FA0009AB27B685A817B685B891A4609490A486C
:100FB00003F0CEF90346FB73FB7B9AB26423064928
:100FC000064802F06EFC002318461437BD4690BD5B
:100FD0003333F33F504A00085001002084010020C1
:100FE00080B582B000AF78607868FFF798FF7868C6
:100FF000FFF7B0FF002318460837BD4680BD00004C
:10100000B0B5A0B002AF00F0E5FC00F003FA012398
:1010100087F86830002387F86930002387F86A3042
:1010200000233B6700F0E8FA00F060FA00F08CFA69
:1010300000F0B8FA40F6B83000F03EFDB14800F0DC
:10104000F7FF0346002B10D03B46AF49184603F08C
:101050007FF93B461846FFF7C3F803469AB2394674
:101060004FF47A73A94802F01CFC3B46A84A1C4680
:1010700013460FCB07C4238007F168024FF47A733D
:101080000093032330219F4801F00AF90346002B07
:1010900014BF01230023DBB23B673B6F002B19D049
:1010A0003B463A6F9B49184603F052F93B461846B7
:1010B000FFF796F803469AB239464FF47A7393488D
:1010C00002F0EFFB2021944800F097FFC82000F0C9
:1010D000F3FCF7E73B46914A1C4615460FCD0FC47B
:1010E00095E803002060043421703B461846FFF762
:1010F00077F803469AB239464FF47A73834802F080
:10110000D0FB8748FFF73CFE012286498448FFF761
:10111000ABFEF866F86EFFF7EDFE834A834B14468C
:101120001D460FCD20606160A260E3600F2387F849
:101130006B3097F86B309AB264237B49734802F0A6
:10114000B0FB052387F8683007F168024FF47A7323
:101150000093012330216B4801F0A2F807F16402EB
:101160004FF47A73009302233021664801F096F918
:1011700097F864305BB2002B17DA3B466C4A1C468A
:1011800015460FCD0FC42B681A46228002341B0C63
:1011900023703B461846FFF723F803469AB23946B8
:1011A0004FF47A73594802F07CFB97F8643003F0EF
:1011B0004003002B19D03B465E4A1C4615460FCD16
:1011C0000FC495E8030020600434218002340B0C26
:1011D00023703B461846FFF703F803469AB2394698
:1011E0004FF47A73494802F05CFB97F8643003F0DF
:1011F0002003002B16D03B464F4A1C4615460FCD08
:101200000FC495E803002060043421803B46184653
:10121000FEF7E6FF03469AB239464FF47A733B482D
:1012200002F03FFB97F8643003F0E003002B1AD084
:101230003B46424A1268114619800233120C1A705A
:101240003B461846FEF7CCFF03469AB239464FF4A8
:101250007A732E4802F025FB97F8643003F01F03E1
:10126000DBB287F8643097F8643003F01003002B8A
:1012700015D097F8643003F00F03DBB287F86430C1
:101280002F4B2D221A7097F864301B01C3F5807321
:1012900097F865201209D2B213447B670BE0284B04
:1012A0002B221A7097F864301B0197F865201209F9
:1012B000D2B213447B6797F8653003F00803002B24
:1012C00013D097F8653003F00403002B06D01C4BB5
:1012D00037225A711A4B35229A7139E0184B352250
:1012E0005A71174B30229A7132E097F8653003F04B
:1012F0000403002B26D0124B32225A71104B352298
:101300009A7125E0A4000020644A000884010020AE
:101310007C4A00088C4A000800000240AC4A0008E1
:10132000F8000020C44A000850010020D04A0008FC
:10133000E04A0008F44A00080C4B0008244B00085F
:10134000000000202E4B30225A712D4B30229A7112
:101350007B6F2C4A82FB03125211DB17D31ADBB2CC
:101360003033DAB2264B5A707A6F264B83FB021366
:101370005911D317CB1A642101FB03F3D31A224A64
:1013800082FB03129210DB17D31ADBB23033DAB2CE
:101390001B4B9A707B6F1B4A82FB03125111DA17A9
:1013A0008A1A642101FB02F29A1A174B83FB02137B
:1013B0009910D317C91A0B469B000B445B00D11A36
:1013C000CBB23033DAB20E4BDA703B460C4A0F49DF
:1013D000184602F0BDFF3B461846FEF701FF0346E4
:1013E0009AB239464FF47A73094802F05AFAFB6E02
:1013F0001B69F86E98474FF47A7000F05DFBA0E629
:10140000000000201F85EB5167666666284B0008C8
:101410008401002080B594B000AF07F12003302292
:101420000021184602F0C2FE07F10C0300221A60E8
:101430005A609A60DA601A610023BB60294A294B1E
:101440001B6C43F080531364264B1B6C03F08053DA
:10145000BB60BB6800237B60234A234B1B6823F4DB
:10146000404343F4004313601F4B1B6803F44043A5
:101470007B607B6802233B620123FB6210233B639A
:101480000223BB630023FB6310233B644FF4A87368
:101490007B640423BB640723FB6407F12003184625
:1014A00001F050FD0346002B01D000F015F90F2389
:1014B000FB6002233B6100237B614FF48053BB61DF
:1014C0000023FB6107F10C030221184601F0AAFF7B
:1014D0000346002B01D000F0FFF800BF5037BD4697
:1014E00080BD00BF003802400070004080B500AFF2
:1014F000124B134A1A60114B124A5A600F4B0022CA
:101500009A600E4B0022DA600C4B4FF480421A6155
:101510000A4B00225A61094B00229A61074B0022B4
:10152000DA61064B00221A62044800F081FD03468E
:10153000002B01D000F0D0F800BF80BDF8000020E3
:1015400000540040A086010080B500AF124B134A42
:101550001A60114B124A5A600F4B00229A600E4BD0
:101560000022DA600C4B4FF480421A610A4B0022D1
:101570005A61094B00229A61074B0022DA61064B3F
:1015800000221A62044800F053FD0346002B01D0EC
:1015900000F0A2F800BF80BDA4000020005C004065
:1015A000A086010080B500AF114B124A1A60104BA3
:1015B0004FF4E1325A600E4B00229A600C4B00222D
:1015C000DA600B4B00221A61094B0C225A61084B5E
:1015D00000229A61064B0022DA61054802F014F9F4
:1015E0000346002B01D000F077F800BF80BD00BF9C
:1015F000840100200044004080B58AB000AF07F1AC
:10160000140300221A605A609A60DA601A6100239B
:101610003B612D4A2C4B1B6B43F0040313632A4B95
:101620001B6B03F004033B613B690023FB60264A0C
:10163000254B1B6B43F080031363234B1B6B03F0A1
:101640008003FB60FB680023BB601F4A1E4B1B6BC3
:1016500043F0010313631C4B1B6B03F00103BB60DE
:10166000BB6800237B60184A174B1B6B43F00203D7
:101670001363154B1B6B03F002037B607B68002236
:101680002021124800F0A0FC4FF400537B61104B66
:10169000BB610023FB6107F1140319460D4800F0FC
:1016A00011FB20237B610123BB610023FB6100232D
:1016B0003B6207F114031946044800F003FB00BF26
:1016C0002837BD4680BD00BF003802400000024000
:1016D000000021100008024080B400AF72B6FEE79F
:1016E00080B582B000AF00237B60104A0F4B5B6C6B
:1016F00043F4804353640D4B5B6C03F480437B6085
:101700007B6800233B60094A084B1B6C43F0805305
:101710001364064B1B6C03F080533B603B6807204F
:1017200000F09CFA00BF0837BD4680BD003802407B
:1017300080B58CB000AF786007F11C0300221A60FE
:101740005A609A60DA601A617B681B68424A934269
:101750002DD10023BB61414A404B1B6B43F0020378
:1017600013633E4B1B6B03F00203BB61BB694FF479
:101770004073FB6112233B6201237B620323BB6244
:101780000423FB6207F11C031946354800F09AFA5E
:1017900000237B61314A314B1B6C43F4001313640B
:1017A0002E4B1B6C03F400137B617B694FE07B685D
:1017B0001B682C4A93424AD100233B61274A274B9E
:1017C0001B6B43F001031363244B1B6B03F00103FA
:1017D0003B613B690023FB60204A204B1B6B43F0BD
:1017E000020313631D4B1B6B03F00203FB60FB68DA
:1017F0004FF48073FB6112233B6201237B6203235E
:10180000BB620423FB6207F11C031946164800F073
:1018100059FA1023FB6112233B6201237B620323ED
:10182000BB620923FB6207F11C0319460C4800F058
:1018300049FA0023BB60094A084B1B6C43F40003C0
:101840001364064B1B6C03F40003BB60BB6800BF52
:101850003037BD4680BD00BF005400400038024014
:1018600000040240005C00400000024080B58AB0E5
:1018700000AF786007F1140300221A605A609A6082
:10188000DA601A617B681B68194A93422BD10023E6
:101890003B61184A174B1B6C43F400331364154B20
:1018A0001B6C03F400333B613B690023FB60114A6E
:1018B000104B1B6B43F0010313630E4B1B6B03F0C8
:1018C0000103FB60FB680C237B610223BB610023E7
:1018D000FB6100233B6207237B6207F11403194677
:1018E000054800F0EFF900BF2837BD4680BD00BFB6
:1018F00000440040003802400000024080B400AFC5
:10190000FEE780B400AFFEE780B400AFFEE780B42E
:1019100000AFFEE780B400AFFEE780B400AF00BFC9
:10192000BD465DF8047B704780B400AF00BFBD4684
:101930005DF8047B704780B400AF00BFBD465DF822
:10194000047B704780B500AF00F096F800BF80BD03
:1019500080B584B000AF7860114B1B68002B02D1BA
:101960000F4B104A1A600E4B1B68FB600C4B1A6839
:101970007B6813446A46934207D902F0E5FB0246AE
:101980000C2313604FF0FF3306E0054B1A687B68A9
:101990001344034A1360FB6818461037BD4680BDE8
:1019A00098000020CC01002080B400AF084A084B0A
:1019B000D3F8883043F47003C2F88830044B4FF0FA
:1019C00000629A6000BFBD465DF8047B704700BFAF
:1019D00000ED00E080B500AF0E4A0E4B1B6843F4EB
:1019E000007313600B4A0B4B1B6843F48063136056
:1019F000084A084B1B6843F480731360032000F00F
:101A00002DF9002000F008F8FFF76AFE00231846C1
:101A100080BD00BF003C024080B582B000AF78605E
:101A2000124B1A68124B1B7819464FF47A73B3FBAA
:101A3000F1F3B2FBF3F3184600F037F90346002B3D
:101A400001D001230EE07B680F2B0AD800227968B1
:101A50004FF0FF3000F00DF9064A7B681360002359
:101A600000E0012318460837BD4680BD0C00002069
:101A7000140000201000002080B400AF064B1B783B
:101A80001A46064B1B681344044A136000BFBD4648
:101A90005DF8047B704700BF14000020C4010020E3
:101AA00080B400AF034B1B681846BD465DF8047B4D
:101AB000704700BFC401002080B584B000AF7860DB
:101AC000FFF7EEFFB8607B68FB60FB68B3F1FF3F98
:101AD00005D0094B1B781A46FB681344FB6000BF16
:101AE000FFF7DEFF0246BB68D21AFB689A42F7D3C3
:101AF00000BF1037BD4680BD1400002080B485B003
:101B000000AF78607B6803F00703FB600C4BDB6879
:101B1000BB60BA684FF6FF031340BB60FB681A0254
:101B2000BB68134343F0BF6343F40033BB60044A14
:101B3000BB68D36000BF1437BD465DF8047B7047B7
:101B400000ED00E080B400AF044BDB681B0A03F03B
:101B500007031846BD465DF8047B704700ED00E0C2
:101B600080B483B000AF03463960FB7197F907304A
:101B7000002B0ADB0D4997F907303A68D2B21201FF
:101B8000D2B20B4483F800230AE00949FB7903F041
:101B90000F03043B3A68D2B21201D2B20B441A7658
:101BA00000BF0C37BD465DF8047B704700E100E0E4
:101BB00000ED00E080B489B000AFF860B9607A60F1
:101BC000FB6803F00703FB61FB69C3F10703042B08
:101BD00028BF0423BB61FB690433062B02D9FB69D0
:101BE000033B00E000237B610122BB6902FA03F39F
:101BF0005A1EBB681A407B699A4001217B6901FA31
:101C000003F3591E7B680B40134318462437BD4627
:101C10005DF8047B7047000080B582B000AF78604B
:101C20007B68013BB3F1807F01D301230FE00A4AB7
:101C30007B68013B53600F214FF0FF30FFF790FFAF
:101C4000054B00229A60044B07221A6000231846B5
:101C50000837BD4680BD00BF10E000E080B582B00F
:101C600000AF78607868FFF749FF00BF0837BD46CE
:101C700080BD80B586B000AF0346B9607A60FB7363
:101C800000237B61FFF75EFF78617A68B968786945
:101C9000FFF790FF024697F90F3011461846FFF7FD
:101CA0005FFF00BF1837BD4680BD80B582B000AF72
:101CB00078607868FFF7B0FF034618460837BD46DE
:101CC00080BD000080B489B000AF78603960002327
:101CD0007B6100233B610023BB610023FB6159E171
:101CE0000122FB6902FA03F37B613B681A687B6996
:101CF00013403B613A697B699A4240F048813B68F6
:101D00005B68012B0BD03B685B68022B07D03B68FC
:101D10005B68112B03D03B685B68122B30D17B686A
:101D20009B68BB61FB695B00032202FA03F3DB43A0
:101D3000BA691340BB613B68DA68FB695B0002FA71
:101D400003F3BA691343BB617B68BA699A607B6825
:101D50005B68BB610122FB6902FA03F3DB43BA69EA
:101D60001340BB613B685B681B0903F00102FB6920
:101D700002FA03F3BA691343BB617B68BA695A601C
:101D80007B68DB68BB61FB695B00032202FA03F33B
:101D9000DB43BA691340BB613B689A68FB695B002F
:101DA00002FA03F3BA691343BB617B68BA69DA606C
:101DB0003B685B68022B03D03B685B68122B23D126
:101DC000FB69DA087B68083253F82230BB61FB6993
:101DD00003F007039B000F2202FA03F3DB43BA6907
:101DE0001340BB613B681A69FB6903F007039B0062
:101DF00002FA03F3BA691343BB61FB69DA087B6833
:101E00000832B96943F822107B681B68BB61FB6923
:101E10005B00032202FA03F3DB43BA691340BB61A0
:101E20003B685B6803F00302FB695B0002FA03F3A3
:101E3000BA691343BB617B68BA691A603B685B6827
:101E400003F08053002B00F0A2800023FB60564A71
:101E5000554B5B6C43F480435364534B5B6C03F40E
:101E60008043FB60FB68514AFB699B08023352F8D0
:101E70002330BB61FB6903F003039B000F2202FACE
:101E800003F3DB43BA691340BB617B68484A934262
:101E900019D07B68474A934213D07B68464A9342E5
:101EA0000DD07B68454A934207D07B68444A9342F1
:101EB00001D1042308E0072306E0032304E0022302
:101EC00002E0012300E00023FA6902F0030292001D
:101ED0009340BA691343BB613449FB699B080233E1
:101EE000BA6941F82320374B1B68BB613B69DB4370
:101EF000BA691340BB613B685B6803F48033002B15
:101F000003D0BA693B691343BB612E4ABB691360B6
:101F10002C4B5B68BB613B69DB43BA691340BB6117
:101F20003B685B6803F40033002B03D0BA693B695C
:101F30001343BB61234ABB695360224B9B68BB615F
:101F40003B69DB43BA691340BB613B685B6803F4E0
:101F50008013002B03D0BA693B691343BB61194A54
:101F6000BB699360174BDB68BB613B69DB43BA69B4
:101F70001340BB613B685B6803F40013002B03D084
:101F8000BA693B691343BB610E4ABB69D360FB6905
:101F90000133FB61FB690F2B7FF6A2AE00BF243734
:101FA000BD465DF8047B70470038024000380140B0
:101FB000000002400004024000080240000C024001
:101FC00000100240003C014080B483B000AF786054
:101FD0000B467B8013467B707B78002B03D07A887E
:101FE0007B689A6103E07B881A047B689A6100BF72
:101FF0000C37BD465DF8047B704780B483B000AFFA
:1020000078600B467B807B685A697B881A407B88A6
:102010009A4204D17B881A047B689A6102E07A882C
:102020007B689A6100BF0C37BD465DF8047B704742
:1020300090B585B000AF78607B68002B01D101239B
:102040001FE17B6893F83D30DBB2002B06D17B6843
:10205000002283F83C207868FFF76AFB7B68242223
:1020600083F83D207B681B687A681268126822F04A
:1020700001021A607B681B687A681268126842F471
:1020800000421A607B681B687A681268126822F442
:1020900000421A6001F090FBF8607B685B687B4A45
:1020A000934207D8FB687A4A934294BF01230023E6
:1020B000DBB206E0FB68774A934294BF012300231A
:1020C000DBB2002B01D00123DBE0FB68724AA2FBEC
:1020D00003239B0CBB607B681B687A68126852689C
:1020E00022F03F01BA680A435A607B681A687B682D
:1020F0001B681B6A23F03F017B685B68634883426F
:1021000002D8BB68013309E0BB684FF4967000FB4E
:1021100003F36248A0FB03039B0901330B431362E3
:102120007B6818687B681B68DB6923F44F4222F0E8
:10213000FF027B685B6855498B420DD8FB68591ECE
:102140007B685B685B00B1FBF3F30133C3F30B0304
:10215000042B38BF04234FE07B689B68002B11D110
:10216000FB685C1E7B6859680B465B000B44B4FB44
:10217000F3F30133C3F30B03002B0CBF0123002344
:10218000DBB212E0FB685C1E7B6859680B469B0063
:102190000B4499000B44B4FBF3F30133C3F30B037B
:1021A000002B0CBF01230023DBB2002B01D0012345
:1021B00022E07B689B68002B0ED1FB685C1E7B686D
:1021C00059680B465B000B44B4FBF3F30133C3F3D4
:1021D0000B0343F400430FE0FB685C1E7B68596807
:1021E0000B469B000B4499000B44B4FBF3F3013303
:1021F000C3F30B0343F440431343C3617B681B6881
:102200007A681268126822F0C0017A68D0697A6828
:10221000126A02430A431A607B681A687B681B686B
:102220009B6823F4034323F0FF0379680869796806
:10223000C96801430B4393607B681B687A68126826
:10224000D26822F0FF017A6850697A689269024385
:102250000A43DA607B681B687A681268126842F089
:1022600001021A607B6800221A647B68202283F8CE
:102270003D207B6800221A637B68002283F83E20A1
:10228000002318461437BD4690BD00BFA08601004C
:102290007F841E00FF083D0083DE1B43D34D621088
:1022A00080B588B002AFF8607A601A460B467B8131
:1022B00013463B81FFF7F4FB7861FB6893F83D30F0
:1022C000DBB2202B40F0E0807B69009319230122D0
:1022D0007049F86800F058FC0346002B01D0022337
:1022E000D3E0FB6893F83C30012B01D10223CCE012
:1022F000FB68012283F83C20FB681B681B6803F025
:102300000103012B07D0FB681B68FA68126812688A
:1023100042F001021A60FB681B68FA6812681268D2
:1023200022F400621A60FB68212283F83D20FB68DA
:10233000102283F83E20FB6800221A64FB687A684A
:102340005A62FB683A895A85FB685B8D9AB2FB68D2
:102350001A85FB68504ADA6279897B693A6AF868BB
:1023600000F0C2FA0346002B01D001238DE00023C8
:102370003B61FB681B685B693B61FB681B689B6991
:102380003B613B6966E07A69396AF86800F0D2FC23
:102390000346002B0DD0FB681B6C042B07D1FB6898
:1023A0001B68FA681268126842F400721A6001230E
:1023B0006BE0FB681B68FA68526A12781A61FB6866
:1023C0005B6A5A1CFB685A62FB685B8D9BB2013BDF
:1023D0009AB2FB685A85FB681B8D013B9AB2FB6879
:1023E0001A85FB681B685B6903F00403042B1BD18F
:1023F000FB681B8D002B17D0FB681B68FA68526ABC
:1024000012781A61FB685B6A5A1CFB685A62FB68A7
:102410005B8D9BB2013B9AB2FB685A85FB681B8DB2
:10242000013B9AB2FB681A857A69396AF86800F04C
:10243000C2FC0346002B0DD0FB681B6C042B07D19C
:10244000FB681B68FA681268126842F400721A602E
:1024500001231AE0FB681B8D002B94D1FB681B68DD
:10246000FA681268126842F400721A60FB6820224F
:1024700083F83D20FB68002283F83E20FB680022A1
:1024800083F83C20002300E0022318461837BD469D
:1024900080BD00BF020010000000FFFF80B58CB0BF
:1024A00002AFF8607A601A460B467B8113463B8187
:1024B000FFF7F6FA7862FB6893F83D30DBB2202B29
:1024C00040F00B827B6A0093192301227C49F86853
:1024D00000F05AFB0346002B01D00223FEE1FB680B
:1024E00093F83C30012B01D10223F7E1FB68012274
:1024F00083F83C20FB681B681B6803F00103012B79
:1025000007D0FB681B68FA681268126842F0010283
:102510001A60FB681B68FA681268126822F400628D
:102520001A60FB68222283F83D20FB68102283F8A2
:102530003E20FB6800221A64FB687A685A62FB68D6
:102540003A895A85FB685B8D9AB2FB681A85FB68ED
:102550005C4ADA6279897B6A3A6BF86800F046FA7D
:102560000346002B01D00123B8E1FB681B8D002B33
:1025700013D100233B62FB681B685B693B62FB680D
:102580001B689B693B623B6AFB681B68FA681268C0
:10259000126842F400721A608CE1FB681B8D012BFB
:1025A0001BD1FB681B68FA681268126822F480620B
:1025B0001A600023FB61FB681B685B69FB61FB68B9
:1025C0001B689B69FB61FB69FB681B68FA68126802
:1025D000126842F400721A606CE1FB681B8D022BDA
:1025E0001BD1FB681B68FA681268126822F48062CB
:1025F0001A60FB681B68FA681268126842F400628D
:102600001A600023BB61FB681B685B69BB61FB68E8
:102610001B689B69BB61BB694CE1FB681B68FA687E
:102620001268126842F480621A6000237B61FB68C2
:102630001B685B697B61FB681B689B697B617B69CD
:1026400038E1FB681B8D032B00F2F180FB681B8DCA
:10265000012B23D17A6A396BF86800F0EDFB034651
:10266000002B01D0012339E1FB685B6AFA6812682C
:102670001269D2B21A70FB685B6A5A1CFB685A6214
:10268000FB681B8D013B9AB2FB681A85FB685B8D6A
:102690009BB2013B9AB2FB685A850BE1FB681B8D2C
:1026A000022B4ED17B6A00933B6B00220649F868EF
:1026B00000F06AFA0346002B08D001230EE100BFA8
:1026C000020010000000FFFF04000100FB681B680F
:1026D000FA681268126842F400721A60FB685B6A5A
:1026E000FA6812681269D2B21A70FB685B6A5A1CE7
:1026F000FB685A62FB681B8D013B9AB2FB681A8526
:10270000FB685B8D9BB2013B9AB2FB685A85FB6804
:102710005B6AFA6812681269D2B21A70FB685B6A67
:102720005A1CFB685A62FB681B8D013B9AB2FB681E
:102730001A85FB685B8D9BB2013B9AB2FB685A8598
:10274000B8E07B6A00933B6B00226649F86800F0B2
:102750001BFA0346002B01D00123BFE0FB681B6876
:10276000FA681268126822F480621A60FB685B6A79
:10277000FA6812681269D2B21A70FB685B6A5A1C56
:10278000FB685A62FB681B8D013B9AB2FB681A8595
:10279000FB685B8D9BB2013B9AB2FB685A857B6AF2
:1027A00000933B6B00224F49F86800F0EDF90346B7
:1027B000002B01D0012391E0FB681B68FA681268C6
:1027C000126842F400721A60FB685B6AFA68126869
:1027D0001269D2B21A70FB685B6A5A1CFB685A62B3
:1027E000FB681B8D013B9AB2FB681A85FB685B8D09
:1027F0009BB2013B9AB2FB685A85FB685B6AFA6838
:1028000012681269D2B21A70FB685B6A5A1CFB68C4
:102810005A62FB681B8D013B9AB2FB681A85FB6804
:102820005B8D9BB2013B9AB2FB685A8542E07A6AA3
:10283000396BF86800F000FB0346002B01D0012340
:102840004CE0FB685B6AFA6812681269D2B21A70CF
:10285000FB685B6A5A1CFB685A62FB681B8D013B74
:102860009AB2FB681A85FB685B8D9BB2013B9AB2FA
:10287000FB685A85FB681B685B6903F00403042B43
:1028800018D1FB685B6AFA6812681269D2B21A70D2
:10289000FB685B6A5A1CFB685A62FB681B8D013B34
:1028A0009AB2FB681A85FB685B8D9BB2013B9AB2BA
:1028B000FB685A85FB681B8D002B7FF4C2AEFB685A
:1028C000202283F83D20FB68002283F83E20FB682D
:1028D000002283F83C20002300E00223184628371A
:1028E000BD4680BD0400010080B588B002AFF8602D
:1028F0007A603B600B467B81FB68DB6A7B617B69AE
:10290000082B06D07B69012B03D07B6913F5803F30
:1029100008D1FB681B68FA681268126842F480727A
:102920001A600BE0FB681B6B122B07D1FB681B685E
:10293000FA681268126842F480721A603B68009369
:102940007B6800224FF00111F86800F01DF9034682
:10295000002B0DD0FB681B681B6803F48073B3F574
:10296000807F03D1FB684FF400721A64032334E0C4
:10297000FB681B69B3F5804F07D1FB681B687A8938
:10298000D2B202F0FE021A611BE0FB681B687A8972
:10299000D211D2B202F00602D2B262F00F02D2B26B
:1029A0001A613B687A680F49F86800F044F90346F9
:1029B000002B01D0012310E0FB681B687A89D2B29A
:1029C0001A613B687A680849F86800F034F90346F0
:1029D000002B01D0012300E0002318461837BD4624
:1029E00080BD00BF080001000200010080B588B072
:1029F00002AFF8607A603B600B467B81FB68DB6A64
:102A00007B61FB681B68FA681268126842F4806296
:102A10001A607B69082B06D07B69012B03D07B6988
:102A200013F5803F08D1FB681B68FA6812681268CA
:102A300042F480721A600BE0FB681B6B112B07D10C
:102A4000FB681B68FA681268126842F480721A60A8
:102A50003B6800937B6800224FF00111F86800F09A
:102A600093F80346002B0DD0FB681B681B6803F42A
:102A70008073B3F5807F03D1FB684FF400721A6452
:102A8000032379E0FB681B69B3F5804F08D1FB682D
:102A90001B687A89D2B242F00102D2B21A615FE0B9
:102AA000FB681B687A89D211D2B202F00602D2B258
:102AB00062F00F02D2B21A613B687A683049F86856
:102AC00000F0B9F80346002B01D0012354E0FB6865
:102AD0001B687A89D2B21A613B687A682949F8681A
:102AE00000F0A9F80346002B01D0012344E00023A5
:102AF0003B61FB681B685B693B61FB681B689B690A
:102B00003B613B69FB681B68FA681268126842F413
:102B100080721A603B6800937B6800224FF00111BD
:102B2000F86800F031F80346002B0DD0FB681B68F5
:102B30001B6803F48073B3F5807F03D1FB684FF407
:102B400000721A64032317E0FB681B687A89D211AC
:102B5000D2B202F00602D2B262F00E02D2B21A6112
:102B60003B687A680749F86800F065F80346002B6F
:102B700001D0012300E0002318461837BD4680BD70
:102B8000080001000200010080B584B000AFF860C9
:102B9000B9603B601346FB7125E03B68B3F1FF3F32
:102BA00021D0FEF77DFF0246BB69D21A3B689A42EC
:102BB00002D83B68002B16D1FB6800221A63FB6821
:102BC000202283F83D20FB68002283F83E20FB682A
:102BD0001B6C43F02002FB681A64FB68002283F838
:102BE0003C20012323E0BB681B0CDBB2012B0DD181
:102BF000FB681B685B69DA43BB6813409BB2002B20
:102C00000CBF01230023DBB21A460CE0FB681B68F3
:102C10009B69DA43BB6813409BB2002B0CBF0123B6
:102C20000023DBB21A46FB799A42B6D0002318463D
:102C30001037BD4680BD80B584B000AFF860B96084
:102C40007A603B6051E0FB681B685B6903F480635A
:102C5000B3F5806F23D1FB681B68FA6812681268AD
:102C600042F400721A60FB681B686FF480625A615C
:102C7000FB6800221A63FB68202283F83D20FB6872
:102C8000002283F83E20FB681B6C43F00402FB68C3
:102C90001A64FB68002283F83C20012346E07B682D
:102CA000B3F1FF3F21D0FEF7FBFE02463B68D21A8C
:102CB0007B689A4202D87B68002B16D1FB68002201
:102CC0001A63FB68202283F83D20FB68002283F80A
:102CD0003E20FB681B6C43F02002FB681A64FB6813
:102CE000002283F83C20012320E0BB681B0CDBB2F0
:102CF000012B0CD1FB681B685B69DA43BB6813408E
:102D00009BB2002B14BF01230023DBB20BE0FB6856
:102D10001B689B69DA43BB6813409BB2002B14BF4E
:102D200001230023DBB2002B8DD10023184610377E
:102D3000BD4680BD80B584B000AFF860B9607A60F0
:102D40002DE0F86800F0CEF80346002B01D00123F7
:102D50002DE0BB68B3F1FF3F21D0FEF7A1FE024694
:102D60007B68D21ABB689A4202D8BB68002B16D186
:102D7000FB6800221A63FB68202283F83D20FB6871
:102D8000002283F83E20FB681B6C43F02002FB68A6
:102D90001A64FB68002283F83C20012307E0FB68EB
:102DA0001B685B6903F08003802BCAD1002318469F
:102DB0001037BD4680BD80B584B000AFF860B96003
:102DC0007A602DE0F86800F08DF80346002B01D002
:102DD00001232DE0BB68B3F1FF3F21D0FEF760FE79
:102DE00002467B68D21ABB689A4202D8BB68002BA5
:102DF00016D1FB6800221A63FB68202283F83D206D
:102E0000FB68002283F83E20FB681B6C43F0200225
:102E1000FB681A64FB68002283F83C20012307E06A
:102E2000FB681B685B6903F00403042BCAD1002311
:102E300018461037BD4680BD80B584B000AFF8603D
:102E4000B9607A6042E0FB681B685B6903F01003BD
:102E5000102B19D1FB681B686FF010025A61FB68D8
:102E600000221A63FB68202283F83D20FB680022C1
:102E700083F83E20FB681A6CFB681A64FB6800222A
:102E800083F83C20012329E0FEF70AFE02467B6816
:102E9000D21ABB689A4202D8BB68002B16D1FB68D5
:102EA00000221A63FB68202283F83D20FB68002281
:102EB00083F83E20FB681B6C43F02002FB681A6419
:102EC000FB68002283F83C20012307E0FB681B68B5
:102ED0005B6903F04003402BB5D10023184610373F
:102EE000BD4680BD80B483B000AF78607B681B684E
:102EF0005B6903F48063B3F5806F1BD17B681B684B
:102F00006FF480625A617B6800221A637B6820221A
:102F100083F83D207B68002283F83E207B681B6C91
:102F200043F004027B681A647B68002283F83C202B
:102F3000012300E0002318460C37BD465DF8047BF2
:102F40007047000080B586B000AF78607B68002BCA
:102F500001D101235BE27B681B6803F00103002BB6
:102F600075D0A34B9B6803F00C03042B0CD0A04B33
:102F70009B6803F00C03082B12D19D4B5B6803F494
:102F80008003B3F5800F0BD1994B1B6803F400331A
:102F9000002B5BD07B685B68002B57D1012336E2A6
:102FA0007B685B68B3F5803F06D1914A904B1B6804
:102FB00043F4803313601DE07B685B68B3F5A02F9A
:102FC0000CD18B4A8A4B1B6843F480231360884AD8
:102FD000874B1B6843F4803313600BE0844A844BB7
:102FE0001B6823F480331360814A814B1B6823F4F0
:102FF000802313607B685B68002B13D0FEF750FDC5
:10300000386108E0FEF74CFD02463B69D31A642B99
:1030100001D90323FBE1764B1B6803F40033002B3B
:10302000F0D014E0FEF73CFD386108E0FEF738FD13
:1030300002463B69D31A642B01D90323E7E16C4BA9
:103040001B6803F40033002BF0D100E000BF7B6865
:103050001B6803F00203002B63D0654B9B6803F0F1
:103060000C03002B0BD0624B9B6803F00C03082B66
:103070001CD15F4B5B6803F48003002B16D15C4BC3
:103080001B6803F00203002B05D07B68DB68012B73
:1030900001D00123BBE15649554B1B6823F0F802D0
:1030A0007B681B69DB0013430B603AE07B68DB68DD
:1030B000002B20D04F4B01221A60FEF7F1FC386143
:1030C00008E0FEF7EDFC02463B69D31A022B01D95A
:1030D00003239CE1464B1B6803F00203002BF0D056
:1030E0004349434B1B6823F0F8027B681B69DB00F4
:1030F00013430B6015E03F4B00221A60FEF7D0FC33
:10310000386108E0FEF7CCFC02463B69D31A022B7B
:1031100001D903237BE1364B1B6803F00203002B2C
:10312000F0D17B681B6803F00803002B30D07B686C
:103130005B69002B16D0304B01221A60FEF7B0FC01
:10314000386108E0FEF7ACFC02463B69D31A022B5B
:1031500001D903235BE1264B5B6F03F00203002BD5
:10316000F0D015E0244B00221A60FEF799FC38617C
:1031700008E0FEF795FC02463B69D31A022B01D901
:10318000032344E11A4B5B6F03F00203002BF0D1E1
:103190007B681B6803F00403002B00F0A080002371
:1031A000FB75134B1B6C03F08053002B0FD10023D6
:1031B000BB600F4A0E4B1B6C43F0805313640C4BE7
:1031C0001B6C03F08053BB60BB680123FB750B4B8A
:1031D0001B6803F48073002B21D1084A074B1B683E
:1031E00043F480731360FEF75BFC386111E000BFAD
:1031F0000038024000004742800E47420070004005
:10320000FEF74EFC02463B69D31A022B01D9032379
:10321000FDE0814B1B6803F48073002BF0D07B68CA
:103220009B68012B06D17D4A7C4B1B6F43F0010349
:1032300013671CE07B689B68052B0CD1774A774BA2
:103240001B6F43F004031367744A744B1B6F43F006
:10325000010313670BE0714A704B1B6F23F00103EE
:1032600013676E4A6D4B1B6F23F0040313677B6873
:103270009B68002B15D0FEF713FC38610AE0FEF7BF
:103280000FFC02463B69D31A41F28832934201D9BE
:103290000323BCE0614B1B6F03F00203002BEED055
:1032A00014E0FEF7FDFB38610AE0FEF7F9FB024689
:1032B0003B69D31A41F28832934201D90323A6E035
:1032C000564B1B6F03F00203002BEED1FB7D012B4D
:1032D00005D1524A514B1B6C23F0805313647B6819
:1032E0009B69002B00F092804C4B9B6803F00C0311
:1032F000082B5CD07B689B69022B41D1484B002294
:103300001A60FEF7CDFB386108E0FEF7C9FB024604
:103310003B69D31A022B01D9032378E03F4B1B688A
:1033200003F00073002BF0D13C497B68DA697B68BD
:103330001B6A1A437B685B6A9B011A437B689B6A22
:103340005B08013B1B041A437B68DB6A1B061343C3
:103350004B60334B01221A60FEF7A2FB386108E094
:10336000FEF79EFB02463B69D31A022B01D90323C9
:103370004DE02A4B1B6803F00073002BF0D045E0B2
:10338000274B00221A60FEF78BFB386108E0FEF73E
:1033900087FB02463B69D31A022B01D9032336E08F
:1033A0001E4B1B6803F00073002BF0D12EE07B68EE
:1033B0009B69012B01D1012329E0184B5B68FB605D
:1033C000FB6803F480027B68DB699A421CD1FB68CE
:1033D00003F03F027B681B6A9A4215D1FA6847F6F0
:1033E000C07313407A68526A93420DD1FB6803F4AC
:1033F00040327B689B6A9A4206D1FB6803F0706298
:103400007B68DB6A9A4201D0012300E00023184662
:103410001837BD4680BD00BF007000400038024034
:103420006000474280B584B000AF786039607B6847
:10343000002B01D10123CCE0684B1B6803F00F0285
:103440003B689A420CD2654B3A68D2B21A70634B11
:103450001B6803F00F023B689A4201D00123B8E0D9
:103460007B681B6803F00203002B20D07B681B687D
:1034700003F00403002B05D0594A594B9B6843F4D1
:10348000E05393607B681B6803F00803002B05D0B2
:10349000534A534B9B6843F4604393605049504BED
:1034A0009B6823F0F0027B689B6813438B607B680A
:1034B0001B6803F00103002B44D07B685B68012B81
:1034C00007D1474B1B6803F40033002B19D10123AC
:1034D0007FE07B685B68022B03D07B685B68032B13
:1034E00007D13F4B1B6803F00073002B09D1012368
:1034F0006FE03B4B1B6803F00203002B01D101235B
:1035000067E03749364B9B6823F003027B685B68B2
:1035100013438B60FEF7C4FAF8600AE0FEF7C0FAC6
:103520000246FB68D31A41F28832934201D9032341
:103530004FE02B4B9B6803F00C027B685B689B00A1
:103540009A42EBD1254B1B6803F00F023B689A426D
:103550000CD9224B3A68D2B21A70204B1B6803F088
:103560000F023B689A4201D0012332E07B681B685E
:1035700003F00403002B08D01949194B9B6823F46E
:10358000E0527B68DB6813438B607B681B6803F049
:103590000803002B09D01249114B9B6823F46042A9
:1035A0007B681B69DB0013438B6000F021F8014648
:1035B0000B4B9B681B0903F00F030A4AD35C21FAEB
:1035C00003F3094A1360094B1B681846FEF724FAF7
:1035D000002318461037BD4680BD00BF003C0240A6
:1035E00000380240344B00080C000020100000207E
:1035F0002DE9F04F8FB000AF0023FB6200237B6307
:103600000023BB6200233B63624B9B6803F00C0307
:10361000042B07D0082B08D0002B40F0B2805E4B63
:103620003B63B1E05D4B3B63AEE05A4B5B6803F03C
:103630003F03FB62574B5B6803F48003002B4ED0C3
:10364000544B5B689B094FF0000440F2FF114FF0B0
:10365000000201EA030102EA04020B46144660017B
:103660007862786A40EAD36078625B013B62D7E9AE
:1036700008345B1A64EB02044FEA841949EA93693F
:103680004FEA8318B8EB030869EB04094FEAC90352
:10369000FB61FB6943EA5873FB614FEAC803BB61F6
:1036A000D7E9068918EB010849EB02094FEA4923DB
:1036B0007B617B6943EAD8537B614FEA48233B61D6
:1036C000D7E9048940464946FB6A4FF000041A4690
:1036D0002346FDF7C7F903460C467B6343E02D4BB9
:1036E0005B689B094FF0000440F2FF114FF00002AD
:1036F00001EA030102EA04020B4614466001F86085
:10370000F86840EAD360F8605B01BB60D7E9023437
:103710005B1A64EB0204A60146EA93669D01ED1A6A
:1037200066EB0406F3007B607B6843EA55737B60BD
:10373000EB003B6097E860006D1846EB02064FEA2D
:10374000862B4BEA955B4FEA852A55465E4628460E
:103750003146FB6A4FF000041A462346FDF782F912
:1037600003460C467B630B4B5B681B0C03F00303A7
:1037700001335B00BB627A6BBB6AB2FBF3F33B6362
:1037800002E0054B3B6300BF3B6B18463C37BD4630
:10379000BDE8F08F003802400024F40000127A00E7
:1037A00080B400AF034B1B681846BD465DF8047B30
:1037B000704700BF0C00002080B500AFFFF7F0FF9E
:1037C0000146054B9B689B0A03F00703034AD35C41
:1037D00021FA03F3184680BD00380240444B00082C
:1037E00080B500AFFFF7DCFF0146054B9B685B0B24
:1037F00003F00703034AD35C21FA03F3184680BDA4
:1038000000380240444B000880B582B000AF7860B9
:103810007B68002B01D101233FE07B6893F83930AE
:10382000DBB2002B06D17B68002283F83820786851
:10383000FEF71CF87B68242283F839207B681B681C
:103840007A681268D26822F40052DA60786800F070
:103850000BF97B681B687A681268126922F490423F
:103860001A617B681B687A681268526922F02A0222
:103870005A617B681B687A681268D26842F4005209
:10388000DA607B680022DA637B68202283F83920C3
:103890007B68202283F83A20002318460837BD466B
:1038A00080BD80B588B002AFF860B9603B60134658
:1038B000FB8000237B61FB6893F83930DBB2202B5F
:1038C00040F08280BB68002B02D0FB88002B01D126
:1038D00001237AE0FB6893F83830012B01D10223F1
:1038E00073E0FB68012283F83820FB680022DA636A
:1038F000FB68212283F83920FEF7D2F87861FB6853
:10390000FA889A84FB68FA88DA84FB68002283F8D4
:10391000382041E0FB68DB8C9BB2013B9AB2FB682C
:10392000DA84FB689B68B3F5805F21D13B68009324
:103930007B6900228021F86800F04BF80346002BD9
:1039400001D0032341E0BB683B61FB681B683A6917
:103950001288C2F308025A60FB681B69002B03D16E
:10396000BB680233BB6017E0BB680133BB6013E088
:103970003B6800937B6900228021F86800F029F8F9
:103980000346002B01D003231FE0FB681A68BB68C5
:10399000591CB9601B785360FB68DB8C9BB2002B11
:1039A000B8D13B6800937B6900224021F86800F0A1
:1039B00010F80346002B01D0032306E0FB68202209
:1039C00083F83920002300E0022318461837BD464B
:1039D00080BD80B584B000AFF860B9603B6013462D
:1039E000FB712CE0BB69B3F1FF3F28D0BB69002B12
:1039F00007D0FEF755F802463B68D21ABB699A42D7
:103A00001DD9FB681B68FA681268D26822F4D0726C
:103A1000DA60FB681B68FA681268526922F00102DA
:103A20005A61FB68202283F83920FB68202283F842
:103A30003A20FB68002283F8382003230FE0FB685C
:103A40001B681A68BB681A40BB689A420CBF012306
:103A50000023DBB21A46FB799A42C3D000231846F2
:103A60001037BD4680BD00002DE9F04FA3B000AF78
:103A7000F867FB6F1968FB6F1B681B6923F44052E2
:103A8000FB6FDB6813430B61FB6F9A68FB6F1B696D
:103A90001A43FB6F5B691A43FB6FDB691343C7F87B
:103AA0008430FB6F1968FB6F1B68DB6823F41642D8
:103AB00022F00C02D7F884301343CB60FB6F1968F7
:103AC000FB6F1B685B6923F44072FB6F9B691343B8
:103AD0004B61FB6FDB69B3F5004F40F07181FB6F09
:103AE0001B68B44A934205D0FB6F1B68B24A9342ED
:103AF00040F0B180FFF774FEC7F88000FB6F1D68CF
:103B0000D7F8803019464FF000020B461446DB18F8
:103B100044EB04045B1844EB0204E0007864786C26
:103B200040EA53707864DB003B64D7E9103413EB50
:103B3000010844EB020940464946FB6F5B684FF0C1
:103B40000004DB1844EB04041A462346FCF78AFF02
:103B500003460C461A46994BA3FB02235B091E0140
:103B6000D7F8803019464FF000020B461446DB1898
:103B700044EB04045B1844EB0204E000F863F86BC8
:103B800040EA5370F863DB00BB63D7E90E3413EBF4
:103B9000010844EB020940464946FB6F5B684FF061
:103BA0000004DB1844EB04041A462346FCF75AFFD2
:103BB00003460C461A46814BA3FB02135B096421A2
:103BC00001FB03F3D31ADB0032337C4AA2FB03234D
:103BD0005B095B0003F4F8731E44D7F88030194684
:103BE0004FF000020B461446DB1844EB04045B184C
:103BF00044EB0204E0007863786B40EA537078632A
:103C0000DB003B63D7E90C3413EB010844EB0209FA
:103C100040464946FB6F5B684FF00004DB1844EBFD
:103C200004041A462346FCF71DFF03460C461A46B9
:103C3000624BA3FB02135B09642101FB03F3D31A5C
:103C4000DB0032335D4AA2FB03235B0903F0070369
:103C50003344AB6040E2FFF7AFFDC7F88000FB6F75
:103C60001A683A67D7F8803019464FF000020B46C1
:103C70001446DB1844EB04045B1844EB0204E00038
:103C8000F862F86A40EA5370F862DB00BB62D7E979
:103C90000A345D1844EB020628463146FB6F5B6828
:103CA0004FF00004DB1844EB04041A462346FCF7EB
:103CB000D9FE03460C461A46404BA3FB02235B0980
:103CC0001E01D7F8803019464FF000020B4614460B
:103CD000DB1844EB04045B1844EB02044FEAC40B0A
:103CE0004BEA537B4FEAC30A53465C4613EB010A87
:103CF00044EB020B50465946FB6F5B684FF00004E3
:103D0000DB1844EB04041A462346FCF7ABFE0346DB
:103D10000C461A46294BA3FB02135B09642101FBE5
:103D200003F3D31ADB003233244AA2FB03235B09DB
:103D30005B0003F4F8731E44D7F8803019464FF047
:103D400000020B461446DB1844EB04045B1844EBFA
:103D500002044FEAC40949EA53794FEAC3084346CB
:103D60004C4613EB010844EB020940464946FB6F01
:103D70005B684FF00004DB1844EB04041A4623464A
:103D8000FCF770FE03460C461A460C4BA3FB0213CD
:103D90005B09642101FB03F3D31ADB003233074ACA
:103DA000A2FB03235B0903F0070333443A6F9360DC
:103DB00092E100BF00100140001401401F85EB514B
:103DC000FB6F1A68C14B9A4205D0FB6F1A68C04B53
:103DD0009A4240F0BF80FFF703FDC7F88000FB6FF9
:103DE0001E68D7F8803019464FF000020B46144683
:103DF000DB1844EB04045B1844EB0204E000786237
:103E0000786A40EA53707862DB003B62D7E9083495
:103E100013EB010844EB020940464946FB6F5B681F
:103E20004FF00004A200FA65FA6D42EA9372FA6557
:103E30009B00BB65D7E91623FCF714FE03460C462E
:103E40001A46A44BA3FB02235B091D01D7F880305F
:103E500019464FF000020B461446DB1844EB0404ED
:103E60005B1844EB0204E000F861F86940EA537023
:103E7000F861DB00BB61D7E9063413EB010844EBC2
:103E8000020940464946FB6F5B684FF00004A20000
:103E90007A657A6D42EA93727A659B003B65D7E951
:103EA0001423FCF7DFFD03460C461A46894BA3FB9F
:103EB00002135B09642101FB03F3D31A1B013233A4
:103EC000844AA2FB03235B0903F0F0031D44D7F8E7
:103ED000803019464FF000020B461446DB1844EBC5
:103EE00004045B1844EB0204E0007861786940EA5E
:103EF00053707861DB003B61D7E9043413EB0108B0
:103F000044EB020940464946FB6F5B684FF00004F2
:103F1000A200FA64FA6C42EA9372FA649B00BB64F2
:103F2000D7E91223FCF79EFD03460C461A46694B5F
:103F3000A3FB02135B09642101FB03F3D31A1B01EA
:103F40003233644AA2FB03235B0903F00F032B44C3
:103F5000B360C1E0FFF730FCC7F88000FB6F1B685F
:103F6000BB65D7F8803019464FF000020B46144667
:103F7000DB1844EB04045B1844EB0204E60046EA59
:103F80005376DD002B4634465D1844EB0206284686
:103F90003146FB6F5B684FF00004A5007D677D6FC5
:103FA00045EA93757D679C003C67D7E91C23FCF7C5
:103FB00059FD03460C461A46464BA3FB02135B0908
:103FC0001D01D7F8803019464FF000020B46144609
:103FD000DB1844EB04045B1844EB0204E000F860D7
:103FE000F86840EA5370F860D800B860D7E9023446
:103FF00013EB010844EB020940464946FB6F5B683E
:104000004FF00004A600FE66FE6E46EA9376FE665A
:104010009C00BC66D7E91A23FCF724FD03460C4636
:104020001A462C4BA3FB02135B09642101FB03F32B
:10403000D31A1B013233274AA2FB03135B0903F097
:10404000F0031D44D7F8803019464FF000020B46AC
:104050001446DB1844EB04045B1844EB0204E00054
:104060007860786840EA53707860D800386097E8E4
:10407000180013EB010844EB020940464946FB6F68
:104080005B684FF00004A6007E667E6E46EA93767B
:104090007E669C003C66D7E91823FCF7E3FC0346E8
:1040A0000C461A460B4BA3FB02135B09642101FB70
:1040B00003F3D31A1B013233064AA2FB03135B0935
:1040C00003F00F032B44BA6D936005E0001001402C
:1040D000001401401F85EB5100BF8C37BD46BDE881
:1040E000F08F00BFDFF834D0002103E00C4B5B58A9
:1040F000435004310B480C4B42189A42F6D30B4AFA
:1041000002E0002342F8043B094B9A42F9D3FDF741
:104110004BFC00F01FF8FCF773FF70470080012094
:10412000904B0008000000207C0000207C00002054
:10413000CC010020FEE70000024B0A460146186849
:1041400000F03CB818000020014B1868704700BF11
:104150001800002070B50D4E0D4CA41BA4100025B6
:10416000A54209D10B4E0C4C00F05AFCA41BA41024
:104170000025A54205D170BD56F825309847013578
:10418000EEE756F8253098470135F2E7884B0008EE
:10419000884B0008884B00088C4B0008024B0146F6
:1041A000186800F067B800BF1800002002440346FA
:1041B000934200D1704703F8011BF9E738B502FBC1
:1041C00001F4214600F056F8054618B122460021B8
:1041D000FFF7ECFF284638BD38B50546002945D025
:1041E00051F8043C0C1F002BB8BFE41800F0DCF8B9
:1041F0001F4A1368104633B9636014602846BDE84F
:10420000384000F0D2B8A3420CD92168621893421A
:1042100004BF1A685B68636004BF521822600460C0
:10422000ECE713465A680AB1A242FAD9196858183D
:10423000A0420BD120680144581882421960DDD198
:10424000106852685A6001441960D7E702D90C23FC
:104250002B60D3E7206821188A4204BF1168526896
:10426000626004BF091821605C60C7E738BD00BF09
:104270009C00002070B5CD1C25F0030508350C2DE1
:1042800038BF0C25002D064601DBA94203D90C23BB
:104290003360002070BD00F087F8234A146821467F
:1042A00091B9224C23681BB9304600F041F82060D8
:1042B0002946304600F03CF8431C26D10C233360DD
:1042C000304600F072F8E4E70B685B1B1AD40B2B46
:1042D0000FD90B60CD50CC18304600F066F804F1D1
:1042E0000B00231D20F00700C31A1BD05A42E250D6
:1042F00070BD8C420DBF63684B686360136018BF6C
:104300000C46E9E70C464968CAE7C41C24F00304DC
:10431000A04205D0211A304600F00AF80130CDD075
:104320002560D9E770BD00BF9C000020A0000020E0
:1043300038B5064C0023054608462360FDF708FB08
:10434000431C02D1236803B12B6038BDC801002093
:104350000EB400B59CB04FF402711DABADF8141053
:10436000029006906FF000410A48049107914FF6C1
:10437000FF7153F8042BADF816100068019302A9E1
:1043800000F070F8029B00221A701CB05DF804EB7C
:1043900003B0704718000020034611F8012B03F802
:1043A000012B002AF9D17047704770472DE9F0477B
:1043B0008E689E4282460C469146984635D88A8938
:1043C00012F4906F31D0256809696F1A656902236C
:1043D00005EB450595FBF3F508F101033B449D42D0
:1043E00038BF1D46530531D52946FFF743FF064622
:1043F00050B90C23CAF80030A38943F04003A381CD
:104400004FF0FF30BDE8F0873A46216900F0B4FA7A
:10441000A38923F4906343F08003A381266165613F
:104420003E44ED1B2660A5604646464528BF4646ED
:1044300032464946206800F0AAFAA3689B1BA36095
:1044400023681E4426600020BDE8F0872A4600F05D
:10445000B8FA06460028E1D121695046FFF7BCFEB4
:10446000C7E700002DE9F04F9DB0804603938B898C
:104470001C060D4616460FD50B696BB94021FFF798
:10448000F9FE2860286128B90C23C8F800304FF0E5
:10449000FF30C5E040236B610023099320238DF892
:1044A000293030238DF82A304FF0010B37463C4637
:1044B00014F8013B002B3CD1B7EB060A0BD0534656
:1044C000324629464046FFF771FF013000F0A380D5
:1044D000099B534409933B78002B00F09C800023F8
:1044E0004FF0FF3204930793059206938DF85330F3
:1044F0001A93052221785048FBF77AFE671C049B2B
:10450000D8B9D90644BF20228DF853201A0744BFDA
:104510002B228DF8532022782A2A16D0079A0021C0
:104520000A20274601343B78303B092B51D9C9B1C9
:1045300011E0252BC0D02746B9E73F4A801A0BFA75
:1045400000F0184304903C46D3E7039A111D12680B
:104550000391002A01DB079204E0524243F0020378
:10456000079204933B782E2B0ED17B782A2B07F1F0
:10457000010132D1039B1A1D1B680392002BB8BFA7
:104580004FF0FF33023705932C4C39780322204635
:10459000FBF72EFE38B14023001B03FA00F0049B0A
:1045A000034304930137397825488DF828100622F3
:1045B0007E1CFBF71DFE002835D0224BFBB9039B68
:1045C000073323F0070308330393099B4B440993F4
:1045D0006CE700FB02320121A3E700230593184694
:1045E0000A240F4601313A78303A092A03D9002BC0
:1045F000CAD00590C8E704FB00200123F1E703AB14
:1046000000932A46104B04A94046AFF30080B0F156
:10461000FF3F8146D9D1AB895B063FF538AF09989A
:104620001DB0BDE8F08F03AB00932A46064B04A9EA
:10463000404600F081F8EAE74C4B0008524B000876
:10464000564B000800000000AD4300082DE9F0477C
:1046500091461F468A680B69DDF820809342B8BFF7
:104660001346C9F8003091F8432006460C4612B1B3
:104670000133C9F800302368990642BFD9F80030E9
:104680000233C9F80030256815F0060507D104F19A
:10469000190AE368D9F800209B1A9D4229DB94F897
:1046A00043302268003318BF012392062ED404F150
:1046B000430239463046C047013021D02368E568BF
:1046C000D9F8002003F00603042B08BFAD1AA36835
:1046D00022690CBF25EAE57500259342C4BF9B1AE9
:1046E000ED184FF000091A344D451BD10020BDE8EC
:1046F000F0870123524639463046C047013003D186
:104700004FF0FF30BDE8F0870135C2E7E1185A1CD1
:10471000302081F84300224494F8451082F8431079
:104720000233C4E70123224639463046C0470130F0
:10473000E6D009F10109D7E72DE9F04317460A7ED3
:1047400085B06E2A984606460C460C9B01F1430E36
:1047500000F0BC801AD8632A2ED00AD8002A00F0B4
:10476000C880582A00F08A8004F1420584F842206B
:104770002AE0642A01D0692AF6D121681A6811F06A
:10478000800F23D0111D1960136827E0732A00F0F1
:10479000B48008D86F2A2AD0702AE5D10A6842F07E
:1047A00020020A6003E0752A21D0782ADCD1782221
:1047B00084F845206E4964E01A6801F14205111D34
:1047C0001960136884F842300123A3E011F0400F10
:1047D00002F104011960D7D0B2F90030002B03DADE
:1047E0002D225B4284F8432062490A2217E02068A8
:1047F000196810F0800F03D0081D18600B6806E0E0
:1048000010F0400F01F104001860F7D00B885949EF
:104810006F2A14BF0A220822002084F8430065682A
:10482000A560002DC0F29C80206820F0040020606C
:10483000002B3FD1002D40F095807546082A0BD102
:104840002368DA0708D5236962689A42DEBF3023FD
:1048500005F8013C05F1FF35AEEB05032361CDF80A
:1048600000803B4603AA21463046FFF7EFFE0130A9
:1048700055D14FF0FF3005B0BDE8F08381F84520F9
:104880003C492268186812F0800F00F104051D6091
:1048900001D0036802E05506FBD50388D00744BF6A
:1048A00042F0200222601BB9226822F0200222601E
:1048B0001022B1E77546B3FBF2F002FB1033CB5C7C
:1048C00005F8013D03460028F5D1B7E708681A68E6
:1048D000496910F0800F04D0101D1860136819602A
:1048E00007E010F0400F02F1040018601368F6D0E2
:1048F0001980002323617546B1E71A68111D1960FC
:104900001568626800212846FBF772FC08B1401B5D
:10491000606063682361002384F843309FE7236964
:104920002A4639463046C0470130A2D023689B074B
:1049300007D5002504F11909E368039A9B1A9D42E3
:1049400005DBE068039B9842B8BF184693E7012354
:104950004A4639463046C04701308AD00135EBE738
:10496000002BA7D10B7884F8423004F1420565E7AB
:104970006E4B00085D4B000810B5431E0A4491427F
:1049800000D110BD11F8014B03F8014FF7E7884241
:1049900010B501EB020303D8421E99420CD110BDA1
:1049A0009842F9D28118D21AD34200D110BD13F81F
:1049B000014D01F8014DF7E711F8014B02F8014FE5
:1049C000EBE7F8B5074614460E4621B91146BDE897
:1049D000F840FFF74FBC22B9FFF7FEFB25462846FB
:1049E000F8BD00F014F884420FD921463846FFF78D
:1049F00041FC05460028F2D031462246FFF7BCFFB5
:104A000031463846FFF7E8FBE9E73546E7E751F876
:104A1000040C0028A0F10400BCBF0B58C01870475C
:104A2000F8B500BFF8BC08BC9E467047F8B500BF9B
:084A3000F8BC08BC9E4670476B
:104A38002E2E5C436F72655C5372635C626831371B
:104A480035302E6300000000424831373530204CA5
:104A580075783A2025640A0D000000006572726FAF
:104A68007220496E697469617465202025640D0A95
:104A78000000000068656C6C6F20576F726C640AE8
:104A88000D0000006572726F722073656E64696E46
:104A98006720636F6D6D6D616E64202025640D0A5B
:104AA80000000000656E74657220666F7265766539
:104AB80072206C6F6F700D0A0000000074657374CB
:104AC8002064657669636500424831373530207364
:104AD80074617274200A0D002074656D70203E3D6B
:104AE80020637269746963616C200000202020745F
:104AF800656D70203E207570706572206C696D69F7
:104B0800742000002074656D70203C206C6F776500
:104B180072206C696D697420200000000D0A000085
:104B280074656D70203D2025730D0A00000000009B
:104B38000000000001020304060708090000000045
:104B480001020304232D302B2000686C4C0065669D
:104B580067454647003031323334353637383941C6
:104B680042434445460030313233343536373839DC
:084B78006162636465660000E0
:084B800014BFFF7F01000000DB
:044B8800C50100085B
:044B8C00A10100087B
:104B90002B6162632E646420430000000024F40053
:104BA00010000000010000001C00002000000000B8
:104BB00000000000000000000000000000000000F5
:104BC00000000000000000000000000000000000E5
:104BD00000000000000000000000000000000000D5
:104BE00000000000000000000000000000000000C5
:104BF00000000000000000000000000000000000B5
:0C4C0000000000000000000000000000A8
:04000005080040E5CA
:00000001FF
