:020000040800F2
:100000000000082031510108AD0E0008B30E0008B1
:10001000B90E0008BF0E0008C50E00080000000061
:1000200000000000000000000000000091610008D6
:10003000CB0E00080000000091630008F96300087F
:100040008151010881510108815101088151010844
:100050008151010881510108815101088151010834
:100060008151010881510108815101088151010824
:100070008151010881510108815101088151010814
:100080008151010881510108815101088151010804
:1000900081510108815101088151010881510108F4
:1000A00081510108815101088151010881510108E4
:1000B000D90E0008ED0E0008010F0008815101085B
:1000C00081510108815101088151010881510108C4
:1000D00081510108815101088151010881510108B4
:1000E00081510108815101088151010881510108A4
:1000F0008151010881510108815101088151010894
:100100008151010881510108815101088151010883
:100110008151010881510108815101088151010873
:100120008151010881510108815101088151010863
:1001300081510108150F0008815101088151010802
:100140008151010881510108815101088151010843
:100150008151010881510108815101088151010833
:100160008151010881510108815101088151010823
:1001700081510108815101088151010800000000EE
:100180008151010881510108815101088151010803
:1001900081510108815101088151010881510108F3
:1001A00081510108815101088151010881510108E3
:1001B00081510108815101088151010881510108D3
:1001C000815101088151010800000000815101089E
:1001D00081510108815101088151010881510108B3
:1001E00081510108815101088151010881510108A3
:0801F000815101088151010851
:1002000010B5054C237833B9044B13B10448AFF350
:1002100000800123237010BD80000020000000003A
:10022000C460010808B5034B1BB103490348AFF391
:10023000008008BD0000000084000020C4600108A8
:1002400010F8012B11F8013B012A28BF9A42F7D080
:10025000D01A7047034613F8012B002AFBD1181A55
:10026000013870470000000000000000000000009E
:1002700001F0FF01102A2BDB10F0070F08D010F857
:10028000013B013A8B422DD010F0070F42B3F6D15B
:10029000F0B441EA012141EA014122F007047FF074
:1002A00000070023F0E80256083C85EA010586EACB
:1002B000010685FA47F5A3FA87F586FA47F6A5FA07
:1002C00087F68EB9EED1F0BC01F0FF0102F0070213
:1002D00032B110F8013B013A83EA010313B1F8D1BE
:1002E0000020704701387047002D06BF354603389F
:1002F000073815F0010F07D1013015F4807F02BFD8
:10030000013015F4C03F0130F0BC0138704700BF28
:1003100053B94AB9002908BF00281CBF4FF0FF316C
:100320004FF0FF3000F07AB9ADF1080C6DE904CE62
:1003300000F006F8DDF804E0DDE9022304B07047C0
:100340002DE9F0478C460D460446089E002B51D1FE
:100350008A4217466DD9B2FA82FEBEF1000F0BD069
:10036000CEF1200C01FA0EF520FA0CFC02FA0EF781
:100370004CEA050C00FA0EF44FEA174A250CBCFBB8
:10038000FAF81FFA87F90AFB18CC45EA0C4508FB76
:1003900009F3AB420AD9ED1908F1FF3280F023814D
:1003A000AB4240F22081A8F102083D44ED1AA4B20C
:1003B000B5FBFAF00AFB105544EA054400FB09F9C5
:1003C000A14509D9E41900F1FF3380F00A81A14564
:1003D00040F2078102383C44A4EB090440EA08409B
:1003E0000021002E61D024FA0EF4002334607360E3
:1003F000BDE8F0878B4207D9002E54D0002186E853
:1004000021000846BDE8F087B3FA83F1002940F0E7
:100410008E80AB4202D3824200F2FA80841A65EBEE
:1004200003050120AC46002E3FD086E81010BDE841
:10043000F08712B90127B7FBF2F7B7FA87FEBEF1D2
:10044000000F34D1EB1B3A0C1FFA87FC0121B3FBE0
:10045000F2F8250C02FB183345EA03450CFB08F3C0
:10046000AB4207D9ED1908F1FF3002D2AB4200F2DE
:10047000D1808046ED1AA3B2B5FBF2F002FB105515
:1004800043EA05440CFB00FCA44507D9E41900F13C
:10049000FF3302D2A44500F2B8801846A4EB0C0446
:1004A00040EA08409DE731463046BDE8F087CEF18E
:1004B000200405FA0EF307FA0EF720FA04F83A0CB6
:1004C00025FA04F448EA0308B4FBF2F14FEA1845B0
:1004D00002FB11441FFA87FC45EA044501FB0CF3BB
:1004E000AB4200FA0EF409D9ED1901F1FF3080F0AA
:1004F0008A80AB4240F2878002393D44EB1A1FFAF2
:1005000088F5B3FBF2F002FB103345EA034500FB2C
:100510000CF3AB4207D9ED1900F1FF386FD2AB42B3
:100520006DD902383D44EB1A40EA01418FE7C1F131
:10053000200722FA07F88B4005FA01F448EA030382
:1005400020FA07FE4FEA134CFD404EEA040EB5FBBD
:10055000FCF94FEA1E440CFB19551FFA83F844EAD4
:10056000054509FB08F4AC4202FA01F200FA01FA6F
:1005700008D9ED1809F1FF3043D2AC4241D9A9F1B5
:1005800002091D442D1B1FFA8EFEB5FBFCF00CFB6F
:1005900010554EEA054400FB08F8A04507D9E418B9
:1005A00000F1FF3529D2A04527D902381C4440EA82
:1005B0000940A4EB0804A0FB02894C45C6464D4601
:1005C00015D312D056B1BAEB0E0364EB050404FA4E
:1005D00007F7CB401F43CC40376074600021BDE873
:1005E000F0871846F8E69046E0E6C245EAD2B8EB56
:1005F000020E69EB03050138E4E72846D7E74046D9
:1006000091E78146BEE7014678E702383C4445E77A
:10061000084608E7A8F102083D442BE7704700BFF1
:1006200080B485B000AFF860B9607A60FB68074AB3
:100630001A60BB68064A1A607B6880221A6000BF95
:100640001437BD465DF8047B704700BF9C00002056
:10065000F000002080B400AFBFF34F8FBFF36F8F67
:100660000B4B0022C3F85022BFF34F8FBFF36F8FA5
:10067000074A074B5B6943F400335361BFF34F8F65
:10068000BFF36F8F00BFBD465DF8047B704700BFAE
:1006900000ED00E080B485B000AF1D4B0022C3F830
:1006A0008420BFF34F8F1A4BD3F880307B607B6878
:1006B0005B0BC3F30E03FB607B68DB08C3F309032A
:1006C000BB601349FB685A0143F6E0731340BA68F4
:1006D00092071343C1F86032BB685A1EBA60002B00
:1006E000EFD1FB685A1EFA60002BE5D1BFF34F8FA4
:1006F000074A074B5B6943F480335361BFF34F8F65
:10070000BFF36F8F00BF1437BD465DF8047B7047A1
:1007100000ED00E080B582B000AF786000BF391D09
:1007200047F230530122054803F0FEFF0346002B39
:10073000F5D17B6818460837BD4680BDFC720020A5
:10074000B0B588B000AF00F055FAFFF783FFFFF7B0
:10075000A1FF00F097FC00F021F800F07DF900F017
:10076000AFF800F0FBF800F047F90A4B3C1D1D46BE
:100770000FCD0FC495E8070084E807003B1D00215A
:10078000184605F056F90246034B1A6005F03AF98F
:10079000FEE700BFE8600108AC72002080B5B8B089
:1007A00000AF07F1AC0334220021184614F028FDF5
:1007B00007F1980300221A605A609A60DA601A61A1
:1007C00007F1080390220021184614F019FD02F0E9
:1007D00047F9394A384B1B6C43F080531364364B4E
:1007E0001B6C03F080537B607B68344A334B1B687F
:1007F00043F440431360314B1B6803F440433B60B8
:100800003B680123C7F8AC304FF4A023C7F8B030E1
:100810000223C7F8C4304FF48003C7F8C83004235C
:10082000C7F8CC30D823C7F8D0300223C7F8D4306B
:100830000923C7F8D83007F1AC03184602F070F965
:100840000346002B01D000F029FA02F019F9034603
:10085000002B01D000F022FA0F23C7F898300223B2
:10086000C7F89C300023C7F8A0304FF4A053C7F856
:10087000A4304FF48053C7F8A83007F1980307213C
:10088000184602F0FBFB0346002B01D000F006FAED
:100890004FF48073BB6000237B6507F108031846A3
:1008A00002F016FE0346002B01D000F0F7F900BF5E
:1008B000E037BD4680BD00BF0038024000700040F8
:1008C00080B588B000AF07F1100300221A605A60AB
:1008D0009A60DA603B1D00221A605A609A601E4BD3
:1008E0004FF080421A601C4B00225A601A4B0022C3
:1008F0009A60194B4FF6FF72DA60174B00221A61AB
:10090000154B00229A61144803F008FA0346002BA5
:1009100001D000F0C3F94FF480533B6107F110039D
:1009200019460D4803F0EAFB0346002B01D000F006
:10093000B5F900237B600023FB603B1D1946064888
:1009400003F0F8FD0346002B01D000F0A7F900BF2B
:100950002037BD4680BD00BF8073002080B588B0C1
:1009600000AF07F1100300221A605A609A60DA6043
:100970003B1D00221A605A609A601D4B1D4A1A6086
:100980001B4B00225A601A4B00229A60184B4FF6FC
:10099000FF72DA60164B00221A61154B00229A6131
:1009A000134803F0BBF90346002B01D000F076F9A1
:1009B0004FF480533B6107F1100319460C4803F0D4
:1009C0009DFB0346002B01D000F068F900237B60FB
:1009D0000023FB603B1D1946054803F0ABFD0346B1
:1009E000002B01D000F05AF900BF2037BD4680BD72
:1009F000B07200200008004080B500AF144B154ACB
:100A00001A60134B4FF4E1325A60114B00229A6086
:100A10000F4B0022DA600E4B00221A610C4B0C22A5
:100A20005A610B4B00229A61094B0022DA61084B94
:100A300000221A62064B00225A62054803F026FE85
:100A40000346002B01D000F029F900BF80BD00BF94
:100A5000FC7200200048004080B58CB000AF07F168
:100A60001C0300221A605A609A60DA601A61554AC3
:100A7000544B1B6B43F004031363524B1B6B03F08B
:100A80000403BB61BB694F4A4E4B1B6B43F08003B1
:100A900013634C4B1B6B03F080037B617B69494AFA
:100AA000484B1B6B43F001031363464B1B6B03F076
:100AB00001033B613B69434A424B1B6B43F002031A
:100AC0001363404B1B6B03F00203FB60FB683D4A62
:100AD0003C4B1B6B43F0080313633A4B1B6B03F057
:100AE0000803BB60BB68374A364B1B6B43F04003BF
:100AF0001363344B1B6B03F040037B607B68002265
:100B000044F28101304801F091FF002240212F483A
:100B100001F08CFF4FF40053FB612D4B3B6200232F
:100B20007B6207F11C0319462A4801F0D5FD44F207
:100B30008103FB6101233B6200237B620023BB62D4
:100B400007F11C031946204801F0C6FD4023FB6154
:100B500001233B6200237B620023BB6207F11C037D
:100B600019461A4801F0B8FD8023FB6100233B625F
:100B700000237B6207F11C031946144801F0ACFD09
:100B80004FF4E853FB6102233B6200237B620323A3
:100B9000BB620A23FB6207F11C0319460E4801F0F1
:100BA0009BFD4FF40073FB6100233B6200237B62DB
:100BB00007F11C031946084801F08EFD00BF3037CD
:100BC000BD4680BD003802400004024000180240CB
:100BD00000001110000802400000024080B582B001
:100BE00000AF786004F0FAF908F0A4FD012004F0E9
:100BF0006CFFFBE780B584B000AF00F073FB01230E
:100C00003B701C4B7B600D233B720323FB72002364
:100C1000FB730023BB7301237B7300237B700123D1
:100C2000BB7200237B7200233B733B46184600F0E7
:100C30008DFB01233B700F4B7B6007233B7203232B
:100C4000FB720123FB730023BB7301237B7301231E
:100C50007B700023BB7200237B7200233B733B46F7
:100C6000184600F073FB042000F052FB00BF103761
:100C7000BD4680BD00C0072080B582B000AF78605F
:100C80007B681B68044A934201D100F009FA00BF57
:100C90000837BD4680BD00BF0004004080B400AFEF
:100CA00072B6FEE780B582B000AF114A104B1B6CE4
:100CB00043F0805313640E4B1B6C03F080537B6036
:100CC0007B680B4A0A4B5B6C43F480435364084BCC
:100CD0005B6C03F480433B603B6800220F216FF0A4
:100CE000010000F0D5FA00BF0837BD4680BD00BF47
:100CF0000038024080B584B000AF78607B681B6824
:100D0000B3F1804F14D1194A184B1B6C43F0010307
:100D10001364164B1B6C03F00103FB60FB6800229D
:100D200005211C2000F0B4FA1C2000F0CDFA18E0D8
:100D30007B681B680E4A934213D10C4A0B4B1B6C09
:100D400043F004031364094B1B6C03F00403BB6002
:100D5000BB68002205211E2000F09AFA1E2000F038
:100D6000B3FA00BF1037BD4680BD00BF0038024057
:100D70000008004080B58AB000AF786007F1140326
:100D800000221A605A609A60DA601A617B681B68F8
:100D9000174A934228D1174A164B1B6C43F4802301
:100DA0001364144B1B6C03F480233B613B69114AB1
:100DB000104B1B6B43F0080313630E4B1B6B03F0CC
:100DC0000803FB60FB684FF440737B610223BB6147
:100DD0000023FB6103233B6207237B6207F11403BB
:100DE0001946054801F078FC00BF2837BD4680BD94
:100DF0000048004000380240000C024080B58CB032
:100E000000AF78600023FB620023BB620022796898
:100E10001D2000F03DFA1D2000F056FA1F4A1F4B1E
:100E20001B6C43F0020313641C4B1B6C03F00203A6
:100E3000FB60FB6807F1100207F114031146184626
:100E400002F014FB02F0EAFA03465B00FB62FB6A65
:100E5000134AA2FB03239B0C013BBB62114B124ABA
:100E60001A60104B40F2E732DA600E4ABB6A5360F8
:100E70000C4B00221A610B4B00229A60094802F0C9
:100E80004DFF0346002B04D1064802F09FFF0346A6
:100E900000E0012318463037BD4680BD00380240CF
:100EA00083DE1B43CC7300200004004080B400AFFD
:100EB000FEE780B400AFFEE780B400AFFEE780B489
:100EC00000AFFEE780B400AFFEE780B400AF00BF24
:100ED000BD465DF8047B704780B500AF024802F064
:100EE000EDFF00BF80BD00BF8073002080B500AF64
:100EF000024802F0E3FF00BF80BD00BFCC730020BA
:100F000080B500AF024802F0D9FF00BF80BD00BF2E
:100F1000B072002080B500AF024800F03FFE00BF75
:100F200080BD00BF7474002090B587B000AFF8603A
:100F3000B9607A6000237B610AE0BC68631CBB6017
:100F4000AFF300800346DBB223707B6901337B6122
:100F50007A697B689A42F0DB7B6818461C37BD468D
:100F600090BD80B586B000AFF860B9607A600023AC
:100F70007B6109E0BB685A1CBA601B781846FFF712
:100F8000C9FB7B6901337B617A697B689A42F1DB3B
:100F90007B6818461837BD4680BD000080B485B018
:100FA00000AF7860114B1B68002B02D10F4B104A29
:100FB0001A600E4B1B68FB600C4B1A687B6813446D
:100FC0006A46934205D90B4B0C221A604FF0FF334F
:100FD00006E0064B1A687B681344044A1360FB68FA
:100FE00018461437BD465DF8047B7047F0020020B8
:100FF00018AF00200CAF002080B483B000AF786041
:101000004FF0FF3318460C37BD465DF8047B704740
:1010100080B483B000AF786039603B684FF4005211
:101020005A60002318460C37BD465DF8047B7047B4
:1010300080B483B000AF7860012318460C37BD46FA
:101040005DF8047B704780B485B000AFF860B9608C
:101050007A60002318461437BD465DF8047B70475C
:1010600080B400AF064A064BD3F8883043F47003CF
:10107000C2F8883000BFBD465DF8047B704700BFF2
:1010800000ED00E080B500AF032000F0F6F800208E
:10109000FFF7B4FEFFF706FE0023184680BD0000F0
:1010A00080B400AF064B1B781A46064B1B681344EE
:1010B000044A136000BFBD465DF8047B704700BF63
:1010C000080000201874002080B400AF034B1B6898
:1010D0001846BD465DF8047B704700BF18740020B9
:1010E00080B584B000AF7860FFF7EEFFB8607B6832
:1010F000FB60FB68B3F1FF3F05D0094B1B781A4634
:10110000FB681344FB6000BFFFF7DEFF0246BB68CD
:10111000D21AFB689A42F7D300BF1037BD4680BD94
:101120000800002080B485B000AF78607B6803F0D1
:101130000703FB600B4BDB68BB60BA684FF6FF032D
:101140001340BB60FB681A02BB681A43064B13438B
:10115000BB60044ABB68D36000BF1437BD465DF86E
:10116000047B704700ED00E00000FA0580B400AF9A
:10117000044BDB681B0A03F007031846BD465DF805
:10118000047B704700ED00E080B483B000AF0346FD
:10119000FB7197F90730002B0BDB094997F90730F2
:1011A0005B09FA7902F01F02012000FA02F241F80D
:1011B000232000BF0C37BD465DF8047B704700BF9D
:1011C00000E100E080B483B000AF03463960FB71FA
:1011D00097F90730002B0ADB0D4997F907303A6879
:1011E000D2B21201D2B20B4483F800230AE00949BB
:1011F000FB7903F00F03043B3A68D2B21201D2B27A
:101200000B441A7600BF0C37BD465DF8047B70476F
:1012100000E100E000ED00E080B489B000AFF860CC
:10122000B9607A60FB6803F00703FB61FB69C3F1F7
:101230000703042B28BF0423BB61FB690433062B7F
:1012400002D9FB69033B00E000237B610122BB69FB
:1012500002FA03F35A1EBB681A407B699A400121C7
:101260007B6901FA03F3591E7B680B401343184650
:101270002437BD465DF8047B704780B582B000AF6F
:1012800078607868FFF74EFF00BF0837BD4680BD25
:1012900080B586B000AF0346B9607A60FB73002367
:1012A0007B61FFF763FF78617A68B9687869FFF757
:1012B000B3FF024697F90F3011461846FFF782FF39
:1012C00000BF1837BD4680BD80B582B000AF034671
:1012D000FB7197F907301846FFF756FF00BF083734
:1012E000BD4680BD80B400AFBFF35F8F064A064B9A
:1012F0005B6A23F480335362044B00225A6000BFC0
:10130000BD465DF8047B704700ED00E090ED00E025
:1013100080B483B000AF78600A4A7B6843F0010371
:101320005360094A084B5B6A43F480335362BFF34E
:101330004F8FBFF36F8F00BF0C37BD465DF8047B46
:10134000704700BF90ED00E000ED00E080B483B096
:1013500000AF78601E4A7B685B7893607B681B787F
:10136000002B28D01A4A7B685B68D36018497B68D9
:101370001B7B1A077B68DB7A1B061A437B689B7A08
:10138000DB041A437B685B7B9B041A437B689B7B73
:101390005B041A437B68DB7B1B041A437B685B7A24
:1013A0001B021A437B681B7A5B0013437A6812782E
:1013B00013430B6105E0064B0022DA60044B002268
:1013C0001A6100BF0C37BD465DF8047B704700BF53
:1013D00090ED00E080B588B000AF78600023FB613D
:1013E0000023FB60A94BBB6100237B6100233B61B1
:1013F0007B68002B01D1012383E17B6893F84430A3
:10140000DBB2002B06D17B68002283F84520786888
:1014100003F0B2FE9E4A9E4B5B6C43F480435364E0
:101420009B4B5B6C03F48043BB60BB68994A994B50
:101430005B6823F4000353609649964B5A687B68B7
:101440001B6A13434B607B681B687A68126802F55D
:101450008052126842F0010203F580531A60FFF7D0
:1014600033FE786111E0FFF72FFE02467B69D31A45
:10147000B3F5FA7F09D97B68032283F844207B689F
:10148000002283F8452003233BE17B681B6803F5BA
:1014900080531B6803F00103002BE4D17B681B68B9
:1014A0001B69FB61FB6923F01C03FB6101F0AAFFD0
:1014B000B861BB69784A934208D9BB69774A9342BD
:1014C00004D8FB6943F00803FB6127E0BB69734A5A
:1014D000934208D9BB69724A934204D8FB6943F02E
:1014E0000C03FB611AE0BB696D4A934203D9BB69E7
:1014F0006C4A934211D9BB696A4A934208D9BB69C5
:10150000694A934204D8FB6943F00403FB6105E098
:10151000FB6943F01003FB6100E000BF7B681B68C0
:10152000FA691A614FF400420021786800F019FC52
:101530000346002B0BD001233B613969786800F02A
:10154000CDFD7B68012283F844200123D9E0FF20F0
:10155000FFF7C6FD7B685B68002B00F0A780FFF7F4
:10156000B3FD786107F10C031A460121786800F099
:1015700090FBFFF7A9FD02467B69D31A41F288323E
:1015800093420FD901233B613969786800F0A6FDC9
:101590007B68012283F844207B68002283F8452081
:1015A0000323AEE0FB6803F00403002BDAD04FF412
:1015B00080520021786800F0D4FB0346002B0BD04A
:1015C00001233B613969786800F088FD7B6801225E
:1015D00083F84420012394E0FFF776FD786107F15A
:1015E0000C031A460121786800F053FBFFF76CFDED
:1015F00002467B69D31A41F2883293420FD9012304
:101600003B613969786800F069FD7B68012283F8E5
:1016100044207B68002283F84520032371E0FB68A7
:1016200003F02003002BDAD007F10C031A461F2128
:10163000786800F02EFB0346002B0BD001233B61A2
:101640003969786800F04AFD7B68012283F84420FC
:10165000012356E0FB6803F01003002B04D07B68E5
:101660004FF40062DA6002E07B680022DA60FB6817
:1016700003F00403002B03D07B6800229A6037E05C
:101680007B684FF480429A6032E000BF008793038A
:101690000038024000380140FF2C3101BF0E160215
:1016A000FF869303FFE0F5057FD1F0087B68DB68D8
:1016B000DB089AB27B689B685B089BB213439BB2C2
:1016C0001A460021786800F04CFB0346002B0BD033
:1016D00001233B613969786800F000FD7B680122D5
:1016E00083F8442001230CE040F6FF70FFF7F8FC7C
:1016F0003969786800F0F2FC7B68012283F84420A5
:10170000002318462037BD4680BD00BF80B487B097
:1017100000AFF860B9607A603B6000237B61FB68D2
:1017200093F84530012B01D1022352E0FB680122DE
:1017300083F84520FB68022283F84420FB68BA68DE
:10174000DA6200237B6130E07B695B01BA68134495
:101750003B613B694FF480121A607B6940F2F4529E
:1017600002FB03F37A6813441A463B699A60FB68EC
:10177000DB69002B05D13B691B6843F440023B69E0
:101780001A603B685A1E7B699A4208D97B6901330B
:101790005B01BA6813441A463B69DA6002E0BA6832
:1017A0003B69DA607B6901337B617A693B689A4205
:1017B000CAD3FB681968BA6841F210030B441A6077
:1017C000FB68012283F84420FB68002283F845204F
:1017D000002318461C37BD465DF8047B704780B473
:1017E00087B000AFF860B9607A603B6000237B612E
:1017F000FB6893F84530012B01D1022356E0FB68CA
:10180000012283F84520FB68022283F84420FB680C
:10181000BA689A6200237B6134E07B695B01BA6835
:1018200013443B613B694FF000421A603B6944F24C
:10183000F4525A607B6940F2F45202FB03F37A6877
:1018400013441A463B699A60FB689B69012B05D1DA
:101850003B695B6823F000423B695A603B685A1E53
:101860007B699A4208D97B6901335B01BA681344EA
:101870001A463B69DA6002E0BA683B69DA607B6964
:1018800001337B617A693B689A42C6D3FB68196869
:10189000BA6841F20C030B441A60FB68012283F81A
:1018A0004420FB68002283F84520002318461C379B
:1018B000BD465DF8047B704780B487B000AF7860A8
:1018C000396000237B610023FB6000233B617B6860
:1018D00093F84530012B01D10223CDE07B68012232
:1018E00083F845207B68022283F844203B68002B64
:1018F00009D17B68012283F844207B68002283F8A9
:1019000045200123B8E07B68DB6A1B68002B09DAFD
:101910007B68122283F844207B68002283F84520EC
:101920000123A9E03B6840F2F452934215D93B6889
:10193000544AA2FB03239B0A7B613A68514BA3FBE9
:1019400002139B0A40F2F45101FB03F3D31A002B5C
:1019500005D07B6901337B6101E001237B617B69F9
:10196000012B1CD17B68DB6A7A68D26A126842F06C
:1019700040521A607B68DB6A3A68C2F30C025A6014
:101980007B68DB6A7A68D26A126842F000421A60A9
:101990007B68DB6ADB681A467B68DA624BE000230F
:1019A0003B6144E07B68DB6A7A68D26A126822F0A5
:1019B00040521A603B69002B07D17B68DB6A7A686A
:1019C000D26A126842F080521A607B68DB6A40F289
:1019D000F4525A607B695A1E3B699A4216D17B6861
:1019E000DB6A7A68D26A126842F000521A607B6938
:1019F000254A02FB03F23B68134403F2F453FB60F5
:101A00007B68DB6AFA68C2F30C025A607B68DB6AA7
:101A10007A68D26A126842F000421A607B68DB6A18
:101A2000DB681A467B68DA623B6901333B613A69DD
:101A30007B699A42B6D37B681A6841F21403134457
:101A40001B6803F00403002B0DD07B681A6841F279
:101A50001403134404221A607B681A6841F20403D9
:101A6000134400221A607B68012283F844207B68BB
:101A7000002283F84520002318461C37BD465DF838
:101A8000047B70470BB002AC0CFAFFFF80B485B04A
:101A900000AF78600023FB607B6893F84530012B32
:101AA00001D1022374E07B68012283F845207B6822
:101AB000022283F844205AE0FB680133FB607B6814
:101AC0009B6A1B6803F44073B3F5007F0DD17B68FC
:101AD0009A6A7B681A637B6801229A637B689B6AB7
:101AE000DB681A467B689A6241E07B689B6A1B68E8
:101AF00003F44073002B0BD17B689B6B5A1C7B68F3
:101B00009A637B689B6ADB681A467B689A622EE060
:101B10007B689A6A7B685A637B689B6B5A1C7B68FC
:101B20009A637B689B6B012B03D17B689A6A7B6805
:101B30001A637B689B6A1B681B0CC3F30D031A1F97
:101B40007B68DA637B681B6B9A687B681A647B68C6
:101B50009B6ADB681A467B689A627B68012283F87D
:101B600044207B68002283F84520002310E07B6836
:101B70009B6A1B68002B02DBFB68032B9CD97B68EC
:101B8000012283F844207B68002283F8452001234A
:101B900018461437BD465DF8047B704780B582B0A7
:101BA00000AF78607B681A6841F2140313441B6825
:101BB00003F04003402B12D1786803F09DFB7B6853
:101BC0001A6841F21403134440221A607B68012210
:101BD00083F844207B68002283F845201BE07B6863
:101BE0001A6841F2140313441B6803F00103012B2C
:101BF00011D1786800F039F87B681A6841F2140353
:101C0000134401221A607B68012283F844207B6818
:101C1000002283F845207B681A6841F214031344BC
:101C20004FF480321A607B681A6841F2140313443F
:101C30001B6803F40043B3F5004F12D1786800F03D
:101C40001EF87B681A6841F2140313444FF40042F3
:101C50001A607B68012283F844207B68002283F8A5
:101C6000452000BF0837BD4680BD80B483B000AFBB
:101C7000786000BF0C37BD465DF8047B704780B4C8
:101C800083B000AF786000BF0C37BD465DF8047BC1
:101C9000704780B586B000AFF8600B467A607B81F4
:101CA00000237B6100233B61FB6893F84430DBB287
:101CB000822B01D1022350E0FB68822283F844206A
:101CC000FB681B681B697B617B6903F01C037B61FC
:101CD000FB681B8ADB029BB27A6913437B617B89B9
:101CE0009B0103F4F8637A6913437B617B6923F0FA
:101CF00002037B617B6943F001037B61FB681B6826
:101D00007A691A61FFF7E0F9386115E0FFF7DCF94D
:101D100002463B69D31AB3F5803F09D3FB68012221
:101D200083F84420FB68002283F84520032314E055
:101D3000FB681B681B697B617B6903F00103002B57
:101D4000E4D1FB681B685B699BB21A467B681A602A
:101D5000FB68012283F84420002318461837BD464B
:101D600080BD80B586B000AFF8600B467A607B819D
:101D700000237B6100233B61FB6893F84430DBB2B6
:101D8000422B01D102234EE0FB68422283F844201B
:101D9000FB681B681B697B617B6903F01C037B612B
:101DA000FB681B8ADB029BB27A6913437B617B89E8
:101DB0009B0103F4F8637A6913437B617B6943F009
:101DC00002037B617B6943F001037B61FB681B6855
:101DD0007A6892B25A61FB681B687A691A61FFF7E8
:101DE00073F9386115E0FFF76FF902463B69D31AC2
:101DF000B3F5803F09D3FB68012283F84420FB68D8
:101E0000002283F8452003230DE0FB681B681B6953
:101E10007B617B6903F00103002BE4D1FB680122A5
:101E200083F84420002318461837BD4680BD80B58E
:101E300082B000AF78607B6893F84530012B01D108
:101E400002231FE07B68012283F845207B68022281
:101E500083F84420786800F041FB786800F078FB54
:101E6000786800F00FFC786800F0ACFB786800F050
:101E7000D9FB7B68012283F844207B68002283F829
:101E80004520002318460837BD4680BD80B582B086
:101E900000AF78607B6893F84530012B01D10223B5
:101EA0001FE07B68012283F845207B68022283F8CB
:101EB0004420786800F09EFB786800F0CBFB7868DF
:101EC00000F063FB786800F0DDFB786800F023FB2E
:101ED0007B68012283F844207B68002283F8452038
:101EE000002318460837BD4680BD000080B584B089
:101EF00000AF786039600023FB607B6893F8453061
:101F0000012B01D10223E3E07B68012283F8452005
:101F10007B68022283F844203B68002B00F0B080ED
:101F20007B681B681B68FB60FA686B4B1340FB60A7
:101F30003B681A683B685B681A433B689B681A43B6
:101F40003B68DB681A437B689B681A433B681B69E4
:101F50001A433B685B691A437B68DB681A433B683A
:101F60009B691A433B68DB691A433B681B6A1A4347
:101F70003B685B6A1A433B689B6A1343FA681343E6
:101F8000FB607B681B68FA681A607B681B681B68CB
:101F9000FB600120FFF7A4F87B681B68FA681A60F1
:101FA0007B681B683A68D16A3A68126B11433A68D9
:101FB000526B11433A68926B11433A68D26B1143EA
:101FC0003A68126C11433A68526C11433A68926C49
:101FD0000A435A607B681B685B68FB600120FFF75F
:101FE0007FF87B681B68FA685A607B681B683A68F0
:101FF000D26C9A607B681B683A68126DDA607B6805
:102000001B689B69FB60FA684FF641731340FB60E5
:102010003B685B6D1A043B689B6D1A433B68DB6D44
:102020001A433B681B6E1A433B685B6E1A433B685E
:102030009B6E1343FA681343FB607B681B68FA6866
:102040009A617B681B689B69FB600120FFF748F879
:102050007B681B68FA689A617B681B683A68D16E76
:102060003A68126F0A43DA617B681B68DB69FB60C0
:102070000120FFF735F87B681B68FA68DA611EE01B
:102080007B681B681B68FB60FB6823F49043FB6064
:102090007B689A687B68DB681343FA681343FB60CC
:1020A0007B681B68FA681A607B681B681B68FB60AA
:1020B0000120FFF715F87B681B68FA681A607B68D7
:1020C000012283F844207B68002283F84520002306
:1020D00018461037BD4680BD0F8120FF80B5B0B0D7
:1020E00000AF786039600023C7F8BC303B68002B34
:1020F00007D07B684FF40062DA607B684FF480425F
:102100009A600023BB640023FB6400233B6500232B
:102110007B650023BB650023FB657B68DB69002BC7
:1021200003D14FF480633B6601E000233B664FF42C
:1021300000737B660023BB660023FB6600233B67BE
:1021400000237B670023BB674023FB670023C7F89E
:1021500080300023C7F884300023C7F8883000237C
:10216000C7F88C300023C7F890300023C7F89430AC
:102170000023C7F898300023C7F89C308023C7F8A5
:10218000A0300023C7F8A4300023C7F8A8300023EC
:10219000C7F8AC300023C7F8B0300023C7F8B4301C
:1021A0000023C7F8B8307B681B681B68C7F8BC30D1
:1021B000D7F8BC20AA4B1340C7F8BC30BA6CFB6CF4
:1021C0001A433B6D1A437B6D1A437B689B681A4325
:1021D000BB6D1A43FB6D1A437B68DB681A433B6E89
:1021E0001A437B6E1A43BB6E1A43FB6E1A433B6F56
:1021F0001343D7F8BC201343C7F8BC307B681B6877
:10220000D7F8BC201A607B681B681B68C7F8BC3015
:102210000120FEF765FF7B681B68D7F8BC201A60B9
:102220007B681B68796FBA6F1143FA6F1143D7F857
:1022300080201143D7F884201143D7F88820114318
:10224000D7F88C201143D7F890200A435A607B6856
:102250001B685B68C7F8BC300120FEF741FF7B6854
:102260001B68D7F8BC205A607B681B68D7F894209D
:102270009A607B681B68D7F89820DA607B681B68D7
:102280009B69C7F8BC30D7F8BC204FF641731340A8
:10229000C7F8BC30D7F89C301A04D7F8A0301A43DE
:1022A000D7F8A4301A43D7F8A8301A43D7F8AC307F
:1022B0001A43D7F8B0301343D7F8BC201343C7F8FC
:1022C000BC307B681B68D7F8BC209A617B681B68B0
:1022D0009B69C7F8BC300120FEF702FF7B681B68D2
:1022E000D7F8BC209A617B681B68D7F8B410D7F880
:1022F000B8200A43DA617B681B68DB69C7F8BC3029
:102300000120FEF7EDFE7B681B68D7F8BC20DA6180
:102310000023BB604FF00073FB6000233B614FF470
:1023200000137B610023BB610023FB6100233B6240
:1023300000237B620423BB624FF00073FB624FF407
:1023400080333B634FF480037B634FF40053BB63E4
:102350008023FB6300233B6400237B647B681A6853
:1023600041F2180313441B68C7F8BC30D7F8BC20EF
:102370003C4B1340C7F8BC30BA68FB681A433B6952
:102380001A437B691A43BB691A43FB691A433B6AC8
:102390001A437B6A1A43BB6A1343D7F8BC20134322
:1023A000C7F8BC307B681A6841F218031344D7F8A9
:1023B000BC201A607B681A6841F2180313441B683A
:1023C000C7F8BC300120FEF78BFE7B681A6841F22B
:1023D00018031344D7F8BC201A607B681B68F96A9D
:1023E0003A6B11437A6B1143BA6B1143FA6B114389
:1023F0003A6C920011437A6C0A4342F4000203F5EE
:1024000080531A607B681B6803F580531B68C7F80C
:10241000BC300120FEF764FE7B681B6803F5805327
:10242000D7F8BC201A607B689B69012B0DD17B68B3
:1024300019687B681A6841F21C0313441B680A4A36
:102440001A4341F21C030B441A607B685B691A460D
:102450000021786800F00AF800BFC037BD4680BD93
:102460000F8120FF233FDEF84000010080B487B0D9
:1024700000AFF860B9607A607B6805331B781B0297
:102480007A680432127813437B61BA68114B1344A3
:102490001A467B6913607B6803331B781A067B68D6
:1024A00002331B781B041A437B6801331B781B0221
:1024B00013437A68127813437B61BA68064B13445E
:1024C0001A467B69136000BF1C37BD465DF8047B6C
:1024D000704700BF408002404480024080B584B015
:1024E00000AF78600023FB607B681B687A68126825
:1024F000126842F008021A607B681B681B68FB6068
:102500000120FEF7EDFD7B681B68FA681A6000BFCA
:102510001037BD4680BD80B584B000AF7860002321
:10252000FB607B681B687A681268126822F00802F8
:102530001A607B681B681B68FB600120FEF7D0FDFA
:102540007B681B68FA681A6000BF1037BD4680BD03
:1025500080B584B000AF78600023FB607B681B68A7
:102560007A681268126842F004021A607B681B687D
:102570001B68FB600120FEF7B3FD7B681B68FA68EF
:102580001A6000BF1037BD4680BD80B584B000AF73
:1025900078600023FB607B681B687A6812681268A9
:1025A00022F004021A607B681B681B68FB60012034
:1025B000FEF796FD7B681B68FA681A6000BF10374B
:1025C000BD4680BD80B483B000AF78607B68196879
:1025D0007B681A6841F2180313441B6843F40052E5
:1025E00041F218030B441A6000BF0C37BD465DF87A
:1025F000047B704780B483B000AF78607B68196853
:102600007B681A6841F2180313441B6823F40052D4
:1026100041F218030B441A6000BF0C37BD465DF849
:10262000047B704780B483B000AF78607B68196822
:102630007B681A6841F2180313441B6843F00202D6
:1026400041F218030B441A6000BF0C37BD465DF819
:10265000047B704780B483B000AF78607B681968F2
:102660007B681A6841F2180313441B6823F00202C6
:1026700041F218030B441A6000BF0C37BD465DF8E9
:10268000047B704780B584B000AF78600023FB60A6
:102690007B6819687B681A6841F2180313441B6849
:1026A00043F4801241F218030B441A607B681A68E5
:1026B00041F2180313441B68FB600120FEF710FD74
:1026C0007B681968FA6841F218030B441A6000BF6E
:1026D0001037BD4680BD000080B489B000AF78607F
:1026E00039600023FB6100237B6100233B610023F1
:1026F000BB610023FB6175E10122FB6902FA03F370
:102700007B613B681A687B6913403B613A697B696E
:102710009A4240F064813B685B68012B0BD03B68B8
:102720005B68022B07D03B685B68112B03D03B68CA
:102730005B68122B30D17B689B68BB61FB695B00D7
:10274000032202FA03F3DB43BA691340BB613B681F
:10275000DA68FB695B0002FA03F3BA691343BB61F1
:102760007B68BA699A607B685B68BB610122FB6920
:1027700002FA03F3DB43BA691340BB613B685B6851
:102780001B0903F00102FB6902FA03F3BA69134360
:10279000BB617B68BA695A607B68DB68BB61FB69B7
:1027A0005B00032202FA03F3DB43BA691340BB6107
:1027B0003B689A68FB695B0002FA03F3BA6913434A
:1027C000BB617B68BA69DA603B685B68022B03D047
:1027D0003B685B68122B23D1FB69DA087B680832FF
:1027E00053F82230BB61FB6903F007039B000F2203
:1027F00002FA03F3DB43BA691340BB613B681A6911
:10280000FB6903F007039B0002FA03F3BA69134361
:10281000BB61FB69DA087B680832B96943F82210AA
:102820007B681B68BB61FB695B00032202FA03F350
:10283000DB43BA691340BB613B685B6803F003028A
:10284000FB695B0002FA03F3BA691343BB617B685F
:10285000BA691A603B685B6803F08053002B00F094
:10286000BE80654A644B5B6C43F480435364624BA7
:102870005B6C03F48043FB60FB68604AFB699B0868
:10288000023352F82330BB61FB6903F003039B0062
:102890000F2202FA03F3DB43BA691340BB617B6882
:1028A000574A934237D07B68564A934231D07B686F
:1028B000554A93422BD07B68544A934225D07B687B
:1028C000534A93421FD07B68524A934219D07B6887
:1028D000514A934213D07B68504A93420DD07B6893
:1028E0004F4A934207D07B684E4A934201D1092355
:1028F00012E00A2310E008230EE007230CE0062371
:102900000AE0052308E0042306E0032304E0022391
:1029100002E0012300E00023FA6902F003029200C2
:102920009340BA691343BB613449FB699B08023386
:10293000BA6941F823203C4B1B68BB613B69DB4310
:10294000BA691340BB613B685B6803F48033002BBA
:1029500003D0BA693B691343BB61334ABB69136057
:10296000314B5B68BB613B69DB43BA691340BB61B8
:102970003B685B6803F40033002B03D0BA693B6902
:102980001343BB61284ABB695360274B9B68BB61FB
:102990003B69DB43BA691340BB613B685B6803F486
:1029A0008013002B03D0BA693B691343BB611E4AF5
:1029B000BB6993601C4BDB68BB613B69DB43BA6955
:1029C0001340BB613B685B6803F40013002B03D02A
:1029D000BA693B691343BB61134ABB69D360FB69A6
:1029E0000133FB61FB690F2B7FF686AE00BF2437F6
:1029F000BD465DF8047B7047003802400038014056
:102A0000000002400004024000080240000C0240A6
:102A1000001002400014024000180240001C024056
:102A20000020024000240240003C014080B483B0FA
:102A300000AF78600B467B8013467B707B78002B61
:102A400003D07A887B689A6103E07B881A047B68EC
:102A50009A6100BF0C37BD465DF8047B70470000EB
:102A600080B400AF054A054B1B6843F480731360C4
:102A700000BFBD465DF8047B704700BF007000409A
:102A800080B582B000AF00237B60234A224B1B6CD1
:102A900043F080531364204B1B6C03F080533B6066
:102AA0003B681E4A1D4B1B6843F480331360FEF7DE
:102AB0000BFB786009E0FEF707FB02467B68D31A40
:102AC000B3F57A7F01D9032322E0144B5B6803F44A
:102AD0008033B3F5803FEED1104A104B1B6843F4AE
:102AE00000331360FEF7F0FA786009E0FEF7ECFAC5
:102AF00002467B68D31AB3F57A7F01D9032307E036
:102B0000064B5B6803F40033B3F5003FEED10023BE
:102B100018460837BD4680BD0038024000700040AE
:102B200080B586B000AF78600023FB757B68002B12
:102B300001D101239BE27B681B6803F00103002B9A
:102B400000F08780964B9B6803F00C03042B0CD09D
:102B5000934B9B6803F00C03082B12D1904B5B68DE
:102B600003F48003B3F5800F0BD18D4B1B6803F486
:102B70000033002B6CD07B685B68002B68D101238D
:102B800075E27B685B68B3F5803F06D1844A844B6D
:102B90001B6843F4803313602EE07B685B68002B76
:102BA0000CD17F4A7E4B1B6823F4803313607C4A30
:102BB0007B4B1B6823F4802313601DE07B685B68FC
:102BC000B3F5A02F0CD1764A754B1B6843F48023D4
:102BD0001360734A724B1B6843F4803313600BE03D
:102BE0006F4A6F4B1B6823F4803313606C4A6C4B45
:102BF0001B6823F4802313607B685B68002B13D071
:102C0000FEF762FA386108E0FEF75EFA02463B69B9
:102C1000D31A642B01D9032329E2614B1B6803F407
:102C20000033002BF0D014E0FEF74EFA386108E0D4
:102C3000FEF74AFA02463B69D31A642B01D90323F3
:102C400015E2574B1B6803F40033002BF0D100E072
:102C500000BF7B681B6803F00203002B69D0504B58
:102C60009B6803F00C03002B0BD04D4B9B6803F0CB
:102C70000C03082B1CD14A4B5B6803F48003002B28
:102C800016D1474B1B6803F00203002B05D07B686D
:102C9000DB68012B01D00123E9E14149404B1B686E
:102CA00023F0F8027B681B69DB0013430B6040E0F4
:102CB0007B68DB68002B23D0394A394B1B6843F013
:102CC00001031360FEF700FA386108E0FEF7FCF933
:102CD00002463B69D31A022B01D90323C7E1304BCB
:102CE0001B6803F00203002BF0D02D492C4B1B680E
:102CF00023F0F8027B681B69DB0013430B6018E0CC
:102D0000274A274B1B6823F001031360FEF7DCF909
:102D1000386108E0FEF7D8F902463B69D31A022B66
:102D200001D90323A3E11E4B1B6803F00203002B10
:102D3000F0D17B681B6803F00803002B38D07B6858
:102D40005B69002B19D0164A154B5B6F43F00103EA
:102D50005367FEF7B9F9386108E0FEF7B5F90246A6
:102D60003B69D31A022B01D9032380E10C4B5B6F23
:102D700003F00203002BF0D01AE0094A084B5B6F06
:102D800023F001035367FEF79FF938610AE0FEF76D
:102D90009BF902463B69D31A022B03D9032366E150
:102DA00000380240924B5B6F03F00203002BEED120
:102DB0007B681B6803F00403002B00F0A4808C4B9D
:102DC0001B6C03F08053002B0DD1894A884B1B6C80
:102DD00043F080531364864B1B6C03F08053BB603D
:102DE000BB680123FB75834B1B6803F48073002BC6
:102DF00018D1804A7F4B1B6843F480731360FEF741
:102E000063F9386108E0FEF75FF902463B69D31ABF
:102E1000642B01D903232AE1764B1B6803F48073EA
:102E2000002BF0D07B689B68012B06D1704A704B59
:102E30001B6F43F0010313672DE07B689B68002B39
:102E40000CD16B4A6A4B1B6F23F001031367684A6E
:102E5000674B1B6F23F0040313671CE07B689B68C0
:102E6000052B0CD1624A624B1B6F43F004031367BE
:102E70005F4A5F4B1B6F43F0010313670BE05C4A33
:102E80005B4B1B6F23F001031367594A584B1B6FB1
:102E900023F0040313677B689B68002B15D0FEF7B3
:102EA00013F938610AE0FEF70FF902463B69D31ABD
:102EB00041F28832934201D90323D8E04C4B1B6F77
:102EC00003F00203002BEED014E0FEF7FDF83861AA
:102ED0000AE0FEF7F9F802463B69D31A41F288325C
:102EE000934201D90323C2E0414B1B6F03F002035D
:102EF000002BEED1FB7D012B05D13D4A3C4B1B6CD9
:102F000023F0805313647B689B69002B00F0AE8034
:102F1000374B9B6803F00C03082B6DD07B689B69D3
:102F2000022B4BD1324A324B1B6823F08073136063
:102F3000FEF7CAF8386108E0FEF7C6F802463B69BA
:102F4000D31A022B01D9032391E0294B1B6803F00C
:102F50000073002BF0D126497B68DA697B681B6A15
:102F60001A437B685B6A9B011A437B689B6A5B0818
:102F7000013B1B041A437B68DB6A1B061A437B6810
:102F80001B6B1B0713434B60194A194B1B6843F01B
:102F900080731360FEF798F8386108E0FEF794F844
:102FA00002463B69D31A022B01D903235FE0104B81
:102FB0001B6803F00073002BF0D057E00C4A0C4B59
:102FC0001B6823F080731360FEF77EF8386108E019
:102FD000FEF77AF802463B69D31A022B01D9032384
:102FE00045E0034B1B6803F00073002BF0D13DE07C
:102FF00000380240007000401F4B5B68FB607B683C
:103000009B69012B30D0FB6803F480027B68DB698D
:103010009A4229D1FB6803F03F027B681B6A9A42FF
:1030200022D1FA6847F6C07313407A68526A920157
:10303000934219D1FB6803F440327B689B6A5B08BA
:10304000013B1B049A420FD1FB6803F070627B685E
:10305000DB6A1B069A4207D1FB6803F0E0427B68FB
:103060001B6B1B079A4201D0012300E00023184686
:103070001837BD4680BD00BF0038024080B584B01F
:1030800000AF786039600023FB607B68002B01D1C2
:103090000123D0E06A4B1B6803F00F023B689A42A1
:1030A00010D26749664B1B6823F00F023B6813433D
:1030B0000B60634B1B6803F00F023B689A4201D020
:1030C0000123B8E07B681B6803F00203002B20D0CB
:1030D0007B681B6803F00403002B05D0594A594B49
:1030E0009B6843F4E05393607B681B6803F008031C
:1030F000002B05D0534A534B9B6843F460439360C5
:103100005049504B9B6823F0F0027B689B68134347
:103110008B607B681B6803F00103002B40D07B6849
:103120005B68012B07D1474B1B6803F40033002B6E
:1031300015D101237FE07B685B68022B07D1414BEF
:103140001B6803F00073002B09D1012373E03D4B92
:103150001B6803F00203002B01D101236BE0394906
:10316000384B9B6823F003027B685B6813438B60DA
:10317000FDF7AAFFF8600AE0FDF7A6FF0246FB682C
:10318000D31A41F28832934201D9032353E02D4BE5
:103190009B6803F00C027B685B689B009A42EBD152
:1031A000274B1B6803F00F023B689A4210D9244951
:1031B000234B1B6823F00F023B6813430B60204B2B
:1031C0001B6803F00F023B689A4201D0012332E0F2
:1031D0007B681B6803F00403002B08D01949194BC6
:1031E0009B6823F4E0527B68DB6813438B607B6849
:1031F0001B6803F00803002B09D01249114B9B6890
:1032000023F460427B681B69DB0013438B6000F092
:1032100021F801460B4B9B681B0903F00F030A4A78
:10322000D35C21FA03F3094A1360094B1B68184663
:10323000FDF7E4FD002318461037BD4680BD00BFF2
:10324000003C0240003802402C8F010800000020A2
:10325000040000202DE9F04F8FB000AF0023FB6287
:1032600000237B630023BB6200233B63624B9B68AC
:1032700003F00C03042B07D0082B08D0002B40F0E0
:10328000B2805E4B3B63B1E05D4B3B63AEE05A4BBB
:103290005B6803F03F03FB62574B5B6803F48003FA
:1032A000002B4ED0544B5B689B094FF0000440F25A
:1032B000FF114FF0000201EA030102EA04020B468B
:1032C000144660017862786A40EAD36078625B01F4
:1032D0003B62D7E908345B1A64EB02044FEA8419B5
:1032E00049EA93694FEA8318B8EB030869EB0409CC
:1032F0004FEAC903FB61FB6943EA5873FB614FEA7C
:10330000C803BB61D7E9068918EB010849EB02093C
:103310004FEA49237B617B6943EAD8537B614FEADB
:1033200048233B61D7E9048940464946FB6A4FF090
:1033300000041A462346FCF7EBFF03460C467B636A
:1033400043E02D4B5B689B094FF0000440F2FF11F6
:103350004FF0000201EA030102EA04020B461446A0
:103360006001F860F86840EAD360F8605B01BB6018
:10337000D7E902345B1A64EB0204A60146EA9366BD
:103380009D01ED1A66EB0406F3007B607B6843EA5F
:1033900055737B60EB003B6097E860006D1846EB6F
:1033A00002064FEA862B4BEA955B4FEA852A554683
:1033B0005E4628463146FB6A4FF000041A46234613
:1033C000FCF7A6FF03460C467B630B4B5B681B0CAC
:1033D00003F0030301335B00BB627A6BBB6AB2FB91
:1033E000F3F33B6302E0054B3B6300BF3B6B1846C6
:1033F0003C37BD46BDE8F08F003802400024F400A1
:1034000000127A0080B400AF034B1B681846BD461B
:103410005DF8047B704700BF0000002080B500AF5E
:10342000FFF7F0FF0146054B9B689B0A03F007037B
:10343000034AD35C21FA03F3184680BD00380240EA
:103440003C8F010880B500AFFFF7DCFF0146054B5C
:103450009B685B0B03F00703034AD35C21FA03F379
:10346000184680BD003802403C8F010880B483B00C
:1034700000AF786039607B680F221A60124B9B683E
:1034800003F003027B685A600F4B9B6803F0F00265
:103490007B689A600C4B9B6803F4E0527B68DA60AF
:1034A000094B9B68DB0803F4E0527B681A61074B09
:1034B0001B6803F00F023B681A6000BF0C37BD4663
:1034C0005DF8047B704700BF00380240003C0240BA
:1034D00080B588B000AF786000237B6100233B613A
:1034E0000023FB600023FB610023BB617B681B683A
:1034F00003F00103002B12D0694A694B9B6823F447
:10350000000393606649664B9A687B685B6B134364
:103510008B607B685B6B002B01D10123FB617B68B7
:103520001B6803F40023002B17D05D495C4BD3F8D4
:103530008C3023F440127B68DB6B1343C1F88C3072
:103540007B68DB6BB3F5801F01D10123FB617B68D6
:10355000DB6B002B01D10123BB617B681B6803F48B
:103560008013002B17D04E494D4BD3F88C3023F4E9
:1035700040027B681B6C1343C1F88C307B681B6C6A
:10358000B3F5800F01D10123FB617B681B6C002B1D
:1035900001D10123BB617B681B6803F08073002BA2
:1035A00001D00123FB617B681B6803F02003002B23
:1035B00000F08B803A4A3A4B1B6C43F08053136403
:1035C000374B1B6C03F08053BB60BB68354A354BEF
:1035D0001B6843F480731360FDF776FD786108E0A3
:1035E000FDF772FD02467B69D31A642B01D90323D0
:1035F0008DE32C4B1B6803F48073002BF0D0284B19
:103600001B6F03F440733B613B69002B35D07B6833
:103610001B6B03F440723B699A422ED0204B1B6F08
:1036200023F440733B611E4A1D4B1B6F43F48033F0
:1036300013671B4A1A4B1B6F23F480331367184A16
:103640003B691367164B1B6F03F00103012B14D169
:10365000FDF73AFD78610AE0FDF736FD02467B6929
:10366000D31A41F28832934201D903234FE30C4B22
:103670001B6F03F00203002BEED07B681B6B03F47F
:103680004073B3F5407F11D10548054B9B6823F487
:10369000F8127B68196B044B0B40134383600BE0FB
:1036A0000038024000700040FFFCFF0FB24AB24BEE
:1036B0009B6823F4F8139360AF49AF4B1A6F7B6894
:1036C0001B6BC3F30B0313430B677B681B6803F08F
:1036D0001003002B10D0A84AA74BD3F88C3023F04E
:1036E0008073C2F88C30A449A34BD3F88C207B683C
:1036F0009B6B1343C1F88C307B681B6803F48043D9
:10370000002B0AD09C499C4BD3F8903023F44032D4
:103710007B685B6E1343C1F890307B681B6803F4D1
:103720000043002B0AD09449934BD3F8903023F4F4
:1037300040227B689B6E1343C1F890307B681B6806
:1037400003F48033002B0AD08B498B4BD3F8903095
:1037500023F440127B68DB6E1343C1F890307B6822
:103760001B6803F40033002B0AD08349824BD3F843
:10377000903023F440027B681B6F1343C1F89030F4
:103780007B681B6803F04003002B0AD07A497A4B10
:10379000D3F8903023F003027B685B6C1343C1F8CD
:1037A00090307B681B6803F08003002B0AD07249BD
:1037B000714BD3F8903023F00C027B689B6C134361
:1037C000C1F890307B681B6803F48073002B0AD02B
:1037D0006949694BD3F8903023F030027B68DB6C89
:1037E0001343C1F890307B681B6803F40073002B0F
:1037F0000AD06149604BD3F8903023F0C0027B6857
:103800001B6D1343C1F890307B681B6803F4806321
:10381000002B0AD05849584BD3F8903023F440720B
:103820007B685B6D1343C1F890307B681B6803F4C1
:103830000063002B0AD050494F4BD3F8903023F44B
:1038400040627B689B6D1343C1F890307B681B68B6
:1038500003F48053002B0AD04749474BD3F89030EC
:1038600023F440527B68DB6D1343C1F890307B68D2
:103870001B6803F40053002B0AD03F493E4BD3F89A
:10388000903023F440427B681B6E1343C1F89030A4
:103890007B681B6803F48003002B0AD03649364B43
:1038A000D3F8903023F080627B689B6F1343C1F89C
:1038B00090307B681B6803F40013002B11D02E4955
:1038C0002D4BD3F8903023F000627B68DB6F1343FD
:1038D000C1F890307B68DB6FB3F1006F01D1012339
:1038E000BB617B681B6803F00803002B01D0012338
:1038F000BB617B681B6803F48023002B0AD01E4940
:103900001D4BD3F8903023F040727B685B6F1343FC
:10391000C1F890307B681B6803F40003002B0BD0C8
:103920001549154BD3F8903023F080527B68D3F8BB
:1039300080301343C1F890307B681B6803F08063CC
:10394000002B0BD00C490C4BD3F8903023F00052D5
:103950007B68D3F884301343C1F890307B681B68D0
:1039600003F00063002B0ED00349034BD3F88C30D7
:1039700023F000727B6801E000380240D3F8883001
:103980001343C1F88C307B681B6803F08053002B15
:103990000BD08149804BD3F88C3023F080627B6858
:1039A000D3F88C301343C1F88C30FB69012B06D05F
:1039B0007B681B6803F00073002B00F0D680764A0A
:1039C000754B1B6823F080631360FDF77DFB786106
:1039D00008E0FDF779FB02467B69D31A642B01D915
:1039E000032394E16C4B1B6803F00063002BF0D1C0
:1039F0007B681B6803F00103002B21D07B685B6BA5
:103A0000002B1DD1644BD3F884301B0C03F003034F
:103A10003B61614BD3F884301B0E03F00F03FB6056
:103A20005D497B685B689A013B691B041A43FB682C
:103A30001B061A437B689B681B071343C1F884303D
:103A40007B681B6803F40023002B04D07B68DB6BCE
:103A5000B3F5801F0AD07B681B6803F48013002B2A
:103A60002ED07B681B6CB3F5800F29D14A4BD3F85D
:103A700084301B0C03F003033B61474BD3F88430C5
:103A80001B0F03F00703FB6043497B685B689A01E7
:103A90003B691B041A437B68DB681B061A43FB68FF
:103AA0001B071343C1F884303B493B4BD3F88C30A0
:103AB00023F01F027B685B6A013B1343C1F88C3023
:103AC0007B681B6803F08073002B1DD0324BD3F84A
:103AD00084301B0E03F00F033B612F4BD3F884306F
:103AE0001B0F03F00703FB602B497B685B689A019F
:103AF0007B681B691B041A433B691B061A43FB685E
:103B00001B071343C1F884307B681B6803F0007304
:103B1000002B11D020497B685B689A017B681B6988
:103B20001B041A437B68DB681B061A437B689B688F
:103B30001B071343C1F88430174A174B1B6843F027
:103B400080631360FDF7C0FA786108E0FDF7BCFA06
:103B500002467B69D31A642B01D90323D7E00E4BAD
:103B60001B6803F00063002BF0D0BB69012B40F011
:103B7000CD80094A084B1B6823F080531360FDF782
:103B8000A3FA78610AE0FDF79FFA02467B69D31A2F
:103B9000642B03D90323BAE0003802405E4B1B6854
:103BA00003F00053B3F1005FEDD07B681B6803F4B2
:103BB0000023002B03D07B68DB6B002B09D07B68D4
:103BC0001B6803F48013002B2ED07B681B6C002B2A
:103BD0002AD1514BD3F888301B0C03F003033B610F
:103BE0004D4BD3F888301B0F03F00703FB604A49A5
:103BF0007B685B699A013B691B041A437B689B697C
:103C00001B061A43FB681B071343C1F8883042495F
:103C1000414BD3F88C3023F4F8527B689B6A013B0C
:103C20001B021343C1F88C307B681B6803F400133C
:103C3000002B22D07B68DB6FB3F1006F1DD1364BB8
:103C4000D3F888301B0E03F00F033B61324BD3F8DF
:103C500088301B0F03F00703FB602F497B685B690B
:103C60009A017B681B6A1B041A433B691B061A43B3
:103C7000FB681B071343C1F888307B681B6803F09F
:103C80000803002B28D0244BD3F888301B0E03F0F8
:103C90000F033B61204BD3F888301B0C03F0030368
:103CA000FB601D497B685B699A01FB681B041A4332
:103CB0003B691B061A437B68DB691B071343C1F88A
:103CC00088301549144BD3F88C3023F440327B688C
:103CD000DB6A1343C1F88C300F4A0F4B1B6843F06B
:103CE00080531360FDF7F0F9786108E0FDF7ECF917
:103CF00002467B69D31A642B01D9032307E0064BE4
:103D00001B6803F00053B3F1005FEFD100231846A6
:103D10002037BD4680BD00BF0038024080B582B06C
:103D200000AF78607B68002B01D1012349E07B68FC
:103D300093F83D30DBB2002B06D17B68002283F87C
:103D40003C207868FCF7D6FF7B68022283F83D2090
:103D50007B681A687B6804331946104600F0B0FA95
:103D60007B68012283F848207B68012283F83E208B
:103D70007B68012283F83F207B68012283F8402082
:103D80007B68012283F841207B68012283F842206E
:103D90007B68012283F843207B68012283F844205A
:103DA0007B68012283F845207B68012283F8462046
:103DB0007B68012283F847207B68012283F83D203D
:103DC000002318460837BD4680BD000080B485B08A
:103DD00000AF78607B6893F83D30DBB2012B01D0F7
:103DE000012354E07B68022283F83D207B681B6836
:103DF0007A681268D26842F00102DA607B681B6858
:103E0000264A934222D07B681B68B3F1804F1DD0B5
:103E10007B681B68224A934218D07B681B68214A42
:103E2000934213D07B681B681F4A93420ED07B6875
:103E30001B681E4A934209D07B681B681C4A934248
:103E400004D07B681B681B4A934215D17B681B68B2
:103E50009A68194B1340FB60FB68062B15D0FB6872
:103E6000B3F5803F11D07B681B687A6812681268CE
:103E700042F001021A6008E07B681B687A681268E9
:103E8000126842F001021A6000E000BF00231846E9
:103E90001437BD465DF8047B704700BF0000014049
:103EA0000004004000080040000C004000040140F5
:103EB00000400140001800400700010080B582B0BA
:103EC00000AF78607B681B681B6903F00203022B5C
:103ED00022D17B681B68DB6803F00203022B1BD135
:103EE0007B681B686FF002021A617B6801221A77F7
:103EF0007B681B689B6903F00303002B03D0786881
:103F000000F0C0F905E0786800F0B2F9786800F0D8
:103F1000C3F97B6800221A777B681B681B6903F072
:103F20000403042B22D17B681B68DB6803F00403C5
:103F3000042B1BD17B681B686FF004021A617B683D
:103F400002221A777B681B689B6903F44073002B7D
:103F500003D0786800F096F905E0786800F088F9F9
:103F6000786800F099F97B6800221A777B681B68F3
:103F70001B6903F00803082B22D17B681B68DB68F0
:103F800003F00803082B1BD17B681B686FF0080245
:103F90001A617B6804221A777B681B68DB6903F06F
:103FA0000303002B03D0786800F06CF905E0786813
:103FB00000F05EF9786800F06FF97B6800221A77EC
:103FC0007B681B681B6903F01003102B22D17B68F0
:103FD0001B68DB6803F01003102B1BD17B681B6888
:103FE0006FF010021A617B6808221A777B681B68E1
:103FF000DB6903F44073002B03D0786800F042F9CA
:1040000005E0786800F034F9786800F045F97B68DD
:1040100000221A777B681B681B6903F00103012BE0
:104020000ED17B681B68DB6803F00103012B07D10D
:104030007B681B686FF001021A617868FCF71CFE50
:104040007B681B681B6903F08003802B0ED17B68A3
:104050001B68DB6803F08003802B07D17B681B683B
:104060006FF080021A61786800F0FCFA7B681B68C8
:104070001B6903F48073B3F5807F0ED17B681B68E6
:10408000DB6803F08003802B07D17B681B686FF42B
:1040900080721A61786800F0EFFA7B681B681B6910
:1040A00003F04003402B0ED17B681B68DB6803F0F4
:1040B0004003402B07D17B681B686FF040021A61F8
:1040C000786800F0F3F87B681B681B6903F0200335
:1040D000202B0ED17B681B68DB6803F02003202BAC
:1040E00007D17B681B686FF020021A61786800F0C6
:1040F000AFFA00BF0837BD4680BD000080B584B070
:1041000000AF786039607B6893F83C30012B01D1B7
:104110000223A6E07B68012283F83C207B68022210
:1041200083F83D207B681B689B68FB60FA684F4BF7
:104130001340FB60FB6823F47F43FB607B681B68D4
:10414000FA689A603B681B68402B67D0402B0BD8FD
:10415000102B73D0102B02D8002B6FD078E0202BBF
:104160006CD0302B6AD073E0702B0DD0702B04D83C
:10417000502B33D0602B41D06AE0B3F5805F66D01E
:10418000B3F5005F17D063E07B6818683B689968F7
:104190003B685A683B68DB6800F0ACF97B681B68D9
:1041A0009B68FB60FB6843F07703FB607B681B68E0
:1041B000FA689A604CE07B6818683B6899683B68CD
:1041C0005A683B68DB6800F095F97B681B687A6881
:1041D0001268926842F480429A6039E07B681868FD
:1041E0003B6859683B68DB681A4600F009F97B6850
:1041F0001B685021184600F062F929E07B681868B6
:104200003B6859683B68DB681A4600F028F97B6810
:104210001B686021184600F052F919E07B681868A5
:104220003B6859683B68DB681A4600F0E9F87B6830
:104230001B684021184600F042F909E07B681A68C3
:104240003B681B681946104600F039F900E000BFD2
:104250007B68012283F83D207B68002283F83C20A4
:10426000002318461037BD4680BD00BF88FFFEFF03
:1042700080B483B000AF786000BF0C37BD465DF8F6
:10428000047B704780B483B000AF786000BF0C3708
:10429000BD465DF8047B704780B483B000AF7860A2
:1042A00000BF0C37BD465DF8047B704780B483B017
:1042B00000AF786000BF0C37BD465DF8047B7047E7
:1042C00080B485B000AF786039607B681B68FB60A4
:1042D0007B68404A934213D07B68B3F1804F0FD084
:1042E0007B683D4A93420BD07B683C4A934207D09F
:1042F0007B683B4A934203D07B683A4A934208D199
:10430000FB6823F07003FB603B685B68FA6813434B
:10431000FB607B682F4A93422BD07B68B3F1804FC0
:1043200027D07B682C4A934223D07B682B4A934248
:104330001FD07B682A4A93421BD07B68294A93424C
:1043400017D07B68284A934213D07B68274A934250
:104350000FD07B68264A93420BD07B68254A934254
:1043600007D07B68244A934203D07B68234A934258
:1043700008D1FB6823F44073FB603B68DB68FA6894
:104380001343FB60FB6823F080023B685B691343C7
:10439000FB607B68FA681A603B689A687B68DA623F
:1043A0003B681A687B689A627B680A4A934203D02A
:1043B0007B680C4A934203D13B681A697B681A6395
:1043C0007B6801225A6100BF1437BD465DF8047B4B
:1043D000704700BF0000014000040040000800409A
:1043E000000C004000040140004001400044014036
:1043F0000048014000180040001C00400020004020
:1044000080B487B000AFF860B9607A60FB681B6A5F
:104410007B61FB681B6A23F00102FB681A62FB6880
:104420009B693B613B6923F0F0033B617B681B01A7
:104430003A6913433B617B6923F00A037B617A6924
:10444000BB6813437B61FB683A699A61FB687A69D0
:104450001A6200BF1C37BD465DF8047B704780B40C
:1044600087B000AFF860B9607A60FB681B6A23F020
:104470001002FB681A62FB689B697B61FB681B6A20
:104480003B617B6923F470437B617B681B037A6922
:1044900013437B613B6923F0A0033B61BB681B01B5
:1044A0003A6913433B61FB687A699A61FB683A6930
:1044B0001A6200BF1C37BD465DF8047B704780B4AC
:1044C00085B000AF786039607B689B68FB60FB68F3
:1044D00023F07003FB603A68FB68134343F0070363
:1044E000FB607B68FA689A6000BF1437BD465DF8D0
:1044F000047B704780B487B000AFF860B9607A6021
:104500003B60FB689B687B617B6923F47F437B6135
:104510003B681A027B681A43BB6813437A691343EA
:104520007B61FB687A699A6000BF1C37BD465DF805
:10453000047B704780B485B000AF786039607B68D9
:1045400093F83C30012B01D102236DE07B680122FE
:1045500083F83C207B68022283F83D207B681B683F
:104560005B68FB607B681B689B68BB607B681B6843
:10457000304A934204D07B681B682F4A934208D18B
:10458000FB6823F47003FB603B685B68FA681343C5
:10459000FB60FB6823F07003FB603B681B68FA68F4
:1045A0001343FB607B681B68FA685A607B681B6872
:1045B000204A934222D07B681B68B3F1804F1DD004
:1045C0007B681B681D4A934218D07B681B681C4A95
:1045D000934213D07B681B681A4A93420ED07B68C3
:1045E0001B68154A934209D07B681B68164A9342A0
:1045F00004D07B681B68154A93420CD1BB6823F03A
:104600008003BB603B689B68BA681343BB607B68F0
:104610001B68BA689A607B68012283F83D207B683A
:10462000002283F83C20002318461437BD465DF86D
:10463000047B70470000014000040140000400407A
:1046400000080040000C00400040014000180040FD
:1046500080B483B000AF786000BF0C37BD465DF812
:10466000047B704780B483B000AF786000BF0C3724
:10467000BD465DF8047B704780B483B000AF7860BE
:1046800000BF0C37BD465DF8047B704780B582B033
:1046900000AF78607B68002B01D1012340E07B688C
:1046A0009B6F002B06D17B68002283F8742078680A
:1046B000FCF760FB7B6824229A677B681B687A683A
:1046C0001268126822F001021A60786800F0BEF8E1
:1046D0000346012B01D1012322E07B685B6A002B9A
:1046E00002D0786800F012FB7B681B687A68126859
:1046F000526822F490425A607B681B687A6812689C
:10470000926822F02A029A607B681B687A681268B5
:10471000126842F001021A60786800F099FB0346C3
:1047200018460837BD4680BD80B58AB002AFF86034
:10473000B9603B601346FB80FB689B6F202B7FD1E9
:10474000BB68002B02D0FB88002B01D1012378E04D
:10475000FB6893F87430012B01D1022371E0FB68F0
:10476000012283F87420FB680022C3F88020FB68D4
:1047700021229A67FCF7A8FC7861FB68FA88A3F805
:104780005020FB68FA88A3F85220FB689B68B3F5B9
:10479000805F08D1FB681B69002B04D10023FB61FB
:1047A000BB68BB6103E0BB68FB610023BB61FB68C6
:1047B000002283F874202BE03B6800937B69002281
:1047C0008021F86800F08DFB0346002B01D0032305
:1047D00037E0FB69002B0AD1FB681B68BA691288B5
:1047E000C2F308029A62BB690233BB6107E0FB684F
:1047F0001B68FA6912789A62FB690133FB61FB68F6
:10480000B3F852309BB2013B9AB2FB68A3F8522036
:10481000FB68B3F852309BB2002BCDD13B680093BC
:104820007B6900224021F86800F05BFB0346002B07
:1048300001D0032305E0FB6820229A67002300E0F3
:10484000022318462037BD4680BD000080B588B0E1
:1048500000AF78600023BB777B689A687B681B6930
:104860001A437B685B691A437B68DB6913437B618E
:104870007B681A687B681B681968B34B0B407969C1
:104880000B4313607B681B687A681268526822F4D5
:1048900040517A68D2680A435A607B689B697B61A1
:1048A0007B681B6A7A6913437B617B681B687A6843
:1048B0001268926822F430617A690A439A607B68D0
:1048C0001B68A24A934221D1A14BD3F8903003F048
:1048D0000303032B16D801A252F823F0ED48000879
:1048E000F9480008F3480008FF4800080123FB7757
:1048F00050E10223FB774DE10423FB774AE10823D3
:10490000FB7747E11023FB7700BF43E17B681B681F
:10491000904A934234D18E4BD3F8903003F00C037D
:104920000C2B29D801A252F823F000BF61490008DE
:104930007949000879490008794900086D4900085B
:104940007949000879490008794900086749000851
:104950007949000879490008794900087349000835
:104960000023FB7716E10223FB7713E10423FB7797
:1049700010E10823FB770DE11023FB7700BF09E16D
:104980007B681B68744A934220D1714BD3F89030F6
:1049900003F03003102B0FD0102B02D8002B05D0C2
:1049A00010E0202B05D0302B09D00BE00023FB7743
:1049B000F0E00223FB77EDE00423FB77EAE0082335
:1049C000FB77E7E01023FB7700BFE3E07B681B6821
:1049D000624A934220D15E4BD3F8903003F0C0037B
:1049E000402B0FD0402B02D8002B05D010E0802B9D
:1049F00005D0C02B09D00BE00023FB77CAE00223CF
:104A0000FB77C7E00423FB77C4E00823FB77C1E012
:104A10001023FB7700BFBDE07B681B68504A9342C0
:104A200024D14B4BD3F8903003F44073B3F5807F1F
:104A300012D0B3F5807F02D8002B07D012E0B3F577
:104A4000007F06D0B3F5407F09D00BE00023FB7751
:104A5000A0E00223FB779DE00423FB779AE0082384
:104A6000FB7797E01023FB7700BF93E07B681B6820
:104A70003C4A934224D1364BD3F8903003F4406340
:104A8000B3F5806F12D0B3F5806F02D8002B07D03A
:104A900012E0B3F5006F06D0B3F5406F09D00BE01C
:104AA0000123FB7776E00223FB7773E00423FB7797
:104AB00070E00823FB776DE01023FB7700BF69E00F
:104AC0007B681B68284A934224D1214BD3F890304D
:104AD00003F44053B3F5805F12D0B3F5805F02D882
:104AE000002B07D012E0B3F5005F06D0B3F5405FAE
:104AF00009D00BE00023FB774CE00223FB7749E071
:104B00000423FB7746E00823FB7743E01023FB7781
:104B100000BF3FE07B681B68144A934238D10C4BBE
:104B2000D3F8903003F44043B3F5804F26D0B3F56B
:104B3000804F02D8002B1BD026E0B3F5004F1AD0CF
:104B4000B3F5404F1DD01FE0F369FFEF00100140A7
:104B5000003802400044004000480040004C004043
:104B6000005000400014014000780040007C0040EC
:104B70000023FB770EE00223FB770BE00423FB7797
:104B800008E00823FB7705E01023FB7700BF01E076
:104B90001023FB777B68DB69B3F5004F5CD1FB7FAB
:104BA000082B28D801A252F823F000BFD14B0008EF
:104BB000D94B0008E14B0008F74B0008E74B000811
:104BC000F74B0008F74B0008F74B0008EF4B0008C5
:104BD000FEF724FCB86113E0FEF734FCB8610FE087
:104BE000494BBB610CE0FEF735FBB86108E04FF4C0
:104BF0000043BB6104E00023BB610123BB7700BF1E
:104C0000BB69002B74D0BB695A007B685B685B088A
:104C10001A447B685B68B2FBF3F39BB23B613B6970
:104C20000F2B16D93B69B3F5803F12D23B699BB27B
:104C300023F00F03FB813B695B089BB203F0070382
:104C40009AB2FB891343FB817B681B68FA89DA609F
:104C50004EE00123BB774BE0FB7F082B27D801A256
:104C600052F823F0894C0008914C0008994C000838
:104C7000AF4C00089F4C0008AF4C0008AF4C000838
:104C8000AF4C0008A74C0008FEF7C8FBB86113E062
:104C9000FEF7D8FBB8610FE01B4BBB610CE0FEF7E1
:104CA000D9FAB86108E04FF40043BB6104E0002387
:104CB000BB610123BB7700BFBB69002B18D07B68A9
:104CC0005B685A08BB691A447B685B68B2FBF3F304
:104CD0009BB23B613B690F2B08D93B69B3F5803F21
:104CE00004D27B681B683A69DA6001E00123BB7774
:104CF0007B6800225A667B6800229A66BB7F184652
:104D00002037BD4680BD00BF0024F40080B483B0CE
:104D100000AF78607B685B6A03F00103002B0AD068
:104D20007B681B687A681268526822F400317A68DE
:104D3000926A0A435A607B685B6A03F00203002BA5
:104D40000AD07B681B687A681268526822F4803146
:104D50007A68D26A0A435A607B685B6A03F004038C
:104D6000002B0AD07B681B687A681268526822F4AC
:104D700080217A68126B0A435A607B685B6A03F091
:104D80000803002B0AD07B681B687A681268526897
:104D900022F400417A68526B0A435A607B685B6A6E
:104DA00003F01003002B0AD07B681B687A68126836
:104DB000926822F480517A68926B0A439A607B6809
:104DC0005B6A03F02003002B0AD07B681B687A68BB
:104DD0001268926822F400517A68D26B0A439A6092
:104DE0007B685B6A03F04003002B1AD07B681B686A
:104DF0007A681268526822F480117A68126C0A4349
:104E00005A607B681B6CB3F5801F0AD17B681B68F6
:104E10007A681268526822F4C0017A68526C0A43B8
:104E20005A607B685B6A03F08003002B0AD07B68C2
:104E30001B687A681268526822F400217A68926CC2
:104E40000A435A6000BF0C37BD465DF8047B7047CB
:104E500080B586B002AF78607B680022C3F88020FE
:104E6000FCF732F9F8607B681B681B6803F00803E5
:104E7000082B0ED16FF07E430093FB6800224FF4A5
:104E80000011786800F02DF80346002B01D00323B1
:104E900023E07B681B681B6803F00403042B0ED11E
:104EA0006FF07E430093FB6800224FF48001786826
:104EB00000F017F80346002B01D003230DE07B68B8
:104EC00020229A677B682022DA677B6800221A66B4
:104ED0007B68002283F87420002318461037BD46F3
:104EE00080BD80B584B000AFF860B9603B60134608
:104EF000FB715EE0BB69B3F1FF3F5AD0FCF7E4F809
:104F000002463B68D21ABB699A4202D8BB69002BA1
:104F10001BD1FB681B68FA681268126822F4D07211
:104F20001A60FB681B68FA681268926822F0010236
:104F30009A60FB6820229A67FB682022DA67FB6888
:104F4000002283F87420032343E0FB681B681B687E
:104F500003F00403002B2CD0FB681B68DB6903F40F
:104F60000063B3F5006F24D1FB681B684FF4006247
:104F70001A62FB681B68FA681268126822F4D07221
:104F80001A60FB681B68FA681268926822F00102D6
:104F90009A60FB6820229A67FB682022DA67FB6828
:104FA0002022C3F88020FB68002283F874200323AA
:104FB0000FE0FB681B68DA69BB681A40BB689A425D
:104FC0000CBF01230023DBB21A46FB799A4291D031
:104FD000002318461037BD4680BD0000B0B58EB026
:104FE00004AF534B00221A70514B00225A70504BA1
:104FF00000229A704E4B0022DA704E4B00221A703B
:105000004C4B00225A704B4B00229A70494B0022A5
:10501000DA70494B00221A70474B00225A70464BF7
:1050200000229A70444B0022DA700021002003F025
:105030003DFD424B424A1A60424B00221A60424BED
:105040004FF6FF721A60414B414A1A603F490020F7
:1050500004F0FCFB394B1B68D9B2384B1B681B0AA8
:10506000DAB2364B1B681B0CD8B2344B1B681B0ED4
:1050700000930346374810F0CBF8344B1B68D9B285
:10508000324B1B681B0ADAB2304B1B681B0CD8B2C0
:105090002E4B1B681B0E009303462F4810F0B8F8E8
:1050A0002E4B02932E4B019300230093254B264A4F
:1050B00022492C4807F098FD2A4807F047FF294B62
:1050C00093F82D3003F00403002B03D0254807F09C
:1050D0004DFF02E0234807F0B5FF2349214808F0BF
:1050E00047F800233B6200237B6207F12003012184
:1050F000184600F09BFD02461C4B1A601C4B194AD7
:105100001A601A4B1B681A4A53601A4B3C1D1D4605
:105110000FCD0FC495E8070084E807003B1D144934
:10512000184600F086FC00BF2837BD46B0BD00BF62
:105130006474002060740020247400205C740020DB
:10514000A9FED7CD707400206C7400206874002014
:105150003EF06EC60461010818610108E989000883
:10516000CD57000828740020AD580008F402002034
:105170001C7400203C61010880B58EB000AF7860DF
:1051800007F1240300221A605A609A60DA601A61FB
:105190007B681B68524A934240F09E80514A514BB3
:1051A0001B6B43F0007313634E4B1B6B03F00073D8
:1051B0003B623B6A4B4A4B4B1B6B43F08063136370
:1051C000484B1B6B03F08063FB61FB69454A454B11
:1051D0001B6B43F000631363424B1B6B03F00063D4
:1051E000BB61BB693F4A3F4B1B6B43F00403136336
:1051F0003C4B1B6B03F004037B617B69394A394BE1
:105200001B6B43F001031363364B1B6B03F001036D
:105210003B613B69334A334B1B6B43F0020313631F
:10522000304B1B6B03F00203FB60FB682D4A2D4BD8
:105230001B6B43F0400313632A4B1B6B03F04003CB
:10524000BB60BB6832237B620223BB620023FB622C
:1052500003233B630B237B6307F124031946224896
:10526000FDF73AFA86237B620223BB620023FB62CE
:1052700003233B630B237B6307F1240319461B487D
:10528000FDF72AFA4FF400537B620223BB6200232E
:10529000FB6203233B630B237B6307F12403194663
:1052A0001348FDF719FA4FF420537B620223BB62C7
:1052B0000023FB6203233B630B237B6307F124037F
:1052C00019460C48FDF708FA002205213D20FBF79E
:1052D000DFFF3D20FBF7F8FF00BF3837BD4680BD3C
:1052E00000800240003802400008024000000240F6
:1052F000000402400018024080B582B000AF786020
:10530000044B1B68184600F013FD00BF0837BD466C
:1053100080BD00BFF8020020B0B590B000AF78604B
:105320000023BB63604B614A1A605F4B01225A60E5
:105330005D4B4FF480429A605B4B4FF40062DA6041
:10534000594B00221A82002387F83030802387F8D7
:105350003130E12387F83230002387F833300023DF
:1053600087F83430002387F835304F4A07F130038F
:1053700053614D4B01229A614B4B0022DA614A4B3B
:105380004FF400021A624848FCF724F8034687F8F5
:105390003F3097F83F30002B08D17B6893F82D30D1
:1053A00043F00403DAB27B6883F82D200423404ADB
:1053B00040493D48FCF7AAF904233F4A3F493A488F
:1053C000FCF70DFA7B68062283F82C20364B5B69CC
:1053D0001A787B6883F82620334B5B695A787B68A0
:1053E00083F82720304B5B699A787B6883F8282004
:1053F0002D4B5B69DA787B6883F829202A4B5B693F
:105400001A797B6883F82A20274B5B695A797B6875
:1054100083F82B207B6840F2DC529A847B6893F8F7
:105420002D3043F00A03DAB27B6883F82D20002385
:10543000BB620023FB6207F128030121184600F03C
:10544000F5FB02461E4B1A601E4B07F10C041D466D
:105450000FCD0FC495E8070084E8070007F10C039F
:105460007968184600F0E5FA0F48FCF7E0FC07F110
:1054700038031A461D210C48FCF70BFCBB6B43F0AC
:105480000B03BB63BB6B1A461D210748FCF769FC85
:1054900007F138031A461D210348FCF7FAFB00BF49
:1054A0004037BD46B0BD00BF74740020008002408C
:1054B000D0D8072080C0072000C1072000C00720E7
:1054C000F80200206061010880B58AB000AF786002
:1054D00039604B4BDB6A9B68FB6100237B610023D7
:1054E0003B610023FB600023BB60454BDB6ABB6173
:1054F00000233B613B683B625AE0BB691B68002BA1
:1055000003DAF82387F827305CE03B6A5B89FB60AD
:105510000023BB602FE0FA693B69D0183B6A5A68E8
:10552000BB68D1183A6940F2F4539B1A1A460FF03F
:105530005CFEBB69DB68BB61BB691B68002B03DADF
:10554000F82387F827303DE0BB699B68FB613A6927
:10555000FB681344A3F2F453FB60BA683B69D31AA7
:1055600003F2F453BB607A693B69D31A03F2F45334
:105570007B6100233B61FA683B69134440F2F452BB
:105580009342C8D8FA693B69D0183B6A5A68BB682D
:105590001344FA6819460FF028FE3A69FB68134471
:1055A0003B617A69FB6813447B613B6A1B683B6221
:1055B0003B6A002BA1D179691148FCF77DF90023E2
:1055C00087F827300E4B1A6841F2140313441B6806
:1055D00003F02003002B0DD0094B1A6841F214038D
:1055E000134420221A60064B1A6841F20403134444
:1055F00000221A6097F9273018462837BD4680BD2B
:105600007474002080B58CB000AF78600023FB621A
:105610000023BB620023FB810023FB610023BB61ED
:1056200000237B6100233B614F48FCF72FFA0346C0
:10563000002B01D0002392E04B4BDB6BFB814A4BEC
:105640001B6C7B62FB89002B07D0FB894FF4C17276
:105650001946002007F056FEF862FB6A002B4BD07B
:10566000414B1B6B3B620023FB61FB6ABB6240E06A
:10567000BB6A5B897B610023BB6121E0BB6A5A681E
:10568000BB69D0187A6AFB69D118FA6940F2F45301
:105690009B1A1A460FF0A9FD3B6ADB683B623B6A26
:1056A0009B687B62FA697B691344A3F2F4537B61C4
:1056B000BA69FB69D31A03F2F453BB610023FB619F
:1056C0007A69FB69134440F2F4529342D6D8BB6A1C
:1056D0005A68BB69D0187A6AFB6913447A6919461B
:1056E0000FF083FDFA697B691344FB61BB6A1B6899
:1056F000BB62BB6A002BBBD11B4B1B6B3B62002305
:105700003B610BE03B6A1B6843F000423B6A1A6056
:105710003B6ADB683B623B6901333B61124B9A6B2E
:105720003B699A42EED8104B00229A630E4B1A68DE
:1057300041F2140313441B6803F08003002B0DD0C7
:10574000094B1A6841F21403134480221A60064B75
:105750001A6841F20803134400221A60FB6A1846D3
:105760003037BD4680BD00BF7474002080B584B062
:1057700000AF78607B68FB60124B1B684FF0FF3115
:10578000184600F087FA0346002BF5D10E480FF0BB
:105790006FFCF868FFF736FFB860BB68002B0AD0D3
:1057A000FB681B69F968B86898470346002B02D06C
:1057B000B86808F089F804480FF069FCBB68002B52
:1057C000E4D1D9E7F8020020BC74002080B582B093
:1057D00000AF78607B68002B06D10E4B40F22A2286
:1057E0000D490E480FF014FD7B68732283F82E20BC
:1057F0007B68742283F82F207B68094A5A617B6892
:10580000084A9A617868FFF787FD00231846083731
:10581000BD4680BD7C61010898610108A86101084E
:10582000E5A60008C954000880B500AFFBF74CFCA2
:105830000346184680BD000080B584B000AF786094
:105840000023BB607B68FB6007F108031A46012157
:105850001548FCF71EFABB6803F00403BB60FB6845
:105860001B6893F82D3003F00403002B08D1BB68AC
:10587000002B05D0FB681B68184607F015FC0FE0ED
:10588000FB681B6893F82D3003F00403002B07D04E
:10589000BB68002B04D1FB681B68184607F038FC76
:1058A000C82000F012F9CFE77474002080B584B0EE
:1058B00000AF78600023FB600023BB607B6893F837
:1058C0002D3003F00403002B5BD0334B5B68002BBF
:1058D00040D04FF4805200212F48FCF742FAFBF7EA
:1058E000F3FB0346FB6007F108031A4601212A482F
:1058F000FCF7CFF9FBF7E8FB0246FB68D31AB3F5D8
:105900007A7F26D8BB6803F02003002BEBD007F189
:1059100008031A461F212048FCF7BBF9BB6803F0B7
:105920001003002B04D01C4B4FF40062DA6002E03D
:10593000194B0022DA60BB6803F00403002B03D08C
:10594000154B00229A6014E0134B4FF480429A608A
:105950000FE000BF104BDB68DB089AB20E4B9B6870
:105960005B089BB213439BB21A4600210A48FCF71E
:10597000F8F900210848FCF7B9FA0748FCF757FA8C
:1059800002E00548FCF782FA786800F007F800BFEB
:105990001037BD4680BD00BF7474002080B483B052
:1059A00000AF786000BF0C37BD465DF8047B7047E0
:1059B00080B485B000AF0346FB800023FB60B7F9DD
:1059C0000630842B05D0B7F90620FB681344033357
:1059D000FB60FB6818461437BD465DF8047B7047D2
:1059E00080B483B000AFEFF305837B607B68002B4E
:1059F00014BF01230023DBB218460C37BD465DF807
:105A0000047B704780B500AF02F096F8002318467B
:105A100080BD80B500AFFFF7E3FF0346002B03D046
:105A200002F0A8F9034602E002F094F90346184692
:105A300080BDF0B589B004AF786039607B685B6980
:105A4000002B20D07B689B69002B1CD07B685C6896
:105A50007B681D687B681E697B68B3F9083018464F
:105A6000FFF7A6FF01467B685B697A68926902923C
:105A7000019300913B6832462946204601F08FFE93
:105A80000346FB601CE07B685C687B681D687B6884
:105A90001B699EB27B68B3F908301846FFF788FF90
:105AA000024607F10C03019300923B6832462946F7
:105AB000204601F0D4FE0346012B01D0002300E074
:105AC000FB6818461437BD46F0BD80B584B000AF02
:105AD00078607B68FB60FB68002B01D0FB6800E00E
