:020000040800F2
:100000000080012019280008412700084327000824
:10001000452700084727000849270008000000007E
:100020000000000000000000000000004B27000856
:100030004D270008000000004F2700085127000846
:10004000692800086928000869280008692800084C
:10005000692800086928000869280008692800083C
:10006000692800086928000869280008692800082C
:10007000692800086928000869280008692800081C
:1000800055270008692800086928000800000000BA
:1000900000000000000000000000000069280008C7
:1000A00069280008692800086928000869280008EC
:1000B000612700086D2700086928000869280008E2
:1000C00069280008692800086928000869280008CC
:1000D0006928000869280008692800080000000055
:1000E0006928000869280008692800080000000045
:1000F0000000000000000000000000006928000867
:100100000000000069280008692800086928000824
:1001100000000000000000000000000000000000DF
:10012000692800086928000869280008692800086B
:100130006928000800000000000000000000000026
:100140000000000000000000000000006928000816
:10015000692800086928000869280008692800083B
:10016000692800086928000800000000000000005D
:10017000000000000000000000000000000000007F
:1001800000000000692800080000000000000000D6
:0401900069280008D2
:1001A00010B5054C237833B9044B13B10448AFF3B1
:1001B00000800123237010BDDC010020000000003E
:1001C000D83C000808B5034B1BB103490348AFF303
:1001D000008008BD00000000E0010020D83C0008BD
:1001E00010F8012B11F8013B012A28BF9A42F7D0E1
:1001F000D01A7047034613F8012B002AFBD1181AB6
:1002000001387047000000000000000000000000FE
:1002100001F0FF01102A2BDB10F0070F08D010F8B7
:10022000013B013A8B422DD010F0070F42B3F6D1BB
:10023000F0B441EA012141EA014122F007047FF0D4
:1002400000070023F0E80256083C85EA010586EA2B
:10025000010685FA47F5A3FA87F586FA47F6A5FA67
:1002600087F68EB9EED1F0BC01F0FF0102F0070273
:1002700032B110F8013B013A83EA010313B1F8D11E
:100280000020704701387047002D06BF35460338FF
:10029000073815F0010F07D1013015F4807F02BF38
:1002A000013015F4C03F0130F0BC0138704700BF89
:1002B00053B94AB9002908BF00281CBF4FF0FF31CD
:1002C0004FF0FF3000F07AB9ADF1080C6DE904CEC3
:1002D00000F006F8DDF804E0DDE9022304B0704721
:1002E0002DE9F0478C460D460446089E002B51D15F
:1002F0008A4217466DD9B2FA82FEBEF1000F0BD0CA
:10030000CEF1200C01FA0EF520FA0CFC02FA0EF7E1
:100310004CEA050C00FA0EF44FEA174A250CBCFB18
:10032000FAF81FFA87F90AFB18CC45EA0C4508FBD6
:1003300009F3AB420AD9ED1908F1FF3280F02381AD
:10034000AB4240F22081A8F102083D44ED1AA4B26C
:10035000B5FBFAF00AFB105544EA054400FB09F925
:10036000A14509D9E41900F1FF3380F00A81A145C4
:1003700040F2078102383C44A4EB090440EA0840FB
:100380000021002E61D024FA0EF400233460736043
:10039000BDE8F0878B4207D9002E54D0002186E8B3
:1003A00021000846BDE8F087B3FA83F1002940F048
:1003B0008E80AB4202D3824200F2FA80841A65EB4F
:1003C00003050120AC46002E3FD086E81010BDE8A2
:1003D000F08712B90127B7FBF2F7B7FA87FEBEF133
:1003E000000F34D1EB1B3A0C1FFA87FC0121B3FB41
:1003F000F2F8250C02FB183345EA03450CFB08F321
:10040000AB4207D9ED1908F1FF3002D2AB4200F23E
:10041000D1808046ED1AA3B2B5FBF2F002FB105575
:1004200043EA05440CFB00FCA44507D9E41900F19C
:10043000FF3302D2A44500F2B8801846A4EB0C04A6
:1004400040EA08409DE731463046BDE8F087CEF1EE
:10045000200405FA0EF307FA0EF720FA04F83A0C16
:1004600025FA04F448EA0308B4FBF2F14FEA184510
:1004700002FB11441FFA87FC45EA044501FB0CF31B
:10048000AB4200FA0EF409D9ED1901F1FF3080F00A
:100490008A80AB4240F2878002393D44EB1A1FFA52
:1004A00088F5B3FBF2F002FB103345EA034500FB8D
:1004B0000CF3AB4207D9ED1900F1FF386FD2AB4214
:1004C0006DD902383D44EB1A40EA01418FE7C1F192
:1004D000200722FA07F88B4005FA01F448EA0303E3
:1004E00020FA07FE4FEA134CFD404EEA040EB5FB1E
:1004F000FCF94FEA1E440CFB19551FFA83F844EA35
:10050000054509FB08F4AC4202FA01F200FA01FACF
:1005100008D9ED1809F1FF3043D2AC4241D9A9F115
:1005200002091D442D1B1FFA8EFEB5FBFCF00CFBCF
:1005300010554EEA054400FB08F8A04507D9E41819
:1005400000F1FF3529D2A04527D902381C4440EAE2
:100550000940A4EB0804A0FB02894C45C6464D4661
:1005600015D312D056B1BAEB0E0364EB050404FAAE
:1005700007F7CB401F43CC40376074600021BDE8D3
:10058000F0871846F8E69046E0E6C245EAD2B8EBB6
:10059000020E69EB03050138E4E72846D7E7404639
:1005A00091E78146BEE7014678E702383C4445E7DB
:1005B000084608E7A8F102083D442BE7704700BF52
:1005C00038B50E4A0E4B054618784FF47A73B3FBD4
:1005D000F0F31068B0FBF3F000F0B2F8044658B93D
:1005E0000F2D09D8024629464FF0FF3000F066F87B
:1005F000044B20461D6038BD012038BD0800002096
:10060000000000200400002008B50B4B1A6842F4DB
:1006100000721A601A6842F480621A601A6842F422
:1006200080721A60032000F037F80020FFF7C8FF3F
:1006300001F00CFF002008BD003C0240034A044BBF
:1006400011681B780B441360704700BF080200203C
:1006500000000020014B1868704700BF080200200E
:1006600038B50446FFF7F6FF631C1CBF054B1B782B
:10067000054618BFE418FFF7EDFF401B8442FAD887
:1006800038BD00BF00000020024B1868C0F30B000B
:10069000704700BF002004E0074AD36823F4E063FA
:1006A0001B041B0C43F0BF63000243F4003300F44F
:1006B000E0600343D360704700ED00E0174B30B5B6
:1006C000DC68C4F30224C4F10703251D042B28BFF2
:1006D0000423062D4FF0010505FA03F303F1FF3360
:1006E0008CBF033C00241940A14005FA04F4013CEE
:1006F0002240002842EA01024FEA0212ADBF00F197
:10070000604000F00F00064B00F56140B5BFD2B26B
:10071000D2B21A5480F8002330BD00BF00ED00E0D3
:1007200014ED00E0002808DB4209012300F01F005F
:1007300003FA00F0014B43F82200704700E100E0AB
:100740000138B0F1807F0AD2064B074A5860F02189
:1007500082F823100020072298601A607047012059
:10076000704700BF10E000E000ED00E00368DAB27F
:1007700023F47F7323F003031821103AB2FBF1F244
:100780000449032A88BF0433895C8365C165806D91
:10079000704700BFF03C000870B50446FFF75AFFF1
:1007A0000546002C71D0002384F8343022680223DF
:1007B00084F83530136823F00103136021680B6857
:1007C000D8073CD40B68324D6268A0691D40A3680D
:1007D0001343E26813432269134362691343E269D6
:1007E00003431343226A1343626A042A43EA05035C
:1007F00001BF266BE56A35432B430B604B69042A26
:1008000023F0070343EA02030BD1A26AE56A13430C
:100810003DB1F8B9012A2DD001D3022A01D1EA0154
:100820002BD44B612046FFF7A1FFE26D3F2393409D
:10083000836000200123606584F8353070BDFFF7C8
:1008400009FF401B0528B9D920236365032084F8DC
:10085000350070BDB0F5005F13D1032AE1D801A0C7
:1008600050F822F07B0800081F0800087B080008E9
:1008700075080008B5F1C07FD3D14023636501201E
:10088000E5E7022AF9D9032AC8E7012070BD00BFB5
:100890003F8010F070B590F83440012C32D0012424
:1008A00080F8344090F83540866D012C4FF00005FB
:1008B0004FF0020424D180F835400468456525686E
:1008C00025F48025256063608368402B0EBFA260FD
:1008D000A160E260C26D08BFE1603F239340B36056
:1008E000236843F016032360036C1BB1236843F0B5
:1008F00008032360236843F001032360002070BDD8
:1009000080F83450022070BDF7B5002301935A4B94
:10091000856D1F68C36D2E6808229A4016420446F2
:100920000CD001680868400708D5086820F004006A
:100930000860AA60626D42F00102626501229A407D
:10094000164208D021684969090641BFAA60626D54
:1009500042F00202626504229A40164208D02168E1
:100960000968880741BFAA60626D42F004026265AF
:1009700010229A40164210D02368196809070CD536
:10098000AA601A68500335D51B68190301D4236C7B
:1009900000E0A36C0BB120469847E16D20228A400D
:1009A000164238D023681868C60634D5AA6094F871
:1009B0003520052A1A6825D122F016021A605A69D4
:1009C00022F080025A61226C0AB9A26C1AB11A682C
:1009D00022F008021A603F238B40AB60002384F8AA
:1009E0003430012384F83530236D0BB1204698470D
:1009F00003B0F0BD1A68D2055EBF1A6822F0080283
:100A00001A60C4E7500328D51B68190332D4636CFD
:100A10000BB120469847636D002BE9D0636DDA0770
:100A200019D50523226884F83530136823F00103B3
:100A300013604FF41653B7FBF3F7019B01339F424A
:100A4000019302D31368DB07F7D4002384F8343012
:100A5000012384F83530E36CC7E71A6812F480721A
:100A600008D1196821F010011960012384F834209D
:100A700084F83530E36BCBE7080000202DE9F04F18
:100A800085B00B68DFF88C81604A01934FF0010953
:100A90000023019D09FA03F42540AC4240F0A680F2
:100AA0004C6824F0100C0CF1FF36012E4FEA430E77
:100AB00012D88768032606FA0EF627EA0607CE68DC
:100AC00006FA0EF63E4386604768C4F3001627EA2E
:100AD00005079E403E4346600326C76806FA0EF6A9
:100AE000F64307EA060A8F6807FA0EF747EA0A078D
:100AF000BCF1020FC76016D14FEAD30A00EB8A0A95
:100B000003F0070BDAF820704FEA8B0B4FF00F0C55
:100B10000CFA0BFC27EA0C0C0F6907FA0BF747EAF3
:100B20000C07CAF8207007683E4004F0030707FA74
:100B30000EFE4EEA06060660E60057D54FF0000BA3
:100B4000CDF80CB0D8F84470314E47F48047C8F85F
:100B50004470D8F8447007F480470397039F23F04C
:100B6000030707F1804707F59C3703F0030CD7F81C
:100B700008A04FEA8C0C4FF00F0E0EFA0CFEB0429C
:100B80002AEA0E0E39D006F58066B04237D006F557
:100B90008066B04235D006F58066B04233D006F5A7
:100BA0008066B04214BF0726042606FA0CF646EA11
:100BB0000E06BE601668EF4314F4803F0CBF3E4043
:100BC0002E431660566814F4003F0CBF3E402E437F
:100BD0005660966814F4801F0CBF3E402E4396600A
:100BE000D668A40254BF3E402E43D6600133102B7A
:100BF0007FF44FAF05B0BDE8F08F5E46D5E7012624
:100C0000D3E70226D1E70326CFE700BF003C01402F
:100C100000000240003802400AB1816170470904B7
:100C2000FBE7436931EA030308BF090481617047A8
:100C300070B5044608B9012070BD90F83D3003F04E
:100C4000FF021BB980F83C2001F020FC242384F82B
:100C50003D3023681A6822F001021A601A6842F4D3
:100C600000421A601A6822F400421A6000F0FCFA8E
:100C70006568414B9D424DD8404B9842DBD9226874
:100C80003F495368B0FBF1F123F03F030B4353603E
:100C9000136A23F03F03013119431162D169364BC6
:100CA00021F44F419D4221F0FF0100F1FF3048D86F
:100CB0006D00B0FBF5F00130C0F30B03042B38BF1F
:100CC00004230B43D3611168206AE36921F0C0015A
:100CD00003430B4313609168E068236921F40341E7
:100CE000034321F0FF010B439360D168A06963695E
:100CF00021F0FF0103430B43D360136843F001036A
:100D0000136000202023206484F83D30206384F8A1
:100D10003E0070BD1B4B98428DD92268184E536817
:100D2000B0FBF6F623F03F0333435360136A4FF4EE
:100D30009671714323F03F034FF47A76B1FBF6F1DD
:100D4000A9E7A36853B905EB4503B0FBF3F0431CD7
:100D5000C3F30B036BB143F40043B2E719236B43B6
:100D6000B0FBF3F0431CC3F30B0313B143F4404354
:100D7000A7E70123A5E700BFA08601007F841E002E
:100D800040420F00FF083D002DE9F341044608B939
:100D900001203FE00368DD0710D4236898075AD488
:100DA00023681A0700F19C8023685B0700F1BA8072
:100DB000A069002840F01B8100202BE0A44B9A681A
:100DC00002F00C02042A07D09A6802F00C02082AEA
:100DD0000AD15B68590207D59D4B1B689A03DCD585
:100DE0006368002BD9D1D3E76368994DB3F5803F91
:100DF00013D12B6843F480332B60FFF72BFC944D09
:100E000006462B689B03C8D4FFF724FC801B64288C
:100E1000F7D9032002B0BDE8F081B3F5A02F04D1CB
:100E20002B6843F480232B60E3E72A6822F48032A6
:100E30002A602A6822F480222A60002BDDD1FFF785
:100E400009FC06462B689F03A7D5FFF703FC801B10
:100E50006428F7D9DDE77E4B9A6812F00C0F07D0B3
:100E60009A6802F00C02082A11D15B685E020ED467
:100E7000774B1A68950702D5E268012A88D11A686B
:100E8000216922F0F80242EAC1021A6088E7E268AA
:100E9000704BB2B101221A60FFF7DCFB6C4D0646C5
:100EA0002B68980707D52B68226923F0F80343EADB
:100EB000C2032B6074E7FFF7CDFB801B0228EFD93C
:100EC000A7E71A60FFF7C6FB614D06462B68990736
:100ED0007FF566AFFFF7BEFB801B0228F6D998E7C7
:100EE00062695D4B7AB101221A60FFF7B3FB584D7E
:100EF00006466B6F9F073FF557AFFFF7ABFB801BB5
:100F00000228F6D985E71A60FFF7A4FB504D064684
:100F10006B6F98077FF548AFFFF79CFB801B02289B
:100F2000F6D976E74A4B1A6C12F0805228D101921A
:100F30001A6C42F080521A641B6C03F080530193C8
:100F4000019B0126454D2B68D9051BD5A368404D53
:100F5000012B27D12B6F43F001032B67FFF77AFB9F
:100F60003B4D074641F288382B6F9B0739D5002E41
:100F70003FF41EAF364A136C23F08053136417E717
:100F80000026DFE72B6843F480732B60FFF762FBDA
:100F900007462B68DA05D9D4FFF75CFBC01B022893
:100FA000F7D936E7052B04D12B6F43F004032B67E9
:100FB000D0E72A6F22F001022A672A6F22F004028A
:100FC0002A67002BCAD1FFF745FB41F28838074654
:100FD0002B6F9807CBD5FFF73DFBC01B4045F7D9DA
:100FE00017E7FFF737FBC01B4045BDD911E7184D88
:100FF000AB6803F00C03082B47D0194E00230228DE
:10100000336035D1FFF726FB07462B68990129D4B9
:10101000226AE3691343626A43EA8213E26A43EA9B
:101020000263A26A0A4C5208013A43EA02436B6027
:1010300001233360FFF70EFB054623689A013FF555
:10104000BBAEFFF707FB401B0228F6D9E1E600BF65
:101050000038024000004742800E474200700040C6
:1010600060004742FFF7F6FAC01B0228CDD9D0E650
:10107000FFF7F0FA04462B689B017FF59DAEFFF762
:10108000E9FA001B0228F6D9C3E601283FF4C2AEF4
:101090006868E36900F480029A427FF479AE226ABC
:1010A00000F03F0393427FF473AE626A47F6C07369
:1010B000034093427FF46CAEA26A00F44033934243
:1010C0007FF466AEE36A00F07060C01A18BF0120BA
:1010D000A0E600BF134908B58B6803F00C03042B8E
:1010E00003D0082B03D0104808BD104808BD4A683B
:1010F0004B68496813F4800314BF0C480A48C1F3D5
:10110000881118BF002302F03F02A1FB0001FFF786
:10111000CFF8044B5B68C3F3014301335B00B0FBC2
:10112000F3F008BD003802400024F40000127A00F9
:101130002DE9F0410D46044610B90120BDE8F081CB
:10114000444B1A6802F00F028A4229D321688F07A4
:101150002ED4C80741D43F4B1A6802F00F029542C3
:1011600067D3226851076DD4130707D53A4A21691E
:10117000936823F4604343EAC1039360FFF7AAFF37
:10118000354B364A9B68C3F30313D35CD840344BCA
:101190001860344B1868FFF713FA0020BDE8F0819F
:1011A000CAB21A701B6803F00F039942C5D1CDE78C
:1011B000294B11F0040F1EBF9A6842F4E0529A6066
:1011C0000E0742BF9A6842F460429A609A68A0682B
:1011D00022F0F00202439A60BBE762681E4B012ACC
:1011E0001DD11B6813F4003FA7D01B4EB36823F03A
:1011F00003031343B360FFF72DFA41F28838074623
:10120000B368626803F00C03B3EB820FA3D0FFF75F
:1012100021FAC01B4045F3D90320BDE8F081911E9F
:1012200001291B6802D813F0007FDDE713F0020FDD
:10123000DAE7EAB21A701B6803F00F039D427FF4ED
:101240007CAF8EE70449E0688B6823F4E0530343E6
:101250008B6089E7003C024000380240F73D0008FF
:101260000800002004000020044B054A9B68C3F3DB
:101270008223D35C034A1068D8407047003802408C
:10128000073E000808000020044B054A9B68C3F392
:101290004233D35C034A1068D8407047003802409C
:1012A000073E000808000020F8B504460E46154623
:1012B0001F4621688A6836EA020301D00020F8BD83
:1012C0006B1CF7D0FFF7C6F9C01B8542F1D8236825
:1012D0005A6822F0E0025A606268B2F5827F0AD151
:1012E000A268B2F5004F02D0B2F5806F03D11A6840
:1012F00022F040021A60A26AB2F5005F07D11A68B4
:1013000022F400521A601A6842F400521A60012353
:1013100084F85130002384F850300320F8BD0000D9
:1013200073B51346134A144E15684268B5FBF6F6BA
:101330004FF47A757543B2F5827F044601950DD15D
:101340000A468021FFF7B0FF10B9002002B070BD3F
:10135000636D43F0200363650320F7E7019B002BD7
:10136000F3D0019B013B019323689B681B06F5D4D6
:10137000EBE700BF0800002000366E0110B5044600
:10138000002836D00023836290F8513003F0FF022A
:101390001BB980F8502001F0FFF82168A068A2690D
:1013A000022384F851300B6823F040030B6063681C
:1013B0000343E06803432069034360690343E06932
:1013C0000343206A0343A06A034302F4007003430B
:1013D0000B60120C636A02F004021A434A60CB6984
:1013E00023F40063CB6100200123606584F8513051
:1013F00010BD012010BD2DE9F3411E4690F850307C
:10140000012B04460D46904600F09B80012380F896
:101410005030FFF71FF9074694F85100C0B2012879
:1014200040F08D80002D5DD0B8F1000F5AD003231D
:1014300084F851300020A3686065A063A4F836806A
:10144000A087E0876064206420682563B3F5004FBF
:1014500008BF0368A4F8348004BF43F480430360EA
:1014600003685B065EBF036843F040030360E36804
:10147000B3F5006F63683ED113B1B8F1010F07D126
:1014800035F8023BC3602563E38E013B9BB2E386E4
:10149000E38E9BB2A3B93A4631462046FFF740FFA0
:1014A000002849D1A36833B901932368DA6801920F
:1014B0009B680193019B606D003018BF012011E013
:1014C00022689368980705D5236B33F8021BD16017
:1014D0002363D9E7FFF7BEF8C01BB042D8D3711C15
:1014E000D6D00320012384F85130002384F85030F3
:1014F00002B0BDE8F08113B1B8F1010F08D12B782B
:101500000373236B01332363E38E013B9BB2E386BA
:10151000E38E9BB2002BBED023689A68920703D556
:10152000226B12781A73ECE7FFF794F8C01B86421F
:10153000EED8731CECD0D4E720236365B2E7022019
:10154000D0E70220D4E77047704770477047704774
:1015500003681A69910710B504460ED5DA68920738
:101560000BD56FF002021A619B6901229B0702777B
:1015700077D0FFF7EAFF0023237723681A69500723
:1015800010D5DA6851070DD56FF004021A619B6916
:10159000022213F4407F2277204668D0FFF7D5FF60
:1015A0000023237723681A6912070FD5DA6810071A
:1015B0000CD56FF008021A61DB69042299072277C3
:1015C00020465AD0FFF7C1FF0023237723681A690A
:1015D000D20610D5DA68D0060DD56FF010021A6168
:1015E000DB69082213F4407F227720464BD0FFF7B7
:1015F000ACFF0023237723681A69D10708D5DA687E
:10160000D20705D56FF001021A612046FFF79BFF54
:1016100023681A69100608D5DA68110605D56FF037
:1016200080021A61204600F076F923681A69520692
:1016300008D5DA68500605D56FF040021A612046D9
:10164000FFF785FF23681A69910622D5DA689206AA
:101650001FD56FF0200220461A61BDE8104000F04F
:1016600059B9FFF771FF2046FFF770FF83E7FFF7D7
:101670006BFF2046FFF76AFF92E7FFF765FF204602
:10168000FFF764FFA0E7FFF75FFF2046FFF75EFF6D
:10169000AFE710BD244A036890420ED0B0F1804FEE
:1016A0000BD0A2F57C42904207D002F580629042B6
:1016B00003D002F58062904215D14A6823F070038E
:1016C0001343194A904219D0B0F1804F16D0A2F5B9
:1016D0007C42904212D002F5806290420ED002F518
:1016E000806290420AD0114A904207D002F580628F
:1016F000904203D002F58062904203D1CA6823F47D
:10170000407313434A6923F08003134303608B68DB
:10171000C3620B688362044B984204BF0B69036386
:1017200001234361704700BF0000014000400140B9
:1017300010B50446A0B190F83D3003F0FF021BB98C
:1017400080F83C2000F076FF022384F83D302068CA
:10175000211DFFF79FFF012384F83D30002010BDBD
:10176000012010BD10B584680A4324F47F4442EA86
:1017700003232343836010BD90F83C30012B70B5E8
:1017800004464FF0020019D084F83D002068012380
:1017900084F83C30836823F47F4323F0770383602D
:1017A0000B68402B65D015D8102B0CD007D853B13F
:1017B0000123002084F83D3084F83C0070BD202BCC
:1017C00001D0302BF4D1826843F0070322F070027D
:1017D00013431AE0602B34D019D8502BE8D14A6853
:1017E000CE68016A056A25F001050562836921F06A
:1017F0000A0123F0F00343EA06130A4383610262FD
:10180000836823F0700343F057038360D0E7702BA5
:101810000CD0B3F5005FCBD1CB684A688968FFF77D
:10182000A1FF2268936843F4804308E0CB684A68CC
:101830008968FFF797FF2268936843F07703936006
:10184000B6E74D68CE68016A21F010010162826935
:10185000036A22F4704223F0A00343EA051342EA2C
:10186000063282610362836823F0700343F06703EA
:10187000CBE74A68CE68016A056A25F00105056272
:10188000836921F00A0123F0F00343EA06130A43B7
:1018900083610262836823F0700343F04703B4E777
:1018A00090F83C30012B30B54FF002032DD080F87A
:1018B0003D3003680D685C6824F0700401222C43FD
:1018C00080F83C209A685C60114CA34212D0B3F1BE
:1018D000804F0FD0A4F57C44A3420BD004F5806464
:1018E000A34207D004F58064A34203D004F59A34E0
:1018F000A34204D1496822F080020A439A6001237E
:1019000080F83D30002380F83C30184630BD00BFE1
:1019100000000140704770470368DA6822F4907253
:10192000DA605A6922F001025A61202380F83A30C5
:101930007047000038B50368C1681A69044622F48C
:1019400040520A431A612569A268D968C0692A43CE
:10195000656921F416412A4321F00C0102430A4330
:10196000DA605A69A16922F440720A43B0F5004F67
:101970005A61254A29D1934203D002F580629342ED
:1019800020D1FFF781FC6268256892184FF00003B0
:101990004FF019015B41A0FB0101FEF789FC6421B6
:1019A000B0FBF1F401FB1403DB003233B3FBF1F3C2
:1019B00003F007025B0002EB041203F4F873134414
:1019C000AB6038BDFFF750FCDDE7934202D00F4A11
:1019D000934216D1FFF758FC6368256819219A00D5
:1019E000A0FB01019B0FFEF763FC6422B0FBF2F148
:1019F00002FB11031B013233B3FBF2F303EB0113C0
:101A0000DEE7FFF731FCE7E700100140001401407A
:101A1000F8B504460E4617461D4621680B6836EA9F
:101A2000030301D10020F8BD6B1CF7D095B92368E2
:101A3000DA6822F4D072DA605A6922F001025A613F
:101A4000202384F8393084F83A30002384F8383081
:101A50000320F8BDFEF7FEFDC01B8542DDD2E6E7A0
:101A600010B5044640B390F8393003F0FF021BB9BB
:101A700080F8382000F014FE2268242384F83930DE
:101A8000D36823F40053D3602046FFF753FF236845
:101A90001A6922F490421A615A6922F02A025A61A4
:101AA000DA6842F40052DA6000202023E06384F810
:101AB000393084F83A3010BD012010BD2DE9F843CB
:101AC0001F4690F83930202B04460D46904651D1E0
:101AD00000294CD0002A4AD090F83830012B49D048
:101AE000012380F838304FF000092123C0F83C90E2
:101AF00080F83930FEF7AEFDA4F824800646A4F83D
:101B0000268084F83890E38C9BB25BB93B46324622
:101B100040212046FFF77CFFA0B9202384F839300C
:101B2000BDE8F883E38C013B9BB2E384A368B3F583
:101B3000805F32463B464FF0800120460ED1FFF7D2
:101B400067FF10B10320BDE8F8832B882268C3F338
:101B500008035360236943B90235D4E7FFF758FF00
:101B60000028EFD123682A785A600135CBE701209D
:101B7000BDE8F8830220BDE8F8832DE9F8431F464D
:101B800090F83A30202B04460D46904654D1002957
:101B90004FD0002A4DD090F83830012B4CD0012383
:101BA00080F838304FF000092223C0F83C9080F8CC
:101BB0003A30FEF74FFDA4F82C800646A4F82E809C
:101BC00084F83890E08D80B220B9202384F83A3030
:101BD000BDE8F883E38D013B9BB2E385A368B3F5D1
:101BE000805F32463B464FF02001204612D1FFF77E
:101BF0000FFF10B10320BDE8F883236822695B68FA
:101C000022B9C3F3080325F8023BDBE7DBB225F872
:101C1000013BD7E7FFF7FCFE0028EBD123682169E1
:101C20005B686A1C11B92B701546CBE703F07F0384
:101C3000F9E70120BDE8F8830220BDE8F883000041
:101C4000134690F83A20202A73B5054638D100296A
:101C500034D0002B32D090F83820012A30D0012225
:101C6000002480F838202222C4638162838580F8B2
:101C70003A20406B134AC2632E68134A0264134A27
:101C8000C26404650A46311DFEF704FE2B68019408
:101C90001A6801925A680192019ADA6885F8384008
:101CA00042F48072DA605A6942F001025A615A695C
:101CB00042F040025A61204602B070BD0120FBE7AD
:101CC0000220F9E7D11C00080B1D0008171D0008B1
:101CD00008B50368826B1B6813F4807310D1D38539
:101CE0001368D96821F48071D960596921F0010124
:101CF0005961596921F040015961202382F83A3035
:101D0000104600F01BFA08BD704708B5806BFFF75E
:101D1000FBFF08BD7047816B08B50B685A6991F8E5
:101D2000390021280AD1120608D50022CA84DA68AF
:101D300022F0C002DA60202281F839205B6991F834
:101D40003A20222A06D15B0604D50023CB8508461B
:101D5000FFF7E2FDCB6B43F01003CB630846FFF7C0
:101D6000D9FF08BD1FB500F04BFB084A1068516849
:101D7000127A01AB03C301A91A7005484FF0FF3373
:101D80000822FFF79BFE05B05DF804FBF83C000855
:101D90000C04002037B502AC074D44F8040D47F29F
:101DA0003053012221462846FFF788FE0028F6D14D
:101DB000019803B030BD00BF0C04002037B502AC61
:101DC000002304F8013D074D47F23053012221461C
:101DD0002846FFF7D2FE0028F6D19DF8070003B091
:101DE00030BD00BF0C04002030B595B0302200217A
:101DF00008A800F069FD0021142203A800F064FD8A
:101E000000251D4B01951A6C42F080521A641B6C20
:101E10001A4A03F080530193019B0295136823F43F
:101E2000404343F400431360136803F440430293B8
:101E3000029B012308934FF4803309934FF48003EE
:101E40000F930423109350230224119308A807230F
:101E500013930E941294FEF797FF0F2303932146DA
:101E60004FF4805303A80494059506930795FFF754
:101E70005FF915B030BD00BF00380240007000406F
:101E800080B5A0B00024974D974FFEF7BDFBFFF73C
:101E9000ABFF1422002107A800F016FD01942B6B64
:101EA000924843F004032B632B6B03F0040301936C
:101EB000019B02942B6B43F080032B632B6B03F08D
:101EC00080030293029B03942B6B43F001032B636B
:101ED0002B6B03F001030393039B04942B6B43F0E0
:101EE00002032B632B6B03F002032246049340F2A0
:101EF0000311049BFEF790FE224620217C48FEF74A
:101F00008BFE224601217B48FEF786FE4FF40053EC
:101F1000079307A9784B7548089301260994FEF7A3
:101F2000ADFD40F2031307A9704807930896099482
:101F30000A94FEF7A3FD202307A96D48079308968E
:101F400009940A94FEF79AFD07A96A48079608962D
:101F500009940A94FEF792FD00942B6B43F400134E
:101F60002B632B6B654D03F400132146224600932F
:101F70001020009BFEF7A2FB1020FEF7D3FB604869
:101F8000604A84604FF4827380E80C004FF4007361
:101F900083610A23C46004614461C46104624462D1
:101FA0008462C362FFF7EAF95749AC604FF4E1334A
:101FB00085E80A0028460C23EC602C616B61AC615B
:101FC000EC61FFF74DFD5148514B84604FF4804662
:101FD00080E88800C460066144618461C461046271
:101FE000FEF726FE4B484C4B06614C4E846080E861
:101FF0008800C46044618461C4610462FEF718FE15
:102000001022214607A800F05FFC4FF053094FF063
:1020100080434FF6FF78304686E80802B4603461AA
:10202000B46105940694C6F80C804FF48057FFF70E
:102030007FFB07A930460797FFF79EFB05A93046AF
:102040000594374E0694FFF72BFC1022214607A873
:1020500000F03AFC334BB460304686E80802346145
:10206000B46105940694C6F80C80FFF761FB07A9DC
:1020700030460797FFF780FB05A930460594069484
:10208000FFF70EFCFFF76EFE274A2849284C294E21
:1020900007A800F09DFC07A8FEF7ACF8642382B205
:1020A00007A92846FFF70AFD642302222249284691
:1020B000FFF704FD28461B221E490D4DFFF7C0FD0A
:1020C000238853B120212846FEF7ABFD194800F0C4
:1020D000C5F800232380FF2333700120FEF7C0FAE8
:1020E000EEE700BF00380240A08601000008024071
:1020F0000000024000040240000021100C040020F7
:10210000DC0200200038004000440040380300207A
:102110000054004088020020005C0040CC030020F6
:102120008C0300200004004089060008013D0008DF
:10213000F80100200C0200200D3D0008034B04496B
:10214000044801221A801C22FFF77ABDF801002002
:102150000C0200200C0400207047000013B500237F
:1021600004460330ADF8063000F07FFB80B2ADF8D6
:10217000060010492046FEF733F8B0B9BDF8063026
:1021800040F271129BB2934211D106340A492046A3
:10219000FEF726F838B109492046FEF721F8002855
:1021A00014BF0220012002B010BD0220FBE7032073
:1021B000F9E700BF103D0008133D0008163D000878
:1021C00010B50446FFF7CAFF03282FD8DFE800F058
:1021D00033022E2B093418492046FEF701F828B99E
:1021E00021461648BDE8104000F076BB1449204651
:1021F000FDF7F6FF0028F3D012492046FDF7F0FF67
:102200000028EDD010492046FDF7EAFF0028E7D06E
:102210000E492046FDF7E4FF0028E1D00C49204696
:10222000FDF7DEFFDCE70B4800F0CAFB0A48BDE81B
:10223000104000F0C5BB10BD193D0008213D00084D
:102240002F3D0008363D0008413D00084B3D000889
:10225000563D0008753D00087D3D000830B5002260
:10226000AFB0044613462EA911440132FA2A01F8F0
:10227000B03CF8D100228DF832308DF833308DF833
:1022800034308DF82C308DF82D308DF82E301346EB
:102290000BA911440132802A4B72F9D12421204626
:1022A0008DF82F308DF830308DF83130019300F0FB
:1022B000B3FB24210546204600F0BCFB401B0190E7
:1022C0000023019A013A934227DB9DF808308DF8EC
:1022D0002C309DF809308DF82D309DF80A308DF89E
:1022E0002F309DF80B308DF830309DF80C308DF884
:1022F00031309DF80D308DF832309DF80E308DF86C
:102300003330002402A8FDF775FFA0420FD80BA8B8
:10231000FFF756FF00202FB030BD03B901342EAABD
:102320001A44217802F8B01C01330134C9E7062CA5
:1023300006DD2EAB234413F8B02C0BAB23449A706C
:102340000134DFE7002202210148FEF765BC00BF2F
:102350000008024013B502AC002204F8010D01216F
:102360000548FEF759FC4FF0FF3301222146034890
:10237000FFF741F802B010BD00040240DC0200206B
:1023800070B5012204460D4606481146FEF744FC8E
:10239000AAB221464FF0FF330348BDE87040FFF773
:1023A0002AB800BF00040240DC020020F8B505781E
:1023B000461C05B9F8BD344614F8020BFFF7CAFFF6
:1023C000767816F07F0704D020463946FFF7D8FF0D
:1023D0003C44330608D52078FF2808BF4FF4FA7034
:1023E000FEF73EF9661C3446013DEDB22646E0E7B5
:1023F000012202210148FEF70FBC00BF0008024085
:1024000010B50E4CFFF79EFF002201212046FEF77B
:1024100003FC0520FEF724F9012211462046FEF7B1
:10242000FBFB0748FFF7C2FF0648FFF7BFFF064860
:10243000FFF7BCFFBDE81040FFF7DABF000802401D
:10244000843D0008BF3D0008CC3D000807B50E4B99
:10245000002100915A6C42F480425A645A6C02F492
:1024600080420092009A01911A6C42F080521A64E4
:102470001B6C03F0805301930720019BFEF70CF9BE
:1024800003B05DF804FB00BF003802402DE9F043C3
:1024900014228BB0044600210DEB020000F014FA68
:1024A0002368374A934226D1364C37480025009599
:1024B000236B43F002032363236B03F002030093B7
:1024C000009BC02305931223069301230793032344
:1024D000089305A904230993FEF7D0FA0195236C0C
:1024E00043F400132364236C03F400130193019B52
:1024F0000BB0BDE8F083254A9342F9D1214C244822
:1025000000250295236B43F004032363236B03F040
:1025100004030293029B0395236B43F0010323639F
:10252000236B03F001030393039B4FF012094FF455
:1025300000734FF001080327042605A90593CDF881
:102540001890CDF81C8008970996FEF797FA4FF47B
:10255000807305A90F480593CDF81890CDF81C801D
:1025600008970996FEF78AFA0495236C43F4000352
:102570002364236C03F400030493049BB8E700BFB7
:10258000005400400038024000040240005C00405B
:102590000008024000000240F0B5044689B0142251
:1025A000002103A800F090F922681F4B9A4238D10D
:1025B00003F50033002400941A6C1C4842F4804256
:1025C0001A641A6C02F480420092009A01941A6B09
:1025D00042F004021A631A6B02F004020192019A9B
:1025E00002941A6B42F002021A631B6B03F002039F
:1025F0000293029B0C230DEB030102270326052502
:102600000393049706960795FEF738FA4FF4806314
:1026100003A9074803930497059406960795FEF7C8
:102620002DFA09B0F0BD00BF00380040000802409C
:10263000000402400368B3F1804F07B516D10022B1
:1026400003F50E330092196C41F0010119641B6C03
:1026500003F0010300931C201146009BFEF72EF8A7
:102660001C20FEF75FF803B05DF804FB0A4A9342B2
:10267000F9D10022094B0192196C41F00201196451
:102680001B6C03F0020301931D201146019BFEF712
:1026900015F81D20E5E700BF0004004000380240A7
:1026A00070B5064688B01422002103A800F00CF98A
:1026B00032681F4B9A4238D1002503F5FA33019551
:1026C0001A6C1C481C4C42F400321A641A6C02F456
:1026D00000320192019A02951A6B42F001021A63CC
:1026E0001B6B03F001030293029B0C230393022351
:1026F000049303A907230793FEF7C0F90F4AA560C7
:102700004FF0006384E80C0020464FF48063E560DE
:1027100023616561A561E56125626562FEF73CF8AC
:1027200008B1FFF719FD7463A66308B070BD00BF60
:10273000004400400000024028020020886002405F
:102740007047FEE7FEE7FEE7FEE770477047704719
:10275000FDF774BF0148FEF7D7B800BF280200207C
:102760000148FEF7F5BE00BFCC0300200148FEF78C
:10277000EFBE00BF8C03002070B50E4615460C4618
:10278000A31B9D4201DC284670BDFFF717FB04F830
:10279000010BF5E770B50E4615460C46A31B9D428E
:1027A00001DC284670BD14F8010BFFF7F3FAF5E7DA
:1027B00008B50A4B1968024609B909491960186831
:1027C000694602448A4206D900F054F80C2303609B
:1027D0004FF0FF3008BD1A6008BD00BFFC010020AB
:1027E000500400204FF0FF3070474FF400534B600F
:1027F000002070470120704700207047054BD3F838
:10280000882042F47002C3F888204FF000629A607A
:10281000704700BF00ED00E0DFF834D0002103E096
:102820000C4B5B58435004310B480C4B42189A42F6
:10283000F6D30B4A02E0002342F8043B094B9A42CC
:10284000F9D3FFF7DBFF00F01BF8FFF719FB704728
:1028500000800120C43F000800000020DC010020AF
:10286000DC01002050040020FEE70A22002100F0D5
:1028700075B90000014B1868704700BF0C000020BC
:1028800070B50D4E0D4CA41BA4100025A54209D116
:102890000B4E0C4C01F020FAA41BA4100025A542FD
:1028A00005D170BD56F8253098470135EEE756F84A
:1028B000253098470135F2E7BC3F0008BC3F0008CF
:1028C000BC3F0008C03F000802440346934200D1C9
:1028D000704703F8011BF9E70FB40A4B13B51C68E6
:1028E00024B1A36913B9204600F000FB05AB049A9C
:1028F000A1680193204600F023FE02B0BDE810401D
:1029000004B070470C00002070B50E46054618B1A3
:1029100083690BB900F0EAFAAB69AC6813B92846D1
:1029200000F0E4FA234B9C4217D16C68A3891B0783
:102930001DD52369DBB1013EA36816F8011F013BD9
:10294000A360E9B9002B2EDA22460A21284600F0BE
:102950001BF9013011D00A2070BD174B9C4201D1E8
:10296000AC68E3E7154B9C4208BFEC68DEE7214604
:10297000284600F05BF90028DDD04FF0FF3070BD35
:10298000002B04DAA269934206DB0A2904D02368EB
:102990005A1C22601970CFE72246284600F0F4F84E
:1029A0000130C9D1E9E723680A205A1C2260187057
:1029B00070BD00BF343E0008543E0008143E0008BD
:1029C000024B01461868FFF79FBF00BF0C000020B4
:1029D0000EB400B59CB04FF402711DABADF81410ED
:1029E000029006906FF000410A48049107914FF65B
:1029F000FF7153F8042BADF816100068019302A97B
:102A000000F080FC029B00221A701CB05DF804EB01
:102A100003B070470C000020C9B2034610F8012B28
:102A20001AB19142F9D11846704700290CBF1846D7
:102A30000020704738B503460D4651B100242946A1
:102A40001846FFF7E9FF08B9204638BD431C044685
:102A5000F5E7BDE83840FFF7DFBF2DE9F84F8046C6
:102A6000894692461F468B465D460A9815F8014BEB
:102A700000F0C6FA2044467816F008060BD12D2C3B
:102A80000BD12C7801260BF1020567B1102F14D160
:102A9000302C0AD011E0AB46E6E72B2C04BF2C7893
:102AA0000BF10205F1E7302C27D12B7803F0DF037F
:102AB000582B4BD16C7810270235002E0CBF6FF0CD
:102AC00000414FF000410022B1FBF7FE104607FB2A
:102AD0001E1CA4F13003092B11D81C46A7421DDD92
:102AE000531C07D0864516D301D1A44513DB00FB48
:102AF0000740012215F8014BEBE70A27DDE7A4F1B7
:102B00004103192B01D8373CE8E7A4F16103192BE5
:102B100004D8573CE2E74FF0FF32EBE7531C08D1F3
:102B20002223C8F800300846BAF1000F07D1BDE8EB
:102B3000F88F06B14042BAF1000F0CD022B1013D2E
:102B4000CAF80050BDE8F88F4D46F9E73024002F51
:102B5000B3D10827B1E7BDE8F88F0000084B37B5BF
:102B60001C68084D236A002B08BF2B4600931346B0
:102B70000A4601462046FFF770FF03B030BD00BF94
:102B80000C00002070000020F8B50E4614460546E3
:102B900018B183690BB900F0A9F9214B9C422AD1E5
:102BA0006C68A369A360A3891A072ED5236963B350
:102BB00023692068C01A6369F6B29842374604DB7D
:102BC0002146284600F028F928BBA368013BA360F2
:102BD00023685A1C22601E7063690130984204D039
:102BE000A389DB0719D50A2E17D12146284600F004
:102BF00013F990B10FE00B4B9C4201D1AC68D0E7C8
:102C0000094B9C4208BFEC68CBE72146284600F000
:102C10000DF80028CCD04FF0FF373846F8BD00BF84
:102C2000343E0008543E0008143E0008324B70B594
:102C30001D6806460C4625B1AB6913B9284600F05D
:102C400055F92E4B9C420FD16C68B4F90C309AB2F6
:102C500015072CD4D00611D40922326043F040036A
:102C6000A3814FF0FF3070BD254B9C4201D1AC6871
:102C7000EBE7244B9C4208BFEC68E6E7510712D50E
:102C8000616B41B104F14403994202D0304600F037
:102C900031FA00236363A38923F02403A381002373
:102CA000636023692360A38943F00803A381236938
:102CB0004BB9A38903F42073B3F5007F03D02146F9
:102CC000304600F0C5F9A28912F001030CD00023B0
:102CD000A36063695B42A361236953B9B4F90C3003
:102CE00013F08000BAD170BD920758BF6369A3602A
:102CF000F2E70020F7E700BF0C000020343E000898
:102D0000543E0008143E00088A892DE9F04105462A
:102D100010070C465AD44B68002B05DC0B6C002BBB
:102D200002DC0020BDE8F081E66A002EF9D0002325
:102D300012F480522F682B6033D0606DA3895A073C
:102D400005D56368C01A636B0BB1236CC01A0023EE
:102D50000246E66A216A2846B047431CA38906D189
:102D600029681D294BD82B4ACA40D60747D50022CF
:102D70006260D9042269226004D5421C01D12B680B
:102D800003B96065616B2F600029CAD004F1440368
:102D9000994202D0284600F0ADF900206063BDE8FA
:102DA000F081216A01232846B047411CC6D12B6817
:102DB000002BC3D01D2B01D0162B01D12F60B0E703
:102DC000A38943F04003A381BDE8F0810F69002F80
:102DD000A7D093070E6808BF4B690F6018BF002388
:102DE000A6EB07088B60B8F1000F9ADD43463A4620
:102DF000216AA66A2846B047002807DCA38943F069
:102E00004003A3814FF0FF30BDE8F0810744A8EBF9
:102E10000008E8E70100402038B50B6905460C467C
:102E2000DBB118B183690BB900F060F80C4B9C4220
:102E300009D16C68B4F90C307BB121462846BDE855
:102E40003840FFF761BF074B9C4201D1AC68F1E706
:102E5000054B9C4208BFEC68ECE7002038BD00BF82
:102E6000343E0008543E0008143E0008014900F0BA
:102E7000A9B800BF192E0008002310B5044603604E
:102E80004360836081814366C281036143618361E2
:102E9000194608225C30FFF717FD054B6362054BAE
:102EA000A362054BE362054B2462236310BD00BFA0
:102EB000B93A0008DB3A0008133B0008373B00082A
:102EC00070B54A1E682555430E4605F1740100F0A1
:102ED0005FF9044640B1002180E842000C30A06058
:102EE00005F16802FFF7F0FC204670BD836910B55C
:102EF000044633BB8364C3640365124B124A1B68E8
:102F00008262984204BF0123836100F01FF8606071
:102F1000204600F01BF8A060204600F017F80022C1
:102F2000E06004216068FFF7A7FF01220921A06883
:102F3000FFF7A2FF02221221E068FFF79DFF0123A5
:102F4000A36110BD103E00086D2E0008F8B51C4BA3
:102F50001E68B369074613B93046FFF7C7FF483606
:102F6000B4687368013B03D5336833B13668F7E75B
:102F7000B4F90C506DB16834F4E704213846FFF71A
:102F80009FFF30600028F1D10C233B6004462046AF
:102F9000F8BD4FF6FF73E3810123A38165662560C9
:102FA000A560656025616561A5610822294604F177
:102FB0005C00FFF789FC6563A563A564E564E6E74B
:102FC000103E00082DE9F8438046894600F1480488
:102FD000002614B93046BDE8F883A5686768013F4C
:102FE00001D52468F5E7AB89012B07D9B5F90E3077
:102FF000013303D029464046C84706436835EEE70B
:10300000D0F8EC00704770B50E46B1F90E100029EB
:1030100090B014461D4607DA00232B60B3891A06C8
:1030200010D44FF480630EE001AA00F0B7FD002831
:10303000F2DB029A02F47042A2F500535A425A415E
:103040002A60EEE740230020236010B070BD00002E
:103050008B8973B59D0706460C4607D504F14703D7
:10306000236023610123636102B070BD01AB6A4636
:10307000FFF7C9FF00990546304600F089F848B9C6
:10308000B4F90C309A05EFD423F0030343F00203A4
:10309000A381E3E70D4BB362A389206043F0800373
:1030A000A381009B6361019B20615BB1B4F90E10A9
:1030B000304600F085FD28B1A38923F0030343F0D7
:1030C0000103A381A3891D43A581CDE76D2E0008CF
:1030D00082B001B901A942B14BB113780B601278EB
:1030E000101C18BF012002B070471046FBE76FF0BC
:1030F0000100F8E738B50546002945D051F8043CF1
:103100000C1F002BB8BFE41800F0A1FD1F4A136884
:10311000104633B9636014602846BDE8384000F0BB
:1031200097BDA3420CD921686218934204BF1A6864
:103130005B68636004BF521822600460ECE71346CA
:103140005A680AB1A242FAD919685818A0420BD19C
:1031500020680144581882421960DDD11068526815
:103160005A6001441960D7E702D90C232B60D3E7DA
:10317000206821188A4204BF11685268626004BF47
:10318000091821605C60C7E738BD00BF000200205D
:1031900070B5CD1C25F0030508350C2D38BF0C2566
:1031A000002D064601DBA94203D90C233360002021
:1031B00070BD00F04CFD234A1468214691B9224CA1
:1031C00023681BB9304600F067FC20602946304672
:1031D00000F062FC431C26D10C233360304600F023
:1031E00037FDE4E70B685B1B1AD40B2B0FD90B6080
:1031F000CD50CC18304600F02BFD04F10B00231D00
:1032000020F00700C31A1BD05A42E25070BD8C4216
:103210000DBF63684B686360136018BF0C46E9E735
:103220000C464968CAE7C41C24F00304A04205D038
:10323000211A304600F030FC0130CDD02560D9E7AE
:1032400070BD00BF00020020040200202DE9F047FD
:103250008E689E4282460C469146984635D88A89A9
:1032600012F4906F31D0256809696F1A65690223DD
:1032700005EB450595FBF3F508F101033B449D4241
:1032800038BF1D46530531D52946FFF781FF064655
:1032900050B90C23CAF80030A38943F04003A3813E
:1032A0004FF0FF30BDE8F0873A46216900F0AAFCF4
:1032B000A38923F4906343F08003A38126616561B1
:1032C0003E44ED1B2660A5604646464528BF46465F
:1032D00032464946206800F0A0FCA3689B1BA3600F
:1032E00023681E4426600020BDE8F0872A4600F0CF
:1032F000B0FC06460028E1D121695046FFF7FAFEEE
:10330000C7E700002DE9F04F9DB0804603938B89FD
:103310001C060D4616460FD50B696BB94021FFF709
:1033200037FF2860286128B90C23C8F800304FF017
:10333000FF30C5E040236B610023099320238DF803
:10334000293030238DF82A304FF0010B37463C46A8
:1033500014F8013B002B3CD1B7EB060A0BD05346C7
:10336000324629464046FFF771FF013000F0A38046
:10337000099B534409933B78002B00F09C80002369
:103380004FF0FF3204930793059206938DF8533064
:103390001A93052221785048FCF73AFF671C049BDA
:1033A000D8B9D90644BF20228DF853201A0744BF4C
:1033B0002B228DF8532022782A2A16D0079A002132
:1033C0000A20274601343B78303B092B51D9C9B13B
:1033D00011E0252BC0D02746B9E73F4A801A0BFAE7
:1033E00000F0184304903C46D3E7039A111D12687D
:1033F0000391002A01DB079204E0524243F00203EA
:10340000079204933B782E2B0ED17B782A2B07F161
:10341000010132D1039B1A1D1B680392002BB8BF18
:103420004FF0FF33023705932C4C397803222046A6
:10343000FCF7EEFE38B14023001B03FA00F0049BBA
:10344000034304930137397825488DF82810062264
:103450007E1CFCF7DDFE002835D0224BFBB9039B18
:10346000073323F0070308330393099B4B44099365
:103470006CE700FB02320121A3E700230593184605
:103480000A240F4601313A78303A092A03D9002B31
:10349000CAD00590C8E704FB00200123F1E703AB85
:1034A00000932A46104B04A94046AFF30080B0F1C8
:1034B000FF3F8146D9D1AB895B063FF538AF09980C
:1034C0001DB0BDE8F08F03AB00932A46064B04A95C
:1034D000404600F0C1F9EAE77E3E0008843E00085D
:1034E000883E0008000000004D3200089368013B50
:1034F000002B10B4936009DA9469A34202DBCBB2CB
:103500000A2B03D15DF8044BFFF73EBB1368581C30
:1035100010601970C8B25DF8044B7047F8B50646E4
:103520000F461446D518AC4201D1002007E03A46B8
:1035300014F8011B3046FFF7D9FF431CF3D1F8BD47
:103540002DE9F04F9DB00C4617460393064618B17F
:1035500083690BB9FFF7CAFC7C4B9C4257D1746856
:10356000A38918075DD52369002B5AD0002309933E
:1035700020238DF8293030238DF82A304FF0010BAD
:10358000B846454615F8013B002B55D1B8EB070A64
:103590000BD053463A4621463046FFF7BFFF013075
:1035A00000F0C480099B5344099398F80030002B25
:1035B00000F0BC8000234FF0FF3204930793059284
:1035C00006938DF853301A93052229786048FCF74A
:1035D0001FFE05F10108049B002831D1D90644BF24
:1035E00020228DF853201A0744BF2B228DF8532038
:1035F0002A782A2A2CD0079A00210A20A8460135C9
:1036000098F80030303B092B6DD971B326E0514B4F
:103610009C4201D1B468A3E74F4B9C4208BFF468B9
:103620009EE721463046FFF701FB00289ED04FF071
:10363000FF301DB0BDE8F08F252BA7D0A846A0E72E
:10364000434A801A0BFA00F0184304904546BBE742
:10365000039A111D12680391002A01DB079204E00E
:10366000524243F002030792049398F800302E2B45
:1036700010D198F801302A2B08F1010137D1039BB2
:103680001A1D1B680392002BB8BF4FF0FF3308F1DF
:1036900002080593314D98F8001003222846FCF7E4
:1036A000B7FD40B14023401B03FA00F0049B0343E5
:1036B000049308F1010898F8001029488DF82810A3
:1036C000062208F10107FCF7A3FD002834D0254BA2
:1036D00003BB039B073323F0070308330393099BC2
:1036E0004B4409934CE700FB0232012186E700239B
:1036F000059318460A258846013198F80020303A8B
:10370000092A03D9002BC5D00590C3E705FB00208B
:103710000123F0E703AB00932246134B04A9304684
:10372000AFF30080B0F1FF3F8146D8D1A3895B069B
:103730003FF57DAF09987CE703AB009322460A4B27
:1037400004A9304600F088F8ECE700BF343E0008DA
:103750007E3E0008543E0008143E0008843E0008E7
:10376000883E0008000000001D3500082DE9F047E4
:1037700091461F468A680B69DDF820809342B8BFE6
:103780001346C9F8003091F8432006460C4612B1A2
:103790000133C9F800302368990642BFD9F80030D8
:1037A0000233C9F80030256815F0060507D104F189
:1037B000190AE368D9F800209B1A9D4229DB94F886
:1037C00043302268003318BF012392062ED404F13F
:1037D000430239463046C047013021D02368E568AE
:1037E000D9F8002003F00603042B08BFAD1AA36824
:1037F00022690CBF25EAE57500259342C4BF9B1AD8
:10380000ED184FF000091A344D451BD10020BDE8DA
:10381000F0870123524639463046C047013003D174
:103820004FF0FF30BDE8F0870135C2E7E1185A1CC0
:10383000302081F84300224494F8451082F8431068
:103840000233C4E70123224639463046C0470130DF
:10385000E6D009F10109D7E72DE9F04317460A7EC2
:1038600085B06E2A984606460C460C9B01F1430E25
:1038700000F0BC801AD8632A2ED00AD8002A00F0A3
:10388000C880582A00F08A8004F1420584F842205A
:103890002AE0642A01D0692AF6D121681A6811F059
:1038A000800F23D0111D1960136827E0732A00F0E0
:1038B000B48008D86F2A2AD0702AE5D10A6842F06D
:1038C00020020A6003E0752A21D0782ADCD1782210
:1038D00084F845206E4964E01A6801F14205111D23
:1038E0001960136884F842300123A3E011F0400FFF
:1038F00002F104011960D7D0B2F90030002B03DACD
:103900002D225B4284F8432062490A2217E0206896
:10391000196810F0800F03D0081D18600B6806E0CE
:1039200010F0400F01F104001860F7D00B885949DE
:103930006F2A14BF0A220822002084F84300656819
:10394000A560002DC0F29C80206820F0040020605B
:10395000002B3FD1002D40F095807546082A0BD1F1
:103960002368DA0708D5236962689A42DEBF3023EC
:1039700005F8013C05F1FF35AEEB05032361CDF8F9
:1039800000803B4603AA21463046FFF7EFFE013098
:1039900055D14FF0FF3005B0BDE8F08381F84520E8
:1039A0003C492268186812F0800F00F104051D6080
:1039B00001D0036802E05506FBD50388D00744BF59
:1039C00042F0200222601BB9226822F0200222600D
:1039D0001022B1E77546B3FBF2F002FB1033CB5C6B
:1039E00005F8013D03460028F5D1B7E708681A68D5
:1039F000496910F0800F04D0101D18601368196019
:103A000007E010F0400F02F1040018601368F6D0D0
:103A10001980002323617546B1E71A68111D1960EA
:103A20001568626800212846FCF7F2FB08B1401BCC
:103A3000606063682361002384F843309FE7236953
:103A40002A4639463046C0470130A2D023689B073A
:103A500007D5002504F11909E368039A9B1A9D42D2
:103A600005DBE068039B9842B8BF184693E7012343
:103A70004A4639463046C04701308AD00135EBE727
:103A8000002BA7D10B7884F8423004F1420565E79A
:103A9000A03E00088F3E000838B5064C00230546BE
:103AA00008462360FEF784FE431C02D1236803B15D
:103AB0002B6038BD4C04002010B50C46B1F90E1037
:103AC00000F0EEF80028ABBF636DA3891B1823F448
:103AD0008053ACBF6365A38110BD2DE9F0411F4643
:103AE0008B89DB0505460C46164605D502230022C8
:103AF000B1F90E1000F074F8A389B4F90E1023F494
:103B00008053A38132463B462846BDE8F04100F091
:103B100023B810B50C46B1F90E1000F061F8431C43
:103B2000A38915BF606523F4805343F48053A381B8
:103B300018BFA38110BDB1F90E1000F01FB849B134
:103B4000FF2A85BF8A2303600A704FF0FF3098BFB9
:103B5000012070470846704738B5074C05460846AF
:103B60001146002222601A46FEF714FE431C02D1C1
:103B7000236803B12B6038BD4C04002038B5064CD7
:103B80000023054608462360FEF72CFE431C02D1A5
:103B9000236803B12B6038BD4C04002038B5074CB6
:103BA00000230546084611462360FEF71EFE431C0F
:103BB00002D1236803B12B6038BD00BF4C04002044
:103BC00038B5064C0023054608462360FEF712FE72
:103BD000431C02D1236803B12B6038BD4C04002084
:103BE00038B5074C054608461146002222601A46A1
:103BF000FEF702FE431C02D1236803B12B6038BDDF
:103C00004C04002010B5431E0A44914200D110BD5F
:103C100011F8014B03F8014FF7E7884210B501EBAB
:103C2000020303D8421E99420CD110BD9842F9D22A
:103C30008118D21AD34200D110BD13F8014D01F8FA
:103C4000014DF7E711F8014B02F8014FEBE7704720
:103C50007047F8B5074614460E4621B91146BDE82F
:103C6000F840FFF795BA22B9FFF744FA25462846EF
:103C7000F8BD00F027F884420FD921463846FFF7F7
:103C800087FA05460028F2D031462246FFF7BAFFF0
:103C900031463846FFF72EFAE9E73546E7E70000F8
:103CA00038B5074C054608461146002222601A46E0
:103CB000FEF762FD431C02D1236803B12B6038BDBF
:103CC0004C04002051F8040C0028A0F10400BCBFF3
:103CD0000B58C01870470000F8B500BFF8BC08BC0E
:103CE0009E467047F8B500BFF8BC08BC9E467047BA
:103CF00000061016000610165265616479210D0A3F
:103D0000004D4355204944203D202564000A0D0004
:103D10004154004452005344006C65645F6F666612
:103D20000073657474696E67732025730D0A006CE7
:103D300065645F4F6E0072656C6179315F6F6666B6
:103D40000072656C6179315F6F6E0072656C6179CC
:103D5000325F6F66660072656C6179325F6F6E000C
:103D600072656C6179335F6F66660072656C61794C
:103D7000335F6F6E004E4F54204D450D00457272FB
:103D80006F720D000F0180961180FFB103012C2D81
:103D9000B203012C2DB306012C2D012C2DB40107EB
:103DA000C003A20284C101C5C2020A00C3028A2A5A
:103DB000C4028AEEC5010E20003601C83A01050290
:103DC0002A040000007F2B040000007F04E01002A2
:103DD0001C07123732292D29252B3900010310E148
:103DE00010031D07062E2C292D2E2E373F00000212
:103DF0001013800A29806400000000000000000108
:103E00000203040607080900000000010203040081
:103E10001000002000000000000000000000000072
:103E20000000000000000000000000000000000092
:103E30000000000000000000000000000000000082
:103E40000000000000000000000000000000000072
:103E50000000000000000000000000000000000062
:103E60000000000000000000000000000000000052
:103E7000000000004300504F534958002E00232DEE
:103E8000302B2000686C4C00656667454647003063
:103E900031323334353637383941424344454600B0
:103EA00030313233343536373839616263646566B0
:103EB000000020202020202020202028282828281A
:103EC00020202020202020202020202020202020F2
:103ED000202088101010101010101010101010104A
:103EE000101004040404040404040404101010104A
:103EF0001010104141414141410101010101010105
:103F00000101010101010101010101010110101074
:103F100010101042424242424202020202020202D7
:103F20000202020202020202020202020210101047
:103F30001020000000000000000000000000000051
:103F40000000000000000000000000000000000071
:103F50000000000000000000000000000000000061
:103F60000000000000000000000000000000000051
:103F70000000000000000000000000000000000041
:103F80000000000000000000000000000000000031
:103F90000000000000000000000000000000000021
:103FA0000000000000000000000000000000000011
:043FB000000000000D
:083FB4002CC3FF7F0100000097
:043FBC00C501000833
:043FC000A101000853
:103FC40001000000100000000024F4001000002094
:103FD40000000000343E0008543E0008143E00086F
:103FE40000000000000000000000000000000000CD
:103FF40000000000000000000000000000000000BD
:1040040000000000000000000000000000000000AC
:10401400000000000000000000000000000000009C
:10402400000000000000000000000000000000008C
:104034004300000000000000000000000000000039
:10404400000000000000000000000000000000006C
:104054004300000000000000000000000000000019
:10406400000000000000000000000000000000004C
:1040740043000000000000000000000000000000F9
:10408400000000000000000000000000000000002C
:1040940043000000000000000000000000000000D9
:1040A400000000000000000000000000000000000C
:1040B40043000000000000000000000000000000B9
:1040C40000000000000000000000000000000000EC
:1040D4004300000000000000000000000000000099
:1040E40000000000000000000000000000000000CC
:1040F4004300000000000000000000000000000079
:1041040000000000000000000000000000000000AB
:104114003F3B0008D130000800000000B13E000819
:104124007C3E0008003D0008003D0008003D0008FA
:10413400003D0008003D0008003D0008003D000867
:10414400003D0008003D0008FFFFFFFFFFFFFFFFE9
:10415400FFFFFFFFFFFF00000100415343494900F7
:10416400000000000000000000000000000000004B
:1041740000000000000000000000415343494900D2
:10418400000000000000000000000000000000002B
:0C4194000000000000000000000000001F
:0400000508002819AE
:00000001FF
