:020000040800F2
:100000000080012015280008892700088B27000898
:100010008D2700088F2700089127000800000000A6
:10002000000000000000000000000000932700080E
:10003000952700080000000097270008992700086E
:10004000652800086528000865280008652800085C
:10005000652800086528000865280008652800084C
:1000600065280008652800089D2700086528000805
:10007000652800086528000865280008652800082C
:1000800065280008652800086528000800000000B1
:1000900000000000000000000000000065280008CB
:1000A00065280008652800086528000865280008FC
:1000B000A5270008B1270008652800086528000862
:1000C00065280008652800086528000865280008DC
:1000D0006528000865280008652800080000000061
:1000E000BD270008652800086528000800000000FA
:1000F000000000000000000000000000652800086B
:100100000000000065280008652800086528000830
:1001100000000000000000000000000000000000DF
:10012000652800086528000865280008652800087B
:10013000652800080000000000000000000000002A
:10014000000000000000000000000000652800081A
:10015000652800086528000865280008652800084B
:100160006528000865280008000000000000000065
:10017000000000000000000000000000000000007F
:1001800000000000652800080000000000000000DA
:0401900065280008D6
:1001A00010B5054C237833B9044B13B10448AFF3B1
:1001B00000800123237010BD7000002000000000AB
:1001C0004C31000808B5034B1BB103490348AFF39A
:1001D000008008BD00000000740000204C310008C1
:1001E000034613F8012B002AFBD1181A0138704777
:1001F00001F0FF01102A2BDB10F0070F08D010F8D8
:10020000013B013A8B422DD010F0070F42B3F6D1DB
:10021000F0B441EA012141EA014122F007047FF0F4
:1002200000070023F0E80256083C85EA010586EA4B
:10023000010685FA47F5A3FA87F586FA47F6A5FA87
:1002400087F68EB9EED1F0BC01F0FF0102F0070293
:1002500032B110F8013B013A83EA010313B1F8D13E
:100260000020704701387047002D06BF354603381F
:10027000073815F0010F07D1013015F4807F02BF58
:10028000013015F4C03F0130F0BC0138704700BFA9
:1002900053B94AB9002908BF00281CBF4FF0FF31ED
:1002A0004FF0FF3000F07AB9ADF1080C6DE904CEE3
:1002B00000F006F8DDF804E0DDE9022304B0704741
:1002C0002DE9F0478C460D460446089E002B51D17F
:1002D0008A4217466DD9B2FA82FEBEF1000F0BD0EA
:1002E000CEF1200C01FA0EF520FA0CFC02FA0EF702
:1002F0004CEA050C00FA0EF44FEA174A250CBCFB39
:10030000FAF81FFA87F90AFB18CC45EA0C4508FBF6
:1003100009F3AB420AD9ED1908F1FF3280F02381CD
:10032000AB4240F22081A8F102083D44ED1AA4B28C
:10033000B5FBFAF00AFB105544EA054400FB09F945
:10034000A14509D9E41900F1FF3380F00A81A145E4
:1003500040F2078102383C44A4EB090440EA08401B
:100360000021002E61D024FA0EF400233460736063
:10037000BDE8F0878B4207D9002E54D0002186E8D3
:1003800021000846BDE8F087B3FA83F1002940F068
:100390008E80AB4202D3824200F2FA80841A65EB6F
:1003A00003050120AC46002E3FD086E81010BDE8C2
:1003B000F08712B90127B7FBF2F7B7FA87FEBEF153
:1003C000000F34D1EB1B3A0C1FFA87FC0121B3FB61
:1003D000F2F8250C02FB183345EA03450CFB08F341
:1003E000AB4207D9ED1908F1FF3002D2AB4200F25F
:1003F000D1808046ED1AA3B2B5FBF2F002FB105596
:1004000043EA05440CFB00FCA44507D9E41900F1BC
:10041000FF3302D2A44500F2B8801846A4EB0C04C6
:1004200040EA08409DE731463046BDE8F087CEF10E
:10043000200405FA0EF307FA0EF720FA04F83A0C36
:1004400025FA04F448EA0308B4FBF2F14FEA184530
:1004500002FB11441FFA87FC45EA044501FB0CF33B
:10046000AB4200FA0EF409D9ED1901F1FF3080F02A
:100470008A80AB4240F2878002393D44EB1A1FFA72
:1004800088F5B3FBF2F002FB103345EA034500FBAD
:100490000CF3AB4207D9ED1900F1FF386FD2AB4234
:1004A0006DD902383D44EB1A40EA01418FE7C1F1B2
:1004B000200722FA07F88B4005FA01F448EA030303
:1004C00020FA07FE4FEA134CFD404EEA040EB5FB3E
:1004D000FCF94FEA1E440CFB19551FFA83F844EA55
:1004E000054509FB08F4AC4202FA01F200FA01FAF0
:1004F00008D9ED1809F1FF3043D2AC4241D9A9F136
:1005000002091D442D1B1FFA8EFEB5FBFCF00CFBEF
:1005100010554EEA054400FB08F8A04507D9E41839
:1005200000F1FF3529D2A04527D902381C4440EA02
:100530000940A4EB0804A0FB02894C45C6464D4681
:1005400015D312D056B1BAEB0E0364EB050404FACE
:1005500007F7CB401F43CC40376074600021BDE8F3
:10056000F0871846F8E69046E0E6C245EAD2B8EBD6
:10057000020E69EB03050138E4E72846D7E7404659
:1005800091E78146BEE7014678E702383C4445E7FB
:10059000084608E7A8F102083D442BE7704700BF72
:1005A00038B50E4A0E4B054618784FF47A73B3FBF4
:1005B000F0F31068B0FBF3F000F096F8044658B979
:1005C0000F2D09D8024629464FF0FF3000F04AF8B7
:1005D000044B20461D6038BD012038BD08000020B6
:1005E000000000200400002008B50B4B1A6842F4FC
:1005F00000721A601A6842F480621A601A6842F443
:1006000080721A60032000F01BF80020FFF7C8FF7B
:1006100001F0D0FF002008BD003C0240034A044B1B
:1006200011681B780B441360704700BFA0000020C6
:1006300000000020014B1868704700BFA000002098
:10064000074AD36823F4E0631B041B0C43F0BF6329
:10065000000243F4003300F4E0600343D3607047CA
:1006600000ED00E0174B30B5DC68C4F30224C4F1A0
:100670000703251D042B28BF0423062D4FF0010579
:1006800005FA03F303F1FF338CBF033C0024194048
:10069000A14005FA04F4013C2240002842EA01028C
:1006A0004FEA0212ADBF00F1604000F00F00064BB0
:1006B00000F56140B5BFD2B2D2B21A5480F800231F
:1006C00030BD00BF00ED00E014ED00E0002808DBC5
:1006D0004209012300F01F0003FA00F0014B43F828
:1006E0002200704700E100E00138B0F1807F0AD2BB
:1006F000064B074A5860F02182F823100020072299
:1007000098601A6070470120704700BF10E000E059
:1007100000ED00E02DE9F04F85B00B68DFF88C812B
:10072000604A01934FF001090023019D09FA03F487
:100730002540AC4240F0A6804C6824F0100C0CF12F
:10074000FF36012E4FEA430E12D88768032606FAB9
:100750000EF627EA0607CE6806FA0EF63E438660D6
:100760004768C4F3001627EA05079E403E434660EB
:100770000326C76806FA0EF6F64307EA060A8F68EC
:1007800007FA0EF747EA0A07BCF1020FC76016D155
:100790004FEAD30A00EB8A0A03F0070BDAF820705D
:1007A0004FEA8B0B4FF00F0C0CFA0BFC27EA0C0CEA
:1007B0000F6907FA0BF747EA0C07CAF820700768B9
:1007C0003E4004F0030707FA0EFE4EEA06060660F6
:1007D000E60057D54FF0000BCDF80CB0D8F84470B8
:1007E000314E47F48047C8F84470D8F8447007F495
:1007F00080470397039F23F0030707F1804707F51E
:100800009C3703F0030CD7F808A04FEA8C0C4FF08C
:100810000F0E0EFA0CFEB0422AEA0E0E39D006F583
:100820008066B04237D006F58066B04235D006F516
:100830008066B04233D006F58066B04214BF07260A
:10084000042606FA0CF646EA0E06BE601668EF436A
:1008500014F4803F0CBF3E402E431660566814F4DB
:10086000003F0CBF3E402E435660966814F4801F34
:100870000CBF3E402E439660D668A40254BF3E4053
:100880002E43D6600133102B7FF44FAF05B0BDE887
:10089000F08F5E46D5E70126D3E70226D1E703268F
:1008A000CFE700BF003C014000000240003802409A
:1008B0000AB1816170470904FBE7000008B5044BE9
:1008C0005969014202D0586100F0A8FF08BD00BF7D
:1008D000003C01402DE9F341044608B901203FE006
:1008E0000368DD0710D4236898075AD423681A07D1
:1008F00000F19C8023685B0700F1BA80A0690028A2
:1009000040F01B8100202BE0A44B9A6802F00C02FF
:10091000042A07D09A6802F00C02082A0AD15B6800
:10092000590207D59D4B1B689A03DCD56368002BE1
:10093000D9D1D3E76368994DB3F5803F13D12B68C4
:1009400043F480332B60FFF775FE944D06462B6809
:100950009B03C8D4FFF76EFE801B6428F7D90320E1
:1009600002B0BDE8F081B3F5A02F04D12B6843F4A9
:1009700080232B60E3E72A6822F480322A602A6809
:1009800022F480222A60002BDDD1FFF753FE0646B9
:100990002B689F03A7D5FFF74DFE801B6428F7D96E
:1009A000DDE77E4B9A6812F00C0F07D09A6802F0D0
:1009B0000C02082A11D15B685E020ED4774B1A68CC
:1009C000950702D5E268012A88D11A68216922F0C8
:1009D000F80242EAC1021A6088E7E268704BB2B1DD
:1009E00001221A60FFF726FE6C4D06462B68980719
:1009F00007D52B68226923F0F80343EAC2032B6072
:100A000074E7FFF717FE801B0228EFD9A7E71A60EB
:100A1000FFF710FE614D06462B6899077FF566AF1C
:100A2000FFF708FE801B0228F6D998E762695D4B44
:100A30007AB101221A60FFF7FDFD584D06466B6F33
:100A40009F073FF557AFFFF7F5FD801B0228F6D94A
:100A500085E71A60FFF7EEFD504D06466B6F98076D
:100A60007FF548AFFFF7E6FD801B0228F6D976E751
:100A70004A4B1A6C12F0805228D101921A6C42F043
:100A800080521A641B6C03F080530193019B012672
:100A9000454D2B68D9051BD5A368404D012B27D1A7
:100AA0002B6F43F001032B67FFF7C4FD3B4D074657
:100AB00041F288382B6F9B0739D5002E3FF41EAFCB
:100AC000364A136C23F08053136417E70026DFE7E0
:100AD0002B6843F480732B60FFF7ACFD07462B684F
:100AE000DA05D9D4FFF7A6FDC01B0228F7D936E7EF
:100AF000052B04D12B6F43F004032B67D0E72A6F3B
:100B000022F001022A672A6F22F004022A67002BD2
:100B1000CAD1FFF78FFD41F2883807462B6F98073F
:100B2000CBD5FFF787FDC01B4045F7D917E7FFF787
:100B300081FDC01B4045BDD911E7184DAB6803F0DE
:100B40000C03082B47D0194E00230228336035D1FF
:100B5000FFF770FD07462B68990129D4226AE369E3
:100B60001343626A43EA8213E26A43EA0263A26AB7
:100B70000A4C5208013A43EA02436B600123336096
:100B8000FFF758FD054623689A013FF5BBAEFFF716
:100B900051FD401B0228F6D9E1E600BF00380240B3
:100BA00000004742800E474200700040600047420C
:100BB000FFF740FDC01B0228CDD9D0E6FFF73AFD74
:100BC00004462B689B017FF59DAEFFF733FD001BAC
:100BD0000228F6D9C3E601283FF4C2AEA868E3694B
:100BE00000F480029A427FF479AE226A00F03F035B
:100BF00093427FF473AE626A47F6C0730340934238
:100C00007FF46CAEA26A00F4403393427FF466AE88
:100C1000E36A00F07060C01A18BF0120A0E600BFB0
:100C2000134908B58B6803F00C03042B03D0082B81
:100C300003D0104808BD104808BD4A684B68496891
:100C400013F4800314BF0C480A48C1F3881118BF7D
:100C5000002302F03F02A1FB0001FFF719FB044B48
:100C60005B68C3F3014301335B00B0FBF3F008BDE5
:100C7000003802400024F40000127A002DE9F0410F
:100C80000D46044610B90120BDE8F081444B1A68B6
:100C900002F00F028A4229D321688F072ED4C80799
:100CA00041D43F4B1A6802F00F02954267D3226885
:100CB00051076DD4130707D53A4A2169936823F485
:100CC000604343EAC1039360FFF7AAFF354B364AFE
:100CD0009B68C3F30313D35CD840344B1860344B88
:100CE0001868FFF75DFC0020BDE8F081CAB21A70F9
:100CF0001B6803F00F039942C5D1CDE7294B11F0D2
:100D0000040F1EBF9A6842F4E0529A600E0742BF79
:100D10009A6842F460429A609A68A06822F0F002F1
:100D200002439A60BBE762681E4B012A1DD11B6813
:100D300013F4003FA7D01B4EB36823F00303134303
:100D4000B360FFF777FC41F288380746B368626802
:100D500003F00C03B3EB820FA3D0FFF76BFCC01BB7
:100D60004045F3D90320BDE8F081911E01291B689D
:100D700002D813F0007FDDE713F0020FDAE7EAB2E2
:100D80001A701B6803F00F039D427FF47CAF8EE75F
:100D90000449E0688B6823F4E05303438B6089E7E0
:100DA000003C024000380240A83100080800002042
:100DB00004000020044B054A9B68C3F38223D35CE4
:100DC000034A1068D840704700380240B831000824
:100DD00008000020044B054A9B68C3F34233D35CF0
:100DE000034A1068D840704700380240B831000804
:100DF00008000020F8B504460E4615461F46216837
:100E00008A6836EA020301D00020F8BD6B1CF7D0D7
:100E1000FFF710FCC01B8542F1D823685A6822F006
:100E2000E0025A606268B2F5827F0AD1A268B2F528
:100E3000004F02D0B2F5806F03D11A6822F0400251
:100E40001A60A26AB2F5005F07D11A6822F4005254
:100E50001A601A6842F400521A60012384F8513073
:100E6000002384F850300320F8BD000073B513460A
:100E7000134A144E15684268B5FBF6F64FF47A75BE
:100E80007543B2F5827F044601950DD10A46802153
:100E9000FFF7B0FF10B9002002B070BD636D43F0E2
:100EA000200363650320F7E7019B002BF3D0019B30
:100EB000013B019323689B681B06F5D4EBE700BF59
:100EC0000800002000366E0110B50446002836D018
:100ED0000023836290F8513003F0FF021BB980F8C1
:100EE000502001F087FB2168A068A269022384F8E2
:100EF00051300B6823F040030B6063680343E068E4
:100F000003432069034360690343E0690343206AA4
:100F10000343A06A034302F4007003430B60120C06
:100F2000636A02F004021A434A60CB6923F4006347
:100F3000CB6100200123606584F8513010BD012091
:100F400010BD2DE9F7431E4690F850300A9F012B43
:100F500004460D46914600F0E280012380F85030AF
:100F6000FFF768FB94F851306168DBB2012B8046D3
:100F70000AD0B1F5827F40F0D080A068002840F010
:100F8000CC80042B40F0C980002D00F0C480B9F162
:100F9000000F00F0C080002E00F0BD8094F85130AA
:100FA000C4F83890042B1CBF052384F8513000236B
:100FB0006365236463642368E687E6861A68A68708
:100FC000500658BF1A68256358BF42F04002A686F3
:100FD00058BF1A60E268B2F5006F58D109B1012E0E
:100FE00007D135F8022BDA60E38E2563013B9BB213
:100FF000E3860125E38E9BB2ABB9E38F9BB293B935
:10100000424639462046FFF731FF002840F08180F4
:10101000A368002B32D123680190DA6801929B68A3
:101020000193019B2AE02268936899070DD5E38E0E
:101030009BB253B14DB1236B33F8021BD1602363D4
:10104000E38E013B9BB2E38600259368DB070CD55A
:10105000E38F9BB24BB1A36BD26823F8022BA3633F
:10106000E38F013B9BB2E3870125FFF7E3FAA0EB97
:1010700008008742BED87E1CBCD00320012384F820
:101080005130002384F8503003B0BDE8F08309B13B
:10109000012E08D12A781A73236B01332363E38E60
:1010A000013B9BB2E3860125E38E9BB21BB9E38F24
:1010B0009BB2002BA4D02268936898070ED5E38ECC
:1010C0009BB25BB155B1236B1B781373236B013358
:1010D0002363E38E013B9BB2E3860025226893687D
:1010E000D9070DD5E38F9BB253B1A36BD2681A70A9
:1010F000A36B0133A363E38F013B9BB2E38701251D
:10110000FFF798FAA0EB08008742CDD87B1CCBD024
:10111000B3E7202363650120B0E70220AEE7022099
:10112000B2E70368DA6842F00102DA609A6802F016
:101130000702062A1EBF1A6842F001021A60002048
:1011400070470368DA6822F00102DA60196A41F236
:101150001112114208D1196A40F24442114202BFF1
:101160001A6822F001021A60002070477047704729
:101170007047704703681A69910710B504460ED589
:10118000DA6892070BD56FF002021A619B6901229F
:101190009B07027777D0FFF7EAFF002323772368C6
:1011A0001A69500710D5DA6851070DD56FF004029F
:1011B0001A619B69022213F4407F2277204668D08F
:1011C000FFF7D5FF0023237723681A6912070FD58D
:1011D000DA6810070CD56FF008021A61DB69042287
:1011E0009907227720465AD0FFF7C1FF00232377C3
:1011F00023681A69D20610D5DA68D0060DD56FF0CB
:1012000010021A61DB69082213F4407F227720461E
:101210004BD0FFF7ACFF0023237723681A69D1076F
:1012200008D5DA68D20705D56FF001021A612046A9
:1012300000F004FB23681A69100608D5DA68110665
:1012400005D56FF080021A61204600F076F9236818
:101250001A69520608D5DA68500605D56FF04002C3
:101260001A612046FFF785FF23681A69910622D587
:10127000DA6892061FD56FF0200220461A61BDE899
:10128000104000F059B9FFF771FF2046FFF770FFDB
:1012900083E7FFF76BFF2046FFF76AFF92E7FFF750
:1012A00065FF2046FFF764FFA0E7FFF75FFF2046DA
:1012B000FFF75EFFAFE710BD244A036890420ED0EF
:1012C000B0F1804F0BD0A2F57C42904207D002F5DE
:1012D0008062904203D002F58062904215D14A6844
:1012E00023F070031343194A904219D0B0F1804F94
:1012F00016D0A2F57C42904212D002F58062904254
:101300000ED002F5806290420AD0114A904207D076
:1013100002F58062904203D002F58062904203D1D0
:10132000CA6823F4407313434A6923F080031343CC
:1013300003608B68C3620B688362044B984204BFEE
:101340000B69036301234361704700BF0000014044
:101350000040014010B50446A0B190F83D3003F0C4
:10136000FF021BB980F83C2001F092F9022384F8B7
:101370003D302068211DFFF79FFF012384F83D3099
:10138000002010BD012010BD10B584680A4324F46C
:101390007F4442EA03232343836010BD90F83C302E
:1013A000012B70B504464FF0020019D084F83D00BF
:1013B0002068012384F83C30836823F47F4323F0C2
:1013C000770383600B68402B65D015D8102B0CD0A9
:1013D00007D853B10123002084F83D3084F83C0045
:1013E00070BD202B01D0302BF4D1826843F007036D
:1013F00022F0700213431AE0602B34D019D8502B1E
:10140000E8D14A68CE68016A056A25F001050562DF
:10141000836921F00A0123F0F00343EA06130A432B
:1014200083610262836823F0700343F05703836093
:10143000D0E7702B0CD0B3F5005FCBD1CB684A68F6
:101440008968FFF7A1FF2268936843F4804308E0AE
:10145000CB684A688968FFF797FF2268936843F072
:1014600077039360B6E74D68CE68016A21F01001FA
:1014700001628269036A22F4704223F0A00343EA06
:10148000051342EA063282610362836823F0700327
:1014900043F06703CBE74A68CE68016A056A25F026
:1014A00001050562836921F00A0123F0F00343EA94
:1014B00006130A4383610262836823F0700343F0DA
:1014C0004703B4E790F83C30012B30B54FF00203EE
:1014D0002DD080F83D3003680D685C6824F07004FE
:1014E00001222C4380F83C209A685C60114CA34296
:1014F00012D0B3F1804F0FD0A4F57C44A3420BD09F
:1015000004F58064A34207D004F58064A34203D0AD
:1015100004F59A34A34204D1496822F080020A43B8
:101520009A60012380F83D30002380F83C30184653
:1015300030BD00BF000001407047704738B50368F8
:10154000C1681A69044622F440520A431A612569A7
:10155000A268D968C0692A43656921F416412A4303
:1015600021F00C0102430A43DA605A69A16922F4AE
:1015700040720A43B0F5004F5A61254A29D193427F
:1015800003D002F58062934220D1FFF723FC62680A
:10159000256892184FF000034FF019015B41A0FB42
:1015A0000101FEF775FE6421B0FBF1F401FB1403A9
:1015B000DB003233B3FBF1F303F007025B0002EB15
:1015C000041203F4F8731344AB6038BDFFF7F2FB69
:1015D000DDE7934202D00F4A934216D1FFF7FAFBA0
:1015E0006368256819219A00A0FB01019B0FFEF793
:1015F0004FFE6422B0FBF2F102FB11031B013233F8
:10160000B3FBF2F303EB0113DEE7FFF7D3FBE7E7EE
:101610000010014000140140F8B504460E4617467C
:101620001D4621680B6836EA030301D10020F8BD8E
:101630006B1CF7D095B92368DA6822F4D072DA60AF
:101640005A6922F001025A61202384F8393084F863
:101650003A30002384F838300320F8BDFEF7EAFF63
:10166000C01B8542DDD2E6E710B5044640B390F8D2
:10167000393003F0FF021BB980F8382001F050F830
:101680002268242384F83930D36823F40053D360CC
:101690002046FFF753FF23681A6922F490421A612B
:1016A0005A6922F02A025A61DA6842F40052DA607A
:1016B00000202023E06384F8393084F83A3010BDEC
:1016C000012010BD2DE9F8431F4690F83930202B3A
:1016D00004460D46904651D100294CD0002A4AD0EC
:1016E00090F83830012B49D0012380F838304FF082
:1016F00000092123C0F83C9080F83930FEF79AFFAA
:10170000A4F824800646A4F8268084F83890E38C58
:101710009BB25BB93B46324640212046FFF77CFF37
:10172000A0B9202384F83930BDE8F883E38C013B6D
:101730009BB2E384A368B3F5805F32463B464FF02B
:10174000800120460ED1FFF767FF10B10320BDE8EE
:10175000F8832B882268C3F308035360236943B9D5
:101760000235D4E7FFF758FF0028EFD123682A7825
:101770005A600135CBE70120BDE8F8830220BDE8BF
:10178000F883000030B595B03022002108A801F0A0
:1017900095F80021142203A801F090F800251D4BB4
:1017A00001951A6C42F080521A641B6C1A4A03F0BD
:1017B00080530193019B0295136823F4404343F443
:1017C00000431360136803F440430293029B012318
:1017D00008934FF4A02309934FF480030F9304233D
:1017E000109354230224119308A8072313930E94F3
:1017F0001294FFF76FF80F23039321464FF48053A1
:1018000003A80494059506930795FFF737FA15B0DA
:1018100030BD00BF0038024000700040102802D1E7
:10182000044800F0CDBCB0F5005F02BF024B0122BE
:101830001A8070477C0100208E000020034B8342F9
:1018400002BF034B01221A80704700BFA005002091
:101850008E000020F8B50C4E0C4F0446042522469D
:101860000023144612F8011B59B199550133042B7A
:101870001446F6D13146384600F068FE002DEED110
:10188000F8BD0D46F6E700BF200600207C010020D1
:101890002DE9F04F9DB0FEF7A7FEFFF773FF14226E
:1018A00000210FA8002401F009F8B54B03941A6B2E
:1018B000DFF81C83DFF81C93B24D42F004021A6378
:1018C0001A6B02F004020392039A04941A6B42F01A
:1018D00080021A631A6B02F080020492049A059443
:1018E0001A6B42F001021A631A6B02F001020592B0
:1018F000059A06941A6B42F002021A631B6B03F0FE
:1019000002034046069322463321069BFEF7D0FF92
:101910002246A0214846FEF7CBFF224603219A48E3
:10192000FEF7C6FF4FF4005340460F930FA9974BA5
:1019300010934FF0010A1194FEF7ECFE332340465A
:101940000FA910270F93CDF840A011941294FEF721
:10195000E1FE8F4B0F970FA9484610931194FEF7A5
:10196000D9FEA0230FA948460F934FF0030BCDF8E3
:1019700040A011941294FEF7CDFE0FA98248CDF835
:101980003CB0CDF840A011941294FEF7C3FE04239E
:101990000FA97D480F93019310941194FEF7BAFE9E
:1019A000224621460A20FEF75DFE0A20FEF78EFE43
:1019B000214622462820FEF755FE2820FEF786FE07
:1019C000744AAC604FF4827385E80C004FF48022B7
:1019D0000A23AA6128461822EB62EA61EC602C61B6
:1019E0006C612C626C62AC62FFF76EFA3A4621467B
:1019F0000FA800F063FF684A00924FF0804040F269
:101A00003E3182E803004CF24F311046D1609460C1
:101A1000146194610A940B94FFF79CFC009A4FF4B4
:101A200080560FA910460F96FFF7B8FC009A0A944B
:101A30000AA910460B94FFF745FD3A4621460FA828
:101A400000F03CFF554A56499460104682E8120067
:101A5000D4601461946100920A940B94FFF77AFCAD
:101A6000009A0F960FA91046FFF798FC009A0A9467
:101A70000AA910460B94FFF725FD3A4621460FA808
:101A800000F01CFF474A48499460104682E8120063
:101A9000D4601461946100920A940B94FFF75AFC8D
:101AA000009A0F960FA91046FFF778FC009A3F4E58
:101AB0000A940AA910460B94FFF704FD3C4AB4604F
:101AC0004FF4E13E86E8044030460C227261F46037
:101AD0003461B461F461FFF7C7FD4FF47A722146B7
:101AE000344800F0EBFE3449324800F013FF019B0C
:101AF0008DF840300F238DF841308DF842300B23A4
:101B00008DF843302D4B11932D4B12932D4B139386
:101B10000A2315930FA902232B48ADF86430CDF8A2
:101B20006080CDF85880ADF86C708DF83C408DF831
:101B30003DB08DF83E408DF83FB01495ADF85CA0F7
:101B4000CDF8689000F088FC4FF47A72214619486D
:101B5000184FDFF8748000F0B1FE1C49154800F002
:101B6000D9FE1448FEF73CFB4FF47A7382B2114958
:101B70003046FFF7A7FD4FF47A7600232CE000BF34
:101B800000380240A40000200004024000001110B0
:101B90000000211000380040A00500203C0100207A
:101BA00000040040FC00002000080040E005002088
:101BB00000440040B4010020643100089E31000858
:101BC000A33100089C0500207C010020733100082F
:101BD0000008024000000240E518ADB27A5D6AB12B
:101BE00002A9CA540133E518042BADB2F4D102A9FD
:101BF000404600F0C5FC1EB12C46BEE71646F6E78F
:101C00003748384CFFF7A6FB3548FFF78AFA364FBE
:101C10003B88364D03B32E78F6B931483E80FFF746
:101C200090FA23883248632B4FF47A724FF0000108
:101C300088BF268000F042FE22882E492C48531C83
:101C4000238000F043FE2C4800F015F92848FFF7E8
:101C500001FE2348FFF765FA2E78012ED8D1274BD5
:101C600000211B6829701D68089128220FA809917E
:101C7000079500F023FE22490F950FA800F052FEB1
:101C800098B10FAA1F490AA800F020FE0AA8FEF783
:101C9000A7FA0AA982B24FF47A731B48FFF712FD24
:101CA000324620211948FEF703FE19490FA800F01B
:101CB00039FE0028ABD00FAA12490AA800F006FE90
:101CC0000AA8FEF78DFA0AA982B24FF47A730E4879
:101CD000FFF7F8FC002220210C48FEF7E9FD96E70B
:101CE000A00500208C0000208E0000209000002025
:101CF000B4010020813100087C010020080A002086
:101D0000863100088B310008E00500200000024009
:101D100099310008018D406A0022FEF7C9BD018D8E
:101D2000406A0122FEF7C4BD2DE9F04782B002AF40
:101D30001E4697F820A00AF1080323F00703ADEB35
:101D4000030D0DF10809ADEB030D4B460AF1FF3809
:101D5000044603F8011B02AD511E0DF10700424479
:101D60004FF0000E91421CD10022218CE069FEF759
:101D70009FFDA36900932A460AF101034946606961
:101D8000FFF7DFF8C8B9731E01354644B3420FD1DF
:101D9000E069218C0122FEF78BFD0020BD46BDE8E5
:101DA000F08711F801CF03F801CB00F801EFD9E774
:101DB00015F8012B03F8012FE8E70120EEE71FB526
:101DC00004AC002304F8013D01230093134622468E
:101DD000FFF7AAFF003018BF012004B010BD1FB5E7
:101DE00004AB002403F8014D0124009441F02001CC
:101DF000FFF79AFF003018BF012004B010BD80B576
:101E000082B00279D31D23F0070302AFADEB030DBF
:101E10000B460092612102AAFFF786FF003018BF2F
:101E20000120BD4680BD80B582B00279D31D23F06C
:101E3000070302AFADEB030D02AB00920A46A021EF
:101E4000FFF772FF003018BF0120BD4680BD80B58E
:101E500082B00279D31D23F0070302AFADEB030D6F
:101E600002AB00920A46B021FFF75EFF003018BFB8
:101E70000120BD4680BD1FB500238DF80E308DF8C2
:101E80000F3000930DF10F020DF10E03E121FFF76A
:101E90004BFF003018BF012005B05DF804FB1FB5F3
:101EA00000238DF80E308DF80F3000930DF10F02E6
:101EB0000DF10E03E221FFF737FF003018BF0120BC
:101EC00005B05DF804FB73B502AC002304F8013DD6
:101ED0000E46224606210546FFF771FF10B101208C
:101EE00002B070BD9DF8073016F0010F14BF43F02B
:101EF000200323F020038DF807309DF8073016F0FB
:101F0000020F14BF43F0080323F008032246062102
:101F100028468DF80730FFF762FF0028DFD12E70CA
:101F2000DEE737B502AC002304F8013D0721224665
:101F30000546FFF744FF78B99DF80730224643F085
:101F40007003072128468DF80730FFF748FF00305F
:101F500018BF012003B030BD0120FBE773B502AD0F
:101F6000002305F8013D0C462A4605210646FFF7E9
:101F700026FF10B1012002B070BD9DF8073004F0BB
:101F80007F0423432A46052130468DF80730FFF7AA
:101F900026FF0028EED1F471EDE773B502AD002302
:101FA00005F8013D0C462A4604210646FFF707FFC7
:101FB00010B1012002B070BD9DF8073004F00F048D
:101FC00023F00F0323432A46042130468DF80730BF
:101FD000FFF705FF0028ECD17471EBE773B502AD94
:101FE000002305F8013D0C462A4604210646FFF76A
:101FF000E6FE10B1012002B070BD9DF8073004F07C
:102000000F0403F00F0343EA04132A460421304669
:102010008DF80730FFF7E3FE0028EBD1B471EAE753
:1020200073B502AC002304F8013D0E46224603219D
:102030000546FFF7C4FE10B1012002B070BD9DF847
:10204000073003F0030333432246032128468DF86B
:102050000730FFF7C4FE0028EED1EE70EDE707B5BC
:1020600002AA02F8011D0221FFF7B9FE003018BFD5
:10207000012003B05DF804FB73B502AD002305F841
:10208000013D0C462A4601210646FFF798FE012134
:1020900078B99DF8073001FA04F41C432A4630460B
:1020A0008DF80740FFF79BFE003018BF012002B0FB
:1020B00070BD0846FBE773B502AC0E46002104F87C
:1020C000011D22460546FFF77AFE98B99DF80730B4
:1020D0006EB143F008032246002128468DF80730F0
:1020E000FFF77DFE003018BF012002B070BD23F065
:1020F0000803F0E70120F8E773B502AC0E460021B3
:1021000004F8011D22460546FFF759FE10B10120D3
:1021100002B070BD9DF80730012E0CBF43F00403E0
:1021200023F008032246002128468DF80730FFF7E8
:1021300056FE0028EBD1AE70EAE773B502AC0E464E
:10214000002104F8011D22460546FFF738FE98B924
:102150009DF807306EB143F0020322460021284665
:102160008DF80730FFF73BFE003018BF012002B0AA
:1021700070BD23F00203F0E70120F8E773B502AC6D
:102180000E46002104F8011D22460546FFF717FE02
:1021900098B99DF807306EB143F001032246002143
:1021A00028468DF80730FFF71AFE003018BF0120CF
:1021B00002B070BD23F00103F0E70120F8E7000052
:1021C000F7B502AD002305F8023D07212A46044673
:1021D000FFF7F5FD00287BD19DF806305E062ED571
:1021E00002AE06F8010D2046FFF794FD2A460721AE
:1021F0002046FFF7F4FD324617212046FFF7DFFDAA
:102200009DF8073013F0010616D12769204639469C
:10221000FFF7F5FD9DF806302A4643F040030721FD
:1022200020468DF80630FFF7DAFD2A4B84F8366039
:102230001F60294B01221A702046FFF770FD9DF8A0
:10224000063099061AD543F0200320468DF8063053
:10225000FFF760FD01212046FFF790FF012384F87E
:1022600037302046FFF75BFD2A4607212046FFF75F
:10227000B6FD002384F8353084F834309DF80630FC
:10228000DA0625D543F0100320468DF80630FFF717
:10229000F2FD00212046FFF750FF01212046FFF705
:1022A0004CFF2046FFF736FD012601212046FFF7AF
:1022B00065FF204684F83760FFF731FD2A46072185
:1022C0002046FFF78CFD002384F8356084F8343015
:1022D00003B0F0BD080A00209000002073B502ACE6
:1022E0000E46002104F8011D22460546FFF767FD52
:1022F00098B99DF807306EB943F04003224600219B
:1023000028468DF80730FFF76AFD003018BF01201E
:1023100002B070BD23F04003F0E70120F8E773B589
:1023200002AC0E46002104F8011D22460546FFF7C7
:1023300046FD98B99DF807306EB943F02003224658
:10234000002128468DF80730FFF749FD003018BFFF
:10235000012002B070BD23F02003F0E70120F8E770
:1023600073B502AC0E46002104F8011D2246054655
:10237000FFF725FD98B99DF807306EB943F01003BB
:102380002246002128468DF80730FFF728FD00304F
:1023900018BF012002B070BD23F01003F0E7012048
:1023A000F8E730B585B005230C4600930A4602AB2A
:1023B0002A210546FFF7B8FC10B9AC6005B030BD66
:1023C0000120FBE730B585B005230C4600930A4693
:1023D00002AB2B210546FFF7A7FC10B9AC6005B096
:1023E00030BD0120FBE730B585B005230C460093D6
:1023F0000A4602AB30210546FFF796FC10B9EC60A7
:1024000005B030BD0120FBE713B502AA01F03F0182
:1024100002F8011D11210446FFF7E1FC20B1002361
:102420002371012002B010BD9DF807302371F9E738
:1024300013B502AA01F03F0102F8011D1221044662
:10244000FFF7CDFC20B100232371012002B010BDA5
:102450009DF807302371F9E773B50E46044605462B
:102460000FCE0FC50FCE0FC50FCE0FC533682B6033
:102470002046FFF74FFC0022218CE069FEF718FA96
:1024800002AD01212046FFF758FE002305F8013D6B
:102490009DF8071011F0020153D021792046FFF773
:1024A000B3FF21792046FFF7C3FFA1682046FFF75D
:1024B00089FFE1682046FFF774FFE1682046FFF7D7
:1024C00092FF01212046FFF709FF01212046FFF777
:1024D00026FF01212046FFF743FF01212046FFF799
:1024E000EAFDA1782046FFF707FEE1782046FFF7D6
:1024F00097FDE1792046FFF731FD21782046FFF76F
:10250000E2FC61792046FFF748FDA1792046FFF7FC
:1025100065FD03212046FFF7A2FD00212046FFF7BD
:10252000ABFD2046FFF7FDFC01212046FFF726FE0C
:102530002046FFF7B4FC2046FFF7F1FB002002B075
:1025400070BD2A462046FFF73AFCA1E738B50123C3
:10255000044680F834300D46FFF7DCFB00212046AE
:10256000FFF70CFE29462046FFF75DFC2046FFF7EB
:10257000D6FB94F83430012BFBD094F8350038BDED
:1025800038B50123044680F834300D46FFF7C2FB0E
:1025900000212046FFF7F2FD29462046FFF757FCB1
:1025A0002046FFF7BCFB94F83430012BFBD094F8A5
:1025B000350038BD07B50E4B002100915A6C42F42E
:1025C00080425A645A6C02F480420092009A01914F
:1025D0001A6C42F080521A641B6C03F08053019312
:1025E0000720019BFEF72CF803B05DF804FB00BF49
:1025F00000380240F0B5044689B01422002103A837
:1026000000F05CF922681F4B9A4238D103F5003381
:10261000002400941A6C1C4842F480421A641A6C1C
:1026200002F480420092009A01941A6B42F0040274
:102630001A631A6B02F004020192019A02941A6B57
:1026400042F002021A631B6B03F002030293029B27
:102650000C230DEB030102270326052503930497A2
:1026600006960795FEF756F84FF4A05303A90748BE
:1026700003930497059406960795FEF74BF809B067
:10268000F0BD00BF003800400008024000040240D6
:102690001FB50368B3F1804F16D1002203F50E3346
:1026A0000192196C41F0010119641B6C03F00103E4
:1026B00001931C201146019BFDF7D4FF1C20FEF75F
:1026C00005F805B05DF804FB124A934211D10022CF
:1026D000114B0292196C41F0020119641B6C03F05A
:1026E000020302931D201146029BFDF7BBFF1D2034
:1026F000E5E70A4A9342E4D100230393064B1A6CA0
:1027000042F004021A641B6C03F004030393039B5E
:10271000D7E700BF00040040003802400008004036
:1027200010B5044688B01422002103A800F0C6F8B2
:102730002268134B9A4220D103F5FA33002101910C
:102740001A6C104842F400321A641A6C02F4003217
:102750000192019A02911A6B42F001021A631B6BFB
:1027600003F001030293029B0C23039302230493BF
:1027700003A907230793FDF7CDFF08B010BD00BFE5
:1027800000440040000002407047FEE7FEE7FEE71D
:10279000FEE7704770477047FDF740BF1020FEF717
:1027A0008DB800000148FEF7E5BC00BFA005002081
:1027B0000148FEF7DFBC00BF3C0100204FF4005091
:1027C000FEF77CB808B50A4B1968024609B90949F1
:1027D00019601868694602448A4206D900F044F834
:1027E0000C2303604FF0FF3008BD1A6008BD00BF26
:1027F00094000020100A0020054BD3F8882042F4F2
:102800007002C3F888204FF000629A60704700BFE2
:1028100000ED00E0DFF834D0002103E00C4B5B5802
:10282000435004310B480C4B42189A42F6D30B4AE2
:1028300002E0002342F8043B094B9A42F9D3FFF728
:10284000DBFF00F017F8FFF723F870470080012046
:1028500004320008000000207000002070000020FA
:10286000100A0020FEE70000014B1868704700BF07
:102870000C00002070B50D4E0D4CA41BA4100025BB
:10288000A54209D10B4E0C4C00F060FCA41BA41017
:102890000025A54205D170BD56F825309847013571
:1028A000EEE756F8253098470135F2E7FC3100088D
:1028B000FC310008FC3100080032000802440346E5
:1028C000934200D1704703F8011BF9E70EB400B53D
:1028D0009CB04FF402711DABADF81410029006903D
:1028E0006FF000410A48049107914FF6FF7153F8C9
:1028F000042BADF816100068019302A900F088F8C7
:10290000029B00221A701CB05DF804EB03B0704704
:102910000C000020034611F8012B03F8012B002ABC
:10292000F9D17047F0B5037833B1034618465E1C01
:102930001B7833B91846F0BD0B78002B18BF002068
:10294000F0BD4D1E441E15F8012F002AF3D014F8D7
:10295000017F97423346F6D0E8E72DE9F0478E68CD
:102960009E4282460C469146984635D88A8912F492
:10297000906F31D0256809696F1A6569022305EBEC
:10298000450595FBF3F508F101033B449D4238BF33
:102990001D46530531D5294600F038FB064650B98F
:1029A0000C23CAF80030A38943F04003A3814FF001
:1029B000FF30BDE8F0873A46216900F0B3FAA389F9
:1029C00023F4906343F08003A381266165613E4454
:1029D000ED1B2660A5604646464528BF4646324662
:1029E0004946206800F0A9FAA3689B1BA3602368EE
:1029F0001E4426600020BDE8F0872A4600F064FBF4
:102A000006460028E1D12169504600F0B1FAC7E737
:102A10002DE9F04F9DB0804603938B891C060D462F
:102A200016460FD50B696BB9402100F0EFFA28600C
:102A3000286128B90C23C8F800304FF0FF30C5E0FA
:102A400040236B610023099320238DF82930302324
:102A50008DF82A304FF0010B37463C4614F8013B05
:102A6000002B3CD1B7EB060A0BD053463246294621
:102A70004046FFF772FF013000F0A380099B5344EA
:102A800009933B78002B00F09C8000234FF0FF322D
:102A900004930793059206938DF853301A930522F9
:102AA00021785048FDF7A4FB671C049BD8B9D906D0
:102AB00044BF20228DF853201A0744BF2B228DF8E3
:102AC000532022782A2A16D0079A00210A20274666
:102AD00001343B78303B092B51D9C9B111E0252B8A
:102AE000C0D02746B9E73F4A801A0BFA00F01843D6
:102AF00004903C46D3E7039A111D12680391002A03
:102B000001DB079204E0524243F002030792049370
:102B10003B782E2B0ED17B782A2B07F1010132D185
:102B2000039B1A1D1B680392002BB8BF4FF0FF33A5
:102B3000023705932C4C397803222046FDF758FBC9
:102B400038B14023001B03FA00F0049B03430493B5
:102B50000137397825488DF8281006227E1CFDF7AC
:102B600047FB002835D0224BFBB9039B073323F0EA
:102B7000070308330393099B4B4409936CE700FB5D
:102B800002320121A3E70023059318460A240F46C9
:102B900001313A78303A092A03D9002BCAD005907E
:102BA000C8E704FB00200123F1E703AB00932A46AA
:102BB000104B04A94046AFF30080B0F1FF3F8146BF
:102BC000D9D1AB895B063FF538AF09981DB0BDE898
:102BD000F08F03AB00932A46064B04A9404600F051
:102BE00081F8EAE7C0310008C6310008CA310008A0
:102BF000000000005B2900082DE9F04791461F46C0
:102C00008A680B69DDF820809342B8BF1346C9F883
:102C1000003091F8432006460C4612B10133C9F842
:102C200000302368990642BFD9F800300233C9F852
:102C30000030256815F0060507D104F1190AE3688C
:102C4000D9F800209B1A9D4229DB94F84330226872
:102C5000003318BF012392062ED404F143023946F3
:102C60003046C047013021D02368E568D9F80020FC
:102C700003F00603042B08BFAD1AA36822690CBF3A
:102C800025EAE57500259342C4BF9B1AED184FF065
:102C900000091A344D451BD10020BDE8F0870123FF
:102CA000524639463046C047013003D14FF0FF301D
:102CB000BDE8F0870135C2E7E1185A1C302081F8E1
:102CC0004300224494F8451082F843100233C4E7CD
:102CD0000123224639463046C0470130E6D009F18B
:102CE0000109D7E72DE9F04317460A7E85B06E2A21
:102CF000984606460C460C9B01F1430E00F0BC8042
:102D00001AD8632A2ED00AD8002A00F0C880582A80
:102D100000F08A8004F1420584F842202AE0642A07
:102D200001D0692AF6D121681A6811F0800F23D0EA
:102D3000111D1960136827E0732A00F0B48008D8C9
:102D40006F2A2AD0702AE5D10A6842F020020A6070
:102D500003E0752A21D0782ADCD1782284F8452036
:102D60006E4964E01A6801F14205111D196013688B
:102D700084F842300123A3E011F0400F02F1040176
:102D80001960D7D0B2F90030002B03DA2D225B4254
:102D900084F8432062490A2217E02068196810F07D
:102DA000800F03D0081D18600B6806E010F0400F7C
:102DB00001F104001860F7D00B8859496F2A14BF3D
:102DC0000A220822002084F843006568A560002DCF
:102DD000C0F29C80206820F004002060002B3FD1CE
:102DE000002D40F095807546082A0BD12368DA073C
:102DF00008D5236962689A42DEBF302305F8013C9A
:102E000005F1FF35AEEB05032361CDF800803B46AD
:102E100003AA21463046FFF7EFFE013055D14FF0AF
:102E2000FF3005B0BDE8F08381F845203C492268B9
:102E3000186812F0800F00F104051D6001D00368CE
:102E400002E05506FBD50388D00744BF42F02002BC
:102E500022601BB9226822F0200222601022B1E712
:102E60007546B3FBF2F002FB1033CB5C05F8013D75
:102E700003460028F5D1B7E708681A68496910F0D9
:102E8000800F04D0101D18601368196007E010F05F
:102E9000400F02F1040018601368F6D01980002377
:102EA00023617546B1E71A68111D196015686268DB
:102EB00000212846FDF79CF908B1401B606063685B
:102EC0002361002384F843309FE723692A4639466B
:102ED0003046C0470130A2D023689B0707D50025A4
:102EE00004F11909E368039A9B1A9D4205DBE06827
:102EF000039B9842B8BF184693E701234A463946D8
:102F00003046C04701308AD00135EBE7002BA7D10E
:102F10000B7884F8423004F1420565E7E23100089D
:102F2000D131000810B5431E0A44914200D110BDB2
:102F300011F8014B03F8014FF7E7884210B501EB98
:102F4000020303D8421E99420CD110BD9842F9D217
:102F50008118D21AD34200D110BD13F8014D01F8E7
:102F6000014DF7E711F8014B02F8014FEBE70000C4
:102F700038B50546002945D051F8043C0C1F002BFC
:102F8000B8BFE41800F0D6F81F4A1368104633B9EA
:102F9000636014602846BDE8384000F0CCB8A34216
:102FA0000CD921686218934204BF1A685B68636099
:102FB00004BF521822600460ECE713465A680AB155
:102FC000A242FAD919685818A0420BD120680144CE
:102FD000581882421960DDD1106852685A60014465
:102FE0001960D7E702D90C232B60D3E7206821189A
:102FF0008A4204BF11685268626004BF09182160E8
:103000005C60C7E738BD00BF9800002070B5CD1CDC
:1030100025F0030508350C2D38BF0C25002D06467C
:1030200001DBA94203D90C233360002070BD00F0FE
:1030300081F8234A1468214691B9224C23681BB9B0
:10304000304600F067F820602946304600F062F80C
:10305000431C26D10C233360304600F06CF8E4E7C3
:103060000B685B1B1AD40B2B0FD90B60CD50CC18FF
:10307000304600F060F804F10B00231D20F007003B
:10308000C31A1BD05A42E25070BD8C420DBF636818
:103090004B686360136018BF0C46E9E70C4649684B
:1030A000CAE7C41C24F00304A04205D0211A30460C
:1030B00000F030F80130CDD02560D9E770BD00BFF9
:1030C000980000209C000020F8B5074614460E46E4
:1030D00021B91146BDE8F840FFF798BF22B9FFF7C4
:1030E00047FF25462846F8BD00F026F884420FD950
:1030F00021463846FFF78AFF05460028F2D03146C0
:103100002246FFF70FFF31463846FFF731FFE9E768
:103110003546E7E738B5064C0023054608462360E8
:10312000FFF750FB431C02D1236803B12B6038BD6D
:103130000C0A00207047704751F8040C0028A0F1D9
:103140000400BCBF0B58C01870470000F8B500BFA2
:10315000F8BC08BC9E467047F8B500BFF8BC08BC78
:043160009E467047D0
:103164002073746D333266343031210A0D2000200F
:103174007374617274696E67210A0D20007374257B
:1031840064006C6431660073657474696E677320DF
:1031940025730D0A006C64316E00010203040501FD
:1031A4000203040600000000000000000102030402
:1031B400060708090000000001020304232D302B38
:1031C4002000686C4C006566674546470030313224
:1031D400333435363738394142434445460030317B
:1031E40032333435363738396162636465660000DA
:0831F400CCD0FF7F01000000B8
:0431FC00C501000801
:04320000A101000820
:1032040001000000100000000024F4001000002061
:1032140000000000000000000000000000000000AA
:10322400000000000000000000000000000000009A
:10323400000000000000000000000000000000008A
:10324400000000000000000000000000000000007A
:10325400000000000000000000000000000000006A
:10326400000000000000000000000000000000005A
:0400000508002815B2
:00000001FF
