:020000040800F2
:1000000000000220C1560008595400085B54000843
:100010005D5400085F5400086154000800000000AF
:100020000000000000000000000000006354000811
:100030006554000800000000675400086954000877
:1000400011570008115700081157000811570008F0
:1000500011570008115700081157000811570008E0
:1000600011570008115700081157000811570008D0
:1000700011570008115700081157000811570008C0
:1000800011570008115700081157000811570008B0
:1000900011570008115700081157000811570008A0
:1000A0001157000811570008115700081157000890
:1000B0001157000811570008115700081157000880
:1000C0001157000811570008115700081157000870
:1000D0001157000811570008115700081157000860
:1000E0006D54000811570008000000001157000867
:1000F0001157000811570008115700081157000840
:10010000115700081157000811570008115700082F
:10011000115700081157000811570008115700081F
:10012000115700081157000811570008115700080F
:1001300011570008115700081157000811570008FF
:1001400000000000000000000000000000000000AF
:1001500011570008115700081157000811570008DF
:1001600011570008115700081157000811570008CF
:10017000115700081157000811570008000000002F
:1001800011570008115700081157000811570008AF
:10019000115700081157000811570008115700089F
:1001A000115700081157000811570008115700088F
:1001B000115700081157000811570008115700087F
:1001C000115700081157000811570008115700086F
:1001D000115700081157000811570008115700085F
:1001E000115700081157000811570008115700084F
:1001F000115700081157000811570008115700083F
:10020000115700081157000811570008115700082E
:10021000115700081157000811570008115700081E
:10022000115700081157000811570008000000007E
:10023000115700081157000800000000115700086E
:1002400011570008115700081157000811570008EE
:1002500011570008115700081157000811570008DE
:1002600011570008115700081157000811570008CE
:10027000115700081157000811570008000000002E
:10028000115700081157000811570008000000001E
:080290000000000011570008F6
:1002A00010B5054C237833B9044B13B10448AFF3B0
:1002B00000800123237010BD9C000020000000007E
:1002C0000C69000808B5034B1BB103490348AFF3A1
:1002D000008008BD00000000A00000200C6900089C
:1002E000034613F8012B002AFBD1181A0138704776
:1002F00001F0FF01102A2BDB10F0070F08D010F8D7
:10030000013B013A8B422DD010F0070F42B3F6D1DA
:10031000F0B441EA012141EA014122F007047FF0F3
:1003200000070023F0E80256083C85EA010586EA4A
:10033000010685FA47F5A3FA87F586FA47F6A5FA86
:1003400087F68EB9EED1F0BC01F0FF0102F0070292
:1003500032B110F8013B013A83EA010313B1F8D13D
:100360000020704701387047002D06BF354603381E
:10037000073815F0010F07D1013015F4807F02BF57
:10038000013015F4C03F0130F0BC0138704700BFA8
:1003900053B94AB9002908BF00281CBF4FF0FF31EC
:1003A0004FF0FF3000F07AB9ADF1080C6DE904CEE2
:1003B00000F006F8DDF804E0DDE9022304B0704740
:1003C0002DE9F0478C460D460446089E002B51D17E
:1003D0008A4217466DD9B2FA82FEBEF1000F0BD0E9
:1003E000CEF1200C01FA0EF520FA0CFC02FA0EF701
:1003F0004CEA050C00FA0EF44FEA174A250CBCFB38
:10040000FAF81FFA87F90AFB18CC45EA0C4508FBF5
:1004100009F3AB420AD9ED1908F1FF3280F02381CC
:10042000AB4240F22081A8F102083D44ED1AA4B28B
:10043000B5FBFAF00AFB105544EA054400FB09F944
:10044000A14509D9E41900F1FF3380F00A81A145E3
:1004500040F2078102383C44A4EB090440EA08401A
:100460000021002E61D024FA0EF400233460736062
:10047000BDE8F0878B4207D9002E54D0002186E8D2
:1004800021000846BDE8F087B3FA83F1002940F067
:100490008E80AB4202D3824200F2FA80841A65EB6E
:1004A00003050120AC46002E3FD086E81010BDE8C1
:1004B000F08712B90127B7FBF2F7B7FA87FEBEF152
:1004C000000F34D1EB1B3A0C1FFA87FC0121B3FB60
:1004D000F2F8250C02FB183345EA03450CFB08F340
:1004E000AB4207D9ED1908F1FF3002D2AB4200F25E
:1004F000D1808046ED1AA3B2B5FBF2F002FB105595
:1005000043EA05440CFB00FCA44507D9E41900F1BB
:10051000FF3302D2A44500F2B8801846A4EB0C04C5
:1005200040EA08409DE731463046BDE8F087CEF10D
:10053000200405FA0EF307FA0EF720FA04F83A0C35
:1005400025FA04F448EA0308B4FBF2F14FEA18452F
:1005500002FB11441FFA87FC45EA044501FB0CF33A
:10056000AB4200FA0EF409D9ED1901F1FF3080F029
:100570008A80AB4240F2878002393D44EB1A1FFA71
:1005800088F5B3FBF2F002FB103345EA034500FBAC
:100590000CF3AB4207D9ED1900F1FF386FD2AB4233
:1005A0006DD902383D44EB1A40EA01418FE7C1F1B1
:1005B000200722FA07F88B4005FA01F448EA030302
:1005C00020FA07FE4FEA134CFD404EEA040EB5FB3D
:1005D000FCF94FEA1E440CFB19551FFA83F844EA54
:1005E000054509FB08F4AC4202FA01F200FA01FAEF
:1005F00008D9ED1809F1FF3043D2AC4241D9A9F135
:1006000002091D442D1B1FFA8EFEB5FBFCF00CFBEE
:1006100010554EEA054400FB08F8A04507D9E41838
:1006200000F1FF3529D2A04527D902381C4440EA01
:100630000940A4EB0804A0FB02894C45C6464D4680
:1006400015D312D056B1BAEB0E0364EB050404FACD
:1006500007F7CB401F43CC40376074600021BDE8F2
:10066000F0871846F8E69046E0E6C245EAD2B8EBD5
:10067000020E69EB03050138E4E72846D7E7404658
:1006800091E78146BEE7014678E702383C4445E7FA
:10069000084608E7A8F102083D442BE7704700BF71
:1006A00038B50F4B0546187808B9012038BD4FF40E
:1006B0007A730C4AB3FBF0F31068B0FBF3F000F070
:1006C000C5F804460028F0D10F2DEED80246294681
:1006D0004FF0FF3000F074F8034B20461D6038BD2A
:1006E00000000020300000200400002010B503208E
:1006F00000F054F800F0DAFC0F49104A8B69C3F39C
:100700000323D35C03F01F03D8400D4B18608B69A3
:1007100003F00F03D35C03F01F03D840094B1860AC
:100720000020FFF7BDFF044618B904F0D1FD2046B4
:1007300010BD0124FBE700BF00440258DA6D000839
:100740003000002034000020034A044B11681B785D
:100750000B441360704700BFE80100200000002038
:10076000014B1868704700BFE801002038B5044607
:10077000FFF7F6FF0546631C1EBF044B1B78E41809
:10078000FFF7EEFF401B8442FAD838BD000000207E
:10079000014B1868000C70470010005C074A00020B
:1007A000D36800F4E06023F4E0631B041B0C43F007
:1007B000BF6343F400330343D360704700ED00E0B0
:1007C000194B30B5DC68C4F30224C4F10703251DBE
:1007D000042B28BF0423062D4FF001058CBF033CDA
:1007E000002405FA03F3002803F1FF3301EA0301B3
:1007F00001FA04F105FA04F404F1FF3402EA0402F8
:1008000042EA01024FEA021207DB00F16040D2B275
:1008100000F5614080F8002330BD00F00F00D2B237
:10082000024B1A5430BD00BF00ED00E014ED00E0B3
:10083000002808DB4209012300F01F0003FA00F042
:10084000014B43F82200704700E100E00138B0F1AD
:10085000807F0AD2064BF021064A5860002082F8B9
:100860002310072298601A6070470120704700BF6C
:1008700010E000E000ED00E02DE9F04F0B6885B0DE
:10088000DFF8C0814FF0B04901930023DFF8B8C111
:10089000019ADA4002D105B0BDE8F08F0127019A34
:1008A0009F4012EA070500F0B7804A6822F0100660
:1008B000022E16D14FEAD30A03F0070B4FF00F0EAA
:1008C00000EB8A0A4FEA8B0BDAF820400EFA0BFE97
:1008D00024EA0E0E0C6904FA0BF444EA0E04CAF87A
:1008E00020404FEA430A0324D0F800B002F0030E80
:1008F00004FA0AF4013E0EFA0AFEE443012E0BEA62
:10090000040B4EEA0B0EC0F800E010D8866806EA29
:10091000040BCE6806FA0AFE4EEA0B0686604668AD
:1009200026EA0707C2F300169E4037434760C668B1
:1009300034408E6806FA0AF63443C460D4006BD59E
:10094000D8F8F44023F0030603F003074FF00F0E2E
:1009500044F0020406F1B046BF00C8F8F44006F5C2
:100960008066D8F8F44004F002040394039C0EFA65
:1009700007F4D6F808A02AEA040E314CA0424DD064
:1009800004F58064A0424BD004F58064A04249D0B5
:1009900004F58064A04247D004F58064A04245D0AD
:1009A00004F58064A04243D004F58064A04241D0A5
:1009B00004F58064A0423FD004F58064A0423DD09D
:1009C00004F58064A04214BF0A240924BC40D70364
:1009D00044EA0E04B4606FEA0506DCF8004054BF38
:1009E00034402C439703CCF80040DCF8044054BF5B
:1009F00034402C43D7024FF0B047CCF80440D9F82C
:100A0000004054BF34402C4392023C607C6854BF89
:100A100034402C43C9F80440013339E70024D5E7BA
:100A20000124D3E70224D1E70324CFE70424CDE750
:100A30000524CBE70624C9E70724C7E70824C5E750
:100A40000000025800440258800000580AB1816139
:100A500070470904FBE7704708B5044B99680142E9
:100A600002D09860FFF7F7FF08BD00BF8000005874
:100A7000F0B504468BB060B390F8BD33056803F061
:100A8000FF021BB980F8BC2304F0A4FC03236E46CC
:100A9000271D84F8BD33EB6B254613F4807355F89E
:100AA000100B08BF236103F05AFB0FCD0FC60FCD0B
:100AB0000FC695E80300254686E8030097E80E0078
:100AC00055F8100B03F00AFB064620B1022384F808
:100AD000BD33012554E00146206803F046FB304653
:100AE000D4F804E01C264FF0010C0146C2B20130DC
:100AF00096451BD800231C261946D8B201338645DB
:100B000022D80FCD6E460FC60FCD0FC695E8030055
:100B100086E8030097E80E00206803F067FB0123D6
:100B2000054600B3022284F8BD23D2E706FB024348
:100B300083F83DC083F83C20A3F8422083F83F109F
:100B4000596499641965D1E706FB004282F8FD11EA
:100B500082F8FC0182F8FF11C2F80412C2F80812F0
:100B6000C2F81012C9E784F8380084F8BD33636A0C
:100B7000012B02D1204600F006F8206803F0F6FBB6
:100B800028460BB0F0BD012102680346C0F8FC13F3
:100B9000002083F8F403936943F000639361536D7D
:100BA00043F0805343F003035365704738B5114B4E
:100BB000DA6812F0040F1A4604D1DB6803F0070369
:100BC000834215D1D3680B4C23F007031843D06040
:100BD000FFF7C6FD054663689B0401D5002038BDBC
:100BE000FFF7BEFD401BB0F57A7FF4D9032038BD76
:100BF000012038BD00480258024AD36843F0807390
:100C0000D360704700480258F8B5054608B901207E
:100C1000F8BD0368D9075AD42B689A0700F1A7805A
:100C20002B68DA0623D5A84B1A69996A02F03802B4
:100C3000082A07D0182A40F0F98001F00302012A9F
:100C400040F0F4801B68DB0502D5EB69802BDED118
:100C5000FFF79EFD41F203039B4A9842296A00F286
:100C6000DE80536823F0F84343EA816353602B68C6
:100C7000190700F114812B689A0600F13A812B685C
:100C80005C071ED5914C236843F480732360FFF703
:100C900067FD06462368DA0540F15081AB688A4C4F
:100CA000012B40F05281236F43F00103236741F28F
:100CB0008834FFF755FD844E0746336F9B0740F19C
:100CC0006A816A6A002A40F06D810020F8BD7E4B7F
:100CD0001A69996A02F03802102A05D0182A0AD136
:100CE00001F00302022A06D11B689B0394D56B68AE
:100CF000002B91D18BE76B68734CB3F5803F11D11A
:100D0000236843F480332360FFF72AFD6E4C0646C8
:100D100023689F0380D4FFF723FD801B6428F7D945
:100D20000320F8BDA3B9236823F48033236023682C
:100D300023F480232360FFF713FD064623689803FE
:100D40007FF56AAFFFF70CFD801B6428F6D9E7E753
:100D5000B3F5A02F236803D143F480232360CFE7AA
:100D600023F480332360236823F48023CBE7564B9E
:100D7000EA681969986A11F0380103D018292BD153
:100D8000810729D11B685B0702D5002A3FF43FAFDA
:100D90004D4C236823F0190313432360FFF7E0FC55
:100DA000064623685F0711D5FFF7F2FC41F2030303
:100DB0002A699842636895BF23F47C3323F0FE438D
:100DC00043EA023343EA0263636029E7FFF7C8FCA2
:100DD000801B0228E5D9A3E73B4C23687AB123F0B6
:100DE000190313432360FFF7BBFC0646236858072B
:100DF000DAD4FFF7B5FC801B0228F7D990E723F07F
:100E000001032360FFF7ACFC0646236859077FF512
:100E100007AFFFF7A5FC801B0228F6D980E7D3684F
:100E200023F07C5343EA0163D36020E7EB69264C4F
:100E300023B3236843F080032360FFF791FC064649
:100E40002368DF050DD5FFF7A3FC41F203032A6AEF
:100E500098420CD8636823F0F84343EA82636360E6
:100E600005E7FFF77DFC801B0228E9D958E7E36816
:100E700023F07C5343EA0263E360F8E6236823F03F
:100E800080032360FFF76CFC06462368D8057FF5D6
:100E9000EEAEFFF765FC801B0228F6D940E76B69D0
:100EA000094CABB1636F43F001036367FFF758FC74
:100EB0000646636F9B073FF5DEAEFFF751FC801BD4
:100EC0000228F6D92CE700BF004402580048025817
:100ED000636F23F001036367FFF742FC0646636F0D
:100EE0009F077FF5C8AEFFF73BFC801B0228F6D9B1
:100EF00016E7AB696C4C83B1236843F480532360DD
:100F0000FFF72EFC0646236898043FF5B8AEFFF7BE
:100F100027FC801B0228F6D902E7236823F48053BC
:100F20002360FFF71DFC0646236899047FF5A7AEF2
:100F3000FFF716FC801B0228F6D9F1E6FFF710FC3C
:100F4000801B64287FF6A6AEEAE6B3B9236F41F2B0
:100F5000883723F001032367236F23F004032367FB
:100F6000FFF7FEFB0646236F98077FF5AAAEFFF753
:100F7000F7FB801BB842F6D9D2E6052B236F03D1CD
:100F800043F0040323678EE623F001032367236FF6
:100F900023F004038AE6FFF7E3FBC01BA0427FF6C1
:100FA0008CAEBDE6404C236903F03803182B3FF4A8
:100FB0002EAE2368022A23F08073236067D1FFF7E7
:100FC000CFFB0646236899015BD4A36AAA6A23F47F
:100FD0007C7323F003031343EA6A43EA0213A36218
:100FE0006B6BAA6B013B013A5B0212049BB202F4E9
:100FF000FE0213432A6B013AC2F308021343EA6B61
:10100000013A120602F0FE4213432363E36A23F01F
:101010000103E362636BAA6C23F47F4323F0F803BC
:1010200043EAC2036363E36A2A6C23F00C031343AD
:10103000E362E36A6A6C23F002031343E362E36A48
:1010400043F48033E362E36A43F40033E362E36A28
:1010500043F48023E362E36A43F00103E36223681D
:1010600043F080732360FFF77BFB0F4C054623683A
:101070009A013FF52AAEFFF773FB401B0228F6D911
:101080004EE6FFF76DFB801B02289BD948E6FFF771
:1010900067FB054623689B017FF517AEFFF760FBF2
:1010A000401B0228F6D93BE600440258484B1A6917
:1010B00002F03802102A10B50ED0182A0ED0002ADD
:1010C00040F083801A68434812F0200F7ED01B68DE
:1010D000C3F3C103D84010BD3F4810BD996A986A58
:1010E000DA6AC0F305105C6B00286FD0C4F3CC043F
:1010F00002F001029FED395AF7EE005A624307EE03
:10110000902A01F00302B8EEE76A012A07EE900A7E
:10111000F8EEE76A02D00FD3022A48D01B6BC3F364
:10112000080307EE903AF8EEE77AE6EE057A9FEDCF
:101130002C6A77EEA57A37E01A68920627D51968E7
:10114000244AC1F3C1011B6BCA40C3F3080307EE75
:10115000902AF8EEE77A87EEA67A07EE903AF8EE54
:10116000E77AE6EE057A77EEA57A194B67EE877A8D
:101170001B6BC3F34623013307EE103AF8EEC76A40
:1011800087EEA67AFCEEC77A17EE900A10BD1B6BAD
:10119000C3F3080307EE903AF8EEE77AE6EE057A35
:1011A0009FED106A77EEA57A86EE267ADDE71B6B57
:1011B000C3F3080307EE903AF8EEE77AE6EE057A15
:1011C0009FED096A77EEA57AEEE7084810BD00BFEB
:1011D000004402580090D00300127A000000003949
:1011E0000024744A0024744C0024F44A00093D0091
:1011F0002DE9F0410D46044610B90120BDE8F0810B
:10120000844A136803F00F038B42C0F0898023687F
:101210005F0700F191801E070BD57F496669C86999
:1012200000F07000864204D9CA6922F0700232438D
:10123000CA61D8060BD57849A669C86900F4E06090
:10124000864204D9CA6922F4E0623243CA6199062F
:101250000BD57149E669086A00F07000864204D92E
:101260000A6A22F0700232430A629A070BD56A4971
:10127000E668886900F00F00864204D98A6922F086
:101280000F0232438A61DF0764D423689E0700F1AE
:10129000988060490A6802F00F029542C0F09F8072
:1012A000580700F1A88019070BD55B496569C86923
:1012B00000F07000854204D2CA6922F070022A430D
:1012C000CA61DA060BD55449A569C86900F4E06023
:1012D000854204D2CA6922F4E0622A43CA619B06AD
:1012E0000BD54D4AE069116A01F07001884204D2C1
:1012F000136A23F0700303431362FFF7D7FE464BD4
:10130000464A9B69C3F30323D35C03F01F03D84011
:10131000434B1860434BBDE8F0411868FFF7C0B974
:10132000136823F00F030B431360136803F00F03DC
:1013300099427FF462AF6AE737492669886900F00D
:10134000700086427FF667AF8A6922F070023243EE
:101350008A6160E7304BA1689A6922F470620A439F
:101360009A6161681A6802291ED112F4003F3FF4A5
:1013700044AF1A6941F28838274E22F007020A4327
:101380001A61FFF7EDF907463369626803F0380325
:10139000B3EBC20F3FF479AFFFF7E2F9C01B404552
:1013A000F2D90320BDE8F081032902D112F0007FB9
:1013B000DDE7012902D112F4807FD8E712F0040F93
:1013C000D5E71549E668886900F00F008642BFF44A
:1013D00060AF8A6922F00F0232438A6159E70A68D6
:1013E00022F00F022A430A600A6802F00F029542B7
:1013F0007FF403AF54E708492569886900F070005D
:101400008542BFF450AF8A6922F070022A438A6194
:1014100049E700BF0020005200440258DA6D00087E
:10142000300000200400002008B500F0E9FE064B63
:10143000064A9B6903F00F03D35C03F01F03D840F7
:10144000034B186008BD00BF00440258DA6D000865
:101450003400002008B5FFF7E7FF054B054ADB69BC
:10146000C3F30213D35C03F01F03D84008BD00BFD1
:1014700000440258DA6D000808B5FFF7D5FF054BA8
:10148000054ADB69C3F30223D35C03F01F03D84092
:1014900008BD00BF00440258DA6D0008F8B53A4CA8
:1014A00006460D46A36A03F00303032B69D02368A5
:1014B00023F080632360FFF753F9074623681A017E
:1014C0004BD4A36A326823F47C3343EA0233A36229
:1014D000B368F268013B013A5B0212049BB202F46A
:1014E000FE0213437268013AC2F3080213433269E1
:1014F000013A120602F0FE421343A363E36A7269E3
:1015000023F0C0031343E362E36AB26923F02003CC
:101510001343E362E36A23F01003E362E36BF269CF
:1015200023F47F4323F0F80343EAC203E363E36A4F
:1015300043F01003E362E36AB5B943F40023E362C6
:10154000114C236843F080632360FFF709F90546D7
:1015500023681B010FD50020F8BDFFF701F9C01B60
:101560000228ABD90320F8BD012D0CBF43F4801332
:1015700043F40013E3E7FFF7F3F8401B0228E7D931
:10158000F0E70120F8BD00BF00440258F8B53A4C1E
:1015900006460D46A36A03F00303032B69D02368B4
:1015A00023F080532360FFF7DBF8074623689A0097
:1015B0004BD4A36A326823F07C7343EA0253A362DC
:1015C000B368F268013B013A5B0212049BB202F479
:1015D000FE0213437268013AC2F3080213433269F0
:1015E000013A120602F0FE4213432364E36A726971
:1015F00023F440631343E362E36AB26923F40073A4
:101600001343E362E36A23F48073E362636CF26979
:1016100023F47F4323F0F80343EAC2036364E36ADD
:1016200043F48073E362E36AB5B943F48003E36291
:10163000114C236843F080532360FFF791F805466F
:1016400023689B000FD50020F8BDFFF789F8C01B69
:101650000228ABD90320F8BD012D0CBF43F40003D1
:1016600043F08073E3E7FFF77BF8401B0228E7D9DC
:10167000F0E70120F8BD00BF004402582DE9F8430F
:101680000668044616F0006623D0436EB3F5801F4B
:1016900018D002D883B101261BE0B3F5001F23D078
:1016A000B3F5401FF7D19F4A0026616E136D23F4F6
:1016B00040130B4313650CE09A4AD36A43F400339A
:1016C000D362F0E702210430FFF7E8FE0646002867
:1016D000E9D02368DD0534D5636D042B30D8DFE80D
:1016E00003F0080F290D0D0002212430FFF74EFFF3
:1016F000ECE78C4AD36A43F40033D362354604E006
:101700000021201DFFF7CAFE0546E5B9854A616D37
:10171000136D23F007030B4313652368980521D548
:10172000A36D802B3BD010D86BB3402B31D001265A
:10173000354617E0002104F12400FFF727FFE3E717
:1017400001263546E9E72E46E7E7C02B02D0B3F580
:10175000807FECD14DBB734AA16D136D23F4E07310
:101760000B4313652368590530D5D4F8A430B3F57D
:10177000800F47D01BD8002B38D0B3F5001F3BD0CB
:101780000126354622E0674AD36A43F40033D36228
:10179000E0E70021201DFFF781FE0546DAE7002182
:1017A00004F12400FFF7F2FEF7E72E46DAE7B3F57F
:1017B000C00F02D0B3F5000FE2D14DBB594AD4F8A7
:1017C000A410936D23F460030B43936523681A05FB
:1017D0002FD5D4F8A830B3F1007F41D01AD89BB3ED
:1017E000B3F1807F36D00126354622E04D4AD36AD8
:1017F00043F40033D362E0E70021201DFFF74EFEE3
:101800000546DAE7002104F12400FFF7BFFEF7E701
:101810002E46DBE7B3F1407F02D0B3F1806FE2D117
:1018200025BB404AD4F8A810936D23F0E0630B4326
:10183000936523689B0127D5A36C102B33D017D851
:10184000D3B1012635461FE0364AD36A43F400334C
:10185000D362E5E70021201DFFF720FE0546DFE704
:10186000002104F12400FFF791FEF7E72E46E0E7A0
:10187000202B1ED0302BE4D10DBB2A4AA16CD36C97
:1018800023F030030B43D3642368DF0427D5E36DD3
:10189000B3F5005F3ED014D883B3B3F5805F33D087
:1018A000012635461BE01F4AD36A43F40033D36256
:1018B000E2E70221201DFFF7F1FD0546DCE72E4699
:1018C000E2E7B3F5405F02D0B3F5804FE8D13DBB0E
:1018D000144AE16D136D23F4E0430B431365236851
:1018E000980432D5236EB3F5003F44D01CD823B3FF
:1018F000B3F5803F39D00126354626E0094AD36A40
:1019000043F40033D362E2E70021201DFFF7C6FD58
:101910000546DCE7002104F12400FFF737FEF7E776
:101920002E46DCE700440258B3F5802F05D0B3F50E
:10193000A02F02D0B3F5403FDDD115BBA04A216EE8
:10194000136D23F4E0230B431365236859042DD54D
:10195000D4F8AC30B3F1005F4BD014D8E3B1B3F19D
:10196000805F40D00126354620E00121201DFFF791
:1019700095FD0546E1E7012104F12400FFF706FE8D
:10198000F7E72E46E1E7B3F1804F05D0B3F1A04F62
:1019900002D0B3F1405FE5D1002D30D1884AD4F8B0
:1019A000AC10936D23F0E0430B43936523681A0456
:1019B0000FD5E36EB3F1805F23D0B3F1005F26D083
:1019C0005BBB6DBB7E4AE16E136D23F040530B434E
:1019D00013652368DB0133D5636C032B7DD8DFE807
:1019E00003F0262176260121201DFFF757FD05462D
:1019F000D2E7012104F12400FFF7C8FDF7E72E46E6
:101A0000D4E76F4AD36A43F40033D362D9E70121A4
:101A1000201DFFF743FD0546D3E701263546D8E7ED
:101A20002E46D6E7664AD36A43F40033D362002DCC
:101A300056D1634A616CD36C23F003030B43D36428
:101A400023685F0256D55F4F3B6843F480733B6069
:101A5000FEF786FE80463B68D80543D5002D61D150
:101A6000574BD4F8B0001A6F424012F4407F0BD0AD
:101A70001A6F196F22F4407241F480311967196F9F
:101A800021F4803119671A67B0F5807F08D1FEF71D
:101A900067FE4B4F804641F288393B6F990736D538
:101AA000D4F8B030464903F44072B2F5407F35D1E6
:101AB0000869454A20F47C5002EA131202430A6185
:101AC000C3F30B033E4A116F0B43136712E002216D
:101AD000201DFFF7E3FC0546A9E701263546AFE7E1
:101AE0002E46ADE7FEF73CFEA0EB08006428B2D915
:101AF000032635462368DA0724D5A36F102B32D08E
:101B000012D8BBB1082B28D0012635461AE0FEF7C3
:101B100027FEA0EB08004845BFD9E9E70A6922F48F
:101B20007C52CCE72E46E5E7202B03D0282B01D0B2
:101B3000182BE9D1EDB9224AA16F536D23F0380378
:101B40000B43536523689B0722D5636F052B31D860
:101B5000DFE803F016112A1616160121201DFFF7E3
:101B60009DFC0546E6E7012104F12400FFF70EFD88
:101B7000F7E72E46E6E70121201DFFF78FFC05461B
:101B8000DDB90F4A616F536D23F007030B435365B3
:101B900023685F0728D5D4F89030052B3AD8DFE8C2
:101BA00003F01A15331A1A1A012104F12400FFF761
:101BB000EDFCE4E701263546EAE72E46E8E700BFFC
:101BC0000044025800480258CFFFFF000121201DA9
:101BD000FFF764FC054605BB974AD4F89010936D57
:101BE00023F007030B4393652368980629D5D4F89F
:101BF0008C30B3F1005F3AD011D8CBB1B3F1805F34
:101C00002FD0012635461CE0012104F12400FFF706
:101C1000BDFCDFE701263546E6E72E46E4E7B3F1F3
:101C2000804F05D0B3F1A04F02D0B3F1405FE8D1AF
:101C30001DBB814AD4F88C10536D23F0E0430B4355
:101C40005365236859062CD5D4F89830B3F5006F46
:101C50003FD014D8E3B1B3F5806F34D001263546B8
:101C60001FE00021201DFFF719FC0546E0E70221D7
:101C700004F12400FFF78AFCF7E72E46E1E7B3F50D
:101C8000805F05D0B3F5A05F02D0B3F5406FE5D11A
:101C90002DBB694AD4F89810936D23F4E0530B439D
:101CA000936523681A062FD5D4F89C30B3F5804F7E
:101CB00000F0958015D8EBB1B3F5005F00F0898096
:101CC0000126354620E00021201DFFF7E7FB0546F1
:101CD000DEE7022104F12400FFF758FCF7E72E4667
:101CE000DFE7B3F5004F05D0B3F5204F02D0B3F5D1
:101CF000C04FE5D1002D78D14F4AD4F89C10936D98
:101D000023F460430B43936523681B070CD5D4F879
:101D10008010B1F5805F6AD1022104F12400FFF741
:101D200035FC002818BF01262368DF060CD5D4F83F
:101D30009410B1F5807F61D1022104F12400FFF7F6
:101D400025FC002818BF01262368180317D5D4F8EE
:101D5000A010B1F5803F58D0B1F5003F05D0002963
:101D600059D1201DFFF79AFB0546002D56D1324A66
:101D7000D4F8A010936D23F440330B43936523688C
:101D8000590319D5D4F88430B3F5001F48D0B3F502
:101D9000401F07D0B3F5801F49D1274AD36A43F4C7
:101DA0000033D362002D45D1234AD4F88410536DFB
:101DB00023F440130B4353652368DA034CD5E36CDB
:101DC000002B3BD0B3F5803F00F0998001263546CB
:101DD00042E00021201DFFF761FB05468AE7022152
:101DE00004F12400FFF7D2FBF7E72E468CE7124AF6
:101DF000536D23F440530B43536595E70E4A936D9F
:101E000023F440730B4393659EE7022104F1240001
:101E1000FFF7BCFBA8E701263546B0E72E46AEE744
:101E2000012104F12400FFF7B1FB0546BAE70126C2
:101E30003546C1E72E46BFE7004402583C4AD36A04
:101E400043F40033D362002D5FD1394AE16CD36C87
:101E500023F480330B43D36423689B0007D502210E
:101E600004F12400FFF792FB002818BF0126236825
:101E70009F030ED5E16FB1F5807F50D047D8002980
:101E80004BD1002D51D12A48426D22F440720A43B1
:101E90004265DD0206D52649206F0A6D22F0004218
:101EA00002430A65D80007D52149D4F8B4000A696D
:101EB00022F4804202430A61990206D51C49A06EB1
:101EC0000A6D22F0807202430A655A0009D5184A49
:101ED000116921F4004111611169D4F8B80001437E
:101EE0001161002B06DA124A216DD36C23F04053A6
:101EF0000B43D364301C18BF0120BDE8F8830221D6
:101F0000201DFFF7CBFA05469DE72E46A4E7B1F565
:101F1000007FB6D0B1F5407FB3D00126B9E70448C1
:101F2000C26A42F40032C262ABE72E46B1E700BF9C
:101F30000044025808B5FFF777FA054B054A1B6ABB
:101F4000C3F30213D35C03F01F03D84008BD00BFE6
:101F500000440258DA6D00084E4930B58C6A8B6A2D
:101F6000CA6AC3F30533CD6B002B00F08E80C5F336
:101F7000CC0502F010029FED485AF7EE005A6A4372
:101F800007EE902A04F00302B8EEE76A012A07EE92
:101F9000903AF8EEE76A02D00FD3022A67D08B6B33
:101FA000C3F3080307EE903AF8EEE77AE6EE057A17
:101FB0009FED3A6A77EEA57A56E00B689B0646D508
:101FC0000A688B6BC2F3C101354AC3F30803CA40E8
:101FD00007EE902AF8EEE77A87EEA67A07EE903AB7
:101FE000F8EEE77AE6EE057A77EEA57A294A67EE0B
:101FF000877A936BC3F3462307EE103AB8EEC77A9D
:1020000037EE257AC7EE876AFCEEE66AC0ED006A15
:10201000936BC3F3064307EE103AB8EEC77A37EE78
:10202000257AC7EE876AFCEEE66AC0ED016A936B1B
:10203000C3F3066307EE103AB8EEC77A77EE255A77
:1020400087EEA57ABCEEC77A80ED027A30BD8B6B45
:10205000C3F3080307EE903AF8EEE77AE6EE057A66
:102060009FED106A77EEA57A86EE267ABEE78B6B37
:10207000C3F3080307EE903AF8EEE77AE6EE057A46
:102080009FED096A77EEA57AEEE70360436083600F
:1020900030BD00BF00440258000000390024744ADB
:1020A0000090D0030024744C0024F44A4E4930B50B
:1020B0008C6A8B6ACA6AC3F305534D6C002B00F01F
:1020C0008E80C5F3CC0502F480729FED485AF7EE7E
:1020D000005A6A4307EE902A04F00302B8EEE76A5A
:1020E000012A07EE903AF8EEE76A02D00FD3022AEF
:1020F00067D00B6CC3F3080307EE903AF8EEE77A6B
:10210000E6EE057A9FED3A6A77EEA57A56E00B681F
:102110009B0646D50A680B6CC2F3C101354AC3F36E
:102120000803CA4007EE902AF8EEE77A87EEA67A0F
:1021300007EE903AF8EEE77AE6EE057A77EEA57AC2
:10214000294A67EE877A136CC3F3462307EE103AE9
:10215000B8EEC77A37EE257AC7EE876AFCEEE66AF4
:10216000C0ED006A136CC3F3064307EE103AB8EEF5
:10217000C77A37EE257AC7EE876AFCEEE66AC0EDCD
:10218000016A136CC3F3066307EE103AB8EEC77A20
:1021900077EE255A87EEA57ABCEEC77A80ED027AF3
:1021A00030BD0B6CC3F3080307EE903AF8EEE77A04
:1021B000E6EE057A9FED106A77EEA57A86EE267A2E
:1021C000BEE70B6CC3F3080307EE903AF8EEE77A2C
:1021D000E6EE057A9FED096A77EEA57AEEE70360F1
:1021E0004360836030BD00BF0044025800000039E6
:1021F0000024744A0090D0030024744C0024F44A54
:1022000008B5FEF753FF064B064A9B69C3F3032349
:10221000D35C03F01F03D840034B186008BD00BF18
:1022200000440258DA6D0008300000200368596944
:102230009A6942F008029A619A6942F010029A6122
:102240001A6822F001021A601A6922F45B7222F005
:1022500003021A619A6822F440429A6090F8812041
:10226000042A0BD08A0609D5D0F8842042F08002D7
:10227000C0F884209A6942F020029A6190F8812087
:10228000032A0BD04A0609D5D0F8842042F0040274
:10229000C0F884209A6942F040029A618A0509D503
:1022A000D0F8842042F00102C0F884209A6942F4F8
:1022B00000729A61CA0509D5D0F8842042F008025C
:1022C000C0F884209A6942F480729A610023A0F8D1
:1022D0006230A0F86A30704770B5044608B9012032
:1022E00070BD0023026883623F4B9A42C36808D0E6
:1022F0003E498A4205D001F580618A4201D00F2B08
:10230000EDD8E16B08334909DB0801FB033336499B
:102310008A4266D0A1F578418A4262D001F5806197
:102320008A425ED0082BDAD894F8813003F0FF029D
:1023300023B984F88020204602F0DCFF02232268C3
:10234000616884F881301368A56B23F00103136082
:10235000A369B3F1806F07D1B1F5800F04D11DB926
:10236000106840F480501060A66AE0693043E66B64
:102370003043E66830439060606B0343606A034318
:1023800020692B43034360690343206A0343E06CE5
:102390000B430343A0680343A06C0343A06D0343B6
:1023A000D36059B9936823F4C05343F40063936036
:1023B000936823F4C06343F480639360136D23F048
:1023C000010313654B0205D5D368616D23F000430B
:1023D0000B43D36000200123C4F8840084F88130CB
:1023E00070BD102B9FE700BF003001400038004057
:1023F0002DE9F0411D4690F8803004468846012BB7
:1024000017460CD0012380F88030FEF7A9F994F824
:1024100081300646012B05D0002384F8803002204D
:10242000BDE8F081B8F1000F00D02FB900230120E2
:1024300084F88030BDE8F0810323C4F85C80A4F800
:10244000607084F881300023C4F884306366A4F897
:102450006270A4F86830A4F86A3063672367A368E1
:10246000B3F5C02F236803D11A6842F400621A60E2
:102470005968090C0904394359601A6842F001028D
:102480001A606268B2F5800F03D11A6842F40072D4
:102490001A60E3680F2B30D8072B75D8B4F8623078
:1024A0009BB2002B2ED02268576917F0020700F06C
:1024B0009A80B4F862309BB2032BE36D7AD9E16B5A
:1024C000402977D953F8041B1162E365B4F86230F0
:1024D000043B9BB2A4F86230E0E72268576917F02A
:1024E000020723D0E36D53F8041B1162E365B4F8CF
:1024F0006230013B9BB2A4F86230B4F862309BB208
:10250000002BEAD123685B691B0776D52046FFF7CD
:102510008DFE002384F88030012384F88130D4F8C4
:102520008400003018BF0120BDE8F081FEF718F9E3
:10253000801BA842E1D36B1CDFD02046FFF776FE5C
:10254000D4F88430012084F8807043F48073C4F898
:10255000843084F88100BDE8F0812268576917F063
:1025600002071FD0B4F862309BB2012BE36D11D982
:10257000E16B79B153F8041B1162E365B4F8623082
:10258000023B9BB2A4F86230B4F862309BB2002BDD
:10259000E3D1B7E733F8021B1184E365B4F8623086
:1025A000013BEEE7FEF7DCF8801B8542ECD8681CA7
:1025B000EAD0C2E7B4F8621089B2012909D9E16B07
:1025C00039B133F8021B1184E365B4F86230023B81
:1025D0007FE71B7882F82030E36D0133E365B4F8C0
:1025E0006230013B75E7FEF7BBF8801B85423FF682
:1025F00055AF691C3FF452AF9FE7FEF7B1F8801B5F
:1026000085423FF67FAF6A1C3FF47CAFD4F884303C
:1026100043F02003C4F8843078E72DE9F8431D46E1
:1026200090F8803004460E46012B9146089F15D045
:10263000012380F88030FEF793F894F881308046CB
:102640006068DBB2012B0CD0B0F5800F03D1A1681C
:1026500009B9042B05D0002384F880300220BDE89E
:10266000F8831EB1B9F1000F00D02DB9002301206D
:1026700084F88030BDE8F88394F88130042B02D0D0
:10268000052384F8813000232268C4F86490B0F5F3
:10269000800FC4F884302367A4F86A506367A4F8F5
:1026A00062505368A4F868504FEA1343E665A4F8F3
:1026B00060504FEA034343EA05035360136843F055
:1026C0000103136003D1136843F400731360E368DC
:1026D0000F2B47D9294648F2080053699E070ED5AB
:1026E0006DB1E36D53F8045B1562E365B4F86230D5
:1026F000013B9BB2A4F86230B4F86250ADB25369AA
:10270000034210D0002900F00D81116B636E43F875
:10271000041B6366B4F86A30013B9BB2A4F86A30CC
:10272000B4F86A1089B2002DD7D10029D5D1FEF7AF
:1027300017F8A0EB0800874200F29380781C00F0A5
:1027400090802046FFF772FD0023012084F880303E
:10275000D4F8843043F48073C4F8843084F8810062
:10276000BDE8F883072B2E463FD8226853699807A7
:1027700015D5A5B1032DE36D40F29780E16B40299B
:1027800040F2958053F8041B1162E365B4F862309F
:10279000043B9BB2A4F86230B4F86250ADB2226838
:1027A000536913F4604F13D096B1536913F4004F7B
:1027B000636E00F09080126B43F8042B6366B4F8EC
:1027C0006A30043B9BB2A4F86A30B4F86A60B6B2CF
:1027D000FDF7C6FFA0EB0800874201D8791CB0D1F5
:1027E000002DC2D1002EC0D13BE022685369990769
:1027F00013D595B1012DE36D47D9E16B002944D084
:1028000053F8041B1162E365B4F86230023B9BB2DB
:10281000A4F86230B4F86250ADB2536913F4604F5B
:1028200012D08EB1536913F4004F636E35D0126B22
:1028300043F8042B6366B4F86A30023B9BB2A4F8F9
:102840006A30B4F86A60B6B2FDF78AFFA0EB080000
:10285000874202D87B1C7FF474AF002DC5D1002EB7
:10286000C3D123685B691B074DD52046FFF7DEFC0B
:10287000002384F88030012384F88130D4F8840068
:10288000003018BF0120BDE8F88333F8021B118423
:10289000E365B4F86230013BB9E7128E23F8022BEE
:1028A0006366B4F86A30013BC8E7012D09D0E16BDB
:1028B00039B133F8021B1184E365B4F86230023B8E
:1028C00067E71B7882F82030E36D0133E365B4F8E5
:1028D0006230013B5DE7516901F4C041B1F5005F31
:1028E00007D9128E23F8022B6366B4F86A30023BD4
:1028F00068E792F830201A70636E01336366B4F8AB
:102900006A30013B5EE7FDF72BFFA0EB0800874232
:10291000A7D87A1CA5D0D4F8843043F02003C4F89B
:102920008430A2E7002D7FF4D8AE00E72DE9F34113
:102930001E46436804468846B3F5800F17460CD1FF
:10294000836853B9042380F88130134600960A4601
:10295000FFF763FE02B0BDE8F08194F88030012BF0
:102960000CD0012384F88030FDF7FAFE94F8813012
:102970000546012B04D0002384F880300220E9E7CB
:10298000B8F1000F00D027B90023012084F880306F
:10299000E0E70423C4F86480A4F8687084F8813008
:1029A00000232168C4F88430E365A4F86A70A4F8B1
:1029B0006030A4F8623023676367A368B3F5C02F63
:1029C00003D10B6823F400630B604B681B0C1B04E2
:1029D0003B434B600B6843F001030B606368B3F546
:1029E000800F03D10B6843F400730B60E3680F2B77
:1029F00055D8072B6AD8B4F86A309BB253B3236812
:102A00005F6917F4604700F08F805A6912F4004F35
:102A1000626E71D01B6B42F8043BB4F86A30626698
:102A2000043B9BB2A4F86A30E5E72268576917EACD
:102A300008071ED0126B636E43F8042B6366B4F86C
:102A40006A30013B9BB2A4F86A30B4F86A309BB29A
:102A5000002BEAD12046FFF7E9FB002384F8803001
:102A6000012384F88130D4F88400003018BF01209D
:102A700070E7FDF775FE401B8642E6D8711CE4D076
:102A80002046FFF7D3FBD4F88430012084F880700F
:102A900043F48073C4F8843084F881005AE748F224
:102AA0000808D2E721684F6917F460471CD04B69CA
:102AB000626E13F4004F0FD00B6B42F8043BB4F876
:102AC0006A306266023B9BB2A4F86A30B4F86A309E
:102AD0009BB2002BE6D1BDE70B8E22F8023BB4F887
:102AE0006A306266013BEEE7FDF73AFE401B864224
:102AF000ECD8721CEAD0C3E7596901F4C041B1F5C2
:102B0000005F07D91B8E22F8023BB4F86A30626678
:102B1000023B86E793F830301370636E01336366CF
:102B2000B4F86A30013B7CE7FDF71AFE401B864291
:102B30003FF661AF731C3FF45EAFA1E700000000F9
:102B40000368C26981682DE9F043054600691C6885
:102B500087B0014368690143686E11430143BB4874
:102B600020400143E8681960596821F4405101434D
:102B7000A8695960B6498B421CBF296A0843996805
:102B800021F06E4121F430610143686A9960D96A8D
:102B900021F00F010143D962AE498B421DD1AE4BEA
:102BA0005B6D03F03803282B00F25E87AB49CC5CE9
:102BB000B2F5004F40F05F87082C00F0DE8400F291
:102BC000BA83012C00F03284C0F0F483042C00F0AE
:102BD000AF840122002300F050BCA1498B4208D1F0
:102BE0009D4B5B6D03F00703052B00F23A879D496F
:102BF000DDE79D498B4208D1974B5B6D03F00703DE
:102C0000052B00F22E879949D1E799498B4208D1CB
:102C1000914B5B6D03F00703052B00F2228795496A
:102C2000C5E795498B4208D18B4B5B6D03F00703D9
:102C3000052B00F216879149B9E791498B4208D1DB
:102C4000854B5B6D03F03803282B00F20A878D4912
:102C5000ADE78D498B4208D17F4B5B6D03F00703D5
:102C6000052B00F2FE868949A1E789498B4208D1EC
:102C7000794B5B6D03F00703052B00F2F286854963
:102C800095E773498B4240F0EC86734B9B6D03F0E4
:102C90000703052B01D90122A6E07F4AD45C082C4A
:102CA00000F0C8802FD8022C7DD0042CF3D16846C8
:102CB000FFF752F9019A6B6A002B00F0C080012BDC
:102CC00000F0BF80022B00F0BE80032B00F0E880F4
:102CD000042B00F0AB80052B00F0E480062B00F005
:102CE000E380072B00F0E280082B00F0E180092B45
:102CF00000F0E0800A2B00F0DF800B2B14BF0123D3
:102D00004FF4807393E0202C00F00A81402C00F0F7
:102D10002181102CBFD1504B1A68920640F1E480FB
:102D20001A685E4BC2F3C102D340002800F0C6808F
:102D3000012800F0C580022800F0C480032800F0BC
:102D4000C380042800F0C280052800F0C180062856
:102D500000F0C080072800F0BF80082800F0BE8087
:102D6000092800F0BD800A2800F0BC800B2814BFA1
:102D700001204FF48070B3FBF0F26E6806EB46035F
:102D8000934288D8B2EB063F85D8082C00F0D28158
:102D900000F24381022C00F08D81042C00F0C581EB
:102DA00001220020B8E1FFF7C5F86B6A43B3012B9D
:102DB00028D0022B28D0032B28D0042B28D0052B79
:102DC00028D0062B28D0072B28D0082B28D0092B59
:102DD00028D00A2B28D00B2B14BF01234FF480736B
:102DE000B0FBF3F2002AC8D101231046A5F86A30DF
:102DF000A5F868300023EB662B6707B0BDE8F083C9
:102E00000123EDE72346EBE70423E9E70623E7E7A1
:102E10000823E5E70A23E3E70C23E1E71023DFE7D4
:102E20002023DDE74023DBE78023D9E70823B2FB3B
:102E3000F3F2D7E703A8FFF739F9049A3BE7012338
:102E4000F5E70223F3E70423F1E700BFF369FFCFBF
:102E5000000C00580010014000440258246900088A
:102E6000004400404D690008004800404D690008DA
:102E7000004C00404D690008005000404D690008BA
:102E80000014014024690008007800404D690008E2
:102E9000007C00404D690008536900080090D00391
:102EA0000623C4E70A23C2E70C23C0E71023BEE7CA
:102EB0002023BCE74023BAE78023B8E701205AE784
:102EC000022058E7042056E7062054E7082052E77E
:102ED0000A2050E70C204EE710204CE720204AE75C
:102EE000402048E7802046E700284FD001284FD0F7
:102EF00002284FD003284FD004284FD005284FD0A8
:102F000006284FD007284FD008284FD009284FD087
:102F10000A2851D0AD4AAE4B0B2818BF1A462CE7F1
:102F2000002841D0012841D0022841D0032841D0B7
:102F3000042841D0052841D0062841D0072841D097
:102F4000082841D0092841D00A2842D043F6095226
:102F5000A04BE1E700283FD0012840D0022841D013
:102F6000032842D0042843D0052844D0062845D061
:102F7000072846D0082847D0092848D00A2849D031
:102F80000B280CBF80224FF40042F6E6904AF4E68C
:102F9000914AF2E6914AF0E6914AEEE6914AECE671
:102FA000914AEAE6914AE8E68A4AE6E6904AE4E689
:102FB000904AE2E6904AE0E6904ADEE6904ADCE695
:102FC000904ADAE6814AD8E68F4AD6E64FF22442A2
:102FD000D3E647F61222D0E64FF40042CDE64FF496
:102FE0008042CAE64FF40052C7E641F25552C4E6A9
:102FF0004FF48052C1E640F6CC42BEE640F6AA222B
:10300000BBE64FF40062B8E64FF48062B5E64FF4D9
:103010000072B2E64FF48072AFE6202C00F01C8103
:10302000402C00F04F81102C7FF4BAAE774A740820
:10303000136813F0200F6B6A00F0AD8012686448CB
:10304000C2F3C102D040002B00F0A380012B00F09E
:103050008C80022B00F08B80032B00F08A80042BE5
:1030600000F08980052B00F08880062B00F0878017
:10307000072B00F08680082B00F08580092B00F0DC
:1030800084800A2B00F083800B2B40F082804FF469
:10309000807200230021FDF77BF932464FEA0129B7
:1030A00000234FEA002849EA106918EB040049F1AF
:1030B00000012EE0FEF73EFF6B6A002B53D0012B80
:1030C0003DD0022B3DD0032B3DD0042B3DD0052B12
:1030D0003DD0062B3DD0072B3DD0082B3DD0092BF2
:1030E0003DD00A2B3DD00B2B3DD14FF480720023F5
:1030F0000021FDF74DF96C680F02002306022246FD
:1031000047EA1067600816EB000847F100094046DF
:103110004946FDF73DF90022A0F540713C4B99422C
:103120003FF6B9AD2B68D8605EE66846FEF714FF3F
:103130000198C1E703A8FEF7B9FF0498BCE7022293
:10314000D5E70422D3E70622D1E70822CFE70A22F7
:10315000CDE70C22CBE71022C9E72022C7E74022A7
:10316000C5E78022C3E70122C1E7022291E70422DA
:103170008FE706228DE708228BE70A2289E70C22D7
:1031800087E7102285E7202283E7402281E780221B
:103190007FE701227DE7002B5BD0012B3AD0022B89
:1031A00041D0032B41D0042B43D0052B43D0062B19
:1031B00043D0072B45D0082B45D0092B45D00A2BEF
:1031C00045D00B2B45D10248002125E090D00300CB
:1031D0000090D00300093D000048E8010024F400FD
:1031E000AAC2A20000127A0000A861005561510035
:1031F00080841E0040420F002A2C0A0020A10700F4
:10320000801A06001516050048E80100004402581F
:10321000FFFC0F00AE480121001932464FF00003B9
:1032200041F1000175E7AB48CEE7A1A1D1E900016A
:10323000F2E7A948C8E7A948C6E79FA1D1E900017C
:10324000EAE7A748C0E7A748BEE7A748BCE7A74802
:10325000BAE7A7480321DFE76B6A8BB3012B16D0CF
:10326000022B16D0032B16D0042B19D0052B19D006
:10327000062B19D0072B1BD0082B1BD0092B1BD0DA
:103280000A2B1BD00B2B1BD19A48002106E0954836
:10329000FBE79548F9E78AA1D1E900017408BBE78B
:1032A0009248F2E79448F0E787A1D1E90001F5E7F9
:1032B0009248EAE79248E8E79248E6E79248E4E76E
:1032C0008748E2E76B6A9BB3012B16D0022B17D01D
:1032D000032B18D0042B18D0052B19D0062B19D08E
:1032E000072B19D0082B1AD0092B1BD00A2B1CD066
:1032F0000B2B1DD14FF40040C7E74FF48000C4E70B
:103300004FF40010C1E78148BFE74FF48010BCE7DD
:103310007F48BAE77F48B8E74FF40020B5E74FF49D
:103320008020B2E74FF40030AFE74FF48030ACE7D5
:103330004FF40000A9E7202C00F08E81402C00F013
:10334000C481102C7FF445AC734B69681A6812F085
:10335000200F00F04B811B68684AC3F3C10322FAB7
:1033600003F3002800F02C81012800F02B810228B3
:1033700000F02A81032800F02981042800F0288128
:10338000052800F02781062800F02681072800F094
:103390002581082800F02481092800F023810A28CB
:1033A00000F022810B2814BF01224FF48072B3FB7E
:1033B000F2F21FE0FEF74EF8696A09B3012921D045
:1033C000022921D0032921D0042921D0052921D087
:1033D000062921D0072921D0082921D0092921D067
:1033E0000A2921D00B2914BF01224FF48072696889
:1033F000B0FBF2F24B0803EB4203B3FBF1F33AE00C
:103400000122F4E70222F2E70422F0E70622EEE7C7
:103410000822ECE70A22EAE70C22E8E71022E6E7B6
:103420002022E4E74022E2E78022E0E7FEF724F8EA
:103430006A6AC2B1012A2FD0022A2FD0032A2FD0C4
:10344000042A2FD0052A2FD0062A67D0072A67D052
:10345000082A67D0092A67D00A2A67D00B2A14BF26
:1034600001244FF480746A68B0FBF4F4530803EB52
:103470004403B3FBF2F39BB20022A3F110004FF61A
:10348000EF7188423FF607AC23F00F01C3F342030C
:1034900028680B43C360A7E40224E4E70424E2E7BE
:1034A0000624E0E70824DEE70A24DCE7AFF3008027
:1034B00000AAC2A2000000000055615100000000F7
:1034C000002A2C0A0000000000151605000000006C
:1034D000000048E8000024F40000127A0000A8610F
:1034E0000000093D0080841E0040420F0020A1071B
:1034F000000090D000093D0000801A060090D00323
:103500000048E8010024F40000127A00005515007C
:1035100000CC0C0000AA0A00004402580C24A2E7C8
:103520001024A0E720249EE740249CE780249AE70B
:103530006846FEF711FD6A6A019B6AB3012A2DD025
:10354000022A16D0032A2DD0042A11D0052A2BD006
:10355000062A2BD0072A2BD0082A2BD0092A2BD0B9
:103560000A2A2BD00B2A14BF01244FF4807400E0E8
:1035700008246A68B3FBF4F478E703A8FEF796FD25
:103580006A6A049B42B1012A08D0022A08D0032AA1
:1035900008D0042ADAD1ECE70124EAE70224E8E7BC
:1035A0000424E6E70624E4E70A24E2E70C24E0E743
:1035B0001024DEE72024DCE74024DAE78024D8E783
:1035C0000122F4E60222F2E60422F0E60622EEE60A
:1035D0000822ECE60A22EAE60C22E8E61022E6E6F9
:1035E0002022E4E64022E2E68022E0E6F0B1012873
:1035F0001ED002281ED003281ED004281ED0052865
:103600001ED006281ED007281ED008281ED0092844
:103610001ED00A281ED0A34BA34A0B2814BF104665
:10362000184600EB5100B0FBF1F324E79E48F8E7A1
:103630009E48F6E79E48F4E79E48F2E79E48F0E78A
:103640009E48EEE79E48ECE79E48EAE79E48E8E79A
:103650009E48E6E79E48E4E700B3012820D0022810
:1036600020D0032820D0042820D0052820D00628E8
:1036700020D0072820D0082820D0092820D00A28C8
:1036800020D047F612228F4B0B2814BF1846104645
:103690006B6800EB5300B0FBF3F3ECE68948F7E707
:1036A0008948F5E78948F3E78A48F1E78848EFE772
:1036B0008948EDE78948EBE77A48E9E78848E7E792
:1036C0008848E5E74FF22440E2E7E8B1012817D047
:1036D00002281CD003281DD004281ED005281FD086
:1036E000062820D0072821D0082822D0092823D056
:1036F0000A2824D00B2814BF4FF480324FF4807274
:10370000696802EB510378E64FF48032F8E74FF432
:103710008042F5E742F6AA22F2E74FF40052EFE7C3
:1037200041F69812ECE741F25452E9E74FF4805227
:10373000E6E74FF40062E3E74FF48062E0E74FF41E
:103740000072DDE7FDF786FE6B6A63B3012B2CD0B8
:10375000022B2CD0032B2CD0042B2CD0052B2CD0BF
:10376000062B2CD0072B2CD0082B2CD0092B2CD09F
:103770000A2B2CD00B2B14BF01234FF480736A68E3
:10378000B0FBF3F303EB5203B3FBF2F39BB2002263
:10379000A3F110004FF6EF7188423FF67CAA29682A
:1037A000CB60FFF721BB0123E9E70223E7E704230E
:1037B000E5E70623E3E70823E1E70A23DFE70C2335
:1037C000DDE71023DBE72023D9E74023D7E7802379
:1037D000D5E7FDF751FE6B6AC3B1012B1AD0022B5E
:1037E0001AD0032B1AD0042B1AD0052B1AD0062B73
:1037F0001AD0072B1AD0082B1AD0092B1AD00A2B53
:103800001AD00B2B14BF01244FF480746A68B0FBEC
:10381000F4F3B7E70224F9E70424F7E70624F5E711
:103820000824F3E70A24F1E70C24EFE71024EDE77E
:103830002024EBE74024E9E78024E7E708246868D0
:10384000B3FBF4F303EB5003B3FBF0F39EE703A8E1
:10385000FEF72CFC6A6A049B4AB1012A09D0022AAD
:1038600009D0032A09D0042A40F02581E7E7012482
:10387000E5E70224E3E70424E1E70624DFE70A247E
:10388000DDE70C24DBE71024D9E72024D7E7402428
:10389000D5E78024D3E7012260E102225EE1042221
:1038A0005CE100BF20A107000020A1070090D00329
:1038B0000048E801548545010024F4000050C3008D
:1038C000AAC2A20000127A0000093D0080841E00F6
:1038D00040420F005458140000350C002A2C0A00F6
:1038E00090D0030048E80100062237E1082235E1C4
:1038F0000A2233E10C2231E110222FE120222DE1B6
:1039000040222BE1802229E1F0B101281ED00228BB
:103910001ED003281ED004281ED005281ED006283D
:103920001ED007281ED008281ED009281ED00A281D
:103930001ED08E4B8E4A0B2814BF1046184600EB43
:103940005100B0FBF1F321E78948F8E78948F6E731
:103950008948F4E78948F2E78948F0E78948EEE7C3
:103960008948ECE78948EAE78948E8E78948E6E7D3
:103970008948E4E700B3012820D0022820D003289A
:1039800020D0042820D0052820D0062820D00728C1
:1039900020D0082820D0092820D00A2821D043F69A
:1039A00009527A4B0B2814BF184610466B6800EB7F
:1039B0005300B0FBF3F3E9E67448F7E77448F5E722
:1039C0007448F3E77548F1E77348EFE77448EDE7AB
:1039D0007448EBE76548E9E77348E7E74FF22440AE
:1039E000E4E747F61220E1E7D0B101281BD0022816
:1039F0001CD003281DD004281ED005281FD006285F
:103A000020D0072821D0082822D0092823D00A282E
:103A100024D00B2814BF4FF400438023686811E7BB
:103A20004FF40043FAE74FF48043F7E74FF40053B5
:103A3000F4E741F25553F1E74FF48053EEE740F6D7
:103A4000CC43EBE740F6AA23E8E74FF40063E5E751
:103A50004FF48063E2E74FF40073DFE74FF48073C5
:103A6000DCE78024FFF7A4B8B2F5004F3FF4B1A81B
:103A7000012200238CE6082C3FF4E9AE33D8012C58
:103A80003FF4A7AEFFF45EAE042C7FF404A96846B1
:103A9000FEF762FA6A6A019B002A3FF4E8AE012A47
:103AA0003FF4E7AE022A3FF4CAAE032A3FF4E5AE84
:103AB000042A3FF4C3AE052A3FF4E1AE062A3FF4E0
:103AC000E0AE072A3FF4DFAE082A3FF4DEAE092A53
:103AD0003FF4DDAE0A2A3FF4DCAE0B2A14BF01240A
:103AE0004FF48074ABE6202C3FF444AF402C3FF4FD
:103AF0007BAF102C7FF4CFA82C4B69681A6812F0AA
:103B0000200F3FF401AF1A68194BC2F3C102D34032
:103B100000283FF4C0AE01283FF4BFAE02283FF4B6
:103B2000BEAE03283FF4E0AE04283FF4DFAE052824
:103B30003FF4DEAE06283FF4DDAE07283FF4DCAEEE
:103B400008283FF4DBAE09283FF4DAAE0A283FF438
:103B5000D9AE0B2814BF01224FF48072B3FBF2F3ED
:103B600003EB5103B3FBF1F310E600BF90D0030069
:103B70000090D0030048E8010024F400AAC2A2008B
:103B800000127A0000A861005561510000093D0053
:103B900080841E0040420F0020A107002A2C0A004A
:103BA000801A06001516050048E801000044025876
:103BB000836ADA0710B506D50168C46A4A6822F438
:103BC000003222434A609C0706D50168046B4A68AC
:103BD00022F4803222434A60590706D50168446BBB
:103BE0004A6822F4802222434A601A0706D50168F7
:103BF000846B4A6822F4004222434A60DC0606D500
:103C00000168C46B8A6822F4805222438A60990654
:103C100006D50168046C8A6822F4005222438A6047
:103C20005A0610D50168446C4A68B4F5801F22F426
:103C3000801242EA04024A6005D14A68846C22F488
:103C4000C00222434A601B0606D50268C16C536855
:103C500023F400230B43536010BD2DE9F041069D72
:103C600004460F46164698462168CA6937EA020399
:103C70000CBF01220022B24202D00020BDE8F08138
:103C8000681CF2D0FCF76CFDA0EB080085422068B0
:103C9000036800D38DB923F4D0730360836823F0E5
:103CA000010383602023C4F88030C4F884300023EB
:103CB000032084F87C30BDE8F0815A07D4D5C3696D
:103CC0001B05D1D54FF400630362036823F4D0735E
:103CD0000360836823F0010383602023C4F88030ED
:103CE000C4F88430C4F88830E1E72DE9F7439846FA
:103CF000D0F8803004460E46202B91464ED1002944
:103D00004AD0002A48D090F87C30012B46D00123BD
:103D1000002580F87C302123C0F88850C0F880301E
:103D2000FCF71EFDA3680746A4F85490B3F5805F26
:103D3000A4F8569003D123690BB935461E46B4F852
:103D400056203B46CDF8008092B252B94021204621
:103D5000FFF783FF58B9202384F87C00C4F8803033
:103D600006E0002280212046FFF777FF18B10320EC
:103D700003B0BDE8F08322685EB935F8023BC3F3B7
:103D800008039362B4F85630013B9BB2A4F8563056
:103D9000D5E716F8013BF4E70120E9E70220E7E761
:103DA0002DE9F7439946D0F8843004460D46202B80
:103DB000164666D1002962D0002A60D090F87C3087
:103DC000012B5ED00123002780F87C302223C0F82D
:103DD0008870C0F88430FCF7C3FCA3688046A4F860
:103DE0005C60B3F5805FA4F85E601CD12269C2B943
:103DF00040F2FF12A4F86020B3F5805FB4F8607061
:103E000022D1236903BB2E461D46B4F85E0080B262
:103E1000E0B9202384F87C00C4F8843003B0BDE806
:103E2000F083FF22E6E723B92269002AF9D07F2236
:103E3000E0E7B3F1805F04D12269002AF7D03F2286
:103E4000D8E7A4F86070D7E70026DEE7CDF8009049
:103E50004346002220212046FFF7FFFE98B9236841
:103E60005B6A3B4045B926F8023BB4F85E30013B43
:103E70009BB2A4F85E30C8E705F8013BF5E70120E6
:103E8000CCE70220CAE70320C8E773B50026044642
:103E9000C0F88860FCF764FC236805461B681A07B5
:103EA00017D423681B685B070AD56FF07E43002296
:103EB0004FF48001204600932B46FFF7CEFEA0B9B9
:103EC00020230020C4F8803084F87C00C4F88430BB
:103ED0000CE06FF07E4332464FF40011009303462E
:103EE0002046FFF7BAFE0028DBD0032002B070BDE9
:103EF00010B5044650B3D0F880301BB980F87C3040
:103F000001F030FA226824232046C4F88030136878
:103F100023F001031360FEF713FE012816D0A36AF5
:103F200013B12046FFF744FE236820465A6822F466
:103F300090425A609A6822F02A029A601A6842F007
:103F40000102BDE810401A60FFF79FBF012010BDBD
:103F50001FB503220123042102248DF80320072228
:103F60008DF800308DF8042000228DF801308DF896
:103F700006208DF8072008228DF802308DF80820E1
:103F80008DF80C20426E8DF805308DF809108DF8F3
:103F90000A408DF80B108DF80D308DF80E308DF82D
:103FA0000F302AB9A0F86A30A0F8683004B010BD0C
:103FB00002689368916804AAC3F3426302EB5171EB
:103FC00011F8102C11F8081CD20092FBF1F2A0F8A5
:103FD0006A2004AA134413F8102C13F8083CD200EA
:103FE00092FBF3F3E0E790F87C30012B14D00268E9
:103FF0002423C0F880301168136821F0005123F0A9
:1040000001031360002343661160202280F87C3096
:10401000C0F88020184670470220704738B590F8E5
:104020007C300446012B1BD0012380F87C302423F4
:10403000C0F8803003681D681A6822F001021A6017
:104040009A6822F0604211439960FFF781FF03688C
:104050001D602023C0F88030002084F87C0038BD2B
:10406000022038BD38B590F87C300446012B1BD0B7
:10407000012380F87C302423C0F8803003681D6859
:104080001A6822F001021A609A6822F060621143F5
:104090009960FFF75DFF03681D602023C0F8803042
:1040A000002084F87C0038BD022038BD0A4B013B5B
:1040B00001D1032070470269002AF8DA0369064A31
:1040C00043F001030361013AF3D0036913F00103E4
:1040D000F9D11846704700BF410D030084B038B5D0
:1040E00005AD044685E80E000A9B012B26D1836BA3
:1040F00023F480338363C36823F4840323F04003F1
:10410000C360C36823F44013C360119B012B03D128
:10411000C36843F48013C3602046FFF7C7FF089BC2
:10412000012B07D1A36843F00803A360A36843F001
:104130002003A360BDE8384004B07047C36843F073
:104140004003C360FFF7B2FF0E9B23B9A36B43F498
:104150008033A363E3E7A36B23F48033F9E7836839
:1041600023F0010383600020704708B5C36801296C
:1041700023F0C043C36008D1C36843F00053C36059
:104180003220FCF7F3FA002008BD19B9C36843F0E8
:104190008043F4E7012008BD8901074A41F020016E
:1041A0000161013A05D0036913F02003F9D11846E3
:1041B00070470320704700BF410D03001023064ADB
:1041C0000361013A05D0036913F01003F9D11846D1
:1041D00070470320704700BF410D0300D0F800383E
:1041E0001943C0F8001800207047000084B02DE982
:1041F000F047044609A8884680E80E0000230C9F7B
:10420000139E194603F14002013304EB82020F2B87
:104210005160F7D1A36B002E72D123F40013A36376
:10422000236843F040032360236843F08003236046
:10423000002304F50065C4F8003ED4F80038C4F843
:1042400000380E9B012B61D10B9900295CD12046CF
:10425000FFF7C4FF10212046FFF79EFF01462046CE
:10426000FFF7ACFF002853D1081C18BF0120002322
:1042700004F510624FF0904E4FF0006C19464FF667
:104280007F392B616B61EB61434543D1002104F51C
:1042900030624FF0904C4FF000688E464FF67F39F9
:1042A0008B424AD12B69012F23F480732B6107D1F4
:1042B0002C4B2B632B6B43F4803343F003032B63B2
:1042C0000023A3616FF0804363611FB9A36943F0CA
:1042D0001003A361A269244B1343A3610F9B1BB17D
:1042E000A36943F00803A361012E05D1A36943F03C
:1042F000804343F00403A361BDE8F04704B0704776
:1043000043F40013A36393E71946A0E703219EE754
:104310000120ACE7D2F800A0BAF1000F0BDA3BB9EC
:10432000C2F800C011610133C2F808902032ABE737
:10433000C2F800E0F6E71160F4E7D2F800A0BAF1A5
:10434000000F0CDA41B9C2F80080C2F810E0013168
:10435000C2F808902032A3E7C2F800C0F5E7C2F81F
:1043600000E0F2E70001800000383C8008B5D0F89A
:10437000043843F00203C0F804380320FCF7F6F9D0
:10438000002008BD034B01221988034B1868FCF775
:104390005DBB00BFBC000020C0000020034B012219
:1043A0001988034B1868FCF751BB00BFBA00002006
:1043B000C0000020024608B1FFF7E4BF024B198895
:1043C000024B1868FCF742BBBC000020C000002074
:1043D000024608B1FFF7E2BF024B1988024B18688A
:1043E000FCF734BBBA000020C000002013B504461F
:1043F0000020FFF7DFFF02A904F01F04642301225D
:1044000001F8044D084C2046FDF7F2FF6423012219
:104410000DF105012046FEF789FA9DF80540FFF7EA
:10442000B1FF204602B010BDC400002073B50446A1
:1044300000200D46164604F01F04FFF7BBFF02A93B
:104440006423012201F8044D064C2046FDF7D0FFFD
:104450006423324629462046FEF768FAFFF792FFAA
:1044600002B070BDC400002037B5044600200D46E0
:10447000FFF7A0FF44F020046423022201A90548AD
:104480008DF804408DF80550FDF7B2FFFFF77AFF75
:1044900003B030BDC400002073B5044600200D46B3
:1044A000164644F02004FFF785FF02A96423012289
:1044B00001F8044D064C2046FDF79AFF642332466E
:1044C00029462046FDF794FFFFF75CFF02B070BD60
:1044D000C400002073B5054600200E460A4CFFF7C5
:1044E00069FF02A9A0230122204601F8013D6423AF
:1044F000FDF77EFF6423324629462046FDF778FF0C
:10450000FFF740FF02B070BDC4000020FF21E12092
:10451000FFF7AABFFF21E220FFF7A6BF0720FFF7A2
:1045200065BF08B50020FFF753FFFFF7EFFFBDE8B9
:104530000840FFF7EFBF000013B502AC052264E9A5
:1045400002010A202146FFF7A7FF0522214610207D
:10455000FFF7A2FF044B11201978202928BF202142
:10456000FFF782FF02B010BDD80100207F2801466E
:104570004FF0050028BF7F21FFF776BF2028024BB0
:1045800028BF202018707047D80100206020FFF756
:104590002DBF08B51D20FFF729FF00F0FB011D20EE
:1045A000FFF762FF00211C20BDE80840FFF75CBF59
:1045B000014600B13F210120FFF756BF10B5044668
:1045C0000620FFF713FF00F0F901032C02D141F0A0
:1045D000060103E0022C06D141F004010620BDE8EB
:1045E0001040FFF741BF012C02D141F00201F5E775
:1045F000042CF3D1EBE738B505460620FFF7F6FEAD
:1046000000F0D704022D0CD144F0200421460620EE
:10461000FFF72AFF0620FFF7E9FE231A5842584108
:1046200038BD012D08BF44F00804EFE710B504467B
:104630000020FFF7DBFE00F0F3012CB1012C0CBFD2
:1046400041F0080141F00C010020BDE81040FFF7E7
:104650000BBF08B50020FFF7C9FE00F0FD010020E8
:10466000BDE80840FFF700BF70B50546FFF756FFED
:1046700000F040030446002B14BF012600260DD095
:1046800015B1C0F342032B7040210720FFF7ECFE69
:10469000A30603D520210720FFF7E6FE304670BDB4
:1046A0000020FFF7E1BF38B5044600200D46FFF7B4
:1046B0009DFE00F0FC01002041F00201FFF7D4FE56
:1046C00000F056FF20462946FFF704FFFFF766FE7D
:1046D00000F04EFF0020BDE83840FFF779BEF8B586
:1046E00005460F461646FFF719FF002304467021C2
:1046F00007202B70FFF7B8FEC4F340132B70C4F3F0
:104700000013C4F380143B703470F8BD702107208F
:10471000FFF7AABE37B504460D46FFF7F7FF204660
:104720002946FFF7C0FFFCF71BF8044601220DF1F4
:1047300005010820FFF77AFEFFF7F0FE10F0300FBA
:1047400016D00E4C0DF107010DF106002246FFF7C1
:10475000C6FF23789DF806501BB1FFF717FF084BE3
:104760001870FFF79DFFFFF7D1FE284603B030BD5C
:10477000FBF7F6FF001B0928D8D9E2E7B8000020B4
:10478000B900002007B50020FFF714FE50230222D5
:1047900001A98DF80430732305488DF80530642392
:1047A000FDF726FEFFF7EEFD03B05DF804FB00BF4A
:1047B000C400002010B5A0B0BC4907A801F024F83F
:1047C00007A8FBF78DFD0A2382B207A9B848FFF7B7
:1047D0008CFA0020FFF70AFE040740F13082400700
:1047E0004CBFB449B44907A801F00EF807A8FBF77D
:1047F00077FD0A2382B207A9AD48FFF776FA0120B8
:10480000FFF7F4FDC0F3401300F00102AB4903933E
:10481000C0F300130293C0F3C0030193C0F38003FD
:104820000093C0F3400307A800F0CAFF07A8FBF7F6
:1048300057FD0A2382B207A99D48FFF756FA0220C6
:10484000FFF7D4FDC0F3401300F001029C4903932D
:10485000C0F300130293C0F3C0030193C0F38003BD
:104860000093C0F3400307A800F0AAFF07A8FBF7D6
:1048700037FD0A2382B207A98D48FFF736FA0320D5
:10488000FFF7B4FD00F003028E4907A8023200F0E2
:1048900097FF07A8FBF724FD0A2382B207A98448E3
:1048A000FFF723FA0520FFF7A1FD874900F07F02FB
:1048B00007A800F085FF07A8FBF712FD07A982B241
:1048C0000A237B48FFF711FA0620FFF78FFD010747
:1048D000044607A84CBF7D497D49C4F3410400F05C
:1048E00093FF07A8FBF7FCFC0A2382B207A97048D4
:1048F000FFF7FBF9002C40F0A481764907A800F0EF
:1049000083FF07A8FBF7ECFC0A2382B207A96848DB
:10491000FFF7EBF905A905220A20FFF787FD9DF8AF
:1049200014109DF8173007A802919DF815109DF8F6
:10493000182001919DF816100091674900F040FF82
:1049400007A8FBF7CDFC0A2382B207A95848FFF756
:10495000CCF905A905220B20FFF768FD9DF814107E
:104960009DF8173007A802919DF815109DF81820A2
:1049700001919DF816100091584900F021FF07A8F9
:10498000FBF7AEFC0A2382B207A94948FFF7ADF94D
:1049900005A901220C20FFF749FD9DF8142050497C
:1049A00007A800F00DFF07A8FBF79AFC0A2382B2C4
:1049B00007A93F48FFF799F905A901220D20FFF744
:1049C00035FD9DF81420474907A800F0F9FE07A817
:1049D000FBF786FC0A2382B207A93548FFF785F961
:1049E00005A901220E20FFF721FD9DF814203E4964
:1049F00007A800F0E5FE07A8FBF772FC0A2382B2C5
:104A000007A92B48FFF771F905A901220F20FFF72D
:104A10000DFD9DF81420354907A800F0D1FE07A828
:104A2000FBF75EFC0A2382B207A92148FFF75DF974
:104A300005A905221020FFF7F9FC9DF814109DF838
:104A4000173007A802919DF815109DF818200191C4
:104A50009DF816100091264900F0B2FE07A8FBF75A
:104A60003FFC0A2382B207A91148FFF73EF9112043
:104A7000FFF7BCFC1F4900F03F0207A800F0A0FEB2
:104A800007A8FBF72DFC0A2382B207A90848FFF705
:104A90002CF91220FFF7AAFC174900F03F0207A8E3
:104AA00000F08EFE07A8FBF71BFC27E05969000801
:104AB0004C0100208C690008A8690008D76900082B
:104AC0001B6A0008646A00087D6A0008906A000892
:104AD000A76A0008BE6A00080B6B00083B6B000861
:104AE0006B6B0008936B0008BB6B0008E36B00085E
:104AF0000B6C0008356C00084E6C00080A2382B26B
:104B000007A95448FFF7F1F81320FFF76FFC52494B
:104B100000F03F0207A800F053FE07A8FBF7E0FBF8
:104B20000A2382B207A94B48FFF7DFF81420FFF7EA
:104B30005DFC4A4900F03F0207A800F041FE07A8CB
:104B4000FBF7CEFB0A2382B207A94248FFF7CDF854
:104B50001520FFF74BFC424900F03F0207A800F088
:104B60002FFE07A8FBF7BCFB0A2382B207A939482E
:104B7000FFF7BBF81620FFF739FC3A4900F03F0277
:104B800007A800F01DFE07A8FBF7AAFB07A982B241
:104B90000A233048FFF7A9F81C20FFF727FCC0F3D1
:104BA000401300F0010230490393C0F30013029355
:104BB000C0F3C0030193C0F380030093C0F340032C
:104BC00007A800F0FDFD07A8FBF78AFB07A982B242
:104BD0000A232048FFF789F81D20FFF707FC42074A
:104BE000044607A84CBF2149214900F00DFE07A843
:104BF000FBF776FB07A90A2382B21648FFF775F880
:104C0000A30707A84CBF1B491B4900F0FDFD07A8DF
:104C1000FBF766FB0A2382B207A90E48FFF765F887
:104C2000164907A800F0F0FD07A8FBF759FB0A2377
:104C300082B207A90748FFF758F820B010BD104905
:104C4000D1E5012C01D10F4958E6022C0CBF0E49C9
:104C50000E4953E64C010020676C0008806C000888
:104C6000996C0008B26C0008CB6C0008156D000848
:104C70002B6D0008426D00085C6D00085969000842
:104C8000C3690008D26A0008E66A0008F96A0008E9
:104C900082B073B50D4606A90646144641F8043F96
:104CA00088225F4800F060FD5E4B1E605E4B1D80F9
:104CB00002AD5E4B1C80FFF765FB0020E724FFF789
:104CC00087FB0520FBF752FD08210020FFF7CCFBF6
:104CD0003F210120FFF7C8FB03210220FFF7C4FB9F
:104CE00003210846FFF7C0FB03210420FFF7BCFBAC
:104CF00002210520FFF7B8FB0F210620FFF7B4FBC8
:104D00000E210720FFF7B0FB00210820FFF7ACFBC6
:104D100000210920FFF7A8FB05F8084D05222946C8
:104D20000A208DF804408DF803408DF802408DF87C
:104D30000140FFF7B1FBC223052229460B208DF865
:104D400004308DF803308DF802308DF801308DF885
:104D50000030FFF7A1FBC3210C20FFF785FBC42126
:104D60000D20FFF781FBC5210E20FFF77DFBC6213B
:104D70000F20FFF779FB0522294610208DF804400B
:104D80008DF803408DF802408DF801408DF8004009
:104D9000FFF782FB00211120FFF766FB00211220A4
:104DA000FFF762FB00211320FFF75EFB00211420B8
:104DB000FFF75AFB00211520FFF756FB00211620B4
:104DC000FFF752FBFFF7DEFC00211C20FFF74CFB36
:104DD00000211D20FFF748FBFFF7ECFCFF2104201A
:104DE000FFF742FB0320FFF7E9FB0120FFF703FC7D
:104DF0000220FFF71BFCFFF7CCFB20220C4B1A70A4
:104E0000FFF784FC4C20FFF7B1FBFFF77FFBFFF7B8
:104E100081FBFFF71EFC02B0BDE8704002B0704796
:104E2000C4000020C0000020BC000020BA00002008
:104E3000D801002084B008B50DF1080E8EE80F00EF
:104E400071468C22034800F08FFCBDE8084004B096
:104E5000704700BF4C01002037B5084D02AC44F844
:104E6000040D47F23053012221462846FEF73DFF4C
:104E70000028F6D1019803B030BD00BF0C0200201D
:104E800037B5002302AC084D04F8013D47F230531A
:104E9000012221462846FEF783FF0028F6D19DF81F
:104EA000070003B030BD00BF0C02002010B5CCB02D
:104EB0004C2200210AA800F062FC2022002102A856
:104EC00000F05DFCBC2200211DA800F058FC02206F
:104ED000FBF76CFE00230193254BDA6A22F00102F6
:104EE000DA62DB6A03F001030193224B9A6942F410
:104EF00040429A619A6902F440420192019A9A6989
:104F00009204FCD501224FF4803300240AA80A92AF
:104F10000B93022315923C221393149316920A22A8
:104F2000179319930C2318921A931B941C94FBF754
:104F30006BFE3F234FF48062042102A802930323F7
:104F400008920393402304940693079309930594CE
:104F5000FCF74EF9084B1DA835941D934FF48013B0
:104F60003A943E93FCF78AFBFBF746FE4CB010BD2B
:104F700000040058004802580220040080B5BEB06A
:104F8000BFF34F8FBFF36F8FBC4B0021C3F850129C
:104F9000BFF34F8FBFF36F8F5A6942F400325A61EB
:104FA000BFF34F8FBFF36F8FC3F88410BFF34F8FE2
:104FB000D3F8802043F6E076C2F3C904C2F34E3240
:104FC000A507520102EA060E2846214640EA0E07CE
:104FD000013900F14040C3F860724F1CF6D1203A0D
:104FE00012F1200FEED1BFF34F8F5A6942F4803295
:104FF0005A61BFF34F8FBFF36F8FFBF777FB00242E
:10500000FFF754FF142200212AA800F0B8FB9C4BA4
:105010004FF481419B48D3F8E02001259A4E42F09D
:105020001002C3F8E020D3F8E02002F0100223922F
:10503000239AD3F8E02042F00402C3F8E020D3F82A
:10504000E02002F004022492249AD3F8E02042F0F7
:105050008002C3F8E020D3F8E02002F0800225921D
:10506000259AD3F8E02042F00102C3F8E020D3F8FB
:10507000E02002F001022692269AD3F8E02042F0C6
:105080000202C3F8E020D3F8E02002F002022792E7
:10509000279AD3F8E02042F00802C3F8E020D3F8C2
:1050A000E02002F008022892289AD3F8E02042F08B
:1050B0004002C3F8E0200022D3F8E03003F04003C0
:1050C0002993299BFBF7C2FC002240216F48FBF784
:1050D000BDFC4FF400532AA96D482A936D4B2C94C4
:1050E0002B93FBF7C9FB4FF481432AA965482A9308
:1050F0002B952C942D94FBF7BFFB40232AA96348E2
:105100002A932B952C942D94FBF7B6FB80232AA988
:105110005E482A932B942C94FBF7AEFB2146224643
:105120002820FBF74DFB2820FBF782FB5A4A4FF45F
:10513000E1333046B460F4603461B461F4613462E8
:105140007462B46286E80C000C237361FEF7D0FE33
:1051500021463046FEF762FF21463046FEF782FFC9
:105160003046FEF740FF4D484D4909230461C561B3
:10517000046244628562C56204634A4D80E80A00A5
:105180000223C3608361FBF773FC47484FF480033D
:10519000AC602C616C612C626C62AC62EC62AC63E2
:1051A000EC632C646C64AC64EC642C656C65AC657D
:1051B00085E8090003232846EB604FF08063AB616C
:1051C0004FF0A043EB614FF080436B63FDF784F831
:1051D000364800F0DDFA291D8422684600F0C4FA42
:1051E0002B68102208213248FFF752FD06F110010A
:1051F0007C22684600F0B8FA2E4D96E80F00FFF7C3
:1052000019FE4FF47A70FBF7B1FA2B4EFFF7D2FA82
:10521000FFF787F9294BD3E90001FFF78DF9204605
:10522000FFF7C6F94C20FFF7A1F9254C2020FFF726
:10523000A5F9244800F0ACFA204600F0A9FA202194
:105240002846FFF767FA98B10A231A2231460E481A
:10525000FEF74BFD1C4A1D492AA800F0B1FA2AA806
:10526000FBF73EF80A2382B22AA90748FEF73DFD64
:105270004FF47A70FBF77AFADEE700BF00ED00E04A
:1052800000440258000402580C0200200018025882
:105290000008025800001111004800409802002048
:1052A00000000840A006002000340140776D00088F
:1052B0000010025810000020AC6D0008080000200B
:1052C0009B6D0008836D0008EC010020C76D00088D
:1052D000074B82B0D3F8F42042F00202C3F8F42066
:1052E000D3F8F43003F002030193019B02B070473E
:1052F0000044025810B588B004461422002103A8C7
:1053000000F03DFA2268144B9A4222D1134B03A9B4
:105310001348D3F8F02042F40052C3F8F020D3F839
:10532000F02002F400520192019AD3F8E02042F0FA
:105330001002C3F8E020D3F8E03003F0100302932A
:10534000029B642303930223049305230793FBF733
:1053500093FA08B010BD00BF003401400044025869
:105360000010025810B588B004461422002103A88A
:1053700000F005FA2268144B9A4223D1134B03A97B
:105380001348D3F8E82042F48022C3F8E820D3F889
:10539000E82002F480220192019AD3F8E02042F042
:1053A0000802C3F8E020D3F8E03003F008030293CA
:1053B000029B4FF440730393022304930723079344
:1053C000FBF75AFA08B010BD0048004000440258EC
:1053D000000C025810B588B004461422002103A81E
:1053E00000F0CDF92268194B9A422DD1184C03A92F
:1053F0001848D4F8E03043F00103C4F8E030D4F8A2
:10540000E03003F001030193019B4FF4E853039351
:10541000022304930A230793FBF72EFA4FF4007339
:1054200003A90C480393002304930593FBF724FA84
:10543000D4F8D83043F00063C4F8D830D4F8D8306A
:1054400003F000630293029B08B010BD0000084007
:1054500000440258000002587047FEE7FEE7FEE7EE
:10546000FEE7704770477047FBF76EB94FF4005086
:10547000FBF7F2BA70B50E4615460C46A31B9D42CB
:1054800001DC284670BDFFF7FBFC04F8010BF5E7D3
:1054900070B50E4615460C46A31B9D4201DC2846FE
:1054A00070BD14F8010BFFF7D7FCF5E708B50A4B00
:1054B0000246196809B90949196018686946024421
:1054C0008A4206D900F026F90C2303604FF0FF3022
:1054D00008BD1A6008BD00BFDC010020D007002015
:1054E0004FF0FF3070474FF4005300204B6070477F
:1054F000012070470020704718491948D1F88830BA
:1055000043F4700310B5C1F88830164B1A6842F0A6
:1055100001021A6000221A611C68204018609A611A
:10552000DA611A629A62DA621A635A639A63DA6318
:105530001A645A64186820F4802018601A660A4BAE
:105540001B681B0C1B04B3F1005F02D20122074B46
:105550001A604FF000638B6010BD00BF00ED00E0EB
:105560007FEDF6EA004402580010005C088100510B
:10557000494B4A481A6902F03802082A30B501D06E
:1055800002D89AB3464B36E0102A36D0182AF9D101
:105590009C6A9A6AD96AC2F305125D6B002A78D0B8
:1055A000C5F3CC0501F00101DFED3E4AB7EE005A2C
:1055B000694307EE901A04F00301B8EEE76A012987
:1055C00007EE902AF8EEE76A02D018D3022950D0ED
:1055D0001B6BC3F3080307EE903AF8EEE77AE6EEAA
:1055E000247A9FED316A77EE857A4FE01A682F4B67
:1055F000C2F3C102D340036028E02D4BFBE71968DA
:105600002A4AC1F3C1011B6BCA40C3F3080307EE6A
:10561000902AF8EEE75A07EE903AF8EEE77A85EE30
:10562000A67AE6EE247A77EE857A1B4B67EE877AC8
:105630001B6BC3F34623013307EE103AB8EEC77A6B
:10564000C7EE876AFCEEE66AC0ED006A124A1949A5
:105650009369C3F30323CC5C0368E340036092695E
:1056600002F00F028A5C02F01F02D340124A13605C
:1056700030BD1B6BC3F3080307EE903AF8EEE77AF0
:10568000E6EE247A9FED0D6A77EE857A86EE267A2D
:10569000CBE70260DAE700BF004402583000002088
:1056A00000093D00000000390024744A0090D00336
:1056B00000127A00DA6D0008340000200024F44A59
:1056C000DFF834D0002103E00C4B5B584350043129
:1056D0000B480C4B42189A42F6D30B4A02E00023C7
:1056E00042F8043B094B9A42F9D3FFF705FF00F05B
:1056F00017F8FFF743FC704700000220946E000883
:10570000000000209C0000209C000020D00700200A
:10571000FEE70000014B1868704700BF380000200A
:1057200070B50D4E0D4CA41BA4100025A54209D147
:105730000B4E0C4C01F0EAF8A41BA4100025A54266
:1057400005D170BD56F8253098470135EEE756F87B
:10575000253098470135F2E78C6E00088C6E000802
:105760008C6E0008906E000810B5431E0A449142EA
:1057700000D110BD11F8014B03F8014FF7E70244C7
:105780000346934200D1704703F8011BF9E700007C
:105790000FB40A4B13B51C6824B1A36913B9204692
:1057A00000F07AF805AB049AA1680193204600F056
:1057B000D5FA02B0BDE8104004B0704738000020B0
:1057C0000EB400B59CB04FF402711DABADF81410CF
:1057D000029006906FF000410A48049107914FF63D
:1057E000FF7153F8042BADF816100068019302A95D
:1057F00000F096F9029B00221A701CB05DF804EBD1
:1058000003B0704738000020034611F8012B03F85D
:10581000012B002AF9D17047014900F0A9B800BF57
:1058200031660008002310B50446036043608360BE
:1058300081814366C2810361436183611946082205
:105840005C30FFF79CFF054B6362054BA362054B81
:10585000E362054B2462236310BD00BFD5620008DC
:10586000F76200082F6300085363000870B54A1EF2
:10587000682555430E4605F1740100F097F804467B
:1058800040B1002180E842000C30A06005F16802C0
:10589000FFF775FF204670BD836910B5044633BB22
:1058A0008364C3640365124B124A1B688262984288
:1058B00004BF0123836100F01FF86060204600F000
:1058C0001BF8A060204600F017F80022E0600421D9
:1058D0006068FFF7A7FF01220921A068FFF7A2FF78
:1058E00002221221E068FFF79DFF0123A36110BD92
:1058F000EC6D000819580008F8B51C4B1E68B36918
:10590000074613B93046FFF7C7FF4836B4687368D7
:10591000013B03D5336833B13668F7E7B4F90C506F
:105920006DB16834F4E704213846FFF79FFF30601B
:105930000028F1D10C233B6004462046F8BD4FF609
:10594000FF73E3810123A38165662560A56065601F
:1059500025616561A5610822294604F15C00FFF715
:105960000EFF6563A563A564E564E6E7EC6D0008DA
:105970002DE9F8438046894600F14804002614B911
:105980003046BDE8F883A5686768013F01D5246803
:10599000F5E7AB89012B07D9B5F90E30013303D0F8
:1059A00029464046C84706436835EEE770B5CD1C2A
:1059B00025F0030508350C2D38BF0C25002D0646B3
:1059C00001DBA94203D90C233360002070BD00F035
:1059D000E9FE234A1468214691B9224C23681BB979
:1059E000304600F067FC20602946304600F062FC3B
:1059F000431C26D10C233360304600F0D4FEE4E78C
:105A00000B685B1B1AD40B2B0FD90B60CD50CC1835
:105A1000304600F0C8FE04F10B00231D20F0070003
:105A2000C31A1BD05A42E25070BD8C420DBF63684E
:105A30004B686360136018BF0C46E9E70C46496881
:105A4000CAE7C41C24F00304A04205D0211A304642
:105A500000F030FC0130CDD02560D9E770BD00BF2B
:105A6000E0010020E40100202DE9F0478E689E420D
:105A700082460C469146984635D88A8912F4906F32
:105A800031D0256809696F1A6569022305EB450560
:105A900095FBF3F508F101033B449D4238BF1D46D9
:105AA000530531D52946FFF781FF064650B90C232F
:105AB000CAF80030A38943F04003A3814FF0FF30C0
:105AC000BDE8F0873A462169FFF74EFEA38923F42B
:105AD000906343F08003A381266165613E44ED1B22
