:020000040800F2
:1000000000000220B92400087524000877240008A5
:10001000792400087B2400087D24000800000000EB
:100020000000000000000000000000007F24000825
:1000300081240008000000008324000885240008B3
:1000400009250008092500080925000809250008D8
:1000500009250008092500080925000809250008C8
:100060000925000809250008892400080925000839
:1000700009250008092500080925000809250008A8
:100080000925000809250008092500080925000898
:100090000925000809250008092500080925000888
:1000A0000925000809250008092500080925000878
:1000B00009250008912400080925000809250008E1
:1000C0000925000809250008092500080925000858
:1000D0000925000809250008092500080925000848
:1000E0000925000809250008092500080925000838
:1000F0000925000809250008092500080925000828
:100100000925000809250008092500080925000817
:100110000925000809250008092500080925000807
:1001200009250008092500080925000809250008F7
:1001300009250008092500080925000809250008E7
:1001400009250008092500080925000809250008D7
:1001500009250008092500080925000809250008C7
:1001600009250008092500080925000809250008B7
:1001700009250008092500080925000800000000DD
:0801800009250008092500080B
:1001880010B5054C237833B9044B13B10448AFF3C9
:1001980000800123237010BD0C0000200000000027
:1001A8007425000808B5034B1BB103490348AFF396
:1001B800008008BD00000000100000207425000821
:1001C800034613F8012B002AFBD1181A013870478F
:1001D80053B94AB9002908BF00281CBF4FF0FF31A6
:1001E8004FF0FF3000F07AB9ADF1080C6DE904CE9C
:1001F80000F006F8DDF804E0DDE9022304B07047FA
:100208002DE9F0478C460D460446089E002B51D137
:100218008A4217466DD9B2FA82FEBEF1000F0BD0A2
:10022800CEF1200C01FA0EF520FA0CFC02FA0EF7BA
:100238004CEA050C00FA0EF44FEA174A250CBCFBF1
:10024800FAF81FFA87F90AFB18CC45EA0C4508FBAF
:1002580009F3AB420AD9ED1908F1FF3280F0238186
:10026800AB4240F22081A8F102083D44ED1AA4B245
:10027800B5FBFAF00AFB105544EA054400FB09F9FE
:10028800A14509D9E41900F1FF3380F00A81A1459D
:1002980040F2078102383C44A4EB090440EA0840D4
:1002A8000021002E61D024FA0EF40023346073601C
:1002B800BDE8F0878B4207D9002E54D0002186E88C
:1002C80021000846BDE8F087B3FA83F1002940F021
:1002D8008E80AB4202D3824200F2FA80841A65EB28
:1002E80003050120AC46002E3FD086E81010BDE87B
:1002F800F08712B90127B7FBF2F7B7FA87FEBEF10C
:10030800000F34D1EB1B3A0C1FFA87FC0121B3FB19
:10031800F2F8250C02FB183345EA03450CFB08F3F9
:10032800AB4207D9ED1908F1FF3002D2AB4200F217
:10033800D1808046ED1AA3B2B5FBF2F002FB10554E
:1003480043EA05440CFB00FCA44507D9E41900F175
:10035800FF3302D2A44500F2B8801846A4EB0C047F
:1003680040EA08409DE731463046BDE8F087CEF1C7
:10037800200405FA0EF307FA0EF720FA04F83A0CEF
:1003880025FA04F448EA0308B4FBF2F14FEA1845E9
:1003980002FB11441FFA87FC45EA044501FB0CF3F4
:1003A800AB4200FA0EF409D9ED1901F1FF3080F0E3
:1003B8008A80AB4240F2878002393D44EB1A1FFA2B
:1003C80088F5B3FBF2F002FB103345EA034500FB66
:1003D8000CF3AB4207D9ED1900F1FF386FD2AB42ED
:1003E8006DD902383D44EB1A40EA01418FE7C1F16B
:1003F800200722FA07F88B4005FA01F448EA0303BC
:1004080020FA07FE4FEA134CFD404EEA040EB5FBF6
:10041800FCF94FEA1E440CFB19551FFA83F844EA0D
:10042800054509FB08F4AC4202FA01F200FA01FAA8
:1004380008D9ED1809F1FF3043D2AC4241D9A9F1EE
:1004480002091D442D1B1FFA8EFEB5FBFCF00CFBA8
:1004580010554EEA054400FB08F8A04507D9E418F2
:1004680000F1FF3529D2A04527D902381C4440EABB
:100478000940A4EB0804A0FB02894C45C6464D463A
:1004880015D312D056B1BAEB0E0364EB050404FA87
:1004980007F7CB401F43CC40376074600021BDE8AC
:1004A800F0871846F8E69046E0E6C245EAD2B8EB8F
:1004B800020E69EB03050138E4E72846D7E7404612
:1004C80091E78146BEE7014678E702383C4445E7B4
:1004D800084608E7A8F102083D442BE7704700BF2B
:1004E80038B50E4A0E4B054618784FF47A73B3FBAD
:1004F800F0F31068B0FBF3F000F0AAF8044658B91E
:100508000F2D09D8024629464FF0FF3000F05EF85B
:10051800044B20461D6038BD012038BD080000206E
:10052800000000200400002008B50B4B1A6842F4B4
:1005380000721A601A6842F480621A601A6842F4FB
:1005480080721A60032000F02FF80020FFF7C8FF20
:1005580001F0CCFE002008BD003C0240034A044BD9
:1005680011681B780B441360704700BF28000020F7
:1005780000000020014B1868704700BF28000020C9
:1005880038B50446FFF7F6FF631C1CBF054B1B7804
:10059800054618BFE418FFF7EDFF401B8442FAD860
:1005A80038BD00BF00000020074AD36823F4E06389
:1005B8001B041B0C43F0BF63000243F4003300F438
:1005C800E0600343D360704700ED00E0174B30B59F
:1005D800DC68C4F30224C4F10703251D042B28BFDB
:1005E8000423062D4FF0010505FA03F303F1FF3349
:1005F8008CBF033C00241940A14005FA04F4013CD7
:100608002240002842EA01024FEA0212ADBF00F17F
:10061800604000F00F00064B00F56140B5BFD2B254
:10062800D2B21A5480F8002330BD00BF00ED00E0BC
:1006380014ED00E0002808DB4209012300F01F0048
:1006480003FA00F0014B43F82200704700E100E094
:100658000138B0F1807F0AD2064B074A5860F02172
:1006680082F823100020072298601A607047012042
:10067800704700BF10E000E000ED00E02DE9F04F0A
:1006880085B00B68DFF8AC81684ADFF8AC9101935C
:1006980000230124019D9C402540AC4240F0B080DD
:1006A8004C6824F0100C0CF1FF36012E4FEA430E73
:1006B80012D88768032606FA0EF627EA0607CE68D8
:1006C80006FA0EF63E4386604768C4F3001627EA2A
:1006D80005079E403E4346600326C76806FA0EF6A5
:1006E800F64307EA060A8F6807FA0EF747EA0A0789
:1006F800BCF1020FC76016D14FEAD30A00EB8A0A91
:1007080003F0070BDAF820704FEA8B0B4FF00F0C51
:100718000CFA0BFC27EA0C0C0F6907FA0BF747EAEF
:100728000C07CAF8207007683E4004F0030707FA70
:100738000EFE4EEA06060660E60061D54FF0000B95
:10074800CDF80CB0D8F84470394E47F48047C8F853
:100758004470D8F8447007F480470397039F23F048
:10076800030707F1804707F59C3703F0030CD7F818
:1007780008A04FEA8C0C4FF00F0E0EFA0CFEB04298
:100788002AEA0E0E43D006F58066B04241D006F53F
:100798008066B0423FD006F58066B0423DD006F58F
:1007A8008066B0423BD048453BD006F50066B04273
:1007B80039D006F58066B04214BF0826072606FA27
:1007C8000CF646EA0E06BE601668EF4314F4803F46
:1007D8000CBF3E402E431660566814F4003F0CBF11
:1007E8003E402E435660966814F4801F0CBF3E406E
:1007F8002E439660D668A40254BF3E402E43D6606E
:100808000133102B7FF445AF05B0BDE8F08F5E468D
:10081800D5E70126D3E70226D1E70326CFE704264A
:10082800CDE70526CBE70626C9E700BF003C014017
:100838000000024000380240001402400AB1816101
:1008480070470904FBE7436931EA030308BF090459
:100858008161704708B5044B5969014202D058615B
:1008680001F0FCF808BD00BF003C01402DE9F34150
:10087800044608B901203FE00368DD0710D4236867
:1008880098075AD423681A0700F19C8023685B07ED
:1008980000F1BA80A069002840F01B8100202BE0FD
:1008A800A44B9A6802F00C02042A07D09A6802F056
:1008B8000C02082A0AD15B68590207D59D4B1B68B0
:1008C8009A03DCD56368002BD9D1D3E76368994DC7
:1008D800B3F5803F13D12B6843F480332B60FFF7C7
:1008E80049FE944D06462B689B03C8D4FFF742FE89
:1008F800801B6428F7D9032002B0BDE8F081B3F566
:10090800A02F04D12B6843F480232B60E3E72A68E7
:1009180022F480322A602A6822F480222A60002B7E
:10092800DDD1FFF727FE06462B689F03A7D5FFF703
:1009380021FE801B6428F7D9DDE77E4B9A6812F008
:100948000C0F07D09A6802F00C02082A11D15B68D4
:100958005E020ED4774B1A68950702D5E268012A21
:1009680088D11A68216922F0F80242EAC1021A60A5
:1009780088E7E268704BB2B101221A60FFF7FAFD0E
:100988006C4D06462B68980707D52B68226923F01B
:10099800F80343EAC2032B6074E7FFF7EBFD801B03
:1009A8000228EFD9A7E71A60FFF7E4FD614D064674
:1009B8002B6899077FF566AFFFF7DCFD801B0228DF
:1009C800F6D998E762695D4B7AB101221A60FFF7A0
:1009D800D1FD584D06466B6F9F073FF557AFFFF7A0
:1009E800C9FD801B0228F6D985E71A60FFF7C2FD0A
:1009F800504D06466B6F98077FF548AFFFF7BAFD75
:100A0800801B0228F6D976E74A4B1A6C12F08052FE
:100A180028D101921A6C42F080521A641B6C03F0C0
:100A280080530193019B0126454D2B68D9051BD5A1
:100A3800A368404D012B27D12B6F43F001032B678F
:100A4800FFF798FD3B4D074641F288382B6F9B070F
:100A580039D5002E3FF41EAF364A136C23F080536D
:100A6800136417E70026DFE72B6843F480732B60D5
:100A7800FFF780FD07462B68DA05D9D4FFF77AFD22
:100A8800C01B0228F7D936E7052B04D12B6F43F09A
:100A980004032B67D0E72A6F22F001022A672A6F26
:100AA80022F004022A67002BCAD1FFF763FD41F246
:100AB800883807462B6F9807CBD5FFF75BFDC01B1F
:100AC8004045F7D917E7FFF755FDC01B4045BDD98D
:100AD80011E7184DAB6803F00C03082B47D0194EEB
:100AE80000230228336035D1FFF744FD07462B6801
:100AF800990129D4226AE3691343626A43EA82139B
:100B0800E26A43EA0263A26A0A4C5208013A43EADB
:100B180002436B6001233360FFF72CFD0546236811
:100B28009A013FF5BBAEFFF725FD401B0228F6D919
:100B3800E1E600BF0038024000004742800E47420D
:100B48000070004060004742FFF714FDC01B0228F8
:100B5800CDD9D0E6FFF70EFD04462B689B017FF543
:100B68009DAEFFF707FD001B0228F6D9C3E6012852
:100B78003FF4C2AEA868E36900F480029A427FF4A9
:100B880079AE226A00F03F0393427FF473AE626A43
:100B980047F6C073034093427FF46CAEA26A00F438
:100BA800403393427FF466AEE36A00F07060C01A87
:100BB80018BF0120A0E600BF134908B58B6803F0F1
:100BC8000C03042B03D0082B03D0104808BD104891
:100BD80008BD4A684B68496813F4800314BF0C4881
:100BE8000A48C1F3881118BF002302F03F02A1FB95
:100BF8000001FFF7EDFA044B5B68C3F301430133CF
:100C08005B00B0FBF3F008BD003802400024F4009C
:100C180000127A002DE9F0410D46044610B9012072
:100C2800BDE8F081444B1A6802F00F028A4229D3CA
:100C380021688F072ED4C80741D43F4B1A6802F0A9
:100C48000F02954267D3226851076DD4130707D561
:100C58003A4A2169936823F4604343EAC1039360E5
:100C6800FFF7AAFF354B364A9B68C3F30313D35CDF
:100C7800D840344B1860344B1868FFF731FC00201B
:100C8800BDE8F081CAB21A701B6803F00F039942DD
:100C9800C5D1CDE7294B11F0040F1EBF9A6842F465
:100CA800E0529A600E0742BF9A6842F460429A6026
:100CB8009A68A06822F0F00202439A60BBE7626873
:100CC8001E4B012A1DD11B6813F4003FA7D01B4EF1
:100CD800B36823F003031343B360FFF74BFC41F2FF
:100CE80088380746B368626803F00C03B3EB820FD9
:100CF800A3D0FFF73FFCC01B4045F3D90320BDE854
:100D0800F081911E01291B6802D813F0007FDDE7EE
:100D180013F0020FDAE7EAB21A701B6803F00F0348
:100D28009D427FF47CAF8EE70449E0688B6823F42A
:100D3800E05303438B6089E7003C024000380240DF
:100D4800CB2500080800002004000020044B054AB9
:100D58009B68C3F38223D35C034A1068D84070476A
:100D680000380240DB25000808000020044B054A33
:100D78009B68C3F34233D35C034A1068D84070477A
:100D880000380240DB25000808000020F8B50446BA
:100D98000E4615461F4621688A6836EA020301D0C6
:100DA8000020F8BD6B1CF7D0FFF7E4FBC01B8542A1
:100DB800F1D823685A6822F0E0025A606268B2F5F6
:100DC800827F0AD1A268B2F5004F02D0B2F5806FD7
:100DD80003D11A6822F040021A60A26AB2F5005FD5
:100DE80007D11A6822F400521A601A6842F40052B5
:100DF8001A60012384F85130002384F8503003200E
:100E0800F8BD000073B51346134A144E15684268BE
:100E1800B5FBF6F64FF47A757543B2F5827F044652
:100E280001950DD10A468021FFF7B0FF10B90020C7
:100E380002B070BD636D43F0200363650320F7E7DC
:100E4800019B002BF3D0019B013B019323689B6816
:100E58001B06F5D4EBE700BF0800002000366E0142
:100E680010B50446002836D00023836290F851302C
:100E780003F0FF021BB980F8502001F057FA2168EF
:100E8800A068A269022384F851300B6823F040035C
:100E98000B6063680343E0680343206903436069A8
:100EA8000343E0690343206A0343A06A034302F44F
:100EB800007003430B60120C636A02F004021A43C9
:100EC8004A60CB6923F40063CB610020012360658D
:100ED80084F8513010BD012010BD2DE9F7431E469E
:100EE80090F850300A9F012B04460D46914600F0B9
:100EF800E280012380F85030FFF73CFB94F8513032
:100F08006168DBB2012B80460AD0B1F5827F40F0E0
:100F1800D080A068002840F0CC80042B40F0C98025
:100F2800002D00F0C480B9F1000F00F0C080002E41
:100F380000F0BD8094F85130C4F83890042B1CBFE1
:100F4800052384F8513000236365236463642368B0
:100F5800E687E6861A68A687500658BF1A6825638A
:100F680058BF42F04002A68658BF1A60E268B2F540
:100F7800006F58D109B1012E07D135F8022BDA607C
:100F8800E38E2563013B9BB2E3860125E38E9BB28A
:100F9800ABB9E38F9BB293B9424639462046FFF777
:100FA80031FF002840F08180A368002B32D12368EC
:100FB8000190DA6801929B680193019B2AE02268FC
:100FC800936899070DD5E38E9BB253B14DB1236B4E
:100FD80033F8021BD1602363E38E013B9BB2E386A7
:100FE80000259368DB070CD5E38F9BB24BB1A36B4D
:100FF800D26823F8022BA363E38F013B9BB2E387FC
:101008000125FFF7B7FAA0EB08008742BED87E1C7F
:10101800BCD00320012384F85130002384F85030D9
:1010280003B0BDE8F08309B1012E08D12A781A73FC
:10103800236B01332363E38E013B9BB2E3860125D7
:10104800E38E9BB21BB9E38F9BB2002BA4D022681E
:10105800936898070ED5E38E9BB25BB155B1236BAD
:101068001B781373236B01332363E38E013B9BB21D
:10107800E386002522689368D9070DD5E38F9BB2D4
:1010880053B1A36BD2681A70A36B0133A363E38FC8
:10109800013B9BB2E3870125FFF76CFAA0EB080040
:1010A8008742CDD87B1CCBD0B3E7202363650120D2
:1010B800B0E70220AEE70220B2E7704770477047FA
:1010C8007047704703681A69910710B504460ED532
:1010D800DA6892070BD56FF002021A619B69012248
:1010E8009B07027777D0FFF7EAFF0023237723686F
:1010F8001A69500710D5DA6851070DD56FF0040248
:101108001A619B69022213F4407F2277204668D037
:10111800FFF7D5FF0023237723681A6912070FD535
:10112800DA6810070CD56FF008021A61DB6904222F
:101138009907227720465AD0FFF7C1FF002323776B
:1011480023681A69D20610D5DA68D0060DD56FF073
:1011580010021A61DB69082213F4407F22772046C7
:101168004BD0FFF7ACFF0023237723681A69D10718
:1011780008D5DA68D20705D56FF001021A61204652
:10118800FFF79BFF23681A69100608D5DA6811066D
:1011980005D56FF080021A61204600F096F92368A1
:1011A8001A69520608D5DA68500605D56FF040026C
:1011B8001A612046FFF785FF23681A69910622D530
:1011C800DA6892061FD56FF0200220461A61BDE842
:1011D800104000F079B9FFF771FF2046FFF770FF64
:1011E80083E7FFF76BFF2046FFF76AFF92E7FFF7F9
:1011F80065FF2046FFF764FFA0E7FFF75FFF204683
:10120800FFF75EFFAFE710BD304A0368904212D087
:10121800B0F1804F0FD0A2F57C4290420BD002F57E
:101228008062904207D002F58062904203D002F5B6
:101238007842904219D14A6823F070031343234A35
:10124800904229D0B0F1804F26D0A2F57C4290423E
:1012580022D002F5806290421ED002F58062904250
:101268001AD002F57842904216D0194A904213D00B
:1012780002F5806290420FD002F5806290420BD056
:10128800A2F59832904207D002F58062904203D0CE
:1012980002F58062904203D1CA6823F44073134375
:1012A8004A6923F08003134303608B68C3620B68A9
:1012B8008362064B984203D003F58063984201D1BC
:1012C8000B69036301234361704700BF00000140BD
:1012D8000040014010B50446A0B190F83D3003F03D
:1012E800FF021BB980F83C2001F06CF8022384F857
:1012F8003D302068211DFFF787FF012384F83D302A
:10130800002010BD012010BD10B584680A4324F4E4
:101318007F4442EA03232343836010BD90F83C30A6
:10132800012B70B504464FF0020019D084F83D0037
:101338002068012384F83C30836823F47F4323F03A
:10134800770383600B68402B65D015D8102B0CD021
:1013580007D853B10123002084F83D3084F83C00BD
:1013680070BD202B01D0302BF4D1826843F00703E5
:1013780022F0700213431AE0602B34D019D8502B96
:10138800E8D14A68CE68016A056A25F00105056258
:10139800836921F00A0123F0F00343EA06130A43A4
:1013A80083610262836823F0700343F0570383600C
:1013B800D0E7702B0CD0B3F5005FCBD1CB684A686F
:1013C8008968FFF7A1FF2268936843F4804308E027
:1013D800CB684A688968FFF797FF2268936843F0EB
:1013E80077039360B6E74D68CE68016A21F0100173
:1013F80001628269036A22F4704223F0A00343EA7F
:10140800051342EA063282610362836823F070039F
:1014180043F06703CBE74A68CE68016A056A25F09E
:1014280001050562836921F00A0123F0F00343EA0C
:1014380006130A4383610262836823F0700343F052
:101448004703B4E790F83C30012B30B54FF0020366
:1014580035D080F83D3003680D685C6824F070046E
:1014680001222C4380F83C209A685C60154CA3420A
:101478001AD0B3F1804F17D0A4F57C44A34213D0FF
:1014880004F58064A3420FD004F58064A3420BD016
:1014980004F57844A34207D004F57054A34203D05E
:1014A800A4F59434A34204D1496822F080020A4387
:1014B8009A60012380F83D30002380F83C301846BC
:1014C80030BD00BF000001407047704738B5036861
:1014D800C1681A69044622F440520A431A61256910
:1014E800A268D968C0692A43656921F416412A436C
:1014F80021F00C0102430A43DA605A69A16922F417
:1015080040720A43B0F5004F5A61254A29D19342E7
:1015180003D002F58062934220D1FFF727FC62686E
:10152800256892184FF000034FF019015B41A0FBAA
:101538000101FEF74DFE6421B0FBF1F401FB140339
:10154800DB003233B3FBF1F303F007025B0002EB7D
:10155800041203F4F8731344AB6038BDFFF7F6FBCD
:10156800DDE7934202D00F4A934216D1FFF7FEFB04
:101578006368256819219A00A0FB01019B0FFEF7FB
:1015880027FE6422B0FBF2F102FB11031B01323388
:10159800B3FBF2F303EB0113DEE7FFF7D7FBE7E753
:1015A8000010014000140140F8B504460E461746E5
:1015B8001D4621680B6836EA030301D10020F8BDF7
:1015C8006B1CF7D095B92368DA6822F4D072DA6018
:1015D8005A6922F001025A61202384F8393084F8CC
:1015E8003A30002384F838300320F8BDFEF7C2FFF4
:1015F800C01B8542DDD2E6E710B5044640B390F83B
:10160800393003F0FF021BB980F8382000F0F8FEEB
:101618002268242384F83930D36823F40053D36034
:101628002046FFF753FF23681A6922F490421A6193
:101638005A6922F02A025A61DA6842F40052DA60E2
:1016480000202023E06384F8393084F83A3010BD54
:10165800012010BD2DE9F8431F4690F83930202BA2
:1016680004460D46904651D100294CD0002A4AD054
:1016780090F83830012B49D0012380F838304FF0EA
:1016880000092123C0F83C9080F83930FEF772FF3A
:10169800A4F824800646A4F8268084F83890E38CC1
:1016A8009BB25BB93B46324640212046FFF77CFFA0
:1016B800A0B9202384F83930BDE8F883E38C013BD6
:1016C8009BB2E384A368B3F5805F32463B464FF094
:1016D800800120460ED1FFF767FF10B10320BDE857
:1016E800F8832B882268C3F308035360236943B93E
:1016F8000235D4E7FFF758FF0028EFD123682A788E
:101708005A600135CBE70120BDE8F8830220BDE827
:10171800F883000030B595B03022002108A800F009
:1017280015FF0021142203A800F010FF00241D4B10
:1017380001941A6C42F080521A641B6C03F08053B7
:101748000193019B184B02941A6842F480421A6074
:101758001B6803F480430293029B012308934FF410
:10176800803309934FF480030F93082310934FF4A9
:10177800A8730225119308A8072313930E951295B1
:10178800FFF774F80F2303934FF4A0530693052132
:101798004FF4805303A8049505940793FFF73AFA8A
:1017A80015B030BD00380240007000402DE9F04F00
:1017B80095B0FEF7B9FEFFF7ADFF1422002107A888
:1017C800002400F0C3FE934B00941A6B924E93488A
:1017D800934DDFF884A242F080021A631A6B02F07C
:1017E80080020092009A01941A6B42F004021A6374
:1017F8001A6B02F004020192019A02941A6B42F0E9
:1018080001021A631A6B02F001020292029A03940F
:101818001A6B42F002021A631A6B02F00202039278
:10182800039A04941A6B42F008021A631B6B03F0C4
:101838000803049322464FF47041049BFEF7FEFF11
:1018480022464FF400417748FEF7F8FF224630461B
:101858004821FEF7F3FF4FF0010802274FF47043C9
:1018680007A96E480793CDF820800A974FF4004BDC
:101878000994FEF703FF07A96A48CDF820800A9764
:10188800CDF81CB00994FEF7F9FE4823304607A9A5
:101898004FF010090793CDF820800A970994FEF7B6
:1018A800EDFE614B0893304607A9CDF81C900994CA
:1018B800FEF7E4FE214622460A20FEF787FE0A20AC
:1018C800FEF7B8FE594AAC604FF4827385E80C0005
:1018D8004FF48023AB612023EB6128460A23EB6297
:1018E800EC602C616C612C626C62AC62FFF7B8FA38
:1018F80021464A4607A800F029FE4D4A059450465D
:101908008AE814000694CAF80840CAF80C40CAF8D5
:101918001040CAF81840FFF7DDFC4FF4805207A9C1
:1019280050460792FFF7FAFC05A95046059406941D
:10193800FFF788FD3F48404984604FF4E13380E871
:101948000A000C234361C46004618461C461FFF729
:1019580053FE424659463348DFF8F080FEF76EFFE3
:1019680003238DF81D308DF81F3004238DF82030A7
:101978000F238DF822300B238DF823302F4B09933A
:101988002F4B0A932F4B0B930A230D930823ADF883
:10199800443007A940232C48ADF83C308DF821701D
:1019A80010960E9612968DF81C408DF81E400C95D8
:1019B800ADF84C9000F006FC4FF47A7221462348AB
:1019C800234F00F0C3FD2349204800F0C7FD4FF422
:1019D8007A760023E518ADB218F80520AAB1DA55D1
:1019E8000133E518042BADB2F4D13946164800F09E
:1019F80063FC66B9094C20464FF40051FEF723FFFB
:101A08004FF4FA70FEF7BCFDF5E71646EDE72C46F5
:101A1800DFE700BF0038024000040240000C02402B
:101A2800D4040020000802400000211000300140CA
:101A3800000400402C00002000480040C625000893
:101A4800C1250008D0040020B0000020E8000020D4
:101A58006C0000208C25000870000020102808B5B4
:101A680009D105484FF40041FEF7EDFE0348BDE8F3
:101A7800084000F05BBA08BD000C0240B00000202E
:101A8800018D406A0022FEF7D9BE018D406A01220D
:101A9800FEF7D4BE2DE9F04782B002AF1E4697F894
:101AA80020A00AF1080323F00703ADEB030D0DF1A5
:101AB8000809ADEB030D4B460AF1FF38044603F85D
:101AC800011B02AD511E0DF1070042444FF0000EFC
:101AD80091421CD10022218CE069FEF7AFFEA36978
:101AE80000932A460AF1010349466069FFF7F5F9B0
:101AF800C8B9731E01354644B3420FD1E069218C41
:101B08000122FEF79BFE0020BD46BDE8F08711F8D4
:101B180001CF03F801CB00F801EFD9E715F8012B45
:101B280003F8012FE8E70120EEE7000038B5054685
:101B380008460C46FEF744FB4FF47A7382B22146FE
:101B48000348FFF787FD002385F8363038BD00BF0E
:101B58002C0000201FB504AC002304F8013D01232C
:101B6800009313462246FFF795FF003018BF012067
:101B780004B010BD1FB504AB002403F8014D0124C7
:101B8800009441F02001FFF785FF003018BF0120C5
:101B980004B010BD80B582B00279D31D23F00703CD
:101BA80002AFADEB030D0B460092612102AAFFF7CD
:101BB80071FF003018BF0120BD4680BD80B582B0DE
:101BC8000279D31D23F0070302AFADEB030D02AB7F
:101BD80000920A46B021FFF75DFF003018BF0120D0
:101BE800BD4680BD1FB500238DF80E308DF80F302F
:101BF80000930DF10F020DF10E03E121FFF74AFFEB
:101C0800003018BF012005B05DF804FB1FB50023A4
:101C18008DF80E308DF80F3000930DF10F020DF195
:101C28000E03E221FFF736FF003018BF012005B090
:101C38005DF804FB73B502AC002304F8013D0E46C1
:101C4800224606210546FFF785FF10B1012002B0A4
:101C580070BD9DF8073016F0010F14BF43F0200344
:101C680023F020038DF807309DF8073016F0020F97
:101C780014BF43F0080323F0080322460621284630
:101C88008DF80730FFF776FF0028DFD12E70DEE7EA
:101C980037B502AC002304F8013D0721224605466A
:101CA800FFF758FF78B99DF80730224643F07003D4
:101CB800072128468DF80730FFF75CFF003018BF72
:101CC800012003B030BD0120FBE773B502AD00234E
:101CD80005F8013D0C462A4605210646FFF73AFF5E
:101CE80010B1012002B070BD9DF8073004F07F04E8
:101CF80023432A46052130468DF80730FFF73AFF7F
:101D08000028EED1F471EDE773B502AD002305F8B4
:101D1800013D0C462A4604210646FFF71BFF10B179
:101D2800012002B070BD9DF8073004F00F0423F0C5
:101D38000F0323432A46042130468DF80730FFF766
:101D480019FF0028ECD17471EBE773B502AD0023DD
:101D580005F8013D0C462A4604210646FFF7FAFE1F
:101D680010B1012002B070BD9DF8073004F00F04D7
:101D780003F00F0343EA04132A46042130468DF882
:101D88000730FFF7F7FE0028EBD1B471EAE773B527
:101D980002AC002304F8013D0E4622460321054605
:101DA800FFF7D8FE10B1012002B070BD9DF80730D2
:101DB80003F0030333432246032128468DF80730F6
:101DC800FFF7D8FE0028EED1EE70EDE707B502AABE
:101DD80002F8011D0221FFF7CDFE003018BF0120D7
:101DE80003B05DF804FB73B502AD002305F8013DAF
:101DF8000C462A4601210646FFF7ACFE012178B9B8
:101E08009DF8073001FA04F41C432A4630468DF841
:101E18000740FFF7AFFE003018BF012002B070BDC9
:101E28000846FBE773B502AC0E46002104F8011D15
:101E380022460546FFF78EFE98B99DF807306EB129
:101E480043F008032246002128468DF80730FFF7A3
:101E580091FE003018BF012002B070BD23F00803C6
:101E6800F0E70120F8E773B502AC0E46002104F84C
:101E7800011D22460546FFF76DFE10B1012002B094
:101E880070BD9DF80730012E0CBF43F0040323F00A
:101E980008032246002128468DF80730FFF76AFE1E
:101EA8000028EBD1AE70EAE773B502AC0E4600210C
:101EB80004F8011D22460546FFF74CFE98B99DF827
:101EC80007306EB143F002032246002128468DF800
:101ED8000730FFF74FFE003018BF012002B070BD79
:101EE80023F00203F0E70120F8E773B502AC0E46D1
:101EF800002104F8011D22460546FFF72BFE98B97C
:101F08009DF807306EB143F00103224600212846B0
:101F18008DF80730FFF72EFE003018BF012002B001
:101F280070BD23F00103F0E70120F8E773B502ADB7
:101F3800002305F8023D04464FF480414148FEF76E
:101F480082FC2A4607212046FFF704FE002877D1A5
:101F58009DF806305E062AD502AE06F8010D204629
:101F6800FFF78EFD2A4607212046FFF703FE32467B
:101F780017212046FFF7EEFD9DF80730D80713D448
:101F8800266920463146FFF705FE9DF806300721F1
:101F980043F040032A4620468DF80630FFF7EAFD55
:101FA80031462046FFF7C2FD2046FFF76EFD9DF83B
:101FB800063099061AD543F0200320468DF80630DE
:101FC800FFF75EFD01212046FFF78FFF012384F80C
:101FD80037302046FFF759FD2A4607212046FFF7EC
:101FE800C9FD002384F8353084F834309DF8063074
:101FF800DA0625D543F0100320468DF80630FFF7A2
:10200800F1FD00212046FFF74FFF01212046FFF791
:102018004BFF2046FFF734FD012601212046FFF73C
:1020280064FF204684F83760FFF72FFD2A46072112
:102038002046FFF79FFD002384F8356084F834308C
:1020480002B070BD000C024073B502AC0E46002110
:1020580004F8011D22460546FFF77CFD98B99DF856
:1020680007306EB943F040032246002128468DF818
:102078000730FFF77FFD003018BF012002B070BDA8
:1020880023F04003F0E70120F8E773B502AC0E46F1
:10209800002104F8011D22460546FFF75BFD98B9AB
:1020A8009DF807306EB943F02003224600212846E8
:1020B8008DF80730FFF75EFD003018BF012002B031
:1020C80070BD23F02003F0E70120F8E773B502ACF8
:1020D8000E46002104F8011D22460546FFF73AFD89
:1020E80098B99DF807306EB943F0100322460021D5
:1020F80028468DF80730FFF73DFD003018BF012056
:1021080002B070BD23F01003F0E70120F8E730B506
:1021180085B005230C4600930A4602AB2A210546E2
:10212800FFF7B8FC10B9AC6005B030BD0120FBE783
:1021380030B585B005230C4600930A4602AB2B2127
:102148000546FFF7A7FC10B9AC6005B030BD01200B
:10215800FBE730B585B005230C4600930A4602AB71
:1021680030210546FFF796FC10B9EC6005B030BD8C
:102178000120FBE713B502AA01F03F0102F8011D97
:1021880011210446FFF7F6FC20B10023237101203A
:1021980002B010BD9DF807302371F9E713B502AA04
:1021A80001F03F0102F8011D12210446FFF7E2FC8D
:1021B80020B100232371012002B010BD9DF8073023
:1021C8002371F9E773B50E46044605460FCE0FC5D1
:1021D8000FCE0FC50FCE0FC533682B602046FFF713
:1021E8004FFC0022218CE069FEF728FB02AD01219B
:1021F8002046FFF759FE002305F8013D9DF807101A
:1022080011F0020153D021792046FFF7B3FF21795D
:102218002046FFF7C3FFA1682046FFF789FFE16862
:102228002046FFF774FFE1682046FFF792FF01217F
:102238002046FFF709FF01212046FFF726FF01216D
:102248002046FFF743FF01212046FFF7EBFDA17869
:102258002046FFF708FEE1782046FFF798FDE17970
:102268002046FFF732FD21782046FFF7E3FC61792D
:102278002046FFF749FDA1792046FFF766FD0321B7
:102288002046FFF7A3FD00212046FFF7ACFD2046BE
:10229800FFF7FEFC01212046FFF727FE2046FFF747
:1022A800B5FC2046FFF7F1FB002002B070BD2A46BE
:1022B8002046FFF74FFCA1E738B50123044680F814
:1022C80034300D46FFF7DCFB00212046FFF70DFEFA
:1022D80029462046FFF772FC2046FFF7D6FB94F804
:1022E8003430012BFBD094F8350038BD07B50E4BC0
:1022F800002100915A6C42F480425A645A6C02F4EC
:1023080080420092009A01911A6C42F080521A643D
:102318001B6C03F0805301930720019BFEF744F9DF
:1023280003B05DF804FB00BF00380240F0B5044676
:1023380089B01422002103A800F008F922681E4B76
:102348009A4236D103F58433002400945A6C1B4812
:1023580042F480525A645A6C02F480520092009AF5
:1023680001941A6B42F001021A631A6B02F001021F
:102378000192019A02941A6B42F002021A631B6BD3
:1023880003F002030293029B02277023032605250C
:1023980003A90393049706960795FEF76FF9202380
:1023A80003A9074803930497059406960795FEF733
:1023B80065F909B0F0BD00BF0030014000000240DF
:1023C8000004024007B50D4B02689A4213D100225F
:1023D80003F50D330192196C41F0020119641B6C6D
:1023E80003F0020301931D201146019BFEF7EEF84E
:1023F8001D20FEF71FF903B05DF804FB0004004040
:1024080010B5044688B01422002103A800F09EF8F5
:102418002268144B9A4223D103F5F8330021019125
:102428001A6C114842F480221A641A6C02F4802251
:102438000192019A02911A6B42F008021A631B6B0F
:1024480003F008030293029B4FF4407303930223A3
:1024580004930323069303A907230793FEF70EF9B2
:1024680008B010BD00480040000C02407047FEE76D
:10247800FEE7FEE7FEE7704770477047FEF76EB865
:102488001020FEF7E7B900000148FEF71BBE00BFA9
:1024980070000020054BD3F8882042F47002C3F87E
:1024A80088204FF000629A60704700BF00ED00E09E
:1024B800DFF834D0002103E00C4B5B584350043163
:1024C8000B480C4B42189A42F6D30B4A02E0002301
:1024D80042F8043B094B9A42F9D3FFF7DBFF00F0BF
:1024E80011F8FFF763F9704700000220F42500088F
:1024F800000000200C0000200C0000202C0500200B
:10250800FEE7000070B50D4E0D4CA41BA41000256D
:10251800A54209D10B4E0C4C00F028F8A41BA410BE
:102528000025A54205D170BD56F8253098470135DC
:10253800EEE756F8253098470135F2E7EC25000814
:10254800EC250008EC250008F025000802440346A5
:10255800934200D1704703F8011BF9E7034611F8CD
:10256800012B03F8012B002AF9D17047F8B500BFF9
:10257800F8BC08BC9E467047F8B500BFF8BC08BC5C
:042588009E467047B4
:10258C0068656C6C6F20776F726C64204D6F68613E
:10259C006D65642066726F6D20646973636F766518
:1025AC00727920626F6172642073746D3332663499
:1025BC0020210A0D00010203040501020304060098
:1025CC0000000000000000010203040607080900D7
:0825DC000000000102030400ED
:0825E40024DCFF7F0100000070
:0425EC00AD01000835
:0425F0008901000855
:0C25F40001000000100000000024F400B2
:04000005080024B912
:00000001FF
