:020000040800F2
:1000000000000820355D0108C5190008CB1900085B
:10001000D1190008D7190008DD19000800000000F8
:10002000000000000000000000000000E3190008CC
:10003000F119000800000000FF1900080D1A00085F
:10004000855D0108855D0108855D0108855D010804
:10005000855D0108855D0108855D0108855D0108F4
:10006000855D0108855D0108855D0108855D0108E4
:10007000855D0108855D0108855D0108855D0108D4
:10008000855D0108855D0108855D0108855D0108C4
:10009000855D0108855D0108855D0108855D0108B4
:1000A000855D0108855D0108855D0108855D0108A4
:1000B000191A0008855D0108855D0108855D010844
:1000C000855D0108855D0108855D0108855D010884
:1000D000855D0108855D0108855D0108855D010874
:1000E0002D1A0008855D0108855D0108855D010800
:1000F000855D0108855D0108855D0108855D010854
:10010000855D0108855D0108855D0108855D010843
:10011000855D0108855D0108855D0108855D010833
:10012000855D0108855D0108855D0108855D010823
:10013000855D0108855D0108855D0108855D010813
:10014000855D0108855D0108855D0108855D010803
:10015000855D0108855D0108855D0108855D0108F3
:10016000855D0108855D0108855D0108855D0108E3
:10017000855D0108855D0108855D010800000000BE
:10018000855D0108855D0108855D0108855D0108C3
:10019000855D0108855D0108855D0108855D0108B3
:1001A000855D0108855D0108855D0108855D0108A3
:1001B000855D0108855D0108855D0108855D010893
:1001C000855D0108855D010800000000855D01086E
:1001D000855D0108855D0108855D0108855D010873
:1001E000855D0108855D0108855D0108855D010863
:0801F000855D0108855D010831
:1002000010B5054C237833B9044B13B10448AFF350
:1002100000800123237010BDE401002000000000D5
:100220006472010808B5034B1BB103490348AFF3DF
:10023000008008BD00000000E80100206472010891
:1002400010F8012B11F8013B012A28BF9A42F7D080
:10025000D01A7047034613F8012B002AFBD1181A55
:10026000013870470000000000000000000000009E
:1002700001F0FF01102A2BDB10F0070F08D010F857
:10028000013B013A8B422DD010F0070F42B3F6D15B
:10029000F0B441EA012141EA014122F007047FF074
:1002A00000070023F0E80256083C85EA010586EACB
:1002B000010685FA47F5A3FA87F586FA47F6A5FA07
:1002C00087F68EB9EED1F0BC01F0FF0102F0070213
:1002D00032B110F8013B013A83EA010313B1F8D1BE
:1002E0000020704701387047002D06BF354603389F
:1002F000073815F0010F07D1013015F4807F02BFD8
:10030000013015F4C03F0130F0BC0138704700BF28
:1003100053B94AB9002908BF00281CBF4FF0FF316C
:100320004FF0FF3000F07AB9ADF1080C6DE904CE62
:1003300000F006F8DDF804E0DDE9022304B07047C0
:100340002DE9F0478C460D460446089E002B51D1FE
:100350008A4217466DD9B2FA82FEBEF1000F0BD069
:10036000CEF1200C01FA0EF520FA0CFC02FA0EF781
:100370004CEA050C00FA0EF44FEA174A250CBCFBB8
:10038000FAF81FFA87F90AFB18CC45EA0C4508FB76
:1003900009F3AB420AD9ED1908F1FF3280F023814D
:1003A000AB4240F22081A8F102083D44ED1AA4B20C
:1003B000B5FBFAF00AFB105544EA054400FB09F9C5
:1003C000A14509D9E41900F1FF3380F00A81A14564
:1003D00040F2078102383C44A4EB090440EA08409B
:1003E0000021002E61D024FA0EF4002334607360E3
:1003F000BDE8F0878B4207D9002E54D0002186E853
:1004000021000846BDE8F087B3FA83F1002940F0E7
:100410008E80AB4202D3824200F2FA80841A65EBEE
:1004200003050120AC46002E3FD086E81010BDE841
:10043000F08712B90127B7FBF2F7B7FA87FEBEF1D2
:10044000000F34D1EB1B3A0C1FFA87FC0121B3FBE0
:10045000F2F8250C02FB183345EA03450CFB08F3C0
:10046000AB4207D9ED1908F1FF3002D2AB4200F2DE
:10047000D1808046ED1AA3B2B5FBF2F002FB105515
:1004800043EA05440CFB00FCA44507D9E41900F13C
:10049000FF3302D2A44500F2B8801846A4EB0C0446
:1004A00040EA08409DE731463046BDE8F087CEF18E
:1004B000200405FA0EF307FA0EF720FA04F83A0CB6
:1004C00025FA04F448EA0308B4FBF2F14FEA1845B0
:1004D00002FB11441FFA87FC45EA044501FB0CF3BB
:1004E000AB4200FA0EF409D9ED1901F1FF3080F0AA
:1004F0008A80AB4240F2878002393D44EB1A1FFAF2
:1005000088F5B3FBF2F002FB103345EA034500FB2C
:100510000CF3AB4207D9ED1900F1FF386FD2AB42B3
:100520006DD902383D44EB1A40EA01418FE7C1F131
:10053000200722FA07F88B4005FA01F448EA030382
:1005400020FA07FE4FEA134CFD404EEA040EB5FBBD
:10055000FCF94FEA1E440CFB19551FFA83F844EAD4
:10056000054509FB08F4AC4202FA01F200FA01FA6F
:1005700008D9ED1809F1FF3043D2AC4241D9A9F1B5
:1005800002091D442D1B1FFA8EFEB5FBFCF00CFB6F
:1005900010554EEA054400FB08F8A04507D9E418B9
:1005A00000F1FF3529D2A04527D902381C4440EA82
:1005B0000940A4EB0804A0FB02894C45C6464D4601
:1005C00015D312D056B1BAEB0E0364EB050404FA4E
:1005D00007F7CB401F43CC40376074600021BDE873
:1005E000F0871846F8E69046E0E6C245EAD2B8EB56
:1005F000020E69EB03050138E4E72846D7E74046D9
:1006000091E78146BEE7014678E702383C4445E77A
:10061000084608E7A8F102083D442BE7704700BFF1
:1006200080B584B000AFF860B9607A607B68BA6862
:100630001F49204815F0B6FC1E48FFF70BFE034685
:100640009AB24FF47A731B491B4805F0E9F91B492C
:10065000B868FFF7F5FD0346002B03D1184B0022C5
:100660001A6020E0BB681B78412B03D1144B012298
:100670001A6018E01349B868FFF7E2FD0346002B43
:1006800003D10F4B02221A600DE00F49B868FFF743
:10069000D7FD0346002B03D1094B03221A6002E069
:1006A000074B09221A6000BF1037BD4680BD00BF4E
:1006B0007C720108A8080020980C0020B072010884
:1006C00000020020C0720108CC720108F0B585B0AC
:1006D00000AFF860B96011461A460B46FB8013461E
:1006E0007B71FA887B794A494A4815F05BFC494896
:1006F000FFF7B0FD03469AB24FF47A734549464876
:1007000005F08EF9BA684549424815F04BFC41485E
:10071000FFF7A0FD03469AB24FF47A733D493E4875
:1007200005F07EF97B7903F00103002B6BD03C4B85
:100730001B68002B17D1FB88013BBA6813441B7858
:10074000002B60D1BA683549324815F02BFC31488E
:10075000FFF780FD03469AB24FF47A732D492E4875
:1007600005F05EF94FE02E4B1B68012B4BD02C4B54
:100770001B68022B0BD12B49B868FFF761FD0346BC
:10078000002B40D00021B868FFF75AFD3BE0244B16
:100790001B68032B12D12349B868FFF751FD0346AC
:1007A000002B30D02049B868FFF74AFD0346002BE4
:1007B00029D01E49B868FFF743FD24E0154B1C4AB9
:1007C00014469E4604F1200C754626460FCE28603E
:1007D0006960AA60EB6010340EF1100E6445F3D12D
:1007E0007546234607CB28606960AA601B782B7387
:1007F0000848FFF72FFD03469AB24FF47A73054974
:10080000054805F00DF900BF1437BD46F0BD00BF27
:10081000DC720108A8080020980C00201073010861
:10082000000200202C7301083073010834730108A2
:100830003873010880B582B000AF78600B46FB705A
:1008400097F903301A460949094815F0ABFB0848E7
:10085000FFF700FD03469AB24FF47A730449054846
:1008600005F0DEF800BF0837BD4680BD687301089B
:10087000A8080020980C0020F0B589B002AFF860FD
:10088000B9601346FB80BB687B61FB88002B4BD1B2
:10089000314B324A14469E4604F1200C75462646DA
:1008A0000FCE28606960AA60EB6010340EF1100E64
:1008B0006445F3D17546234607CB28606960AA607A
:1008C0002548FFF7C7FC03469AB24FF47A732249D2
:1008D000234805F0A5F8BB68224A2349F86808F0C8
:1008E000B7FC01230193BB680093204B0022796978
:1008F000F86808F0D7FB0346FB7497F91330002B18
:1009000026D097F913301A461949134815F04AFBB7
:100910001148FFF79FFC03469AB24FF47A730E49D1
:100920000F4805F07DF813E0FB881A4611490A4884
:1009300015F038FB0848FFF78DFC03469AB24FF4D8
:100940007A730549064805F06BF8F86800F04AF834
:1009500000BF1C37BD46F0BDA80800208073010809
:10096000980C0020CD060008210600083508000874
:10097000AC730108C873010880B586B002AFF86097
:10098000B9607A60134ABB681360124B1B68D9B216
:10099000104B1B681B0AD8B20E4B1B681B0CDBB23A
:1009A0000C4A1268120E0192009303460A460A4945
:1009B0000A4815F0F7FA0948FFF74CFC03469AB2CB
:1009C0004FF47A730549064805F02AF800BF10373E
:1009D000BD4680BDA4080020F8730108A8080020C7
:1009E000980C002080B58CB002AF7860396007F1B8
:1009F00008031C220021184615F046FA214BBB6063
:100A0000214A2249224809F087FE20480BF0D0FBFA
:100A100003461A461F49204815F0C4FA1E48FFF73E
:100A200019FC03469AB24FF47A731B491B4804F031
:100A3000F7FF07F1080301933B680093184B40F25E
:100A40005B721249786808F031FC034687F827305A
:100A500097F92730002B11D097F927301A46114902
:100A60000D4815F09FFA0C48FFF7F4FB03469AB2C5
:100A70004FF47A730849094804F0D2FF00BF2837C1
:100A8000BD4680BD1474010879090008A40800203F
:100A90001C74010830740108A8080020980C00207C
:100AA000790800086874010880B582B000AF7860EA
:100AB0000B46FB7097F90330002B11D097F90330E8
:100AC0001A460949094815F06DFA0848FFF7C2FBB4
:100AD00003469AB24FF47A730449054804F0A0FF24
:100AE00000BF0837BD4680BD84740108A8080020F7
:100AF000980C002080B588B004AF786039603B68FE
:100B0000FB600023FB720023BB72F868FFF7A2FBB7
:100B100003469AB23B680393134B0293BB7A01934B
:100B2000FB7A00931346FA681049786808F0E6F9F2
:100B300003467B7297F90930002B11D097F90930E1
:100B40001A460B490B4815F02DFA0A48FFF782FBAD
:100B500003469AB24FF47A730649074804F060FFDF
:100B600000BF1037BD4680BDA90A0008987401086F
:100B7000A4740108A8080020980C002080B582B059
:100B800000AF786000BF391D47F23053012205489D
:100B900004F046FF0346002BF5D17B681846083762
:100BA000BD4680BD980C002080B582B000AF002308
:100BB000FB7100BFF91D47F230530122054804F0D4
:100BC000C0FF0346002BF5D1FB7918460837BD4618
:100BD00080BD00BF980C002080B58CB002AF78605B
:100BE000396007F10C03002219461E4804F02CF866
:100BF00007F12403002219461A4804F02BF93B7B25
:100C00001A467B7B1946BB7B00930B4616497868D6
:100C100015F0C8F97868FFF71DFB03469AB24FF448
:100C20007A737968114804F0FBFE97F826301A466B
:100C300097F82530194697F8273000930B460C4952
:100C4000386815F0AFF93868FFF704FB03469AB22D
:100C50004FF47A733968054804F0E2FE00BF283784
:100C6000BD4680BD44120020B8740108980C0020D5
:100C7000C874010880B500AF00F08EFF00F02AF8BC
:100C800000F0CCF900F0C2F800F06AF900F098F931
:100C900005F000FF00F016F908F0FEFA02460B4BD3
:100CA0001A600B4804F0B6F90346002B01D000F09F
:100CB00083FD074804F006FA0346002B01D000F03C
:100CC0007BFD00F0BDFC05F063FFFCE73C1200205B
:100CD000D429002080B5B8B000AF07F1AC033422AE
:100CE0000021184615F0D0F807F1980300221A6089
:100CF0005A609A60DA601A6107F1080390220021B5
:100D0000184615F0C1F802F023FD3D4A3C4B1B6C20
:100D100043F0805313643A4B1B6C03F080537B60A9
:100D20007B68384A374B1B6843F440431360354BAC
:100D30001B6803F440433B603B680923C7F8AC30B1
:100D40004FF4A023C7F8B0300123C7F8C030022306
:100D5000C7F8C4304FF48003C7F8C8300423C7F87D
:100D6000CC30D823C7F8D0300223C7F8D4300923B9
:100D7000C7F8D83007F1AC03184602F049FD034626
:100D8000002B01D000F018FD02F0F2FC0346002B0E
:100D900001D000F011FD0F23C7F898300223C7F8E7
:100DA0009C300023C7F8A0304FF4A053C7F8A430FC
:100DB0004FF48053C7F8A83007F19803072118466D
:100DC00002F0D4FF0346002B01D000F0F5FC0E4BDF
:100DD000BB604FF40073BB6300237B650023C7F83F
:100DE000843007F10803184603F0B8F90346002BD6
:100DF00001D000F0E1FC00BFE037BD4680BD00BF80
:100E000000380240007000402001200080B588B00A
:100E100000AF07F1080300221A605A609A60DA6096
:100E20001A615A6100237B60244B254A1A60234BC8
:100E300000225A60214B7F229A60204BFF22DA6009
:100E40001E4B00221A611D4B00225A611B4B0022CF
:100E50009A611A4803F0A8FD0346002B01D000F068
:100E6000ABFC00233B7200237B720023BB72002388
:100E7000BB610023FB6107F10803012219460F48FB
:100E800003F024FE0346002B01D000F095FC012363
:100E90003B7101237B710123BB710023FB713B1D5F
:100EA00001221946054803F02DFF0346002B01D00F
:100EB00000F082FC00BF2037BD4680BD44120020F8
:100EC0000028004080B588B000AF07F11003002271
:100ED0001A605A609A60DA603B1D00221A605A60FC
:100EE0009A601D4B4FF080421A601B4BD8225A600B
:100EF000194B00229A60184B184ADA60164B0022F0
:100F00001A61154B00229A61134804F083F80346D6
:100F1000002B01D000F050FC4FF480533B6107F1EF
:100F2000100319460C4804F065FA0346002B01D063
:100F300000F042FC00237B600023FB603B1D194650
:100F4000054804F073FC0346002B01D000F034FC8C
:100F500000BF2037BD4680BDD429002080841E00FC
:100F600080B500AF144B154A1A60134B4FF4E132B1
:100F70005A60114B00229A600F4B0022DA600E4B30
:100F800000221A610C4B0C225A610B4B00229A6111
:100F9000094B0022DA61084B00221A62064B00223C
:100FA0005A62054804F0EEFC0346002B01D000F025
:100FB00003FC00BF80BD00BF980C0020004800402B
:100FC00080B500AF144B4FF0A0421A60124B0622BE
:100FD0005A60114B0222DA600F4B00221A610E4B4D
:100FE00002229A610C4B0122DA610B4B00221A6239
:100FF000094B00225A62084B0122DA62064B00229A
:101000001A63054802F05BFA0346002B01D000F09A
:10101000D3FB00BF80BD00BF1C0D002080B58CB08D
:1010200000AF07F11C0300221A605A609A60DA6070
:101030001A614A4A494B1B6B43F004031363474B45
:101040001B6B03F00403BB61BB69444A434B1B6B3E
:1010500043F080031363414B1B6B03F080037B6100
:101060007B693E4A3D4B1B6B43F0010313633B4BD3
:101070001B6B03F001033B613B69384A374B1B6B29
:1010800043F002031363354B1B6B03F00203FB6059
:10109000FB68324A314B1B6B43F0080313632F4B41
:1010A0001B6B03F00803BB60BB682C4A2B4B1B6B0C
:1010B00043F040031363294B1B6B03F040037B6039
:1010C0007B68002244F28101254802F0A1F9002248
:1010D0004021244802F09CF94FF40053FB61224B5D
:1010E0003B6200237B6207F11C0319461F4801F095
:1010F000E5FF44F28103FB6101233B6200237B6235
:101100000023BB6207F11C031946154801F0D6FF06
:101110004023FB6101233B6200237B620023BB620F
:1011200007F11C0319460F4801F0C8FF8023FB613B
:1011300000233B6200237B6207F11C031946094828
:1011400001F0BCFF00220021282000F07EFE2820B4
:1011500000F097FE00BF3037BD4680BD003802402A
:101160000004024000180240000011100008024074
:10117000B0B584B000AFF860B9607A60FB7001214F
:101180002A4802F05EF92A4A2A4B15461C460FCC23
:1011900028606960AA60EB602068286123792B755C
:1011A0002348FFF757F803469AB24FF47A73204961
:1011B000214804F035FC7B68002B12D11C4A1F4BE0
:1011C000144607CB20606160A2601948FFF742F81F
:1011D00003469AB24FF47A731549174804F020FC7D
:1011E0001CE07B685B684FF487721946144814F062
:1011F000FDFE134A13490E4814F0D4FE0C48FFF7C5
:1012000029F803469AB24FF47A7309490A4804F060
:1012100007FC0D4B01221A7000F096F878680DF06B
:1012200051F9002318461037BD46B0BD00040240F6
:101230004C160020D8740108980C0020F0740108A6
:1012400024110020FC74010804020020B0B584B011
:1012500000AFF860B9607A607B808021104802F0AE
:10126000F0F8104A104B15461C460FCC28606960F8
:10127000AA60EB6007CC28616961AA6123782B77AB
:101280000848FEF7E7FF03469AB24FF47A73054920
:10129000064804F0C5FB002318461037BD46B0BD14
:1012A000000402404C16002010750108980C002024
:1012B000B0B584B000AFF8607A603B600B46FB725B
:1012C0004FF480411A4802F0BCF81A4A1A4B1546EE
:1012D0001C460FCC28606960AA60EB6007CC2861CF
:1012E0006961AA611348FEF7B5FF03469AB24FF44D
:1012F0007A731049114804F093FBFB7A1A4610499F
:101300000C4814F04FFE0B48FEF7A4FF03469AB2B8
:101310004FF47A730749094804F082FB7A68094957
:10132000044814F03FFE00BF1037BD46B0BD00BFFB
:10133000000402404C16002030750108980C002073
:101340004C7501086075010880B588B000AFA749E9
:10135000A74814F060FEF8610023BB615FE0BB6941
:101360000E3B102B54D801A252F823F0B113000801
:10137000B913000811140008C1130008C9130008AC
:1013800011140008D1130008D91300081114000823
:10139000E1130008E913000811140008F113000814
:1013A000F9130008111400080114000809140008BA
:1013B000FB691B783B752CE0FB691B787B7528E08B
:1013C000FB691B783B7424E0FB691B787B7420E08D
:1013D000FB691B783B711CE0FB691B787B7118E093
:1013E000FB691B783B7314E0FB691B787B7310E08F
:1013F000FB691B783B720CE0FB691B787B7208E091
:10140000FB691B783B7004E0FB691B787B7000E094
:1014100000BFFB690133FB61BB690133BB61BB6981
:10142000202B9CDD07F11403184614F0ACFC034696
:101430009AB2704B1A806F4B1B881A466E496F48E0
:1014400014F0B0FD6D48FEF705FF03469AB24FF465
:101450007A736A496A4804F0E3FA07F11003184600
:1014600014F091FC03469AB2664B1A80654B1B88B8
:101470001A466549614814F095FD6048FEF7EAFE9A
:1014800003469AB24FF47A735C495D4804F0C8FA97
:101490003B1D184614F077FC03469AB25B4B1A804A
:1014A0005A4B1B881A465A49544814F07BFD53483E
:1014B000FEF7D0FE03469AB24FF47A734F49504874
:1014C00004F0AEFA07F10C03184614F05CFC034676
:1014D0009AB2504B1A804F4B1B881A464E494748C8
:1014E00014F060FD4548FEF7B5FE03469AB24FF48E
:1014F0007A734249424804F093FA07F10803184608
:1015000014F041FC03469AB2444B1A80434B1B88AB
:101510001A464349394814F045FD3848FEF79AFE0B
:1015200003469AB24FF47A733449354804F078FA96
:101530003B46184614F027FC03469AB2394B1A80F2
:10154000384B1B881A4638492C4814F02BFD2B4881
:10155000FEF780FE03469AB24FF47A732749284873
:1015600004F05EFA314803F01FFA0346002B01D065
:1015700000F022F91F4B1B88DAB22D4BDA70214B99
:101580001B88DAB22A4B5A70204B1B88DAB2284BE0
:101590009A7000222649254803F0B4FB0346002B2D
:1015A00001D000F009F91B4B1B88DAB2214B1A70ED
:1015B0001A4B1B88DAB21F4B5A701A4B1B88DAB2CF
:1015C0001C4B9A7000221B49184803F07FFA03460F
:1015D000002B01D000F0F0F8174B1B681749184694
:1015E000FFF700FA00BF2037BD4680BD80750108B7
:1015F00024110020221100208C7501084C160020B7
:10160000980C002038120020A4750108900C0020CE
:10161000B875010820110020CC7501084012002087
:10162000DC750108202A0020F4750108441200200E
:10163000540200203C0200203C1200200C760108DD
:10164000B0B5ADF50E7D04AF07F10A0300221A8094
:10165000D7F8243200229A71D7F82432304ADA605F
:10166000D7F824322F4A9A6007F10C032E4A1C4601
:1016700015460FCD0FC42B681A46228002341B0C6E
:10168000237007F12C03294A184611464B231A46AA
:1016900014F0D5FB07F12C031A462549254814F010
:1016A00081FC2448FEF7D6FD03469AB24FF47A73C4
:1016B0002049214804F0B4F94FF47A7302221F49FB
:1016C0001D4804F0ADF907F12C0207F10C003B1D99
:1016D0000293002301931A4B0093D7F82432502130
:1016E00006F0E6FA034687F8233297F923321A46C2
:1016F0001449104814F056FC0E48FEF7ABFD0346A3
:101700009AB24FF47A730B490B4804F089F941F20D
:10171000883000F09FFA00BF07F50A77BD46B0BDDC
:101720004D120008B1120008187601082C76010845
:10173000787601084C160020980C00208476010869
:101740007111000888760108B0B582B000AF7860EA
:1017500012491348FFF740FA124B1B78012B19D19D
:10176000114B1B6811491846FFF73CF9104A114B01
:1017700015461C460FCC28606960AA60EB6003CC5C
:101780002861696123782B76074B1B680849184646
:10179000FFF7B0F900BF0837BD46B0BD58020020C2
:1017A00008020020040200203C1200200C760108F0
:1017B000641200209876010880B400AF72B6FEE78C
:1017C00080B483B000AF0F4A0E4B1B6C43F08053C4
:1017D00013640C4B1B6C03F080537B607B68094ADD
:1017E000084B5B6C43F480435364064B5B6C03F41F
:1017F00080433B603B6800BF0C37BD465DF8047B0F
:10180000704700BF0038024080B483B000AF7860FA
:101810007B681B68074A934205D1074A064B1B6F3A
:1018200043F40043136700BF0C37BD465DF8047BEB
:10183000704700BF002800400038024080B584B0E7
:1018400000AF78607B681B68B3F1804F13D10C4AFE
:101850000B4B1B6C43F001031364094B1B6C03F02F
:101860000103FB60FB68002200211C2000F0EDFA60
:101870001C2000F006FB00BF1037BD4680BD00BF36
:101880000038024080B58AB000AF786007F11403D9
:1018900000221A605A609A60DA601A617B681B68DD
:1018A000174A934228D1174A164B1B6C43F48023E6
:1018B0001364144B1B6C03F480233B613B69114A96
:1018C000104B1B6B43F0080313630E4B1B6B03F0B1
:1018D0000803FB60FB684FF440737B610223BB612C
:1018E0000023FB6103233B6207237B6207F11403A0
:1018F0001946054801F0E2FB00BF2837BD4680BD10
:101900000048004000380240000C024080B58AB018
:1019100000AF786007F1140300221A605A609A60E1
:10192000DA601A617B681B68B3F1A04F41D1234A8A
:10193000224B1B6B43F001031363204B1B6B03F023
:1019400001033B613B694FF4E8537B610223BB61B8
:101950000023FB6103233B620A237B6207F114032C
:101960001946174801F0AAFB4FF400737B6100236E
:10197000BB610023FB6107F114031946104801F015
:101980009DFB0E4A0D4B5B6B43F0800353630B4B87
:101990005B6B03F08003FB60FB68084A074B5B6CE2
:1019A00043F480435364054B5B6C03F48043BB609A
:1019B000BB6800BF2837BD4680BD00BF003802406D
:1019C0000000024080B400AFFEE780B400AFFEE745
:1019D00080B400AFFEE780B400AFFEE780B400AF94
:1019E000FEE780B400AF00BFBD465DF8047B7047E2
:1019F00080B400AF00BFBD465DF8047B704780B483
:101A000000AF00BFBD465DF8047B704780B500AFF6
:101A100000F000F900BF80BD80B500AF024803F0C0
:101A2000C9FB00BF80BD00BFD429002080B500AF36
:101A30004FF4005001F020FD00BF80BD90B587B08D
:101A400000AFF860B9607A6000237B610AE0BC688F
:101A5000631CBB60FFF7A8F80346DBB223707B6909
:101A600001337B617A697B689A42F0DB7B681846B8
:101A70001C37BD4690BD80B586B000AFF860B96038
:101A80007A6000237B6109E0BB685A1CBA601B784E
:101A90001846FFF773F87B6901337B617A697B68CD
:101AA0009A42F1DB7B6818461837BD4680BD0000BE
:101AB00080B485B000AF7860114B1B68002B02D159
:101AC0000F4B104A1A600E4B1B68FB600C4B1A68D8
:101AD0007B6813446A46934205D90B4B0C221A606B
:101AE0004FF0FF3306E0064B1A687B681344044A44
:101AF0001360FB6818461437BD465DF8047B7047D9
:101B00008C020020C8B60020C4B6002080B483B088
:101B100000AF78604FF0FF3318460C37BD465DF8D4
:101B2000047B704780B483B000AF786039603B6855
:101B30004FF400525A60002318460C37BD465DF83A
:101B4000047B704780B483B000AF786001231846EF
:101B50000C37BD465DF8047B704780B485B000AF9C
:101B6000F860B9607A60002318461437BD465DF806
:101B7000047B704780B400AF064A064BD3F8883028
:101B800043F47003C2F8883000BFBD465DF8047BA3
:101B9000704700BF00ED00E080B500AF032000F00B
:101BA00049F9002000F006F8FFF70AFE0023184666
:101BB00080BD000080B582B000AF7860124B1A681B
:101BC000124B1B7819464FF47A73B3FBF1F3B2FB57
:101BD000F3F3184600F063F90346002B01D001230C
:101BE0000EE07B680F2B0AD8002279684FF0FF3097
:101BF00000F02BF9064A7B681360002300E0012304
:101C000018460837BD4680BD0000002008000020AF
:101C10000400002080B400AF064B1B781A46064B28
:101C20001B681344044A136000BFBD465DF8047B83
:101C3000704700BF08000020242A002080B400AFB5
:101C4000034B1B681846BD465DF8047B704700BF18
:101C5000242A002080B584B000AF7860FFF7EEFF43
:101C6000B8607B68FB60FB68B3F1FF3F05D0094BB0
:101C70001B781A46FB681344FB6000BFFFF7DEFFCA
:101C80000246BB68D21AFB689A42F7D300BF1037EE
:101C9000BD4680BD0800002080B485B000AF7860EC
:101CA0007B6803F00703FB600B4BDB68BB60BA6823
:101CB0004FF6FF031340BB60FB681A02BB681A4370
:101CC000064B1343BB60044ABB68D36000BF1437A4
:101CD000BD465DF8047B704700ED00E00000FA05AA
:101CE00080B400AF044BDB681B0A03F007031846FF
:101CF000BD465DF8047B704700ED00E080B483B022
:101D000000AF0346FB7197F90730002B0BDB094945
:101D100097F907305B09FA7902F01F02012000FAF7
:101D200002F241F8232000BF0C37BD465DF8047B6A
:101D3000704700BF00E100E080B483B000AF03460D
:101D40003960FB7197F90730002B0ADB0D4997F9D1
:101D500007303A68D2B21201D2B20B4483F80023A2
:101D60000AE00949FB7903F00F03043B3A68D2B259
:101D70001201D2B20B441A7600BF0C37BD465DF893
:101D8000047B704700E100E000ED00E080B489B022
:101D900000AFF860B9607A60FB6803F00703FB618D
:101DA000FB69C3F10703042B28BF0423BB61FB6954
:101DB0000433062B02D9FB69033B00E000237B615F
:101DC0000122BB6902FA03F35A1EBB681A407B6901
:101DD0009A4001217B6901FA03F3591E7B680B408D
:101DE000134318462437BD465DF8047B7047000056
:101DF00080B582B000AF78607B68013BB3F1807F33
:101E000001D301230FE00A4A7B68013B53600F2195
:101E10004FF0FF30FFF790FF054B00229A60044B14
:101E200007221A60002318460837BD4680BD00BF50
:101E300010E000E080B582B000AF78607868FFF70E
:101E40002BFF00BF0837BD4680BD80B586B000AF10
:101E50000346B9607A60FB7300237B61FFF740FFA4
:101E600078617A68B9687869FFF790FF024697F958
:101E70000F3011461846FFF75FFF00BF1837BD4609
:101E800080BD80B582B000AF0346FB7197F9073083
:101E90001846FFF733FF00BF0837BD4680BD80B549
:101EA00082B000AF78607868FFF7A2FF034618465B
:101EB0000837BD4680BD000080B588B000AF7860AF
:101EC0000023FB610023FB60A94BBB6100237B6106
:101ED00000233B617B68002B01D1012383E17B68F8
:101EE00093F84430DBB2002B06D17B68002283F8E4
:101EF0004520786804F058FE9E4A9E4B5B6C43F484
:101F0000804353649B4B5B6C03F48043BB60BB68B2
:101F1000994A994B5B6823F4000353609649964BAA
:101F20005A687B681B6A13434B607B681B687A683E
:101F3000126802F58052126842F0010203F58053E4
:101F40001A60FFF77BFE786111E0FFF777FE02462B
:101F50007B69D31AB3F5FA7F09D97B68032283F82A
:101F600044207B68002283F8452003233BE17B6803
:101F70001B6803F580531B6803F00103002BE4D1B9
:101F80007B681B681B69FB61FB6923F01C03FB6119
:101F900002F0B0F8B861BB69784A934208D9BB69CE
:101FA000774A934204D8FB6943F00803FB6127E0BA
:101FB000BB69734A934208D9BB69724A934204D8F9
:101FC000FB6943F00C03FB611AE0BB696D4A934265
:101FD00003D9BB696C4A934211D9BB696A4A9342DF
:101FE00008D9BB69694A934204D8FB6943F00403EA
:101FF000FB6105E0FB6943F01003FB6100E000BFFB
:102000007B681B68FA691A614FF400420021786806
:1020100000F09AFB0346002B0BD001233B6139698A
:10202000786800F04DFD7B68012283F8442001238D
:10203000D9E0FF20FFF70EFE7B685B68002B00F005
:10204000A780FFF7FBFD786107F10C031A46012119
:10205000786800F011FBFFF7F1FD02467B69D31AA7
:1020600041F2883293420FD901233B613969786884
:1020700000F026FD7B68012283F844207B68002263
:1020800083F845200323AEE0FB6803F00403002B34
:10209000DAD04FF480520021786800F055FB0346F7
:1020A000002B0BD001233B613969786800F008FDF3
:1020B0007B68012283F84420012394E0FFF7BEFDF2
:1020C000786107F10C031A460121786800F0D4FA10
:1020D000FFF7B4FD02467B69D31A41F2883293427E
:1020E0000FD901233B613969786800F0E9FC7B680E
:1020F000012283F844207B68002283F845200323D3
:1021000071E0FB6803F02003002BDAD007F10C0329
:102110001A461F21786800F0AFFA0346002B0BD057
:1021200001233B613969786800F0CAFC7B680122B1
:1021300083F84420012356E0FB6803F01003002BD2
:1021400004D07B684FF40062DA6002E07B68002212
:10215000DA60FB6803F00403002B03D07B680022E5
:102160009A6037E07B684FF480429A6032E000BFAB
:10217000008793030038024000380140FF2C3101F2
:10218000BF0E1602FF869303FFE0F5057FD1F0082E
:102190007B68DB68DB089AB27B689B685B089BB254
:1021A00013439BB21A460021786800F0CDFA03462B
:1021B000002B0BD001233B613969786800F080FC6B
:1021C0007B68012283F8442001230CE040F6FF7075
:1021D000FFF740FD3969786800F072FC7B680122E6
:1021E00083F84420002318462037BD4680BD00BF39
:1021F00080B487B000AFF860B9607A603B600023BC
:102200007B61FB6893F84530012B01D1022352E03A
:10221000FB68012283F84520FB68022283F84420F2
:10222000FB68BA68DA6200237B6130E07B695B019E
:10223000BA6813443B613B694FF480121A607B69B2
:1022400040F2F45202FB03F37A6813441A463B69E6
:102250009A60FB68DB69002B05D13B691B6843F47E
:1022600040023B691A603B685A1E7B699A4208D952
:102270007B6901335B01BA6813441A463B69DA6033
:1022800002E0BA683B69DA607B6901337B617A6995
:102290003B689A42CAD3FB681968BA6841F21003D6
:1022A0000B441A60FB68012283F84420FB6800227B
:1022B00083F84520002318461C37BD465DF8047B93
:1022C000704780B487B000AFF860B9607A603B6057
:1022D00000237B61FB6893F84530012B01D1022379
:1022E00056E0FB68012283F84520FB68022283F850
:1022F0004420FB68BA689A6200237B6134E07B6902
:102300005B01BA6813443B613B694FF000421A60BD
:102310003B6944F2F4525A607B6940F2F45202FB8A
:1023200003F37A6813441A463B699A60FB689B6919
:10233000012B05D13B695B6823F000423B695A6081
:102340003B685A1E7B699A4208D97B6901335B015D
:10235000BA6813441A463B69DA6002E0BA683B691E
:10236000DA607B6901337B617A693B689A42C6D344
:10237000FB681968BA6841F20C030B441A60FB68E9
:10238000012283F84420FB68002283F845200023C3
:1023900018461C37BD465DF8047B704780B487B093
:1023A00000AF7860396000237B610023FB6000236D
:1023B0003B617B6893F84530012B01D10223CDE0CE
:1023C0007B68012283F845207B68022283F8442041
:1023D0003B68002B09D17B68012283F844207B688D
:1023E000002283F845200123B8E07B68DB6A1B6884
:1023F000002B09DA7B68122283F844207B680022D4
:1024000083F845200123A9E03B6840F2F45293424F
:1024100015D93B68544AA2FB03239B0A7B613A68A7
:10242000514BA3FB02139B0A40F2F45101FB03F34F
:10243000D31A002B05D07B6901337B6101E00123B6
:102440007B617B69012B1CD17B68DB6A7A68D26A6D
:10245000126842F040521A607B68DB6A3A68C2F345
:102460000C025A607B68DB6A7A68D26A126842F0B2
:1024700000421A607B68DB6ADB681A467B68DA62B6
:102480004BE000233B6144E07B68DB6A7A68D26AF8
:10249000126822F040521A603B69002B07D17B681A
:1024A000DB6A7A68D26A126842F080521A607B68EE
:1024B000DB6A40F2F4525A607B695A1E3B699A42C9
:1024C00016D17B68DB6A7A68D26A126842F00052E1
:1024D0001A607B69254A02FB03F23B68134403F24E
:1024E000F453FB607B68DB6AFA68C2F30C025A6043
:1024F0007B68DB6A7A68D26A126842F000421A602E
:102500007B68DB6ADB681A467B68DA623B69013309
:102510003B613A697B699A42B6D37B681A6841F29B
:10252000140313441B6803F00403002B0DD07B68D5
:102530001A6841F21403134404221A607B681A6873
:1025400041F20403134400221A607B68012283F8DD
:1025500044207B68002283F84520002318461C375E
:10256000BD465DF8047B70470BB002AC0CFAFFFF70
:1025700080B485B000AF78600023FB607B6893F87F
:102580004530012B01D1022370E07B68012283F8E2
:1025900045207B68022283F844207B689B6A1B6885
:1025A000002B5ADB7B689B6A1B6803F48073002B4B
:1025B00030D07B689B6B5A1C7B689A637B689B6BF3
:1025C000012B03D17B689A6A7B681A637B689A6ADD
:1025D0007B685A637B689B6A1B681B0CC3F30D0303
:1025E000043BFB607B68FA68DA637B681B6B9A6864
:1025F0007B681A647B689B6ADB681A467B689A6210
:102600007B68012283F844207B68002283F8452000
:1026100000232BE07B689B6A1B6803F40073002B8C
:1026200010D07B689A6A7B681A637B6800225A63C1
:102630007B6801229A637B689B6ADB681A467B6829
:102640009A620AE07B689B6B5A1C7B689A637B6882
:102650009B6ADB681A467B689A627B68012283F872
:1026600044207B68002283F8452001231846143754
:10267000BD465DF8047B704780B586B000AFF8605A
:102680000B467A607B8100237B6100233B61FB6802
:1026900093F84430DBB2822B01D1022350E0FB6877
:1026A000822283F84420FB681B681B697B617B697D
:1026B00003F01C037B61FB681B8ADB029BB27A6917
:1026C00013437B617B899B0103F4F8637A691343AD
:1026D0007B617B6923F002037B617B6943F001032B
:1026E0007B61FB681B687A691A61FFF7A7FA38619A
:1026F00015E0FFF7A3FA02463B69D31AB3F5803F12
:1027000009D3FB68012283F84420FB68002283F888
:102710004520032314E0FB681B681B697B617B6910
:1027200003F00103002BE4D1FB681B685B699BB2DB
:102730001A467B681A60FB68012283F84420002354
:1027400018461837BD4680BD80B586B000AFF8602A
:102750000B467A607B8100237B6100233B61FB6831
:1027600093F84430DBB2422B01D102234EE0FB68E8
:10277000422283F84420FB681B681B697B617B69EC
:1027800003F01C037B61FB681B8ADB029BB27A6946
:1027900013437B617B899B0103F4F8637A691343DC
:1027A0007B617B6943F002037B617B6943F001033A
:1027B0007B61FB681B687A6892B25A61FB681B6890
:1027C0007A691A61FFF73AFA386115E0FFF736FACD
:1027D00002463B69D31AB3F5803F09D3FB68012257
:1027E00083F84420FB68002283F8452003230DE092
:1027F000FB681B681B697B617B6903F00103002B8D
:10280000E4D1FB68012283F84420002318461837DE
:10281000BD4680BD80B582B000AF78607B6893F81C
:102820004530012B01D102231FE07B68012283F890
:1028300045207B68022283F84420786800F040FB42
:10284000786800F077FB786800F00EFC786800F09C
:10285000ABFB786800F0D8FB7B68012283F844204A
:102860007B68002283F84520002318460837BD46C0
:1028700080BD80B582B000AF78607B6893F845304A
:10288000012B01D102231FE07B68012283F8452040
:102890007B68022283F84420786800F09DFB78680A
:1028A00000F0CAFB786800F062FB786800F0DCFB9F
:1028B000786800F022FB7B68012283F844207B6863
:1028C000002283F84520002318460837BD4680BD06
:1028D00080B584B000AF786039600023FB607B680E
:1028E00093F84530012B01D10223E3E07B680122FC
:1028F00083F845207B68022283F844203B68002B44
:1029000000F0B0807B681B681B68FB60FA686B4B4B
:102910001340FB603B681A683B685B681A433B687E
:102920009B681A433B68DB681A437B689B681A43C1
:102930003B681B691A433B685B691A437B68DB6829
:102940001A433B689B691A433B68DB691A433B683F
:102950001B6A1A433B685B6A1A433B689B6A1343D2
:10296000FA681343FB607B681B68FA681A607B682F
:102970001B681B68FB600120FFF76CF97B681B6814
:10298000FA681A607B681B683A68D16A3A68126B09
:1029900011433A68526B11433A68926B11433A689B
:1029A000D26B11433A68126C11433A68526C11436E
:1029B0003A68926C0A435A607B681B685B68FB60EC
:1029C0000120FFF747F97B681B68FA685A607B684B
:1029D0001B683A68D26C9A607B681B683A68126D13
:1029E000DA607B681B689B69FB60FA684FF641738D
:1029F0001340FB603B685B6D1A043B689B6D1A4398
:102A00003B68DB6D1A433B681B6E1A433B685B6E89
:102A10001A433B689B6E1343FA681343FB607B6861
:102A20001B68FA689A617B681B689B69FB600120E0
:102A3000FFF710F97B681B68FA689A617B681B686E
:102A40003A68D16E3A68126F0A43DA617B681B6894
:102A5000DB69FB600120FFF7FDF87B681B68FA6803
:102A6000DA611EE07B681B681B68FB60FB6823F46F
:102A70009043FB607B689A687B68DB681343FA6865
:102A80001343FB607B681B68FA681A607B681B68ED
:102A90001B68FB600120FFF7DDF87B681B68FA68A4
:102AA0001A607B68012283F844207B68002283F847
:102AB0004520002318461037BD4680BD0F8120FFFA
:102AC00080B5B0B000AF786039600023C7F8BC3083
:102AD0003B68002B07D07B684FF40062DA607B68AC
:102AE0004FF480429A600023BB640023FB64002300
:102AF0003B6500237B650023BB650023FB657B688A
:102B0000DB69002B03D14FF480633B6601E00023B7
:102B10003B664FF400737B660023BB660023FB66B5
:102B200000233B6700237B670023BB674023FB67D1
:102B30000023C7F880300023C7F884300023C7F88B
:102B400088300023C7F88C300023C7F8903000236A
:102B5000C7F894300023C7F898300023C7F89C309A
:102B60008023C7F8A0300023C7F8A4300023C7F89B
:102B7000A8300023C7F8AC300023C7F8B0300023DA
:102B8000C7F8B4300023C7F8B8307B681B681B68EF
:102B9000C7F8BC30D7F8BC20AA4B1340C7F8BC30EC
:102BA000BA6CFB6C1A433B6D1A437B6D1A437B680E
:102BB0009B681A43BB6D1A43FB6D1A437B68DB6845
:102BC0001A433B6E1A437B6E1A43BB6E1A43FB6E6D
:102BD0001A433B6F1343D7F8BC201343C7F8BC30EC
:102BE0007B681B68D7F8BC201A607B681B681B6871
:102BF000C7F8BC300120FFF72DF87B681B68D7F8B9
:102C0000BC201A607B681B68796FBA6F1143FA6F3A
:102C10001143D7F880201143D7F884201143D7F807
:102C200088201143D7F88C201143D7F890200A430D
:102C30005A607B681B685B68C7F8BC300120FFF7EF
:102C400009F87B681B68D7F8BC205A607B681B6852
:102C5000D7F894209A607B681B68D7F89820DA60D0
:102C60007B681B689B69C7F8BC30D7F8BC204FF65F
:102C700041731340C7F8BC30D7F89C301A04D7F81A
:102C8000A0301A43D7F8A4301A43D7F8A8301A4313
:102C9000D7F8AC301A43D7F8B0301343D7F8BC207C
:102CA0001343C7F8BC307B681B68D7F8BC209A6117
:102CB0007B681B689B69C7F8BC300120FEF7CAFF20
:102CC0007B681B68D7F8BC209A617B681B68D7F8C3
:102CD000B410D7F8B8200A43DA617B681B68DB6957
:102CE000C7F8BC300120FEF7B5FF7B681B68D7F83A
:102CF000BC20DA610023BB604FF00073FB6000234F
:102D00003B614FF400137B610023BB610023FB6137
:102D100000233B6200237B620423BB624FF00073FD
:102D2000FB624FF480333B634FF480037B634FF4CB
:102D30000053BB638023FB6300233B6400237B645D
:102D40007B681A6841F2180313441B68C7F8BC304B
:102D5000D7F8BC203C4B1340C7F8BC30BA68FB68BE
:102D60001A433B691A437B691A43BB691A43FB69DF
:102D70001A433B6A1A437B6A1A43BB6A1343D7F868
:102D8000BC201343C7F8BC307B681A6841F21803B3
:102D90001344D7F8BC201A607B681A6841F2180304
:102DA00013441B68C7F8BC300120FEF753FF7B6853
:102DB0001A6841F218031344D7F8BC201A607B68E4
:102DC0001B68F96A3A6B11437A6B1143BA6B114372
:102DD000FA6B11433A6C920011437A6C0A4342F445
:102DE000000203F580531A607B681B6803F580536B
:102DF0001B68C7F8BC300120FEF72CFF7B681B68FE
:102E000003F58053D7F8BC201A607B689B69012BBF
:102E10000DD17B6819687B681A6841F21C03134462
:102E20001B680A4A1A4341F21C030B441A607B6870
:102E30005B691A460021786800F00AF800BFC037C5
:102E4000BD4680BD0F8120FF233FDEF8400001001A
:102E500080B487B000AFF860B9607A607B680533F2
:102E60001B781B027A680432127813437B61BA68BC
:102E7000114B13441A467B6913607B6803331B783C
:102E80001A067B6802331B781B041A437B680133E4
:102E90001B781B0213437A68127813437B61BA686C
:102EA000064B13441A467B69136000BF1C37BD46AE
:102EB0005DF8047B704700BF4080024044800240C0
:102EC00080B584B000AF78600023FB607B681B682E
:102ED0007A681268126842F008021A607B681B6800
:102EE0001B68FB600120FEF7B5FE7B681B68FA6873
:102EF0001A6000BF1037BD4680BD80B584B000AFFA
:102F000078600023FB607B681B687A68126812682F
:102F100022F008021A607B681B681B68FB600120B6
:102F2000FEF798FE7B681B68FA681A6000BF1037CE
:102F3000BD4680BD80B584B000AF78600023FB60E3
:102F40007B681B687A681268126842F004021A6093
:102F50007B681B681B68FB600120FEF77BFE7B68BB
:102F60001B68FA681A6000BF1037BD4680BD80B587
:102F700084B000AF78600023FB607B681B687A68D0
:102F80001268126822F004021A607B681B681B68D2
:102F9000FB600120FEF75EFE7B681B68FA681A6022
:102FA00000BF1037BD4680BD80B483B000AF7860ED
:102FB0007B6819687B681A6841F2180313441B6820
:102FC00043F4005241F218030B441A6000BF0C375F
:102FD000BD465DF8047B704780B483B000AF786075
:102FE0007B6819687B681A6841F2180313441B68F0
:102FF00023F4005241F218030B441A6000BF0C374F
:10300000BD465DF8047B704780B483B000AF786044
:103010007B6819687B681A6841F2180313441B68BF
:1030200043F0020241F218030B441A6000BF0C3750
:10303000BD465DF8047B704780B483B000AF786014
:103040007B6819687B681A6841F2180313441B688F
:1030500023F0020241F218030B441A6000BF0C3740
:10306000BD465DF8047B704780B584B000AF7860E2
:103070000023FB607B6819687B681A6841F21803BB
:1030800013441B6843F4801241F218030B441A6086
:103090007B681A6841F2180313441B68FB60012027
:1030A000FEF7D8FD7B681968FA6841F218030B44F3
:1030B0001A6000BF1037BD4680BD000080B489B0E3
:1030C00000AF786039600023FB6100237B6100233F
:1030D0003B610023BB610023FB6175E10122FB69B9
:1030E00002FA03F37B613B681A687B6913403B611A
:1030F0003A697B699A4240F064813B685B68012BC6
:103100000BD03B685B68022B07D03B685B68112BD8
:1031100003D03B685B68122B30D17B689B68BB6136
:10312000FB695B00032202FA03F3DB43BA69134035
:10313000BB613B68DA68FB695B0002FA03F3BA69BA
:103140001343BB617B68BA699A607B685B68BB614B
:103150000122FB6902FA03F3DB43BA691340BB6146
:103160003B685B681B0903F00102FB6902FA03F389
:10317000BA691343BB617B68BA695A607B68DB68D4
:10318000BB61FB695B00032202FA03F3DB43BA690C
:103190001340BB613B689A68FB695B0002FA03F36A
:1031A000BA691343BB617B68BA69DA603B685B68E4
:1031B000022B03D03B685B68122B23D1FB69DA0832
:1031C0007B68083253F82230BB61FB6903F00703C8
:1031D0009B000F2202FA03F3DB43BA691340BB6181
:1031E0003B681A69FB6903F007039B0002FA03F3CB
:1031F000BA691343BB61FB69DA087B680832B969B5
:1032000043F822107B681B68BB61FB695B000322EB
:1032100002FA03F3DB43BA691340BB613B685B68A6
:1032200003F00302FB695B0002FA03F3BA6913437C
:10323000BB617B68BA691A603B685B6803F08053C6
:10324000002B00F0BE80654A644B5B6C43F4804306
:103250005364624B5B6C03F48043FB60FB68604A21
:10326000FB699B08023352F82330BB61FB6903F012
:1032700003039B000F2202FA03F3DB43BA691340F6
:10328000BB617B68574A934237D07B68564A93426A
:1032900031D07B68554A93422BD07B68544A934285
:1032A00025D07B68534A93421FD07B68524A934291
:1032B00019D07B68514A934213D07B68504A93429D
:1032C0000DD07B684F4A934207D07B684E4A9342A9
:1032D00001D1092312E00A2310E008230EE007239E
:1032E0000CE006230AE0052308E0042306E003239C
:1032F00004E0022302E0012300E00023FA6902F067
:10330000030292009340BA691343BB613449FB69DD
:103310009B080233BA6941F823203C4B1B68BB6110
:103320003B69DB43BA691340BB613B685B6803F4EC
:103330008033002B03D0BA693B691343BB61334A26
:10334000BB691360314B5B68BB613B69DB43BA69A6
:103350001340BB613B685B6803F40033002B03D070
:10336000BA693B691343BB61284ABB695360274B69
:103370009B68BB613B69DB43BA691340BB613B6837
:103380005B6803F48013002B03D0BA693B691343D5
:10339000BB611E4ABB6993601C4BDB68BB613B6928
:1033A000DB43BA691340BB613B685B6803F40013FD
:1033B000002B03D0BA693B691343BB61134ABB6955
:1033C000D360FB690133FB61FB690F2B7FF686AE8F
:1033D00000BF2437BD465DF8047B704700380240CB
:1033E0000038014000000240000402400008024092
:1033F000000C02400010024000140240001802407D
:10340000001C02400020024000240240003C014019
:1034100080B483B000AF78600B467B8013467B702E
:103420007B78002B03D07A887B689A6103E07B88E5
:103430001A047B689A6100BF0C37BD465DF8047BB7
:10344000704780B485B000AF78600B467B807B68A6
:103450005B69FB607A88FB6813401A04FB68D943F8
:103460007B880B401A437B689A6100BF1437BD46C6
:103470005DF8047B7047000080B582B000AF034662
:10348000FB80084B5A69FB881340002B06D0054A85
:10349000FB885361FB88184600F006F800BF083728
:1034A000BD4680BD003C014080B483B000AF034600
:1034B000FB8000BF0C37BD465DF8047B7047F0B55C
:1034C0008FB00AAF78607B68002B01D1012316E131
:1034D0007B681B68BB607B6893F8BD33DBB2002B55
:1034E00006D17B68002283F8BC237868FEF70EFAC9
:1034F0007B68032283F8BD23BB68DB6B03F4807316
:10350000002B02D17B6800221A617B681B68184679
:1035100003F008F87B681B683B607E686D4606F127
:1035200010040FCC0FC50FCC0FC594E8030085E83D
:103530000300331D0ECB386802F09CFF0346002BBE
:1035400005D07B68022283F8BD230123D7E07B6886
:103550001B680021184602F0F6FF0023FB734AE0C7
:10356000FA7B79681346DB009B1A9B000B443D33C2
:1035700001221A70FA7B79681346DB009B1A9B00C4
:103580000B443C33FA7B1A70FA7BFB7B98B2796868
:103590001346DB009B1A9B000B44423302461A8001
:1035A000FA7B79681346DB009B1A9B000B443F3380
:1035B00000221A70FA7B79681346DB009B1A9B0085
:1035C0000B44443300221A60FA7B79681346DB000F
:1035D0009B1A9B000B44483300221A60FA7B7968DF
:1035E0001346DB009B1A9B000B44503300221A60E9
:1035F000FB7B0133FB73FA7B7B685B689A42AFD33A
:103600000023FB7344E0FA7B79681346DB009B1AC6
:103610009B000B4403F2FD1300221A70FA7B7968B9
:103620001346DB009B1A9B000B4403F5FE73FA7BE9
:103630001A70FA7B79681346DB009B1A9B000B44D7
:1036400003F2FF1300221A70FA7B79681346DB003D
:103650009B1A9B000B4403F5017300221A60FA7B4E
:1036600079681346DB009B1A9B000B4403F5027339
:1036700000221A60FA7B79681346DB009B1A9B00D4
:103680000B4403F5047300221A60FB7B0133FB73C8
:10369000FA7B7B685B689A42B5D37B681B683B60AA
:1036A0007E686D4606F110040FCC0FC50FCC0FC518
:1036B00094E8030085E80300331D0ECB386802F060
:1036C0006DFF0346002B05D07B68022283F8BD23E3
:1036D000012314E07B68002283F838207B680122F4
:1036E00083F8BD237B685B6A012B02D1786800F008
:1036F0000BF87B681B68184603F022F90023184674
:103700001437BD46F0BD000080B485B000AF7860CE
:103710007B681B68FB607B680122C3F8FC237B6825
:10372000002283F8F423FB689B6943F00062FB6886
:103730009A61FB685A6D054B1343FA685365002381
:1037400018461437BD465DF8047B7047030000102F
:1037500080B400AF054A054B1B6843F480731360C7
:1037600000BFBD465DF8047B704700BF007000409D
:1037700080B582B000AF00237B60234A224B1B6CD4
:1037800043F080531364204B1B6C03F080533B6069
:103790003B681E4A1D4B1B6843F480331360FEF7E1
:1037A0004DFA786009E0FEF749FA02467B68D31AC1
:1037B000B3F57A7F01D9032322E0144B5B6803F44D
:1037C0008033B3F5803FEED1104A104B1B6843F4B1
:1037D00000331360FEF732FA786009E0FEF72EFA44
:1037E00002467B68D31AB3F57A7F01D9032307E039
:1037F000064B5B6803F40033B3F5003FEED10023C2
:1038000018460837BD4680BD0038024000700040B1
:1038100080B586B000AF78600023FB757B68002B15
:1038200001D101239BE27B681B6803F00103002B9D
:1038300000F08780964B9B6803F00C03042B0CD0A0
:10384000934B9B6803F00C03082B12D1904B5B68E1
:1038500003F48003B3F5800F0BD18D4B1B6803F489
:103860000033002B6CD07B685B68002B68D1012390
:1038700075E27B685B68B3F5803F06D1844A844B70
:103880001B6843F4803313602EE07B685B68002B79
:103890000CD17F4A7E4B1B6823F4803313607C4A33
:1038A0007B4B1B6823F4802313601DE07B685B68FF
:1038B000B3F5A02F0CD1764A754B1B6843F48023D7
:1038C0001360734A724B1B6843F4803313600BE040
:1038D0006F4A6F4B1B6823F4803313606C4A6C4B48
:1038E0001B6823F4802313607B685B68002B13D074
:1038F000FEF7A4F9386108E0FEF7A0F902463B693B
:10390000D31A642B01D9032329E2614B1B6803F40A
:103910000033002BF0D014E0FEF790F9386108E096
:10392000FEF78CF902463B69D31A642B01D90323B5
:1039300015E2574B1B6803F40033002BF0D100E075
:1039400000BF7B681B6803F00203002B69D0504B5B
:103950009B6803F00C03002B0BD04D4B9B6803F0CE
:103960000C03082B1CD14A4B5B6803F48003002B2B
:1039700016D1474B1B6803F00203002B05D07B6870
:10398000DB68012B01D00123E9E14149404B1B6871
:1039900023F0F8027B681B69DB0013430B6040E0F7
:1039A0007B68DB68002B23D0394A394B1B6843F016
:1039B00001031360FEF742F9386108E0FEF73EF9B3
:1039C00002463B69D31A022B01D90323C7E1304BCE
:1039D0001B6803F00203002BF0D02D492C4B1B6811
:1039E00023F0F8027B681B69DB0013430B6018E0CF
:1039F000274A274B1B6823F001031360FEF71EF9CB
:103A0000386108E0FEF71AF902463B69D31A022B27
:103A100001D90323A3E11E4B1B6803F00203002B13
:103A2000F0D17B681B6803F00803002B38D07B685B
:103A30005B69002B19D0164A154B5B6F43F00103ED
:103A40005367FEF7FBF8386108E0FEF7F7F8024627
:103A50003B69D31A022B01D9032380E10C4B5B6F26
:103A600003F00203002BF0D01AE0094A084B5B6F09
:103A700023F001035367FEF7E1F838610AE0FEF72F
:103A8000DDF802463B69D31A022B03D9032366E112
:103A900000380240924B5B6F03F00203002BEED123
:103AA0007B681B6803F00403002B00F0A4808C4BA0
:103AB0001B6C03F08053002B0DD1894A884B1B6C83
:103AC00043F080531364864B1B6C03F08053BB6040
:103AD000BB680123FB75834B1B6803F48073002BC9
:103AE00018D1804A7F4B1B6843F480731360FEF744
:103AF000A5F8386108E0FEF7A1F802463B69D31A41
:103B0000642B01D903232AE1764B1B6803F48073ED
:103B1000002BF0D07B689B68012B06D1704A704B5C
:103B20001B6F43F0010313672DE07B689B68002B3C
:103B30000CD16B4A6A4B1B6F23F001031367684A71
:103B4000674B1B6F23F0040313671CE07B689B68C3
:103B5000052B0CD1624A624B1B6F43F004031367C1
:103B60005F4A5F4B1B6F43F0010313670BE05C4A36
:103B70005B4B1B6F23F001031367594A584B1B6FB4
:103B800023F0040313677B689B68002B15D0FEF7B6
:103B900055F838610AE0FEF751F802463B69D31A3E
:103BA00041F28832934201D90323D8E04C4B1B6F7A
:103BB00003F00203002BEED014E0FEF73FF838616B
:103BC0000AE0FEF73BF802463B69D31A41F288321D
:103BD000934201D90323C2E0414B1B6F03F0020360
:103BE000002BEED1FB7D012B05D13D4A3C4B1B6CDC
:103BF00023F0805313647B689B69002B00F0AE8038
:103C0000374B9B6803F00C03082B6DD07B689B69D6
:103C1000022B4BD1324A324B1B6823F08073136066
:103C2000FEF70CF8386108E0FEF708F802463B6939
:103C3000D31A022B01D9032391E0294B1B6803F00F
:103C40000073002BF0D126497B68DA697B681B6A18
:103C50001A437B685B6A9B011A437B689B6A5B081B
:103C6000013B1B041A437B68DB6A1B061A437B6813
:103C70001B6B1B0713434B60194A194B1B6843F01E
:103C800080731360FDF7DAFF386108E0FDF7D6FFB7
:103C900002463B69D31A022B01D903235FE0104B84
:103CA0001B6803F00073002BF0D057E00C4A0C4B5C
:103CB0001B6823F080731360FDF7C0FF386108E0D4
:103CC000FDF7BCFF02463B69D31A022B01D903233F
:103CD00045E0034B1B6803F00073002BF0D13DE07F
:103CE00000380240007000401F4B5B68FB607B683F
:103CF0009B69012B30D0FB6803F480027B68DB6991
:103D00009A4229D1FB6803F03F027B681B6A9A4202
:103D100022D1FA6847F6C07313407A68526A92015A
:103D2000934219D1FB6803F440327B689B6A5B08BD
:103D3000013B1B049A420FD1FB6803F070627B6861
:103D4000DB6A1B069A4207D1FB6803F0E0427B68FE
:103D50001B6B1B079A4201D0012300E00023184689
:103D60001837BD4680BD00BF0038024080B584B022
:103D700000AF786039600023FB607B68002B01D1C5
:103D80000123D0E06A4B1B6803F00F023B689A42A4
:103D900010D26749664B1B6823F00F023B68134340
:103DA0000B60634B1B6803F00F023B689A4201D023
:103DB0000123B8E07B681B6803F00203002B20D0CE
:103DC0007B681B6803F00403002B05D0594A594B4C
:103DD0009B6843F4E05393607B681B6803F008031F
:103DE000002B05D0534A534B9B6843F460439360C8
:103DF0005049504B9B6823F0F0027B689B6813434B
:103E00008B607B681B6803F00103002B40D07B684C
:103E10005B68012B07D1474B1B6803F40033002B71
:103E200015D101237FE07B685B68022B07D1414BF2
:103E30001B6803F00073002B09D1012373E03D4B95
:103E40001B6803F00203002B01D101236BE0394909
:103E5000384B9B6823F003027B685B6813438B60DD
:103E6000FDF7ECFEF8600AE0FDF7E8FE0246FB68AD
:103E7000D31A41F28832934201D9032353E02D4BE8
:103E80009B6803F00C027B685B689B009A42EBD155
:103E9000274B1B6803F00F023B689A4210D9244954
:103EA000234B1B6823F00F023B6813430B60204B2E
:103EB0001B6803F00F023B689A4201D0012332E0F5
:103EC0007B681B6803F00403002B08D01949194BC9
:103ED0009B6823F4E0527B68DB6813438B607B684C
:103EE0001B6803F00803002B09D01249114B9B6893
:103EF00023F460427B681B69DB0013438B6000F096
:103F000021F801460B4B9B681B0903F00F030A4A7B
:103F1000D35C21FA03F3094A1360094B1B68184666
:103F2000FDF748FE002318461037BD4680BD00BF90
:103F3000003C02400038024004AC010800000020B0
:103F4000040000202DE9F04F8FB000AF0023FB628A
:103F500000237B630023BB6200233B63624B9B68AF
:103F600003F00C03042B07D0082B08D0002B40F0E3
:103F7000B2805E4B3B63B1E05D4B3B63AEE05A4BBE
:103F80005B6803F03F03FB62574B5B6803F48003FD
:103F9000002B4ED0544B5B689B094FF0000440F25D
:103FA000FF114FF0000201EA030102EA04020B468E
:103FB000144660017862786A40EAD36078625B01F7
:103FC0003B62D7E908345B1A64EB02044FEA8419B8
:103FD00049EA93694FEA8318B8EB030869EB0409CF
:103FE0004FEAC903FB61FB6943EA5873FB614FEA7F
:103FF000C803BB61D7E9068918EB010849EB020940
:104000004FEA49237B617B6943EAD8537B614FEADE
:1040100048233B61D7E9048940464946FB6A4FF093
:1040200000041A462346FCF773F903460C467B63EB
:1040300043E02D4B5B689B094FF0000440F2FF11F9
:104040004FF0000201EA030102EA04020B461446A3
:104050006001F860F86840EAD360F8605B01BB601B
:10406000D7E902345B1A64EB0204A60146EA9366C0
:104070009D01ED1A66EB0406F3007B607B6843EA62
:1040800055737B60EB003B6097E860006D1846EB72
:1040900002064FEA862B4BEA955B4FEA852A554686
:1040A0005E4628463146FB6A4FF000041A46234616
:1040B000FCF72EF903460C467B630B4B5B681B0C2D
:1040C00003F0030301335B00BB627A6BBB6AB2FB94
:1040D000F3F33B6302E0054B3B6300BF3B6B1846C9
:1040E0003C37BD46BDE8F08F003802400024F400A4
:1040F00000127A0080B400AF034B1B681846BD461F
:104100005DF8047B704700BF0000002080B500AF61
:10411000FFF7F0FF0146054B9B689B0A03F007037E
:10412000034AD35C21FA03F3184680BD00380240ED
:1041300014AC010880B500AFFFF7DCFF0146054B6A
:104140009B685B0B03F00703034AD35C21FA03F37C
:10415000184680BD0038024014AC010880B588B014
:1041600000AF786000237B6100233B610023FB608C
:104170000023FB610023BB617B681B6803F0010324
:10418000002B12D0694A694B9B6823F400039360AB
:104190006649664B9A687B685B6B13438B607B68F0
:1041A0005B6B002B01D10123FB617B681B6803F46F
:1041B0000023002B17D05D495C4BD3F88C3023F4DF
:1041C00040127B68DB6B1343C1F88C307B68DB6B80
:1041D000B3F5801F01D10123FB617B68DB6B002BF2
:1041E00001D10123BB617B681B6803F48013002BA2
:1041F00017D04E494D4BD3F88C3023F440027B68E6
:104200001B6C1343C1F88C307B681B6CB3F5800FBB
:1042100001D10123FB617B681B6C002B01D10123C1
:10422000BB617B681B6803F08073002B01D0012306
:10423000FB617B681B6803F02003002B00F08B8080
:104240003A4A3A4B1B6C43F080531364374B1B6C58
:1042500003F08053BB60BB68354A354B1B6843F4A1
:1042600080731360FDF7EAFC786108E0FDF7E6FC77
:1042700002467B69D31A642B01D903238DE32C4BAF
:104280001B6803F48073002BF0D0284B1B6F03F4E2
:1042900040733B613B69002B35D07B681B6B03F49B
:1042A00040723B699A422ED0204B1B6F23F440731F
:1042B0003B611E4A1D4B1B6F43F4803313671B4A3F
:1042C0001A4B1B6F23F480331367184A3B6913673B
:1042D000164B1B6F03F00103012B14D1FDF7AEFC4D
:1042E00078610AE0FDF7AAFC02467B69D31A41F225
:1042F0008832934201D903234FE30C4B1B6F03F029
:104300000203002BEED07B681B6B03F44073B3F504
:10431000407F11D10548054B9B6823F4F8127B6858
:10432000196B044B0B40134383600BE000380240D1
:1043300000700040FFFCFF0FB24AB24B9B6823F4B1
:10434000F8139360AF49AF4B1A6F7B681B6BC3F3D5
:104350000B0313430B677B681B6803F01003002BF0
:1043600010D0A84AA74BD3F88C3023F08073C2F842
:104370008C30A449A34BD3F88C207B689B6B1343F0
:10438000C1F88C307B681B6803F48043002B0AD093
:104390009C499C4BD3F8903023F440327B685B6E91
:1043A0001343C1F890307B681B6803F40043002B73
:1043B0000AD09449934BD3F8903023F440227B6881
:1043C0009B6E1343C1F890307B681B6803F4803305
:1043D000002B0AD08B498B4BD3F8903023F440123A
:1043E0007B68DB6E1343C1F890307B681B6803F475
:1043F0000033002B0AD08349824BD3F8903023F44A
:1044000040027B681B6F1343C1F890307B681B68C8
:1044100003F04003002B0AD07A497A4BD3F890304E
:1044200023F003027B685B6C1343C1F890307B6818
:104430001B6803F08003002B0AD07249714BD3F83C
:10444000903023F00C027B689B6C1343C1F89030D2
:104450007B681B6803F48073002B0AD06949694BA1
:10446000D3F8903023F030027B68DB6C1343C1F843
:1044700090307B681B6803F40073002B0AD06149FD
:10448000604BD3F8903023F0C0027B681B6D134360
:10449000C1F890307B681B6803F48063002B0AD05E
:1044A0005849584BD3F8903023F440727B685B6DC9
:1044B0001343C1F890307B681B6803F40063002B42
:1044C0000AD050494F4BD3F8903023F440627B68B8
:1044D0009B6D1343C1F890307B681B6803F48053D5
:1044E000002B0AD04749474BD3F8903023F4405271
:1044F0007B68DB6D1343C1F890307B681B6803F465
:104500000053002B0AD03F493E4BD3F8903023F4A0
:1045100040427B681B6E1343C1F890307B681B6878
:1045200003F48003002B0AD03649364BD3F8903081
:1045300023F080627B689B6F1343C1F890307B68E7
:104540001B6803F40013002B11D02E492D4BD3F818
:10455000903023F000627B68DB6F1343C1F890302A
:104560007B68DB6FB3F1006F01D10123BB617B6816
:104570001B6803F00803002B01D00123BB617B689B
:104580001B6803F48023002B0AD01E491D4BD3F86F
:10459000903023F040727B685B6F1343C1F890301A
:1045A0007B681B6803F40003002B0BD01549154BE7
:1045B000D3F8903023F080527B68D3F880301343D7
:1045C000C1F890307B681B6803F08063002B0BD030
:1045D0000C490C4BD3F8903023F000527B68D3F891
:1045E00084301343C1F890307B681B6803F000638C
:1045F000002B0ED00349034BD3F88C3023F000720C
:104600007B6801E000380240D3F888301343C1F8DA
:104610008C307B681B6803F08053002B0BD08149E2
:10462000804BD3F88C3023F080627B68D3F88C30D9
:104630001343C1F88C30FB69012B06D07B681B68E3
:1046400003F00073002B00F0D680764A754B1B6890
:1046500023F080631360FDF7F1FA786108E0FDF75D
:10466000EDFA02467B69D31A642B01D9032394E146
:104670006C4B1B6803F00063002BF0D17B681B6858
:1046800003F00103002B21D07B685B6B002B1DD155
:10469000644BD3F884301B0C03F003033B61614B84
:1046A000D3F884301B0E03F00F03FB605D497B6879
:1046B0005B689A013B691B041A43FB681B061A439B
:1046C0007B689B681B071343C1F884307B681B68B9
:1046D00003F40023002B04D07B68DB6BB3F5801F51
:1046E0000AD07B681B6803F48013002B2ED07B68F4
:1046F0001B6CB3F5800F29D14A4BD3F884301B0CC7
:1047000003F003033B61474BD3F884301B0F03F0E6
:104710000703FB6043497B685B689A013B691B04A4
:104720001A437B68DB681B061A43FB681B071343AD
:10473000C1F884303B493B4BD3F88C3023F01F0247
:104740007B685B6A013B1343C1F88C307B681B6854
:1047500003F08073002B1DD0324BD3F884301B0E36
:1047600003F00F033B612F4BD3F884301B0F03F092
:104770000703FB602B497B685B689A017B681B69B8
:104780001B041A433B691B061A43FB681B071343B0
:10479000C1F884307B681B6803F00073002B11D0D4
:1047A00020497B685B689A017B681B691B041A437C
:1047B0007B68DB681B061A437B689B681B071343F7
:1047C000C1F88430174A174B1B6843F080631360AD
:1047D000FDF734FA786108E0FDF730FA02467B69AC
:1047E000D31A642B01D90323D7E00E4B1B6803F0C7
:1047F0000063002BF0D0BB69012B40F0CD80094A4B
:10480000084B1B6823F080531360FDF717FA78619B
:104810000AE0FDF713FA02467B69D31A642B03D929
:104820000323BAE0003802405E4B1B6803F00053DC
:10483000B3F1005FEDD07B681B6803F40023002B0D
:1048400003D07B68DB6B002B09D07B681B6803F40B
:104850008013002B2ED07B681B6C002B2AD1514B70
:10486000D3F888301B0C03F003033B614D4BD3F8A6
:1048700088301B0F03F00703FB604A497B685B69C4
:104880009A013B691B041A437B689B691B061A4308
:10489000FB681B071343C1F888304249414BD3F8EA
:1048A0008C3023F4F8527B689B6A013B1B02134354
:1048B000C1F88C307B681B6803F40013002B22D0F6
:1048C0007B68DB6FB3F1006F1DD1364BD3F88830B6
:1048D0001B0E03F00F033B61324BD3F888301B0FE4
:1048E00003F00703FB602F497B685B699A017B68D3
:1048F0001B6A1B041A433B691B061A43FB681B0710
:104900001343C1F888307B681B6803F00803002B51
:1049100028D0244BD3F888301B0E03F00F033B61E3
:10492000204BD3F888301B0C03F00303FB601D49B8
:104930007B685B699A01FB681B041A433B691B0691
:104940001A437B68DB691B071343C1F8883015499C
:10495000144BD3F88C3023F440327B68DB6A13436A
:10496000C1F88C300F4A0F4B1B6843F08053136023
:10497000FDF764F9786108E0FDF760F902467B69AC
:10498000D31A642B01D9032307E0064B1B6803F0FD
:104990000053B3F1005FEFD1002318462037BD4626
:1049A00080BD00BF0038024080B582B000AF7860A3
:1049B0007B68002B01D1012381E07B685B7FDBB248
:1049C000002B05D17B6800221A777868FCF71CFF62
:1049D0007B6802225A777B681B68CA225A627B680E
:1049E0001B6853225A62786800F0ACFA0346002B29
:1049F00008D07B681B68FF225A627B6804225A77C2
:104A000001235CE07B681A687B681B6899682E4B01
:104A10000B4093607B681B687A68126891687A68BB
:104A200050687A68126910437A68526902430A43EF
:104A30009A607B681B687A68D2681A617B681B6819
:104A40007A68126811697A68926812040A431A61D6
:104A50007B681B687A681268D26822F08002DA608C
:104A60007B681B689B6803F02003002B0ED17868DD
:104A700000F040FA0346002B08D07B681B68FF2239
:104A80005A627B6804225A77012318E07B681B680E
:104A90007A681268D26C22F00802DA647B681B68BC
:104AA0007A681268D16C7A6892690A43DA647B6822
:104AB0001B68FF225A627B6801225A77002318463E
:104AC0000837BD4680BD00BFBFFF8FFF90B587B0E0
:104AD00000AFF860B9607A6000237B61FB681B7FE0
:104AE000012B01D10223A8E0FB6801221A77FB68A1
:104AF00002225A777B68002B26D1FB681B689B68D3
:104B000003F04003002B02D1BB6800221A73BB687C
:104B10001B78184600F042FA03461C04BB685B7819
:104B2000184600F03BFA03461B021C43BB689B7807
:104B3000184600F033FA034644EA0302BB681B7BC5
:104B40001B0413437B6118E0FB681B689B6803F040
:104B50004003002B02D1BB6800221A73BB681B788C
:104B60001A04BB685B781B021343BA6892781A4335
:104B7000BB681B7B1B0413437B61FB681B68CA2259
:104B80005A62FB681B6853225A62F86800F0DAF92F
:104B90000346002B0BD0FB681B68FF225A62FB68A0
:104BA00004225A77FB6800221A77012345E0FB684C
:104BB0001A687969234B0B401360FB681B68FA681D
:104BC0001268926822F480229A60FB681B68FA6877
:104BD00012689168BA681069BA68526902430A4358
:104BE0009A60FB681B68FA681268D26822F080023B
:104BF000DA60FB681B689B6803F02003002B11D16F
:104C0000F86800F077F90346002B0BD0FB681B68AF
:104C1000FF225A62FB6804225A77FB6800221A7747
:104C200001230AE0FB681B68FF225A62FB6801222D
:104C30005A77FB6800221A77002318461C37BD46B6
:104C400090BD00BF7F7F7F0080B586B000AFF86069
:104C5000B9607A6000237B61FB681B689A6ABB6855
:104C60005A60FB681B681B69C3F30E02BB689A603D
:104C7000FB681B681A68224B13407B617B691B0C25
:104C8000DBB203F03F03DAB2BB681A707B691B0A20
:104C9000DBB203F07F03DAB2BB685A707B69DBB228
:104CA00003F07F03DAB2BB689A707B691B0CDBB23E
:104CB00003F04003DAB2BB681A737B68002B1AD189
:104CC000BB681B78184600F087F903461A46BB6894
:104CD0001A70BB685B78184600F07EF903461A46E6
:104CE000BB685A70BB689B78184600F075F903469C
:104CF0001A46BB689A70002318461837BD4680BD17
:104D00007F7F7F0090B587B000AFF860B9607A60B0
:104D100000237B61FB681B7F012B01D1022392E002
:104D2000FB6801221A77FB6802225A777B68002B06
:104D30000ED1BB685B7803F01003002B08D0BB6872
:104D40005B7823F01003DBB20A33DAB2BB685A7027
:104D50007B68002B1CD1BB68DB78184600F01EF97D
:104D600003461C04BB685B78184600F017F903463D
:104D70001B021C43BB689B78184600F00FF90346E2
:104D800044EA0302BB681B785B0313437B610EE0BC
:104D9000BB68DB781A04BB685B781B021343BA68F4
:104DA00092781A43BB681B785B0313437B61FB68F3
:104DB0001B68CA225A62FB681B6853225A62F86851
:104DC00000F0C0F80346002B0BD0FB681B68FF22E5
:104DD0005A62FB6804225A77FB6800221A77012383
:104DE00031E0FB681A687969194B0B405360FB6826
:104DF0001B68FA681268D26822F08002DA60FB68E9
:104E00001B689B6803F02003002B11D1F86800F0A9
:104E100071F80346002B0BD0FB681B68FF225A6217
:104E2000FB6804225A77FB6800221A7701230AE004
:104E3000FB681B68FF225A62FB6801225A77FB68F5
:104E400000221A77002318461C37BD4690BD00BFCC
:104E50003FFFFF0080B586B000AFF860B9607A60B0
:104E600000237B61FB681B685A68214B13407B6100
:104E70007B691B0CDAB2BB68DA707B691B0ADBB298
:104E800003F01F03DAB2BB685A707B69DBB203F030
:104E90003F03DAB2BB689A707B695B0BDBB203F04D
:104EA0000703DAB2BB681A707B68002B1AD1BB68A3
:104EB000DB78184600F090F803461A46BB68DA70B3
:104EC000BB685B78184600F087F803461A46BB6853
:104ED0005A70BB689B78184600F07EF803461A4665
:104EE000BB689A70002318461837BD4680BD00BFC6
:104EF0003FFFFF0080B584B000AF78600023FB6007
:104F00007B681B687A681268D26822F0A002DA60B7
:104F1000FCF794FEF86009E0FCF790FE0246FB689F
:104F2000D31AB3F57A7F01D9032307E07B681B68A6
:104F3000DB6803F02003002BEED000231846103767
:104F4000BD4680BD80B584B000AF78600023FB60B3
:104F50007B681B68DB6803F04003002B19D17B687A
:104F60001B684FF0FF32DA60FCF768FEF86009E07A
:104F7000FCF764FE0246FB68D31AB3F57A7F01D9C9
:104F8000032307E07B681B68DB6803F04003002B0A
:104F9000EED0002318461037BD4680BD80B485B0E2
:104FA00000AF0346FB710023FB6005E0FB680133A3
:104FB000FB60FB790A3BFB71FB79092BF6D8FB6898
:104FC000DBB21B01DAB2FB791343DBB218461437AC
:104FD000BD465DF8047B704780B485B000AF0346E2
:104FE000FB710023FB60FB791B09DBB21A461346F9
:104FF0009B0013445B00FB60FB7903F00F03DAB204
:10500000FB68DBB21344DBB218461437BD465DF8CB
:10501000047B704780B582B000AF78607B68002B5E
:1050200001D1012349E07B6893F83D30DBB2002BCE
:1050300006D17B68002283F83C207868FCF7FEFBF1
:105040007B68022283F83D207B681A687B68043302
:105050001946104600F0B0FA7B68012283F8482018
:105060007B68012283F83E207B68012283F83F2081
:105070007B68012283F840207B68012283F841206D
:105080007B68012283F842207B68012283F8432059
:105090007B68012283F844207B68012283F8452045
:1050A0007B68012283F846207B68012283F8472031
:1050B0007B68012283F83D20002318460837BD464F
:1050C00080BD000080B485B000AF78607B6893F845
:1050D0003D30DBB2012B01D0012354E07B6802227A
:1050E00083F83D207B681B687A681268D26842F0BA
:1050F0000102DA607B681B68264A934222D07B68F3
:105100001B68B3F1804F1DD07B681B68224A934215
:1051100018D07B681B68214A934213D07B681B68B8
:105120001F4A93420ED07B681B681E4A934209D0E7
:105130007B681B681C4A934204D07B681B681B4A2F
:10514000934215D17B681B689A68194B1340FB602A
:10515000FB68062B15D0FB68B3F5803F11D07B6848
:105160001B687A681268126842F001021A6008E04F
:105170007B681B687A681268126842F001021A6044
:1051800000E000BF002318461437BD465DF8047BDD
:10519000704700BF000001400004004000080040CC
:1051A000000C004000040140004001400018004095
:1051B0000700010080B582B000AF78607B681B6893
:1051C0001B6903F00203022B22D17B681B68DB689A
:1051D00003F00203022B1BD17B681B686FF00202F5
:1051E0001A617B6801221A777B681B689B6903F050
:1051F0000303002B03D0786800F0C0F905E078685D
:1052000000F0B2F9786800F0C3F97B6800221A77E1
:105210007B681B681B6903F00403042B22D17B68A5
:105220001B68DB6803F00403042B1BD17B681B683D
:105230006FF004021A617B6802221A777B681B6890
:105240009B6903F44073002B03D0786800F096F953
:1052500005E0786800F088F9786800F099F97B68D3
:1052600000221A777B681B681B6903F00803082B70
:1052700022D17B681B68DB6803F00803082B1BD175
:105280007B681B686FF008021A617B6804221A773A
:105290007B681B68DB6903F00303002B03D078688D
:1052A00000F06CF905E0786800F05EF9786800F0CD
:1052B0006FF97B6800221A777B681B681B6903F013
:1052C0001003102B22D17B681B68DB6803F01003EE
:1052D000102B1BD17B681B686FF010021A617B6872
:1052E00008221A777B681B68DB6903F44073002B84
:1052F00003D0786800F042F905E0786800F034F9EE
:10530000786800F045F97B6800221A777B681B6893
:105310001B6903F00103012B0ED17B681B68DB685E
:1053200003F00103012B07D17B681B686FF00102BA
:105330001A617868FCF708FA7B681B681B6903F040
:105340008003802B0ED17B681B68DB6803F0800331
:10535000802B07D17B681B686FF080021A61786828
:1053600000F0FCFA7B681B681B6903F48073B3F5DB
:10537000807F0ED17B681B68DB6803F08003802B85
:1053800007D17B681B686FF480721A61786800F03F
:10539000EFFA7B681B681B6903F04003402B0ED1BA
:1053A0007B681B68DB6803F04003402B07D17B68F8
:1053B0001B686FF040021A61786800F0F3F87B68B0
:1053C0001B681B6903F02003202B0ED17B681B6830
:1053D000DB6803F02003202B07D17B681B686FF08C
:1053E00020021A61786800F0AFFA00BF0837BD46A6
:1053F00080BD000080B584B000AF786039607B6804
:1054000093F83C30012B01D10223A6E07B680122F6
:1054100083F83C207B68022283F83D207B681B6870
:105420009B68FB60FA684F4B1340FB60FB6823F4FA
:105430007F43FB607B681B68FA689A603B681B6867
:10544000402B67D0402B0BD8102B73D0102B02D8D9
:10545000002B6FD078E0202B6CD0302B6AD073E01B
:10546000702B0DD0702B04D8502B33D0602B41D033
:105470006AE0B3F5805F66D0B3F5005F17D063E0F4
:105480007B6818683B6899683B685A683B68DB68CA
:1054900000F0ACF97B681B689B68FB60FB6843F01D
:1054A0007703FB607B681B68FA689A604CE07B6856
:1054B00018683B6899683B685A683B68DB6800F08D
:1054C00095F97B681B687A681268926842F480429A
:1054D0009A6039E07B6818683B6859683B68DB680C
:1054E0001A4600F009F97B681B685021184600F045
:1054F00062F929E07B6818683B6859683B68DB689B
:105500001A4600F028F97B681B686021184600F0F5
:1055100052F919E07B6818683B6859683B68DB689A
:105520001A4600F0E9F87B681B684021184600F035
:1055300042F909E07B681A683B681B681946104607
:1055400000F039F900E000BF7B68012283F83D20BC
:105550007B68002283F83C20002318461037BD46A4
:1055600080BD00BF88FFFEFF80B483B000AF7860CD
:1055700000BF0C37BD465DF8047B704780B483B034
:1055800000AF786000BF0C37BD465DF8047B704704
:1055900080B483B000AF786000BF0C37BD465DF8C3
:1055A000047B704780B483B000AF786000BF0C37D5
:1055B000BD465DF8047B704780B485B000AF78606D
:1055C00039607B681B68FB607B68404A934213D05C
:1055D0007B68B3F1804F0FD07B683D4A93420BD07C
:1055E0007B683C4A934207D07B683B4A934203D096
:1055F0007B683A4A934208D1FB6823F07003FB6052
:105600003B685B68FA681343FB607B682F4A9342F0
:105610002BD07B68B3F1804F27D07B682C4A934214
:1056200023D07B682B4A93421FD07B682A4A93423F
:105630001BD07B68294A934217D07B68284A934243
:1056400013D07B68274A93420FD07B68264A934247
:105650000BD07B68254A934207D07B68244A93424B
:1056600003D07B68234A934208D1FB6823F440733C
:10567000FB603B68DB68FA681343FB60FB6823F060
:1056800080023B685B691343FB607B68FA681A60C1
:105690003B689A687B68DA623B681A687B689A6242
:1056A0007B680A4A934203D07B680C4A934203D139
:1056B0003B681A697B681A637B6801225A6100BFE4
:1056C0001437BD465DF8047B704700BF0000014001
:1056D0000004004000080040000C004000040140AD
:1056E00000400140004401400048014000180040D3
:1056F000001C00400020004080B487B000AFF8607C
:10570000B9607A60FB681B6A7B61FB681B6A23F0E7
:105710000102FB681A62FB689B693B613B6923F0ED
:10572000F0033B617B681B013A6913433B617B6972
:1057300023F00A037B617A69BB6813437B61FB68D2
:105740003A699A61FB687A691A6200BF1C37BD46E4
:105750005DF8047B704780B487B000AFF860B96033
:105760007A60FB681B6A23F01002FB681A62FB6810
:105770009B697B61FB681B6A3B617B6923F4704317
:105780007B617B681B037A6913437B613B6923F070
:10579000A0033B61BB681B013A6913433B61FB6893
:1057A0007A699A61FB683A691A6200BF1C37BD4684
:1057B0005DF8047B704780B485B000AF78603960D5
:1057C0007B689B68FB60FB6823F07003FB603A68B2
:1057D000FB68134343F00703FB607B68FA689A6039
:1057E00000BF1437BD465DF8047B704780B487B0B6
:1057F00000AFF860B9607A603B60FB689B687B61D2
:105800007B6923F47F437B613B681A027B681A4300
:10581000BB6813437A6913437B61FB687A699A60BA
:1058200000BF1C37BD465DF8047B704780B485B06F
:1058300000AF786039607B6893F83C30012B01D170
:1058400002236DE07B68012283F83C207B68022202
:1058500083F83D207B681B685B68FB607B681B6886
:105860009B68BB607B681B68304A934204D07B68AE
:105870001B682F4A934208D1FB6823F47003FB6036
:105880003B685B68FA681343FB60FB6823F07003B6
:10589000FB603B681B68FA681343FB607B681B680E
:1058A000FA685A607B681B68204A934222D07B6862
:1058B0001B68B3F1804F1DD07B681B681D4A934263
:1058C00018D07B681B681C4A934213D07B681B6806
:1058D0001A4A93420ED07B681B68154A934209D03E
:1058E0007B681B68164A934204D07B681B68154A84
:1058F00093420CD1BB6823F08003BB603B689B687C
:10590000BA681343BB607B681B68BA689A607B689F
:10591000012283F83D207B68002283F83C2000238D
:1059200018461437BD465DF8047B704700000140FF
:10593000000401400004004000080040000C00404A
:10594000004001400018004080B483B000AF786090
:1059500000BF0C37BD465DF8047B704780B483B050
:1059600000AF786000BF0C37BD465DF8047B704720
:1059700080B483B000AF786000BF0C37BD465DF8DF
:10598000047B704780B582B000AF78607B68002BE5
:1059900001D1012340E07B689B6F002B06D17B681F
:1059A000002283F874207868FBF76CFF7B68242260
:1059B0009A677B681B687A681268126822F0010295
:1059C0001A60786800F08EF90346012B01D101239B
:1059D00022E07B685B6A002B02D0786800F0E2FB73
:1059E0007B681B687A681268526822F490425A6099
:1059F0007B681B687A681268926822F02A029A60B3
:105A00007B681B687A681268126842F001021A60AB
:105A1000786800F069FC034618460837BD4680BD2B
:105A200080B58AB002AFF860B9603B601346FB8076
:105A3000FB689B6F202B7FD1BB68002B02D0FB88BB
:105A4000002B01D1012378E0FB6893F87430012B1F
:105A500001D1022371E0FB68012283F87420FB6806
:105A60000022C3F88020FB6821229A67FCF7E6F841
:105A70007861FB68FA88A3F85020FB68FA88A3F8DD
:105A80005220FB689B68B3F5805F08D1FB681B69F7
:105A9000002B04D10023FB61BB68BB6103E0BB6842
:105AA000FB610023BB61FB68002283F874202BE0BC
:105AB0003B6800937B6900228021F86800F05DFC60
:105AC0000346002B01D0032337E0FB69002B0AD1EA
:105AD000FB681B68BA691288C2F308029A62BB6944
