:020000040800F2
:10000000000008201D8C0008698B00086B8B00081D
:100010006D8B00086F8B0008718B000800000000DA
:10002000000000000000000000000000738B0008CA
:10003000758B000800000000778B0008798B0008A2
:100040006D8C00086D8C00086D8C00086D8C0008AC
:100050006D8C00086D8C00086D8C00086D8C00089C
:100060006D8C00086D8C00086D8C00086D8C00088C
:100070006D8C00086D8C00086D8C00086D8C00087C
:100080006D8C00086D8C00086D8C00086D8C00086C
:100090006D8C00086D8C00086D8C00086D8C00085C
:1000A0006D8C00086D8C00086D8C00086D8C00084C
:1000B0006D8C00086D8C00086D8C00086D8C00083C
:1000C0006D8C00086D8C00086D8C00086D8C00082C
:1000D0006D8C00086D8C00086D8C00086D8C00081C
:1000E0006D8C00086D8C00086D8C00086D8C00080C
:1000F0006D8C00086D8C00086D8C00086D8C0008FC
:100100006D8C00086D8C00086D8C00086D8C0008EB
:100110006D8C00086D8C00086D8C00086D8C0008DB
:100120006D8C00086D8C00086D8C00086D8C0008CB
:100130006D8C00086D8C00086D8C00086D8C0008BB
:100140006D8C00086D8C00086D8C00086D8C0008AB
:100150006D8C00086D8C00086D8C00086D8C00089B
:100160006D8C00086D8C00086D8C00086D8C00088B
:100170006D8C00086D8C00086D8C0008000000007C
:100180006D8C00086D8C00086D8C00086D8C00086B
:100190006D8C00086D8C00086D8C00086D8C00085B
:1001A0006D8C00086D8C00086D8C00086D8C00084B
:1001B0006D8C00086D8C00086D8C00086D8C00083B
:1001C0006D8C00086D8C0008000000006D8C00082C
:1001D0006D8C00086D8C00086D8C00086D8C00081B
:1001E0006D8C00086D8C00086D8C00086D8C00080B
:0801F0006D8C00086D8C000805
:1002000010B5054C237833B9044B13B10448AFF350
:1002100000800123237010BD780000200000000042
:10022000B09B000808B5034B1BB103490348AFF36B
:10023000008008BD000000007C000020B09B00088A
:1002400010F8012B11F8013B012A28BF9A42F7D080
:10025000D01A7047034613F8012B002AFBD1181A55
:10026000013870470000000000000000000000009E
:1002700001F0FF01102A2BDB10F0070F08D010F857
:10028000013B013A8B422DD010F0070F42B3F6D15B
:10029000F0B441EA012141EA014122F007047FF074
:1002A00000070023F0E80256083C85EA010586EACB
:1002B000010685FA47F5A3FA87F586FA47F6A5FA07
:1002C00087F68EB9EED1F0BC01F0FF0102F0070213
:1002D00032B110F8013B013A83EA010313B1F8D1BE
:1002E0000020704701387047002D06BF354603389F
:1002F000073815F0010F07D1013015F4807F02BFD8
:10030000013015F4C03F0130F0BC0138704700BF28
:1003100053B94AB9002908BF00281CBF4FF0FF316C
:100320004FF0FF3000F07AB9ADF1080C6DE904CE62
:1003300000F006F8DDF804E0DDE9022304B07047C0
:100340002DE9F0478C460D460446089E002B51D1FE
:100350008A4217466DD9B2FA82FEBEF1000F0BD069
:10036000CEF1200C01FA0EF520FA0CFC02FA0EF781
:100370004CEA050C00FA0EF44FEA174A250CBCFBB8
:10038000FAF81FFA87F90AFB18CC45EA0C4508FB76
:1003900009F3AB420AD9ED1908F1FF3280F023814D
:1003A000AB4240F22081A8F102083D44ED1AA4B20C
:1003B000B5FBFAF00AFB105544EA054400FB09F9C5
:1003C000A14509D9E41900F1FF3380F00A81A14564
:1003D00040F2078102383C44A4EB090440EA08409B
:1003E0000021002E61D024FA0EF4002334607360E3
:1003F000BDE8F0878B4207D9002E54D0002186E853
:1004000021000846BDE8F087B3FA83F1002940F0E7
:100410008E80AB4202D3824200F2FA80841A65EBEE
:1004200003050120AC46002E3FD086E81010BDE841
:10043000F08712B90127B7FBF2F7B7FA87FEBEF1D2
:10044000000F34D1EB1B3A0C1FFA87FC0121B3FBE0
:10045000F2F8250C02FB183345EA03450CFB08F3C0
:10046000AB4207D9ED1908F1FF3002D2AB4200F2DE
:10047000D1808046ED1AA3B2B5FBF2F002FB105515
:1004800043EA05440CFB00FCA44507D9E41900F13C
:10049000FF3302D2A44500F2B8801846A4EB0C0446
:1004A00040EA08409DE731463046BDE8F087CEF18E
:1004B000200405FA0EF307FA0EF720FA04F83A0CB6
:1004C00025FA04F448EA0308B4FBF2F14FEA1845B0
:1004D00002FB11441FFA87FC45EA044501FB0CF3BB
:1004E000AB4200FA0EF409D9ED1901F1FF3080F0AA
:1004F0008A80AB4240F2878002393D44EB1A1FFAF2
:1005000088F5B3FBF2F002FB103345EA034500FB2C
:100510000CF3AB4207D9ED1900F1FF386FD2AB42B3
:100520006DD902383D44EB1A40EA01418FE7C1F131
:10053000200722FA07F88B4005FA01F448EA030382
:1005400020FA07FE4FEA134CFD404EEA040EB5FBBD
:10055000FCF94FEA1E440CFB19551FFA83F844EAD4
:10056000054509FB08F4AC4202FA01F200FA01FA6F
:1005700008D9ED1809F1FF3043D2AC4241D9A9F1B5
:1005800002091D442D1B1FFA8EFEB5FBFCF00CFB6F
:1005900010554EEA054400FB08F8A04507D9E418B9
:1005A00000F1FF3529D2A04527D902381C4440EA82
:1005B0000940A4EB0804A0FB02894C45C6464D4601
:1005C00015D312D056B1BAEB0E0364EB050404FA4E
:1005D00007F7CB401F43CC40376074600021BDE873
:1005E000F0871846F8E69046E0E6C245EAD2B8EB56
:1005F000020E69EB03050138E4E72846D7E74046D9
:1006000091E78146BEE7014678E702383C4445E77A
:10061000084608E7A8F102083D442BE7704700BFF1
:1006200038B50E4B05460E4A18784FF47A73B3FB73
:10063000F0F31068B0FBF3F000F090F8044658B9FE
:100640000F2D09D8024629464FF0FF3000F04EF832
:10065000044B20461D6038BD012038BD000000203D
:10066000100000200400002008B5032000F02CF842
:100670000020FFF7D5FF08F02BFA002008BD00008E
:10068000034A044B11681B780B441360704700BF8A
:100690005806002000000020014B1868704700BF7A
:1006A0005806002038B50446FFF7F6FF0546631CE0
:1006B0001EBF044B1B78E418FFF7EEFF401B84427B
:1006C000FAD838BD00000020074A0002D36800F4C1
:1006D000E06023F4E0631B041B0C43F0BF6343F4AE
:1006E00000330343D360704700ED00E0194B30B591
:1006F000DC68C4F30224C4F10703251D042B28BFC2
:100700000423062D4FF001058CBF033C002405FA9D
:1007100003F3002803F1FF3301EA030101FA04F1B6
:1007200005FA04F404F1FF3402EA040242EA010289
:100730004FEA021207DB00F16040D2B200F56140DF
:1007400080F8002330BD00F00F00D2B2024B1A54E3
:1007500030BD00BF00ED00E014ED00E00138B0F165
:10076000807F0AD2064BF021064A5860002082F8AA
:100770002310072298601A6070470120704700BF5D
:1007800010E000E000ED00E0BFF35F8F044A536A21
:1007900023F4803353620022024B5A60704700BF3B
:1007A00000ED00E090ED00E0064A40F00100064B4D
:1007B0005860536A43F480335362BFF34F8FBFF3E3
:1007C0006F8F704700ED00E090ED00E04378124A33
:1007D00010B593600178D9B14368D360C37A047BC4
:1007E0001B0643EA04730B43817A43EAC143417B0E
:1007F00043EA8143817B43EA4143C17B43EA0143AE
:10080000417A43EA0123017A43EA4103136110BDAF
:10081000D160116110BD00BF90ED00E0002337B53D
:1008200041F2180401930368054601201A5942F465
:1008300080121A511B590193FFF734FF2B68019A5C
:100840001A5103B030BD000070B5044629B14FF411
:100850000063C3604FF480438360E3692268002B28
:10086000E068A368156808BF4FF4806143EA00039D
:100870002E4818BF0021284043F400730343012091
:100880000B4313601568FFF70DFF2368402201201A
:100890001D605A605D68FFF705FF236801205D60F9
:1008A00000259D60DD609A6922F0BE021204120CE0
:1008B00042F080029A619E69FFF7F4FE23680120EE
:1008C0009E61DD61DD69FFF7EDFE22680120184BB6
:1008D000D56141F2180551590B4043F0087343F0BC
:1008E000040353515659FFF7DDFE23680120114AD6
:1008F0005E5103F580531A601D68FFF7D3FE22682E
:1009000002F580531D60A369012B07D141F21C0140
:10091000535843F4803343F0400353506369064A0D
:10092000998811601A68054B1A6070BD0F8120FF0D
:10093000233FDEF88020C102408002404480024014
:10094000F0B590F84540012C4FF0020433D001255A
:1009500080F844404FF4801701F1200480F845509E
:1009600040F2F45E002503F1FF3CC1629D420BD1D1
:10097000026841F21003D150012380F84430002373
:1009800080F845301846F0BD0EFB052644F8207C63
:1009900044F8186CC6692EB954F8206C46F4400629
:1009A00044F8206C65452CBF0E46264601352034A0
:1009B00044F8346CDAE72046F0BD2DE9F04190F8B8
:1009C0004540012C4FF0020430D0012580F844400E
:1009D0004FF0004601F1200480F8455044F2F457EE
:1009E000002540F2F45E03F1FF3C81629D420CD190
:1009F000026841F20C03D150012380F844300023F7
:100A000080F845301846BDE8F0810EFB052844F813
:100A1000206C44F8188C65452CBF8846A04644F8E5
:100A20001C7C013544F8148C2034DFE72046BDE8F7
:100A3000F081000090F84530012B4FF00203F0B533
:100A400066D0012280F8443080F8452029B980F82A
:100A5000442080F845101046F0BDC36A1C68002C85
:100A600006DA122380F84430002380F84530F2E79C
:100A700040F2F454A1422CD9B1FBF4F204FB12145D
:100A80002CB30132234C01F2F45140F2F456571EBC
:100A900004FB02110024C1F30C011D6825F0405530
:100AA0001D601CB91D6845F080551D60A7425E6041
:100AB00004D11D68596045F000551D601D68013462
:100AC00045F0004594421D60DB68E6D10DE0012A47
:100AD000D8D11A68C1F30C0142F0405259601A6033
:100AE0001A6842F000421A60DB68C36241F21402E5
:100AF00003689958490705D504219950002141F20E
:100B000004029950012380F84430002380F84530D6
:100B10001846F0BD0CFAFFFF90F84530012B4FF05E
:100B2000020330B523D080F844300124836A80F872
:100B300045401A68002A27DB1A68D96812F48072C7
:100B400017D0826B43632244A242826308BF0363CF
:100B50001B68C3F30D43043BC363036B9B68816253
:100B60000364012380F84430002380F845301846A0
:100B700030BD1D688162AD0555BF836B03630133D2
:100B800042634CBF846383630123002280F84430B6
:100B900080F84520EBE7F8B590F844300546164656
:100BA000822B30D002688223890180F84430136997
:100BB00001F4F86403F01C012143048AE402A4B2A6
:100BC0000C4344F001041461FFF766FD074614F07E
:100BD000010007D12B685B699BB23360012385F864
:100BE0004430F8BDFFF758FDC01BB0F5803F07D378
:100BF0000123032085F84430002385F84530F8BDF3
:100C00002B681C69E3E70220F8BD90F84430422BC2
:100C100070B505462ED042238C0192B280F8443044
:100C200004F4F864036844F00304186900F01C003D
:100C300020432C8A5A61E402A4B204431C61FFF7EA
:100C40002BFD064614F0010003D1012385F8443042
:100C500070BDFFF721FD801BB0F5803F07D3012356
:100C6000032085F84430002385F8453070BD2B689B
:100C70001C69E7E7022070BD0023F7B50446009326
:100C8000002800F0DC8090F8443003F0FF021BB92C
:100C900080F8452007F0B8FB6A4B5A6C42F480425A
:100CA0005A645B6C03F480430193019B664B5A6862
:100CB00022F400025A605A68216A0A435A60236883
:100CC00003F580531A6842F001021A60FFF7E4FC52
:100CD0000546236803F580521268D0071DD41D69AC
:100CE00000F004FD594B5A4A25F01C050344934279
:100CF00022D845F0080523684FF400420021204621
:100D00001D61FFF782FF054668B3012501212046DA
:100D1000FFF79AFD84F844500BE0FFF7BDFC401B41
:100D2000B0F5FA7FD5D90325002384F8445084F820
:100D30004530284603B0F0BD464B474A0344934232
:100D400002D845F00C05D6E7444B454A034493428C
:100D5000D1D9444B444A0344934294BF45F004051F
:100D600045F01005C7E7FF20FFF79CFC6368002BE8
:100D700053D0FFF791FC41F2883706466A460121BD
:100D80002046FFF708FFFFF787FC801BB8420BD90E
:100D900001212046FFF758FD0123032584F8443044
:100DA000002384F84530C4E7009B5907E6D54FF48B
:100DB000805200212046FFF728FF0028A5D1FFF729
:100DC0006BFC41F2883706466A4601212046FFF750
:100DD000E2FEFFF761FC801BB842D9D8009B9A065F
:100DE000F2D56A461F212046FFF7D5FE00288CD198
:100DF000009B13F0100218BF4FF400625B074CBF5A
:100E000000234FF48043E260A36000212046FFF7F7
:100E10001BFD012384F844308BE7A3682946E26870
:100E200020465B0843EAD20292B2FFF7EEFE0028AA
:100E30007FF46BAF40F6FF70FFF734FCE5E7012568
:100E400077E700BF003802400038014000D3CEFEF3
:100E5000BFE1E40040F1E9FD3F787D0100796CFCE1
:100E6000FF596202001F0AFA7FF0FA0290F845303B
:100E7000012B73B505464FF0020033D000242B68D8
:100E800085F84400012601941A68304685F84560CB
:100E900042F008021A601B680193FFF703FC019AF5
:100EA00030462B681A6000941A6842F004021A60F7
:100EB0001B680093FFF7F6FB2B682846009A1A6020
:100EC000FFF7ACFC2A6841F218032046D15841F4E0
:100ED0000051D150D15841F00201D15085F8446001
:100EE00085F8454002B070BD2DE9F04F0B6885B024
:100EF000DFF8C081019300236C4ADFF8BC91012424
:100F0000019D9C402540AC4240F0B6804C684FEAC1
:100F1000430E24F0100C0CF1FF36012E12D80326DC
:100F2000876806FA0EF627EA0607CE6806FA0EF676
:100F30003E438660C4F3001647689E4027EA0507D3
:100F40003E4346600326C768BCF1020F06FA0EF660
:100F50006FEA060607EA060A8F6807FA0EF747EAFD
:100F60000A07C76016D14FEAD30A03F0070B4FF008
:100F70000F0C00EB8A0A4FEA8B0BDAF820700CFAA0
:100F80000BFC27EA0C0C0F6907FA0BF747EA0C0772
:100F9000CAF8207007683E4004F0030707FA0EFE07
:100FA0004EEA06060660E60066D5D8F8446023F0EF
:100FB000030703F0030E4FF00F0C46F4804607F1D1
:100FC00080474FEA8E0EC8F8446007F59C37D8F882
:100FD000446006F480460396039E0CFA0EF6D7F89A
:100FE00008A02AEA060C324EB0424CD006F58066C4
:100FF000B0424AD006F58066B04248D006F5806619
:10100000B04246D006F58066B04244D0484544D050
:1010100006F50066B04242D006F58066B04240D088
:1010200006F58066B0423ED006F58066B04214BF39
:101030000A26092606FA0EF614F4803F46EA0C0644
:10104000BE606FEA050716680CBF3E402E4314F4DD
:10105000003F166056680CBF3E402E4314F4801FBC
:10106000566096680CBF3E402E43A4029660D66838
:1010700054BF3E402E43D6600133102B7FF43FAF68
:1010800005B0BDE8F08F0026D4E70126D2E702269E
:10109000D0E70326CEE70426CCE70526CAE70626D6
:1010A000C8E70726C6E70826C4E700BF003C0140A2
:1010B0000000024000380240001402400AB1816181
:1010C00070470904FBE70000194B37B51A6C194C3F
:1010D00042F080521A641B6C03F080530193019B11
:1010E000236843F480332360FFF7D6FA054663682C
:1010F000DA030CD5236843F400332360FFF7CCFAFE
:101100000C4C054663689B030AD5002006E0FFF7F8
:10111000C3FA401BB0F57A7FE9D9032003B030BD94
:10112000FFF7BAFA401BB0F57A7FEBD9F5E700BFBD
:1011300000380240007000402DE9F341044608B930
:1011400001203FE00368D80710D42368990760D4D2
:101150002368190700F1A58023685A0700F1C680AB
:10116000A069002840F0308100202BE0944B9A6861
:1011700002F00C02042A07D09A6802F00C02082A36
:101180000AD15B685A0207D58D4B1B689B03DCD5DF
:101190006368002BD9D1D3E76368894DB3F5803FED
:1011A00013D12B6843F480332B60FFF775FA844D1D
:1011B00006462B689F03C8D4FFF76EFA801B64288D
:1011C000F7D9032002B0BDE8F0819BB92B6823F466
:1011D00080332B602B6823F480232B60FFF75CFAAD
:1011E00006462B689803B0D5FFF756FA801B642893
:1011F000F7D9E6E7B3F5A02F2B6803D143F480239A
:101200002B60CEE723F480332B602B6823F48023FC
:10121000CAE76B4B9A6812F00C0F07D09A6802F07D
:101220000C02082A11D15B6859020ED4644B1A686B
:10123000920702D5E268012A82D11A68216922F058
:10124000F80242EAC1021A6082E7E3685C4DBBB172
:101250002B6843F001032B60FFF71EFA06462B684C
:101260009F0707D52B68226923F0F80343EAC203DE
:101270002B606DE7FFF710FA801B0228EFD9A0E77B
:101280002B6823F001032B60FFF706FA06462B6854
:1012900098077FF55DAFFFF7FFF9801B0228F6D9AD
:1012A0008FE76369464D83B16B6F43F001036B6752
:1012B000FFF7F2F906466B6F9B073FF54DAFFFF75F
:1012C000EBF9801B0228F6D97BE76B6F23F0010353
:1012D0006B67FFF7E1F906466B6F9F077FF53CAF41
:1012E000FFF7DAF9801B0228F6D96AE7344B1A6C4B
:1012F000D00027D41A6C012642F080521A641B6C6D
:1013000003F080530193019B2E4D2B68D9051BD50B
:10131000A3682B4D012B27D12B6F43F001032B67C3
:1013200041F28835FFF7B8F9254F80463B6F9B07A0
:101330003FD5002E3FF414AF214A136C23F08053A5
:1013400013640DE70026DFE72B6843F480732B60FE
:10135000FFF7A2F907462B68DA05D9D4FFF79CF905
:10136000C01B6428F7D92CE7ABB92B6F41F2883842
:1013700023F001032B672B6F23F004032B67FFF788
:101380008BF907462B6F9807D3D5FFF785F9C01B5C
:101390004045F7D915E7052B2B6F03D143F0040324
:1013A0002B67B9E723F001032B672B6F23F00403AE
:1013B000B5E7FFF771F9A0EB0800A842B6D900E73E
:1013C00000380240007000403C4DAB6803F00C0355
:1013D000082B42D02B68022823F080732B602FD17A
:1013E000FFF75AF906462B68990123D4226AE3696C
:1013F0001343626A43EA8213E26A43EA0263226B9E
:1014000043EA0273A26A2D4C5208013A43EA0243AE
:101410006B602B6843F080732B60FFF73DF9054646
:1014200023689A013FF5A0AEFFF736F9401B02286A
:10143000F6D9C6E6FFF730F9801B0228D3D9C0E6FB
:10144000FFF72AF904462B689B017FF58DAEFFF765
:1014500023F9001B0228F6D9B3E601286B683FF494
:10146000B1AE03F48002E1698A427FF469AE03F011
:101470003F02216A8A427FF463AE47F6C072616A16
:101480001A40B2EB811F7FF45BAEA26A03F44031D5
:101490005208013AB1EB024F7FF452AE03F0706292
:1014A000E16AB2EB016F7FF44BAE226B03F0E043D5
:1014B000B3EB027F14BF0120002083E60038024016
:1014C00070B5204C88B00D461646236BE0B943F04A
:1014D000010303A92363236B059003F00103079025
:1014E00019480193019B4FF48073039302230493E3
:1014F00003230693FFF7F8FCA16821F0EC61314368
:101500002943A16008B070BD43F0040303A90F484C
:101510002363236B03F004030293029B4FF40073D5
:101520000393022304930323069300230593079355
:10153000FFF7DAFCA36845EAC60123F078450D43BE
:10154000A560DFE7003802400000024000080240CA
:10155000134908B58B6803F00C03042B03D0082B48
:1015600003D0104808BD104808BD4A684B68496858
:1015700002F03F0213F48003C1F388111ABF0A4836
:1015800000230848A1FB0001FEF7C2FE044B5B6884
:10159000C3F3014301335B00B0FBF3F008BD00BFB0
:1015A000003802400024F40000127A002DE9F041D6
:1015B0000D46044610B90120BDE8F081464A136883
:1015C00003F00F038B4229D321688F0731D4C8075A
:1015D00044D4414A136803F00F039D4268D3226844
:1015E000510771D4130707D53C4A2169936823F446
:1015F000604343EAC1039360FFF7AAFF374B384AC1
:101600009B68C3F30313D35CD840364B1860364B4A
:101610001868FFF705F80020BDE8F081136823F093
:101620000F030B431360136803F00F039942C2D1F9
:10163000CAE711F0040F294B03D09A6842F4E05234
:101640009A600E0703D59A6842F460429A609A68DD
:10165000A06822F0F00202439A60B8E761681F4B6D
:1016600001291A681CD112F4003FA4D09A6841F2F3
:1016700088381A4E22F003020A439A60FFF70CF8EA
:101680000746B368626803F00C03B3EB820FA0D087
:10169000FFF702F8C01B4045F3D90320BDE8F081F5
:1016A000022902D112F0007FDFE712F0020FDCE71F
:1016B000136823F00F032B431360136803F00F0329
:1016C0009D427FF478AF8AE70449E0688B6823F491
:1016D000E05303438B6085E7003C02400038024042
:1016E00025CA00081000002004000020014B1868E3
:1016F000704700BF10000020044B054A9B68C3F3ED
:101700008223D35C034A1068D840704700380240F7
:1017100035CA000810000020044B054A9B68C3F33B
:101720004233D35C034A1068D84070470038024007
:1017300035CA00081000002038B5C26904460368A5
:10174000816800691D680143606901439048114345
:101750002840256A0143E0681960596821F4405126
:1017600001435960A1699868294320F4306001431E
:10177000996088498B4217D1874B8849D3F89030BC
:1017800003F00303B2F5004FCB5C29D1082B00F224
:101790009D80DFE813F08C00E800EE009B00FA006B
:1017A0009B009B009B0076007D498B4206D17A4BC3
:1017B0007C49D3F8903003F00C03E3E77A498B427D
:1017C0001DD1754BD3F8903003F03003102B00F08F
:1017D000D9800ED8002B67D0B2F5004F76D01023F9
:1017E000082B73D8DFE803F0999FA272B47272726B
:1017F000B700202B00F0BA80302B3FD0ECE76B49CC
:101800008B420DD1644BD3F8903003F0C003402BD2
:1018100000F0B880DED9802B00F0A880C02BECE768
:1018200063498B4210D15C4BD3F8903003F4407382
:10183000B3F5807F00F0A680CCD9B3F5007F00F02F
:101840009580B3F5407FD8E75A498B421ED1524B61
:10185000D3F8903003F44063B3F5806F00F09280CA
:1018600006D8002B7CD0B2F5004F2FD110238DE786
:10187000B3F5006F7AD0B3F5406FF4D1B2F5004FF5
:1018800069D16368580800F5803078E04A498B4296
:1018900024D1414BD3F8903003F44053B3F5805F2B
:1018A00070D015D8002BDED1B2F5004F35D1FFF73F
:1018B00023FF6268530803EB4000B0FBF2F080B2F4
:1018C0004FF6EF73A0F110029A421AD9012020E0DE
:1018D000B3F5005F4AD0B3F5405FCEE737498B429E
:1018E000F4D12D4BD3F8903003F44043B3F5804F3F
:1018F00048D07FF66FAFB3F5004F37D0B3F5404F08
:101900007BE720F00F03C0F3420022681843D06049
:10191000002000232366636638BDFFF7EDFE636891
:1019200000EB530008E0FFF7F7FEF8E7636858089C
:1019300000F5740000F51050B0FBF3F080B24FF6E4
:10194000EF73A0F110029A42C0D82368D860DFE795
:10195000FFF7FEFDE3E76368580800F50040EBE79A
:10196000B2F5004FDFD1FFF7D7FEA2E7B2F5004F87
:10197000DCD16368580800F1F47000F59040B0FBCA
:10198000F3F09CE7B2F5004FE2D1FFF7E1FD90E7FD
:10199000F369FFEF0010014000380240C89B0008C7
:1019A00000440040CC9B000800480040004C004030
:1019B000005000400014014000780040007C0040CE
:1019C000436ADA0710B506D50168846A4A6822F4CA
:1019D000003222434A609C0706D50168C46A4A68FF
:1019E00022F4803222434A60590706D50168046B0D
:1019F0004A6822F4802222434A601A0706D5016809
:101A0000446B4A6822F4004222434A60DC0606D551
:101A10000168846B8A6822F4805222438A609906A6
:101A200006D50168C46B8A6822F4005222438A609A
:101A30005A0610D50168046C4A68B4F5801F22F478
:101A4000801242EA04024A6005D14A68446C22F4DA
:101A5000C00222434A601B0606D50268816C5368A7
:101A600023F400230B43536010BD2DE9F041069D84
:101A700004460F46164698462168CA6937EA0203AB
:101A80000CBF01220022B24202D00020BDE8F0814A
:101A9000681CF2D0FEF700FEA0EB0800854220682B
:101AA000036800D37DB923F4D0730360836823F007
:101AB0000103836020236367A3670023032084F866
:101AC0007030BDE8F0815A07D6D5C3691B05D3D560
:101AD0004FF400630362036823F4D07303608368E8
:101AE00023F00103836020236367A367E367E4E7D0
:101AF00073B500260446C667FEF7CEFD236805468B
:101B00001B681A0715D423681B685B070AD56FF09A
:101B10007E4300224FF48001204600932B46FFF7BE
:101B2000A4FF90B920230020636784F87000A367A6
:101B30000CE06FF07E4332464FF4001100930346F1
:101B40002046FFF792FF0028DDD0032002B070BDD1
:101B500010B5044640B3436F1BB980F8703006F0EF
:101B6000CFFF2268242320466367136823F0010314
:101B70001360FFF7E1FD012816D0636A13B1204618
:101B8000FFF71EFF236820465A6822F490425A60ED
:101B90009A6822F02A029A601A6842F00102BDE8AF
:101BA00010401A60FFF7A4BF012010BD70B50E46AB
:101BB0000546A8B1A1B10C4C61683046FEF740FB68
:101BC00040B9A3682B60E368E8606B60AB60237C7E
:101BD0002B7470BD2468002CEED16FF0050070BD31
:101BE0006FF00F0070BD00BF9CA9000870474268ED
:101BF0008068101A704710B50446406918B1FFF7A5
:101C0000F5FF00236361206A18B102F0DFF90023B9
:101C1000236210BD38B50D460A4904462960FFF716
:101C2000C5FF68B1084920462960FFF7BFFF38B1FA
:101C3000064920462960FFF7B9FF08B100242C604F
:101C4000204638BDB0A90008BAA90008C3A90008F9
:101C500070B50C4615462ABB21B30121204602F07F
:101C6000F9FD2C2001F062FE0646F0B12C22294637
:101C700007F03CF831462046F46102F01FFE0C49A3
:101C8000204602F01FFE0B49204602F04BFE0A4997
:101C90002046042202F064FE0849204602F02AFE93
:101CA000284670BD6FF00505FAE74FF0FF35F7E7FE
:101CB000251E00082D210008E91D0008D11D00087F
:101CC00038B504460D46002102F0F8FD00212046FB
:101CD00002F0F8FD0021204602F024FE00222046FA
:101CE000114602F03DFE0021204602F003FE2DB118
:101CF0002846FFF780FF284601F0C4FC204603F089
:101D000089F9054620B104220249204602F028FE46
:101D1000284638BDE91D0008F8B506460D4639B11C
:101D20004B6A9BB9486930B929463046FFF7C8FF6E
:101D300000242046F8BDFFF75AFF0028F4DD214BB0
:101D400040F29D422049214806F0D8FF4FF6FF732C
:101D50006C6A4FF6FE72944288BF1C46A3B24CB325
:101D6000748EB6F864206400AF69A4B2944228BFB0
:101D700014469C4228BF1C46002322463946304662
:101D800005F0BEF8431C13D1B6F8643033B1B6F891
:101D90006630082B02D86408012CEDD800246B6A49
:101DA000002BC6D16869FFF722FF0028C1DCBBE722
:101DB0000028F3D1AB692344AB616B6A1C1B6C62D6
:101DC0000124ECE732AA000868AA00089FAA0008CC
:101DD00008B50B46014628B1002280F82820184695
:101DE000FFF79AFF002008BD10B50C46014620B948
:101DF0002046FFF765FF002010BD90F82830013322
:101E0000DBB2042B80F82830F2D04369002BF2D0EB
:101E10002046FFF781FF0028EDD0204605F0D6FDD3
:101E2000E9E700002DE9F04F044687B08B461546E0
:101E30009A464BB952B188B95846298902F0B8FC84
:101E4000284602F0C3F801E0002AF5D121465846A1
:101E5000FFF736FF002007B0BDE8F08F1189584624
:101E600002F0A6FC6369002B40F03D81A369002BC2
:101E700040F04181206A002840F093802562284686
:101E800002F0EEF9206A0368002B00F08E80B0F8B3
:101E9000089040F2FF33DFF864829945974928BFE4
:101EA000994600234A4602F0AFFAB9F1060F40F214
:101EB00006814A469249404600F089F9002800F020
:101EC000FE8004228F49404606F078FF01900028EA
:101ED00070D108F1030308F104068B490293A9F1BC
:101EE000040330469BB21A46039300F070F9039B3B
:101EF000074650B91A468249304600F068F907464D
:101F0000002800F0DC8001230193029BBB4280F09B
:101F1000D6804A467D49404600F059F9002800F035
:101F2000CE80BF1B00233046BFB288F80330F35584
:101F30000596FEF78FF9002800F09F80471EF35D9D
:101F40002F2B40F09A80724B9E42994602D1012875
:101F500040F093803F2F28BF3F273FB13A4631469C
:101F60006B4806F0B8FE002309F807304FF0000870
:101F700037B3D7F13F0612D0664B53F838100846F6
:101F80000291FEF767F9864209EB0703029928BF21
:101F900006461846324606F09EFE002282555C4BED
:101FA00011E0294602F070F969E7D5F80480B5F828
:101FB0000A907AE7002388F804306FF00F0A45E0B2
:101FC000544B53F838301946204602932646FFF703
:101FD000EDFD029B00284AD10593336833B94E4B7F
:101FE00040F60B124D494E4806F088FE3368666194
:101FF000A3617368002B06DA474B40F63412494957
:10200000474806F07BFE73686362002384F828303B
:1020100063691B7CDA076AD43F4B40F6441242499D
:102020003F4806F06BFE019B83B163691B7CDB07B5
:102030000CD5626A3549A06900F0C9F830B1A369CE
:102040000430C21A636AA0619B1A6362206A18B1E5
:1020500001F0BCFF00232362284601F0B7FFBAF16C
:10206000000F3BD121465846FFF756FEF2E608F135
:102070000108B8F1050F7FF47BAF3F21059806F00A
:102080008FFE08B100230370059920462646FFF70E
:102090008DFD0028A1D005A92046FFF7BBFD06460F
:1020A00000289AD105A92046FFF7B4FD064600286E
:1020B00093D16061A061606284F82800C6E7206A5D
:1020C00002F0C6F8236A1B89B3F5806FBFF475AFC1
:1020D00005283FF672AF6FF0040ABDE71AF1100F42
:1020E0007FF4B8AEB2E6284601F070FFB2E6019B7D
:1020F000002BABD09DE76FF0070AA7E7D4000020C4
:10210000D5A90008CEA90008A8CA0008D3A90008CC
:1021100094000020C8AA000832AA0008D8A9000824
:102120009FAA0008EBA9000809AA000810B50446F8
:1021300030B1FFF760FD2046BDE8104001F0A2BAC3
:1021400010BD000010B52E2002F0B0FE044640B9CC
:10215000154B40F6722215491548BDE8104006F0AF
:10216000CDBD012102F076FB50221249204602F03B
:1021700029FA30B10C4B40F657220F490C4806F0B3
:10218000BDFD2046FF2102F0D9FA044630B9064BC6
:1021900040F659220949064806F0B0FD2046084994
:1021A000BDE8104002F0D6BB32AA0008F0AA000831
:1021B0009FAA000870AE00080BAB000827AB000810
:1021C000511C000840BA80B2704700BA7047F8B599
:1021D000044608460F461546FEF73CF8064690B101
:1021E0002544207880B1A3199D4201D20020F8BD7A
:1021F0003B78834205D132463946204606F0DEFD63
:1022000008B10134EDE72046F8BD08B501F01AFA2F
:1022100001F070FC01F010FD05F028FF02F0AEF9AE
:10222000BDE8084005F0DEBE70B51826074C05462F
:102230004643A05918B101F0C9FE0023A351182349
:1022400003FB05440023237570BD00BFD4040020A8
:102250002DE9F74F4FF00A0C4FF0000E06461746D7
:10226000444BF34664466546E046CDF804E0CDF8BD
:1022700000E00A2C0FFA8EF093F8149010D1B9F107
:10228000000F59D0002E66D0326892465A689245A7
:1022900061D117B19A6897425DD103B0BDE8F08F64
:1022A000B9F1000FEED10EF1010E1833BEF10A0F95
:1022B000DFD18A074CD40A2C13D1CB0748D50A2D7D
:1022C0003CD018232B4A6B43D35833B12A4B40F2EE
:1022D0006D122A492A4806F011FD2C462846FFF7C0
:1022E000A3FF1823234A03FB04231B7D33B1224B96
:1022F00040F285122349224806F000FD2EB1182332
:102300001C49326803FB04135A601823194A2046FB
:1023100003FB042A0023CAF80870AAF81230BCE7AD
:10232000019A9145BFD3CDF804908046BBE7D945CB
:10233000B9D3CB460546B6E70446B4E7B8F10A0F71
:1023400004D1BCF10A0F03D06546C6E74546C4E791
:102350004FF0FF30A1E7B9F1010FB3F81290E6D1C9
:102360001A68002ADCD0009A91459CD3CDF80090E1
:10237000844698E7D404002080AB0008B7AB00087F
:102380009FAA0008CEAB00082DE9F3470B9D8946B4
:1023900092469846074630B92D4B40F257422D4998
:1023A0002D4806F0ABFC4FF420721C210E2001F0EA
:1023B0006FFE0646002847D043891B2B06D8244BC6
:1023C00040F263422549244806F098FC7468BDF841
:1023D0003400FFF7F7FEE08097F82830062B06D090
:1023E0001B4B40F26A421E491B4806F087FCD8F896
:1023F00000304A4631463846A360B8F80430A3811D
:102400002B68C4F81230AB880025E3820A9B1B6856
:10241000C4F80E300C9B1B682570A3610123E57086
:1024200063700823A370062323710423637140F6AD
:1024300006030093534605F05FFF304601F0C6FDEA
:10244000284602B0BDE8F0874FF0FF30F9E700BF43
:1024500080AB0008BAAC00089FAA0008C8AC00080E
:10246000F9AC000870B50646074D00242B7D2BB152
:10247000AB68B34202D12046FFF7D6FE01341835CF
:102480000A2CF3D170BD00BFD40400202DE9F04721
:10249000804686B00C4649B9464B40F28A224649EE
:1024A000464806F02BFC06B0BDE8F08745682B884F
:1024B000B3F5807F08D12B79062B05D16B79042BDE
:1024C00002D16B88082B03D0404601F07FFDEAE77C
:1024D000D5F80E304E680593AB6916B19B1B5E4272
:1024E0005E41002E94F8283005F1080714BF4FF024
:1024F000010A4FF0020A062B06D02E4B40F2A91219
:102500002F492E4806F0FAFB059800283DD02146B9
:1025100000F0B1FC8146C0BB059B03F0F003E02B4B
:1025200033D02246514605A8FFF792FE00282CDB47
:102530001822244B4FF0020C02FB00F103EB010EBA
:102540008EF814C04FF00C0CCEF8084010FB02C2FD
:10255000386803EB020C9850BA88ACF8042053F8A2
:1025600001A0AEF81290BAF1000F0ED043F801901E
:102570004FF4006304F122025146009320463B468B
:1025800005F0BAFE504601F021FDEB88B3F5807FDF
:102590009AD1002E98D0022204F1220301972046FE
:1025A000039205AA19460292221D00923A46FFF7AD
:1025B000EBFE89E780AB0008BAAC00089FAA0008D0
:1025C00016AC0008D40400201FB5024600F1220317
:1025D00002910124054904320394019119460092A5
:1025E000034AFFF7D1FE04B010BD00BF0BCA0008BC
:1025F0009FC90008F8B5134C002502260427227C49
:102600006AB1E38901339BB2B3F5967FE38103D2CC
:10261000012A09D1042B0BD92846FFF705FE013505
:1026200018340A2DEBD1F8BD032A06D12774F6E73A
:1026300021466068FFF7C8FFF1E7042AEFD126744E
:10264000EDE700BFD80400202DE9F0431446274DE4
:10265000182285B00646884602FB0452127D012AE4
:1026600006D8234B40F2EF222249234806F046FBCE
:10267000182106F1220701FB045999F81430022BA6
:102680000DD1B9F81230B3F58E7F17D949463046CF
:102690000431FFF799FF10B9032389F81430182388
:1026A0004FF400624146304603FB045300923A4621
:1026B0000C3305F021FE05B0BDE8F083B3F5877F4C
:1026C000EDD304EB440301213046DB00039139468E
:1026D00003F10C0204332B442A440293074B019369
:1026E000331D00933B46FFF74FFED4E7D404002090
:1026F00080AB00083AAC00089FAA00080BCA00088B
:102700002DE9F3478946074601461546D9F80000EA
:1027100000F0B1FB002875D1D9F8003003F0F002C9
:10272000E02A6FD0002B6DD03A4601214846FFF7D2
:102730008FFD041E03DA60B202B0BDE8F0877E2C84
:1027400006DD3F4B40F2C1323E493F4806F0D6FA23
:10275000E4B23E4E182202FB0462137D83BB4FF0AD
:102760000108976082F81480182303FB04631B7D23
:1027700033B9334B40F2CF323549334806F0BEFA15
:10278000B8F1000F01D1002D42D149463846FFF77C
:102790001BFF002DD0D0182303FB0462127D012AF9
:1027A00011D92C4A03FB04632946384614704FF4B0
:1027B00000620C33009207F1220205F09DFDBBE799
:1027C0004FF00008D0E7B7D12F46DFF87480DFF86C
:1027D0008890DFF874A01FB9284601F041FD21E080
:1027E0007A893B899A4208D13B6833B1434640F22B
:1027F000F1324946504606F081FA3B7B5B060AD42B
:102800003F68E8E76FF00F0096E74FF0FF3093E77F
:102810004FF0FF30BFE72A464FF420710E2001F041
:1028200039FE0546002DF0D0182303FB04F21F46A5
:10283000B05808B101F0CAFB7C43002035517BE75A
:1028400080AB00086AAC00089FAA0008D4040020EE
:1028500078AC0008C4050020A0AC0008F0B50E4616
:1028600085B01546044630B9424B40F21E3242490B
:10287000424806F043FA36B93E4B40F21F32404917
:102880003E4806F03BFA35B93A4B4FF448723D49A1
:102890003A4806F033FA2146286800F0ECFA00289E
:1028A00062D12B6803F0F002E02A1DD101238DF8DC
:1028B00009008DF808305E238DF80A306B7803F03C
:1028C0007F038DF80B30AB788DF80C30EB788DF8FA
:1028D0000D3002AB4FF4006231462046009204F105
:1028E000220205F009FD23E06268A1685A400A420D
:1028F00009D09BB24FF6A962934204D0E368002B43
:1029000034D004F10C052049182320480A788E465B
:1029100003FB0203187D01280CD999688C4209D168
:1029200029685B68994205D131462046FFF78CFE45
:1029300005B0F0BD154B0021187DCAB2012809D998
:102940009868844206D12F685868874202D18EF871
:102950000020E9E7013118330A29EDD13246294632
:102960002046FFF7CDFEE3E7094BB3E76FF0030026
:10297000DEE700BF80AB0008BAAC00089FAA0008E1
:10298000BDB60008F7AB0008C4050020D404002041
:102990009FC90008F0B5044687B00F4616462421AB
:1029A0004FF42072222001F073FB0546A0B3438947
:1029B000232B06D8194B40F269121949194806F021
:1029C0009DF9226800236C6802F11C00237104F158
:1029D00008016371A371E37113462770667053F8A1
:1029E000046B834241F8046BF9D106AED36846F814
:1029F000043D304600F0D2F858B1002101233246A0
:102A0000A170E170029028468DE80A00FF2300F0D3
:102A100021FA284601F0DAFA07B0F0BDA1AD0008AE
:102A2000D6AD00089FAA00082DE9F043434F85B0BA
:102A300004468846D7F8089099F8005005F00F052D
:102A4000AD00132D2ED94389032B2BD943681B7856
:102A5000082B27D1786900F0F003E02B22D03968E9
:102A600000F009FAF0B92389072B1BD905F10E06EE
:102A70002046314601F073FA002852D023895919B3
:102A800089B28B420ED84FF420720E2001F000FB69
:102A9000064638B1428905F108039A4208D2304609
:102AA00001F094FA204605B0BDE8F04301F08EBA7B
:102AB00049462A46406806F00EF92946304601F09C
:102AC00051FA30B11E4BB6221E491F4806F016F9C6
:102AD000E5E72146304601F011FC0028DFD1204611
:102AE000344601F073FA29462046666801F037FA49
:102AF00002460028D6D161687B69CB603B690B61D7
:102B0000FF233070B070F0700B728872C8720121B0
:102B1000009020460191CDF808800C4900F09AF908
:102B2000C0E73146204601F01DFA0028DBD0044BF7
:102B3000C7220749044806F0E1F8B3E75C06002025
:102B4000A1AD00083AAD00089FAA00087006002059
:102B50006FAD00080A4604300321FFF71BBF0A4689
:102B600004300B21FFF716BF08B590F82930014655
:102B700013F001030BD043684BB1074A50698342FD
:102B800007D000F078F9003018BF012008BD1846C2
:102B900008BD012008BD00BF5C060020144B30B505
:102BA0001B687BB9134A1268FAB192F8291001F038
:102BB0000501052919D15168B9B101787F2918BFDC
:102BC000134612E093F8294004F00502052AE7D1E4
:102BD0005A68002AE4D001689D684A402A4204D01D
:102BE000A207DDD4DA689142DAD1184630BD00BFC1
:102BF000883B00208C3B00202DE9F843D0F804806E
:102C000005460F4698F800904FEA1913042B05D09B
:102C1000284601F0DBF90020BDE8F883B8F802008F
:102C200009F00F09FFF7CEFA2B894FEA890904460C
:102C300083421FFA89F603D90146284601F0B0FA0B
:102C40006B89B342E4D32B89A342E1D3132EDFD99E
:102C5000D8F81030404C636103F0F003D8F80C2032
:102C6000E02B22613AD197F82930DB0741D57B6808
:102C7000002B3ED03E463946206900F0FCF8002883
:102C8000C6D1236903F0F003E02BC1D0002EBFD0E2
:102C9000B8F8063023F0C0033BB1284600F01AFA1A
:102CA00005460028B7D0D0F804804946284684E875
:102CB000C00198F8003003F00F039B00A38101F0DE
:102CC00051F998F80930062B2BD0112B1DD0012B70
:102CD0002CD139462846FFF7A7FE1AE03846FFF701
:102CE00043FF0028C6D1237D7F2B02D01B4B1E68DB
:102CF0000EB90026BFE7BE4201D13668F8E730467C
:102D0000FFF732FF0028F8D0B5E73946284605F02E
:102D1000B9F9002323606360A360A3812361636129
:102D200079E73946284603F0DFF9F2E73146606972
:102D300000F0A1F860B9636903F0F003E02B07D05D
:102D40004946284601F03AF902212846FFF702FFDA
:102D5000284601F03BF9DCE75C060020883B0020B8
:102D60002DE9F3471F46837B05468A46012B16460D
:102D7000DDF8308006D0314B4FF455723049314880
:102D800005F0BCFF002E49D01421284601F0E7F8D9
:102D900020B16FF0010002B0BDE8F0876B896C686C
:102DA000132B06D8254B40F289322749254805F0D8
:102DB000A5FF9DF82C302772002763723368DFF877
:102DC00090902361452323709DF8283063702889F3
:102DD000FFF7F8F9A7716080E771B9F80000FFF715
:102DE000F1F9B9F80030A0800133A9F80030BAF148
:102DF000000F10D1154B1B68E360A772E772B8F89B
:102E00002030A3B12A899A4211D932464146284638
:102E100000F036FBBFE7DAF80030EDE76B89132BE3
:102E2000B7D96B6802AE1B6946F8043DE7E7D8F8EE
:102E300014303246294640469847ACE702AE0008B7
:102E400036AE00089FAA000842AE000870AE000827
:102E5000C6050020F0B4069C9DF810509DF8146043
:102E60001AB109B10F6807B9211D0694059604959A
:102E7000F0BCFFF775BF431E033311D891F829301A
:102E800013F002030ED04A6890420BD08B68424088
:102E90001A4207D1DB4383430CBF01200020704757
:102EA000012070470020704738B50C4B04460D4692
:102EB0001A68824207D102681A6021460420BDE8E0
:102EC000384000F041BE31B9054B40F2451205498A
:102ED000054805F013FF23682B60EEE7CC050020C2
:102EE0007DAF0008B6AF00089FAA000881422DE917
:102EF000F84F05460F4605D12F4BAB222F493048DE
:102F000005F0FCFE47B13B689D4205D02A4BAD223F
:102F10002C492B4805F0F2FE6E6873689A8892BBC4
:102F20001A6805F11C016A6005F1080252F8040BE9
:102F30008A4243F8040BF9D101213046FFF70FFE16
:102F4000304601F085F90446304601F03FF86E68DE
:102F5000DFF86480DFF87890DFF864A0AEB9284627
:102F6000194D3946FFF7A0FF2B88A34205D2124B1B
:102F7000D2221649124805F0C1FE2B8820461B1BA1
:102F80002B80BDE8F88F0024E1E773683046D3F862
:102F900000B001F05DF90444B4F5803F05DB434621
:102FA000CC224946504605F0A9FE3046A4B201F0B5
:102FB0000DF85E46D2E700BF7DAF0008CFAF000836
:102FC0009FAA0008DBAF0008C80500200AB000086F
:102FD000EDAF00082DE9F04106460F460025DFF869
:102FE00068800024D8F800302146A646204653B910
:102FF00010B1FFF77BFF0544BD4201DA012CF0DC84
:103000002846BDE8F081D6F80CC05A69624509D15E
:10301000D6F810C09A69624504D1B3F80CC0B288E2
:10302000944508D0013460B1C27F93F81FC0944525
:103030009CBF714618461A68002A18BF9E46134660
:10304000D5E771461846F6E7CC05002010B50446D2
:1030500030B9064B4FF431720549064805F04EFE73
:1030600021460520BDE8104000F06EBD7DAF000890
:10307000A5B600089FAA000810B5044630B9084B51
:1030800040F2CE220749084805F038FE606908B1D1
:1030900000F09CFF2046BDE81040FFF7D7BF00BFFF
:1030A0007DAF00082CB000089FAA000838B5084B77
:1030B0000024186800B938BDC37F056823B1013BFF
:1030C0000446C3772846F5E72146FFF70FFFF9E7E7
:1030D000CC0500202DE9F74F456880462B7803F09A
:1030E0000F03052B40F09980E888FFF76BF807463F
:1030F0006888FFF767F82B7803F00F039B0098426E
:10310000C0F08B80C01AB44C83B24046019301F0EA
:103110009FF82388824603440A2B75DCAF4E34683F
:10312000002C7FD1042000F0F3FC044658B951462E
:103130002846FFF74FFF82456FDC042000F0E8FCD3
:103140000446002869D020220021204605F0CEFD4B
:103150000F2304F1080205F11401E37733683460AA
:1031600023602B4653F8040B8B4242F8040BF9D131
:10317000B5F806B0C7F30C071BF0200B4FEAC707E2
:103180000AD1019BFB189BB29F4200F237814FF698
:10319000EB72934200F23281D8F804506888FFF74E
:1031A00011F82B7803F00F039B009842C0F02681A2
:1031B000C31AE88800251FFA83F9FFF703F8C0F364
:1031C0000C00D8F80460C000357009EB000375707E
:1031D000B5709BB2F570B0809842F38000F20E811A
:1031E000D4F804E04FF00109724652BB002D40F0C4
:1031F0009380BEF1000F7DD0794B40F2BF12794928
:10320000794805F07BFD75E001462846FFF7E2FEB0
:1032100018B1238853440A2B80DD404600F0D6FEC7
:103220000026D5E0EB6862699A4208D12B69A26951
:103230009A4204D1A289AB889A4200F0F3802468B4
:103240006EE7D2F804C0BCF80410884255D2326050
:10325000002D4CD0EA889042C0F0D0808B4200F222
:10326000CD809042C5F8008040F0FA80BBF1000F9D
:1032700004D0A37F13F0010300F0F080B9F1000F38
:103280005AD14FF00009544D2B889A44A5F800A05C
:10329000BBF1000F06D1019B1F44A37F43F0010344
:1032A000A783A377B9F1010FBAD1636804F11C01B8
:1032B000A08B5E6804F1080314303768324680B290
:1032C00053F804EB8B4242F804EBF9D1FEF77AFF96
:1032D00000237080B371F371B372F3726668002FCC
:1032E0004FD13E4B19688C425CD139465CE08B4231
:1032F00000F28480C4F80480B8E77FD0BCF80620D0
:1033000082427BD825B1EA888A4218BF4FF0000973
:10331000DCF80020654668E7EB88834206D9304B2D
:103320004FF4DB723149304805F0E8FCC5F8008005
:10333000EA88B3889A4297E76368002BA1D059685E
:103340008B88002B9DD133689BB9B14206D1244BA9
:1033500040F2E1122649244805F0D0FC3368002BE6
:1033600091D01F4B40F2E31222491F4805F0C6FCE2
:1033700089E75A68F0889388984282D11368164684
:10338000E2E7D7F804801421384600F0EBFD394617
:10339000304600F079FFD8F80070A0E70B689C4237
:1033A00002D019460029F9D12046FFF77DFD3046AD
:1033B00000F04EFF2B880446834206D2084B40F2B1
:1033C0009B220D49084805F099FC2888001B28809D
:1033D000304603B0BDE8F08FC8050020CC050020C2
:1033E0007DAF0008DCAE00089FAA0008BEAE000852
:1033F00013AF000820AF000842AF00086368002B3D
:103400007FF40BAF1A4B1B689C4206D0194B40F25D
:10341000AB221949194805F071FC00212046FFF73D
:1034200043FDFAE6E888FEF7CDFEC0F30C00002865
:103430007FF49EAEE089FEF7C5FEC0F30C000028C5
:103440003FF496AE2B4604F1080205F1140153F83F
:10345000040B8B4242F8040BF9D189E6994612E736
:10346000BBF1000F3FF40DAF4FF0000901E700BFC3
:10347000CC0500207DAF00085DAF00089FAA0008C2
:103480002DE9F04F0B8C8DB007468B460A92143B0A
:10349000082293FBF2F39BB2079343681D780393D2
:1034A00005F00F05AD00142D09D14389132B09D860
:1034B0005E4B4FF43F725E495E4805F01FFC6FF0B3
:1034C000050013E0039B0026D888FEF77BFEC0F3BF
:1034D0000C033C89059300F40053143C0893079BAC
:1034E000A4B2DB009BB209931CB920460DB0BDE825
:1034F000F08F099B4FF4207214210E20A34228BFA5
:103500002346069300F0C4FD8046002837D0438947
:10351000132B06D8454B40F225324749454805F064
:10352000EDFB039BD8F804201946143153F8040B23
:103530008B4242F8040BF9D1D8F80430DDF818902A
:103540000493B9F1000F40D07B895E1B9D42B6B257
:1035500006D9364B40F22D323849364805F0CEFBBD
:103560004E4528BF4E4616B93F680025E9E70520BD
:1035700000F0CEFA824628B9404600F027FD4FF011
:10358000FF30B3E7019641227B6831462B4400931C
:103590000346002000F0C8FC18B95046FFF756FD5E
:1035A000EAE70B90A9EB0609384600F059FE244BD8
:1035B0001FFA89F9CAF81470CAF8103040460B99FE
:1035C00000F062FEB9F1000FCED1059B3544C3F384
:1035D0000C00BBF82030ADB2133BA34201DD089BC9
:1035E0000BB140F40050FEF7EDFD049BD880069B24
:1035F00003F1140080B2FEF7E5FD049B049A4146F6
:103600005880002358469372D372DBF814300A9A1C
:103610009847404600F0DAFC069B079AE41A059B9F
:103620001344A4B29BB205935EE700BF7DAF0008D0
:1036300074AE00089FAA00088FAE0008AFAE000865
:10364000793000080B4B00210B4A23F00303136071
:103650004FF4C86259809818197108491A80086097
:103660000121A3F84026A3F84226054A83F8441610
:103670001360704777060020D4050020D80500208D
:10368000D00500202DE9F0410446002800F0998083
:10369000830708D04C4B40F273224C494C48BDE89C
:1036A000F04105F02BBB4B4AA0F10805136890468A
:1036B0009D4205D3484F00F10C023968914204D273
:1036C000414B40F27F224549E8E710F8042C22B92B
:1036D0003D4B4FF423724249E0E730F8086CB6F5F1
:1036E000C86F69D830F8060CB0F5C86F64D8EA1A0C
:1036F00092B2824202D0185A90425DD1334499422C
:1037000002D05B88934257D10023364E04F8043C24
:1037100033689D4200D235608D4206D32A4B4FF468
:10372000F07231492A4805F0E9FA14F8043C33B143
:10373000254B40F2E1122D49254805F0DFFA34F817
:10374000083CB3F5C86F06D91F4B4FF4F2722849F5
:103750001F4805F0D3FAD8F8003034F8081C5A187E
:10376000954212D0107980B9386882420DD0306805
:1037700082425A5A24F8082C5A5A08BF3560B2F5CA
:10378000C86F1EBFD218E91A518034F8062C991858
:103790008D4216D00879A0B93068854208BF3160E3
:1037A00034F8081C995234F8081CB1F5C86F08D0D9
:1037B0000B445A80BDE8F081034B40F295220D493D
:1037C0006CE7BDE8F08100BF38B0000867B00008C2
:1037D0009FAA0008D4050020D805002088B0000862
:1037E000A1B00008D0050020C7B00008E1B0000873
:1037F000FCB0000826B100082DE9F047CD1C0446B6
:1038000025F00305ADB20B2D04D9B5F5C86F02D96B
:10381000002478E00C25A942FAD83C4F3B68A3422B
:1038200003D83B4B1B689C4206D33A4B40F2D22252
:1038300039493A4805F062FAD7F800A0544562D3F6
:10384000334B1B689C425ED2A4F1080634F8088C06
:10385000A6EB0A06A8F10803B6B29B1B9BB2AB42CB
:1038600025D22C4B4FF439722D492C4805F046FADD
:10387000CEE705F114029A4245D806F10803B8F5DF
:10388000C86F1D44ADB206D1224B40F21632254915
:10389000224805F033FA24493B6808685A199042D7
:1038A00088BF0A600021117134F8081C21E02AD079
:1038B0000AEB080999F80420002ADAD1B8F5C86F94
:1038C00006D1144B40F2F5221649144805F016FAB9
:1038D000154A06F1080300203AF808101D44136841
:1038E0004B45ADB202BF3B685B1913603B685A1988
:1038F00010715953568024F8085C5A5BB2F5C86FB2
:1039000001D013445D802046BDE8F087D405002037
:10391000D805002038B00008F3B100089FAA0008BD
:103920000AB200082AB20008D00500202DE9F843A9
:1039300048B1C51C25F00305ADB20B2D05D9B5F571
:10394000C86F03D90020BDE8F8830C25A842F9D838
:103950003D49C5F5C8603D4B6FF007070A688946C9
:103960001E689846B61AB6B28642EBD29419915B9D
:103970002379002B65D1BB1B0B449D4261D805F117
:103980001402934257D305F108073744BFB2B7F585
:10399000C86F06D12E4B40F287322E492E4805F0D3
:1039A000ADF9D9F800300021DA1911712188D95305
:1039B0005680012227802271DA5BB2F5C86F01D0F0
:1039C00013445F80D8F80030244EA34213D13168ED
:1039D0002346D9F800001A790AB18B422ED18B42C6
:1039E000C8F8003007D032B1194B40F2B5321C494B
:1039F000194805F083F9083533682544AB4206D2EF
:103A0000134B40F2BA321749134805F077F9A30770
:103A10000DD00F4B4FF46F7213490F4805F06EF93C
:103A20000B4B40F2BE3211490B4805F067F904F127
:103A30000800BDE8F88301232371C3E71B88034412
:103A4000C9E70E4690E700BFD4050020D00500204E
:103A500038B000082AB200089FAA0008D805002044
:103A600058B1000871B10008A1B10008D0B1000838
:103A700010B5046854B123680360A30706D0044B53
:103A800040F219120349044805F038F9204610BDE8
:103A90005BB200088BB200089FAA000838B58B07FC
:103AA00005460C4606D0064B40F26D120549064805
:103AB00005F024F92B681A6822601C6038BD00BF2D
:103AC0005BB200083BB200089FAA000843680022CE
:103AD0008168033330B523F0030344880A60A242AF
:103AE00000DB30BD0D6801321D6005880B602B4482
:103AF000F5E7000038B50024044D55F824000134E2
:103B0000FFF7E4FF092CF8D138BD00BF54B300081B
:103B1000082808B507D8084B53F820309868BDE846
:103B20000840FFF7A5BF054B40F25712044905486E
:103B300005F0E4F8002008BD54B300085BB20008AB
:103B400037B300089FAA0008082806D9074B4FF48E
:103B5000D5720749074805F0D1B829B1064B53F88B
:103B600020000830FFF79ABF704700BF5BB2000823
:103B70001CB300089FAA000854B300086FF00B00A4
:103B80007047000038B50D46044630B90C4B40F282
:103B90006D320C490C4805F0B1F894F8293003F067
:103BA0000502052A0BD1EA0709D562683AB11B075D
:103BB00005D5211D2046BDE83840FEF705BD38BDBE
:103BC00005B4000836B400089FAA0008F7B50646F9
:103BD00014460F4631B9154B40F2CB121449154823
:103BE00005F08CF834B9114B4FF4E67210491148C6
:103BF00005F084F873683A689A4214D002AD2360E5
:103C0000204645F8042D294601F060F82946204653
:103C100004F00CFB3B68304601217360FFF7B2FFF4
:103C2000012003B0F0BD0020FBE700BF05B4000891
:103C3000F5B300089FAA000870470000F7B5144DBF
:103C40000446002914BF0E462E46002A14BF17460C
:103C50002F46002B18BF1D46336893B100233A68E6
:103C6000A1688A42E16818BFA2602A688A4218BF28
:103C7000E26023B901AA31462046FFF7A7FF03B04F
:103C8000F0BD01AA3146FFF7A1FF0123E7E700BF1E
:103C900070AE00082DE9F84F9C460B9F044648B9CA
:103CA0003D4B40F227123D493D4805F027F820469C
:103CB000BDE8F88F47B9384B4FF4947239493C4608
:103CC000374805F01BF8F2E70A9B0025DFF8E4E02F
:103CD000DFF8E480344EC0F814E0C361AA4208BFA4
:103CE000324698F800E0A94208BF31460C9B80F8A4
:103CF0002CE00361AC4514BF63463346456046463D
:103D00008560C560058480F82950FFF797FF20463D
:103D1000B84700283ED1DFF8A490DFF87CA0C84661
:103D200094F82C300027D9F80050FF2BDFF870B042
:103D300004BF002384F82C3055B994F82C30FE2BA6
:103D400025D13570D8F800302360C8F80040AEE7C0
:103D5000A54206D1534640F28B121449584604F04E
:103D6000CDFF0137FF2F06DD534640F28D1210497B
:103D7000584604F0C3FF95F82C2094F82C30934259
:103D800003D1013384F82C30CAE72D68D4E701331E
:103D90003370D7E72C468AE705B4000878B30008EB
:103DA0009FAA000891B3000870AE0008B3B30008E2
:103DB000C7B300087D3B000800060020883B0020B8
:103DC000014B1860704700BF8C3B002030B9094B95
:103DD0004FF454720849094804F090BF90F8293014
:103DE000D90706D443F00103032180F82930FFF7F7
:103DF000C9BE704705B4000877B400089FAA000840
:103E000030B90A4B40F29B3209490A4804F076BFA8
:103E100090F82930D90707D523F001011B0780F856
:103E2000291001D5FEF71EBB704700BF05B400087E
:103E300059B400089FAA000850B1064B1B682BB16B
:103E400093F82C200132D2B29042F7D11846704735
:103E50000346FBE7883B002038B568B9144B40F2B5
:103E6000DF121449144804F049FF012038BD002A2C
:103E7000FBD04268511A13E0B1F5803FF5D2A1B1F1
:103E80008CB2038923449BB29C42EED890F90C502B
:103E9000002DECDA4268511A00F110029142E4D38D
:103EA00042894160144403814481002038BD00BF31
:103EB00093B40008A5B600089FAA0008064B00228C
:103EC0001A70064B186800B97047436F0BB100F0C9
:103ED000A3BDC068F7E700BF903B0020983B0020DF
:103EE00022F04003012B70B506460D46144606D05D
:103EF0000A4B4FF4A5720A490A4804F0FFFE072056
:103F0000FFF706FE48B100230122058145810473B5
:103F100043738273C37380E8480070BD93B4000894
:103F2000DEB400089FAA0008033020F0030070B53B
:103F30000E18BDF81450049CAE420ED804B10444CF
:103F4000184600230273022201814273012241813B
:103F50008273C37380E8180070BD002070BD00221A
:103F6000FFF77ABF10B590B9104B40F24B221049C1
:103F7000104804F0C3FE012010BD9B1A4468438121
:103F80002144038941609B1A0381002010BDB1F5D3
:103F9000803FF0D20029F8D08AB243899A42ECD906
:103FA000024B40F255220449E2E700BF93B40008F7
:103FB000A5B600089FAA0008F5B600080B1E02DA95
:103FC0005942FFF7CFBF0122FFF746BF2DE9F84363
:103FD000044648B30025284EDFF8B090274F5FFA1B
:103FE00085F84CB3A37B33B9334640F2F1224946FE
:103FF000384604F083FEA37B013BDBB2A373DBB93D
:10400000637BD4F800809B0719D5236933B9334605
:1040100040F2FF221A49384604F070FE2369204618
:10402000984701354446DAE7A046134B4FF4377200
:104030001449124804F062FE4046BDE8F883237B31
:1040400003F00F03022B04D121460820FFF77CFD6B
:10405000E7E7012B02D121460720F7E71BB92046ED
:10406000FFF710FBDDE7334640F20F3206493846D2
:1040700004F044FED5E700BF93B400089FAA0008EF
:1040800064B60008A5B6000885B600084EB600085C
:10409000412A2DE9F04706460F4685B234D009D8AB
:1040A000012A31D03A4B40F227123A493A4804F0FB
:1040B00025FE3EE0B2F5C17F2CD0B2F5207FF1D1D4
:1040C0000335CB1C25F0030523F003031D44ADB2DB
:1040D00005F110009D4280B22BD3834229D8FFF70F
:1040E00025FC044600284DD0064480220023078189
:1040F000133602730122036026F0030647814373DF
:1041000046608273C3733DE039460020BDE8F04746
:10411000FFF7E6BE4FF0000A4FF082095446D04642
:104120000820FFF7F5FC064648B901221B4B1A7020
:104130000CB9002426E02046FFF748FFF9E7EB1C06
:1041400005440122C0F8008023F0030313350781E2
:10415000C3F5147325F0030580F80C909BB24560FD
:1041600080F80D80BB42827380F80F8028BF3B46E9
:10417000438154B1CAF80000FB1A0025B2469FB231
:10418000002FCDD12046BDE8F0870446F4E700BFFC
:1041900093B40008C3B400089FAA0008903B002015
:1041A0002DE9F8430D46044630B9244B4FF4CC7248
:1041B0002349244804F0A2FD2389AB423BD95B1B71
:1041C0001E4FDFF888809EB2DFF8789063899D42A9
:1041D00019D8227B120726D19D4224D0637B9B07EE
:1041E00021D461682046091B294489B2FFF704FBEA
:1041F0000446C0B9114B40F2BD121349114804F0F6
:104200007DFD6481FFDEED1A23899B1BADB2238106
:104210002468002CDAD13B4640F2AF1241464846B2
:1042200004F06CFDD2E720686581258108B1FFF7B5
:10423000CDFE00232360BDE8F88300BF93B40008DF
:1042400097B600089FAA0008C7B60008AFB60008D6
:104250000346002290B2013203B970471B68F9E7A8
:1042600058B1837B0133DBB2837333B9034B40F224
:1042700042320349034804F041BD704793B400083B
:10428000E3B600089FAA000870B50D46044600B1C9
:1042900069B9154B40F25A3214491548BDE87040CF
:1042A00004F02CBD238929890B44238114462268FC
:1042B000002AF7D1228963899A4206D00A4B40F23C
:1042C00062320C490A4804F019FD236833B1064BE9
:1042D00040F263320849064804F010FD2A89238918
:1042E00025601344238170BD93B40008F0B4000826
:1042F0009FAA000825B5000852B500082DE9F84F1F
:104300000C46054620B119B102890B899A420AD29E
:10431000364B40F2CA323649364804F0EFFC6FF0B3
:104320000F00BDE8F88F0026DFF8C090DFF8D4B0AA
:104330003746DFF8C0A0B5F80A806389A8EB070804
:1043400068689B1B616838449845314428BF98468B
:104350004246474404F0BFFC6B8946449F4206D95D
:104360004B4640F2D9325946504604F0C7FC6389A7
:104370009E4206D94B4640F2DA321F49504604F0BD
:10438000BDFC63899E426B8924BF246800269F423E
:104390001ED12D68DDB9BCB1144B4FF479721749A9
:1043A000BAE7628923899A4214D1236893B10F4BEB
:1043B00040F2EA3212490F4804F0A0FC6FF0050009
:1043C000BDE8F88F002CB6D12046BDE8F88F002755
:1043D000002CE6D16A892B899A42F3D12B68002BF5
:1043E000F0D0024B40F2EF32E4E700BF93B4000894
:1043F00073B500089FAA0008BAB50008D5B5000833
:10440000E2B50008A3B500082DE9F0410F4690463B
:10441000064650B935461B4B40F20A421A491B4822
:1044200004F06CFC2846BDE8F08169B10025B8F1C4
:10443000000FF7D0002EF5D07BB171898B420CD3E1
:104440005B1A9BB23668F2E70E4B40F20B42104902
:104450003D460E4804F052FCE4E77489781971680F
:10446000E41A1944A4B2444528BF444622462544D0
:10447000A8EB040404F02FFCADB200231FFA84F86B
:10448000E0E700BF93B400080CB600089FAA00083C
:104490002BB6000838B514460A462189FFF7F8FD07
:1044A000054650B12146FFF729FF30B1044B40F2D9
:1044B00024520449044804F021FC284638BD00BFBA
:1044C00093B4000862B500089FAA0008114A4FF48F
:1044D0008043F0B510884FF6FF750F4E0130002174
:1044E00080B2A84208BF4FF4404056F821402468EB
:1044F00024B901310429F8D11080F0BDE78A874240
:1045000006D1013B9BB2002BE8D110801846F0BDCC
:10451000E468EDE70C00002088B9000810B50446F7
:1045200030B9134B4FF4CE721249134804F0E6FB36
:10453000237D042B03D0072B0CD0032B08D120465E
:1045400003F0E2F888B905232375204603F03EFA0C
:10455000002010BD204603F0D7F830B90923F3E757
:10456000638B43F008036383F2E7431CF8D010BD6C
:104570002EB800085DB800089FAA000808B504F02E
:10458000D5FB6FEA8040024B6FEA9040188008BD6F
:104590000C000020037D012B10B5044605D1064B0D
:1045A000D4220649064804F0A9FB21460120BDE8B3
:1045B0001040FFF7C9BA00BF2EB80008B6B800080F
:1045C0009FAA0008F8B5234D0446002918BF0D46E0
:1045D00048B9214B40F2A9222049214804F08EFB22
:1045E0006FF00F00F8BD037D4BB11B4B40F2AB22C7
:1045F0001C491B4804F082FB6FF00500F8BD32B97E
:10460000FFF764FF024650B96FF00100F8BD164F86
:1046100057F82310086870B90133042BF8D12B68C0
:1046200003B12360114BE2821A681C60E26003F060
:10463000A3FC0020F8BDC18A914205D106682EB1C5
:10464000296819B18E4201D0C068E4E76FF0070015
:10465000F8BD00BF70AE00082EB8000887B700088C
:104660009FAA00089DB7000888B90008A43B002055
:10467000F8B51646054668B9294B40F25932294922
:10468000294804F03BFB6FF00F03002406B13370A0
:104690002046F8BD077D4FB1214B40F25A322349E5
:1046A000214804F02BFB6FF00E03EEE70220FFF72A
:1046B0002FFA044600282FD02B6901220361EB8AD0
:1046C0000275C3826A7D42756A7A07724272EA7A1B
:1046D000C272AA7A82722A6802603BB1144A1368D5
:1046E0009D4211D1EB6813600023EB602846FFF771
:1046F00051FF104BA361104B1A681C60E26003F07D
:104700003BFC0023C2E71346002BEDD0DA6895424C
:10471000F9D1EA68DA60E7E74FF0FF33B6E700BFA8
:104720002EB80008D5B800089FAA000802B90008F2
:10473000A43B0020654C0008A03B00200022FFF7AE
:1047400097BF000038B5044630B9154B40F2A63289
:104750001449154804F0D2FA218DE36A628E656A25
:10476000C81AB2F5866F284494BF821AA0F58662F3
:10477000002A01DB618538BDEA1A002A02DD00202B
:10478000608538BD5D1BB5F5803F06D3044B40F214
:10479000B6320649044804F0B1FA6585002038BDF8
:1047A0002EB800082BBD00089FAA00084FBD0008C6
:1047B00070B50D46044640B9174B40F2CF32174949
:1047C0001748BDE8704004F099BA037D012B06D16B
:1047D000114B40F2D3321349114804F08FFA238D64
:1047E000591989B2B1F5066F01D88B4211D94FF42E
:1047F000066323852046FFF7A5FFB0F5067F0AD3A1
:10480000638B204643F002036383BDE8704003F0EE
:10481000DDB82185EEE770BD2EB80008DABA0008D1
:104820009FAA0008F2BA000810B5044648B14068D3
:1048300008B1FFF7CBFB21460320BDE81040FFF78E
:1048400083B910BD10B500B910BD0468FFF7ECFFC7
:104850002046F8E730B9044B4FF4CE6203490448D0
:1048600004F04CBA417570472EB8000859BB0008D7
:104870009FAA000838B5044630B90D4B40F2826259
:104880000C490D4804F03AFA0320FFF741F90546B8
:1048900060B120462B4604F1100250F8041B9042F0
:1048A00043F8041BF9D16868FFF7DAFC284638BDE5
:1048B0002EB8000818BB00089FAA000800B10161CB
:1048C0007047000038B50D46044658B1037D012BF2
:1048D00006D1054B40F2DF720449054804F00EFA98
:1048E000C4F8845038BD00BF2EB8000898BA00083C
:1048F0009FAA000838B50D46044658B1037D012B28
:1049000006D1054B40F2F3720449054804F0F6F96C
:10491000C4F8805038BD00BF2EB8000832BB000874
:104920009FAA000838B50D46044658B1037D012BF7
:1049300006D1054B40F60D020449054804F0DEF9A6
:10494000C4F8905038BD00BF2EB8000890B80008D9
:104950009FAA000818B1037D012B08BF8161704731
:1049600070B50E461546044640B90B4B40F63D0265
:104970000A490B48BDE8704004F0C0B9037D012B23
:1049800006D1054B40F63E020649054804F0B6F94B
:10499000C4F88C60657770BD2EB800083EBA000878
:1049A0009FAA000854BA000808B530B9064B40F673
:1049B000AF020649064804F0A1F9064B064A1868FA
:1049C00012681044186008BD2EB800086DB90008C0
:1049D0009FAA0008080000209C3B002038B5044630
:1049E0000D4632B9094B40F6C5020949094804F0A1
:1049F00085F94DB12B8C3BB1282B8ABF283B002376
:104A00009BB29C4228BF1C46204638BD2EB80008E9
:104A100069B800089FAA000810B50446406F18B195
:104A2000FFF710FF0023636710BD000010B50446B8
:104A300040B9144B40F6510213491448BDE81040E8
:104A400004F05CB9037D012B1AD90A2B18D0806FB2
:104A500018B1FFF7BBFA0023A367636F13B12046B9
:104A6000FFF7DAFF4FF6FF73E06E2386FFF7EAFEEB
:104A7000206FFFF7E7FE0023E3662367A4F86830A2
:104A800010BD00BF2EB8000898B900089FAA000802
:104A900038B505460C4631B9284B40F68302284903
:104AA000284804F02BF935B9244B40F684022649F6
:104AB000244804F023F92B689C4237D1E3682B602B
:104AC00000232046E360FFF7B1FF237D0A2B0AD0C5
:104AD000012B08D0638BDA0705D543F0020320468B
:104AE000638302F073FF237D012B1AD0E36E33B191
:104AF000124B40F693021549124804F0FFF8236F59
:104B000033B10E4B40F6940211490E4804F0F6F80A
:104B1000636F33B1094B40F696020E49094804F021
:104B2000EDF800232375E38238BD1346002BC7D070
:104B3000DA689442F9D1E268DA60C1E72EB8000879
:104B4000B3B900089FAA0008CFB90008EFB9000860
:104B500007BA000820BA00082DE9FF470E460446B0
:104B600048B9364B40F23D223549364804B0BDE8DD
:104B7000F04704F0C3B8037D012B06D12F4B40F260
:104B8000412231492F4804F0B9F8237D0A2B09D17D
:104B900021462E48FFF77CFF204604B0BDE8F047D1
:104BA000FFF7F8BCD4F85090D4F824A0D4F8907053
:104BB000D4F81080E58A9BB93DB1254A13689C4220
:104BC00006D1E36813600025E5602E460FE013462A
:104BD000002BF8D0DA689442F9D1E268DA60F2E7A3
:104BE00021461C48FFF754FF01221B4B1A70206F0F
:104BF00008B1FFF727FEE06E08B1FFF723FE606FF4
:104C000008B1FFF71FFE56B1238B52460195494666
:104C10000293231D20460093234602F061FE2046A6
:104C2000FFF7B8FC3FB16FF00C0140463B4604B0C3
:104C3000BDE8F047184704B0BDE8F0872EB800087B
:104C400013B700089FAA00082CB70008A83B002053
:104C5000A43B0020983B0020943B00200121FFF75B
:104C60007BBF000010B50C4631B9064B40F20F3245
:104C70000549064804F042F82046FFF7EFFF6FF0C1
:104C80000C0010BD2EB800085DB700089FAA0008F0
:104C900070B50C46054630B9094B4FF4106209490E
:104CA000094804F02BF804B970BD22682B68E66847
:104CB0009A4202D12046FFF7D1FF3446F3E700BF06
:104CC0002EB8000839B900089FAA000838B50D466B
:104CD000044680B1036873B10B4B1968FFF7D8FF26
:104CE0000A4B20461968FFF7D3FF25B12B6813B193
:104CF000074B1B6803B938BD19682268914204BF8D
:104D00002A681A60DB68F5E7983B0020A43B002086
:104D1000A03B002038B5A0F108030446012B06D9BA
:104D20000F4B40F2DD620F490F4803F0E7FF0F4BD6
:104D30000022196810460E4B1D6821B970B1BDE8FC
:104D40003840FFF709BF0B7DA34205D10B6AEB1A70
:104D50009A429CBF1A460846C968EEE738BD00BFB4
:104D60002EB80008C7B800089FAA0008983B00208A
:104D70009C3B0020F8B505460120FEF7C9FE04461D
:104D8000002836D1434F386800285FD1424B014696
:104D9000424E1B683468002B63D108B1FFF75EFFF9
:104DA0000120FEF7B5FE044618BB0920FFF7B2FF4D
:104DB0000120FEF7ADFE0446D8B90820FFF7AAFF90
:104DC0000120FEF7A5FE044698B92B0651D45DB12B
:104DD0002A46013A3B6836680021D2B2002B4AD1FC
:104DE00014B12046FFF73AFF0120FEF791FE04467A
:104DF00050B39C220021204603F078FF4FF4066256
:104E00004FF48663657562852285FF22A4F86430BD
:104E1000E2724FF40672A4F84A3062860622204BF2
:104E2000A4F84020E2874FF6FF72C4F8843022864F
:104E300001221C4BA4F84820184AC4F89430126888
:104E40002262194A1278A2772046F8BD438BC468C3
:104E50001A0704D523F008034383FFF75FFB2046BE
:104E600092E71A6AA21A8A4224BF18461146DB68E2
:104E700091E77F22ADE75F7D974204D307D1186A9F
:104E8000301A884203D3196A3A461C46711ADB6805
:104E9000A4E700BF983B0020A83B00209C3B0020DB
:104EA0005150000800DD6D00020600204020FFF791
:104EB00061BF000030B50D4685B0044630B94A4B9D
:104EC0004FF4AF7249494A4803F018FF237D002D83
:104ED0003FD0042B01D0072B3BD1A26F1AB9228DF2
:104EE000B2F5066F35D0638BDB0606D43E4B4FF42C
:104EF000B27240493E4803F001FF238B20460293E3
:104F0000E38A0193231D00932346626A216D02F018
:104F1000E7FC2046FFF78AFD374A13689C4210D110
:104F2000E368136000230122E360344B1A70344BB2
:104F30001B689C4222D101F045FE002005B030BD27
:104F40001346002BEED0DA689442F9D1E268DA60B9
:104F5000E8E7012B1FD007D3022B3DD0204605B038
:104F6000BDE83040FFF7DABAE38A3BB1254A13685F
:104F70009C4208D1E36813600023E3602046FFF7FA
:104F800009FBDAE71346002BF6D0DA689442F9D130
:104F9000E268DA60F0E71C49002051F8232012682B
:104FA000A2B90133042BF8D121461848FFF770FD50
:104FB000237D012B05D10C4BDF2215490C4803F052
:104FC0009DFE21460220FEF7BFFDB6E7D56FAC423D
:104FD00008BFD067D268E3E721460748FFF758FDCE
:104FE0000122064B1A70C9E72EB80008DCB700088A
:104FF0009FAA0008FCB70008983B0020943B0020C3
:10500000AC3B0020A43B002088B90008A03B002056
:1050100015B8000808B558B1037D0121012B1EBF4A
:10502000438B43F010034383BDE80840FFF742BFC2
:10503000044B4FF4F4720449044803F05FFE6FF030
:105040000F0008BD2EB80008C5B700089FAA0008C9
:1050500010B50846144649B90C4B4FF4D3620C49BD
:105060000C4803F04BFE6FF00F0010BD3AB11189F0
:10507000FFF79EFB2046FEF7A9FF002010BD002B86
:10508000FBD1BDE81040FFF7C5BF00BF2EB8000838
:10509000BFBA00089FAA0008F8B5044650B96FF0DF
:1050A0000F051D4B40F209621C491D4803F026FE06
:1050B0002846F8BD866F0023D0F88450777B83673D
:1050C000DDB1014632460069A8470546E0B9BB0696
:1050D000EED5238DD4F88460B3F5066F1CBF013381
:1050E0002385002EE4D00023214620691A46B047CC
:1050F0000D30DDD16FF00C05DAE701462B46324664
:105100002846FFF7A5FFE0E710F10D05F2D0A667EE
:105110006FF00405CCE700BF2EB8000872BA000893
:105120009FAA00082DE9F8431B4D1C4F2B781C4EFD
:1051300001332B703C684FF000080CB9BDE8F883D0
:105140002B78A27F9A4224D0A377638BD90709D505
:1051500043F002032046638302F038FC638B23F0A4
:1051600003036383638B1A0705D523F008032046E6
:105170006383FFF7D3F9A36FD4F80C903BB12046BB
:1051800086F80080FFF788FF3378002BD2D14C4699
:10519000D3E7D4F80C90FAE702060020983B0020F1
:1051A000943B00202DE9F04F954E87B0DFF884A2A4
:1051B000336801333360934B1A78049301321A70C9
:1051C000914B4FF00009914F1C6898466CB9904F75
:1051D000DFF838823D68DFF860A2DFF83C92002DEE
:1051E00040F0C68107B0BDE8F08F237D33B93B4660
:1051F00040F2BE428749884803F080FD237D012BA1
:1052000006D13B4640F2BF428449834803F076FD15
:10521000237D0A2B06D13B464FF4986280497E4895
:1052200003F06CFD049BA27F1B789A4203D1E568D2
:10523000A1462C46CAE7A377237D94F84220022B8F
:1052400002D1052A00F2CB810B2A30D894F899B00C
:10525000BBF1000F00F0F280236F33B13B4640F208
:10526000D44270496C4803F049FDE36E33B93B46C4
:1052700040F2D5426C49684803F040FD94F89A30FA
:105280000B2B14D894F89920684B134413F8012C75
:1052900094F898309A4284BF013384F8983094F897
:1052A0009830934280F08A804FF0000B01E04FF07D
:1052B000010B237D062B0BD1628BD20608D53268F9
:1052C000216A521A282A84BF0BF1010B5FFA8BFB6B
:1052D000657A15F0080519D0042B02D0072B40F091
:1052E0000F81D4F894504FF4FA70316805F52422F8
:1052F000236A02F6B842C91AB2FBF0F2914240F2B8
:10530000ED800BF1010B01255FFA8BFB636F63B13D
:105310003368226A9A1AB4F9403003EB4303B2EBC4
:10532000430F02D32046FFF777FB237D032B40F08A
:10533000E9803368226A9B1A282B03D8BBF1000F3F
:1053400000F0F5802046D4F890B0FFF76FFBD8F856
:105350000030B9F1000F00F0DD809C4206D13B46E1
:1053600040F26D5232492C4803F0C8FCE368C9F89A
:105370000C305DB1238B20460293E38A0193231DF9
:1053800000932346626A216D02F0AAFA236920463F
:10539000E5680593FFF7FEF800228AF80020BBF1CC
:1053A000000F04D0059B6FF00C011846D8479AF8FF
:1053B0000030002B7FF404AF4C4639E7B4F860109E
:1053C000204689B902F00AFD00287FF46DAF94F8F9
:1053D00099304FF0000B062B84F898B03FF664AF7D
:1053E000013384F8993064E702F02AF80028EED1FE
:1053F000204602F0EBFA00283FF456AFE7E700BF83
:105400009C3B002002060020983B00202EB800089C
:10541000A83B002072BB00089FAA00089CBB0008A4
:10542000C6BB0008F3BB000825BC000837BA00085B
:105430005ABC0008943B0020AFBC0008B4F93030DF
:10544000002B05DB47F6FF7293421CBF0133238616
:10545000B4F93020B4F940309A42FFF625AF204627
:1054600002F082F938B1236F002B7FF41DAFE36E99
:10547000002B3FF419AF237D022B14D0B4F93C204C
:10548000B4F93E30574903EBE20394F842200C2A6A
:1054900028BF0C228A5C934047F6FF729342A8BF54
:1054A0001346A4F84030B4F848200021B4F8603026
:1054B000608E93422186A4F8480028BF134642001C
:1054C000A4F86A1020465B0892B2A4F84A309342CE
:1054D00038BFA4F84A2002F023FCEAE694F89B3097
:1054E000414A02FB0353B3FBF0F3994208D920462B
:1054F00002F04CFC20B994F89B30013384F89B30C7
:10550000002503E7092B7FF419AF3368226A9B1A41
:10551000F02B12E79C4206D03B4640F271523349D1
:10552000334803F0EBFBE368C8F8003021E7237F42
:10553000627F0133E568DBB29A4223773FF678AEAB
:10554000D4F88C3084F81CB08AF800B073B12146CE
:10555000206998479AF80030002B7FF431AE00287C
:105560007FF466AE204602F031FA61E65846F1E774
:105570002B7D0A2B06D0434640F2A15251464846A5
:1055800003F0BCFB33682A6A9B1AF02B15D82C4613
:10559000ED6824E63B689D4206D1434640F2AF5297
:1055A0001449484603F0AAFBEB68E360D5F80CB059
:1055B0002846FEF7EFFF5D4611E62846FFF736FA6C
:1055C000002CE7D13B689D4206D0434640F2B352DF
:1055D0000949484603F092FBEB683B60E6E74FF071
:1055E000010B75E67AB70008F824010085BC0008B5
:1055F0009FAA0008DEBC000805BD000808B5FFF73B
:1056000091FD064A13780133DBB21370DB0703D533
:10561000BDE80840FFF7C6BD08BD00BF0106002079
:10562000094A1388591C1180084A12681AB108499E
:1056300009888B4204D2074A12681344187D7047C8
:105640005B1ADBB2D05C70472C06002038060020C5
:1056500034060020300600202DE9F0410C460546B6
:1056600030B91F4B40F21F421E491F4803F046FB52
:10567000EB689889FCF7A6FDC20715D41B4EBCB198
:10568000E76830682B897968228903440A449A1AAA
:10569000002A10DA5B1A002B0ADD091A686889B241
:1056A0002981FEF77DFD03E020460024FFF7CAF8BC
:1056B0002C60BDE8F081B889FCF784FDC30709D5EB
:1056C000D5F80C800120B8F80C70FCF77BFD38434E
:1056D000A8F80C0027682046FFF7A6F83C46CEE75E
:1056E000A4BF0008D6BF00089FAA00082806002013
:1056F000F8B5074630B91D4B40F27D721C491D4874
:1057000003F0FCFA1C4E338833B11C4D00232B8070
:1057100034882B88A34200D3F8BDFFF781FF01280E
:10572000F6D0F9D3022817D1FFF77AFF0428F3D176
:105730002B880133A342EFDAFFF772FF000284B235
:10574000FFF76EFF204380B2431EB3F5067F28BFEC
:105750004FF406707886DBE7FFF762FF0128DBD99C
:105760002B88023B18442880D2E700BFA4BF000862
:10577000FBBF00089FAA00083C0600202C06002062
:1057800010B5044630B90F4B40F25A220E490F486B
:1057900003F0B4FA0E4B187810F0100011D0638BA0
:1057A000DB0606D4D4F890301BB16FF00E012069EF
:1057B000984721460748FFF76BF92046FEF7EAFEB7
:1057C000012010BDA4BF00087FBF00089FAA0008E9
:1057D00024060020983B00202DE9F84F0646174686
:1057E0000C46DFF89C90DFF89C80DFF89CA0ACB101
:1057F000E3685868FCF7E9FCE368834625899889E3
:10580000FCF7E0FCD9F8003010F00300A5EB03052D
:1058100018BF01205D440544002D02DD2046BDE88F
:10582000F88F60682568FEF713FD3388834683424E
:1058300006D2434640F2574251460E4803F05EFA04
:1058400030880D4AA0EB0B00118830802046238958
:105850000B441380FEF7E8FF33884BB145B93FB9DD
:105860003D46434640F262420449024803F046FA8C
:105870002C46BCE79FAA00081C06002091BD00082A
:1058800004060020A4BF000869BD00082DE9F84FF8
:10589000044630B93A4B40F27B423A493A4803F069
:1058A0002DFA237D032B06D8354B40F27C42374935
:1058B000354803F023FA364B364E1B78364F13F03B
:1058C000100F00F09580626D3368B4F86010D51A3F
:1058D000A06D002D314D0DDB9A4203D12A68821A4A
:1058E000002A07DB2A68904212D12D4A1268D28919
:1058F0008A420DD92A4AB4F862E01268D2896365F7
:1059000096452B68A4F8602038BFA4F86220A365F0
:105910002A68D4F844E0A2EB0E03002B00F3808148
:105920003B88002B40F0D1830144B4F86030A06D77
:105930000344994240F0C983B4F93030002BC0F2DF
:10594000C483724540F0C18394F84320531CDBB2FA
:105950009A4238BF84F8433094F84330032B21D95E
:10596000B4F84820638E13449BB29A4288BF4FF626
:10597000FF73A4F84830204601F07AFF13E000BF1F
:10598000A4BF000815C000089FAA00082EC0000888
:1059900008060020280600203E06002004060020FD
:1059A00030060020E7D0626B12B3A36B29685B1A44
:1059B000002B1DDA914BB4F93C001968891AB4F92F
:1059C0003E20A1EBE001A2EBA20289B20BB2084497
:1059D000002B00B2B8BF4942A087B8BF0BB2134436
:1059E0009BB2E38703EBE003A4F84030002363633A
:1059F0003888626A002800F05C83237D062B00F261
:105A000058833368D51A012D00F1A581C3F1010136
:105A1000091A1144002900F39E81794BD3F80490B0
:105A20009846B9F1000F06D1764B40F29452764970
:105A3000764803F063F94FF6FE739D4206D9714B29
:105A400040F295527249714803F058F9D8F8043081
:105A5000ADB21B89AB4206D26A4B40F297526D49F8
:105A60006A4803F04BF9B8F8083000215B1BA8F82E
:105A70000830D8F804301B895B1B9BB2B9F80A20A8
:105A8000954200F25F8129464846FEF76BFA636A49
:105A9000D8F80C20336053603368626A991A002981
:105AA000C0F23282581C258D811A491B002900F34F
:105AB0002B82934240F02282514DEB68B5F808806A
:105AC0009889FCF77FFB10F00300238D18BF01209D
:105AD000404480B28342388041D2EB689889FCF719
