:020000040800F2
:1000000000800120892D0008C92C0008CB2C000895
:10001000CD2C0008CF2C0008D12C000800000000D7
:10002000000000000000000000000000D32C0008C9
:10003000D52C000800000000D72C0008D92C00089F
:10004000D92D0008D92D0008D92D0008D92D000878
:10005000D92D0008D92D0008D92D0008D92D000868
:10006000D92D0008D92D0008D92D0008D92D000858
:10007000D92D0008D92D0008D92D0008D92D000848
:10008000D92D0008D92D0008D92D00080000000046
:10009000000000000000000000000000D92D000852
:1000A000D92D0008D92D0008D92D0008D92D000818
:1000B000DD2C0008E92C0008D92D0008D92D0008F6
:1000C000D92D0008D92D0008D92D0008D92D0008F8
:1000D000D92D0008D92D0008D92D000800000000F6
:1000E000D92D0008D92D0008D92D000800000000E6
:1000F000000000000000000000000000D92D0008F2
:1001000000000000D92D0008D92D0008D92D0008C5
:1001100000000000000000000000000000000000DF
:10012000D92D0008D92D0008D92D0008D92D000897
:10013000D92D0008000000000000000000000000B1
:10014000000000000000000000000000D92D0008A1
:10015000D92D0008D92D0008D92D0008D92D000867
:10016000D92D0008D92D0008000000000000000073
:10017000000000000000000000000000000000007F
:1001800000000000D92D0008000000000000000061
:04019000D92D00085D
:1001A00010B5054C237833B9044B13B10448AFF3B1
:1001B00000800123237010BDE0010020000000003A
:1001C000E474000808B5034B1BB103490348AFF3BF
:1001D000008008BD00000000E4010020E474000875
:1001E000034613F8012B002AFBD1181A0138704777
:1001F00001F0FF01102A2BDB10F0070F08D010F8D8
:10020000013B013A8B422DD010F0070F42B3F6D1DB
:10021000F0B441EA012141EA014122F007047FF0F4
:1002200000070023F0E80256083C85EA010586EA4B
:10023000010685FA47F5A3FA87F586FA47F6A5FA87
:1002400087F68EB9EED1F0BC01F0FF0102F0070293
:1002500032B110F8013B013A83EA010313B1F8D13E
:100260000020704701387047002D06BF354603381F
:10027000073815F0010F07D1013015F4807F02BF58
:10028000013015F4C03F0130F0BC0138704700BFA9
:1002900081F0004102E000BF83F0004330B54FEA37
:1002A00041044FEA430594EA050F08BF90EA020FA4
:1002B0001FBF54EA000C55EA020C7FEA645C7FEA37
:1002C000655C00F0E2804FEA5454D4EB5555B8BF5A
:1002D0006D420CDD2C4480EA020281EA030382EACB
:1002E000000083EA010180EA020281EA0303362D5D
:1002F00088BF30BD11F0004F4FEA01314FF4801C30
:100300004CEA113102D0404261EB410113F0004F41
:100310004FEA03334CEA133302D0524263EB4303F8
:1003200094EA050F00F0A780A4F10104D5F1200E96
:100330000DDB02FA0EFC22FA05F2801841F10001F1
:1003400003FA0EF2801843FA05F359410EE0A5F1C5
:1003500020050EF1200E012A03FA0EFC28BF4CF0F6
:10036000020C43FA05F3C01851EBE37101F00045AC
:1003700007D54FF0000EDCF1000C7EEB00006EEBB9
:100380000101B1F5801F1BD3B1F5001F0CD3490843
:100390005FEA30004FEA3C0C04F101044FEA44529A
:1003A00012F5800F80F09A80BCF1004F08BF5FEA21
:1003B000500C50F1000041EB045141EA050130BD01
:1003C0005FEA4C0C404141EB010111F4801FA4F1A4
:1003D0000104E9D191F0000F04BF01460020B1FAF9
:1003E00081F308BF2033A3F10B03B3F120020CDA31
:1003F0000C3208DD02F1140CC2F10C0201FA0CF00F
:1004000021FA02F10CE002F11402D8BFC2F1200C73
:1004100001FA02F120FA0CFCDCBF41EA0C01904029
:10042000E41AA2BF01EB0451294330BD6FEA040472
:100430001F3C1CDA0C340EDC04F11404C4F120025D
:1004400020FA04F001FA02F340EA030021FA04F36F
:1004500045EA030130BDC4F10C04C4F1200220FAC6
:1004600002F001FA04F340EA0300294630BD21FA04
:1004700004F0294630BD94F0000F83F4801306BFCA
:1004800081F480110134013D4EE77FEA645C18BFBE
:100490007FEA655C29D094EA050F08BF90EA020F55
:1004A00005D054EA000C04BF1946104630BD91EA4D
:1004B000030F1EBF0021002030BD5FEA545C05D150
:1004C0004000494128BF41F0004130BD14F580048F
:1004D0003CBF01F5801130BD01F0004545F0FE4103
:1004E00041F470014FF0000030BD7FEA645C1ABF38
:1004F000194610467FEA655C1CBF0B46024650EA6F
:10050000013406BF52EA033591EA030F41F400219A
:1005100030BD00BF90F0000F04BF0021704730B520
:100520004FF4806404F132044FF000054FF00001F5
:1005300050E700BF90F0000F04BF0021704730B5B6
:100540004FF4806404F1320410F0004548BF40428B
:100550004FF000013EE700BF42004FEAE2014FEAE0
:1005600031014FEA02701FBF12F07F4393F07F4FBB
:1005700081F06051704792F0000F14BF93F07F4FED
:10058000704730B54FF4607401F0004521F0004130
:1005900020E700BF50EA010208BF704730B54FF0B6
:1005A00000050AE050EA010208BF704730B511F0BB
:1005B000004502D5404261EB41014FF4806404F1F3
:1005C00032045FEA915C3FF4DCAE4FF003025FEA75
:1005D000DC0C18BF03325FEADC0C18BF033202EBFD
:1005E000DC02C2F1200300FA03FC20FA02F001FA57
:1005F00003FE40EA0E0021FA02F11444C1E600BFF6
:1006000070B54FF0FF0C4CF4E06C1CEA11541DBFA8
:100610001CEA135594EA0C0F95EA0C0F00F0DEF873
:100620002C4481EA030621EA4C5123EA4C5350EA58
:10063000013518BF52EA033541F4801143F48013A9
:1006400038D0A0FB02CE4FF00005E1FB02E506F03A
:100650000042E0FB03E54FF00006E1FB03569CF08F
:10066000000F18BF4EF0010EA4F1FF04B6F5007F95
:1006700064F5407404D25FEA4E0E6D4146EB060607
:1006800042EAC62141EA55514FEAC52040EA5E5090
:100690004FEACE2EB4F1FD0C88BFBCF5E06F1ED83A
:1006A000BEF1004F08BF5FEA500E50F1000041EB71
:1006B000045170BD06F0004646EA010140EA02001E
:1006C00081EA0301B4EB5C04C2BFD4EB0C0541EA40
:1006D000045170BD41F480114FF0000E013C00F355
:1006E000AB8014F1360FDEBF002001F0004170BD79
:1006F000C4F10004203C35DA0C341BDC04F1140492
:10070000C4F1200500FA05F320FA04F001FA05F21D
:1007100040EA020001F0004221F0004110EBD370EA
:1007200021FA04F642EB06015EEA430E08BF20EA16
:10073000D37070BDC4F10C04C4F1200500FA04F3B9
:1007400020FA05F001FA04F240EA020001F000414B
:1007500010EBD37041F100015EEA430E08BF20EABE
:10076000D37070BDC4F1200500FA05F24EEA020E06
:1007700020FA04F301FA05F243EA020321FA04F035
:1007800001F0004121FA04F220EA020000EBD370EC
:100790005EEA430E08BF20EAD37070BD94F0000FEC
:1007A0000FD101F00046400041EB010111F4801F20
:1007B00008BF013CF7D041EA060195F0000F18BFD1
:1007C000704703F00046520043EB030313F4801F0D
:1007D00008BF013DF7D043EA0603704794EA0C0FC7
:1007E0000CEA135518BF95EA0C0F0CD050EA4106DD
:1007F00018BF52EA4306D1D181EA030101F000415A
:100800004FF0000070BD50EA410606BF1046194681
:1008100052EA430619D094EA0C0F02D150EA01368D
:1008200013D195EA0C0F05D152EA03361CBF1046CE
:1008300019460AD181EA030101F0004141F0FE416D
:1008400041F470014FF0000070BD41F0FE4141F4F1
:10085000780170BD70B54FF0FF0C4CF4E06C1CEAF1
:1008600011541DBF1CEA135594EA0C0F95EA0C0FA6
:1008700000F0A7F8A4EB050481EA030E52EA033561
:100880004FEA013100F088804FEA03334FF0805582
:1008900045EA131343EA12634FEA022245EA1115AF
:1008A00045EA10654FEA00260EF000419D4208BF60
:1008B000964244F1FD0404F5407402D25B084FEA0D
:1008C0003202B61A65EB03055B084FEA32024FF4B9
:1008D00080104FF4002CB6EB020E75EB030E22BF16
:1008E000B61A754640EA0C005B084FEA3202B6EBD6
:1008F000020E75EB030E22BFB61A754640EA5C0085
:100900005B084FEA3202B6EB020E75EB030E22BF14
:10091000B61A754640EA9C005B084FEA3202B6EB15
:10092000020E75EB030E22BFB61A754640EADC00D4
:1009300055EA060E18D04FEA051545EA16754FEA36
:1009400006164FEAC30343EA52734FEAC2025FEA54
:100950001C1CC0D111F4801F0BD141EA00014FF0E3
:1009600000004FF0004CB6E711F4801F04BF0143B4
:100970000020B4F1FD0C88BFBCF5E06F3FF6AFAED0
:10098000B5EB030C04BFB6EB020C5FEA500C50F160
:10099000000041EB045170BD0EF0004E4EEA1131E3
:1009A00014EB5C04C2BFD4EB0C0541EA045170BDEA
:1009B00041F480114FF0000E013C90E645EA060E2E
:1009C0008DE60CEA135594EA0C0F08BF95EA0C0F5C
:1009D0003FF43BAF94EA0C0F0AD150EA01347FF4A4
:1009E00034AF95EA0C0F7FF425AF104619462CE77B
:1009F00095EA0C0F06D152EA03353FF4FDAE1046DE
:100A0000194622E750EA410618BF52EA43067FF42E
:100A1000C5AE50EA41047FF40DAF52EA43057FF4BE
:100A2000EBAE12E74FF0FF3C06E000BF4FF0010CC9
:100A300002E000BF4FF0010C4DF804CD4FEA410C2D
:100A40007FEA6C5C4FEA430C18BF7FEA6C5C1BD0FA
:100A500001B050EA410C0CBF52EA430C91EA030F7B
:100A600002BF90EA020F0020704710F1000F91EAD8
:100A7000030F58BF994208BF90422CBFD8176FEAA6
:100A8000E37040F0010070474FEA410C7FEA6C5C74
:100A900002D150EA013C07D14FEA430C7FEA6C5C7B
:100AA000D6D152EA033CD3D05DF8040B704700BFA7
:100AB0008446104662468C461946634600E000BFF5
:100AC00001B5FFF7B7FF002848BF10F1000F01BDC7
:100AD0004DF808EDFFF7F4FF0CBF012000205DF892
:100AE00008FB00BF4DF808EDFFF7EAFF34BF012017
:100AF00000205DF808FB00BF4DF808EDFFF7E0FFB0
:100B000094BF012000205DF808FB00BF4DF808ED00
:100B1000FFF7CEFF94BF012000205DF808FB00BF67
:100B20004DF808EDFFF7C4FF34BF012000205DF849
:100B300008FB00BF4FEA410C7FEA6C5C02D150EA2F
:100B4000013C0AD14FEA430C7FEA6C5C02D152EAC5
:100B5000033C02D14FF0000070474FF00100704796
:100B60004FEA410212F5001215D211D56FF47873D5
:100B7000B3EB625212D94FEAC12343F0004343EA78
:100B8000505311F0004F23FA02F018BF4042704753
:100B90004FF00000704750EA013005D111F00040DD
:100BA00008BF6FF0004070474FF00000704700BF73
:100BB0004A0011D212F5001211D20DD56FF47873DC
:100BC000B3EB62520ED44FEAC12343F0004343EA31
:100BD000505323FA02F070474FF00000704750EA7C
:100BE000013002D14FF0FF3070474FF000007047E6
:100BF0004FEA4102B2F1E04324BFB3F5001CDCF13F
:100C0000FE5C0DD901F0004C4FEAC0024CEA507076
:100C1000B2F1004F40EB830008BF20F001007047A5
:100C200011F0804F21D113F13872BCBF01F00040A8
:100C3000704741F480114FEA5252C2F11802C2F1DA
:100C4000200C10FA0CF320FA02F018BF40F001005B
:100C50004FEAC1234FEAD32303FA0CFC40EA0C000D
:100C600023FA02F34FEA4303CCE77FEA625307D14A
:100C700050EA01331EBF4FF0FE4040F44000704781
:100C800001F0004040F0FE4040F40000704700BF1B
:100C900053B94AB9002908BF00281CBF4FF0FF31E3
:100CA0004FF0FF3000F07AB9ADF1080C6DE904CED9
:100CB00000F006F8DDF804E0DDE9022304B0704737
:100CC0002DE9F0478C460D460446089E002B51D175
:100CD0008A4217466DD9B2FA82FEBEF1000F0BD0E0
:100CE000CEF1200C01FA0EF520FA0CFC02FA0EF7F8
:100CF0004CEA050C00FA0EF44FEA174A250CBCFB2F
:100D0000FAF81FFA87F90AFB18CC45EA0C4508FBEC
:100D100009F3AB420AD9ED1908F1FF3280F02381C3
:100D2000AB4240F22081A8F102083D44ED1AA4B282
:100D3000B5FBFAF00AFB105544EA054400FB09F93B
:100D4000A14509D9E41900F1FF3380F00A81A145DA
:100D500040F2078102383C44A4EB090440EA084011
:100D60000021002E61D024FA0EF400233460736059
:100D7000BDE8F0878B4207D9002E54D0002186E8C9
:100D800021000846BDE8F087B3FA83F1002940F05E
:100D90008E80AB4202D3824200F2FA80841A65EB65
:100DA00003050120AC46002E3FD086E81010BDE8B8
:100DB000F08712B90127B7FBF2F7B7FA87FEBEF149
:100DC000000F34D1EB1B3A0C1FFA87FC0121B3FB57
:100DD000F2F8250C02FB183345EA03450CFB08F337
:100DE000AB4207D9ED1908F1FF3002D2AB4200F255
:100DF000D1808046ED1AA3B2B5FBF2F002FB10558C
:100E000043EA05440CFB00FCA44507D9E41900F1B2
:100E1000FF3302D2A44500F2B8801846A4EB0C04BC
:100E200040EA08409DE731463046BDE8F087CEF104
:100E3000200405FA0EF307FA0EF720FA04F83A0C2C
:100E400025FA04F448EA0308B4FBF2F14FEA184526
:100E500002FB11441FFA87FC45EA044501FB0CF331
:100E6000AB4200FA0EF409D9ED1901F1FF3080F020
:100E70008A80AB4240F2878002393D44EB1A1FFA68
:100E800088F5B3FBF2F002FB103345EA034500FBA3
:100E90000CF3AB4207D9ED1900F1FF386FD2AB422A
:100EA0006DD902383D44EB1A40EA01418FE7C1F1A8
:100EB000200722FA07F88B4005FA01F448EA0303F9
:100EC00020FA07FE4FEA134CFD404EEA040EB5FB34
:100ED000FCF94FEA1E440CFB19551FFA83F844EA4B
:100EE000054509FB08F4AC4202FA01F200FA01FAE6
:100EF00008D9ED1809F1FF3043D2AC4241D9A9F12C
:100F000002091D442D1B1FFA8EFEB5FBFCF00CFBE5
:100F100010554EEA054400FB08F8A04507D9E4182F
:100F200000F1FF3529D2A04527D902381C4440EAF8
:100F30000940A4EB0804A0FB02894C45C6464D4677
:100F400015D312D056B1BAEB0E0364EB050404FAC4
:100F500007F7CB401F43CC40376074600021BDE8E9
:100F6000F0871846F8E69046E0E6C245EAD2B8EBCC
:100F7000020E69EB03050138E4E72846D7E740464F
:100F800091E78146BEE7014678E702383C4445E7F1
:100F9000084608E7A8F102083D442BE7704700BF68
:100FA00038B50E4A0E4B054618784FF47A73B3FBEA
:100FB000F0F31068B0FBF3F000F0AAF8044658B95B
:100FC0000F2D09D8024629464FF0FF3000F05EF899
:100FD000044B20461D6038BD012038BD0C000020A8
:100FE000000000200400002008B50B4B1A6842F4F2
:100FF00000721A601A6842F480621A601A6842F439
:1010000080721A60032000F02FF80020FFF7C8FF5D
:1010100001F02AFD002008BD003C0240034A044BB9
:1010200011681B780B441360704700BF0802002052
:1010300000000020014B1868704700BF0802002024
:1010400038B50446FFF7F6FF631C1CBF054B1B7841
:10105000054618BFE418FFF7EDFF401B8442FAD89D
:1010600038BD00BF00000020074AD36823F4E063C6
:101070001B041B0C43F0BF63000243F4003300F475
:10108000E0600343D360704700ED00E0174B30B5DC
:10109000DC68C4F30224C4F10703251D042B28BF18
:1010A0000423062D4FF0010505FA03F303F1FF3386
:1010B0008CBF033C00241940A14005FA04F4013C14
:1010C0002240002842EA01024FEA0212ADBF00F1BD
:1010D000604000F00F00064B00F56140B5BFD2B292
:1010E000D2B21A5480F8002330BD00BF00ED00E0FA
:1010F00014ED00E0002808DB4209012300F01F0086
:1011000003FA00F0014B43F82200704700E100E0D1
:101110000138B0F1807F0AD2064B074A5860F021AF
:1011200082F823100020072298601A60704701207F
:10113000704700BF10E000E000ED00E0094910B585
:101140000C6924F440740C610C6944F440740C6123
:101150000C6944F001040C610260BFF36F8F4360BF
:1011600010BD00BF003C0240074B1A6922F44072D8
:101170001A611A6942F400721A611A6942F0010296
:101180001A610160704700BF003C0240074B1A69BA
:1011900022F440721A611A6942F480721A611A6963
:1011A00042F001021A610180704700BF003C02401A
:1011B000204BDA68D00606D51F49CA6942F01002F2
:1011C000CA611022DA60DA68910606D51A49CA693E
:1011D00042F00802CA612022DA60164BDA68520631
:1011E00006D51549CA6942F00402CA614022DA6094
:1011F000DA68100606D51049CA6942F00202CA61CF
:101200008022DA600B4BDA68D10507D50A49CA6932
:1012100042F00102CA614FF48072DA60DA68920724
:1012200006D50549CA6942F02002CA610222DA6085
:10123000704700BF003C02400C020020064B1A69B8
:10124000002ABFBF054A5A6002F188325A60BABF0D
:101250001869C00F00207047003C02402301674519
:10126000F8B5124B124C00220546DA61FFF7E2FE98
:1012700026460746E368DA030CD4E368DB0744BF7D
:101280000123E360F06810F4F97002D0FFF790FFDB
:101290000120F8BD691CEDD00DB90320F8BDFFF7A2
:1012A000C9FEC01B8542E5D2F7E700BF0C02002053
:1012B000003C02402DE9F041204D98462B7E012B49
:1012C00007460E46144635D001234CF250302B769B
:1012D000FFF7C6FFB0B9CFB9194B1A6922F44072B3
:1012E0001A611A691A611A69E4B242F001021A61BC
:1012F00034704CF25030FFF7B3FF114A136923F0FA
:101300000103136100232B76BDE8F081012F04D186
:10131000A1B23046FFF73AFFEBE7022F04D1214696
:101320003046FFF721FFE4E7224643463046FFF709
:1013300005FFDEE70220BDE8F08100BF0C020020BF
:10134000003C0240074B1A6922F440721A611A6984
:1013500042F004021A611A6942F4803242EA002023
:1013600018617047003C024039B101291CD00229A4
:101370000CBF4FF400714FF440710D4B1A6922F409
:1013800040721A611A69114319611A6922F0F80250
:101390001A611A6942F0020242EAC00018611A6931
:1013A00042F480321A6170474FF48071E5E700BF64
:1013B000003C0240144B1A6891050FD51A6822F4BC
:1013C00000721A601A6842F400621A601A6822F405
:1013D00000621A601A6842F400721A600A4B1A68B6
:1013E00052050FD51A6822F480621A601A6842F416
:1013F00080521A601A6822F480521A601A6842F405
:1014000080621A60704700BF003C02402DE9F8433B
:10141000234E337E012B044688463FD001234CF2F5
:1014200050303376FFF71CFF0546A8B94FF0FF3365
:10143000C8F800302368012B13D1207CFFF782FF0E
:101440004CF25030FFF70CFF164A136923F00403E7
:1014500005461361FFF7AEFF002333762846BDE84B
:10146000F883A768DFF83C90E368A26813449F42C2
:10147000F0D2217C3846FFF777FF4CF25030FFF76F
:10148000EFFED9F8103023F0FA03C9F8103018B184
:10149000C8F800700546DDE70137E5E70225DDE71E
:1014A0000C020020003C02402DE9F04F85B00B6893
:1014B000DFF88C81604A01934FF001090023019D00
:1014C00009FA03F42540AC4240F0A6804C6824F0B1
:1014D000100C0CF1FF36012E4FEA430E12D887682C
:1014E000032606FA0EF627EA0607CE6806FA0EF677
:1014F0003E4386604768C4F3001627EA05079E400E
:101500003E4346600326C76806FA0EF6F64307EA2E
:10151000060A8F6807FA0EF747EA0A07BCF1020FBE
:10152000C76016D14FEAD30A00EB8A0A03F0070B13
:10153000DAF820704FEA8B0B4FF00F0C0CFA0BFC13
:1015400027EA0C0C0F6907FA0BF747EA0C07CAF8F1
:10155000207007683E4004F0030707FA0EFE4EEACB
:1015600006060660E60057D54FF0000BCDF80CB02C
:10157000D8F84470314E47F48047C8F84470D8F822
:10158000447007F480470397039F23F0030707F194
:10159000804707F59C3703F0030CD7F808A04FEA03
:1015A0008C0C4FF00F0E0EFA0CFEB0422AEA0E0E13
:1015B00039D006F58066B04237D006F58066B04275
:1015C00035D006F58066B04233D006F58066B0426D
:1015D00014BF0726042606FA0CF646EA0E06BE607D
:1015E0001668EF4314F4803F0CBF3E402E43166054
:1015F000566814F4003F0CBF3E402E435660966878
:1016000014F4801F0CBF3E402E439660D668A4029F
:1016100054BF3E402E43D6600133102B7FF44FAFB2
:1016200005B0BDE8F08F5E46D5E70126D3E7022678
:10163000D1E70326CFE700BF003C01400000024095
:10164000003802400AB1816170470904FBE7436931
:1016500031EA030308BF09048161704770B504468D
:1016600008B9012070BD90F83D3003F0FF021BB9AE
:1016700080F83C2001F018FA242384F83D302368D8
:101680001A6822F001021A601A6842F400421A60D5
:101690001A6822F400421A6000F0FCFA6568414BB7
:1016A0009D424DD8404B9842DBD922683F49536850
:1016B000B0FBF1F123F03F030B435360136A23F0B7
:1016C0003F03013119431162D169364B21F44F4177
:1016D0009D4221F0FF0100F1FF3048D86D00B0FBC2
:1016E000F5F00130C0F30B03042B38BF04230B4388
:1016F000D3611168206AE36921F0C00103430B4301
:1017000013609168E068236921F40341034321F0E9
:10171000FF010B439360D168A069636921F0FF0169
:1017200003430B43D360136843F0010313600020AD
:101730002023206484F83D30206384F83E0070BD8F
:101740001B4B98428DD92268184E5368B0FBF6F6B1
:1017500023F03F0333435360136A4FF49671714390
:1017600023F03F034FF47A76B1FBF6F1A9E7A368C3
:1017700053B905EB4503B0FBF3F0431CC3F30B0374
:101780006BB143F40043B2E719236B43B0FBF3F0B2
:10179000431CC3F30B0313B143F44043A7E70123F6
:1017A000A5E700BFA08601007F841E0040420F0015
:1017B000FF083D002DE9F341044608B901203FE050
:1017C0000368DD0710D4236898075AD423681A07E2
:1017D00000F19C8023685B0700F1BA80A0690028B3
:1017E00040F01B8100202BE0A44B9A6802F00C0211
:1017F000042A07D09A6802F00C02082A0AD15B6812
:10180000590207D59D4B1B689A03DCD56368002BF2
:10181000D9D1D3E76368994DB3F5803F13D12B68D5
:1018200043F480332B60FFF705FC944D06462B688C
:101830009B03C8D4FFF7FEFB801B6428F7D9032065
:1018400002B0BDE8F081B3F5A02F04D12B6843F4BA
:1018500080232B60E3E72A6822F480322A602A681A
:1018600022F480222A60002BDDD1FFF7E3FB06463D
:101870002B689F03A7D5FFF7DDFB801B6428F7D9F2
:10188000DDE77E4B9A6812F00C0F07D09A6802F0E1
:101890000C02082A11D15B685E020ED4774B1A68DD
:1018A000950702D5E268012A88D11A68216922F0D9
:1018B000F80242EAC1021A6088E7E268704BB2B1EE
:1018C00001221A60FFF7B6FB6C4D06462B6898079D
:1018D00007D52B68226923F0F80343EAC2032B6083
:1018E00074E7FFF7A7FB801B0228EFD9A7E71A6070
:1018F000FFF7A0FB614D06462B6899077FF566AFA1
:10190000FFF798FB801B0228F6D998E762695D4BC8
:101910007AB101221A60FFF78DFB584D06466B6FB6
:101920009F073FF557AFFFF785FB801B0228F6D9CD
:1019300085E71A60FFF77EFB504D06466B6F9807F0
:101940007FF548AFFFF776FB801B0228F6D976E7D4
:101950004A4B1A6C12F0805228D101921A6C42F054
:1019600080521A641B6C03F080530193019B012683
:10197000454D2B68D9051BD5A368404D012B27D1B8
:101980002B6F43F001032B67FFF754FB3B4D0746DA
:1019900041F288382B6F9B0739D5002E3FF41EAFDC
:1019A000364A136C23F08053136417E70026DFE7F1
:1019B0002B6843F480732B60FFF73CFB07462B68D2
:1019C000DA05D9D4FFF736FBC01B0228F7D936E772
:1019D000052B04D12B6F43F004032B67D0E72A6F4C
:1019E00022F001022A672A6F22F004022A67002BE4
:1019F000CAD1FFF71FFB41F2883807462B6F9807C3
:101A0000CBD5FFF717FBC01B4045F7D917E7FFF70A
:101A100011FBC01B4045BDD911E7184DAB6803F061
:101A20000C03082B47D0194E00230228336035D110
:101A3000FFF700FB07462B68990129D4226AE36966
:101A40001343626A43EA8213E26A43EA0263A26AC8
:101A50000A4C5208013A43EA02436B6001233360A7
:101A6000FFF7E8FA054623689A013FF5BBAEFFF79A
:101A7000E1FA401B0228F6D9E1E600BF0038024037
:101A800000004742800E474200700040600047421D
:101A9000FFF7D0FAC01B0228CDD9D0E6FFF7CAFA6B
:101AA00004462B689B017FF59DAEFFF7C3FA001B30
:101AB0000228F6D9C3E601283FF4C2AEA868E3695C
:101AC00000F480029A427FF479AE226A00F03F036C
:101AD00093427FF473AE626A47F6C0730340934249
:101AE0007FF46CAEA26A00F4403393427FF466AE9A
:101AF000E36A00F07060C01A18BF0120A0E600BFC2
:101B0000134908B58B6803F00C03042B03D0082B92
:101B100003D0104808BD104808BD4A684B684968A2
:101B200013F4800314BF0C480A48C1F3881118BF8E
:101B3000002302F03F02A1FB0001FFF7A9F8044BCC
:101B40005B68C3F3014301335B00B0FBF3F008BDF6
:101B5000003802400024F40000127A002DE9F04120
:101B60000D46044610B90120BDE8F081444B1A68C7
:101B700002F00F028A4229D321688F072ED4C807AA
:101B800041D43F4B1A6802F00F02954267D3226896
:101B900051076DD4130707D53A4A2169936823F496
:101BA000604343EAC1039360FFF7AAFF354B364A0F
:101BB0009B68C3F30313D35CD840344B1860344B99
:101BC0001868FFF7EDF90020BDE8F081CAB21A707D
:101BD0001B6803F00F039942C5D1CDE7294B11F0E3
:101BE000040F1EBF9A6842F4E0529A600E0742BF8B
:101BF0009A6842F460429A609A68A06822F0F00203
:101C000002439A60BBE762681E4B012A1DD11B6824
:101C100013F4003FA7D01B4EB36823F00303134314
:101C2000B360FFF707FA41F288380746B368626885
:101C300003F00C03B3EB820FA3D0FFF7FBF9C01B3B
:101C40004045F3D90320BDE8F081911E01291B68AE
:101C500002D813F0007FDDE713F0020FDAE7EAB2F3
:101C60001A701B6803F00F039D427FF47CAF8EE770
:101C70000449E0688B6823F4E05303438B6089E7F1
:101C8000003C024000380240F87600080C000020BA
:101C900004000020044B054A9B68C3F38223D35CF5
:101CA000034A1068D840704700380240087700089F
:101CB0000C000020044B054A9B68C3F34233D35CFD
:101CC000034A1068D840704700380240087700087F
:101CD0000C00002010B50446002836D00023836293
:101CE00090F8513003F0FF021BB980F8502000F04B
:101CF00033FF2168A068A269022384F851300B6881
:101D000023F040030B6063680343E06803432069EA
:101D1000034360690343E0690343206A0343A06A05
:101D2000034302F4007003430B60120C636A02F079
:101D300004021A434A60CB6923F40063CB6100209C
:101D40000123606584F8513010BD012010BD70473B
:101D5000704770477047704703681A69910710B55C
:101D600004460ED5DA6892070BD56FF002021A61AD
:101D70009B6901229B07027777D0FFF7EAFF0023D8
:101D8000237723681A69500710D5DA6851070DD5F3
:101D90006FF004021A619B69022213F4407F2277DC
:101DA000204668D0FFF7D5FF0023237723681A6900
:101DB00012070FD5DA6810070CD56FF008021A6108
:101DC000DB6904229907227720465AD0FFF7C1FF2A
:101DD0000023237723681A69D20610D5DA68D00663
:101DE0000DD56FF010021A61DB69082213F4407FF1
:101DF000227720464BD0FFF7ACFF002323772368E0
:101E00001A69D10708D5DA68D20705D56FF0010243
:101E10001A612046FFF79BFF23681A69100608D550
:101E2000DA68110605D56FF080021A61204600F0CD
:101E300076F923681A69520608D5DA68500605D57E
:101E40006FF040021A612046FFF785FF23681A6988
:101E5000910622D5DA6892061FD56FF0200220463F
:101E60001A61BDE8104000F059B9FFF771FF204634
:101E7000FFF770FF83E7FFF76BFF2046FFF76AFF6E
:101E800092E7FFF765FF2046FFF764FFA0E7FFF743
:101E90005FFF2046FFF75EFFAFE710BD244A0368EF
:101EA00090420ED0B0F1804F0BD0A2F57C42904210
:101EB00007D002F58062904203D002F58062904222
:101EC00015D14A6823F070031343194A904219D080
:101ED000B0F1804F16D0A2F57C42904212D002F5AC
:101EE000806290420ED002F5806290420AD0114A80
:101EF000904207D002F58062904203D002F58062E2
:101F0000904203D1CA6823F4407313434A6923F013
:101F10008003134303608B68C3620B688362044BC6
:101F2000984204BF0B69036301234361704700BFFC
:101F3000000001400040014010B50446A0B190F8F7
:101F40003D3003F0FF021BB980F83C2000F052FE48
:101F5000022384F83D302068211DFFF79FFF0123F5
:101F600084F83D30002010BD012010BD10B58468FC
:101F70000A4324F47F4442EA03232343836010BDD1
:101F800090F83C30012B70B504464FF0020019D098
:101F900084F83D002068012384F83C30836823F4F2
:101FA0007F4323F0770383600B68402B65D015D8FF
:101FB000102B0CD007D853B10123002084F83D30FA
:101FC00084F83C0070BD202B01D0302BF4D1826806
:101FD00043F0070322F0700213431AE0602B34D061
:101FE00019D8502BE8D14A68CE68016A056A25F0F5
:101FF00001050562836921F00A0123F0F00343EA39
:1020000006130A4383610262836823F0700343F07E
:1020100057038360D0E7702B0CD0B3F5005FCBD1B2
:10202000CB684A688968FFF7A1FF2268936843F488
:10203000804308E0CB684A688968FFF797FF226809
:10204000936843F077039360B6E74D68CE68016A02
:1020500021F0100101628269036A22F4704223F0C8
:10206000A00343EA051342EA0632826103628368F1
:1020700023F0700343F06703CBE74A68CE68016A38
:10208000056A25F001050562836921F00A0123F044
:10209000F00343EA06130A4383610262836823F074
:1020A000700343F04703B4E790F83C30012B30B5A0
:1020B0004FF002032DD080F83D3003680D685C6856
:1020C00024F0700401222C4380F83C209A685C6064
:1020D000114CA34212D0B3F1804F0FD0A4F57C4431
:1020E000A3420BD004F58064A34207D004F58064BA
:1020F000A34203D004F59A34A34204D1496822F0E4
:1021000080020A439A60012380F83D30002380F862
:102110003C30184630BD00BF00000140704770479A
:1021200038B50368C1681A69044622F440520A436C
:102130001A612569A268D968C0692A43656921F4D2
:1021400016412A4321F00C0102430A43DA605A691E
:10215000A16922F440720A43B0F5004F5A61254A42
:1021600029D1934203D002F58062934220D1FFF738
:10217000A1FD6268256892184FF000034FF0190125
:102180005B41A0FB0101FEF783FD6421B0FBF1F48C
:1021900001FB1403DB003233B3FBF1F303F007025E
:1021A0005B0002EB041203F4F8731344AB6038BD18
:1021B000FFF770FDDDE7934202D00F4A934216D13C
:1021C000FFF778FD6368256819219A00A0FB0101DB
:1021D0009B0FFEF75DFD6422B0FBF2F102FB1103E1
:1021E0001B013233B3FBF2F303EB0113DEE7FFF71E
:1021F00051FDE7E70010014000140140F8B5044626
:102200000E4617461D4621680B6836EA030301D1C6
:102210000020F8BD6B1CF7D095B92368DA6822F46A
:10222000D072DA605A6922F001025A61202384F8E0
:10223000393084F83A30002384F838300320F8BD70
:10224000FEF7F8FEC01B8542DDD2E6E710B5044676
:1022500040B390F8393003F0FF021BB980F8382002
:1022600000F0FEFC2268242384F83930D36823F47C
:102270000053D3602046FFF753FF23681A6922F406
:1022800090421A615A6922F02A025A61DA6842F4CD
:102290000052DA6000202023E06384F8393084F8AB
:1022A0003A3010BD012010BD2DE9F8431F4690F8CB
:1022B0003930202B04460D46904651D100294CD090
:1022C000002A4AD090F83830012B49D0012380F8F9
:1022D00038304FF000092123C0F83C9080F83930A5
:1022E000FEF7A8FEA4F824800646A4F8268084F809
:1022F0003890E38C9BB25BB93B4632464021204686
:10230000FFF77CFFA0B9202384F83930BDE8F883BB
:10231000E38C013B9BB2E384A368B3F5805F324654
:102320003B464FF0800120460ED1FFF767FF10B10A
:102330000320BDE8F8832B882268C3F308035360A9
:10234000236943B90235D4E7FFF758FF0028EFD1DE
:1023500023682A785A600135CBE70120BDE8F8836D
:102360000220BDE8F8832DE9F8431F4690F83A3083
:10237000202B04460D46904654D100294FD0002A08
:102380004DD090F83830012B4CD0012380F83830F4
:102390004FF000092223C0F83C9080F83A30FEF755
:1023A00049FEA4F82C800646A4F82E8084F83890C4
:1023B000E08D80B220B9202384F83A30BDE8F8835C
:1023C000E38D013B9BB2E385A368B3F5805F3246A2
:1023D0003B464FF02001204612D1FFF70FFF10B10E
:1023E0000320BDE8F883236822695B6822B9C3F340
:1023F000080325F8023BDBE7DBB225F8013BD7E712
:10240000FFF7FCFE0028EBD1236821695B686A1C9A
:1024100011B92B701546CBE703F07F03F9E70120D4
:10242000BDE8F8830220BDE8F88300000A4B00F104
:1024300078429A4210B509D8084900235A1C51F82D
:102440002240A04205D30F2A1346F7D14FF0FF30A8
:1024500010BD184610BD00BFFEFF0700287600081B
:1024600070B586B000230093019302230C46054605
:102470000593FFF7DBFF06460390601E2844FFF735
:10248000D5FF0130801B0490FEF7D8FE80B90948C3
:1024900001F070FC694601A8FEF7B8FF30B12A468A
:1024A0000099054801F0F2FB4FF0FF3006B070BD17
:1024B0000248EDE700750008397500081D75000831
:1024C000F8B504460F46164672B60025AE4208D946
:1024D000AB10611957F8232002200023FEF7EAFE13
:1024E00098B120464FF0FF350024A6420AD9A31028
:1024F000014657F8233050F8042B9A4207D005487C
:1025000001F0C4FB62B62846F8BD0435DEE70434AA
:102510000025EAE7987500083C4B2DE9F74F9046F7
:10252000F322DA6089468246FFF780FF04460AF10B
:10253000FF304044FFF77AFF3549019101EB8402F7
:10254000002384422FDD181D00F072FC009000284B
:1025500058D020F0030604365046FFF767FF019B72
:1025600053F820B00130AAEB0B0453F82050A5EB30
:102570000B052F1B474528BF47462A46594630467C
:1025800000F075FC49463A46301900F070FC2946C7
:102590005846FFF765FF88B159461E4801F076FBA3
:1025A0004FF0FF3427E052F8045F52F8041C691A18
:1025B0008B4204F1010438BF0B46C2E72A4631467C
:1025C0005846FFF77DFF044660B12A46314658461B
:1025D00000F03EFC30B15B462A4621460E4801F031
:1025E00055FBDDE7BA44B944A8EB0708002CD7D166
:1025F000B8F1000FB0DC009800F022FC204603B0D8
:10260000BDE8F08F4FF0FF34F8E700BF003C024018
:102610002876000857750008717500082DE9F84FF5
:102620002D4D064628680F4641684B68013B002B3C
:102630004B6014DA01F0A6FB0024DFF8A0A007F13C
:10264000FF38A146431C07D004F1010BBB452BD238
:102650000D283ED00A2807D1002C33D025E00B6886
:102660005A1C0A601878E7E7082812D1ACB104F1C7
:10267000FF3B504606F80B9001F008FB28684168C4
:102680004B68013B002B4B6009DA01F07BFB5C4699
:10269000D8E74445F2D23055F0E7A346EEE70B68A1
:1026A0005A1C0A601878F2E70CB1002333550D2844
:1026B00008D1286841684B68013B002B4B6004DA65
:1026C00001F060FB2046BDE8F88F0B6801330B601A
:1026D000F8E7002CEDD0E8E7100000202376000892
:1026E0002DE9F04105460E46FFF798FF00244FF014
:1026F0000A0800280CDAA6421DD83146104801F01D
:10270000C5FA29460F4801F0C1FA0020BDE8F08162
:10271000A642F2D90444671C05F804803146E81942
:10272000FFF77CFF3844441C05F800803146281927
:10273000FFF774FFDDE7601C00232B54BDE8F08138
:10274000D57500080576000837B502AC074D44F88A
:10275000040D47F23053012221462846FFF7A4FD1D
:102760000028F6D1019803B030BD00BF68030020F7
:1027700037B502AC002304F8013D074D47F2305352
:10278000012221462846FFF7EEFD0028F6D19DF8EC
:10279000070003B030BD00BF6803002030B595B01E
:1027A0003022002108A800F06DFB0021142203A8AC
:1027B00000F068FB00251D4B01951A6C42F0805219
:1027C0001A641B6C1A4A03F080530193019B029513
:1027D000136823F4404343F400431360136803F485
:1027E00040430293029B012308934FF4A0230993D3
:1027F0004FF480030F930423109354230224119366
:1028000008A8072313930E941294FEF7D3FF0F2307
:10281000039321464FF4805303A80494059506932F
:102820000795FFF79BF915B030BD00BF0038024097
:102830000070004070B58CB0FEF7D6FBFFF7AEFF1E
:102840001422002107A8002400F01CFB724B019405
:102850001A6B724842F004021A631A6B02F0040207
:102860000192019A02941A6B42F080021A631A6B69
:1028700002F080020292029A03941A6B42F0010263
:102880001A631A6B02F001020392039A04941A6B02
:1028900042F002021A631B6B03F002032246049308
:1028A0002021049BFEF7CEFE4FF40053079307A9A7
:1028B0005B4B5C4808930994FEF7F6FD202307A9BB
:1028C000079356480994012308930A94FEF7ECFDF8
:1028D0005548564A84604FF4E13380E80C000C23DD
:1028E000C460046143618461C461FFF7AFFC504878
:1028F0005049514B846080E80A004FF48043C46023
:10290000036144618461C4610462FEF7A7FE4B4821
:102910004B4B84604FF4827580E828004FF40073BD
:10292000484D83610A23C362C46004614461C46189
:10293000046244628462FFF7CDF91022214607A8A1
:1029400000F0A0FA4FF08043284685E81800AC60FC
:10295000EC602C61AC61059406944FF48056FFF74F
:10296000EBFA07A928460796FFF70AFB05A92846B0
:102970000594354D0694FFF797FB1022214607A8D2
:1029800000F080FA314B0594284685E8180006943B
:10299000AC60EC602C61AC61FFF7CEFA07A9284669
:1029A0000796FFF7EDFA05A9284605940694FFF768
:1029B0007BFB274801F06AF9142000F039FA04463D
:1029C00018B91421234801F061F91422002120468E
:1029D00000F058FA2048214D01F058F91421204602
:1029E000FFF77EFE2046FDF7FBFB2146421C2868D0
:1029F000FFF792FD29681A4801F048F92146194865
:102A0000064C01F043F920462021FEF720FEC820A5
:102A1000FEF716FBF7E700BF003802400000024057
:102A2000000021100008024068030020004400401C
:102A30002C020020005C0040A086010080020020E3
:102A40000038004024030020E4020020000400407D
:102A5000687600087A760008B3760008080000203F
:102A6000CD760008E576000807B50E4B00210091F1
:102A70005A6C42F480425A645A6C02F480420092CA
:102A8000009A01911A6C42F080521A641B6C03F098
:102A9000805301930720019BFEF7E6FA03B05DF82F
:102AA00004FB00BF003802402DE9F043044689B022
:102AB0001422002103A800F0E5F92268224B9A4273
:102AC0003FD1224C224800250095236B43F004039C
:102AD0002363236B03F004030093009B0195236B96
:102AE00043F001032363236B03F001030193019B74
:102AF0004FF012094FF400734FF00108032704262A
:102B000003A90393CDF81090CDF81480069707968B
:102B1000FEF7CAFC4FF4807303A90E480393CDF867
:102B20001090CDF8148006970796FEF7BDFC02952D
:102B3000236C43F400032364236C03F40003029327
:102B4000029B09B0BDE8F083005C00400038024001
:102B50000008024000000240F0B5044689B014228B
:102B6000002103A800F08EF922681F4B9A4238D149
:102B700003F50033002400941A6C1C4842F4804290
:102B80001A641A6C02F480420092009A01941A6B43
:102B900042F004021A631A6B02F004020192019AD5
:102BA00002941A6B42F002021A631B6B03F00203D9
:102BB0000293029B0C230DEB03010227032605253C
:102BC0000393049706960795FEF76EFC4FF4806317
:102BD00003A9074803930497059406960795FEF703
:102BE00063FC09B0F0BD00BF00380040000802409F
:102BF000000402400368B3F1804F07B516D10022EC
:102C000003F50E330092196C41F0010119641B6C3D
:102C100003F0010300931C201146009BFEF736FAD7
:102C20001C20FEF767FA03B05DF804FB0A4A9342E2
:102C3000F9D10022094B0192196C41F0020119648B
:102C40001B6C03F0020301931D201146019BFEF74C
:102C50001DFA1D20E5E700BF0004004000380240D7
:102C600010B5044688B01422002103A800F00AF928
:102C70002268134B9A4220D103F5FA3300210191C7
:102C80001A6C104842F400321A641A6C02F40032D2
:102C90000192019A02911A6B42F001021A631B6BB6
:102CA00003F001030293029B0C230393022304937A
:102CB00003A907230793FEF7F7FB08B010BD00BF79
:102CC00000440040000002407047FEE7FEE7FEE7D8
:102CD000FEE7704770477047FEF7A0B90148FFF75D
:102CE0003BB800BF240300200148FFF735B800BF00
:102CF000E402002010B50C46FFF73AFD20700120D9
:102D000010BD70B50E4615460C46A31B9D4201DC56
:102D1000284670BD14F8010BFFF716FDF5E700001B
:102D200008B50A4B1968024609B9094919601868BB
:102D3000694602448A4206D900F050F80C23036029
:102D40004FF0FF3008BD1A6008BD00BFFC01002035
:102D5000AC0300204FF0FF3070474FF400534B603E
:102D6000002070470120704700207047054BD3F8C2
:102D7000882042F47002C3F888204FF000629A6005
:102D8000704700BF00ED00E0DFF834D0002103E021
:102D90000C4B5B58435004310B480C4B42189A4281
:102DA000F6D30B4A02E0002342F8043B094B9A4257
:102DB000F9D3FFF7DBFF00F017F8FFF73BFD704793
:102DC00000800120407A000800000020E00100207F
:102DD000E0010020AC030020FEE70000014B186872
:102DE000704700BF1000002070B50D4E0D4CA41BA5
:102DF000A4100025A54209D10B4E0C4C04F072FB27
:102E0000A41BA4100025A54205D170BD56F825309D
:102E100098470135EEE756F8253098470135F2E737
:102E2000387A0008387A0008387A00083C7A0008B6
:102E3000024B0146186800F07BB800BF100000206C
:102E4000024B0146186800F025B800BF10000020B2
:102E500010B501390244904201D1002010BD10F894
:102E6000013B11F8014FA342F5D0181B10BD10B55E
:102E7000431E0A44914200D110BD11F8014B03F8E2
:102E8000014FF7E702440346934200D1704703F82D
:102E9000011BF9E738B50546002945D051F8043C37
:102EA0000C1F002BB8BFE41803F0E8FA1F4A1368A0
:102EB000104633B9636014602846BDE8384003F01B
:102EC000DEBAA3420CD921686218934204BF1A6883
:102ED0005B68636004BF521822600460ECE713462D
:102EE0005A680AB1A242FAD919685818A0420BD1FF
:102EF00020680144581882421960DDD11068526878
:102F00005A6001441960D7E702D90C232B60D3E73C
:102F1000206821188A4204BF11685268626004BFA9
:102F2000091821605C60C7E738BD00BF00020020BF
:102F300070B5CD1C25F0030508350C2D38BF0C25C8
:102F4000002D064601DBA94203D90C233360002083
:102F500070BD03F093FA234A1468214691B9224CBC
:102F600023681BB9304600F039FF206029463046FF
:102F700000F034FF431C26D10C233360304603F0AD
:102F80007EFAE4E70B685B1B1AD40B2B0FD90B609E
:102F9000CD50CC18304603F072FA04F10B00231D1B
:102FA00020F00700C31A1BD05A42E25070BD8C4279
:102FB0000DBF63684B686360136018BF0C46E9E798
:102FC0000C464968CAE7C41C24F00304A04205D09B
:102FD000211A304600F002FF0130CDD02560D9E73C
:102FE00070BD00BF00020020040200202DE9FF4751
:102FF00055EC104B0D9FDDF830A0002D0E4691468C
:103000001946B8BF22462B4627F02007BBBF05F163
:1030100000431D4600232D23B8BF1446462F0B70D6
:1030200004D0452F00D10136022100E0032103AB7B
:10303000019302AB00933246534645EC104B01F02E
:10304000FFFE472F804602D119F0010F26D0462FF0
:1030500008EB060911D198F80030302B0AD1002274
:10306000002320462946FDF733FD18B9C6F10106B5
:10307000CAF80060DAF800309944002200232046A4
:103080002946FDF725FD38B93022039B994505D91E
:10309000591C03911A70F8E7CDF80C90039B0E9A17
:1030A000A3EB08034046136004B0BDE8F087F7B512
:1030B00003460029B8BF494203F8022BB4BF2D22B2
:1030C0002B220929427020DD0DF1070217460A263E
:1030D00091FBF6F506FB15113031092D02F8011CA4
:1030E00002F1FF34294609DC3031023A04F8011CB0
:1030F000BA421C4604D3201A03B0F0BD2246E7E7CB
:1031000012F8011B03F8011BF2E730221C461144A0
:1031100004F8022B5970EEE72DE9F04F8DB00C4604
:10312000DDF8588016461F46054603F023F903686C
:1031300004931846FDF754F800230A93D8F800309A
:103140000590073323F0070303F1080294F818A051
:10315000D4F800B0C8F80020D3E90023C4E9122352
:10316000D4E9128929F000430793CDF818804FF075
:10317000FF32A54BDDE90601FDF7DCFC002840F03D
:10318000FB814FF0FF32A04BDDE90601FDF7B4FCF7
:10319000002840F0F1810022002340464946FDF717
:1031A000A1FC10B12D2384F84330984B984ABAF112
:1031B000470F8CBF9046984603232BF004022361EF
:1031C00022604FF00009009733460BAA214628469B
:1031D00000F0E2F9013040F093804FF0FF300DB085
:1031E000BDE8F08F61684B1C4BF480623FD1062331
:1031F0006360002303930AAB029309AB009349EC8D
:10320000108B0DF123032260CDF804A061682846DD
:10321000FFF7ECFE0AF0DF03472B804609D1099B3C
:10322000D81C02DB6268934257DDAAF1020A5FFAFA
:103230008AFABAF1650F099934D80139524604F176
:1032400050000991FFF733FF0A9A8318012A81463B
:10325000236102DC2268D10701D5013323619DF887
:103260002330002BAFD02D2384F84330ABE7BAF1E5
:10327000670F02D0BAF1470FBBD189B10023039386
:103280000AAB029309AB009349EC108B2260CDF896
:1032900004A00DF123032846FFF7A8FE8046BEE7F1
:1032A0000123A5E7BAF1660F19D1002963680CDD87
:1032B000216113B92268D20702D501330B4423617F
:1032C000099BA3654FF00009C9E713B92268D0072D
:1032D00001D50233F3E70123F1E74FF0670A099BB9
:1032E0000A9A934205DB22682361D107E8D50133AE
:1032F000E5E7002BD4BFC3F1020301231344DEE74B
:1033000023685A0507D42369424631462846B84700
:1033100001302BD161E7BAF1650F40F2E280002263
:103320000023D4E91201FDF7D3FB00283CD0012390
:10333000384A31462846B84701303FF44EAF0A9B21
:10334000099A9A4202DB2368D8070FD5059B049A95
:1033500031462846B84701303FF43FAF4FF00008F0
:1033600004F11A090A9B013B984512DB23689B076D
:1033700009D54FF0000804F11909E3680B9A9B1A6C
:103380009845C0F2EE80E0680B9B9842B8BF1846A3
:1033900025E701234A4631462846B84701303FF425
:1033A0001CAF08F10108DDE7099B002B34DC012389
:1033B000184A31462846B84701303FF40EAF099B02
:1033C00023B90A9B13B92368D907CFD5059B049A63
:1033D00031462846B84701303FF4FFAE4FF00009B0
:1033E00004F11A0A099B5B42994501DB0A9B8BE7B2
:1033F0000123524631462846B84701303FF4EDAE2E
:1034000009F10109EEE700BFFFFFEF7F1477000825
:1034100018770008247700080A9AA36D9A42A8BF7B
:103420001A46002A914638DC04F11A034FF0000BCB
:1034300029EAE9790693D4F858A0AAEB09039B4539
:1034400033DB0A9B099A9A423ADB2368DA0737D4BE
:103450000A9B0999A3EB0A02A3EB01099145A8BFB6
:103460009146B9F1000F33DC4FF0000829EAE97901
:1034700004F11A0A099A0A9B9B1AA3EB09039845BF
:10348000BFF674AF0123524631462846B847013093
:103490003FF4A3AE08F10108ECE71346314642467B
:1034A0002846B8470130BFD197E60123069A314636
:1034B0002846B84701303FF490AE0BF1010BBAE754
:1034C000059B049A31462846B8470130C0D184E6AE
:1034D0004B4608EB0A0231462846B8470130C3D1B3
:1034E0007BE60A9A012A01DCDB0737D50123424635
:1034F00031462846B84701303FF46FAE059B049A29
:1035000031462846B84701303FF467AE0022002319
:10351000D4E91201FDF7DCFA58B14FF0000804F1CC
:103520001A0A0A9B013B98450DDB4B4604F15002F9
:10353000EBE60A9B08F10102013B31462846B847F9
:103540000130F2D149E60123524631462846B847B8
:1035500001303FF442AE08F10108E2E701234246A0
:10356000EBE701234A4631462846B84701303FF48D
:1035700034AE08F1010800E742464B464046494652
:10358000FDF7D8FA00283FF42DAE014B014A0EE6B4
:103590001C770008207700082DE9F04791461F4668
:1035A0008A680B69DDF820809342B8BF1346C9F8DA
:1035B000003091F8432006460C4612B10133C9F899
:1035C00000302368990642BFD9F800300233C9F8A9
:1035D0000030256815F0060507D104F1190AE368E3
:1035E000D9F800209B1A9D4229DB94F843302268C9
:1035F000003318BF012392062ED404F1430239464A
:103600003046C047013021D02368E568D9F8002052
:1036100003F00603042B08BFAD1AA36822690CBF90
:1036200025EAE57500259342C4BF9B1AED184FF0BB
:1036300000091A344D451BD10020BDE8F087012355
:10364000524639463046C047013003D14FF0FF3073
:10365000BDE8F0870135C2E7E1185A1C302081F837
:103660004300224494F8451082F843100233C4E723
:103670000123224639463046C0470130E6D009F1E1
:103680000109D7E72DE9F04317460A7E85B06E2A77
:10369000984606460C460C9B01F1430E00F0BC8098
:1036A0001AD8632A2ED00AD8002A00F0C880582AD7
:1036B00000F08A8004F1420584F842202AE0642A5E
:1036C00001D0692AF6D121681A6811F0800F23D041
:1036D000111D1960136827E0732A00F0B48008D820
:1036E0006F2A2AD0702AE5D10A6842F020020A60C7
:1036F00003E0752A21D0782ADCD1782284F845208D
:103700006E4964E01A6801F14205111D19601368E1
:1037100084F842300123A3E011F0400F02F10401CC
:103720001960D7D0B2F90030002B03DA2D225B42AA
:1037300084F8432062490A2217E02068196810F0D3
:10374000800F03D0081D18600B6806E010F0400FD2
:1037500001F104001860F7D00B8859496F2A14BF93
:103760000A220822002084F843006568A560002D25
:10377000C0F29C80206820F004002060002B3FD124
:10378000002D40F095807546082A0BD12368DA0792
:1037900008D5236962689A42DEBF302305F8013CF0
:1037A00005F1FF35AEEB05032361CDF800803B4604
:1037B00003AA21463046FFF7EFFE013055D14FF006
:1037C000FF3005B0BDE8F08381F845203C49226810
:1037D000186812F0800F00F104051D6001D0036825
:1037E00002E05506FBD50388D00744BF42F0200213
:1037F00022601BB9226822F0200222601022B1E769
:103800007546B3FBF2F002FB1033CB5C05F8013DCB
:1038100003460028F5D1B7E708681A68496910F02F
:10382000800F04D0101D18601368196007E010F0B5
:10383000400F02F1040018601368F6D019800023CD
:1038400023617546B1E71A68111D19601568626831
:1038500000212846FCF7CCFC08B1401B606063687F
:103860002361002384F843309FE723692A463946C1
:103870003046C0470130A2D023689B0707D50025FA
:1038800004F11909E368039A9B1A9D4205DBE0687D
:10389000039B9842B8BF184693E701234A4639462E
:1038A0003046C04701308AD00135EBE7002BA7D165
:1038B0000B7884F8423004F1420565E73777000859
:1038C000267700082DE9F04F9A468B6816465A1E57
:1038D000B2F5AE7F87B083BF6FF4AE729B180193D1
:1038E000002386BF40F25D138B6001930B6888460E
:1038F00043F4F06348F81C3B4FF0000B07460C46BE
:1039000045465A46CDF810B0CDF80CB0D946CDF8A2
:1039100008B0A16881B133681B78492B71D04DD8AC
:10392000392B40D8312B80F088802D2B00F09080EF
:1039300015D82B2B00F08C80B9F1000F03D0236831
:1039400023F480732360013A012A00F2EA8045459E
:1039500000F2DC800126304607B0BDE8F08F2E2B48
:1039600000F09F80302BE7D1206810F4807F64D076
:10397000019B20F08000206009F101091BB1013B8F
:1039800001310193A160A368013BA3602369013366
:1039900023617368013B002B736040F3AC80336894
:1039A00001333360B5E7452B00F08580462B6AD0A4
:1039B000412BC1D1012ABFD1022246E0652B7AD02A
:1039C00018D8542B66D011D84E2BB5D1002A46D129
:1039D000B9F1000F45D1216801F4E060B0F5E06F66
:1039E0003FD121F4F061216001222EE0592B1ED03D
:1039F000612BDEE76E2BE9D015D8662B43D0692BFF
:103A00009AD1BBF1000F38D1B9F1000F97D12168DD
:103A100001F4E060B0F5E06F95D121F4F061216030
:103A20004FF0010B11E0742B34D0792B84D1BBF112
:103A3000070F81D14FF0080B07E012EB0B0F7FF45B
:103A40007BAF216821F4C07121602B7001359AE7AA
:103A5000216808067FF570AF21F08001F4E7022AA3
:103A600047D0BBF1010F03D0BBF1040F7FF464AF6B
:103A70000BF1010B5FFA8BFBE7E7BBF1030FF7D00C
:103A8000BBF1050FF2E7BBF1020F7FF455AF4FF02A
:103A9000030BDAE7BBF1060F7FF44EAF4FF0070BD5
:103AA000D3E7216888057FF547AF21F420712160B5
:103AB000CDF80890C9E7216801F4A060B0F5806FE7
:103AC00006D048057FF538AFB9F1000F3FF43BAFA2
:103AD00088055CBF0298049521F4F06158BFA9EBFA
:103AE000000041F4C07158BF039021604FF00009FD
:103AF000ABE70322A9E7D4F8803105923146384676
:103B00009847059A00283FF404AF15E7D4F87C31B4
:103B100015F8011D3246384698472369013B236159
:103B200015E70BF1FF33062B0AD8BBF1020F2FD993
:103B3000ABF1030B5FFA8BFBA5EB0B0B5D4512D1D1
:103B40002368DA0545D55B0525D545457FF602AFE7
:103B5000D4F87C3115F8011D324638469847236960
:103B6000013B2361F1E7D4F87C3115F8011D3246A1
:103B7000384698472369013B2361DFE7D4F87C315D
:103B800015F8011D3246384698472369013B2361E9
:103B90004545F3D8DEE615F8011C2369652903F1D4
:103BA000FF3305F1FF3B23610DD045290BD0D4F83D
:103BB0007C31324638469847236915F8021C013B90
:103BC000A5F1020B2361D4F87C3132463846984780
:103BD0005D46266816F0100654D12E70236803F453
:103BE000C063B3F5806F1CD1029BA9EB03035A425B
:103BF00023BB00224146384600F032FF2568DAF840
:103C0000003015F0020F03F1040259EC108BCAF8D2
:103C100000201ED01B68C3E90089E3680133E3601C
:103C200099E6039B002BE4D004990A233246013124
:103C3000384600F0A5FF039B049DC21A04F26F13DF
:103C40009D4228BF04F5B7750F49284600F0DCF8FF
:103C5000CFE715F00405DDD11F6810EE102A4B46A2
:103C600010EE100A4946FCF765FF28B1284600F01F
:103C7000C5F887ED000AD0E740464946FCF7B8FF93
:103C80003860CAE7002666E6487700080FB40A4B9A
:103C900013B51C6824B1A36913B9204601F0A2FF33
:103CA00005AB049AA1680193204603F05DF902B0C8
:103CB000BDE8104004B070471000002070B50E46FB
:103CC000054618B183690BB901F08CFFAB69AC688C
:103CD00013B9284601F086FF234B9C4217D16C682C
:103CE000A3891B071DD52369DBB1013EA36816F824
:103CF000011F013BA360E9B9002B2EDA22460A21FD
:103D0000284600F04FFF013011D00A2070BD174B3C
:103D10009C4201D1AC68E3E7154B9C4208BFEC68BC
:103D2000DEE72146284600F08FFF0028DDD04FF067
:103D3000FF3070BD002B04DAA269934206DB0A292A
:103D400004D023685A1C22601970CFE72246284607
:103D500000F028FF0130C9D1E9E723680A205A1C86
:103D60002260187070BD00BFD0770008F07700089F
:103D7000B0770008024B01461868FFF79FBF00BFED
:103D80001000002038B50C46054618B183690BB900
:103D900001F028FF0E4B9C420DD16C68214628464D
:103DA00003F002FA88B96368013B636023685A1C18
:103DB0002260187838BD074B9C4201D1AC68EDE712
:103DC000054B9C4208BFEC68E8E74FF0FF3038BD78
:103DD000D0770008F0770008B077000838B5064CB7
:103DE0000023054608462360FEF79AFF431C02D1D4
:103DF000236803B12B6038BDA80300209FED010AA2
:103E0000704700BF0000C07F0EB400B59CB04FF4F7
:103E100002711DABADF81410029006906FF00041D6
:103E20000A48049107914FF6FF7153F8042BADF83F
:103E300016100068019302A902F078FF029B00228D
:103E40001A701CB05DF804EB03B07047100000203E
:103E500070B504460D4645EC104B164602F0D0FDF9
:103E600051EC100B7EB1C5F30A53C3F16B03002B69
:103E700009DD1B0503F17F55002405F54015224699
:103E80002B46FCF7BDFB70BD2DE9F04F9FB0984667
:103E90000490002340460C4615921A9302F068FAEB
:103EA00007460068FCF79CF94FF0000A05464FF002
:103EB000000B1994199B1A780D2A33D8092A37D286
:103EC000002A3FD000230993199E3378302B40F00D
:103ED00003817378582B01D0782B6BD1099B019308
:103EE0001AAB0093CDF808801BABAD4A049819A912
:103EF00001F068FF10F00704054605D0062C2BD111
:103F00000136002319960993159B002B40F09085EC
:103F1000099BE3B152460BF1004343EC102B1FB059
:103F2000BDE8F08F2B2A06D02D2A13D0202AC9D124
:103F300001331993BEE7002209925A1C19925B784B
:103F4000002BC1D1159B1994002B40F06F85524670
:103F50005B46E2E70122EFE71A9A3AB135211CA845
:103F600002F03FFE1A99049802F0BEFA013C042CBC
:103F700008D8DFE804F00C03171A0C00DDF870A075
:103F8000DDF874B02907BFD54BF0004BBCE71D9B93
:103F90001B9ADDF870A023F4801302F2334243EA47
:103FA000025BEFE7DFF804B2ECE76FF0004B4FF095
:103FB000FF3AE7E7199B5A1C19925B78302BF9D02E
:103FC000002BA1D001234FF000090893199B0A93FD
:103FD000CDF81C90CDF818900A2219980678A6F111
:103FE0003003D9B2092979D92A46396803F0A9F9E9
:103FF000002800F082800020069D334602460146DC
:10400000652B02D0452B40F0E88025B910B9089BFC
:10401000002B97D00025199C631C199363782B2BD8
:1040200000F0C8802D2B00F0CB8000260596A3F170
:104030003006092E00F2D080302B00F0C380A3F1AF
:104040003106082E00F2C980A3F1300E199B4FF003
:104050000A0C1F46199B5E1C19965B78A3F1300869
:10406000B8F1090F40F2B380F61B082E44F61F6822
:1040700002DCF045A8BFF046059E0EB1C8F100086D
:10408000002D40F0D08000287FF43EAF089A002A2F
:104090007FF43AAF00297FF455AF4E2B00F0A68095
:1040A00000F39E80492B7FF44DAF3E4919A802F0E2
:1040B000B9F800283FF446AF199B3B49013B19A8CA
:1040C000199302F0AFF810B9199B01331993DFF877
:1040D000DCB04FF0000A17E7002374E706990829BF
:1040E000DDBF079902FB0133079302FB0939069BE9
:1040F00001300133069319906FE7199B5A191992F1
:10410000069A5B5D002A48D11046302B2AD0A3F1D5
:104110003102082A00F29184199A0A92024600207C
:104120000546303B00F1010111D00A4400EB050CBB
:1041300029460A2661451BD12844082800F10105BB
:1041400025DC07980A2101FB003307930021199B06
:10415000581C19905B780846A3F130010929E0D971
:1041600001214DE7199B5A1C199201305B78CCE76D
:10417000013101F1FF3EBEF1080F03DC079F7743D9
:104180000797D7E71029D8BF06FB09F9D2E7102D0A
:10419000DCBF0A2101FB0939D8E70246069DDBE7AF
:1041A0005077000819770008A37700080000F07F17
:1041B00001212BE700230593A31C1993A37836E76D
:1041C0000123F8E7199B5E1C19965B7834E70CFB1A
:1041D0000E3EAEF1300E3DE719944FF000084FE768
:1041E000692B3FF462AF6E2B7FF4ACAE884919A8FF
:1041F00002F018F800283FF4A5AE199B1B78282B75
:104200000ED11CAA834919A802F01FF8052807D16E
:104210001D9BDDF870A043F0FF4B4BF4E00B73E601
:10422000DFF800B255E7069B0798002B08BF2B4626
:10423000102D2C46A8EB0208A8BF10240693FCF70B
:1042400069F9092C82468B4613DD734B03EBC403DB
:1042500053E91223FCF7D4F9064648460F46FCF70B
:1042600059F902460B4630463946FCF717F88246A4
:104270008B460F2D36DCB8F1000F3FF445AE24DD40
:10428000B8F1160F0BDC644D05EBC808D8E9000146
:1042900052465B46FCF7B4F982468B4634E6C5F1DC
:1042A000250398451EDC5C4CC5F10F0504EBC501E8
:1042B000A8EB050552465B46D1E9000104EBC504B5
:1042C000FCF79EF9D4E90023E4E718F1160F09DBA7
:1042D000514DA5EBC808D8E9002350465946FCF7D4
:1042E000B9FAD9E72C1B4444002C70DD14F00F03FD
:1042F0000AD0494901EBC30152465B46D1E90001AE
:10430000FCF77EF982468B4634F00F0450D0B4F5AA
:104310009A7F23DD0024254607940694049ADFF84B
:1043200008B1222313604FF0000A079B002B3FF4D3
:10433000EBAD1A99049802F0D7F80699049802F0A8
:10434000D3F82946049802F0CFF80799049802F0B0
:10435000CBF82146049802F0C7F8D5E52F4E00238C
:1043600024115046594699463746012C23DC0BB19F
:1043700082468B46ABF1547B07EBC90752465B463E
:10438000D7E90001FCF73CF921F000438B460A46CF
:104390001B0D23491B058B428246BBD8A1F580111A
:1043A0008B4286BFDFF884B04FF0FF3A02F1547BB6
:1043B000002305936DE0E20704D5D6E90023FCF75E
:1043C0001FF9012309F1010964100836CDE7EFD088
:1043D000644214F00F020AD00F4B03EBC2035046A5
:1043E0005946D3E90023FCF735FA82468B4624115F
:1043F000DED01F2C1CDD0024254607940694049A69
:1044000022234FF0000A4FF0000B13608DE700BF2E
:1044100021770008647700084878000820780008B1
:104420000000A07C0000F8FF0000F07FFFFFEF7F9E
:1044300014F0100318BF6A23A04E05935046594646
:104440000023002C00F306810BB182468B46059BAE
:10445000BBB1CBF30A53C3F16B03002B594610DDFC
:104460001F2B40F30181342BDEBF203B4FF0FF3286
:1044700002FA03F34FF0000ACCBF4FF05C7B03EA73
:10448000010B0022002350465946FCF721FB00286F
:10449000B1D1079B0093069A0A9904982B4602F023
:1044A00075F8079000283FF435AFB8F1000FC8F158
:1044B0000003A8BF00230E93002428EAE8730F939B
:1044C0002546079B0498596801F0DAFF06900028FA
:1044D0003FF424AF079B1A69023203F10C019200EA
:1044E0000C30FEF7C4FC1CAA1BA94BEC10AB0498C3
:1044F000CDE90AAB02F0FAFA1A9000283FF40EAFA9
:104500000121049802F0CEF8054600283FF406AFDA
:104510001B9E1C9A002EABBF0E9B0F9B0F9FDDF8BE
:104520003880ACBF03EB06089F1B059BF61A1644A8
:10453000634B013E9E42C2F1360280F2A8809B1B73
:104540001F2BA2EB03024FF0010900F3948009FA3C
:1045500003F31493002608EB0209059BC845174492
:104560001F444346A8BF4B46BB42A8BF3B46002B57
:10457000C2BFA9EB0309FF1AA8EB03080E9BBBB14E
:1045800029461A46049802F023F9054600283FF40C
:10459000C5AE01461A9A049802F08DF808900028DA
:1045A0003FF4BCAE1A99049801F09EFF089B1A9341
:1045B000B9F1000F6FDC0F9B002B75D1002F08DDC8
:1045C0003A460699049802F051F9069000283FF403
:1045D000A5AEB8F1000F08DD29464246049802F066
:1045E00045F9054600283FF499AE069A1A990498B1
:1045F00002F0A7F9044600283FF490AEC368089380
:104600000023C360294602F082F900285ADA089B89
:10461000E3B9BAF1000F19D1CBF31303B3B92BF0FF
:1046200000431B0D1B05B3F1D66F0FD9636913B996
:104630002369012B0ADD21460122049802F016F9B4
:104640002946044602F063F900286CDC059B002B28
:1046500076D16EE6E20704D5D6E90023FBF7D0FF5A
:10466000012364100836ECE64FF0FF3202FA03F340
:1046700003EA0A0A05E7C6F17F4606F57F0606F556
:104680007B46E23609FA06F6CDF8509063E701233F
:10469000002614935FE74A461A99049802F0E6F858
:1046A0001A90002887D139E60F9A0699049802F0EB
:1046B0008FF80690002881D130E600BF7877000897
:1046C00002FCFFFF40F08680089ACBF3130332B35D
:1046D000AD4A9342594652D1059B5046D3B1AB4A9D
:1046E0000A40B2F1D46F4FF0FF3716D8120DC2F165
:1046F0006B0307FA03F3834241D1A54A914202D1E9
:1047000001333FF40BAEA14B0B4003F5801B4FF080
:10471000000A9BE74FF0FF33EDE73B46EBE773BB47
:10472000BAF1000F2BD12BF00043059A1B0D1B058E
:10473000E2B1B3F1D66F19DCB3F15C7F7FF75FAE06
:10474000944B0D9300230C9350465946DDE90C23FE
:10475000FBF756FF82468B4600297FF4EAAD00281E
:104760007FF4E7AD049A22231360E2E5A3F58013FA
:104770006FEA135B6FEA0B5B4FF0FF3A66E79EB19F
:1047800016EA0B0F3FF462AF089B059A5046594654
:1047900073B1FFF75DFB02460B46DDE90A01FBF74B
:1047A0007DFD82468B4651E7149B13EA0A0FE9E729
:1047B000FFF74EFB02460B46DDE90A01FBF76CFDF5
:1047C0000022002382468B46FCF782F900287FF402
:1047D00016AE3BE72946204602F0D7F957EC106B9E
:1047E00000224FF0804310EE100A3946FCF784F99E
:1047F000002874D0089B002B46D0DFF89C914FF026
:104800000008654F0026614B0BEA03031493149ACA
:10481000624B9A4240F0CA80DDE90A23ABF1547B37
:104820004BEC10ABCDE90C2302F0EAF8404653EC18
:10483000102B4946FBF7E4FE52465B46FBF72EFD84
:10484000524A574B0A409A4282465CD90D9A03F16C
:1048500054739A4203D10C9B01333FF45FADDFF8F0
:1048600030B14FF0FF3A1A99049801F03DFE0699D5
:10487000049801F039FE2946049801F035FE2146DE
:10488000049801F031FE1CE6BAF1000F18D1CBF309
:104890001303E3B90022404B30463946FCF722F9B6
:1048A000D0B93046394600223E4BFBF7A9FE0646FA
:1048B0000F4607F1004316961793DDE91689A2E724
:1048C000BAF1010F03D1BBF1000F3FF498AD4FF0E7
:1048D0000008DFF8D49094E70026324FE9E7314B27
:1048E000304639460022FBF78BFE089B06460F46F2
:1048F00033B901F1004310901193DDE9108982E78B
:10490000CDE91067F9E701F1547B059B002BAAD193
:104910002BF000431B0D149A1B059A42D846A2D1D6
:1049200039463046FCF71CF9FBF704FE0B460246FD
:1049300039463046FBF7B0FC089B06460F4633B9B4
:10494000BAF1000F03D1CBF31303002B68D00AA3F5
:10495000D3E9002330463946FCF7C4F800287FF439
:10496000E8AC07A3D3E9002330463946FCF7D8F872
:1049700000283FF478AFDCE49535A094FFFFDF3FDB
:1049800035E5AF350000E03FFFFF0F000000F07F8E
:10499000FFFFEF7F000050390000F03F0000E07F94
:1049A000FFFF9F7C0000E03F0000F0BF059B1BB3B2
:1049B000149BB3F1D46F1FD825A3D3E9002330464D
:1049C0003946FCF799F890B139463046FCF7F0F8D3
:1049D000002808BF0120FBF79DFD089B06460F46F7
:1049E000DBB901F1004312901393DDE91289149AA7
:1049F00009F1D663A3EB02099DED0A0B02F000F862
:104A0000404653EC102B4946FBF7FAFDDDE90A233B
:104A1000FBF744FC82468B4677E7CDE91267E4E773
:104A20000DA3D3E90023FCF75DF8A1E70023099368
:104A3000159A199B1360FFF76BBA652B4FF00002B4
:104A40003FF4B6AB15460121FFF7DCBAAFF30080A7
:104A50000000C0FFFFFFDF419535A094FFFFCF3F6F
:104A6000054B1B6810B41B6A044C002B08BF23467F
:104A70005DF8044BFFF708BA100000207400002016
:104A80002DE9F84F8046894692461F468B465D4683
:104A90000A9815F8014B01F068FC2044467816F09E
:104AA00008060BD12D2C0BD12C7801260BF1020519
:104AB00067B1102F14D1302C0AD011E0AB46E6E7D5
:104AC0002B2C04BF2C780BF10205F1E7302C27D1F9
:104AD0002B7803F0DF03582B4BD16C78102702356D
:104AE000002E0CBF6FF000414FF000410022B1FBDF
:104AF000F7FE104607FB1E1CA4F13003092B11D84A
:104B00001C46A7421DDD531C07D0864516D301D194
:104B1000A44513DB00FB0740012215F8014BEBE72E
:104B20000A27DDE7A4F14103192B01D8373CE8E758
:104B3000A4F16103192B04D8573CE2E74FF0FF3290
:104B4000EBE7531C08D12223C8F800300846BAF11D
:104B5000000F07D1BDE8F88F06B14042BAF1000F4F
:104B60000CD022B1013DCAF80050BDE8F88F4D4687
:104B7000F9E73024002FB3D10827B1E7BDE8F88F5B
:104B800037B5064C064D2468246A002C08BF2C4615
:104B90000094FFF775FF03B030BD00BF1000002088
:104BA00074000020F8B50E461446054618B1836916
:104BB0000BB901F017F8214B9C422AD16C68A3690C
:104BC000A360A3891A072ED5236963B323692068DC
:104BD000C01A6369F6B29842374604DB214628467C
:104BE00000F084FF28BBA368013BA36023685A1C24
:104BF00022601E7063690130984204D0A389DB07EC
:104C000019D50A2E17D12146284600F06FFF90B122
:104C10000FE00B4B9C4201D1AC68D0E7094B9C42A2
:104C200008BFEC68CBE72146284600F00DF80028C5
:104C3000CCD04FF0FF373846F8BD00BFD077000822
:104C4000F0770008B0770008324B70B51D68064653
:104C50000C4625B1AB6913B9284600F0C3FF2E4BB3
:104C60009C420FD16C68B4F90C309AB215072CD461
:104C7000D00611D40922326043F04003A3814FF0E3
:104C8000FF3070BD254B9C4201D1AC68EBE7244B53
:104C90009C4208BFEC68E6E7510712D5616B41B151
:104CA00004F14403994202D03046FEF7F3F80023A2
:104CB0006363A38923F02403A38100236360236932
:104CC0002360A38943F00803A38123694BB9A38917
:104CD00003F42073B3F5007F03D02146304601F082
:104CE0007BFBA28912F001030CD00023A36063694F
:104CF0005B42A361236953B9B4F90C3013F080000F
:104D0000BAD170BD920758BF6369A360F2E7002073
:104D1000F7E700BF10000020D0770008F077000808
:104D2000B07700082DE9F74F03690C699C42804673
:104D300000F38280013C01F114074FEA840E00F178
:104D4000140657F8245056F8240006EB0E030135DC
:104D500007EB0E090193B0FBF5F595B34FF0000A90
:104D60003846B446D34650F8042B93B205FB03A350
:104D70004FEA134A9BB2ABEB0303120CBCF800B032
:104D800005FB02A213FA8BF34FEA124A1FFA82FBC9
:104D9000DCF80020CBEB124202EB23429BB243EA49
:104DA000024381454FEA224B4CF8043BDBD256F8D4
:104DB0000E3033B9019B043B9E421A4630D3C8F8EB
:104DC0001040404601F0A3FD002825DB01353046A8
:104DD0004FF0000E57F8042BD0F800C093B2AEEBA2
:104DE0000303120C13FA8CF3C2EB1C4202EB2342B6
:104DF0009BB243EA0243B9454FEA224E40F8043BD6
:104E0000E8D256F8242006EB84032AB9043B9E42DC
:104E10001A460BD3C8F81040284603B0BDE8F08FFF
:104E20001268043B002ACAD1013CC5E71268043B62
:104E3000002AEFD1013CEAE70020EEE70000000085
:104E40002DE9F04F57EC106B97B0CDE90067466A3B
:104E5000079104460A920F93209D3EB91020FDF75A
:104E6000E7FF6062466086600660C660636A196834
:104E700051B15A684A60012393408B60204601F08B
:104E800033FB636A00221A60019B002BBFBF012322
:104E90002B60019B23F00043B2BF019300232B60E2
:104EA000DDF80480A84B33EA08031BD10F9A42F2C5
:104EB0000F731360009B23B9C8F31300002800F0A0
:104EC0007885219B53B9A14B21E0A14B0293083374
:104ED000219A1360029817B0BDE8F08F9B4B0293A4
:104EE0000333F5E7DDE90067002200233046394649
:104EF000FBF7EEFD814660B10F9A01231360219B01
:104F0000002B00F05385934B219A1360013B0293D1
:104F1000E0E714AA15A947EC106B204601F0E6FD66
:104F2000C8F30A558246002D7ED0C7F3130343F021
:104F30007F51304641F44011A5F2FF35CDF848903D
:104F40000022854BFBF7A8F979A3D3E90023FBF7EF
:104F500057FB79A3D3E90023FBF7A0F906462846BF
:104F60000F46FBF7E7FA76A3D3E90023FBF748FBEC
:104F700002460B4630463946FBF790F906460F4687
:104F8000FBF7EEFD00228346002330463946FBF74F
:104F9000A9FD58B15846FBF7CDFA02460B463046FC
:104FA0003946FBF795FD08B90BF1FF3BBBF1160F36
:104FB00059D86A4901EBCB01DDE90023D1E90001B1
:104FC000FBF7AEFD002850D00BF1FF3B00230E9302
:104FD000149B5D1B6B1E069345BFC5F10103059332
:104FE000002300234CBF06930593BBF1000F3EDB6B
:104FF000069BCDF82CB05B44069300230893079BD7
:10500000092B00F2AF80052BC4BF043B0793079B1D
:10501000A3F10203CCBF00260126032B00F2AE80D1
:10502000DFE803F082842F77159B149D1D4405F261
:105030003243202B11DD009A05F21240C3F14003E8
:1050400022FA00F008FA03F31843FBF763FA01238E
:10505000A1F1F871013D129372E7C3F12000009BAA
:1050600003FA00F0F1E70123B1E70E90B0E7059BEA
:10507000A3EB0B030593CBF10003089300230B93E1
:10508000BDE7012309930A9B002B7ADD0493039368
:10509000656A00226A60042101F114029A4275D9FE
:1050A0006968204601F0ECF9636A28601B68029386
:1050B000039B0E2B00F2E580002E00F0E2809DEDB8
:1050C000007BBBF1000F8DED0C7B74DD234A0BF0F0
:1050D0000F034FEA2B1602EBC303F006D3E9008956
:1050E00059D51F4B51EC170BD3E90823FBF7B2FB43
:1050F000CDE9000106F00F060325194F002E4CD113
:1051000042464B46DDE90001FBF7A4FBCDE9000177
:105110006AE0012309930A9B5B4404930133012B4A
:105120000393B8BF0123B3E70023ABE70023F1E704
:1051300061436F63A787D23FB3C8608B288AC63F9D
:10514000FB799F501344D33F0000F07FA9770008FC
:10515000A0770008257700080000F83F487800088D
:105160002078000801260023079309964FF0FF33AB
:1051700004930393002212230A9289E701230993DF
:10518000F4E70123049303931A46F5E76A680132B2
:105190006A60490080E70225AFE7F10708D540467D
:1051A0004946D7E90023FBF72BFA013580468946AB
:1051B00076100837A2E700F09D80CBF100069F4BE8
:1051C0009F4F06F00F0203EBC203D3E90023DDE992
:1051D0000C01FBF715FACDE9000136110023022579
:1051E000002E7CD1002B91D10E9B002B00F08480EF
:1051F000DDE900890022934B40464946FBF772FCEB
:10520000002879D0039B002B76D0049B002B34DD43
:1052100000228D4B40464946FBF7F2F9CDE90001EB
:10522000049E0BF1FF3701352846FBF783F9DDE9D2
:105230000023FBF7E5F90022844BFBF72FF88046AB
:10524000A1F15079002E5AD10022814BDDE90001F5
:10525000FBF722F842464B46CDE90001FBF760FC24
:10526000002840F09B82424609F10043DDE900013D
:10527000FBF738FC002840F08F82DDE90C23CDE9F4
:105280000023159B002BC0F25081BBF10E0F00F3E1
:105290004C816A4B03EBCB03D3E900890A9B002BBB
:1052A00080F2DA80039B002B00F3D68040F07382FB
:1052B0000022674B40464946FBF7A2F9DDE900238F
:1052C000FBF724FC039E3746002840F04A82029BED
:1052D000029A5D1C312313700BF1010B45E2F207BA
:1052E00005D5D7E90023FBF78BF9013501237610AB
:1052F000083775E7022577E75F46039E94E7029A31
:105300004E4B32441392099A711E002A48D003EB87
:10531000C103D3E9002300204E49FBF79BFA424624
:105320004B46FAF7B9FF029D80468946DDE9000148
:10533000FBF716FC0646FBF7FDF802460B46DDE9D7
:105340000001FAF7A9FF303605F8016B42464B46DB
:10535000CDE90001FBF7C6FB002865D1DDE900239C
:1053600000203849FAF798FF42464B46FBF7BAFB54
:10537000002840F0BA80139B9D423FF47EAF00228C
:10538000314B40464946FBF73BF9002280468946AF
:105390002D4BDDE90001FBF733F9CDE90001C5E74D
:1053A00003EBC10142464B46D1E90001FBF728F966
:1053B000CDE91001029DDDE90001FBF7D1FB0646B6
:1053C000FBF7B8F8303602460B46DDE90001FAF784
:1053D00063FF05F8016B139BAB42804689464FF093
:1053E000000225D11B4BDDE91001FAF757FF0246F9
:1053F0000B4640464946FBF793FB002875D1DDE993
:10540000102300201349FAF747FF02460B46404697
:105410004946FBF767FB00283FF42FAF15F8013C26
:10542000302B05F1FF3201D0BB464DE01546F5E7C4
:10543000054BFBF7E5F8CDE90001BCE7487800082B
:10544000207800080000F03F0000244000001C40CD
:10545000000014400000E03FDDE90067029D424685
:105460004B4630463946FBF7F5F9FBF779FB0090E0
:10547000FBF760F842464B46FBF7C2F802460B4684
:1054800030463946FAF708FF009E039F303605F88C
:10549000016B029EAE1BB74202460B4638D1FAF7AB
:1054A000FDFE06460F4602460B4640464946FBF7C0
:1054B00019FBC8B932463B4640464946FBF708FB54
:1054C00010B1009BDB070FD45146204601F00CF8C9
:1054D00000230F9A2B700BF101031360219B002B0B
:1054E0003FF4F8AC1D60F5E45F4615F8012C392A4D
:1054F00005F1FF3306D1029A9A4207D13023137087
:10550000013713461A7801321A708DE71D46ECE711
:105510000022A44BFBF774F80022002306460F4636
:10552000FBF7D6FA00289AD0CEE7099A002A00F0B5
:10553000CD80079A012A00F3AF80129A002A00F06A
:10554000A78003F23343089E059D059A1A440592ED
:10555000069A01211A442046069201F0A3F8074654
:10556000002D0CDD069B002B09DDAB42059AA8BF80
:105570002B46D21A0592069AED1AD31A0693089B67
:10558000F3B1099B002B00F0A580002E10DD3946F9
:105590003246204601F01CF9524601460746204695
:1055A00001F089F851468046204600F09DFFC24632
:1055B000089B9A1B04D05146204601F009F9824607
:1055C0000121204601F06EF80B9B002B064640F3AC
:1055D00083801A460146204601F0FAF8079B012B0A
:1055E00006467CDD4FF00008336906EB830318693B
:1055F00001F00AF8C0F12000069B184410F01F00CB
:1056000000F09680C0F12003042B40F38780059BB7
:10561000C0F11C0003440593069B05440344069314
:10562000059B002B05DD51461A46204601F01EF968
:105630008246069B002B05DD31461A46204601F0C6
:1056400015F906460E9B002B74D03146504601F0EA
:105650005EF900286EDA002351460A22204600F047
:105660005AFF099B0BF1FF3B8246002B00F0A881FB
:10567000002339460A22204600F04DFF049B002BF0
:10568000074600F3C880079B022B40F3C48059E013
:10569000149BC3F1360356E7039B5E1E089BB3427F
:1056A000BFBF089B0896F21A0B9BB6BF9B189E1BA8
:1056B0000B93039BB8BF0026002BB9BF059B039A31
:1056C000059D039BBCBF9D1A00233EE7089E059DD8
:1056D000099F45E7089A6EE7079B012B19DC009BA1
:1056E000BBB9019BC3F313039BB9019B23F0004398
:1056F0001B0D1B0583B1059B01330593069B0133ED
:1057000006934FF001080B9B002B7FF46DAF012037
:1057100072E74FF00008F6E79846F4E780D0059A64
:105720001C331A440592069A1A441D44134676E720
:105730000346F4E7039B002B36DC079B022B33DD8B
:10574000039B0493049B63B931460522204600F075
:10575000E2FE01460646504601F0D9F800283FF720
:10576000B6AD0A9B029D6FEA030B002303933146FB
:10577000204600F0B9FE002F3FF4A6AE039B2BB1EC
:10578000BB4203D01946204600F0AEFE3946204603
:1057900000F0AAFE98E600263746E2E7BB46374609
:1057A00095E500BF00002440099B93BB039B049335
:1057B000029D31465046FFF7B5FA00F1300905F871
:1057C000019B029B049AEB1A9A4200F3DC80029B35
:1057D000012AACBF9B18013398460023039351461E
:1057E0000122204601F042F83146824601F08FF84E
:1057F000002800F38D8003D119F0010F40F088805C
:10580000454615F8013C302B05F1FF32AFD1154666
:10581000F7E7039B0493002D05DD39462A46204611
:1058200001F024F80746B8F1000F4CD07968204603
:1058300000F026FE3A6902320546920007F10C019B
:105840000C30FDF714FB01222946204601F00EF82A
:10585000009BDDF80880039703F0010307460593DA
:1058600031465046FFF75EFA0399054600F13009CC
:10587000504601F04CF83A4600903146204601F07F
:1058800060F8C368024603BB01460690504601F02B
:105890003EF8069A034611462046069300F024FE81
:1058A000069BA3B9079A92B9059A82B9B9F1390F43
:1058B00029D0009B002B01DD05F1310908F101051C
:1058C00088F8009053E73846C2E70123E3E7009ADF
:1058D000002A04DB25D1079A1ABB059A0ABB002BC4
:1058E000ECDD51460122204600F0C0FF31468246E1
:1058F00001F00DF8002803DCE0D119F0010FDDD034
:10590000B9F1390FD8D1392388F8003008F10108EE
:10591000454615F8013C392B05F1FF323BD00133E8
:1059200040E0002B08F1010505DDB9F1390FEAD09F
:1059300009F10109C4E7029B049A05F8019CEB1ADE
:105940009342A8463FF44BAF514600230A2220461B
:1059500000F0E1FD039B0399BB4282464FF0000338
:105960004FF00A02204604D100F0D5FD039007460F
:1059700076E700F0D0FD002303900A223946204646
:1059800000F0C9FDF3E7514600230A22204600F04B
:10599000C2FD82460DE7029B934205D1029A0BF1AC
:1059A000010B31231370E2E61546B2E7094BFFF70E
:1059B000AEBA219B002B7FF488AA074BFFF7A7BA4A
:1059C000049B002B3FF7F4AE079B022B7FF7F0AE52
:1059D000B8E600BF24770008A07700088A892DE97F
:1059E000F041054610070C465AD44B68002B05DCE5
:1059F0000B6C002B02DC0020BDE8F081E66A002E73
:105A0000F9D0002312F480522F682B6033D0606DE0
:105A1000A3895A0705D56368C01A636B0BB1236C61
:105A2000C01A00230246E66A216A2846B047431C92
:105A3000A38906D129681D294BD82B4ACA40D6070D
:105A400047D500226260D9042269226004D5421C35
:105A500001D12B6803B96065616B2F600029CAD042
:105A600004F14403994202D02846FDF713FA0020BE
:105A70006063BDE8F081216A01232846B047411CDC
:105A8000C6D12B68002BC3D01D2B01D0162B01D102
:105A90002F60B0E7A38943F04003A381BDE8F08104
:105AA0000F69002FA7D093070E6808BF4B690F60DE
:105AB00018BF0023A6EB07088B60B8F1000F9ADD32
:105AC00043463A46216AA66A2846B047002807DCC2
:105AD000A38943F04003A3814FF0FF30BDE8F0817C
