:020000040800F2
:100000000080012091190008211900082319000817
:100010002519000827190008291900080000000008
:100020000000000000000000000000002B19000884
:100030002D190008000000002F19000831190008D0
:10004000E1190008E1190008E1190008E1190008A8
:10005000E1190008E1190008E1190008E119000898
:10006000E1190008E1190008E1190008E119000888
:10007000E1190008E1190008E1190008E119000878
:10008000E1190008E1190008E1190008000000006A
:10009000000000000000000000000000E11900085E
:1000A000E1190008E1190008E1190008E119000848
:1000B000E1190008E1190008E1190008E119000838
:1000C000E1190008E1190008E1190008E119000828
:1000D000E1190008E1190008E1190008000000001A
:1000E000E1190008E1190008E1190008000000000A
:1000F000000000000000000000000000E1190008FE
:1001000000000000E119000835190008E119000895
:1001100000000000000000000000000000000000DF
:10012000E1190008E1190008E1190008E1190008C7
:10013000E1190008000000000000000000000000BD
:10014000000000000000000000000000E1190008AD
:10015000E1190008E1190008E1190008E119000897
:10016000E1190008E119000800000000000000008B
:10017000000000000000000000000000000000007F
:1001800000000000E119000800000000000000006D
:04019000E119000869
:1001A00010B5054C237833B9044B13B10448AFF3B1
:1001B00000800123237010BD7000002000000000AB
:1001C0009422000808B5034B1BB103490348AFF361
:1001D000008008BD00000000740000209422000888
:1001E000034613F8012B002AFBD1181A0138704777
:1001F00001F0FF01102A2BDB10F0070F08D010F8D8
:10020000013B013A8B422DD010F0070F42B3F6D1DB
:10021000F0B441EA012141EA014122F007047FF0F4
:1002200000070023F0E80256083C85EA010586EA4B
:10023000010685FA47F5A3FA87F586FA47F6A5FA87
:1002400087F68EB9EED1F0BC01F0FF0102F0070293
:1002500032B110F8013B013A83EA010313B1F8D13E
:100260000020704701387047002D06BF354603381F
:10027000073815F0010F07D1013015F4807F02BF58
:10028000013015F4C03F0130F0BC0138704700BFA9
:1002900053B94AB9002908BF00281CBF4FF0FF31ED
:1002A0004FF0FF3000F07AB9ADF1080C6DE904CEE3
:1002B00000F006F8DDF804E0DDE9022304B0704741
:1002C0002DE9F0478C460D460446089E002B51D17F
:1002D0008A4217466DD9B2FA82FEBEF1000F0BD0EA
:1002E000CEF1200C01FA0EF520FA0CFC02FA0EF702
:1002F0004CEA050C00FA0EF44FEA174A250CBCFB39
:10030000FAF81FFA87F90AFB18CC45EA0C4508FBF6
:1003100009F3AB420AD9ED1908F1FF3280F02381CD
:10032000AB4240F22081A8F102083D44ED1AA4B28C
:10033000B5FBFAF00AFB105544EA054400FB09F945
:10034000A14509D9E41900F1FF3380F00A81A145E4
:1003500040F2078102383C44A4EB090440EA08401B
:100360000021002E61D024FA0EF400233460736063
:10037000BDE8F0878B4207D9002E54D0002186E8D3
:1003800021000846BDE8F087B3FA83F1002940F068
:100390008E80AB4202D3824200F2FA80841A65EB6F
:1003A00003050120AC46002E3FD086E81010BDE8C2
:1003B000F08712B90127B7FBF2F7B7FA87FEBEF153
:1003C000000F34D1EB1B3A0C1FFA87FC0121B3FB61
:1003D000F2F8250C02FB183345EA03450CFB08F341
:1003E000AB4207D9ED1908F1FF3002D2AB4200F25F
:1003F000D1808046ED1AA3B2B5FBF2F002FB105596
:1004000043EA05440CFB00FCA44507D9E41900F1BC
:10041000FF3302D2A44500F2B8801846A4EB0C04C6
:1004200040EA08409DE731463046BDE8F087CEF10E
:10043000200405FA0EF307FA0EF720FA04F83A0C36
:1004400025FA04F448EA0308B4FBF2F14FEA184530
:1004500002FB11441FFA87FC45EA044501FB0CF33B
:10046000AB4200FA0EF409D9ED1901F1FF3080F02A
:100470008A80AB4240F2878002393D44EB1A1FFA72
:1004800088F5B3FBF2F002FB103345EA034500FBAD
:100490000CF3AB4207D9ED1900F1FF386FD2AB4234
:1004A0006DD902383D44EB1A40EA01418FE7C1F1B2
:1004B000200722FA07F88B4005FA01F448EA030303
:1004C00020FA07FE4FEA134CFD404EEA040EB5FB3E
:1004D000FCF94FEA1E440CFB19551FFA83F844EA55
:1004E000054509FB08F4AC4202FA01F200FA01FAF0
:1004F00008D9ED1809F1FF3043D2AC4241D9A9F136
:1005000002091D442D1B1FFA8EFEB5FBFCF00CFBEF
:1005100010554EEA054400FB08F8A04507D9E41839
:1005200000F1FF3529D2A04527D902381C4440EA02
:100530000940A4EB0804A0FB02894C45C6464D4681
:1005400015D312D056B1BAEB0E0364EB050404FACE
:1005500007F7CB401F43CC40376074600021BDE8F3
:10056000F0871846F8E69046E0E6C245EAD2B8EBD6
:10057000020E69EB03050138E4E72846D7E7404659
:1005800091E78146BEE7014678E702383C4445E7FB
:10059000084608E7A8F102083D442BE7704700BF72
:1005A00038B50E4A0E4B054618784FF47A73B3FBF4
:1005B000F0F31068B0FBF3F000F0AAF8044658B965
:1005C0000F2D09D8024629464FF0FF3000F05EF8A3
:1005D000044B20461D6038BD012038BD08000020B6
:1005E000000000200400002008B50B4B1A6842F4FC
:1005F00000721A601A6842F480621A601A6842F443
:1006000080721A60032000F02FF80020FFF7C8FF67
:1006100001F014F9002008BD003C0240034A044BDD
:1006200011681B780B441360704700BFA4000020C2
:1006300000000020014B1868704700BFA400002094
:1006400038B50446FFF7F6FF631C1CBF054B1B784B
:10065000054618BFE418FFF7EDFF401B8442FAD8A7
:1006600038BD00BF00000020074AD36823F4E063D0
:100670001B041B0C43F0BF63000243F4003300F47F
:10068000E0600343D360704700ED00E0174B30B5E6
:10069000DC68C4F30224C4F10703251D042B28BF22
:1006A0000423062D4FF0010505FA03F303F1FF3390
:1006B0008CBF033C00241940A14005FA04F4013C1E
:1006C0002240002842EA01024FEA0212ADBF00F1C7
:1006D000604000F00F00064B00F56140B5BFD2B29C
:1006E000D2B21A5480F8002330BD00BF00ED00E004
:1006F00014ED00E0002808DB4209012300F01F0090
:1007000003FA00F0014B43F82200704700E100E0DB
:100710000138B0F1807F0AD2064B074A5860F021B9
:1007200082F823100020072298601A607047012089
:10073000704700BF10E000E000ED00E02DE9F04F51
:1007400085B00B68DFF88C81604A01934FF0010996
:100750000023019D09FA03F42540AC4240F0A68035
:100760004C6824F0100C0CF1FF36012E4FEA430EBA
:1007700012D88768032606FA0EF627EA0607CE681F
:1007800006FA0EF63E4386604768C4F3001627EA71
:1007900005079E403E4346600326C76806FA0EF6EC
:1007A000F64307EA060A8F6807FA0EF747EA0A07D0
:1007B000BCF1020FC76016D14FEAD30A00EB8A0AD8
:1007C00003F0070BDAF820704FEA8B0B4FF00F0C99
:1007D0000CFA0BFC27EA0C0C0F6907FA0BF747EA37
:1007E0000C07CAF8207007683E4004F0030707FAB8
:1007F0000EFE4EEA06060660E60057D54FF0000BE7
:10080000CDF80CB0D8F84470314E47F48047C8F8A2
:100810004470D8F8447007F480470397039F23F08F
:10082000030707F1804707F59C3703F0030CD7F85F
:1008300008A04FEA8C0C4FF00F0E0EFA0CFEB042DF
:100840002AEA0E0E39D006F58066B04237D006F59A
:100850008066B04235D006F58066B04233D006F5EA
:100860008066B04214BF0726042606FA0CF646EA54
:100870000E06BE601668EF4314F4803F0CBF3E4086
:100880002E431660566814F4003F0CBF3E402E43C2
:100890005660966814F4801F0CBF3E402E4396604D
:1008A000D668A40254BF3E402E43D6600133102BBD
:1008B0007FF44FAF05B0BDE8F08F5E46D5E7012667
:1008C000D3E70226D1E70326CFE700BF003C014073
:1008D00000000240003802400369194214BF0120A1
:1008E000002070470AB1816170470904FBE70000EE
:1008F0002DE9F341044608B901203FE00368DD0714
:1009000010D4236898075AD423681A0700F19C80F2
:1009100023685B0700F1BA80A069002840F01B81C2
:1009200000202BE0A44B9A6802F00C02042A07D0A6
:100930009A6802F00C02082A0AD15B68590207D5AE
:100940009D4B1B689A03DCD56368002BD9D1D3E794
:100950006368994DB3F5803F13D12B6843F480331E
:100960002B60FFF767FE944D06462B689B03C8D4A7
:10097000FFF760FE801B6428F7D9032002B0BDE8B2
:10098000F081B3F5A02F04D12B6843F480232B60B2
:10099000E3E72A6822F480322A602A6822F480225F
:1009A0002A60002BDDD1FFF745FE06462B689F032A
:1009B000A7D5FFF73FFE801B6428F7D9DDE77E4B04
:1009C0009A6812F00C0F07D09A6802F00C02082AFD
:1009D00011D15B685E020ED4774B1A68950702D579
:1009E000E268012A88D11A68216922F0F80242EAF5
:1009F000C1021A6088E7E268704BB2B101221A6046
:100A0000FFF718FE6C4D06462B68980707D52B6834
:100A1000226923F0F80343EAC2032B6074E7FFF76F
:100A200009FE801B0228EFD9A7E71A60FFF702FE34
:100A3000614D06462B6899077FF566AFFFF7FAFD13
:100A4000801B0228F6D998E762695D4B7AB10122D2
:100A50001A60FFF7EFFD584D06466B6F9F073FF595
:100A600057AFFFF7E7FD801B0228F6D985E71A602C
:100A7000FFF7E0FD504D06466B6F98077FF548AFD6
:100A8000FFF7D8FD801B0228F6D976E74A4B1A6C8F
:100A900012F0805228D101921A6C42F080521A64EE
:100AA0001B6C03F080530193019B0126454D2B687D
:100AB000D9051BD5A368404D012B27D12B6F43F0DF
:100AC00001032B67FFF7B6FD3B4D074641F288381F
:100AD0002B6F9B0739D5002E3FF41EAF364A136C9F
:100AE00023F08053136417E70026DFE72B6843F4F5
:100AF00080732B60FFF79EFD07462B68DA05D9D47B
:100B0000FFF798FDC01B0228F7D936E7052B04D163
:100B10002B6F43F004032B67D0E72A6F22F001020A
:100B20002A672A6F22F004022A67002BCAD1FFF736
:100B300081FD41F2883807462B6F9807CBD5FFF728
:100B400079FDC01B4045F7D917E7FFF773FDC01BC0
:100B50004045BDD911E7184DAB6803F00C03082BD5
:100B600047D0194E00230228336035D1FFF762FDCC
:100B700007462B68990129D4226AE3691343626A04
:100B800043EA8213E26A43EA0263A26A0A4C520809
:100B9000013A43EA02436B6001233360FFF74AFDE9
:100BA000054623689A013FF5BBAEFFF743FD401BA6
:100BB0000228F6D9E1E600BF0038024000004742B3
:100BC000800E47420070004060004742FFF732FD50
:100BD000C01B0228CDD9D0E6FFF72CFD04462B68B8
:100BE0009B017FF59DAEFFF725FD001B0228F6D97E
:100BF000C3E601283FF4C2AEA868E36900F48002AE
:100C00009A427FF479AE226A00F03F0393427FF468
:100C100073AE626A47F6C073034093427FF46CAED2
:100C2000A26A00F4403393427FF466AEE36A00F0B8
:100C30007060C01A18BF0120A0E600BF134908B5B4
:100C40008B6803F00C03042B03D0082B03D010484F
:100C500008BD104808BD4A684B68496813F4800312
:100C600014BF0C480A48C1F3881118BF002302F0D2
:100C70003F02A1FB0001FFF70BFB044B5B68C3F3D2
:100C8000014301335B00B0FBF3F008BD00380240C4
:100C90000024F40000127A002DE9F0410D460446CC
:100CA00010B90120BDE8F081444B1A6802F00F0230
:100CB0008A4229D321688F072ED4C80741D43F4BDD
:100CC0001A6802F00F02954267D3226851076DD46B
:100CD000130707D53A4A2169936823F4604343EA2E
:100CE000C1039360FFF7AAFF354B364A9B68C3F3F5
:100CF0000313D35CD840344B1860344B1868FFF7AB
:100D00004FFC0020BDE8F081CAB21A701B6803F0E6
:100D10000F039942C5D1CDE7294B11F0040F1EBF37
:100D20009A6842F4E0529A600E0742BF9A6842F411
:100D300060429A609A68A06822F0F00202439A60CA
:100D4000BBE762681E4B012A1DD11B6813F4003FEC
:100D5000A7D01B4EB36823F003031343B360FFF720
:100D600069FC41F288380746B368626803F00C03F7
:100D7000B3EB820FA3D0FFF75DFCC01B4045F3D956
:100D80000320BDE8F081911E01291B6802D813F0F1
:100D9000007FDDE713F0020FDAE7EAB21A701B6892
:100DA00003F00F039D427FF47CAF8EE70449E068B7
:100DB0008B6823F4E05303438B6089E7003C0240D7
:100DC00000380240D722000808000020040000205C
:100DD000044B054A9B68C3F38223D35C034A106823
:100DE000D840704700380240E72200080800002081
:100DF000044B054A9B68C3F34233D35C034A106833
:100E0000D840704700380240E72200080800002060
:100E1000022380F83D3003689A6802F00702062A30
:100E20001EBF1A6842F001021A60012380F83D30AB
:100E300000207047704770477047704770470368DD
:100E40001A69910710B504460ED5DA6892070BD5DA
:100E50006FF002021A619B6901229B07027777D02B
:100E6000FFF7EAFF0023237723681A69500710D59C
:100E7000DA6851070DD56FF004021A619B690222EE
:100E800013F4407F2277204668D0FFF7D5FF002378
:100E9000237723681A6912070FD5DA6810070CD573
:100EA0006FF008021A61DB69042299072277204655
:100EB0005AD0FFF7C1FF0023237723681A69D206AF
:100EC00010D5DA68D0060DD56FF010021A61DB6913
:100ED000082213F4407F227720464BD0FFF7ACFF67
:100EE0000023237723681A69D10708D5DA68D20767
:100EF00005D56FF001021A612046FFF79BFF2368BA
:100F00001A69100608D5DA68110605D56FF0800257
:100F10001A61204600F077F923681A69520608D54D
:100F2000DA68500605D56FF040021A612046FFF7D7
:100F300085FF23681A69910622D5DA6892061FD5C3
:100F40006FF0200220461A61BDE8104000F05AB947
:100F5000FFF771FF2046FFF770FF83E7FFF76BFF96
:100F60002046FFF76AFF92E7FFF765FF2046FFF78D
:100F700064FFA0E7FFF75FFF2046FFF75EFFAFE7E4
:100F800010BD0000244A036890420ED0B0F1804F9B
:100F90000BD0A2F57C42904207D002F580629042CD
:100FA00003D002F58062904215D14A6823F07003A5
:100FB0001343194A904219D0B0F1804F16D0A2F5D0
:100FC0007C42904212D002F5806290420ED002F52F
:100FD000806290420AD0114A904207D002F58062A6
:100FE000904203D002F58062904203D1CA6823F494
:100FF000407313434A6923F08003134303608B68F3
:10100000C3620B688362044B984204BF0B6903639D
:1010100001234361704700BF0000014000400140D0
:1010200010B50446A0B190F83D3003F0FF021BB9A3
:1010300080F83C2000F022FC022384F83D30206838
:10104000211DFFF79FFF012384F83D30002010BDD4
:10105000012010BD10B584680A4324F47F4442EA9D
:1010600003232343836010BD90F83C30012B70B5FF
:1010700004464FF0020019D084F83D002068012397
:1010800084F83C30836823F47F4323F07703836044
:101090000B68402B65D015D8102B0CD007D853B156
:1010A0000123002084F83D3084F83C0070BD202BE3
:1010B00001D0302BF4D1826843F0070322F0700294
:1010C00013431AE0602B34D019D8502BE8D14A686A
:1010D000CE68016A056A25F001050562836921F081
:1010E0000A0123F0F00343EA06130A438361026214
:1010F000836823F0700343F057038360D0E7702BBD
:101100000CD0B3F5005FCBD1CB684A688968FFF794
:10111000A1FF2268936843F4804308E0CB684A68E3
:101120008968FFF797FF2268936843F0770393601D
:10113000B6E74D68CE68016A21F01001016282694C
:10114000036A22F4704223F0A00343EA051342EA43
:10115000063282610362836823F0700343F0670301
:10116000CBE74A68CE68016A056A25F00105056289
:10117000836921F00A0123F0F00343EA06130A43CE
:1011800083610262836823F0700343F04703B4E78E
:1011900090F83C30012B30B54FF002032DD080F891
:1011A0003D3003680D685C6824F0700401222C4314
:1011B00080F83C209A685C60114CA34212D0B3F1D5
:1011C000804F0FD0A4F57C44A3420BD004F580647B
:1011D000A34207D004F58064A34203D004F59A34F7
:1011E000A34204D1496822F080020A439A60012395
:1011F00080F83D30002380F83C30184630BD00BFF9
:10120000000001407047704738B50368C1681A692B
:10121000044622F440520A431A612569A268D9683B
:10122000C0692A43656921F416412A4321F00C0163
:1012300002430A43DA605A69A16922F440720A4300
:10124000B0F5004F5A61254A29D1934203D002F5E7
:101250008062934220D1FFF7CBFD62682568921827
:101260004FF000034FF019015B41A0FB0101FFF7B4
:101270000FF86421B0FBF1F401FB1403DB003233FF
:10128000B3FBF1F303F007025B0002EB041203F47B
:10129000F8731344AB6038BDFFF79AFDDDE7934266
:1012A00002D00F4A934216D1FFF7A2FD636825686A
:1012B00019219A00A0FB01019B0FFEF7E9FF6422B0
:1012C000B0FBF2F102FB11031B013233B3FBF2F36B
:1012D00003EB0113DEE7FFF77BFDE7E700100140BA
:1012E00000140140F8B504460E4617461D46216815
:1012F0000B6836EA030301D10020F8BD6B1CF7D060
:1013000095B92368DA6822F4D072DA605A6922F05B
:1013100001025A61202384F8393084F83A300023DE
:1013200084F838300320F8BDFFF784F9C01B8542EC
:10133000DDD2E6E710B5044640B390F8393003F04B
:10134000FF021BB980F8382000F0B6FA2268242387
:1013500084F83930D36823F40053D3602046FFF774
:1013600053FF23681A6922F490421A615A6922F0E5
:101370002A025A61DA6842F40052DA60002020231F
:10138000E06384F8393084F83A3010BD012010BD94
:101390002DE9F8431F4690F83930202B04460D46BE
:1013A000904651D100294CD0002A4AD090F83830CC
:1013B000012B49D0012380F838304FF00009212358
:1013C000C0F83C9080F83930FFF734F9A4F8248055
:1013D0000646A4F8268084F83890E38C9BB25BB96B
:1013E0003B46324640212046FFF77CFFA0B9202330
:1013F00084F83930BDE8F883E38C013B9BB2E38489
:10140000A368B3F5805F32463B464FF0800120462B
:101410000ED1FFF767FF10B10320BDE8F8832B88DA
:101420002268C3F308035360236943B90235D4E744
:10143000FFF758FF0028EFD123682A785A6001355A
:10144000CBE70120BDE8F8830220BDE8F88330B582
:1014500087B004460D461422002101A800F0ECFAE2
:10146000012301A9204601950293FFF767F907B010
:1014700030BD30B587B004460D461422002101A8C6
:1014800000F0DAFA012301A9204601950393FFF742
:1014900055F907B030BD0000034B1B6800225A62AB
:1014A0005A6A8242FCD37047AC00002010B5104C41
:1014B0004FF400412046FFF7CAFF00224FF40041DD
:1014C0002046FFF70FFA44F25060FFF7E5FF4FF4B4
:1014D000004120460122FFF705FA1420FFF7DCFF48
:1014E00020464FF40041BDE81040FFF7C2BF00BFE7
:1014F0000000024038B52820FFF7CEFF4FF400412E
:101500000D48FFF7E9F9A8B95020FFF7C5FF4FF4E0
:1015100000410948FFF7E0F9002814BF0124FF2427
:10152000054D4FF400412846FFF7D6F90028F8D1C1
:10153000204638BD0024F3E70000024070B5134E8A
:10154000002407254FF400413046FFF7C5F9002875
:10155000F8D02820FFF7A0FF4FF400413046FFF7F6
:10156000BBF90123AB4068B924EA03044FF40041FE
:101570003046FFF7B1F90028F8D115F1FF35E1D277
:10158000204670BD1C43E4B2F0E700BF00000240FB
:1015900070B594B03022002108A800F04DFA002167
:1015A000142203A800F048FA00241D4B01941A6C81
:1015B00042F080521A641B6C1A4A03F08053019364
:1015C000019B0294136823F4404343F400431360E7
:1015D000136803F440430293029B4FF4A023099342
:1015E0004FF480030F930423109332230225012626
:1015F000119308A80723139308960E951295FFF7E9
:1016000077F90F23039331464FF4805303A80495D1
:10161000059406930794FFF73FFB14B070BD00BF1D
:10162000003802400070004080B5ADF5FE6DFEF759
:10163000DBFFFFF7ADFF1422002108A800F0FCF942
:1016400000246A4B02941A6B69486A4D6A4EDFF8AF
:10165000E88142F004021A631A6B02F0040202925B
:10166000029A03941A6B42F080021A631A6B02F01A
:1016700080020392039A04941A6B42F001021A63E7
:101680001A6B02F001020492049A05941A6B42F05C
:1016900002021A631B6B03F002032246059320210A
:1016A000059BFFF71FF94FF40053089308A9534B0C
:1016B000534809930A94FFF741F82023089308A997
:1016C00001234B4809930A940B94FFF737F84FF422
:1016D000004308A94648089309940A94FFF72EF896
:1016E000484AAC604FF4E13385E80C0028460C23EF
:1016F0006B61EC602C61AC61EC61FFF71BFE1022AA
:10170000214608A800F098F93F49B460312386E8E3
:101710000A0030464FF6FE73F3603461B4610694FC
:101720000794FFF77DFC4FF4805308A930460893D7
:10173000FFF79AFC06A9304606940794FFF728FDA8
:101740003046FFF765FB3149314E08A800F0A0F99B
:1017500008A8FEF745FD4FF47A7382B208A928461F
:10176000FFF716FE2B4D2C4F2C4CFFF79FFEFFF77B
:10177000C1FE88F80000FFF7E1FE3070FFF7DEFEE3
:101780002870FFF7DBFE3870FFF7D8FE2070FFF7F8
:10179000D5FE234B39781880224B234A198007EE57
:1017A000901A33781380F8EE677A204AC2ED007AF7
:1017B00007EE903A1E4AF8EE677A08A8C2ED007A62
:1017C0002A780191217800911A4900F03DF908A882
:1017D000FEF706FD4FF47A7382B208A90548FFF7B9
:1017E000D7FD4FF47A70FEF72BFFBCE700380240BC
:1017F00000000240F0000020AC000020000021109A
:101800000008024000440040000C0040AC220008E8
:10181000A8000020EF000020EE0000203201002090
:1018200030010020EC000020AA00002094000020DD
:101830008C000020BB2200089000002007B50E4B52
:10184000002100915A6C42F480425A645A6C02F4AE
:1018500080420092009A01911A6C42F080521A6400
:101860001B6C03F0805301930720019BFEF7FCFEE5
:1018700003B05DF804FB00BF0038024007B50D4B14
:1018800002689A4213D1002203F50B330192196CBE
:1018900041F0080119641B6C03F008030193322026
:1018A0001146019BFEF7F2FE3220FEF723FF03B044
:1018B0005DF804FB000C004010B5044688B014220B
:1018C000002103A800F0B8F82268134B9A4220D1F7
:1018D00003F5FA33002101911A6C104842F40032EA
:1018E0001A641A6C02F400320192019A02911A6B86
:1018F00042F001021A631B6B03F001030293029B87
:101900000C2303930223049303A907230793FEF7F1
:1019100015FF08B010BD00BF0044004000000240A9
:101920007047FEE7FEE7FEE7FEE770477047704747
:10193000FEF774BE0148FFF782BA00BFAC0000207A
:1019400008B50A4B1968024609B9094919601868AF
:10195000694602448A4206D900F044F80C23036029
:101960004FF0FF3008BD1A6008BD00BF980000208E
:1019700038010020054BD3F8882042F47002C3F8E8
:1019800088204FF000629A60704700BF00ED00E0D1
:10199000DFF834D0002103E00C4B5B584350043196
:1019A0000B480C4B42189A42F6D30B4A02E0002334
:1019B00042F8043B094B9A42F9D3FFF7DBFF00F0F2
:1019C00017F8FFF731FE704700800120342300082C
:1019D000000000207000002070000020380100206E
:1019E000FEE70000014B1868704700BF0C000020A4
:1019F00070B50D4E0D4CA41BA4100025A54209D1B5
:101A00000B4E0C4C00F046FCA41BA4100025A54274
:101A100005D170BD56F8253098470135EEE756F8E8
:101A2000253098470135F2E72C2300082C230008C5
:101A30002C2300083023000802440346934200D1BF
:101A4000704703F8011BF9E70EB400B59CB04FF4E2
:101A500002711DABADF81410029006906FF00041BA
:101A60000A48049107914FF6FF7153F8042BADF823
:101A700016100068019302A900F06EF8029B002284
:101A80001A701CB05DF804EB03B070470C00002026
:101A9000034611F8012B03F8012B002AF9D17047F6
:101AA0002DE9F0478E689E4282460C469146984644
:101AB00035D88A8912F4906F31D0256809696F1A78
:101AC0006569022305EB450595FBF3F508F1010374
:101AD0003B449D4238BF1D46530531D5294600F091
:101AE00039FB064650B90C23CAF80030A38943F0ED
:101AF0004003A3814FF0FF30BDE8F0873A462169EB
:101B000000F0B4FAA38923F4906343F08003A38127
:101B1000266165613E44ED1B2660A560464646454C
:101B200028BF464632464946206800F0AAFAA36814
:101B30009B1BA36023681E4426600020BDE8F0873D
:101B40002A4600F065FB06460028E1D1216950468F
:101B500000F0B2FAC7E700002DE9F04F9DB08046D3
:101B600003938B891C060D4616460FD50B696BB97E
:101B7000402100F0EFFA2860286128B90C23C8F84A
:101B800000304FF0FF30C5E040236B610023099324
:101B900020238DF8293030238DF82A304FF0010BA7
:101BA00037463C4614F8013B002B3CD1B7EB060A04
:101BB0000BD05346324629464046FFF771FF0130AD
:101BC00000F0A380099B534409933B78002B00F05D
:101BD0009C8000234FF0FF320493079305920693F5
:101BE0008DF853301A93052221785048FEF700FBF8
:101BF000671C049BD8B9D90644BF20228DF8532016
:101C00001A0744BF2B228DF8532022782A2A16D097
:101C1000079A00210A20274601343B78303B092BE4
:101C200051D9C9B111E0252BC0D02746B9E73F4AA9
:101C3000801A0BFA00F0184304903C46D3E7039A4D
:101C4000111D12680391002A01DB079204E0524241
:101C500043F00203079204933B782E2B0ED17B783E
:101C60002A2B07F1010132D1039B1A1D1B68039235
:101C7000002BB8BF4FF0FF33023705932C4C397857
:101C800003222046FEF7B4FA38B14023001B03FAC2
:101C900000F0049B034304930137397825488DF8FD
:101CA000281006227E1CFEF7A3FA002835D0224B0E
:101CB000FBB9039B073323F0070308330393099B06
:101CC0004B4409936CE700FB02320121A3E7002398
:101CD000059318460A240F4601313A78303A092A0A
:101CE00003D9002BCAD00590C8E704FB00200123CC
:101CF000F1E703AB00932A46104B04A94046AFF32B
:101D00000080B0F1FF3F8146D9D1AB895B063FF53A
:101D100038AF09981DB0BDE8F08F03AB00932A4699
:101D2000064B04A9404600F081F8EAE7EF220008DC
:101D3000F5220008F922000800000000A11A00089E
:101D40002DE9F04791461F468A680B69DDF820802F
:101D50009342B8BF1346C9F8003091F843200646B5
:101D60000C4612B10133C9F800302368990642BF0E
:101D7000D9F800300233C9F80030256815F006059F
:101D800007D104F1190AE368D9F800209B1A9D4293
:101D900029DB94F843302268003318BF01239206F0
:101DA0002ED404F1430239463046C047013021D0D9
:101DB0002368E568D9F8002003F00603042B08BF68
:101DC000AD1AA36822690CBF25EAE5750025934288
:101DD000C4BF9B1AED184FF000091A344D451BD1B2
:101DE0000020BDE8F0870123524639463046C047FF
:101DF000013003D14FF0FF30BDE8F0870135C2E775
:101E0000E1185A1C302081F84300224494F8451010
:101E100082F843100233C4E7012322463946304694
:101E2000C0470130E6D009F10109D7E72DE9F043B9
:101E300017460A7E85B06E2A984606460C460C9BCD
:101E400001F1430E00F0BC801AD8632A2ED00AD8C4
:101E5000002A00F0C880582A00F08A8004F1420568
:101E600084F842202AE0642A01D0692AF6D1216848
:101E70001A6811F0800F23D0111D1960136827E034
:101E8000732A00F0B48008D86F2A2AD0702AE5D1CE
:101E90000A6842F020020A6003E0752A21D0782AFD
:101EA000DCD1782284F845206E4964E01A6801F19B
:101EB0004205111D1960136884F842300123A3E024
:101EC00011F0400F02F104011960D7D0B2F90030CF
:101ED000002B03DA2D225B4284F8432062490A2258
:101EE00017E02068196810F0800F03D0081D1860F3
:101EF0000B6806E010F0400F01F104001860F7D005
:101F00000B8859496F2A14BF0A220822002084F83E
:101F100043006568A560002DC0F29C80206820F019
:101F200004002060002B3FD1002D40F095807546C5
:101F3000082A0BD12368DA0708D5236962689A4218
:101F4000DEBF302305F8013C05F1FF35AEEB05039C
:101F50002361CDF800803B4603AA21463046FFF7B7
:101F6000EFFE013055D14FF0FF3005B0BDE8F083F2
:101F700081F845203C492268186812F0800F00F172
:101F800004051D6001D0036802E05506FBD50388F7
:101F9000D00744BF42F0200222601BB9226822F021
:101FA000200222601022B1E77546B3FBF2F002FB7B
:101FB0001033CB5C05F8013D03460028F5D1B7E7A7
:101FC00008681A68496910F0800F04D0101D186065
:101FD0001368196007E010F0400F02F10400186068
:101FE0001368F6D01980002323617546B1E71A689B
:101FF000111D19601568626800212846FEF7F8F87F
:1020000008B1401B606063682361002384F843309B
:102010009FE723692A4639463046C0470130A2D09F
:1020200023689B0707D5002504F11909E368039A83
:102030009B1A9D4205DBE068039B9842B8BF184697
:1020400093E701234A4639463046C04701308AD0DB
:102050000135EBE7002BA7D10B7884F8423004F16F
:10206000420565E7112300080023000810B5431E50
:102070000A44914200D110BD11F8014B03F8014F01
:10208000F7E7884210B501EB020303D8421E9942DC
:102090000CD110BD9842F9D28118D21AD34200D186
:1020A00010BD13F8014D01F8014DF7E711F8014B90
:1020B00002F8014FEBE7000038B50546002945D08E
:1020C00051F8043C0C1F002BB8BFE41800F0D6F800
:1020D0001F4A1368104633B9636014602846BDE890
:1020E000384000F0CCB8A3420CD921686218934262
:1020F00004BF1A685B68636004BF52182260046002
:10210000ECE713465A680AB1A242FAD9196858187E
:10211000A0420BD120680144581882421960DDD1D9
:10212000106852685A6001441960D7E702D90C233D
:102130002B60D3E7206821188A4204BF11685268D7
:10214000626004BF091821605C60C7E738BD00BF4A
:102150009C00002070B5CD1C25F0030508350C2D22
:1021600038BF0C25002D064601DBA94203D90C23FC
:102170003360002070BD00F081F8234A14682146C6
:1021800091B9224C23681BB9304600F067F82060F3
:102190002946304600F062F8431C26D10C233360F8
:1021A000304600F06CF8E4E70B685B1B1AD40B2B8D
:1021B0000FD90B60CD50CC18304600F060F804F118
:1021C0000B00231D20F00700C31A1BD05A42E25017
:1021D00070BD8C420DBF63684B686360136018BFAD
:1021E0000C46E9E70C464968CAE7C41C24F003041E
:1021F000A04205D0211A304600F030F80130CDD091
:102200002560D9E770BD00BF9C000020A000002021
:10221000F8B5074614460E4621B91146BDE8F84008
:10222000FFF798BF22B9FFF747FF25462846F8BDBC
:1022300000F026F884420FD921463846FFF78AFF7E
:1022400005460028F2D031462246FFF70FFF3146FF
:102250003846FFF731FFE9E73546E7E738B5064C82
:102260000023054608462360FFF76AFB431C02D1A2
:10227000236803B12B6038BD3401002070477047DC
:1022800051F8040C0028A0F10400BCBF0B58C01882
:1022900070470000F8B500BFF8BC08BC9E46704708
:0C22A000F8B500BFF8BC08BC9E467047B3
:1022AC0068656C6C6F206868686868680A0D000A5D
:1022BC000D2052483A2D2025642E25642054454D7E
:1022CC00503A2D2025642E256420000000000000CB
:1022DC0000000001020304060708090000000001C9
:1022EC00020304232D302B2000686C4C00656667BC
:1022FC004546470030313233343536373839414270
:10230C004344454600303132333435363738396141
:08231C006263646566000000C5
:082324009CDFFF7F01000000B7
:04232C00C5010008DF
:04233000A1010008FF
:1023340001000000100000000024F4001000002040
:102344000000000000000000000000000000000089
:102354000000000000000000000000000000000079
:102364000000000000000000000000000000000069
:102374000000000000000000000000000000000059
:102384000000000000000000000000000000000049
:102394000000000000000000000000000000000039
:040000050800199145
:00000001FF
