:020000040800F2
:10000000000008200D2F0008A92E0008AB2E0008C4
:10001000AD2E0008AF2E0008B12E00080000000031
:10002000000000000000000000000000B32E0008E7
:10003000B52E000800000000B72E0008B92E0008F9
:100040005D2F00085D2F00085D2F00085D2F000860
:100050005D2F00085D2F00085D2F00085D2F000850
:100060005D2F00085D2F00085D2F00085D2F000840
:100070005D2F00085D2F00085D2F00085D2F000830
:100080005D2F00085D2F00085D2F00085D2F000820
:100090005D2F00085D2F00085D2F00085D2F000810
:1000A0005D2F00085D2F00085D2F00085D2F000800
:1000B0005D2F00085D2F00085D2F00085D2F0008F0
:1000C0005D2F00085D2F00085D2F00085D2F0008E0
:1000D0005D2F00085D2F00085D2F00085D2F0008D0
:1000E0005D2F00085D2F00085D2F00085D2F0008C0
:1000F0005D2F00085D2F00085D2F00085D2F0008B0
:100100005D2F00085D2F00085D2F00085D2F00089F
:100110005D2F00085D2F00085D2F00085D2F00088F
:100120005D2F00085D2F00085D2F00085D2F00087F
:100130005D2F00085D2F00085D2F00085D2F00086F
:100140005D2F00085D2F00085D2F00085D2F00085F
:100150005D2F00085D2F00085D2F00085D2F00084F
:100160005D2F00085D2F00085D2F00085D2F00083F
:100170005D2F00085D2F00085D2F000800000000C3
:100180005D2F00085D2F00085D2F00085D2F00081F
:100190005D2F00085D2F00085D2F00085D2F00080F
:1001A0005D2F00085D2F00085D2F00085D2F0008FF
:1001B0005D2F00085D2F00085D2F00085D2F0008EF
:1001C0005D2F00085D2F0008000000005D2F000873
:1001D0005D2F00085D2F00085D2F00085D2F0008CF
:1001E0005D2F00085D2F00085D2F00085D2F0008BF
:0801F0005D2F00085D2F0008DF
:1002000010B5054C237833B9044B13B10448AFF350
:1002100000800123237010BD7C000220000000003C
:100220001038000808B5034B1BB103490348AFF36E
:10023000008008BD00000000800002201038000887
:10024000034613F8012B002AFBD1181A0138704716
:1002500001F0FF01102A2BDB10F0070F08D010F877
:10026000013B013A8B422DD010F0070F42B3F6D17B
:10027000F0B441EA012141EA014122F007047FF094
:1002800000070023F0E80256083C85EA010586EAEB
:10029000010685FA47F5A3FA87F586FA47F6A5FA27
:1002A00087F68EB9EED1F0BC01F0FF0102F0070233
:1002B00032B110F8013B013A83EA010313B1F8D1DE
:1002C0000020704701387047002D06BF35460338BF
:1002D000073815F0010F07D1013015F4807F02BFF8
:1002E000013015F4C03F0130F0BC0138704700BF49
:1002F00053B94AB9002908BF00281CBF4FF0FF318D
:100300004FF0FF3000F07AB9ADF1080C6DE904CE82
:1003100000F006F8DDF804E0DDE9022304B07047E0
:100320002DE9F0478C460D460446089E002B51D11E
:100330008A4217466DD9B2FA82FEBEF1000F0BD089
:10034000CEF1200C01FA0EF520FA0CFC02FA0EF7A1
:100350004CEA050C00FA0EF44FEA174A250CBCFBD8
:10036000FAF81FFA87F90AFB18CC45EA0C4508FB96
:1003700009F3AB420AD9ED1908F1FF3280F023816D
:10038000AB4240F22081A8F102083D44ED1AA4B22C
:10039000B5FBFAF00AFB105544EA054400FB09F9E5
:1003A000A14509D9E41900F1FF3380F00A81A14584
:1003B00040F2078102383C44A4EB090440EA0840BB
:1003C0000021002E61D024FA0EF400233460736003
:1003D000BDE8F0878B4207D9002E54D0002186E873
:1003E00021000846BDE8F087B3FA83F1002940F008
:1003F0008E80AB4202D3824200F2FA80841A65EB0F
:1004000003050120AC46002E3FD086E81010BDE861
:10041000F08712B90127B7FBF2F7B7FA87FEBEF1F2
:10042000000F34D1EB1B3A0C1FFA87FC0121B3FB00
:10043000F2F8250C02FB183345EA03450CFB08F3E0
:10044000AB4207D9ED1908F1FF3002D2AB4200F2FE
:10045000D1808046ED1AA3B2B5FBF2F002FB105535
:1004600043EA05440CFB00FCA44507D9E41900F15C
:10047000FF3302D2A44500F2B8801846A4EB0C0466
:1004800040EA08409DE731463046BDE8F087CEF1AE
:10049000200405FA0EF307FA0EF720FA04F83A0CD6
:1004A00025FA04F448EA0308B4FBF2F14FEA1845D0
:1004B00002FB11441FFA87FC45EA044501FB0CF3DB
:1004C000AB4200FA0EF409D9ED1901F1FF3080F0CA
:1004D0008A80AB4240F2878002393D44EB1A1FFA12
:1004E00088F5B3FBF2F002FB103345EA034500FB4D
:1004F0000CF3AB4207D9ED1900F1FF386FD2AB42D4
:100500006DD902383D44EB1A40EA01418FE7C1F151
:10051000200722FA07F88B4005FA01F448EA0303A2
:1005200020FA07FE4FEA134CFD404EEA040EB5FBDD
:10053000FCF94FEA1E440CFB19551FFA83F844EAF4
:10054000054509FB08F4AC4202FA01F200FA01FA8F
:1005500008D9ED1809F1FF3043D2AC4241D9A9F1D5
:1005600002091D442D1B1FFA8EFEB5FBFCF00CFB8F
:1005700010554EEA054400FB08F8A04507D9E418D9
:1005800000F1FF3529D2A04527D902381C4440EAA2
:100590000940A4EB0804A0FB02894C45C6464D4621
:1005A00015D312D056B1BAEB0E0364EB050404FA6E
:1005B00007F7CB401F43CC40376074600021BDE893
:1005C000F0871846F8E69046E0E6C245EAD2B8EB76
:1005D000020E69EB03050138E4E72846D7E74046F9
:1005E00091E78146BEE7014678E702383C4445E79B
:1005F000084608E7A8F102083D442BE7704700BF12
:1006000038B50E4B05460E4A18784FF47A73B3FB93
:10061000F0F31068B0FBF3F000F090F8044658B91E
:100620000F2D09D8024629464FF0FF3000F04EF852
:10063000044B20461D6038BD012038BD000002205B
:10064000140002200400022008B5032000F02CF85A
:100650000020FFF7D5FF02F0D9FA002008BD000006
:10066000034A044B11681B780B441360704700BFAA
:10067000A400022000000220014B1868704700BF50
:10068000A400022038B50446FFF7F6FF0546631CB8
:100690001EBF044B1B78E418FFF7EEFF401B84429B
:1006A000FAD838BD00000220074A0002D36800F4DF
:1006B000E06023F4E0631B041B0C43F0BF6343F4CE
:1006C00000330343D360704700ED00E0194B30B5B1
:1006D000DC68C4F30224C4F10703251D042B28BFE2
:1006E0000423062D4FF001058CBF033C002405FABE
:1006F00003F3002803F1FF3301EA030101FA04F1D7
:1007000005FA04F404F1FF3402EA040242EA0102A9
:100710004FEA021207DB00F16040D2B200F56140FF
:1007200080F8002330BD00F00F00D2B2024B1A5403
:1007300030BD00BF00ED00E014ED00E00138B0F185
:10074000807F0AD2064BF021064A5860002082F8CA
:100750002310072298601A6070470120704700BF7D
:1007600010E000E000ED00E070B5044629B14FF460
:100770000063C3604FF480438360E3692268002B09
:10078000E068A368156808BF4FF4806143EA00037E
:100790002E4818BF0021284043F400730343012072
:1007A0000B4313601568FFF76DFF2368402201209B
:1007B0001D605A605D68FFF765FF236801205D607A
:1007C00000259D60DD609A6922F0BE021204120CC1
:1007D00042F080029A619E69FFF754FF236801206E
:1007E0009E61DD61DD69FFF74DFF22680120184B36
:1007F000D56141F2180551590B4043F0087343F09D
:10080000040353515659FFF73DFF23680120114A55
:100810005E5103F580531A601D68FFF733FF2268AD
:1008200002F580531D60A369012B07D141F21C0121
:10083000535843F4803343F0400353506369064AEE
:10084000998811601A68054B1A6070BD0F8120FFEE
:10085000233FDEF88020C1024080024044800240F5
:10086000F8B590F8443005461646822B30D0026821
:100870008223890180F84430136901F4F86403F09D
:100880001C012143048AE402A4B20C4344F0010495
:100890001461FFF7F1FE074614F0010007D12B6841
:1008A0005B699BB23360012385F84430F8BDFFF7E4
:1008B000E3FEC01BB0F5803F07D30123032085F87A
:1008C0004430002385F84530F8BD2B681C69E3E708
:1008D0000220F8BD90F84430422B70B505462ED06A
:1008E00042238C0192B280F8443004F4F864036827
:1008F00044F00304186900F01C0020432C8A5A615C
:10090000E402A4B204431C61FFF7B6FE064614F0ED
:10091000010003D1012385F8443070BDFFF7ACFE20
:10092000801BB0F5803F07D30123032085F84430B6
:10093000002385F8453070BD2B681C69E7E702206D
:1009400070BD00000023F7B504460093002800F0B6
:10095000DC8090F8443003F0FF021BB980F845209A
:1009600002F06CF96A4B5A6C42F480425A645B6C38
:1009700003F480430193019B664B5A6822F4000202
:100980005A605A68216A0A435A60236803F5805303
:100990001A6842F001021A60FFF76EFE05462368EE
:1009A00003F580521268D0071DD41D6901F00CF8C0
:1009B000594B5A4A25F01C050344934222D845F06E
:1009C000080523684FF40042002120461D61FFF70F
:1009D00081FF054668B3012501212046FFF7C4FECB
:1009E00084F844500BE0FFF747FE401BB0F5FA7F58
:1009F000D5D90325002384F8445084F8453028468F
:100A000003B0F0BD464B474A0344934202D845F039
:100A10000C05D6E7444B454A03449342D1D9444B95
:100A2000444A0344934294BF45F0040545F0100541
:100A3000C7E7FF20FFF726FE6368002B53D0FFF7C0
:100A40001BFE41F2883706466A4601212046FFF721
:100A500007FFFFF711FE801BB8420BD9012120468A
:100A6000FFF782FE0123032584F84430002384F835
:100A70004530C4E7009B5907E6D54FF4805200216A
:100A80002046FFF727FF0028A5D1FFF7F5FD41F22B
:100A9000883706466A4601212046FFF7E1FEFFF748
:100AA000EBFD801BB842D9D8009B9A06F2D56A4666
:100AB0001F212046FFF7D4FE00288CD1009B13F0A5
:100AC000100218BF4FF400625B074CBF00234FF4C5
:100AD0008043E260A36000212046FFF745FE01232A
:100AE00084F844308BE7A3682946E26820465B0817
:100AF00043EAD20292B2FFF7EDFE00287FF46BAF1B
:100B000040F6FF70FFF7BEFDE5E7012577E700BF80
:100B1000003802400038014000D3CEFEBFE1E400BF
:100B200040F1E9FD3F787D0100796CFCFF596202DC
:100B3000001F0AFA7FF0FA022DE9F04F0B6885B02A
:100B4000DFF8C081019300236C4ADFF8BC910124D7
:100B5000019D9C402540AC4240F0B6804C684FEA75
:100B6000430E24F0100C0CF1FF36012E12D8032690
:100B7000876806FA0EF627EA0607CE6806FA0EF62A
:100B80003E438660C4F3001647689E4027EA050787
:100B90003E4346600326C768BCF1020F06FA0EF614
:100BA0006FEA060607EA060A8F6807FA0EF747EAB1
:100BB0000A07C76016D14FEAD30A03F0070B4FF0BC
:100BC0000F0C00EB8A0A4FEA8B0BDAF820700CFA54
:100BD0000BFC27EA0C0C0F6907FA0BF747EA0C0726
:100BE000CAF8207007683E4004F0030707FA0EFEBB
:100BF0004EEA06060660E60066D5D8F8446023F0A3
:100C0000030703F0030E4FF00F0C46F4804607F184
:100C100080474FEA8E0EC8F8446007F59C37D8F835
:100C2000446006F480460396039E0CFA0EF6D7F84D
:100C300008A02AEA060C324EB0424CD006F5806677
:100C4000B0424AD006F58066B04248D006F58066CC
:100C5000B04246D006F58066B04244D0484544D004
:100C600006F50066B04242D006F58066B04240D03C
:100C700006F58066B0423ED006F58066B04214BFED
:100C80000A26092606FA0EF614F4803F46EA0C06F8
:100C9000BE606FEA050716680CBF3E402E4314F491
:100CA000003F166056680CBF3E402E4314F4801F70
:100CB000566096680CBF3E402E43A4029660D668EC
:100CC00054BF3E402E43D6600133102B7FF43FAF1C
:100CD00005B0BDE8F08F0026D4E70126D2E7022652
:100CE000D0E70326CEE70426CCE70526CAE706268A
:100CF000C8E70726C6E70826C4E700BF003C014056
:100D00000000024000380240001402400AB1816134
:100D100070470904FBE743690B4218BF090481616E
:100D2000704703689A69910701D500229A629A690F
:100D3000D20703D49A6942F001029A61704730B534
:100D4000039CC1F3090105682343640D686804F43A
:100D50008064194344F07F7441EA024144F45834FA
:100D600044F47F7444F0030420EA040421436960DE
:100D700030BD2DE9F041069F0446884616461D46C3
:100D80002268936938EA03030CBF01230023B342AE
:100D900002D00020BDE8F0816B1CF2D0FFF76CFCA4
:100DA000C01B854201D3002DEAD1636C012043F0C2
:100DB00020036364202384F84130002384F8423008
:100DC00084F84030BDE8F081036870B50446986946
:100DD0000D46164610F0100016D170BD691C14D0D7
:100DE000FFF74AFC801B854200D36DB9636C43F06A
:100DF00020036364202384F841300023012084F819
:100E0000423084F8403070BD236899698A06E5D580
:100E1000102220252046DA61DD61FFF782FF22687B
:100E2000536823F0FF7323F48B3323F4FF7323F011
:100E300001035360636C43F00403636484F841501E
:100E4000DBE770B504460D46164623689B699B0791
:100E500001D5002070BD324629462046FFF7B4FF79
:100E6000A0B96A1CF1D0FFF707FC801B854201D3B3
:100E7000002DEAD1636C43F020036364202384F8DF
:100E80004130002384F8423084F84030012070BDA6
:100E900070B504460D46164623689B699B0601D52E
:100EA000002070BD324629462046FFF78DFF90B9DD
:100EB000FFF7E2FB801B854201D3002DECD1636C70
:100EC00043F020036364202384F84130002384F836
:100ED000423084F84030012070BD70B504460D46A4
:100EE000164623689B695B070ED432462946204686
:100EF000FFF76AFFF0B923689A6991061CD59A69D1
:100F0000520703D5228D0AB1002070BD2021D9617E
:100F10005A6822F0FF7222F48B3222F4FF7222F020
:100F200001025A600023636484F8411084F842305F
:100F300084F84030012070BDFFF79EFB801B854286
:100F400001D3002DCDD1636C43F0200363642023D3
:100F500084F841300023EBE710B5044600284AD05E
:100F600090F8413003F0FF021BB980F8402001F0F7
:100F7000EBFE2423E16884F84130012923681A68D4
:100F800022F001021A60626822F070621A619A68A7
:100F900022F400429A60A26824D142F400429A608E
:100FA0005A680020616942F0007242F400425A60BF
:100FB000DA6822F40042DA6022690A43A16942EA4F
:100FC0000122216ADA60E2690A431A601A6842F073
:100FD00001021A602023606484F84130206384F8A1
:100FE000420010BD42F4044202299A60D8D14FF465
:100FF00000625A60D4E7012010BD00002DE9F743DC
:10100000984690F8413004460E46202B914640F019
:10101000848090F84030012B7FD0012780F8407009
:10102000FFF72AFB1923054600903A464FF400418A
:101030002046FFF79EFE18B1012003B0BDE8F08303
:101040002123C4F82490606384F84130102384F88D
:1010500042306064A4F82A80638D9BB2FF2B304B32
:1010600026D9FF22009322854FF080733146204617
:10107000FFF765FE638D2A460A9920469BB2FBB9AD
:10108000FFF706FF0028D7D123682021D9615A68CD
:1010900022F0FF7222F48B3222F4FF7222F001025E
:1010A0005A6084F8411084F8400084F84200C4E794
:1010B000628D009392B222854FF00073D2B2D5E7D1
:1010C000FFF7BFFE0028B7D1636A226813F8011B3F
:1010D00091626362638D228D013B013A9BB292B2B1
:1010E0006385638D22859BB2002BC3D0002AC1D1BA
:1010F000009580210A9B2046FFF73BFE00289BD1EC
:10110000638D9BB2FF2B03D9FF2200902285ABE7B2
:10111000628D009092B22285CEE702208DE700BF5B
:10112000002000802DE9F743984690F841300446AE
:101130000E46202B914640F0868090F84030012BDF
:1011400000F08180012780F84070FFF795FA19239D
:10115000054600903A464FF400412046FFF709FE4D
:1011600018B1012003B0BDE8F0832223C4F8249015
:10117000606384F84130102384F842306064A4F83E
:101180002A80638D9BB2FF2B304B26D9FF22009320
:1011900022854FF0807331462046FFF7D0FD638DE6
:1011A0002A460A9920469BB2FBB9FFF771FE002838
:1011B000D7D123682021D9615A6822F0FF7222F426
:1011C0008B3222F4FF7222F001025A6084F841103F
:1011D00084F8400084F84200C4E7628D009392B224
:1011E00022854FF00073D2B2D5E7FFF776FE0028D4
:1011F000B7D12268636A526A1A70636A228D01331A
:10120000013A6362638D92B2013B22859BB2638592
:10121000638D9BB2002BC2D0002AC0D100958021E3
:101220000A9B2046FFF7A5FD00289AD1638D9BB24B
:10123000FF2B03D9FF2200902285AAE7628D009040
:1012400092B22285CDE702208CE700BF0024008007
:1012500090F84120D2B2202A10B51DD190F840302C
:10126000012B19D0242380F8413003681C6824F036
:1012700001041C601C6824F480541C601C68214319
:101280001960196841F001011960002380F84120BC
:1012900080F84030184610BD022010BD10B590F8FF
:1012A0004140E4B2202C1CD190F84030012B18D0E2
:1012B000242380F8413003681A6822F001021A6082
:1012C0001A6822F4706242EA012119601A6842F039
:1012D00001021A60002380F8414080F8403018462F
:1012E00010BD022010BDF0B504468BB060B390F87D
:1012F000BD33056803F0FF021BB980F8BC2301F081
:101300008DFD03236E46271D84F8BD33EB6B254608
:1013100013F4807355F8100B08BF236101F00DF929
:101320000FCD0FC60FCD0FC695E80300254686E802
:10133000030097E80E0055F8100B01F0C3F80646BD
:1013400020B1022384F8BD33012554E00146206812
:1013500001F0F9F83046D4F804E01C264FF0010CF7
:101360000146C2B2013096451BD800231C261946FF
:10137000D8B20133864522D80FCD6E460FC60FCDA9
:101380000FC695E8030086E8030097E80E00206882
:1013900001F01AF90123054600B3022284F8BD23A7
:1013A000D2E706FB024383F83DC083F83C20A3F854
:1013B000422083F83F10596499641965D1E706FB10
:1013C000004282F8FD1182F8FC0182F8FF11C2F898
:1013D0000412C2F80812C2F81012C9E784F83800E3
:1013E00084F8BD33636A012B02D1204600F006F871
:1013F000206801F0A3F928460BB0F0BD0121026876
:101400000346C0F8FC13002083F8F403936943F00B
:1014100000639361536D43F0805343F003035365BE
:1014200070470000024A136843F4807313607047EA
:1014300000700040194B37B51A6C194C42F08052BD
:101440001A641B6C03F080530193019B236843F4DF
:1014500080332360FFF710F905466368DA030CD583
:10146000236843F400332360FFF706F90C4C05466C
:1014700063689B030AD5002006E0FFF7FDF8401BD8
:10148000B0F57A7FE9D9032003B030BDFFF7F4F857
:10149000401BB0F57A7FEBD9F5E700BF003802407A
:1014A000007000402DE9F341044608B901203FE0F7
:1014B0000368D80710D42368990760D423681907F4
:1014C00000F1A58023685A0700F1C680A0690028B2
:1014D00040F0308100202BE0944B9A6802F00C021F
:1014E000042A07D09A6802F00C02082A0AD15B6825
:1014F0005A0207D58D4B1B689B03DCD56368002B14
:10150000D9D1D3E76368894DB3F5803F13D12B68F8
:1015100043F480332B60FFF7AFF8844D06462B6809
:101520009F03C8D4FFF7A8F8801B6428F7D90320CD
:1015300002B0BDE8F0819BB92B6823F480332B60A7
:101540002B6823F480232B60FFF796F806462B6860
:101550009803B0D5FFF790F8801B6428F7D9E6E729
:10156000B3F5A02F2B6803D143F480232B60CEE783
:1015700023F480332B602B6823F48023CAE76B4B62
:101580009A6812F00C0F07D09A6802F00C02082A31
:1015900011D15B6859020ED4644B1A68920702D5C8
:1015A000E268012A82D11A68216922F0F80242EA2F
:1015B000C1021A6082E7E3685C4DBBB12B6843F05F
:1015C00001032B60FFF758F806462B689F0707D5E5
:1015D0002B68226923F0F80343EAC2032B606DE70E
:1015E000FFF74AF8801B0228EFD9A0E72B6823F009
:1015F00001032B60FFF740F806462B6898077FF53C
:101600005DAFFFF739F8801B0228F6D98FE76369D1
:10161000464D83B16B6F43F001036B67FFF72CF806
:1016200006466B6F9B073FF54DAFFFF725F8801B14
:101630000228F6D97BE76B6F23F001036B67FFF796
:101640001BF806466B6F9F077FF53CAFFFF714F85A
:10165000801B0228F6D96AE7344B1A6CD00027D4D5
:101660001A6C012642F080521A641B6C03F08053FE
:101670000193019B2E4D2B68D9051BD5A3682B4DDB
:10168000012B27D12B6F43F001032B6741F28835E3
:10169000FEF7F2FF254F80463B6F9B073FD5002E9C
:1016A0003FF414AF214A136C23F0805313640DE709
:1016B0000026DFE72B6843F480732B60FEF7DCFF26
:1016C00007462B68DA05D9D4FEF7D6FFC01B64287D
:1016D000F7D92CE7ABB92B6F41F2883823F001031F
:1016E0002B672B6F23F004032B67FEF7C5FF07461C
:1016F0002B6F9807D3D5FEF7BFFFC01B4045F7D926
:1017000015E7052B2B6F03D143F004032B67B9E7D3
:1017100023F001032B672B6F23F00403B5E7FEF7DB
:10172000ABFFA0EB0800A842B6D900E700380240A2
:10173000007000403C4DAB6803F00C03082B42D016
:101740002B68022823F080732B602FD1FEF794FFC3
:1017500006462B68990123D4226AE3691343626A1F
:1017600043EA8213E26A43EA0263226B43EA0273AA
:10177000A26A2D4C5208013A43EA02436B602B687F
:1017800043F080732B60FEF777FF054623689A01CC
:101790003FF5A0AEFEF770FF401B0228F6D9C6E663
:1017A000FEF76AFF801B0228D3D9C0E6FEF764FF6C
:1017B00004462B689B017FF58DAEFEF75DFF001B95
:1017C0000228F6D9B3E601286B683FF4B1AE03F402
:1017D0008002E1698A427FF469AE03F03F02216A28
:1017E0008A427FF463AE47F6C072616A1A40B2EB78
:1017F000811F7FF45BAEA26A03F440315208013AC4
:10180000B1EB024F7FF452AE03F07062E16AB2EBCB
:10181000016F7FF44BAE226B03F0E043B3EB027F2A
:1018200014BF0120002083E600380240134908B5A8
:101830008B6803F00C03042B03D0082B03D0104853
:1018400008BD104808BD4A684B68496802F03F026D
:1018500013F48003C1F388111ABF0A480023084813
:10186000A1FB0001FEF744FD044B5B68C3F3014399
:1018700001335B00B0FBF3F008BD00BF003802404D
:101880000024F40000127A002DE9F0410D460446D0
:1018900010B90120BDE8F081464A136803F00F0338
:1018A0008B4229D321688F0731D4C80744D4414AD9
:1018B000136803F00F039D4268D32268510771D467
:1018C000130707D53C4A2169936823F4604343EA30
:1018D000C1039360FFF7AAFF374B384A9B68C3F3F5
:1018E0000313D35CD840364B1860364B1868FEF7AC
:1018F00087FE0020BDE8F081136823F00F030B433F
:101900001360136803F00F039942C2D1CAE711F0C4
:10191000040F294B03D09A6842F4E0529A600E07F4
:1019200003D59A6842F460429A609A68A06822F0EF
:10193000F00202439A60B8E761681F4B01291A68F8
:101940001CD112F4003FA4D09A6841F288381A4E94
:1019500022F003020A439A60FEF78EFE0746B36840
:10196000626803F00C03B3EB820FA0D0FEF784FE95
:10197000C01B4045F3D90320BDE8F081022902D104
:1019800012F0007FDFE712F0020FDCE7136823F0AC
:101990000F032B431360136803F00F039D427FF482
:1019A00078AF8AE70449E0688B6823F4E053034387
:1019B0008B6085E7003C024000380240DA380008BE
:1019C0001400022004000220014B1868704700BF79
:1019D00014000220044B054A9B68C3F38223D35CA6
:1019E000034A1068D840704700380240EA380008BF
:1019F00014000220044B054A9B68C3F34233D35CB6
:101A0000034A1068D840704700380240EA3800089E
:101A1000140002202DE9F7430268044612F0010683
:101A20000BD0BA4B996821F400019960466B996814
:101A30003143B6FA86F67609996012F4002512D081
:101A4000B249E56BD1F88C30B5F5801F23F4401313
:101A500008BF012643EA050316BFB5FA85F5002540
:101A60006D09C1F88C30D70210D5A848216CD0F888
:101A70008C30B1F5800F23F4400343EA0103C0F832
:101A80008C3000F0A981002908BF012512F0807F69
:101A900018BF0126900631D59C4B9D4F1A6C42F021
:101AA00080521A641B6C03F080530193019B3B68C6
:101AB00043F480733B60FEF7DFFD80463B68D90549
:101AC00040F18C81914F3B6F13F4407340F0918152
:101AD000236B03F44072B2F5407F8C4A40F0AF8133
:101AE000916823F0704021F4F81120F44070014314
:101AF0009160C3F30B03116F0B4313672368DF0679
:101B00000CD5824AD2F88C1021F08071C2F88C106A
:101B1000D2F88C10A06B0143C2F88C10580408D581
:101B20007A49606ED1F8902022F440320243C1F825
:101B30009020190408D57549A06ED1F8902022F4A0
:101B400040220243C1F89020DA0308D56F49E06EC5
:101B5000D1F8902022F440120243C1F890209F0354
:101B600008D56A49206FD1F8902022F44002024340
:101B7000C1F89020580608D56449606CD1F89020CF
:101B800022F003020243C1F89020190608D55F49EC
:101B9000A06CD1F8902022F00C020243C1F89020F2
:101BA000DA0508D55949E06CD1F8902022F03002CE
:101BB0000243C1F890209F0508D55449206DD1F803
:101BC000902022F0C0020243C1F89020580508D5A9
:101BD0004E49606DD1F8902022F440720243C1F862
:101BE0009020190508D54949A06DD1F8902022F41C
:101BF00040620243C1F89020DA0408D54349E06D01
:101C0000D1F8902022F440520243C1F890209F0462
:101C100008D53E49206ED1F8902022F4404202437C
:101C2000C1F89020580208D53849A06FD1F890200B
:101C300022F080620243C1F8902099020CD533480B
:101C4000E16FD0F89020B1F1006F22F0006208BF80
:101C500001250A43C0F8902013F0080F18BF012592
:101C60005A0308D52949606FD1F8902022F04072BC
:101C70000243C1F890201F0209D52449D4F88000FE
:101C8000D1F8902022F080520243C1F890205801F0
:101C900009D51E49D4F88400D1F8902022F00052D2
:101CA0000243C1F89020190109D51849D4F88800D9
:101CB000D1F88C2022F000720243C1F88C20DA00A7
:101CC00009D51249D4F88C00D1F88C2022F080621A
:101CD0000243C1F88C20012E00F0B580B3F1007FE3
:101CE00000F0B180012D75D1084D2B6823F0805391
:101CF0002B60FEF7C1FC06462B689F0000F1278190
:101D000021680E0306D5E36B43B103E000380240BF
:101D100000700040CD021DD5236CDBB9934AD2F888
:101D20008830D2F8880003F4403300F0E0400343E9
:101D3000606943EA8013A06943EA0063C2F888300F
:101D4000D2F88C30A06A23F4F853013843EA002318
:101D5000C2F88C30880215D5E36FB3F1006F11D152
:101D6000824AD2F88830D2F8880003F0706300F01D
:101D7000E0400343606943EA8013206A43EA00437A
:101D8000C2F888300A0719D57849D1F88820D1F8E7
:101D9000883002F0706203F440331343626943EA0F
:101DA0008213E26943EA0273C1F88830D1F88C30BB
:101DB000E26A23F440331343C1F88C306B4C236840
:101DC00043F080532360FEF757FC054623689B00D1
:101DD00040F1C480002009E0012657E6FEF74CFCE4
:101DE000A0EB080064287FF669AE032003B0BDE8CD
:101DF000F083226B02F4407293423FF469AE3B6F72
:101E00003A6F23F4407342F480323A673A6F22F417
:101E100080323A673B673B6FDA077FF559AEFEF7D2
:101E20002BFC41F2883980463B6F9B073FF550AE53
:101E3000FEF722FCA0EB08004845F5D9D5E79168EC
:101E400021F4F81154E6494E336823F0806333607F
:101E5000FEF712FC074633681B0172D42268D707CD
:101E600012D5636B83B9D6F88430D6F8841003F4A6
:101E7000403301F070610B43616843EA8113A1684C
:101E800043EA0173C6F88430160303D5E36BB3F558
:101E9000801F05D0D0021ED5236CB3F5800F1AD158
:101EA0003249D1F88430D1F8840003F4403300F093
:101EB000E0400343606843EA8013E06843EA00635C
:101EC000C1F88430D1F88C00636A20F01F00013B18
:101ED0000343C1F88C30D10111D52449D1F88430A5
:101EE000D1F8840003F0706300F0E04003436068C1
:101EF00043EA8013206943EA0043C1F88430920129
:101F00000DD5236962681B0443EA8213E26843EA41
:101F10000263A26843EA0273144AC2F88430134E83
:101F2000336843F080633360FEF7A6FB07463368EF
:101F30001B013FF5D7AEFEF79FFBC01B6428F6D907
:101F400053E7FEF799FBC01B642884D94DE7FEF7E1
:101F500093FB801B64287FF6CFAE46E7FEF78CFB31
:101F6000401B64287FF632AF3FE700BF00380240D5
:101F700038B5C26904460368816800691D68014379
:101F800060690143904811432840256A0143E06895
:101F90001960596821F4405101435960A16998685A
:101FA000294320F430600143996088498B4217D15E
:101FB000874B8849D3F8903003F00303B2F5004F04
:101FC000CB5C29D1082B00F29D80DFE813F08C0058
:101FD000E800EE009B00FA009B009B009B0076004F
:101FE0007D498B4206D17A4B7C49D3F8903003F07F
:101FF0000C03E3E77A498B421DD1754BD3F890303F
:1020000003F03003102B00F0D9800ED8002B67D0DE
:10201000B2F5004F76D01023082B73D8DFE803F019
:10202000999FA272B4727272B700202B00F0BA802E
:10203000302B3FD0ECE76B498B420DD1644BD3F88A
:10204000903003F0C003402B00F0B880DED9802B25
:1020500000F0A880C02BECE763498B4210D15C4BA9
:10206000D3F8903003F44073B3F5807F00F0A6807E
:10207000CCD9B3F5007F00F09580B3F5407FD8E769
:102080005A498B421ED1524BD3F8903003F440632F
:10209000B3F5806F00F0928006D8002B7CD0B2F5AB
:1020A000004F2FD110238DE7B3F5006F7AD0B3F531
:1020B000406FF4D1B2F5004F69D16368580800F55C
:1020C000803078E04A498B4224D1414BD3F890309C
:1020D00003F44053B3F5805F70D015D8002BDED1E8
:1020E000B2F5004F35D1FFF775FC6268530803EB7A
:1020F0004000B0FBF2F080B24FF6EF73A0F1100297
:102100009A421AD9012020E0B3F5005F4AD0B3F516
:10211000405FCEE737498B42F4D12D4BD3F8903056
:1021200003F44043B3F5804F48D07FF66FAFB3F56B
:10213000004F37D0B3F5404F7BE720F00F03C0F3DB
:10214000420022681843D0600020002323666366A3
:1021500038BDFFF73FFC636800EB530008E0FFF772
:1021600049FCF8E76368580800F5740000F5105062
:10217000B0FBF3F080B24FF6EF73A0F110029A4279
:10218000C0D82368D860DFE7FFF750FBE3E7636858
:10219000580800F50040EBE7B2F5004FDFD1FFF73C
:1021A00029FCA2E7B2F5004FDCD16368580800F1C2
:1021B000F47000F59040B0FBF3F09CE7B2F5004FEF
:1021C000E2D1FFF733FB90E7F369FFEF0010014026
:1021D0000038024028380008004400402C3800082D
:1021E00000480040004C00400050004000140140F6
:1021F00000780040007C0040436ADA0710B506D53D
:102200000168846A4A6822F4003222434A609C07CB
:1022100006D50168C46A4A6822F4803222434A60C3
:10222000590706D50168046B4A6822F480222243CC
:102230004A601A0706D50168446B4A6822F40042D6
:1022400022434A60DC0606D50168846B8A6822F462
:10225000805222438A60990606D50168C46B8A6859
:1022600022F4005222438A605A0610D50168046C99
:102270004A68B4F5801F22F4801242EA04024A60E0
:1022800005D14A68446C22F4C00222434A601B060E
:1022900006D50268816C536823F400230B43536016
:1022A00010BD2DE9F041069D04460F46164698469E
:1022B0002168CA6937EA02030CBF01220022B24238
:1022C00002D00020BDE8F081681CF2D0FEF7D4F9FE
:1022D000A0EB080085422068036800D37DB923F491
:1022E000D0730360836823F0010383602023636756
:1022F000A3670023032084F87030BDE8F0815A07FB
:10230000D6D5C3691B05D3D54FF4006303620368B8
:1023100023F4D0730360836823F0010383602023D8
:102320006367A367E367E4E72DE9F7439846436FE4
:1023300004460E46202B91464CD1002948D0002A55
:1023400046D090F87030012B44D00123002580F84E
:1023500070302123C5674367FEF78EF9A3680746EF
:10236000A4F85090B3F5805FA4F8529003D123698C
:102370000BB935461E46002384F87030B4F852205D
:102380003B46CDF8008092B23AB940212046FFF793
:1023900088FF40B92023636706E0002280212046A1
:1023A000FFF77FFF18B1032003B0BDE8F083226878
:1023B0005EB935F8023BC3F308039362B4F85230B8
:1023C000013B9BB2A4F85230D8E716F8013BF4E782
:1023D0000120E9E70220E7E773B500260446C66757
:1023E000FEF74AF9236805461B681A0715D42368C7
:1023F0001B685B070AD56FF07E4300224FF4800113
:10240000204600932B46FFF74CFF90B92023002075
:10241000636784F87000A3670CE06FF07E43324678
:102420004FF40011009303462046FFF73AFF0028BF
:10243000DDD0032002B070BD10B5044640B3436F39
:102440001BB980F8703000F0B5FC226824232046C8
:102450006367136823F001031360FFF789FD012808
:1024600016D0636A13B12046FFF7C6FE23682046E4
:102470005A6822F490425A609A6822F02A029A60BE
:102480001A6842F00102BDE810401A60FFF7A4BFCD
:10249000012010BD0A4B013B01D1032070470269A6
:1024A000002AF8DA0369064A43F001030361013A9E
:1024B000F3D0036913F00103F9D11846704700BF48
:1024C000410D030084B038B505AD044685E80E0023
:1024D0000A9B012B26D1836B23F480338363C3686B
:1024E00023F4840323F04003C360C36823F4401340
:1024F000C360119B012B03D1C36843F48013C360F5
:102500002046FFF7C7FF089B012B07D1A36843F0C4
:102510000603A360A36843F02003A360BDE838402E
:1025200004B07047C36843F04003C360FFF7B2FFD5
:10253000A36B43F48033A363E5E7836823F00103CF
:1025400083600020704708B5C368012923F0C043A9
:10255000C36008D1C36843F00053C3603220FEF764
:1025600091F8002008BD19B9C36843F08043F4E72F
:10257000012008BD8901074A41F020010161013AAB
:1025800005D0036913F02003F9D1184670470320E2
:10259000704700BF410D03001023064A0361013A52
:1025A00005D0036913F01003F9D1184670470320D2
:1025B000704700BF410D0300D0F800381943C0F840
:1025C000001800207047000084B02DE9F84304464D
:1025D00009A80F4680E80E0000230B9A0E99139D60
:1025E0001E4603F14000013304EB80000F2B4660D0
:1025F000F7D104F50066002D6BD1736843F0020338
:102600007360A36B23F40013A363236843F04003B8
:102610002360236843F08003236000230129C4F86A
:10262000003ED4F80038C4F8003859D1002A55D1FA
:1026300000212046FFF7C0FF10212046FFF79AFF38
:1026400001462046FFF7A8FF00284DD1081C18BFFF
:102650000120002304F510624FF0904E4FF0006C03
:1026600019464FF67F3833617361F361BB423DD148
:10267000002104F530624FF0904E4FF0006C0F4691
:102680004FF67F388B4244D1336923F48073336132
:102690000023A3616FF0804363610C9B1BB9A369A6
:1026A00043F01003A361A269234B1343A3610F9B63
:1026B0001BB1A36943F00803A361012D05D1A369F0
:1026C00043F0804343F00403A361BDE8F84304B042
:1026D0007047A36B43F40013A3639EE70121A8E7AF
:1026E0000329A3D00321A4E70120B2E7D2F8009088
:1026F000B9F1000F0BDA3BB9C2F800C01161013328
:10270000C2F808802032B1E7C2F800E0F6E71160B5
:10271000F4E7D2F80090B9F1000F0BDA39B9C2F83A
:1027200000C017610131C2F808802032AAE7C2F860
:1027300000E0F6E71760F4E700383C8008B5D0F811
:10274000043843F00203C0F804380320FDF79AFF71
:10275000002008BD10B5B8B034220021022407A81B
:1027600000F028FC1422002102A800F023FC002124
:10277000902214A800F01EFCFEF754FE204B07A880
:102780001A6C42F080521A641B6C03F08053009361
:10279000009B1C4B1A6842F440421A601B680D945F
:1027A00003F4404311940193019B012307934FF4D9
:1027B000A02308934FF480030E9304230F93C023A8
:1027C000109308231293FEF76DFEFEF733FE0F23DE
:1027D0000394002402934FF4A053062102A805930A
:1027E0004FF4805304940693FFF74EF8064B14A859
:1027F000279414932D943394FFF70CF938B010BD3F
:10280000003802400070004000412000F0B5002474
:10281000A5B00127FDF718FFFFF79CFF1422214602
:102820000BA88DF8107080258DF811408DF812409E
:1028300000F0C0FB794B44F2810179481A6B794E64
:1028400042F004021A631A6B02F004020592059A20
:102850001A6B42F080021A631A6B02F08002069231
:10286000069A1A6B3A431A631A6B3A400792079A10
:102870001A6B42F002021A631A6B02F0020208920B
:10288000089A1A6B42F008021A631A6B02F00802E7
:102890000992099A1A6B42F040021A6322461B6B96
:1028A00003F040030A930A9BFEF730FA22464021C8
:1028B0005D48FEF72BFA4FF400530BA95B480B93CE
:1028C0005B4B0D940C93FEF737F944F281030BA98F
:1028D00053480B930C970D940E94FEF72DF940235B
:1028E0000BA951480B930C970D940E94FEF724F905
:1028F0000BA94D480B950C940D94FEF71DF94D480E
:10290000E1224D4B048280E8880043691C704369D2
:102910005D704369494D9A704369DC7043691C716D
:1029200043695C714FF4000384610362C461FEF784
:1029300009F8434B28464349AC60EF602C616C6159
:10294000AC61EC612C6285E80A00FEF705FB2146CC
:102950002846FEF77DFC21462846FEF79FFC3A48B4
:102960004FF4E133B460F4603461B461F461346213
:10297000746286E809000C2330467361FFF75CFD42
:1029800032484FF0060E4FF0A0430461C761046265
:102990004462C762046380E808400223C360836125
:1029A000FEF7A1FC40F6B830FDF76CFE2846FEF7B6
:1029B000D3FA68B126490BA800F004FB0BA8FDF779
:1029C0003FFC4FF47A7382B20BA93046FFF7ACFCA0
:1029D0004FF47A741F490BA800F018FB00940323EE
:1029E00004AA30211548FEF709FB002836D0012241
:1029F00019490BA800F0E6FA0BA8FDF721FC2346C5
:102A0000074C82B20BA90748FFF78EFC20468021B5
:102A1000FEF781F9C820FDF735FEF7E700380240E0
:102A200000040240A80002200018024000080240F2
:102A300000001110780502200080024028010220C9
:102A40005D3E3020005400400048004074010220E8
:102A5000393800084E3800085C38000862490BA875
:102A600000F0D4FA0BA8FDF7EBFB604E2346604D57
:102A7000604C82B20BA95E48FFF756FC05234FF469
:102A80007A7704AA30218DF8103030460123009760
:102A9000FEF7B4FA0223009703AA30213046FEF76E
:102AA00041FB9DF90C30002B0CDA53490BA800F0C8
:102AB000ADFA0BA8FDF7C4FB3B4682B20BA9284632
:102AC000FFF732FC9DF80C305A060DD54B490BA888
:102AD00000F09CFA0BA8FDF7B3FB4FF47A7382B2B7
:102AE0000BA92846FFF720FC9DF80C309B060DD55E
:102AF00043490BA800F08AFA0BA8FDF7A1FB4FF49D
:102B00007A7382B20BA92846FFF70EFC9DF80C30B1
:102B100013F0E00F13D03B490BA800F077FA0BA895
:102B2000FDF78EFB4FF47A7382B20BA92846FFF7AC
:102B3000FBFB9DF80C3003F01F038DF80C309DF863
:102B40000C309DF80D2013F0100F3DD003F00F0353
:102B50002D218DF80C301B012170C3F5807312F00C
:102B6000080F03EB121302F0040235D035217AB3BB
:102B700037226271A171642093FBF0F200FB1233E3
:102B80000A2002F1300193FBF0F2C9B2617002F148
:102B9000300100FB12320BA8C9B23032A170D2B2A0
:102BA0001949E270224600F00DFA0BA8FDF748FB28
:102BB0004FF47A7382B20BA92846FFF7B5FB4FF4A6
:102BC0007A70FDF75FFD59E72B211B012170C6E7E5
:102BD00030226171A271CEE71AB1322262713522C0
:102BE000F8E730226271F5E7793800082801022001
:102BF000A8000220080002208E380008A138000832
:102C0000B838000876380008CE3800080A4B82B081
:102C10001A6C42F080521A641A6C02F080520092D0
:102C2000009A5A6C42F480425A645B6C03F480430D
:102C30000193019B02B0704700380240F0B58DB09F
:102C400004461422002107A800F0B4F92268394B89
:102C50009A426DD1A3F59043022603250B241A6BEB
:102C600007A93548002742F000721A631A6B02F078
:102C700000720092009A1A6B42F080621A631A6B1B
:102C800002F080620192019A1A6B42F000621A63AC
:102C90001A6B02F000620292029A1A6B42F004026E
:102CA0001A631A6B02F004020392039A1A6B42F041
:102CB00001021A631A6B02F001020492049A1A6B61
:102CC00042F002021A631A6B02F002020592059AA0
:102CD0001A6B42F040021A631B6B089603F0400324
:102CE0000A950B940693069B32230793FDF724FF66
:102CF000862307A911480793089609970A950B940C
:102D0000FDF71AFF4FF4005307A90D4807930896E3
:102D100009970A950B94FDF70FFF4FF4205307A96D
:102D200008480793089609970A950B94FDF704FF46
:102D30000DB0F0BD008002400008024000000240DB
:102D4000000402400018024010B588B00446142266
:102D5000002103A800F02EF92268134B9A4221D1DA
:102D6000124C03A91248236B43F002032363236B25
:102D700003F002030193019B4FF41073039312239A
:102D80000493012305930323069304230793FDF77C
:102D9000D3FE236C43F400132364236C03F4001369
:102DA0000293029B08B010BD00540040003802405E
:102DB0000004024010B588B004461422002103A884
:102DC00000F0F8F82268134B9A4220D103F5F8334B
:102DD00003A911481A6C42F480221A641A6C02F496
:102DE00080220192019A1A6B42F008021A631B6B4F
:102DF00003F008030293029B4FF4407303930223F2
:102E000004930323069307230793FDF795FE08B069
:102E100010BD00BF00480040000C024010B588B053
:102E200004461422002103A800F0C4F82368B3F17B
:102E3000A04F32D11A4C03A91A48236B43F0010367
:102E40002363236B03F001030093009B4FF4E853CB
:102E5000039302230493032306930A230793FDF7A6
:102E60006BFE4FF4007303A90E48039300230493F1
:102E70000593FDF761FE636B43F080036363636B4F
:102E800003F080030193019B636C43F4804363640C
:102E9000636C03F480430293029B08B010BD00BF33
:102EA00000380240000002407047FEE7FEE7FEE700
:102EB000FEE7704770477047FDF7D2BB08B50A4B75
:102EC0000246196809B90949196018686946024437
:102ED0008A4206D900F044F80C2303604FF0FF301B
:102EE00008BD1A6008BD00BF98000220C40502207A
:102EF000054BD3F8882042F47002C3F888204FF0C5
:102F000000629A60704700BF00ED00E0DFF834D047
:102F1000002103E00C4B5B58435004310B480C4B31
:102F200042189A42F6D30B4A02E0002342F8043BCF
:102F3000094B9A42F9D3FFF7DBFF00F017F8FFF7D0
:102F400065FC7047000008203839000800000220A6
:102F50007C0002207C000220C4050220FEE7000065
:102F6000014B1868704700BF1800022070B50D4E65
:102F70000D4CA41BA4100025A54209D10B4E0C4CEE
:102F800000F046FCA41BA4100025A54205D170BD8D
:102F900056F8253098470135EEE756F82530984722
:102FA0000135F2E7303900083039000830390008BF
:102FB0003439000802440346934200D1704703F8B5
:102FC000011BF9E70EB400B59CB04FF402711DABC4
:102FD000ADF81410029006906FF000410A48049179
:102FE00007914FF6FF7153F8042BADF816100068E7
:102FF000019302A900F06EF8029B00221A701CB027
:103000005DF804EB03B0704718000220034611F886
:10301000012B03F8012B002AF9D170472DE9F04765
:103020008E689E4282460C469146984635D88A89DB
:1030300012F4906F31D0256809696F1A656902230F
:1030400005EB450595FBF3F508F101033B449D4273
:1030500038BF1D46530531D5294600F039FB0646D9
:1030600050B90C23CAF80030A38943F04003A38170
:103070004FF0FF30BDE8F0873A46216900F0B4FA1E
:10308000A38923F4906343F08003A38126616561E3
:103090003E44ED1B2660A5604646464528BF464691
:1030A00032464946206800F0AAFAA3689B1BA36039
:1030B00023681E4426600020BDE8F0872A4600F001
:1030C00065FB06460028E1D12169504600F0B2FABE
:1030D000C7E700002DE9F04F9DB0804603938B8930
:1030E0001C060D4616460FD50B696BB9402100F042
:1030F000EFFA2860286128B90C23C8F800304FF097
:10310000FF30C5E040236B610023099320238DF835
:10311000293030238DF82A304FF0010B37463C46DA
:1031200014F8013B002B3CD1B7EB060A0BD05346F9
:10313000324629464046FFF771FF013000F0A38078
:10314000099B534409933B78002B00F09C8000239B
:103150004FF0FF3204930793059206938DF8533096
:103160001A93052221785048FDF772F8671C049BDA
:10317000D8B9D90644BF20228DF853201A0744BF7E
:103180002B228DF8532022782A2A16D0079A002164
:103190000A20274601343B78303B092B51D9C9B16D
:1031A00011E0252BC0D02746B9E73F4A801A0BFA19
:1031B00000F0184304903C46D3E7039A111D1268AF
:1031C0000391002A01DB079204E0524243F002031C
:1031D000079204933B782E2B0ED17B782A2B07F194
:1031E000010132D1039B1A1D1B680392002BB8BF4B
:1031F0004FF0FF33023705932C4C397803222046D9
:10320000FDF726F838B14023001B03FA00F0049BB9
:10321000034304930137397825488DF82810062296
:103220007E1CFDF715F8002835D0224BFBB9039B17
:10323000073323F0070308330393099B4B44099397
:103240006CE700FB02320121A3E700230593184637
:103250000A240F4601313A78303A092A03D9002B63
:10326000CAD00590C8E704FB00200123F1E703ABB7
:1032700000932A46104B04A94046AFF30080B0F1FA
:10328000FF3F8146D9D1AB895B063FF538AF09983E
:103290001DB0BDE8F08F03AB00932A46064B04A98E
:1032A000404600F081F8EAE7F2380008F8380008F4
:1032B000FC380008000000001D3000082DE9F04730
:1032C00091461F468A680B69DDF820809342B8BF9B
:1032D0001346C9F8003091F8432006460C4612B157
:1032E0000133C9F800302368990642BFD9F800308D
:1032F0000233C9F80030256815F0060507D104F13E
:10330000190AE368D9F800209B1A9D4229DB94F83A
:1033100043302268003318BF012392062ED404F1F3
:10332000430239463046C047013021D02368E56862
:10333000D9F8002003F00603042B08BFAD1AA368D8
:1033400022690CBF25EAE57500259342C4BF9B1A8C
:10335000ED184FF000091A344D451BD10020BDE88F
:10336000F0870123524639463046C047013003D129
:103370004FF0FF30BDE8F0870135C2E7E1185A1C75
:10338000302081F84300224494F8451082F843101D
:103390000233C4E70123224639463046C047013094
:1033A000E6D009F10109D7E72DE9F04317460A7E77
:1033B00085B06E2A984606460C460C9B01F1430EDA
:1033C00000F0BC801AD8632A2ED00AD8002A00F058
:1033D000C880582A00F08A8004F1420584F842200F
:1033E0002AE0642A01D0692AF6D121681A6811F00E
:1033F000800F23D0111D1960136827E0732A00F095
:10340000B48008D86F2A2AD0702AE5D10A6842F021
:1034100020020A6003E0752A21D0782ADCD17822C4
:1034200084F845206E4964E01A6801F14205111DD7
:103430001960136884F842300123A3E011F0400FB3
:1034400002F104011960D7D0B2F90030002B03DA81
:103450002D225B4284F8432062490A2217E020684B
:10346000196810F0800F03D0081D18600B6806E083
:1034700010F0400F01F104001860F7D00B88594993
:103480006F2A14BF0A220822002084F843006568CE
:10349000A560002DC0F29C80206820F00400206010
:1034A000002B3FD1002D40F095807546082A0BD1A6
:1034B0002368DA0708D5236962689A42DEBF3023A1
:1034C00005F8013C05F1FF35AEEB05032361CDF8AE
:1034D00000803B4603AA21463046FFF7EFFE01304D
:1034E00055D14FF0FF3005B0BDE8F08381F845209D
:1034F0003C492268186812F0800F00F104051D6035
:1035000001D0036802E05506FBD50388D00744BF0D
:1035100042F0200222601BB9226822F020022260C1
:103520001022B1E77546B3FBF2F002FB1033CB5C1F
:1035300005F8013D03460028F5D1B7E708681A6889
:10354000496910F0800F04D0101D186013681960CD
:1035500007E010F0400F02F1040018601368F6D085
:103560001980002323617546B1E71A68111D19609F
:103570001568626800212846FCF76AFE08B1401B06
:10358000606063682361002384F843309FE7236908
:103590002A4639463046C0470130A2D023689B07EF
:1035A00007D5002504F11909E368039A9B1A9D4287
:1035B00005DBE068039B9842B8BF184693E70123F8
:1035C0004A4639463046C04701308AD00135EBE7DC
:1035D000002BA7D10B7884F8423004F1420565E74F
:1035E000143900080339000810B5431E0A449142FB
:1035F00000D110BD11F8014B03F8014FF7E78842E5
:1036000010B501EB020303D8421E99420CD110BD44
:103610009842F9D28118D21AD34200D110BD13F8C2
:10362000014D01F8014DF7E711F8014B02F8014F88
:10363000EBE7000038B50546002945D051F8043CB9
:103640000C1F002BB8BFE41800F0D6F81F4A13680F
:10365000104633B9636014602846BDE8384000F076
:10366000CCB8A3420CD921686218934204BF1A68EF
:103670005B68636004BF521822600460ECE7134685
:103680005A680AB1A242FAD919685818A0420BD157
:1036900020680144581882421960DDD110685268D0
:1036A0005A6001441960D7E702D90C232B60D3E795
:1036B000206821188A4204BF11685268626004BF02
:1036C000091821605C60C7E738BD00BF9C0002207C
:1036D00070B5CD1C25F0030508350C2D38BF0C2521
:1036E000002D064601DBA94203D90C2333600020DC
:1036F00070BD00F081F8234A1468214691B9224C2C
:1037000023681BB9304600F067F820602946304630
:1037100000F062F8431C26D10C233360304600F0E1
:103720006CF8E4E70B685B1B1AD40B2B0FD90B600A
:10373000CD50CC18304600F060F804F10B00231D8A
:1037400020F00700C31A1BD05A42E25070BD8C42D1
:103750000DBF63684B686360136018BF0C46E9E7F0
:103760000C464968CAE7C41C24F00304A04205D0F3
:10377000211A304600F030F80130CDD02560D9E76D
:1037800070BD00BF9C000220A0000220F8B50746D3
:1037900014460E4621B91146BDE8F840FFF798BF20
:1037A00022B9FFF747FF25462846F8BD00F026F866
:1037B00084420FD921463846FFF78AFF0546002884
:1037C000F2D031462246FFF70FFF31463846FFF769
:1037D00031FFE9E73546E7E738B5064C00230546F3
:1037E00008462360FFF76AFB431C02D1236803B13C
:1037F0002B6038BDC00502207047704751F8040C9B
:103800000028A0F10400BCBF0B58C018704700008E
:10381000F8B500BFF8BC08BC9E467047F8B500BFBD
:08382000F8BC08BC9E4670478D
:1038280001040208001010100410101002101010EB
:10383800086572726F7220496E69746961746520D7
:103848002025640D0A0068656C6C6F20576F726CD8
:10385800640A0D006572726F722073656E64696E1A
:103868006720636F6D6D6D616E64202025640D0A9D
:1038780000656E74657220666F7265766572206C7D
:103888006F6F700D0A002074656D70203E3D2063D7
:103898007269746963616C200020202074656D7002
:1038A800203E207570706572206C696D6974200007
:1038B8002074656D70203C206C6F776572206C6990
:1038C8006D697420200074656D70203D2025730D8E
:1038D8000A000000000000000000010203040607BF
:1038E80008090000000001020304232D302B2000EA
:1038F800686C4C00656667454647003031323334A2
:103908003536373839414243444546003031323341
:103918003435363738396162636465660000000003
:08392800F8C9FF7F0100000057
:043930002502000864
:043934000102000884
:1039380001000000100000002B6162632E64642007
:10394800430000000024F4001C00022000000000D6
:10395800000000000000000000000000000000005F
:10396800000000000000000000000000000000004F
:10397800000000000000000000000000000000003F
:10398800000000000000000000000000000000002F
:10399800000000000000000000000000000000001F
:0C39A80000000000000000000000000013
:0400000508002F0DB3
:00000001FF
