:020000040800F2
:10000000000002202594020841930208439302084D
:100010004593020847930208499302080000000034
:10002000000000000000000000000000D15A00089D
:100030004B93020800000000615B0008C55B0008EC
:100040007594020875940208759402087594020864
:1000500075940208759402084D930208759402087D
:100060007594020875940208759402087594020844
:100070007594020875940208759402087594020834
:100080007594020875940208759402087594020824
:100090007594020875940208759402087594020814
:1000A0007594020875940208759402087594020804
:1000B000559302086193020875940208759402082A
:1000C00075940208759402087594020875940208E4
:1000D00075940208759402087594020875940208D4
:1000E00075940208759402087594020875940208C4
:1000F00075940208759402087594020875940208B4
:1001000075940208759402087594020875940208A3
:1001100075940208759402086D930208759402089C
:100120007594020875940208759402087594020883
:100130007594020879930208759402087594020870
:100140007594020875940208759402087594020863
:100150007594020875940208759402087594020853
:100160007594020875940208759402087594020843
:100170007594020875940208759402080000000046
:08018000759402087594020851
:1001900010B5054C237833B9044B13B10448AFF3C1
:1001A00000800123237010BD182C002000000000E7
:1001B00054B4020808B5034B1BB103490348AFF31D
:1001C000008008BD000000001C2C002054B4020870
:1001D00010F8012B11F8013B012A28BF9A42F7D0F1
:1001E000D01A7047034613F8012B002AFBD1181AC6
:1001F000013870470000000000000000000000000F
:1002000001F0FF01102A2BDB10F0070F08D010F8C7
:10021000013B013A8B422DD010F0070F42B3F6D1CB
:10022000F0B441EA012141EA014122F007047FF0E4
:1002300000070023F0E80256083C85EA010586EA3B
:10024000010685FA47F5A3FA87F586FA47F6A5FA77
:1002500087F68EB9EED1F0BC01F0FF0102F0070283
:1002600032B110F8013B013A83EA010313B1F8D12E
:100270000020704701387047002D06BF354603380F
:10028000073815F0010F07D1013015F4807F02BF48
:10029000013015F4C03F0130F0BC0138704700BF99
:1002A00053B94AB9002908BF00281CBF4FF0FF31DD
:1002B0004FF0FF3000F07AB9ADF1080C6DE904CED3
:1002C00000F006F8DDF804E0DDE9022304B0704731
:1002D0002DE9F0478C460D460446089E002B51D16F
:1002E0008A4217466DD9B2FA82FEBEF1000F0BD0DA
:1002F000CEF1200C01FA0EF520FA0CFC02FA0EF7F2
:100300004CEA050C00FA0EF44FEA174A250CBCFB28
:10031000FAF81FFA87F90AFB18CC45EA0C4508FBE6
:1003200009F3AB420AD9ED1908F1FF3280F02381BD
:10033000AB4240F22081A8F102083D44ED1AA4B27C
:10034000B5FBFAF00AFB105544EA054400FB09F935
:10035000A14509D9E41900F1FF3380F00A81A145D4
:1003600040F2078102383C44A4EB090440EA08400B
:100370000021002E61D024FA0EF400233460736053
:10038000BDE8F0878B4207D9002E54D0002186E8C3
:1003900021000846BDE8F087B3FA83F1002940F058
:1003A0008E80AB4202D3824200F2FA80841A65EB5F
:1003B00003050120AC46002E3FD086E81010BDE8B2
:1003C000F08712B90127B7FBF2F7B7FA87FEBEF143
:1003D000000F34D1EB1B3A0C1FFA87FC0121B3FB51
:1003E000F2F8250C02FB183345EA03450CFB08F331
:1003F000AB4207D9ED1908F1FF3002D2AB4200F24F
:10040000D1808046ED1AA3B2B5FBF2F002FB105585
:1004100043EA05440CFB00FCA44507D9E41900F1AC
:10042000FF3302D2A44500F2B8801846A4EB0C04B6
:1004300040EA08409DE731463046BDE8F087CEF1FE
:10044000200405FA0EF307FA0EF720FA04F83A0C26
:1004500025FA04F448EA0308B4FBF2F14FEA184520
:1004600002FB11441FFA87FC45EA044501FB0CF32B
:10047000AB4200FA0EF409D9ED1901F1FF3080F01A
:100480008A80AB4240F2878002393D44EB1A1FFA62
:1004900088F5B3FBF2F002FB103345EA034500FB9D
:1004A0000CF3AB4207D9ED1900F1FF386FD2AB4224
:1004B0006DD902383D44EB1A40EA01418FE7C1F1A2
:1004C000200722FA07F88B4005FA01F448EA0303F3
:1004D00020FA07FE4FEA134CFD404EEA040EB5FB2E
:1004E000FCF94FEA1E440CFB19551FFA83F844EA45
:1004F000054509FB08F4AC4202FA01F200FA01FAE0
:1005000008D9ED1809F1FF3043D2AC4241D9A9F125
:1005100002091D442D1B1FFA8EFEB5FBFCF00CFBDF
:1005200010554EEA054400FB08F8A04507D9E41829
:1005300000F1FF3529D2A04527D902381C4440EAF2
:100540000940A4EB0804A0FB02894C45C6464D4671
:1005500015D312D056B1BAEB0E0364EB050404FABE
:1005600007F7CB401F43CC40376074600021BDE8E3
:10057000F0871846F8E69046E0E6C245EAD2B8EBC6
:10058000020E69EB03050138E4E72846D7E7404649
:1005900091E78146BEE7014678E702383C4445E7EB
:1005A000084608E7A8F102083D442BE7704700BF62
:1005B00006207047114602481A46009B29F092B85F
:1005C000E4B902082DE9F04F0446ADF5077D002897
:1005D00000F0EA8181B191E841008D68CF68B1F8FF
:1005E00010E04A690B7E84F83030A4F828E0676296
:1005F000E6612562A061E262A249A34804F559764A
:100600001BF098FC04F5A479304625F0B9FC04F5FC
:100610007878484613F0ABFB04F21455404627F0B7
:100620001DFE04F5C967284627F018FE38461AF063
:1006300056F8012013F02AFD944B95491B6804F1EC
:10064000380B9A68304624F026FF4FF0010A5846CE
:1006500018F016FB8F49CDF800A053468E4A584635
:1006600018F045FB014640B18C4829F03BF86FF08B
:100670000F000DF5077DBDE8F08F132300935A4658
:10068000874B8849484613F0E8FB834640B18649CA
:100690008648C42229F026F8CBF100018448E4E71B
:1006A000D4F818B05846FFF79DFD5946421C404605
:1006B00028F05AF9B0F1000B0CDACE227A497B48C7
:1006C00029F010F8CBF100017A4829F00BF86FF00F
:1006D0001200CEE7D4F81CB05846FFF783FD594608
:1006E000421C284628F040F9834660B1D7226E4963
:1006F0006E4828F0F7FFCBF100016F4828F0F2FFB9
:100700006FF01300B5E7216A03910846FFF76AFD11
:10071000CDF800B0421C694B039938461BF0E4FA4F
:10072000834660B1E6226049604828F0DBFFCBF1E8
:100730000001634828F0D6FF6FF0140099E7238D7D
:10074000604A062104A829F0CFF85F4B524604F511
:10075000CA61186800F0EEFF824648B1524953481A
:10076000F12228F0BFFF5948514628F0BBFF23E093
:10077000034602465649D4F8500601F00DF8824669
:1007800038B149494948F72228F0ACFF5146514851
:10079000EBE70346228D616AD4F8500600F0F6FFBD
:1007A000824660B1FD224049404828F09BFF5246F6
:1007B000616A494828F096FF6FF0030059E7034645
:1007C00002460146304625F0DFFB824648B13649F5
:1007D000364840F2051228F085FFCAF100013F4873
:1007E000C3E73F49304624F061FE52463D4930465A
:1007F00024F04BFE94F83030EBB10221304624F067
:100800003DFE4A463849304624F042FE0022414629
:10081000304624F050FE29463A46304624F048FE41
:10082000054650B1204921484FF48E7228F05AFFF6
:1008300029462E4899E70121E0E7E16A304604F5B0
:10084000227724F031FE3146384625F085F80546FA
:1008500040B1154915484FF4927228F043FF6942A0
:10086000234882E7616A384624F028FE05460028BE
:1008700042D00D490D4840F22F1228F033FF29468F
:100880001C4872E7F15E0008615F00087C000020F0
:10089000B5050008891300085806012099B502081B
:1008A000CDB50208218D010868B50208E1B502083E
:1008B000F1B5020823B6020870B60208114A03080F
:1008C000BFB6020838610308680601200CB70208A9
:1008D00042B7020852B7020891B70208C8B7020827
:1008E000D4B90208D10900082F3F010801B8020855
:1008F00035B8020864B8020800902D4B2D4AD4F890
:100900005016384624F0CAFD384624F067FE0546E6
:1009100068BB384624F012FE94F830300BB33846EA
:1009200024F002FEC4F8DC03D8B14FF4AE722249C1
:10093000224828F0D7FE224828F05CFFD4F8DC33A8
:10094000204A4FF4007106A827F0C6F94FF4AF72A1
:1009500019491A4828F0C6FE06A828F04BFF6FF088
:10096000030530460A2124F09FFD68B281E625F098
:10097000800313F5D24FC7D04FF49E720E490F4833
:1009800028F0B0FE6942104828F0ACFE15F51C5F57
:100990007FF412AF4FF4A2720749084828F0A2FE74
:1009A0000A4828F027FF07E76FF0010061E600BF63
:1009B0008D1400087515000868B50208E1B5020835
:1009C000F4790308A0B9020897B80208C9B8020868
:1009D00000B5ADF2044D0B46054A40F2FF316846C2
:1009E00026F038FE00200DF2044D5DF804FB00BF38
:1009F000114A03082DE9F84F0024884616461F4681
:100A0000254600F52279B54220D3002410E014F5E4
:100A1000D24F24D014F5D14F21D040F28B121A4975
:100A20001A4828F05FFE6142194828F05BFE012455
:100A30000A9B1D6004BB384600F098FB00B3B5422A
:100A40000CBF00206FF00900BDE8F88F384600F0B9
:100A50008DFB0028D9D1A6EB050B08EB050A38461B
:100A600000F084FB30B95A465146484625F05CF800
:100A7000041ECCDD2544C6E76FF00600BDE8F88F04
:100A80002046BDE8F88F00BF78B50208E1B502083E
:100A9000A5B902082DE9F0470746184689461446CD
:100AA000984600F077FB07F5597A002607F522777C
:100AB0000146504624F0F8FC22464946384625F0C7
:100AC000B1F8002818DB06440025404600F062FB20
:100AD000BDB1A64234BF00240124089B1E6006B9A4
:100AE000BDB1404600F042FBA8B1002C14BF00206D
:100AF0006FF00A00BDE8F08710F5D24518BF012558
:100B0000E3E7A64203D20028D2D12C46E5E7012430
:100B1000E3E76FF01800BDE8F087000038B5044641
:100B200000F52275284624F087FD10F5D14FF9D045
:100B3000D4F8500600F0E2FE0546D4F8500600F066
:100B4000E3FE55EA000308D040F2E51206490748E3
:100B500028F0C8FD064828F04DFE4FF0FF33C4F8DA
:100B60005036002038BD00BF86B50208E1B5020846
:100B7000FDD7020838B5044600F1380500F21450DC
:100B800027F071FB04F5787027F06DFB04F5C96060
:100B900019F0AAFD04F5227025F08AF904F55970C0
:100BA00025F04EFA04F5A47013F0E6F8284618F084
:100BB0008FF8002038BD000010B50362049BC362AB
:100BC0009DF8143080F830300B4B03600B4B4360C2
:100BD0000B4B83600B4BC3600B4BBDF80C400361A8
:100BE0000A4B04854361029C44620023C261816117
:100BF000C0F8DC33184610BDC5050008950A00088A
:100C0000F50900081D0B0008B1050008750B000868
:100C10002DE9F0433B4A9BB004AD0646984602F1ED
:100C200028042F46106851682B4603C30832A2429D
:100C30001D46F7D11388344A2B800FAD02F1280EE0
:100C40002C46106851682B4603C3083272451D4676
:100C5000F7D193781188AB70298000224FF00109F9
:100C60002A488DF801208DF80220ADF80420029268
:100C700003928DF8009028F0BDFDD8F80820D8F830
:100C80000C10234828F02EFDD8F808802149404652
:100C900028F01AFF054620B3484628F051FA1E49AD
:100CA0001E4828F0F7FE1E4828F0A4FD3C462046CA
:100CB0000294FFF797FA013003901A48FFF792FA6F
:100CC0006B4682B21749304604F08DF930B91549A8
:100CD000154828F007FD204628F08CFD1BB0BDE824
:100CE000F0831249404628F0EFFE0028F6D028464F
:100CF00028F026FA0E49094828F0CCFE0D4828F0C5
:100D000079FDD4E78ECA0208B8CA0208EBC9020806
:100D10000ACA020810CA02082DCA020800000020F0
:100D200030CA0208342C002063CA020838CA0208FC
:100D300056CA02085ACA020810B50C4669B10846DC
:100D400003F037FC20B10548BDE8104028F052BD43
:100D50002046BDE8104004F062B810BDBACB0208CE
:100D60002DE9F04FADF5A05D85B0BB49BB4D08A89E
:100D700028F090FE19AEB849039828F08BFEB849C8
:100D8000304628F087FE4FF46F6200210DF5A46015
:100D900028F0E6FB0FCD0DAC0FC40FCD0FC495E8C6
:100DA0000F00B04D84E80F000FCD40AC0FC40FCD45
:100DB0000FC40FCD0FC495E8030084E8030008A812
:100DC00000F0FAFA08A8FFF70DFA13280BD940F241
:100DD0003712A549A54828F085FCA54828F00AFD4A
:100DE0004FF0FF30BCE008ABA24AA348502128F0E6
:100DF0007BFD08ABA14AA248502128F075FD0222D4
:100E0000A04B0093114601239F4828F06BFC42F24F
:100E1000B322ADF83C209D4A10929D4A11929D4A02
:100E2000129244F62062149241F288320023159205
:100E30000125994A8DF834300DA90DF5A4600E9660
:100E40008DF858501792189303F02CFB044650B1BC
:100E50008549864840F2571228F044FC8F482146C5
:100E600028F040FCBCE703A800F0A6FA1E23ADF86A
:100E70000E3103988DF8105104238DF804314290FF
:100E8000FFF7B0F9864EADF80C018DF81141013431
:100E900003222146304628F025FC40A90DF5A46028
:100EA00003F008FE0546002800F02681032CEED151
:100EB00040F26F126C496D4828F014FCBDF83C30CC
:100EC0000E9A7848294628F00DFC89E74FF4C07245
:100ED0006549664828F006FC2146734828F002FC64
:100EE0000DF5A46003F05DFB00283FF479AF0DF52C
:100EF000A46003F075FF73E761496C486C4EDFF83E
:100F0000ECA1DFF8EC914EAD28F0ECFB2346694AEA
:100F10006949284628F01CFD0123574967488DF888
:100F200010308DF811408DF81240ADF81440079440
:100F30000695D6F8008028F0D5FBE31EDBB2012B26
:100F400000D924B9336883B9B8F1000F0DD00A2154
:100F50000DF5A46004F0D7FA0DF5A46003F040FF8E
:100F60000DF5A05D05B0BDE8F08F0A210DF5A46078
:100F700004F0C9FA0428044607D14FF47A7001F04E
:100F800075FD4F4828F036FCD7E7032802D14D48BD
:100F900028F030FC4C4BDAF800201B68364FDFF8A5
:100FA00054B1494626A828F0D3FC484B484A1B6850
:100FB0001268494633A828F0CBFC464828F01AFCB2
:100FC0004FF47A720021284628F0CAFA424928468E
:100FD00028F051FD4149284628F04DFD26A9284614
:100FE00028F049FD3E49284628F045FD33A928460A
:100FF00028F041FD3B49284628F03DFD3A49284666
:1010000028F039FD2846FFF7EDF801300790384603
:10101000FFF7E8F804AB82B239460DF5A46003F09F
:10102000E2FF044630B93946584628F05BFB2846B3
:1010300028F0E0FB3368002B00F08780013B14F1BF
:101040001C0F33607FF479AF002BE0D1B8F1000FB3
:10105000DDD06FF01B0470E7A84E0308B8DD02086E
:10106000F9CB020880DD0208E3CA0208E1B50208F4
:1010700028CC0208A1CC0208342C0020BECC0208E7
:10108000842C0020114A0308E4CC0208F1B90208BC
:1010900096BE02085FC30208390D000805CD02089C
:1010A0002CCD0208BECE02085ECD0208A1CD0208FA
:1010B00004000020B9CD0208C8CD0208D1CD020835
:1010C00020CE020838CE02088073002078730020FA
:1010D0007C73002045CE020873CE020888CE020839
:1010E00098CE020853CA0208E0CA0208847300209E
:1010F00077DD0208A6CE0208BDF83C200E991548FF
:1011000028F0F0FA01210DF5A46003F055FA044629
:1011100000287FF4DBAE1048FFF764F80F4B019412
:10112000009382B223460C490DF5A46004F0B0F898
:10113000044600283FF4E0AE09490A484FF4C7725C
:1011400028F0D0FA214608488AE614F11C0F3FF433
:101150007DAFF2E6DDCE0208842C0020110C0008E1
:10116000E3CA0208E1B5020889CD020810B50446B9
:1011700072B601F075FC2368181A62B6C00F10BD74
:1011800038B505460C4672B601F06AFC204428606A
:1011900062B638BD10B5044672B601F061FC236832
:1011A000181A62B620EAE07010BD38B505460C4644
:1011B00072B601F055FC4FF47A7101FB040028600F
:1011C00062B638BD0023036070470000083008B5E0
:1011D000062808D8DFE800F00419171513110400D9
:1011E0000B4828F007FB0B4C20464FF4804102F0DF
:1011F00042F9C82001F03AFCF6E70748F1E7074852
:10120000EFE70748EDE70748EBE70748E9E700BFE6
:10121000F1CE0208000C024010CF020828CF0208CD
:1012200040CF02085DCF020878CF020810B58CB01D
:101230000CA9002341F8203D394802F095FC10B973
:10124000049828F0DFFA0A2028F064FA3548364C72
:1012500028F0D0FA354828F0CDFA354828F0CAFAF7
:101260003449354828F03EFA344B009301230222DA
:101270001946334828F036FA2A4828F0BBFA314894
:1012800028F0B8FA304A0221204600F093F910B154
:101290006FF0040040E005A9206800F017FA00286C
:1012A00038D19DF8190002909DF8180001909DF822
:1012B00017009DF814109DF816309DF81520009029
:1012C000224828F00FFA4FF4FA7001F0CFFB2048C3
:1012D00028F090FA07A9206800F0D0F90028D7D1AB
:1012E0009DF81C30002BD3D19DF82C009DF82B309D
:1012F0009DF82A209DF829100090164828F0F2F950
:10130000154828F077FA012001F066F930B16FF046
:10131000060001E06FF00200FFF758FF0CB010BDAF
:101320005806012000D00208680601203ED00208BD
:1013300079D00208DCD10208B4D0020816D1020824
:10134000F0D0020833D10208FD13000853D102087F
:101350007FD102089AD10208B3D1020808B5064825
:1013600028F048FA054828F045FA054B0549186861
:10137000BDE8084000F060B9AACF0208D5CF020846
:101380006806012089140008F7B50E4602A9002559
:1013900017461C4641F8045D064802F0E5FB032FA2
:1013A000256004D918B9019B336004232360002011
:1013B00003B0F0BD58060120F0B5A8B10E4B1A6875
:1013C00002F52053D3E9006709A5D5E90045AF42EE
:1013D00008BFA6424FF0000305D102F520520832A3
:1013E00002601846F0BD03604FF0FF30F0BD00BF53
:1013F000EFCDAB89674523010800002010B50446F6
:1014000088B01A4828F0F6F9194828F0F3F90021B5
:10141000084608F0A5F9174B049303F1184308A9EF
:1014200006936FF07F430593134B41F8043D002072
:1014300008F0B0FC114B0293114B0193002305AA55
:1014400004A90093204606AB0BF05CF920460BF094
:1014500099F920460BF09CF9636823B9094828F0F4
:10146000C9F927F07EFE002008B010BDF8D10208AF
:1014700015D20208C0A80169A37980861904010861
:10148000FD8C02083ED202080020704738B5154690
:1014900000F028FA041E0BDC0CD044220649074851
:1014A00028F020F921462A460548064C28F01AF96A
:1014B000204638BD044CFBE78AD20208E1B5020899
:1014C000C6D202080094FFFF0097FFFFF7B504465D
:1014D0000E46154608211D4A68461F4628F004FAA4
:1014E00006280CD952221A491A481B4C28F0FAF83F
:1014F00039461A4828F0F6F8204603B0F0BD684691
:10150000FEF770FE6A46431C1549204600F044F978
:10151000B8B920462A46314600F0E4F9041EEBDC57
:10152000E31C0CD07CB16C2209490A4828F0DAF897
:1015300021462A460B480C4C28F0D4F8DCE70B4C2B
:10154000DAE70024EFE70A4CD6E700BF2060030883
:101550009BD20208E1B50208008FFFFF09D3020801
:1015600040D3020852D302080094FFFF0098FFFF07
:101570000097FFFF38B5154600F0BAF9041E0BDCE2
:101580000CD07E220649074828F0ACF821462A46AE
:101590000548064C28F0A6F8204638BD044CFBE769
:1015A000B5D20208E1B502089ED302088087FFFF8A
:1015B0008097FFFFF8B507460C46164682B34020D9
:1015C00004F008FC054658B953221749174828F07B
:1015D00089F8174828F00EF94FF0FF342046F8BD7F
:1015E0004022002127F0BCFF022C0BD1284600F836
:1015F000084BB047044688B14FF0FF34284604F04A
:1016000077FCEBE777220849084828F06BF8214679
:10161000084828F067F86FF00104EFE73D60DDE768
:101620006FF00104DAE700BFE1D30208E1B5020878
:10163000F9D4020816D5020838B50546A1B14468A8
:1016400094B90378022B06D108308847284604F065
:101650004FFC204638BD06490648B32228F042F820
:101660002978054828F03EF86FF0010038BD00BF2A
:10167000EAD30208E1B502082CD4020870B504468A
:101680000D46D1B10378022B0DD1C668AEB1084624
:10169000002400F8014B1022FF2127F061FFC5F85C
:1016A0000D60204670BD064906484FF49B7228F035
:1016B00019F82178044828F015F86FF0010070BD82
:1016C000F5D30208E1B502085FD402080378022BC3
:1016D00010B5044618D190F83430062B0DD04FF4D5
:1016E000B3721049104827F0FDFF94F834100F48EA
:1016F00027F0F8FF4FF0FF3010BD54F8353F0B6076
:10170000A3888B80002010BD4FF4B97205490648AC
:1017100027F0E8FF2178064827F0E4FF6FF001008A
:1017200010BD00BF08D40208E1B502089AD402082F
:10173000BDD40208022A38B504460D4613460DD022
:10174000032A01D0012A0DD12278022A14D11A4687
:1017500029462046BDE8384000F000BBBDE83840CF
:1017600000F0DABE064907484FF4ED7227F0BAFFE1
:101770002178054827F0B6FF6FF0010038BD00BFA3
:101780001CD40208E1B5020847D5020810B48468E9
:10179000A4465DF8044B60472DE9F04781460E46AC
:1017A0009A461746002A7FD01C1C18BF012499F8BE
:1017B0002430022B7DD1D9F82C80B8F1000F78D0DD
:1017C0003D493046FEF704FD054600286ED1002C49
:1017D0006CD0C8F8007039493046FEF7F9FC18B9EA
:1017E00014B1C8F80870054635493046FEF7F0FCDC
:1017F00018B914B1C8F80C70054632493046FEF7E6
:10180000E7FC28B924B1C8F81070C8F814A0054640
:101810002D493046FEF7DCFC20B91CB9012388F8BD
:101820001830254629493046FEF7D2FC18B914B9BC
:1018300088F81840254626493046FEF7C9FC18B9F5
:1018400014B1C8F81C70054622493046FEF7C0FCAA
:1018500020B91CB9012389F8253025461E49304698
:10186000FEF7B6FC18B914B989F8254025461B497E
:101870003046FEF7ADFC804630B92CB1384627F033
:10188000FAFD4546A9F8260030461549FEF7A0FCAA
:10189000064630B92CB1384627F0EDFD3546A9F89B
:1018A00028002846BDE8F087144680E76FF0010560
:1018B00091E76FF00105C7E77FD502088CD50208D4
:1018C00099D50208A5D50208B1D50208C9D50208E4
:1018D000E3D50208F3D5020842B7020840D3020854
:1018E00001D60208C36803B118476FF001007047C2
:1018F000436903B118476FF001007047C36903B132
:1019000018476FF001007047036A03B118476FF082
:1019100001007047814238BFC343104428BF0023F1
:10192000401A1844704700002DE9F04F07468FB069
:101930000E4615460021202206A81C46029127F0DB
:101940000FFE97F824200223012A079304D0032ACC
:1019500020D06FF0010419E0002CFAD1062309937E
:1019600008922B46544A052104A827F0BDFF02AB7C
:1019700006AA04A9304605F021FD044698B1224686
:1019800031464E4827F0AEFE6FF0040420460FB0FB
:10199000BDE8F08F002DDCD10893112309930123BA
:1019A00006932346DEE7029D002DE8D0DFF8208174
:1019B000DFF82091DFF820B1281D07C807F0F4FCFC
:1019C000061E5ADBFA8CF2B197F82530DBB10EAB6C
:1019D00040F6FF7143F82C2D0422009241F20602DA
:1019E00007F04EFD78B1BB224146484627F07AFE0B
:1019F000334827F0FFFE304607F092FA4FF0FF36EB
:101A00006FF0040439E0002CF5D13A8DB2B197F8AB
:101A100025309BB10EAB40F6FF7143F82C2D04220C
:101A20000092304641F2050207F02AFD30B1C8228B
:101A30004146484627F056FE2248DAE797F8243018
:101A4000012B12D0032B84D12A696969304607F033
:101A5000AFFA824658BB2A696969304607F026FA10
:101A600001301BD03E63544607E02A69696930465D
:101A700007F09EFA38B93E630446ED69CDB9029885
:101A800005F092FC82E7DA224146484627F02AFE1A
:101A9000DBF800100C4827F025FEEEE7E92241466E
:101AA000484627F01FFE094827F0A4FEDBE7EE2298
:101AB000EAE7013680D0E2E738610308D3D60208AE
:101AC00008D7020828D7020849D702086AD70208AF
:101AD00029D60208E1B5020874D40020F8B5184FE1
:101AE00004460D46164694F82530206B002B0CBF9B
:101AF000082300233246294607F096FB002894F875
:101B0000253010DA38680B2817D006DCC21C0ED03E
:101B1000042812D04FF0FF3005E0202801D06828BB
:101B2000F8D16FF003000BB10028DCD0F8BDE28CD7
:101B30001AB1002BF7D11846F8BD0020F3E700BF1B
:101B400074D400202DE9F043102689B005460DEB32
:101B50000604884691460021324620461F460396D9
:101B600027F0FEFC95F825300094002B03AB019381
:101B70004A460CBF082300234146286B07F056FA5B
:101B8000041E33D01CDA1B4B1B680B2B04D010DC5B
:101B9000DA1C01D0042B10D1EC8C34B195F825302F
:101BA000002B0CBF00246FF00204204609B0BDE8F2
:101BB000F083202B1AD0682B18D04FF0FF34F4E7B5
:101BC0009DF81130022BF8D13846002300F8013B74
:101BD0003246FF2127F0C4FC059BC7F80D30BDF845
:101BE000120007F0FDFD109B1860DEE76FF00304A4
:101BF000DBE700BF74D4002070B504460D461646DE
:101C0000002332462946206B07F090FB002894F809
:101C1000253004DAC21C06D1228D3AB143B10BB192
:101C20000028EDD070BD4FF0FF30F8E71046F6E722
:101C3000184670BD2DE9F04387B004460F46904624
:101C40001D4602AE4FF0100910220021304627F049
:101C500087FC04238DF808302B78BDF83800002B62
:101C60000CBF022300238DF8093007F0B9FDD5F829
:101C70000D30ADF80A0003938DE840020023424680
:101C80003946206B07F0D8FA002894F8253004DA9A
:101C9000C21C06D1228D3AB143B143B10028D3D042
:101CA00005E04FF0FF30F8E71046F6E7184607B0BA
:101CB000BDE8F083026808B55368984205D14368CF
:101CC000536004F015F9002008BD5A68904202D113
:101CD00042685A60F5E713465268002AF5D14FF082
:101CE000FF3008BD10B50446006B002828DB022138
:101CF00007F092FBB0B9206B07F012F918B94FF05A
:101D0000FF33236310BD40F2EB120E490E4827F05B
:101D1000E9FC0E4B216B1A680D4827F0E3FC4FF0ED
:101D2000FF3010BD4FF4F8720649074827F0DAFC7F
:101D3000064A084B1268216B074827F0D3FCEEE7F0
:101D4000002010BD3CD60208E1B5020874D4002082
:101D500054D60208114A03087ED60208F8B5054693
:101D600038200F46164604F035F8044650B94E2286
:101D70001B491C4827F0B6FC1B4827F03BFD4FF0E1
:101D8000FF30F8BD3822002127F0EAFB6B68636062
:101D9000012E164B2560A36007D0032E1AD02046D3
:101DA00027F0A2FB6FF00100F8BD114BE360114B6F
:101DB0006361114BE361114B2362012384F82530E9
:101DC0004FF4FA6384F82460E384238500206C6078
:101DD0003C60F8BD0A4B23610A4BA361E9E700BFF1
:101DE00014D60208E1B50208B0D602082919000885
:101DF000DD1A0008F91B0008E51C0008B51C0008E6
:101E0000451B0008351C0008114602481A46009B75
:101E100027F068BCE4B9020810B5C46A4FF0FF337C
:101E2000036304F5BE6026F01EFA04F2247018F075
:101E30005BFC04F5727026F016FA04F2FC4025F003
:101E40006BF804F51C7024F033F804F5537024F09B
:101E5000F7F804F5987011F08FFF04F12000BDE849
:101E6000104016F035BF00002DE9F04FC46AADF503
:101E7000057D04F5537602910546AC49AC480393C1
:101E800091461AF057F8304624F07AF8A94BAA493F
:101E90001B6830469A6804F5987823F0FCFA04F53C
:101EA0007277404611F063FF384626F0D7F9A368F1
:101EB0001BB104F5BE6026F0D1F9E3681BB104F252
:101EC000247018F00CFC012004F1200A12F0DEF856
:101ED000504616F0D5FE01230093984A9849504683
:101EE00016F005FF834650B196499748952227F092
:101EF000F9FB9648CBF1000127F0F4FBB4E007238F
:101F000000935246924B9349404611F0A6FF8246F9
:101F100040B18C498C489B2227F0E4FBCAF10001B8
:101F20008D48E9E7D4F800A0BAF1000F12D050466E
:101F3000FEF758F95146421C384626F015FD8246F8
:101F400040B180498048A52227F0CCFBCAF10001AE
:101F50008248D1E7D4F804A0BAF1000F13D050465C
:101F6000FEF740F95146421C04F2FC4025F008FA05
:101F7000824640B173497448AF2227F0B3FBCAF1DF
:101F800000017748B8E7D4F808A0BAF1000F2ED0C6
:101F9000E36863B35046FEF725F95146421C04F549
:101FA000BE6026F0E1FC824640B166496648BA222E
:101FB00027F098FBCAF100016A489DE7D4F80CA00D
:101FC0005046FEF70FF963690093421C514623699E
:101FD00004F2247019F088FE824640B159495A48EB
:101FE000CF2227F07FFBCAF100015F4884E75F4BF7
:101FF0000122186805F13001FFF79CFB034648B148
:10200000029050495048DA2227F06CFB029B584856
:10201000194671E795F82510DFF870B1DFF870A167
:102020000246002914BF59465146286BFFF7B4FBFE
:10203000034618B3E1224349434827F053FB95F880
:1020400025104C48002914BF5946514627F04AFB39
:10205000286BFFF759FC38B1E4223A493A4827F097
:1020600041FB454827F0C6FB2846FFF7D5FE4FF059
:10207000FF3630460DF5057DBDE8F08F024601467E
:10208000304623F081FF824640B12E492E48ED2292
:1020900027F028FBCAF1000138482DE7237E33B32F
:1020A0000221304623F0EAF942463549304623F012
:1020B000EFF962680AB104F2FC423946304623F077
:1020C000FAF9A368ABB1E3689BB104F2247204F59A
:1020D000BE61304623F0ECF9074650B119491A4861
:1020E0004FF4847227F0FEFA7942264804E7012172
:1020F000D7E704F51C773146384623F02DFC80469F
:10210000002847D04FF488720E490F4827F0EAFAAA
:10211000C8F100011C4827F0E5FA286BFFF7F4FB33
:102120000028A1D04FF48A7297E700BFF15E000843
:10213000615F00087C000020091E0008580601208D
:102140008913000899D70208E1B502089AD8020855
:10215000D1D80208218D0108F1B50208D9D80208AA
:1021600025D9020880D90208BFB6020868060120F6
:10217000CED902080DDA02082DDA0208C8B7020823
:102180002F3F01084BDA020835B80208F3D50208E0
:1021900042B70208E16969B1384623F08FF98046F9
:1021A00040B14849484840F21D1227F09BFA414689
:1021B0004648A1E695F825304BB3E98C304623F02C
:1021C00073F9434B00930023424A296B384623F0AE
:1021D00065F9039B0299286B4A46FFF7D7FA064632
:1021E000002864D040F231123649374827F07AFA95
:1021F00033464A460299384827F074FA286BFFF7AD
:1022000083FB00283FF430AF4FF49A7225E7009328
:10221000324BD9E726F0800313F5D24F47D038462A
:1022200023F082F90346C4F8C40388B12C4A4FF462
:10223000007104A825F050FD237E2BB140F2471217
:102240002049214827F04EFA04A9264827F04AFAE7
:102250004FF4A7721B491C4827F044FA71422248E8
:1022600027F040FA286BFFF749FB40B14FF4A97201
:102270001449154827F036FA1C4827F0BBFA286B9A
:10228000FFF742FB40B14FF4AB720E490E4827F006
:1022900029FA174827F0AEFA2846FFF7BDFD16F5D4
:1022A0001C5F0CBF6FF005064FF0FF36E1E63846C5
:1022B00023F094F906460028ACD1384623F03EF9C5
:1022C000D7E600BF99D70208E1B5020864B8020852
:1022D000CD1400087515000882DA02088D14000874
:1022E000A0B90208BCDA020897B80208D5DA0208D9
:1022F0002DDA02082DE9F74FC36A009304460F4612
:10230000904600F0ADFBDFF8A090DFF8A0A0DFF86A
:10231000A0B00190002594F825303BBB009B4246BD
:10232000394603F51C7023F07DFC061E2ADC16F5E9
:10233000D14F34D029DC16F5D24F30D04FF4D272C1
:102340004946504627F0CEF97142584627F0CAF95F
:102350004FF0FF3016F5D24F02D016F5D14F20D1F5
:1023600094F82530EBB10028D5D015E000F078FBCB
:10237000E28C01460198FFF7CDFA0028CEDC6FF021
:10238000020009E03546284606E016F5D04FF6D0A3
:10239000002ED3D16FF0030003B0BDE8F08F002012
:1023A000D8E70028EFD0F7E7AFD70208E1B5020879
:1023B000F0DA02082DE9F74FC36A009304460F468E
:1023C000904600F04DFBDFF89890DFF898A0DFF81A
:1023D00098B00190002594F825303BBB009B424605
:1023E000394603F51C7023F09FFB061E2ADC16F508
:1023F000D14F2AD05EB316F5D24F26D04FF4E872F3
:102400004946504627F06EF97142584627F06AF95E
:102410004FF0FF3016F5D24F02D016F5D14F1BD139
:1024200094F82530C3B10028D5D012E000F018FB95
:10243000228D01460198FFF76DFA0028CEDC6FF07F
:10244000020006E03546284603E00020E2E76FF090
:10245000030003B0BDE8F08F0028F4D0F9E700BF17
:10246000C5D70208E1B50208A5B9020838B5044687
:10247000C06A00F51C75284623F0DEF810F5D14F30
:10248000F9D010F5D24FF6D0206BFFF737FA05469A
:10249000206BFFF739FA55EA000311D04FF4F772B9
:1024A0000A490B4827F01EF90A4827F0A3F940F221
:1024B000EF120649064827F015F9074827F09AF960
:1024C0002046FFF7A9FC002038BD00BFDBD702087B
:1024D000E1B50208F2D702082CD802080268536856
:1024E000984210B5044609D143685360E06A03F08E
:1024F000FFFC204603F0FCFC002010BD5A6894420B
:1025000002D162685A60F1E713465268002AF5D199
:102510004FF0FF3010BD00002DE9F0410546382096
:102520000F46904603F056FC044658B94B22214909
:10253000214827F0D7F8214827F05CF94FF0FF3009
:10254000BDE8F0813822002127F00AF84FF4E66058
:1025500003F040FC064658B954221649164827F0A5
:10256000C1F8174827F046F9204603F0C1FCE5E71B
:102570004FF4E662002126F0F3FF6A680123337608
:102580006260104AA260104AE260104A6261104A1A
:10259000E26184F825300F4A25604FF4FA63226225
:1025A00084F82480E3842385E66200206C603C602C
:1025B000BDE8F08181D70208E1B5020850D80208D1
:1025C00075D80208691E0008F5220008B523000826
:1025D0006D240008DD2400082DE9F04FB54EADF262
:1025E000544D002140F2E932074619A8089126F01F
:1025F000B7FFB149306827F0ABF9B04B022208A908
:102600001868FFF797F8054650B36A22AC49AD4801
:1026100027F068F8AC4827F0EDF87A22A849A948D5
:1026200027F060F8A94827F0E5F8AB1D00F0E2803C
:1026300000248D22A249A34827F054F8A44827F08B
:10264000D9F8089810B1FFF75FF905431CB92C1CA5
:1026500018BF0124644220460DF2544DBDE8F08FAE
:1026600005239C4A9C490898FFF796F8366804466B
:102670003046FDF7B7FD3246034698490898FFF704
:102680008BF80E230443964A96490898FFF784F87E
:102690009549044395482B46002F18BF01462A460A
:1026A0000898FFF779F854EA0005B6D12B4640F2B6
:1026B000BB128B4908988A4DFFF768F80446002C36
:1026C00040F08B8028228A490898FFF711F92828C2
:1026D00040F09B80874E254619ABC5F57A72591993
:1026E0000898FFF7FFF8002840F39D800544314625
:1026F00019A827F0E9F90790002800F0A28009AD99
:102700000EAF0DF134080DF130090DF12C0A0DF169
:10271000280B00262E603E60C8F80060C9F80060F3
:10272000CAF80060CBF8006012AB0597CDF81080B6
:10273000CDF80C90CDF808A00195CDF800B010AA06
:102740006D491296139627F027F9072803467DDD79
:102750006A49079827F0B8F907990670684826F083
:10276000C1FFD9F800308DF85030D8F800308DF81E
:10277000513014A93B6863488DF8523032461796A1
:10278000189601F0AAFA6049002812A818BF6FF045
:102790000204FDF71DFD002867D101238DF83C30B0
:1027A0005A492846FDF714FD002840F0CC8001234B
:1027B0008DF83D30DBF800308DF83E30DAF800302F
:1027C0005048303300220FA98DF83F3001F0F5FA60
:1027D000002818BF6FF0020420E04FF4967000F05C
:1027E00045F9002340F2BB1229460898FEF7CEFFB8
:1027F000044664E787223249324826F073FF444892
:1028000026F0F8FF6FF0030413E72D492D489522B9
:1028100026F068FF28213F4826F064FF0898FFF75C
:102820006DF805460DE73FF457AF03303FF454AF62
:10283000A7222349234826F055FF374826F0DAFF20
:1028400010E0B5F57A7FFFF647AFF1E7B7221C49F4
:102850001C48079326F046FF079B304819AA1946E3
:1028600026F040FF6FF00104D8E72D4912A8FDF7CC
:10287000AFFC08B9022391E72A4912A8FDF7A8FC8A
:1028800008B903238AE7284912A8FDF7A1FC08B973
:10289000042383E7254912A8FDF79AFC08B905230C
:1028A0007CE7234912A8FDF793FC002842D10623B8
:1028B00074E700BF08000020F1B902086806012093
:1028C0001EDB0208E1B5020861DB020891DB0208A9
:1028D000FDDB02087EDB020840D302087FD5020838
:1028E00083DB0208E3D50208B1D50208C9D5020886
:1028F00038DB020832DC020813DD0208A0DC020823
:10290000A3DC0208F4050120C0DC0208E3DC0208B5
:10291000B3DB020818DC020832DD020839DC0208E9
:10292000C5DC0208CADC0208CFDC0208D4DC0208DD
:10293000D9DC02082B4912A8FDF74AFC00287FF4D5
:102940002FAF07232AE728492846FDF741FC08B99D
:1029500002232DE725492846FDF73AFC08B9032351
:1029600026E723492846FDF733FC08B904231FE76F
:1029700020492846FDF72CFC08B9052318E71E4915
:102980002846FDF725FC08B9062311E71B49284610
:10299000FDF71EFC08B907230AE719492846FDF789
:1029A00017FC08B9082303E716492846FDF710FC71
:1029B00008B90923FCE614492846FDF709FC08B9C3
:1029C0001023F5E611492846FDF702FC08B911234A
:1029D000EEE60F492846FDF7FBFB00287FF4EAAE40
:1029E0001223E5E6DEDC0208E7DC0208EBDC020885
:1029F000EFDC0208F3DC0208F7DC0208FBDC02086B
:102A0000FFDC020803DD020807DD02080BDD020817
:102A10000FDD020808B50B4B1A6842F400721A6009
:102A20001A6842F480621A601A6842F480721A606E
:102A3000032000F02FF8002026F046FC26F092FB41
:102A4000002008BD003C0240034A044B11681B787B
:102A50000B441360704700BF947300200C000020EB
:102A6000014B1868704700BF9473002038B50446C6
:102A7000FFF7F6FF631C1CBF054B1B78054618BF0C
:102A8000E418FFF7EDFF401B8442FAD838BD00BFC1
:102A90000C000020074AD36823F4E0631B041B0CDE
:102AA00043F0BF63000243F4003300F4E0600343EB
:102AB000D360704700ED00E0174B30B5DC68C4F31D
:102AC0000224C4F10703251D042B28BF0423062D6F
:102AD0004FF0010505FA03F303F1FF338CBF033C0C
:102AE00000241940A14005FA04F4013C22400028CA
:102AF00042EA01024FEA0212ADBF00F1604000F06D
:102B00000F00064B00F56140B5BFD2B2D2B21A54E5
:102B100080F8002330BD00BF00ED00E014ED00E0C0
:102B2000002808DB4209012300F01F0003FA00F02F
:102B3000014B43F82200704700E100E082B0074BF0
:102B40004FF4FA521B68B3FBF2F3019300BF019BF1
:102B50005A1E0192002BF9D102B070477800002074
:102B600007B50023019341F2180103685A5842F453
:102B700080125A505B580193FFF7E0FF019A0368F7
:102B80005A5003B05DF804FB70B5044629B14FF408
:102B90000063C3604FF480438360E3692268E068A8
:102BA0001568002BA36843EA0003304843F4007320
:102BB00000EA05000CBF4FF48061002103430B4382
:102BC000136001201568FFF751FF236840221D6044
:102BD00001205A605D68FFF749FF23685D600025AA
:102BE0009D60DD609A6922F0BE021204120C42F070
:102BF00080029A6101209E69FFF738FF2368012057
:102C00009E61DD61DD69FFF731FF2268184BD561F8
:102C100041F21805012051590B4043F0087343F06D
:102C2000040353515659FFF721FF2368114A5E519F
:102C300003F5805301201A601D68FFF717FF226813
:102C400002F580531D60A369012B07D141F21C01DD
:102C5000535843F4803343F0400353506369064AAA
:102C6000998811601A68054B1A6070BD0F8120FFAA
:102C7000233FDEF88020C1024080024044800240B1
:102C8000F0B590F84540012C4FF0020433D00125F7
:102C900080F8455080F84440C16201F120040025CD
:102CA0004FF4801740F2F45E03F1FF3C9D420BD1DC
:102CB000026841F21003D150012380F84430002310
:102CC00080F845301846F0BD0EFB052644F8186C18
:102CD000C66944F8207C2EB954F8206C46F44006AE
:102CE00044F8206C65452CBF0E46264644F8146C0B
:102CF00001352034DAE72046F0BD2DE9F04190F8A7
:102D00004540012C4FF0020430D0012580F8455099
:102D100080F84440816201F1200400254FF0004614
:102D200044F2F45740F2F45E03F1FF3C9D420CD1B3
:102D3000026841F20C03D150012380F84430002393
:102D400080F845301846BDE8F0810EFB052844F8B0
:102D5000188C65452CBF8846A04644F8206C44F882
:102D60001C7C44F8148C01352034DFE72046BDE894
:102D7000F081000090F84530012BF0B54FF00203D0
:102D800068D0012280F8452080F8443029B980F8C5
:102D9000442080F845101046F0BDC36A1C68002C22
:102DA00006DA122380F84430002380F84530F2E739
:102DB00040F2F454A1422ED9B1FBF4F204FB1214F8
:102DC0003CB30132244C01F2F45104FB0211C1F373
:102DD0000C01002440F2F456571E1D6825F04055A2
:102DE0001D601CB91D6845F080551D60A74208BFD5
:102DF0001D685E6004BF45F000551D601D6808BF7A
:102E00005960013445F0004594421D60DB68E4D10F
:102E10000DE0012AD6D11A6842F040521A601A68B1
:102E2000C1F30C0142F0004259601A60DB68C362D2
:102E300041F2140203689958490705D504219950B5
:102E400041F2040200219950012380F8443000230C
:102E500080F845301846F0BD0CFAFFFF90F8453079
:102E6000012B30B54FF002033BD0012280F8452002
:102E700080F8443005241146836A1A68002A01DB71
:102E8000013C06D10123002280F8443080F845201F
:102E900027E01A68DD6802F44072B2F5007F03D1C2
:102EA000036381638562E7E71A6812F4407F826BEF
:102EB00002D101328263F5E70132012A08BF0363C0
:102EC00043631B688263C3F30D43043BC363036B1B
:102ED0009B680364012380F844300023856280F8F6
:102EE0004530184630BD7047704770B5026841F2F2
:102EF00014060446955915F0400521D025F0F8FE3A
:102F0000236840229A51012384F84430002384F836
:102F10004530236841F214054FF480325A515B5911
:102F20001B040CD52046FFF7DFFF23684FF4004257
:102F30005A51012384F84430002384F8453070BD91
:102F40009359DA07E5D5FFF7CEFF226801239351A5
:102F500084F8443084F84550DBE7F8B590F8443005
:102F6000822B0546164630D00268822380F8443012
:102F70001369890101F4F86403F01C012143048AF8
:102F8000E402A4B20C4344F001041461FFF768FDAD
:102F9000074614F0010007D12B685B699BB23360D0
:102FA000012385F84430F8BDFFF75AFDC01BB0F58A
:102FB000803F07D3012385F84430002385F845304E
:102FC0000320F8BD2B681C69E3E70220F8BD90F8E8
:102FD0004430422B70B505462ED0422380F8443051
:102FE00003688C01186904F4F86444F0030400F0E9
:102FF0001C0020432C8AE402A4B2044392B25A611A
:103000001C61FFF72DFD064614F0010003D10123DA
:1030100085F8443070BDFFF723FD801BB0F5803F7D
:1030200007D3012385F84430002385F84530032079
:1030300070BD2B681C69E7E7022070BDF7B500235F
:1030400000930446002800F0DE8090F8443003F03E
:10305000FF021BB980F8452025F0CCFD0023019329
:103060006A4B5A6C42F480425A645B6C03F48043AE
:103070000193019B664B5A6822F400025A605A6819
:10308000216A0A435A60236803F580531A6842F0A4
:1030900001021A60FFF7E4FC0546236803F580523D
:1030A0001268D0071DD41D6900F06AFC594B5A4ABA
:1030B0000344934225F01C0522D845F008052368F7
:1030C0004FF400421D6100212046FFF780FF0546B6
:1030D00068B3012120460125FFF756FD84F84450CE
:1030E0000BE0FFF7BDFC401BB0F5FA7FD5D90325F7
:1030F000002384F8445084F84530284603B0F0BDDE
:10310000464B474A0344934202D845F00C05D6E7A4
:10311000444B454A03449342D1D9444B444A034467
:10312000934294BF45F0040545F01005C7E7FF2022
:10313000FFF79CFC6368002B53D0FFF791FC41F232
:10314000883706466A4601212046FFF706FFFFF74B
:1031500087FC801BB8420BD901212046FFF714FDE4
:10316000012384F84430002384F845300325C4E764
:10317000009B5907E6D54FF4805200212046FFF707
:1031800026FF0028A5D1FFF76BFC41F288370646E1
:103190006A4601212046FFF7E0FEFFF761FC801B35
:1031A000B842D9D8009B9A06F2D56A461F2120461C
:1031B000FFF7D3FE00288CD1009B13F0100218BF3C
:1031C0004FF400625B074CBF00234FF48043E26082
:1031D000A36000212046FFF7D7FC012384F8443088
:1031E0008BE7A368E2685B0843EAD20292B2294601
:1031F0002046FFF7ECFE00287FF46BAF40F6FF702F
:10320000FFF734FCE5E7012577E700BF003802400F
:103210000038014000D3CEFEBFE1E40040F1E9FDFB
:103220003F787D0100796CFCFF596202001F0AFAA9
:103230007FF0FA0290F84530012B73B505464FF048
:10324000020031D000242B6885F8440001941A68EC
:10325000012642F0080285F845601A601B68019358
:10326000FFF76CFC2B68019A1A6000941A6842F010
:1032700004021A601B680093FFF760FC2B68009A39
:103280001A602846FFF76CFC2A6841F218032046B2
:10329000D15841F40051D150D15841F00201D150E0
:1032A00085F8446085F8454002B070BD2DE9F04FC7
:1032B00085B00B68DFF8AC81684ADFF8AC91019308
:1032C00000230124019D9C402540AC4240F0B08089
:1032D0004C6824F0100C0CF1FF36012E4FEA430E1F
:1032E00012D88768032606FA0EF627EA0607CE6884
:1032F00006FA0EF63E4386604768C4F3001627EAD6
:1033000005079E403E4346600326C76806FA0EF650
:10331000F64307EA060A8F6807FA0EF747EA0A0734
:10332000BCF1020FC76016D14FEAD30A00EB8A0A3C
:1033300003F0070BDAF820704FEA8B0B4FF00F0CFD
:103340000CFA0BFC27EA0C0C0F6907FA0BF747EA9B
:103350000C07CAF8207007683E4004F0030707FA1C
:103360000EFE4EEA06060660E60061D54FF0000B41
:10337000CDF80CB0D8F84470394E47F48047C8F8FF
:103380004470D8F8447007F480470397039F23F0F4
:10339000030707F1804707F59C3703F0030CD7F8C4
:1033A00008A04FEA8C0C4FF00F0E0EFA0CFEB04244
:1033B0002AEA0E0E43D006F58066B04241D006F5EB
:1033C0008066B0423FD006F58066B0423DD006F53B
:1033D0008066B0423BD048453BD006F50066B0421F
:1033E00039D006F58066B04214BF0826072606FAD3
:1033F0000CF646EA0E06BE601668EF4314F4803FF2
:103400000CBF3E402E431660566814F4003F0CBFBC
:103410003E402E435660966814F4801F0CBF3E4019
:103420002E439660D668A40254BF3E402E43D66019
:103430000133102B7FF445AF05B0BDE8F08F5E4639
:10344000D5E70126D3E70226D1E70326CFE70426F6
:10345000CDE70526CBE70626C9E700BF003C0140C3
:103460000000024000380240001402400AB18161AD
:1034700070470904FBE7436931EA030308BF090405
:10348000816170477047000008B5044B59690142DB
:1034900002D05861FFF7F6FF08BD00BF003C0140B5
:1034A0002DE9F341044608B901203FE00368DD0738
:1034B00010D4236898075AD423681A0700F19C8017
:1034C00023685B0700F1BA80A069002840F01B81E7
:1034D00000202BE0A44B9A6802F00C02042A07D0CB
:1034E0009A6802F00C02082A0AD15B68590207D5D3
:1034F0009D4B1B689A03DCD56368002BD9D1D3E7B9
:103500006368994DB3F5803F13D12B6843F4803342
:103510002B60FFF7A5FA944D06462B689B03C8D491
:10352000FFF79EFA801B6428F7D9032002B0BDE89C
:10353000F081B3F5A02F04D12B6843F480232B60D6
:10354000E3E72A6822F480322A602A6822F4802283
:103550002A60002BDDD1FFF783FA06462B689F0314
:10356000A7D5FFF77DFA801B6428F7D9DDE77E4BEE
:103570009A6812F00C0F07D09A6802F00C02082A21
:1035800011D15B685E020ED4774B1A68950702D59D
:10359000E268012A88D11A68216922F0F80242EA19
:1035A000C1021A6088E7E268704BB2B101221A606A
:1035B000FFF756FA6C4D06462B68980707D52B681F
:1035C000226923F0F80343EAC2032B6074E7FFF794
:1035D00047FA801B0228EFD9A7E71A60FFF740FAE5
:1035E000614D06462B6899077FF566AFFFF738FAFD
:1035F000801B0228F6D998E762695D4B7AB10122F7
:103600001A60FFF72DFA584D06466B6F9F073FF57E
:1036100057AFFFF725FA801B0228F6D985E71A6015
:10362000FFF71EFA504D06466B6F98077FF548AFBF
:10363000FFF716FA801B0228F6D976E74A4B1A6C78
:1036400012F0805228D101921A6C42F080521A6412
:103650001B6C03F080530193019B0126454D2B68A1
:10366000D9051BD5A368404D012B27D12B6F43F003
:1036700001032B67FFF7F4F93B4D074641F2883809
:103680002B6F9B0739D5002E3FF41EAF364A136CC3
:1036900023F08053136417E70026DFE72B6843F419
:1036A00080732B60FFF7DCF907462B68DA05D9D465
:1036B000FFF7D6F9C01B0228F7D936E7052B04D14E
:1036C0002B6F43F004032B67D0E72A6F22F001022F
:1036D0002A672A6F22F004022A67002BCAD1FFF75B
:1036E000BFF941F2883807462B6F9807CBD5FFF713
:1036F000B7F9C01B4045F7D917E7FFF7B1F9C01B71
:103700004045BDD911E7184DAB6803F00C03082BF9
:1037100047D0194E00230228336035D1FFF7A0F9B6
:1037200007462B68990129D4226AE3691343626A28
:1037300043EA8213E26A43EA0263A26A0A4C52082D
:10374000013A43EA02436B6001233360FFF788F9D3
:10375000054623689A013FF5BBAEFFF781F9401B90
:103760000228F6D9E1E600BF0038024000004742D7
:10377000800E47420070004060004742FFF770F93A
:10378000C01B0228CDD9D0E6FFF76AF904462B68A2
:103790009B017FF59DAEFFF763F9001B0228F6D968
:1037A000C3E601283FF4C2AEA868E36900F48002D2
:1037B0009A427FF479AE226A00F03F0393427FF48D
:1037C00073AE626A47F6C073034093427FF46CAEF7
:1037D000A26A00F4403393427FF466AEE36A00F0DD
:1037E0007060C01A18BF0120A0E600BF134908B5D9
:1037F0008B6803F00C03042B03D0082B03D0104874
:1038000008BD104808BD4A684B68496813F4800336
:1038100014BF0C480A48C1F3881118BF002302F0F6
:103820003F02A1FB0001FCF73BFD044B5B68C3F3C7
:10383000014301335B00B0FBF3F008BD00380240E8
:103840000024F40000127A002DE9F0410D460446F0
:1038500010B90120BDE8F081444B1A6802F00F0254
:103860008A4229D321688F072ED4C80741D43F4B01
:103870001A6802F00F02954267D3226851076DD48F
:10388000130707D53A4A2169936823F4604343EA52
:10389000C1039360FFF7AAFF354B364A9B68C3F319
:1038A0000313D35CD840344B1860344B186825F0B0
:1038B0000BFD0020BDE8F081CAB21A701B6803F04E
:1038C0000F039942C5D1CDE7294B11F0040F1EBF5C
:1038D0009A6842F4E0529A600E0742BF9A6842F436
:1038E00060429A609A68A06822F0F00202439A60EF
:1038F000BBE762681E4B012A1DD11B6813F4003F11
:10390000A7D01B4EB36823F003031343B360FFF744
:10391000A7F841F288380746B368626803F00C03E1
:10392000B3EB820FA3D0FFF79BF8C01B4045F3D940
:103930000320BDE8F081911E01291B6802D813F015
:10394000007FDDE713F0020FDAE7EAB21A701B68B6
:1039500003F00F039D427FF47CAF8EE70449E068DB
:103960008B6823F4E05303438B6089E7003C0240FB
:103970000038024023870308780000201000002050
:10398000014B1868704700BF78000020044B054ABF
:103990009B68C3F38223D35C034A1068D840704706
:1039A000003802403387030878000020044B054AA2
:1039B0009B68C3F34233D35C034A1068D840704716
:1039C0000038024033870308780000200F2303608B
:1039D0000B4B9A6802F0030242609A6802F0F00210
:1039E00082609A6802F4E052C2609B68DB0803F4CC
:1039F000E0530361034B1B6803F00F030B60704738
:103A000000380240003C0240036813F0050FF7B590
:103A1000054605D1286810F0020028D103B0F0BD9A
:103A2000414C424E00232360FFF71AF807463368E3
:103A30001B0115D4AB686A681B0743EA8213C6F8FA
:103A4000843001232360FFF70BF8384C06462368C7
:103A50001801DFD4FFF704F8801B0228F7D904E02F
:103A6000FEF7FEFFC01B0228E1D90320D6E70023A2
:103A700001932E4B2E4C1A6C42F080521A641B6C30
:103A800003F080530193019B236843F48073236008
:103A9000FEF7E6FF06462368D9051BD5234C236FA6
:103AA00013F440731CD1EB6803F44072B2F5407F0D
:103AB0001E4A34D1916823F0704021F4F81120F4AB
:103AC000407001439160116FC3F30B030B43136705
:103AD0000020A3E7FEF7C4FF801B0228DBD9C4E760
:103AE000EA6802F440729342DDD0236F114A01214B
:103AF000116023F44073002111602367236FDA07FC
:103B0000D1D5FEF7ADFF41F288370646236F9B07FC
:103B1000C9D4FEF7A5FF801BB842F7D9A5E7916885
:103B200021F4F811CEE700BF680047420038024098
:103B300000700040400E474210B5044690B14379F2
:103B400003F0FF0213B9027125F02EFB2268022355
:103B50006371136843F00403136000200123637151
:103B6000A06010BD012010BDF8B50379012B0446FB
:103B70000E4625D063790120834220711DD1022396
:103B80006371FEF76DFF07462268556815F0010561
:103B900008D09368E3603360012363710020002341
:103BA0002371F8BDFEF75CFFC01B0228ECD9012091
:103BB000022360712571A360F8BD0423A360EEE7C2
:103BC0000220F8BD026838B5D36823F0A003D360A3
:103BD0000446FEF745FF05462368DB689B0601D5D2
:103BE000002038BDFEF73CFF401BB0F57A7FF3D9CB
:103BF000032038BD38B50368DA685206044601D59B
:103C0000002038BD4FF0FF32DA60FEF729FF05468D
:103C10002368DB685B06F3D4FEF722FF401BB0F598
:103C20007A7FF5D9032038BD38B50446B8B1437F53
:103C300003F0FF0213B9027725F0CEFA022363776F
:103C40002368CA225A6253225A622046FFF7D2FFE3
:103C50002368054628B1FF225A62042363770125B1
:103C60002EE09A68206922F4E00222F040029A6075
:103C7000626899680243606902430A439A60E26895
:103C80001A611A69A16842EA01421A61DA6822F0EF
:103C90008002DA609B689B0605D42046FFF792FFFE
:103CA00008B12368D7E72368A1691A6C22F480223F
:103CB0001A641A6C0A431A64FF225A62012363775A
:103CC000284638BD0023092803D840EA0310C0B2B3
:103CD00070470A380133C0B2F5E7F8B5037F012B0E
:103CE00006460F464FF002052FD0012303770368E5
:103CF000457708784D788C789B6842BB13F0400379
:103D000008BFCB70FFF7DEFF01462846FFF7DAFF5A
:103D100002462046FFF7D6FFFB7840EA034040EA20
:103D2000014040EA02243368CA225A6253225A628E
:103D30003046FFF75FFF33680546A8B1FF225A629D
:103D4000042373770023337701252846F8BD13F049
:103D500040034FEA052508BFCB7045EA00402043E9
:103D6000CC7840EA0444DEE704F07F3424F0FE44DB
:103D70001C609A68386922F480229A60FA6899680F
:103D800002430A439A60DA6822F08002DA609B6894
:103D90009B060AD43046FFF715FF30B13368FF2287
:103DA0005A62042373773577CEE73368FF225A626D
:103DB0000123737700233377C7E7F8B5037F012B1F
:103DC00005464FF0020630D00123037746774B7843
:103DD000C8788E780C78002A48D1DA0603D523F00B
:103DE00010030A334B70FFF76DFF07464878FFF763
:103DF00069FF02463046FFF765FF40EA443040EA7B
:103E0000074040EA02242B68CA225A6253225A62AF
:103E10002846FFF7EFFE2B68064640B1FF225A62A4
:103E200004236B7700232B7701263046F8BD24F05E
:103E30007F4424F0C0045C60DA6822F08002DA601B
:103E40009B689B060AD42846FFF7BCFE30B12B685E
:103E5000FF225A6204236B772E77E5E72B68FF2257
:103E60005A6201236B7700232B77DEE71B0243EABC
:103E70000040304340EA4434C5E70368DA6842F062
:103E80000102DA609A6802F00702062A1EBF1A6869
:103E900042F001021A600020704770477047704777
:103EA000704703681A69910710B504460ED5DA68A1
:103EB00092070BD56FF002021A619B6901229B07E2
:103EC000027777D0FFF7EAFF0023237723681A6988
:103ED000500710D5DA6851070DD56FF004021A614A
:103EE0009B69022213F4407F2277204668D0FFF7B7
:103EF000D5FF0023237723681A6912070FD5DA68E4
:103F000010070CD56FF008021A61DB6904229907CB
:103F1000227720465AD0FFF7C1FF0023237723687A
:103F20001A69D20610D5DA68D0060DD56FF01002E6
:103F30001A61DB69082213F4407F227720464BD0B8
:103F4000FFF7ACFF0023237723681A69D10708D550
:103F5000DA68D20705D56FF001021A61204625F014
:103F6000F9F823681A69100608D5DA68110605D52C
:103F70006FF080021A61204600F097F923681A69F1
:103F8000520608D5DA68500605D56FF040021A616E
:103F90002046FFF785FF23681A69910622D5DA6863
:103FA00092061FD56FF0200220461A61BDE810402E
:103FB00000F07AB9FFF771FF2046FFF770FF83E743
:103FC000FFF76BFF2046FFF76AFF92E7FFF765FFF9
:103FD0002046FFF764FFA0E7FFF75FFF2046FFF7EB
:103FE0005EFFAFE710BD0000304A0368904212D078
:103FF000B0F1804F0FD0A2F57C4290420BD002F579
:104000008062904207D002F58062904203D002F5B0
:104010007842904219D14A6823F070031343234A2F
:10402000904229D0B0F1804F26D0A2F57C42904238
:1040300022D002F5806290421ED002F5806290424A
:104040001AD002F57842904216D0194A904213D005
:1040500002F5806290420FD002F5806290420BD050
:10406000A2F59832904207D002F58062904203D0C8
:1040700002F58062904203D1CA6823F4407313436F
:104080004A6923F08003134303608B68C3620B68A3
:104090008362064B984203D003F58063984201D1B6
:1040A0000B69036301234361704700BF00000140B7
:1040B0000040014010B50446A0B190F83D3003F037
:1040C000FF021BB980F83C2025F092F8022384F807
:1040D0003D302068211DFFF787FF012384F83D3024
:1040E000002010BD012010BD10B584680A4324F4DF
:1040F0007F4442EA03232343836010BD90F83C30A1
:10410000012B70B504464FF0020019D084F83D0031
:104110002068012384F83C30836823F47F4323F034
:10412000770383600B68402B65D015D8102B0CD01B
:1041300007D853B10123002084F83D3084F83C00B7
:1041400070BD202B01D0302BF4D1826843F00703DF
:1041500022F0700213431AE0602B34D019D8502B90
:10416000E8D14A68CE68016A056A25F00105056252
:10417000836921F00A0123F0F00343EA06130A439E
:1041800083610262836823F0700343F05703836006
:10419000D0E7702B0CD0B3F5005FCBD1CB684A6869
:1041A0008968FFF7A1FF2268936843F4804308E021
:1041B000CB684A688968FFF797FF2268936843F0E5
:1041C00077039360B6E74D68CE68016A21F010016D
:1041D00001628269036A22F4704223F0A00343EA79
:1041E000051342EA063282610362836823F070039A
:1041F00043F06703CBE74A68CE68016A056A25F099
:1042000001050562836921F00A0123F0F00343EA06
:1042100006130A4383610262836823F0700343F04C
:104220004703B4E790F83C30012B30B54FF0020360
:1042300035D080F83D3003680D685C6824F0700468
:1042400001222C4380F83C209A685C60154CA34204
:104250001AD0B3F1804F17D0A4F57C44A34213D0F9
:1042600004F58064A3420FD004F58064A3420BD010
:1042700004F57844A34207D004F57054A34203D058
:10428000A4F59434A34204D1496822F080020A4381
:104290009A60012380F83D30002380F83C301846B6
:1042A00030BD00BF000001407047704738B503685B
:1042B000C1681A69044622F440520A431A6125690A
:1042C000A268D968C0692A43656921F416412A4366
:1042D00021F00C0102430A43DA605A69A16922F411
:1042E00040720A43B0F5004F5A61254A29D19342E2
:1042F00003D002F58062934220D1FFF757FB62683A
:10430000256892184FF000034FF019015B41A0FBA4
:104310000101FBF7C5FF6421B0FBF1F401FB1403BD
:10432000DB003233B3FBF1F303F007025B0002EB77
:10433000041203F4F8731344AB6038BDFFF726FB97
:10434000DDE7934202D00F4A934216D1FFF72EFBCE
:104350006368256819219A00A0FB01019B0FFBF7F8
:104360009FFF6422B0FBF2F102FB11031B01323309
:10437000B3FBF2F303EB0113DEE7FFF707FBE7E71D
:10438000001001400014014010B5044640B390F8FD
:10439000393003F0FF021BB980F8382024F05EFFAB
:1043A0002268242384F83930D36823F40053D3607F
:1043B0002046FFF77BFF23681A6922F490421A61B6
:1043C0005A6922F02A025A61DA6842F40052DA602D
:1043D00000202023E06384F8393084F83A3010BD9F
:1043E000012010BD00B1007C704728B1037C8B42D6
:1043F00005D10274002070476FF0010070476FF024
:104400001C00704773B50D460446002843D00029B0
:1044100041D04B7C80F815380B7980F808381F4E56
:104420008B68C0F80C388B89A0F81038337843B902
:104430000123019302230093194A1921304625F0E4
:1044400053FAC4F82C681548FBF7CCFE2B6BC4F864
:104450003438AB8EA4F83838AB69C4F81C38AB8B51
:10446000A4F820382B6AC4F82438AB8CA4F8283878
:1044700095F8273084F82B3895F8263084F82A38B8
:10448000EB89A4F812382B7CA4F8300884F814388F
:10449000002002B070BD6FF00100FAE7D42C0020BC
:1044A00065DD02082DE9F041374D06460F460FCD78
:1044B00092B004AC0FC40FCD0FC40FCD0FC495E85C
:1044C000030084E80300002E5BD0002F59D07B68E6
:1044D000002B56D03B89002B53D0FB68002B50D0CB
:1044E0007B69002B4DD03B69002B4AD0334606F147
:1044F00050010022C3F83C28C3F84428C3F84828D8
:1045000083F8422810338B42F4D1BB69B361FB6955
:10451000F3614FF47A73F3623363BB6AC6F88C3885
:104520000125FB6AB262C6F89038B58204A930460C
:10453000FFF768FF04468046B0B93B78B37497F83C
:10454000243003933B6A02933B8901937B68009379
:1045500007F10C0170740EC906F69800FCF72CFBED
:10456000044628B186F81080204612B0BDE8F081DC
:104570003046FCF727FE06F10800FCF723FE3574F1
:10458000F2E76FF00104EFE770B40208838A4FF698
:10459000FF7293421ABF01339BB2012383821846F4
:1045A000704728B1007C033806288CBF002001200A
:1045B000704700B1807C704710B181740020704753
:1045C0006FF001007047421E002001F07F03C9090F
:1045D00018BF43F08003013002F8013F0029F4D1F5
:1045E00070470023F0B50B6001240133052B0ED07A
:1045F00010F8016B0F6806F07F0504FB05750D6070
:1046000035064FEAC414F0D413600020F0BD6FF0FB
:104610002200F0BD431C7F2B01D802307047B3F558
:10462000804F01D203307047B3F5001F34BF043010
:1046300005307047036819785A78023302EB01227B
:10464000036090B2704703680A0A1A7003685A1C24
:1046500002605970036801330360704703680246C3
:1046600013F8010B13607047036819700368013376
:104670000360704770B50E46144611460546FFF7B5
:10468000E2FF3CB122463146006824F044FF2B682B
:104690001C442C6070BD00B500283FD001390D29A5
:1046A0001CD8DFE801F0390721232527292B2D2FDE
:1046B000313335370221DB0043EA0111012AC9B247
:1046C00008BF41F00201017003789DF80420012A1F
:1046D00008BF43F001030370002003E000230370D0
:1046E0004FF0FF305DF804FB0321E4E70421E2E72B
:1046F0000521E0E70621DEE70721DCE70821DAE70C
:104700000921D8E70A21D6E70B21D4E70C21D2E70B
:104710000D21D0E70E21CEE70121CCE76FF001009B
:10472000E0E72DE9FF470E469046054630B32AB331
:10473000C36A8B4225D90DF11009002449F8044DB4
:1047400000F6980AB4420FD24046FCF70FFD58B964
:1047500004F13401CDF800904346321B2944504601
:10476000D5F8A078B84730B1A01B18BF4FF0FF3084
:1047700004B0BDE8F087039B1C44E3E76FF0010041
:10478000F6E76FF02000F3E72DE9F04F93B0044611
:1047900007910992002800F03581002900F032814C
:1047A0000EA80DF14809FCF70DFD0027A1690EA820
:1047B000FCF7E6FC49F8187D04F69806CDF8009061
:1047C00004F21C48D4F89C58079B0122414630460D
:1047D000A84710F1190F824669D0002840F01881CF
:1047E0000DF12E030D9005464FF0010B08930D9B24
:1047F0000133042B0D9300F208810DAB00930122CD
:104800000EAB0899D4F89C783046B8478246002809
:1048100040F0FE809DF82E3003F07F020BFB025526
:104820001A064FEACB1BE2D4226BAA4211D92946C1
:1048300004F21D40FFF7C7FE0DBB94F81C34099A23
:104840001B091370023BDBB20B2B29D96FF01E0A38
:104850002FE0CDF80090D4F89C780EAB414630465E
:10486000B84748B90C9B9A44236BA5EB0A029A42BD
:1048700028BF1A46AA45ECD36FF01F0A19E0411C65
:10488000CDF8009030460EAB2A464144D4F89C68DF
:10489000B04710B90C9BAB42CFD04FF0FF3A08E0C5
:1048A000012202FA03F340F2AD221A4005D04FF084
:1048B000000A504613B0BDE8F08F13F4006140F0D9
:1048C0009B809B07C2D5236B059311AB039310AB61
:1048D0000293089B01930CAB0C91ADF82E100D9137
:1048E0000093CDF810800FAB0DF139020EA90DF138
:1048F0003A0000F0EAFA82460028DAD10C9EBDF8B0
:104900002E70002E7ED02046FFF76CFD0922014656
:1049100081462046FFF769FD06EB070804F15003C6
:104920002546089308F1FF3BD5F83CA8BAF1000FE3
:1049300039D0B5F84038BB4205D13A4651463046E9
:1049400025F0B0F838B10AF1FF3A33461AF8012FD2
:1049500012BB984527D1D5F844A8BAF1000F22D050
:10496000D5F8483800933A460EAB31462046D0473A
:1049700019E02B2A03D0232A0BD0914212E01A46C9
:104980005A45134603D012F8011F2F29F8D10133DD
:10499000DCE708F1FF33FAE7984504D919782F29A5
:1049A000E7D12F2AF3D0089B10359D42BCD14A464F
:1049B00009212046FFF719FD824600287FF479AFD0
:1049C0009DF83830002B3FF474AF0DAB0193BDF868
:1049D0003C30009304220346E16A04F1340000F005
:1049E00041FA824600287FF464AF079A0D99204669
:1049F000FFF797FE82465CE76274218C2046FCF745
:104A0000D4FB56E76FF0010A53E76FF0220A50E734
:104A1000BAF1020F7FF44DAF49E7F7B50F461446E0
:104A20000646B0B1AAB102AD002305F8013D20460B
:104A3000FCF79CFB80B92A4621463046FFF7A4FECE
:104A400010F10D0F03D09DF80730BB42EFD103B03A
:104A5000F0BD6FF00100FAE76FF01B00F7E77FB5DC
:104A60001E4600230C468DF8083011460546D0B18D
:104A7000CEB1032C1AD9039000931A4602A8FFF76F
:104A80000AFE044660B99DF8081003A8FFF7ECFD84
:104A900021460398FFF797FD039B1844401B3060A5
:104AA000204604B070BD6FF00104F9E76FF02004F8
:104AB000F6E700002DE9F0410D4688B004460028D5
:104AC00000F00681FFF78EFC0128014600F0098105
:104AD00004D3A0F10B03022B40F203816FF00E050B
:104AE000F8E0002E00F02A8194F80838042B40F0FA
:104AF0002A8194F81538CDF814800C3633B1B4F807
:104B00002038B4F82828134404331E44D4F82C3831
:104B10001BB1B4F8303802331E44D4F834381BB11A
:104B2000B4F8383802331E443046FFF773FD85422F
:104B3000C0F00C81002300931A46012104A8FFF75E
:104B4000AAFD0546002840F0FB809DF8101005A83E
:104B5000FFF78AFD31460598FFF735FD059B8A4929
:104B600018440590042205A8FFF784FD94F808185E
:104B700005A8FFF779FD94F81438002B94F8153840
:104B80000CBF0021022153B194F82A3894F82B2845
:104B90005B0143EAC20341F004011943C9B2D4F8EE
:104BA00034380BB141F04001D4F82C380BB141F04E
:104BB000800105A8FFF758FDB4F8121805A8FFF703
:104BC00042FDD4F80C18002962D105A8FFF73BFD7F
:104BD00094F815386BB1B4F82028D4F81C1805A83F
:104BE000FFF748FDB4F82828D4F8241805A8FFF7E3
:104BF00041FDD4F82C1821B1B4F8302805A8FFF7EE
:104C000039FDD4F8341821B1B4F8382805A8FFF7D5
:104C100031FD0599B1EB080100F0AA8006AA2046F3
:104C2000FFF77FFD002840F08C8006AA0221204675
:104C3000FFF7F3FE002840F08480226B032A04F281
:104C40001C4340F286800490059003A80393FFF76D
:104C500005FDC0F3071002287ED105AA04A9039818
:104C6000FFF7BFFC00286CD1039B059A1344039304
:104C7000049B022B73D103A8FFF7F0FC03A8FFF7F6
:104C8000EDFC052821D8DFE800F06D78097B1A1DBE
:104C9000B4F8102805A8FFF7EDFC99E76FF025059B
:104CA000D4F8A43838469847D4F8AC3838469847F2
:104CB000A0B90B2202212046FFF797FB0AE06FF014
:104CC0002705EDE76FF02805EAE76FF02305E7E732
:104CD0006FF00105284608B0BDE8F0816FF00C05C3
:104CE000F8E702222046FFF780FB04F698072DB173
:104CF00029462046FFF786FB00283BD1D4F8983898
:104D00000021384698470646D8B906A8FCF75AFA53
:104D1000E16906A8FCF734FAB4F812382384D4F811
:104D20000C388DF8106004F13408E56AB4F81068A6
:104D3000002B7FF4D6AE002E3FF4D6AE6FF0010507
:104D400028460546ACE76FF02405F9E76FF020052B
:104D5000F6E76FF01F00F4E74FF0FF30F1E76FF078
:104D60002200EEE700236374218C2046FCF71DFA35
:104D700003229FE76FF01900E3E76FF024058FE748
:104D80006FF026058CE700BFE8DD020830B585B07E
:104D900004AB0022044643F80C2DC16A0E223430C5
:104DA000FFF75DFED0B902A8FCF70CFAE16902A892
:104DB000FCF7E6F9019919B102AA2046FFF7B1FC08
:104DC00004F69805D4F8A43828469847D4F8AC38A7
:104DD00028469847003018BF0120404205B030BD3A
:104DE00038B50446A8B1FFF7FDFA05462046FFF79F
:104DF000D8FB88B10A2229462046FFF7F6FA68B99F
:104E00002046FFF7C3FF08B1257438BD0C23237477
:104E100038BD6FF0010038BD6FF00C0038BD10B523
:104E20000446C8B1FFF7BDFB0146C0B92046FFF7F5
:104E300041FE2046FFF7D6FA032806D00D220B21AB
:104E40002046FFF7D2FA042010BD204600F0B9FA40
:104E5000002808BF032010BD6FF0010010BD6FF0E7
:104E60000E0010BD7FB50C4611460022099E8DF83C
:104E70000820054618B316B3032C039022D9881FC7
:104E800000924242424102A8FFF705FC044698B94D
:104E90009DF8081003A8FFF7E7FB02210398FFF72E
:104EA00092FB039BBDF820101844039003A8FFF762
:104EB000CAFB0398401B3060204604B070BD6FF001
:104EC0000104F9E76FF02004F6E7F0B585B01E465F
:104ED0000E9B019300230D4614460293039307464D
:104EE00020B94FF0FF37384605B0F0BD0029F8D0A3
:104EF000002AF6D0002EF4D00F9B032B3BD901A83B
:104F0000FFF7ACFBC0F30713032BEAD1C0F3C003D8
:104F10003B70C0F3410300F001002B7003AA207026
:104F200002A90198FFF75DFB07460028DBD1039B30
:104F3000019C1C44029B0194012B1C44D1DD01A85F
:104F4000FFF778FB0B9B1880019B18448442C8D361
:104F50000A9A0190201A00281360C2DB2B781BB13B
:104F600001A8FFF767FB3080019B0D9AE41A1460DB
:104F70000C9A1360B7E76FF01F07B4E77FB51546CB
:104F800000220E46019302920392044610B309B325
:104F900005B3FBB1089B032B1FD901A8FFF75EFBEC
:104FA000C0F3C0030009337003AA207002A901985E
:104FB000FFF717FB044650B9019B039A1344019372
:104FC000029B012B0CDD01A8FFF734FB2880204653
:104FD00004B070BD6FF00104F9E76FF01F04F6E74D
:104FE0004FF0FF34F3E72DE9F04F8B468FB0924638
:104FF0001D460446002800F0A680002900F0A3808A
:10500000002A00F0A080002B00F09D80FFF7C9FA75
:10501000002800F09B802046FFF7E4F903280746AC
:1050200002D0092840F09580052239462046FFF736
:10503000DCF9002840F082800CA8FCF7C3F8E16995
:105040000CA8FCF79DF82B78012B03D12046FFF725
:105050009DFAA880A9880591A968049100218DF87E
:1050600028100499E26A95F80090D5F80C8004F1B4
:10507000340303936B7800296ED003990B910AEBEC
:105080000806B9F1000F5CD102363046069207934C
:10509000FFF7C0FA069A824261D3079B00934A4603
:1050A000002303210AA8FFF7F6FA034600283BD1A4
:1050B0009DF828100BA8FFF7D7FA31460B98FFF799
:1050C00082FA0B9B18440B90524659460BA8FFF7E7
:1050D000D1FAB9F1000F03D005990BA8FFF7B3FA85
:1050E000424604990B9824F016FA0B99039B41440D
:1050F000C91A0CAA2046FFF714FB0346A0B92A7868
:10510000012A11D10CAA04212046FFF786FC034690
:1051100050B9236B00930BAA04F21C430DF1270135
:105120000AA8FFF72BFF03463A46052120460393C2
:10513000FFF75BF9039B002B18BF18460FB0BDE8C3
:10514000F08F0436A1E76FF00100F7E76FF00C0075
:10515000F4E76FF01D00F1E76FF00103E4E76FF093
:105160002003E1E72DE9FF410E469046074600285F
:105170003BD0002939D0002A37D001930023029375
:1051800003930A9B042B33D901A8FFF767FAC0F3F6
:105190000710092805D04FF0FF34204604B0BDE8C1
:1051A000F08103AA02A90198FFF71BFA0446002820
:1051B000F3D1039A019B1344029A0193012A03EB52
:1051C0000205E8DD01A8FFF735FA38803460019B5D
:1051D0009D42E2D93768012FDDD87B1C336001A8DE
:1051E000FFF73CFA08F80700F1E76FF00104D4E795
:1051F0006FF01F04D1E72DE9F04F85B000248B46F6
:1052000092469946DDF83880109F8DF80840064692
:10521000002837D0002F35D0B8F80050039005355E
:105220002846FFF7F7F958452FD808210094234660
:1052300001220DEB0100FFF72EFA0446F0B99DF8AC
:10524000081003A8FFF710FA29460398FFF7BBF9E7
:10525000039B18440390514603A8FFF7F4F9B8F8EC
:105260000020D9F8001003A8FFF704FA0F9B03A849
:105270001978FFF7F9F90398801B3860204605B0CC
:10528000BDE8F08F6FF00104F8E76FF02004F5E758
:105290002DE9F0478CB00E4692469946DDF85080D5
:1052A0000546002856D0002954D0B8F1000F51D03F
:1052B000FFF777F9002850D02846FFF793F8032826
:1052C000074601D009284BD1062239462846FFF768
:1052D0008CF8044600283AD18DF818008DF8190092
:1052E0008DF81A000AA80796ADF814A08DF813904F
:1052F000FBF768FFE9690AA8FBF742FF2846089414
:105300000994FFF743F908AB02930DF113030193DE
:1053100005AB0093024607ABE96AADF8164005F10C
:105320003400FFF768FF044648B905EB0416D6F8C9
:105330003C38C3B10134052CF7D16FF021043A4653
:1053400006212846FFF751F8002C18BF20460CB064
:10535000BDE8F0876FF00100F9E76FF00C00F6E7A9
:105360006FF01D00F3E70AAA08992846FFF7D9F95C
:1053700004460028E3D10AAA09212846FFF74DFB7D
:1053800004460028DBD12B6B009306AA05F21C43D0
:1053900009A90DF11600FFF7E5FE04460028CED15D
:1053A000079BC6F83C38BDF81430A6F84038159B6A
:1053B000C6F848389DF81330C6F8448886F8423855
:1053C000BDE72DE9F04305468BB0002873D0FFF709
:1053D000E8F8002872D02846FFF704F803280146B1
:1053E0006FD108222846FFF700F800286CD18DF80D
:1053F00014008DF815008DF81600ADF81200069017
:10540000079005EB0013D3F83C3863B9843005F5F9
:10541000046605EB001705F134080DF11809B742D1
:1054200005D100243BE001300528EAD1EEE756F82B
:10543000043C0BB91036F2E708A8FBF7C3FEE96994
:1054400008A8FBF79DFE2846EC6AFFF79FF8B31CFF
:10545000019302462146CDF808900096331F40463E
:10546000FFF7C9FE0446D0B908AA06992846FFF7F7
:1054700058F9044698B908AA09212846FFF7CDFA39
:10548000044660B92B6B009305AA05F21C4307A9DB
:105490000DF11200FFF766FE04460028CAD0032271
:1054A00008212846FEF7A1FF002C08BF044620462D
:1054B0000BB0BDE8F0836FF00104F8E76FF00C0467
:1054C000F5E76FF01D04F2E70446F0E738B504464F
:1054D000FFF786FC58B10B2304F698052374284681
:1054E000D4F8A4389847D4F8AC3828469847D4F86C
:1054F0008C381BB1D4F89018204698470B2323749E
:105500006FF00C0038BD70B50E4686B00546002819
:1055100000F0D780002900F0D480FEF763FF0C284C
:10552000044600F0D1800D2838D102A8FBF74AFECE
:10553000314602A8FBF724FE2846FEF753FF0D284C
:105540004DD16B6AB3F5FA3F00F2C38005F108064E
:105550003046FBF70BFE002870D0D5F8A83893B37F
:1055600005F698009847062804462ED12846FFF7EE
:1055700056FC0328044628D1014604222846FEF79B
:1055800034FF002814BF0446032402A8FBF7EEFDF5
:105590000028D1D014F10D0F04D084E02846FFF785
:1055A00000F810B96FF00C040AE0032C40F08E8074
:1055B000214604222846FEF718FF04460028B4D0EE
:1055C000204606B070BD6FF01104696A4900B1F55C
:1055D000FA3F696272D83046FBF7D2FDD5E70DF18C
:1055E000030202A92846FFF7CFF80446002849D154
:1055F0002B8C002BC9D02846FBF7B8FD0028C4D05F
:105600006B7CEBB12846FFF761FF044614F10D0FE8
:1056100046D1AB6A0133AB62AB7C002BC2D00D220A
:105620000B212846FEF7E1FE04460028B2D14FF4D4
:105630007A71696205F10800FBF7A2FD0424A4E772
:1056400004A8FBF7BFFDE96904A8FBF799FD06ABC9
:105650000C2243F8144DE96A05F13400FFF7FFF915
:1056600004460028D2D104AA01992846FFF759F828
:1056700004460028C6D101236B74298C2846FBF709
:1056800094FD82E700F10C03DBB2012BBAD9C31DF4
:10569000B8D010F10A0FB5D010F10D0FB9D002E05B
:1056A000002C3FF472AF042C8AD003220421284638
:1056B000FEF79BFE002C08BF044681E76FF00D0447
:1056C00063E76FF001047BE7052479E76FF01D04C1
:1056D00076E76FF00D04E8E708B501F0DFFA002087
:1056E00008BDEFF305830BB101F01CBB01F014BB47
:1056F00070B5054646692A694068B5F908400B4609
:1057000086B0296876B1AD6965B1842C14BF0334C5
:10571000002402958DE8500001F05CFA0590059890
:1057200006B070BD842C14BF0334002405AD92B2C2
:105730008DE8300001F085FA0128F0D00020EFE775
:1057400008B5002808BF012001F0FEFB002008BDBD
:105750004168012009B100F016BE00F009BE00004A
:1057600013B500240194E0B1EFF30583A3B101AABE
:10577000214601F031F8012802D0FF2002B010BD0F
:10578000019B3BB1084B4FF080521A60BFF34F8F23
:10579000BFF36F8F0020F1E700F05EFF0128ECD12E
:1057A000F8E78020EAE700BF04ED00E037B5446881
:1057B0000D466CB101291BD103230022009328461A
:1057C0002346114600F0A6FC0546284603B030BD2E
:1057D00001290FD128460322214600F0E4FC0546AA
:1057E0000028F2D023462246214600F001FDECE7D6
:1057F0000025EAE72546E8E713B500240194E0B167
:10580000EFF30583A3B101AA214600F0E5FF0128CB
:1058100002D0FF2002B010BD019B3BB1084B4FF0FE
:1058200080521A60BFF34F8FBFF36F8F0020F1E7F4
:1058300000F012FF0128ECD1F8E78020EAE700BF72
:1058400004ED00E013B500240194EFF3058393B158
:1058500001A900F008FE012813D1019B13B9002013
:1058600002B010BD084B4FF080521A60BFF34F8F4B
:10587000BFF36F8FF3E71A46194600F0B9FC012811
:10588000EDD0FF20ECE700BF04ED00E0FFF7DABF4A
:1058900007B582684AB1C3683BB10021009103C8D3
:1058A00000F038FC03B05DF804FB03C8002203B02D
:1058B0005DF804EB00F077BC1FB500240191039460
:1058C000A24208BF0122EFF30583ABB1234603AA2E
:1058D00001A900F066FD012802D0FF2004B010BD30
:1058E000039B3BB1074B4FF080521A60BFF34F8FC1
:1058F000BFF36F8F0020F1E701A900F079FC0128C8
:10590000EBD1F7E704ED00E0F0B585B000260446E2
:10591000174608460391029601AD11B98023019301
:1059200017E00096EFF30583D3B16A4602A900F0B1
:1059300053FF012804BF10230193009B18BF019659
:105940003BB10D4B4FF080521A60BFF34F8FBFF346
:105950006F8F95E8070084E80700204605B0F0BD8A
:1059600002A900F0D5FD012801D11023D7E7002FAF
:105970000CBF00234023D2E704ED00E0EFF30583E2
:105980000BB100F08CBF00F077BF10B5EFF30584CA
:105990001CB900F0A5FF204610BD822010BDFFF706
:1059A000F4BF00F1080343604FF0FF32C3600361AE
:1059B00000238260036070470023036170474368DF
:1059C0004B609A688A609A685160996003680861C0
:1059D0000133036070470A68531C30B50AD103696C
:1059E0005A684A6091608B605960036808610133AE
:1059F000036030BD00F108035C682568AA42EFD35C
:105A00002346F9E74168826803698A6082685160C9
:105A10005968884208BF5A60002202611A68013A38
:105A20001A6018687047000082B0002301930D4B84
:105A30001B68013308D04FF0500383F31188BFF384
:105A40006F8FBFF34F8FFEE74FF0500383F3118842
:105A5000BFF36F8FBFF34F8F019B002BFCD002B0C1
:105A6000704700BF1400002008480068006880F3F9
:105A700008884FF0000080F3148862B661B6BFF367
:105A80004F8FBFF36F8F00DF00BF000008ED00E015
:105A9000DFF80C00016841F47001016070470000FC
:105AA00088ED00E04FF0807340F8043C074B40F86D
:105AB0000C3C21F001016FF0020340F8081C40F893
:105AC000202C40F8243C4438704700BF295A000875
:105AD000074B19680868B0E8F04F80F30988BFF3F6
