:020000040800F2
:1000000000000220CDAF00086D3A00086F3A0008EA
:10001000713A0008733A0008753A000800000000C1
:10002000000000000000000000000000C11A0008ED
:10003000773A000800000000511B0008B51B0008BB
:100040001DB000081DB000081DB000081DB000085C
:100050001DB000081DB000081DB000081DB000084C
:100060001DB000081DB00008793A00081DB0000856
:100070001DB000081DB000081DB000081DB000082C
:100080001DB000081DB000081DB000081DB000081C
:100090001DB000081DB000081DB000081DB000080C
:1000A0001DB000081DB000081DB000081DB00008FC
:1000B000813A00088D3A0008993A00081DB00008FE
:1000C0001DB000081DB000081DB000081DB00008DC
:1000D0001DB000081DB000081DB000081DB00008CC
:1000E0001DB000081DB000081DB000081DB00008BC
:1000F0001DB000081DB000081DB000081DB00008AC
:100100001DB000081DB000081DB000081DB000089B
:100110001DB000081DB000081DB000081DB000088B
:100120001DB000081DB000081DB000081DB000087B
:100130001DB000081DB000081DB000081DB000086B
:100140001DB000081DB000081DB000081DB000085B
:100150001DB000081DB000081DB000081DB000084B
:100160001DB000081DB000081DB000081DB000083B
:100170001DB000081DB000081DB000080000000000
:080180001DB000081DB00008CD
:1001900010B5054C237833B9044B13B10448AFF3C1
:1001A00000800123237010BD8000002000000000AB
:1001B00054BF000808B5034B1BB103490348AFF314
:1001C000008008BD000000008400002054BF00082B
:1001D000034613F8012B002AFBD1181A0138704787
:1001E00001F0FF01102A2BDB10F0070F08D010F8E8
:1001F000013B013A8B422DD010F0070F42B3F6D1EC
:10020000F0B441EA012141EA014122F007047FF004
:1002100000070023F0E80256083C85EA010586EA5B
:10022000010685FA47F5A3FA87F586FA47F6A5FA97
:1002300087F68EB9EED1F0BC01F0FF0102F00702A3
:1002400032B110F8013B013A83EA010313B1F8D14E
:100250000020704701387047002D06BF354603382F
:10026000073815F0010F07D1013015F4807F02BF68
:10027000013015F4C03F0130F0BC0138704700BFB9
:1002800053B94AB9002908BF00281CBF4FF0FF31FD
:100290004FF0FF3000F07AB9ADF1080C6DE904CEF3
:1002A00000F006F8DDF804E0DDE9022304B0704751
:1002B0002DE9F0478C460D460446089E002B51D18F
:1002C0008A4217466DD9B2FA82FEBEF1000F0BD0FA
:1002D000CEF1200C01FA0EF520FA0CFC02FA0EF712
:1002E0004CEA050C00FA0EF44FEA174A250CBCFB49
:1002F000FAF81FFA87F90AFB18CC45EA0C4508FB07
:1003000009F3AB420AD9ED1908F1FF3280F02381DD
:10031000AB4240F22081A8F102083D44ED1AA4B29C
:10032000B5FBFAF00AFB105544EA054400FB09F955
:10033000A14509D9E41900F1FF3380F00A81A145F4
:1003400040F2078102383C44A4EB090440EA08402B
:100350000021002E61D024FA0EF400233460736073
:10036000BDE8F0878B4207D9002E54D0002186E8E3
:1003700021000846BDE8F087B3FA83F1002940F078
:100380008E80AB4202D3824200F2FA80841A65EB7F
:1003900003050120AC46002E3FD086E81010BDE8D2
:1003A000F08712B90127B7FBF2F7B7FA87FEBEF163
:1003B000000F34D1EB1B3A0C1FFA87FC0121B3FB71
:1003C000F2F8250C02FB183345EA03450CFB08F351
:1003D000AB4207D9ED1908F1FF3002D2AB4200F26F
:1003E000D1808046ED1AA3B2B5FBF2F002FB1055A6
:1003F00043EA05440CFB00FCA44507D9E41900F1CD
:10040000FF3302D2A44500F2B8801846A4EB0C04D6
:1004100040EA08409DE731463046BDE8F087CEF11E
:10042000200405FA0EF307FA0EF720FA04F83A0C46
:1004300025FA04F448EA0308B4FBF2F14FEA184540
:1004400002FB11441FFA87FC45EA044501FB0CF34B
:10045000AB4200FA0EF409D9ED1901F1FF3080F03A
:100460008A80AB4240F2878002393D44EB1A1FFA82
:1004700088F5B3FBF2F002FB103345EA034500FBBD
:100480000CF3AB4207D9ED1900F1FF386FD2AB4244
:100490006DD902383D44EB1A40EA01418FE7C1F1C2
:1004A000200722FA07F88B4005FA01F448EA030313
:1004B00020FA07FE4FEA134CFD404EEA040EB5FB4E
:1004C000FCF94FEA1E440CFB19551FFA83F844EA65
:1004D000054509FB08F4AC4202FA01F200FA01FA00
:1004E00008D9ED1809F1FF3043D2AC4241D9A9F146
:1004F00002091D442D1B1FFA8EFEB5FBFCF00CFB00
:1005000010554EEA054400FB08F8A04507D9E41849
:1005100000F1FF3529D2A04527D902381C4440EA12
:100520000940A4EB0804A0FB02894C45C6464D4691
:1005300015D312D056B1BAEB0E0364EB050404FADE
:1005400007F7CB401F43CC40376074600021BDE803
:10055000F0871846F8E69046E0E6C245EAD2B8EBE6
:10056000020E69EB03050138E4E72846D7E7404669
:1005700091E78146BEE7014678E702383C4445E70B
:10058000084608E7A8F102083D442BE7704700BF82
:1005900008B50B4B1A6842F400721A601A6842F4EC
:1005A00080621A601A6842F480721A60032000F0B8
:1005B0002FF8002003F01EFA03F058F9002008BDC0
:1005C000003C0240034A044B11681B780B44136043
:1005D000704700BFF81D012000000020014B186883
:1005E000704700BFF81D012038B50446FFF7F6FF3D
:1005F000631C1CBF054B1B78054618BFE418FFF7AA
:10060000EDFF401B8442FAD838BD00BF0000002037
:10061000074AD36823F4E0631B041B0C43F0BF6359
:10062000000243F4003300F4E0600343D3607047FA
:1006300000ED00E0174B30B5DC68C4F30224C4F1D0
:100640000703251D042B28BF0423062D4FF00105A9
:1006500005FA03F303F1FF338CBF033C0024194078
:10066000A14005FA04F4013C2240002842EA0102BC
:100670004FEA0212ADBF00F1604000F00F00064BE0
:1006800000F56140B5BFD2B2D2B21A5480F800234F
:1006900030BD00BF00ED00E014ED00E0002808DBF5
:1006A0004209012300F01F0003FA00F0014B43F858
:1006B0002200704700E100E000280DDB4309012221
:1006C00000F01F0002FA00F02033044A42F8230031
:1006D000BFF34F8FBFF36F8F704700BF00E100E0A3
:1006E0002DE9F04F85B00B68DFF8AC81684ADFF880
:1006F000AC91019300230124019D9C402540AC4214
:1007000040F0B0804C6824F0100C0CF1FF36012E44
:100710004FEA430E12D88768032606FA0EF627EA38
:100720000607CE6806FA0EF63E4386604768C4F3B5
:10073000001627EA05079E403E4346600326C76829
:1007400006FA0EF6F64307EA060A8F6807FA0EF76E
:1007500047EA0A07BCF1020FC76016D14FEAD30A75
:1007600000EB8A0A03F0070BDAF820704FEA8B0BD4
:100770004FF00F0C0CFA0BFC27EA0C0C0F6907FA70
:100780000BF747EA0C07CAF8207007683E4004F0F0
:10079000030707FA0EFE4EEA06060660E60061D57C
:1007A0004FF0000BCDF80CB0D8F84470394E47F438
:1007B0008047C8F84470D8F8447007F4804703971E
:1007C000039F23F0030707F1804707F59C3703F0E9
:1007D000030CD7F808A04FEA8C0C4FF00F0E0EFA5E
:1007E0000CFEB0422AEA0E0E43D006F58066B042F7
:1007F00041D006F58066B0423FD006F58066B04233
:100800003DD006F58066B0423BD048453BD006F56A
:100810000066B04239D006F58066B04214BF0826A3
:10082000072606FA0CF646EA0E06BE601668EF4387
:1008300014F4803F0CBF3E402E431660566814F4FB
:10084000003F0CBF3E402E435660966814F4801F54
:100850000CBF3E402E439660D668A40254BF3E4073
:100860002E43D6600133102B7FF445AF05B0BDE8B1
:10087000F08F5E46D5E70126D3E70226D1E70326AF
:10088000CFE70426CDE70526CBE70626C9E700BF5C
:10089000003C0140000002400038024000140240C9
:1008A0000AB1816170470904FBE7704708B5044B42
:1008B0005969014202D05861FFF7F7FF08BD00BF38
:1008C000003C01402DE9F341044608B901203FE016
:1008D0000368DD0710D4236898075AD423681A07E1
:1008E00000F19C8023685B0700F1BA80A0690028B2
:1008F00040F01B8100202BE0A44B9A6802F00C0210
:10090000042A07D09A6802F00C02082A0AD15B6810
:10091000590207D59D4B1B689A03DCD56368002BF1
:10092000D9D1D3E76368994DB3F5803F13D12B68D4
:1009300043F480332B60FFF751FE944D06462B683D
:100940009B03C8D4FFF74AFE801B6428F7D9032015
:1009500002B0BDE8F081B3F5A02F04D12B6843F4B9
:1009600080232B60E3E72A6822F480322A602A6819
:1009700022F480222A60002BDDD1FFF72FFE0646ED
:100980002B689F03A7D5FFF729FE801B6428F7D9A2
:10099000DDE77E4B9A6812F00C0F07D09A6802F0E0
:1009A0000C02082A11D15B685E020ED4774B1A68DC
:1009B000950702D5E268012A88D11A68216922F0D8
:1009C000F80242EAC1021A6088E7E268704BB2B1ED
:1009D00001221A60FFF702FE6C4D06462B6898074D
:1009E00007D52B68226923F0F80343EAC2032B6082
:1009F00074E7FFF7F3FD801B0228EFD9A7E71A6021
:100A0000FFF7ECFD614D06462B6899077FF566AF51
:100A1000FFF7E4FD801B0228F6D998E762695D4B79
:100A20007AB101221A60FFF7D9FD584D06466B6F67
:100A30009F073FF557AFFFF7D1FD801B0228F6D97E
:100A400085E71A60FFF7CAFD504D06466B6F9807A1
:100A50007FF548AFFFF7C2FD801B0228F6D976E785
:100A60004A4B1A6C12F0805228D101921A6C42F053
:100A700080521A641B6C03F080530193019B012682
:100A8000454D2B68D9051BD5A368404D012B27D1B7
:100A90002B6F43F001032B67FFF7A0FD3B4D07468B
:100AA00041F288382B6F9B0739D5002E3FF41EAFDB
:100AB000364A136C23F08053136417E70026DFE7F0
:100AC0002B6843F480732B60FFF788FD07462B6883
:100AD000DA05D9D4FFF782FDC01B0228F7D936E723
:100AE000052B04D12B6F43F004032B67D0E72A6F4B
:100AF00022F001022A672A6F22F004022A67002BE3
:100B0000CAD1FFF76BFD41F2883807462B6F980773
:100B1000CBD5FFF763FDC01B4045F7D917E7FFF7BB
:100B20005DFDC01B4045BDD911E7184DAB6803F012
:100B30000C03082B47D0194E00230228336035D10F
:100B4000FFF74CFD07462B68990129D4226AE36917
:100B50001343626A43EA8213E26A43EA0263A26AC7
:100B60000A4C5208013A43EA02436B6001233360A6
:100B7000FFF734FD054623689A013FF5BBAEFFF74A
:100B80002DFD401B0228F6D9E1E600BF00380240E7
:100B900000004742800E474200700040600047421C
:100BA000FFF71CFDC01B0228CDD9D0E6FFF716FDCC
:100BB00004462B689B017FF59DAEFFF70FFD001BE0
:100BC0000228F6D9C3E601283FF4C2AEA868E3695B
:100BD00000F480029A427FF479AE226A00F03F036B
:100BE00093427FF473AE626A47F6C0730340934248
:100BF0007FF46CAEA26A00F4403393427FF466AE99
:100C0000E36A00F07060C01A18BF0120A0E600BFC0
:100C1000134908B58B6803F00C03042B03D0082B91
:100C200003D0104808BD104808BD4A684B684968A1
:100C300013F4800314BF0C480A48C1F3881118BF8D
:100C4000002302F03F02A1FB0001FFF719FB044B58
:100C50005B68C3F3014301335B00B0FBF3F008BDF5
:100C6000003802400024F40000127A002DE9F0411F
:100C70000D46044610B90120BDE8F081444B1A68C6
:100C800002F00F028A4229D321688F072ED4C807A9
:100C900041D43F4B1A6802F00F02954267D3226895
:100CA00051076DD4130707D53A4A2169936823F495
:100CB000604343EAC1039360FFF7AAFF354B364A0E
:100CC0009B68C3F30313D35CD840344B1860344B98
:100CD000186802F08FFE0020BDE8F081CAB21A70D9
:100CE0001B6803F00F039942C5D1CDE7294B11F0E2
:100CF000040F1EBF9A6842F4E0529A600E0742BF8A
:100D00009A6842F460429A609A68A06822F0F00201
:100D100002439A60BBE762681E4B012A1DD11B6823
:100D200013F4003FA7D01B4EB36823F00303134313
:100D3000B360FFF753FC41F288380746B368626836
:100D400003F00C03B3EB820FA3D0FFF747FCC01BEB
:100D50004045F3D90320BDE8F081911E01291B68AD
:100D600002D813F0007FDDE713F0020FDAE7EAB2F2
:100D70001A701B6803F00F039D427FF47CAF8EE76F
:100D80000449E0688B6823F4E05303438B6089E7F0
:100D9000003C0240003802407DBF00080C000020EB
:100DA00004000020044B054A9B68C3F38223D35CF4
:100DB000034A1068D8407047003802408DBF0008D1
:100DC0000C000020044B054A9B68C3F34233D35CFC
:100DD000034A1068D8407047003802408DBF0008B1
:100DE0000C0000200F2303600B4B9A6802F00302F3
:100DF00042609A6802F0F00282609A6802F4E0525F
:100E0000C2609B68DB0803F4E0530361034B1B687B
:100E100003F00F030B60704700380240003C0240B3
:100E2000F8B504460E4615461F4621688A6836EA1C
:100E3000020301D00020F8BD6B1CF7D0FFF7CEFBFA
:100E4000C01B8542F1D823685A6822F0E0025A603C
:100E50006268B2F5827F0AD1A268B2F5004F02D073
:100E6000B2F5806F03D11A6822F040021A60A26ABC
:100E7000B2F5005F07D11A6822F400521A601A68AE
:100E800042F400521A60012384F85130002384F8A0
:100E900050300320F8BD38B513464268B2F5827F62
:100EA00004461FD18268B2F5004F02D0B2F5806FC0
:100EB00007D125682868B2F5806F20F040002860CF
:100EC00007D00A4680212046FFF7AAFF20B900205C
:100ED00038BD0A460121F6E7636D43F020036365E0
:100EE000032038BD0A460121EEE7000073B5134622
:100EF000134A144E15684268B5FBF6F64FF47A753E
:100F00007543B2F5827F044601950DD10A468021D2
:100F1000FFF786FF10B9002002B070BD636D43F08B
:100F2000200363650320F7E7019B002BF3D0019BAF
:100F3000013B019323689B681B06F5D4EBE700BFD8
:100F40000C00002000366E0110B50446002836D093
:100F50000023836290F8513003F0FF021BB980F840
:100F6000502002F0A5FC2168A068A269022384F841
:100F700051300B6823F040030B6063680343E06863
:100F800003432069034360690343E0690343206A24
:100F90000343A06A034302F4007003430B60120C86
:100FA000636A02F004021A434A60CB6923F40063C7
:100FB000CB6100200123606584F8513010BD012011
:100FC00010BD2DE9F3411E4690F85030012B044628
:100FD0000D46904600F09B80012380F85030FFF7CB
:100FE000FDFA074694F85100C0B2012840F08D8008
:100FF000002D5DD0B8F1000F5AD0032384F8513092
:101000000020A3686065A063A4F83680A087E0870D
:101010006064206420682563B3F5004F08BF03684F
:10102000A4F8348004BF43F48043036003685B0684
:101030005EBF036843F040030360E368B3F5006FED
:1010400063683ED113B1B8F1010F07D135F8023B07
:10105000C3602563E38E013B9BB2E386E38E9BB2C4
:10106000A3B93A4631462046FFF740FF002849D150
:10107000A36833B901932368DA6801929B680193EE
:10108000019B606D003018BF012011E02268936859
:10109000980705D5236B33F8021BD1602363D9E78A
:1010A000FFF79CFAC01BB042D8D3711CD6D00320E6
:1010B000012384F85130002384F8503002B0BDE899
:1010C000F08113B1B8F1010F08D12B780373236BB2
:1010D00001332363E38E013B9BB2E386E38E9BB235
:1010E000002BBED023689A68920703D5226B127832
:1010F0001A73ECE7FFF772FAC01B8642EED8731C36
:10110000ECD0D4E720236365B2E70220D0E70220C9
:10111000D4E72DE9F7431E4690F850300A9F012B83
:1011200004460D46914600F0E280012380F85030DD
:10113000FFF754FA94F851306168DBB2012B804616
:101140000AD0B1F5827F40F0D080A068002840F03E
:10115000CC80042B40F0C980002D00F0C480B9F190
:10116000000F00F0C080002E00F0BD8094F85130D8
:10117000C4F83890042B1CBF052384F85130002399
:101180006365236463642368E687E6861A68A68736
:10119000500658BF1A68256358BF42F04002A68621
:1011A00058BF1A60E268B2F5006F58D109B1012E3C
:1011B00007D135F8022BDA60E38E2563013B9BB241
:1011C000E3860125E38E9BB2ABB9E38F9BB293B963
:1011D000424639462046FFF789FE002840F08180CC
:1011E000A368002B32D123680190DA6801929B68D2
:1011F0000193019B2AE02268936899070DD5E38E3D
:101200009BB253B14DB1236B33F8021BD160236302
:10121000E38E013B9BB2E38600259368DB070CD588
:10122000E38F9BB24BB1A36BD26823F8022BA3636D
:10123000E38F013B9BB2E3870125FFF7CFF9A0EBDA
:1012400008008742BED87E1CBCD00320012384F84E
:101250005130002384F8503003B0BDE8F08309B169
:10126000012E08D12A781A73236B01332363E38E8E
:10127000013B9BB2E3860125E38E9BB21BB9E38F52
:101280009BB2002BA4D02268936898070ED5E38EFA
:101290009BB25BB155B1236B1B781373236B013386
:1012A0002363E38E013B9BB2E386002522689368AB
:1012B000D9070DD5E38F9BB253B1A36BD2681A70D7
:1012C000A36B0133A363E38F013B9BB2E38701254B
:1012D000FFF784F9A0EB08008742CDD87B1CCBD068
:1012E000B3E7202363650120B0E70220AEE70220C8
:1012F000B2E72DE9F3411D464368B3F5827F04460A
:10130000884617460CD1836853B9042380F85130BE
:10131000134600950A46FFF7FCFE02B0BDE8F081D7
:1013200094F85030012B79D0012384F85030FFF726
:1013300055F9064694F85100C0B201286CD1B8F1B5
:10134000000F57D0002F55D0042384F851300023CC
:1013500063652363E787A386E38623646364A368E6
:10136000A787B3F5004F2368C4F8388002BF1A6816
:1013700022F480421A601A6857065EBF1A6842F06B
:1013800040021A60E368F3B1E38F9BB2FBB12368BC
:101390009A68D20735D5DA68A36B23F8022BA363CA
:1013A000E38F013B9BB2E387EEE723689A68D0079F
:1013B00018D5A26B1B7B1370A36B0133A363E38F60
:1013C000013B9BB2E387E38F9BB2002BEDD132460A
:1013D00029462046FFF75FFDD8B9606D003018BF81
:1013E000012007E0FFF7FAF8801B8542EBD8691C63
:1013F000E9D00320012384F85130002384F85030D1
:101400008BE7FFF7EBF8801B8542BDD86B1CBBD088
:10141000EFE720236365E0E70220EBE702207CE7AB
:101420000368DA6842F00102DA609A6802F00702A3
:10143000062A1EBF1A6842F001021A600020704797
:10144000704770477047704703681A69910710B575
:1014500004460ED5DA6892070BD56FF002021A61C6
:101460009B6901229B07027777D0FFF7EAFF0023F1
:10147000237723681A69500710D5DA6851070DD50C
:101480006FF004021A619B69022213F4407F2277F5
:10149000204668D0FFF7D5FF0023237723681A6919
:1014A00012070FD5DA6810070CD56FF008021A6121
:1014B000DB6904229907227720465AD0FFF7C1FF43
:1014C0000023237723681A69D20610D5DA68D0067C
:1014D0000DD56FF010021A61DB69082213F4407F0A
:1014E000227720464BD0FFF7ACFF002323772368F9
:1014F0001A69D10708D5DA68D20705D56FF001025D
:101500001A61204602F0AAF923681A69100608D564
:10151000DA68110605D56FF080021A61204600F0E6
:1015200096F923681A69520608D5DA68500605D577
:101530006FF040021A612046FFF785FF23681A69A1
:10154000910622D5DA6892061FD56FF02002204658
:101550001A61BDE8104000F079B9FFF771FF20462D
:10156000FFF770FF83E7FFF76BFF2046FFF76AFF87
:1015700092E7FFF765FF2046FFF764FFA0E7FFF75C
:101580005FFF2046FFF75EFFAFE710BD304A0368FC
:10159000904212D0B0F1804F0FD0A2F57C42904221
:1015A0000BD002F58062904207D002F58062904233
:1015B00003D002F57842904219D14A6823F07003B3
:1015C0001343234A904229D0B0F1804F26D0A2F590
:1015D0007C42904222D002F5806290421ED002F5F9
:1015E000806290421AD002F57842904216D0194A91
:1015F000904213D002F5806290420FD002F58062D3
:1016000090420BD0A2F59832904207D002F580624A
:10161000904203D002F58062904203D1CA6823F45D
:10162000407313434A6923F08003134303608B68BC
:10163000C3620B688362064B984203D003F5806354
:10164000984201D10B69036301234361704700BFD6
:10165000000001400040014010B50446A0B190F8E0
:101660003D3003F0FF021BB980F83C2002F056F930
:10167000022384F83D302068211DFFF787FF0123F6
:1016800084F83D30002010BD012010BD10B58468E5
:101690000A4324F47F4442EA03232343836010BDBA
:1016A00090F83C30012B70B504464FF0020019D081
:1016B00084F83D002068012384F83C30836823F4DB
:1016C0007F4323F0770383600B68402B65D015D8E8
:1016D000102B0CD007D853B10123002084F83D30E3
:1016E00084F83C0070BD202B01D0302BF4D18268EF
:1016F00043F0070322F0700213431AE0602B34D04A
:1017000019D8502BE8D14A68CE68016A056A25F0DD
:1017100001050562836921F00A0123F0F00343EA21
:1017200006130A4383610262836823F0700343F067
:1017300057038360D0E7702B0CD0B3F5005FCBD19B
:10174000CB684A688968FFF7A1FF2268936843F471
:10175000804308E0CB684A688968FFF797FF2268F2
:10176000936843F077039360B6E74D68CE68016AEB
:1017700021F0100101628269036A22F4704223F0B1
:10178000A00343EA051342EA0632826103628368DA
:1017900023F0700343F06703CBE74A68CE68016A21
:1017A000056A25F001050562836921F00A0123F02D
:1017B000F00343EA06130A4383610262836823F05D
:1017C000700343F04703B4E790F83C30012B30B589
:1017D0004FF0020335D080F83D3003680D685C6837
:1017E00024F0700401222C4380F83C209A685C604D
:1017F000154CA3421AD0B3F1804F17D0A4F57C4406
:10180000A34213D004F58064A3420FD004F5806492
:10181000A3420BD004F57844A34207D004F57054DA
:10182000A34203D0A4F59434A34204D1496822F022
:1018300080020A439A60012380F83D30002380F83B
:101840003C30184630BD00BF000001407047704773
:1018500038B50368C1681A69044622F440520A4345
:101860001A612569A268D968C0692A43656921F4AB
:1018700016412A4321F00C0102430A43DA605A69F7
:10188000A16922F440720A43B0F5004F5A61254A1B
:1018900029D1934203D002F58062934220D1FFF711
:1018A00091FA6268256892184FF000034FF0190111
:1018B0005B41A0FB0101FEF7E3FC6421B0FBF1F406
:1018C00001FB1403DB003233B3FBF1F303F0070237
:1018D0005B0002EB041203F4F8731344AB6038BDF1
:1018E000FFF760FADDE7934202D00F4A934216D128
:1018F000FFF768FA6368256819219A00A0FB0101C7
:101900009B0FFEF7BDFC6422B0FBF2F102FB11035A
:101910001B013233B3FBF2F303EB0113DEE7FFF7F6
:1019200041FAE7E7001001400014014010B50446F9
:1019300040B390F8393003F0FF021BB980F838202B
:1019400002F022F82268242384F83930D36823F483
:101950000053D3602046FFF77BFF23681A6922F407
:1019600090421A615A6922F02A025A61DA6842F4F6
:101970000052DA6000202023E06384F8393084F8D4
:101980003A3010BD012010BD00F1080343604FF054
:10199000FF32C3600361002382600360704700234D
:1019A0000361704743684B609A688A609A68516027
:1019B0009960036808610133036070470A68531C2B
:1019C00030B50AD103695A684A6091608B605960EA
:1019D000036808610133036030BD00F108035C68EF
:1019E0002568AA42EFD32346F9E741688268036974
:1019F0008A60826851605968884208BF5A60002234
:101A000002611A68013A1A601868704782B00023B0
:101A100001930D4B1B68013308D04FF0500383F343
:101A20001188BFF36F8FBFF34F8FFEE74FF0500366
:101A300083F31188BFF36F8FBFF34F8F019B002B90
:101A4000FCD002B0704700BF0800002008480068C2
:101A5000006880F308884FF0000080F3148862B6B5
:101A600061B6BFF34F8FBFF36F8F00DF00BF000081
:101A700008ED00E0DFF80C00016841F4700101603E
:101A80007047000088ED00E04FF0807340F8043CA0
:101A9000074B40F80C3C21F001016FF0020340F8C5
:101AA000081C40F8202C40F8243C4438704700BF04
:101AB0000D1A0008000000000000000000000000F7
:101AC000074B19680868B0E8F04F80F30988BFF346
:101AD0006F8F4FF0000080F311887047AFF30080E4
:101AE000BC1801204FF0500383F31188BFF36F8FB0
:101AF000BFF34F8F0A4A13680133012B13600DD1D6
:101B0000084B1B6813F0FF0F08D04FF0500383F30E
:101B10001188BFF36F8FBFF34F8FFEE7704700BF91
:101B20000800002004ED00E0084A136843B94FF0B4
:101B3000500383F31188BFF36F8FBFF34F8FFEE71E
:101B4000013B13600BB983F3118870470800002034
:101B5000EFF30980BFF36F8F154B1A681EF0100F5B
:101B600008BF20ED108A20E9F04F10602DE9090030
:101B70004FF0500080F31188BFF34F8FBFF36F8F8A
:101B800001F002F84FF0000080F3118809BC1968D9
:101B90000868B0E8F04F1EF0100F08BFB0EC108AD4
:101BA00080F30988BFF36F8F704700BFAFF30080E9
:101BB000BC18012008B54FF0500383F31188BFF320
:101BC0006F8FBFF34F8F00F0B1FE18B1034B4FF092
:101BD00080521A60002383F3118808BD04ED00E0F1
:101BE000084A0949002313600B60084B4FF47A71CF
:101BF0001B68B3FBF1F30649013B0B60072313603D
:101C0000704700BF10E000E018E000E00C0000208A
:101C100014E000E0394B3A4A13B51968914208D1F3
:101C20004FF0500383F31188BFF36F8FBFF34F8FD3
:101C3000FEE71A68334B9A4208D14FF0500383F302
:101C40001188BFF36F8FBFF34F8FFEE72E4B1A78CB
:101C5000D2B20192FF221A701B782C4ADBB28DF8A7
:101C600003309DF8033003F050031370284B072214
:101C70001A6000219DF80300000602F1FF340DD424
:101C800001B11A601A68032A11D04FF0500383F390
:101C90001188BFF36F8FBFF34F8FFEE79DF80320CE
:101CA0005200D2B28DF8032001212246E2E712024F
:101CB00002F4E0621A60019B134ADBB21370154B09
:101CC0001A6842F470021A601A6842F070421A6090
:101CD000FFF786FF104B00241C60FFF7CBFE0F4A76
:101CE000136843F040431360FFF7B0FE00F04CFF71
:101CF000FFF78CFE204602B010BD00BF00ED00E0F3
:101D000071C20F4170C20F4100E400E09C0000204E
:101D1000A000002020ED00E00800002034EF00E0EB
:101D200010B50F4B1A68824218D35C6819198842A3
:101D300001BF4168184609195960446801198A426F
:101D400007D1084909688A421FBF516812680919FA
:101D500041609842026018BF186010BD1346E1E769
:101D6000B4180120A40000202DE9F041044600F041
:101D7000CFFD3E493E4D0B680BBB3E4A56071FBF89
:101D8000D01D20F0070002F58C331B1A14BF024649
:101D90004FF48C331344083B23F00703364E0B609B
:101DA00000207060326058601860981A1360334BDE
:101DB00050601860324B18604FF000432B602F6862
:101DC000274216D1002C41D004F1080358071CBF4C
:101DD00023F00703083363B1294A1668B3429046DB
:101DE00007D8254A15686868834204D809688D4277
:101DF00007D100242AE02C68002CF7D02A4625467B
:101E0000F1E7296814681160C21A102A0FD9E8187E
:101E1000410708D04FF0500383F31188BFF36F8F51
:101E2000BFF34F8FFEE742606B60FFF779FF134906
:101E30006B680868F61A1F4386424FF00003C8F823
:101E4000006038BF0E6008346F602B6000F000FE49
:101E5000630708D04FF0500383F31188BFF36F8FEF
:101E6000BFF34F8FFEE72046BDE8F081A4000020BD
:101E7000A8180120A8000020B4180120B0180120E3
:101E8000AC18012010B5044670B3184A50F8043C51
:101E90001268134208D14FF0500383F31188BFF347
:101EA0006F8FBFF34F8FFEE750F8081C41B14FF022
:101EB000500383F31188BFF36F8FBFF34F8FFEE79B
:101EC00023EA020340F8043C00F022FD084A54F8DB
:101ED000043C1168A4F108000B441360FFF720FFD5
:101EE000BDE8104000F0B4BD10BD00BFA81801202F
:101EF000AC18012010B50446FFF7F4FDA46BFFF702
:101F000013FEB4FA84F0400910BD70B51546026C9A
:101F1000866B044642B905689DB9806800F07CFF75
:101F2000A5600136A66370BD6DB9406809F03FFA3F
:101F30006368226C1344A2686360934201D32368F0
:101F400063600020EDE7C06809F031FA236CE268B5
:101F500021685B421A448A42E2603EBFA2689B1835
:101F6000E360022DEDD10EB1013EEAE73046D8E73D
:101F7000034610B41A6C084662B1D9689C681144D3
:101F8000A142D96024BF1968D960D9685DF8044BB3
:101F900009F00DBA5DF8044B704770B50446FFF7C1
:101FA000A1FD94F8455004F124066DB2002D14DC17
:101FB000FF2384F84530FFF7B7FDFFF793FD94F852
:101FC000445004F110066DB2002D12DCFF2384F89A
:101FD0004430BDE87040FFF7A7BD636A002BE7D02F
:101FE000304600F025FE08B100F0ACFE013D6DB2B8
:101FF000DCE72369002BE9D0304600F019FE08B178
:1020000000F0A0FE013D6DB2DEE7000038B50D46E0
:10201000044640B94FF0500383F31188BFF36F8F2C
:10202000BFF34F8FFEE7FFF75DFD206CE36B226887
:1020300062604343D1181B1A1344A160E36000217E
:10204000FF23A16384F8443084F8453095B92369AF
:1020500063B104F1100000F0EBFD38B10A4B4FF012
:1020600080521A60BFF34F8FBFF36F8FFFF75CFD95
:10207000012038BD04F11000FFF786FC04F12400B4
:10208000FFF782FCF2E700BF04ED00E070B50D46FB
:10209000064640B94FF0500383F31188BFF36F8FAA
:1020A000BFF34F8FFEE748434830FFF75DFE04461D
:1020B00050B1002380F8463045B92060E6632564BE
:1020C00001212046FFF7A2FF204670BD00F1480322
:1020D0000360F3E72DE9FF47894601921F46044656
:1020E00040B94FF0500383F31188BFF36F8FBFF3F4
:1020F0004F8FFEE7002940F08880036C002B00F032
:1021000084804FF0500383F31188BFF36F8FBFF3C8
:102110004F8FFEE7019E002E00F082804FF05003AB
:1021200083F31188BFF36F8FBFF34F8FFEE7019DDD
:102130001DB9FFF7F9FC002058E016B902A800F01D
:10214000B9FDFFF7F1FC00F0E3FBFFF7CBFC94F8DF
:102150004430FF2B08BF84F8448094F84530FF2BAF
:1021600008BF84F84580FFF7DFFC01A902A800F052
:10217000ADFD002843D1FFF7B5FCA66BE56BFFF77B
:10218000D3FCAE4235D1019904F1100000F036FDC8
:102190002046FFF702FF00F05BFC38B94FF0805398
:1021A000CAF80030BFF34F8FBFF36F8F0126FFF7E0
:1021B00099FCA26BE36B9A4201D3022FB7D13A4646
:1021C00049462046FFF7A1FE636A1BB104F12400D3
:1021D00000F02EFD38B1194B4FF080521A60BFF35A
:1021E0004F8FBFF36F8FFFF79FFC012004B0BDE856
:1021F000F0872046FFF7D1FE00F02AFCD6E7204604
:10220000FFF7CBFE00F024FC95E7022F02D1E36B31
:10221000012B0AD100F09CFD00283FF47BAF002683
:102220004FF00008DFF814A0C1E74FF0500383F32C
:102230001188BFF36F8FBFF34F8FFEE704ED00E00F
:102240002DE9F04385B088460192044640B94FF02D
:10225000500383F31188BFF36F8FBFF34F8FFEE7F7
:10226000002940F08680036C002B00F082804FF044
:10227000500383F31188BFF36F8FBFF34F8FFEE7D7
:10228000019E002E7AD04FF0500383F31188BFF3E4
:102290006F8FBFF34F8FFEE7019D1DB9FFF744FC21
:1022A000002052E016B902A800F004FDFFF73CFC44
:1022B00000F02EFBFFF716FC94F84430FF2B08BF0C
:1022C00084F8447094F84530FF2B08BF84F84570BB
:1022D000FFF72AFC01A902A800F0F8FC00283DD174
:1022E0002046FFF707FE98B3019904F1240000F09F
:1022F00085FC2046FFF751FE00F0AAFB38B94FF0ED
:102300008053C9F80030BFF34F8FBFF36F8F0126A2
:10231000FFF7E8FBA56B002DBED041462046013DEE
:10232000FFF726FEA563236963B104F1100000F0F6
:102330007FFC38B1134B4FF080521A60BFF34F8FC0
:10234000BFF36F8FFFF7F0FB012005B0BDE8F0830E
:102350002046FFF722FE00F07BFBD8E72046FFF780
:102360001CFE00F075FB2046FFF7C4FD0028CED010
:1023700096E700F0EDFC002882D000260027DFF869
:102380000490C5E704ED00E02DE9FF41044601910A
:1023900040B94FF0500383F31188BFF36F8FBFF341
:1023A0004F8FFEE7056C45B14FF0500383F3118862
:1023B000BFF36F8FBFF34F8FFEE700F0C9FC18B972
:1023C000019D002D40F09580DFF838812E460027D2
:1023D000FFF788FBA36BE3B1013BA363236813B949
:1023E00000F0C4FDA060236963B104F1100000F0A7
:1023F0001FFC38B1434B4FF080521A60BFF34F8F30
:10240000BFF36F8FFFF790FB0125284604B0BDE8AE
:10241000F081019B63B945B14FF0500383F31188FC
:10242000BFF36F8FBFF34F8FFEE7FFF77DFBECE746
:1024300016B902A800F03EFCFFF776FB00F068FA40
:10244000FFF750FB94F84430FF2B08BF84F844702A
:1024500094F84530FF2B08BF84F84570FFF764FB04
:1024600001A902A800F032FC40BB2046FFF742FD64
:10247000F0B123683BB9FFF735FBA06800F078FCAA
:102480000546FFF751FB019904F1240000F0B6FB6B
:102490002046FFF782FD00F0DBFA38B94FF0805399
:1024A000C8F80030BFF34F8FBFF36F8F01268FE75F
:1024B0002046FFF772FD00F0CBFAF7E72046FFF762
:1024C0006CFD00F0C5FA2046FFF714FD0028EDD0A2
:1024D000002D9AD0FFF706FB616A19B1236B1968CA
:1024E000C1F10701A06800F0E7FC0025FFF71CFB25
:1024F0008BE74FF0500383F31188BFF36F8FBFF367
:102500004F8FFEE704ED00E02DE9F0410646FFF7AE
:10251000E9FA2D4B2D4C1A682D4F01321A602568AF
:10252000002D45D126601B68012B1CD1781914356C
:10253000FFF72AFA8C2DF9D1DFF8C080254D4046EF
:10254000FFF722FA2846FFF71FFA2348FFF71CFA85
:102550002248FFF719FA2248FFF716FA214BC3F871
:102560000080214B1D60214A21491368086801330E
:102570001360F26A01239340034314200B6000FBB5
:102580000270311DFFF70EFAFFF7CEFA194B1B68E8
:1025900063B12368DA6AF36A9A4207D2164B4FF0A6
:1025A00080521A60BFF34F8FBFF36F8FBDE8F08189
:1025B000104B1B68002BD6D12368DA6AF36A9A4263
:1025C00098BF2660CFE700BF54190120BC18012036
:1025D000C8180120801901209C190120C819012068
:1025E000B4190120C0180120C41801206419012069
:1025F00068190120B019012004ED00E06C190120D8
:10260000064A13681968064B19B94FF0FF321A6071
:1026100070471268D268D2685268F8E7C018012083
:10262000941901202DE9F0470A9C099F266B02F1BD
:102630008042013A06EB82068046994626F007065C
:1026400091B34B1E04F134020F31587802F8010B9C
:1026500013F8010F08B18B42F7D1002384F84330FF
:10266000089D062D28BF06254FF0000AE562656427
:10267000201DC4F848A0FFF792F9C5F1070504F141
:102680001800FFF78CF9C4F84CA02461A5616462BE
:1026900084F850A04A4641463046FFF7F5F92060DD
:1026A00007B13C60BDE8F08784F83410D8E710B576
:1026B00090F8513004463BB9006BFFF7E3FB20462E
:1026C000BDE81040FFF7DEBB012BF9D0022B08D08C
:1026D0004FF0500383F31188BFF36F8FBFF34F8F19
:1026E000FEE710BD80B5DFF85C80124F124C134D31
:1026F000236863B9124B1B68012BF8D94FF0805344
:10270000C8F80030BFF34F8FBFF36F8FEEE7FFF7CE
:10271000E9F9FB68DE68301DFFF767F92B68013BBC
:102720002B602368013B2360FFF7FEF93046FFF77B
:10273000BEFFDDE7C81901205819012054190120F6
:10274000C818012004ED00E0F8B51B4B1B4E1D68B6
:102750000446306804300F46FFF747F9334640B966
:102760003168174EC96A32680120884022EA0002A7
:102770003260621C07D137B1196812480431BDE8D4
:10278000F840FFF70FB92C441A68A542546007D9E6
:102790000D4A10681968BDE8F8400431FFF70EB91A
:1027A0000A4A106819680431FFF708F9084B1A68DB
:1027B000944238BF1C60F8BDDC190120BC18012010
:1027C00068190120B4190120C4180120C018012083
:1027D000941901204FF0500383F31188BFF36F8FDA
:1027E000BFF34F8FFEE770B586B00B9D0C9C0DB903
:1027F000FFF7F0FF44B94FF0500383F31188BFF3A4
:102800006F8FBFF34F8FFEE754260596059E542E1B
:1028100008D04FF0500383F31188BFF36F8FBFF3DD
:102820004F8FFEE72563022584F8515004AD0195D2
:102830000A9D02940095059EFFF7F4FE2046FFF7DF
:1028400063FE049806B070BD2DE9F043074685B0DD
:102850009000884616469946FFF786FA0546E8B185
:102860005420FFF781FA0446A8B1002380F85130C4
:102870000D9B056301930C9B0290009332464B46DF
:1028800041463846FFF7CEFE2046FFF73DFE0120C9
:1028900005B0BDE8F0832846FFF7F4FA4FF0FF30AB
:1028A000F6E7000010B588B0002407AA06A905A81D
:1028B0000594069400F03AFE059B0293069B019353
:1028C00000942346079A0D490D48FFF78CFF90B1FD
:1028D0004FF0500383F31188BFF36F8FBFF34F8F17
:1028E000084B4FF0FF321A60074B01221A60074B6A
:1028F0001C60FFF78FF908B010BD00BF6CBF000867
:10290000E526000894190120B0190120DC190120E6
:10291000024A136801331360704700BF6019012039
:10292000014B1868704700BFDC1901202DE9F84FF2
:102930003C4B1B68002B6DD13B4B1C6801341C6069
:10294000BCB93A4B1A68126842B14FF0500383F396
:102950001188BFF36F8FBFF34F8FFEE7344A1968BA
:10296000106818601160334A136801331360FFF771
:1029700047FE314D314F2B689C424FF0000B0AD37C
:10298000DFF8A8A0DFF8C490DAF800201268A2B936
:102990004FF0FF322A603A68294BD16A14224A4329
:1029A0009A58022A28BF4FF0010B264A1268002AC3
:1029B0000CBF58460120BDE8F88FDAF80020D26835
:1029C000D66871688C4201D22960E4E706F10408F8
:1029D0004046FFF70AF8B16A19B106F11800FFF78F
:1029E00004F8F06AD9F80030012202FA00F1194324
:1029F000134BC9F800104FF0140E41460EFB003087
:102A0000FEF7D0FF3868F16AC26A914228BF4FF0E2
:102A1000010BB9E70C4A1368013313604FF0000B48
:102A2000C3E700BF60190120DC190120C018012094
:102A3000C41801209819012094190120BC18012004
:102A4000C8180120E01901205C1901206819012033
:102A50002DE9F843314C236843B94FF0500383F319
:102A60001188BFF36F8FBFF34F8FFEE7FFF73AF880
:102A70002368013B236024682CB10024FFF754F83D
:102A80002046BDE8F883264B1B68002BF5D0DFF805
:102A9000A890244FDFF8A480D9F80030E3B90CB136
:102AA000FFF7AEFD204D2C6844B1204E0127FFF703
:102AB0003DFF00B13760013CF9D12C601B4B1B6816
:102AC000002BDAD01A4B4FF080521A60BFF34F8FB1
:102AD000BFF36F8F0124D1E7D9F80C30DC68261DD5
:102AE00004F11800FEF781FF3046FEF77EFFE26A30
:102AF0003968012505FA02F314200B4300FB02801C
:102B000031463B60FEF74EFF0A4BE26A1B68DB6A08
:102B10009A4224BF054B1D60BEE700BF601901202B
:102B200054190120681901205C190120E0190120C5
:102B300004ED00E0BC1801209C190120C8180120F8
:102B400008B540B90E4B4FF080521A60BFF34F8F5B
:102B5000BFF36F8F08BD0B4B196841B14FF05003A5
:102B600083F31188BFF36F8FBFF34F8FFEE7FFF73B
:102B7000CFFEFFF7E9FDFFF76BFF0028E2D008BDAD
:102B800004ED00E060190120174B1A68174B10B5CF
:102B900012B101221A6010BD1A60154B1B68B3FAFE
:102BA00083F3DBB2C3F11F03142212495A4388187E
:102BB0008C5844B94FF0500383F31188BFF36F8FE3
:102BC000BFF34F8FFEE744680832646844600A44EC
:102BD000944204BF62684260142202FB03135B68E4
:102BE000DA68054BD6E700BF60190120E019012023
:102BF00068190120C8180120BC18012010B50C4626
:102C000040B94FF0500383F31188BFF36F8FBFF3C8
:102C10004F8FFEE7054B19681831FEF7CFFE2046AF
:102C20000121BDE81040FFF78FBD00BFBC18012097
:102C300038B5C368DC6844B94FF0500383F311889A
:102C4000BFF36F8FBFF34F8FFEE704F118052846DF
:102C5000FEF7CBFE114B1B68E3B9251D2846FEF796
:102C6000C4FE0F49E26A08680123934003430B60E6
:102C70000C4B1420294600FB0230FEF793FE0A4B52
:102C8000E26A1B68DB6A9A4283BF084B0120186026
:102C9000002038BD29460648EFE700BF6019012033
:102CA00068190120C8180120BC180120E019012072
:102CB0009C190120034B1B680360034B1B68436096
:102CC000704700BF98190120DC19012070B50C462F
:102CD000054640B94FF0500383F31188BFF36F8F5F
:102CE000BFF34F8FFEE741B94FF0500383F31188D4
:102CF000BFF36F8FBFF34F8FFEE7FEF7F3FE0F4B6F
:102D000069681A682368581C0ED00D482E68006840
:102D1000864201D08A420ED2521A9A4209D29B1A96
:102D200023602846FFF7C6FF0024FEF7FDFE20467D
:102D300070BD002323600124F7E700BFDC190120E8
:102D400098190120014B01221A607047E0190120F7
:102D5000054B1B6833B1054B1B68002B0CBF0220D1
:102D60000020704701207047B01901206019012030
:102D70002DE9F0410446002835D0244AC36A116881
:102D8000C96A8B42174637D28269214D002AA1BFFA
:102D90003A68D26AC2F1070282611426426906FBD0
:102DA00003539A4222D100F104084046FEF71DFE6B
:102DB000184B48B9E06A4643AA592AB91A68012152
:102DC000814022EA01021A603A681968D26AE26216
:102DD000012404FA02F0084318601420414600FB65
:102DE0000250FEF7DFFD2046BDE8F0813B68DB6A5C
:102DF000C3620120BDE8F0811368406CDC6AA04228
:102E00002CBF00200120BDE8F08100BFBC180120CC
:102E1000C818012068190120F8B5044608B9002037
:102E2000F8BD224B1B68984208D04FF0500383F343
:102E30001188BFF36F8FBFF34F8FFEE7836C43B9E9
:102E40004FF0500383F31188BFF36F8FBFF34F8FA1
:102E5000FEE7C16A426C013B91428364DFD0002BE4
:102E6000DDD1051D2846FEF7C0FD114E114A50B9AF
:102E7000E76A1421794373582BB913680120B840CD
:102E800023EA00031360636CE362C3F10701A161ED
:102E90001168012404FA03F008431060142000FBB9
:102EA00003602946FEF77EFD2046F8BDBC180120D0
:102EB000C818012068190120F8B5044600284DD033
:102EC000826C42B94FF0500383F31188BFF36F8FC8
:102ED000BFF34F8FFEE7436C994238BF1946C36A70
:102EE0008B423BD0012A39D11D4A1268904208D149
:102EF0004FF0500383F31188BFF36F8FBFF34F8FF1
:102F0000FEE78269174DC162002A4FF0140642693C
:102F1000A8BFC1F1070106FB0353A8BF81619A4214
:102F20001CD1071D3846FEF760FDE26A0E4C40B921
:102F30005643AB592BB923680121914023EA010381
:102F400023602168012393400B43142023603946FA
:102F500000FB0250BDE8F840FEF724BDF8BD00BFFD
:102F6000BC180120C818012068190120044B1A68F8
:102F70001AB119688A6C01328A641868704700BFF8
:102F8000BC18012090F835300448DB074FF00102EF
:102F90004CBF11460221FDF783BC00BF0010024068
:102FA00007B502228DF804008DF8051001A8002154
:102FB00001F0A2F903B05DF804FB07B502A90222F3
:102FC00001F8040D084601F097F99DF8050003B0DB
:102FD0005DF804FB38B5044601200D4601F0C8F940
:102FE0003A2001F047F9AAB221460020BDE8384056
:102FF00001F082B982B000230193064B1B6858434D
:10300000019B984201D802B07047019B01330193A4
:10301000F6E700BFE419012010B50446FF2001F0D7
:103020003DF9002323740220BDE81040FDF7DCBA0F
:1030300038B5037C8B4205460C4609D00321BF20DE
:10304000FFF7AEFF1CB121469F20FFF7A9FF2C74AC
:1030500038BD13B50C46C1F34111FFF7E9FF02A9D2
:1030600004F01F0301F8043D64B2002C0846B4BF0D
:103070000322022201F040F9002CB4BF9DF80600A3
:103080009DF8050002B010BD70B50646FDF7A6FA22
:103090000546EA213046FFF7DCFF0446FDF79EFABD
:1030A00014F00104A0EB050002D03128F1D901246D
:1030B00084F0010070BD37B50C4604F01F04C1F365
:1030C0004111154644F04004FFF7B2FF02220021EF
:1030D00001A88DF804408DF8055001F00DF903B0FA
:1030E00030BD38B5044615460A46D421FFF7E3FF44
:1030F000EAB22046D621FFF7DEFF2A0A2046D72172
:10310000FFF7D9FF0C20FFF775FF2046BDE83840D8
:10311000FFF7BABF73B56E4D6E4B2B600446FDF7DB
:103120005DFA0646FDF75AFA8642FBD000232A686C
:103130000193019B9342C0F0AE80FDF74FFA4FF42C
:103140007A73801B58432B68B3FBF0F320462B6047
:10315000FFF762FF00212046FFF76AFF7221204639
:10316000FFF777FF0138C0B2FD284FF0000500F2ED
:10317000AD8080215E20FFF713FF2A4608212046FC
:10318000A582FFF798FF2A4609212046FFF793FF03
:10319000FF220C212046FFF78EFF19220D21204629
:1031A000FFF789FFFF220A212046FFF784FF19223B
:1031B0000B212046FFF77FFF2A4604212046258366
:1031C000FFF779FF1A2205212046FFF774FFA1229D
:1031D00038212046FFF76FFF0A20FDF705FA1D2171
:1031E0002046FFF736FFC207F6D50D22C021204644
:1031F000FFF761FF2268A368002A50D1002B0CBFA3
:1032000032220222C2212046FFF755FF4022C3216D
:103210002046FFF750FF1222C6212046FFF74BFF42
:103220000C22C7212046FFF746FF1222C421204668
:10323000FFF741FFEE22CA212046FFF73CFF05229F
:10324000CB212046FFF737FF2268002A36D11146EE
:103250002046FFF746FF4FF4807210212046FFF70B
:1032600040FF237BDB0604D5122211462046FFF7E0
:1032700038FF3B21BC20FFF793FE217B09B141F0D1
:1032800080019B20FFF78CFE9F200421FFF788FE22
:10329000012002B070BD019B0133019349E7002B6F
:1032A0000CBF33220322C2212046FFF704FF122263
:1032B000C6212046FFF7FFFE1522B7E74FF48072C4
:1032C00000212046FFF70DFF0022C6E72846E0E771
:1032D000E419012040420F0010B5436804461A78F3
:1032E000E421FFF7E8FE636820465A78E521FFF7FE
:1032F000E2FE636820469A78E221FFF7DCFE63680D
:103300002046DA78E321FFF7D6FE636820461A7973
:10331000E021FFF7D0FE636820465A79E121BDE83D
:103320001040FFF7C8BE38B5044601200D4601F035
:103330001FF87A2000F09EFF2A4620460021BDE8B3
:10334000384000F0D9BFF7B506460D46FDF746F9FF
:1033500007461F20FFF731FE0446FDF73FF914F042
:103360000804A0EB07001CD03128F2D96FF002004E
:1033700003B0F0BDEAB206213046FFF79CFE2A0AF0
:1033800007213046FFF797FE7A2301A98DF8043014
:1033900008460E2302228DF8053000F0ADFF2046CE
:1033A000E6E7224604213046FFF785FE1A22052172
:1033B0003046FFF780FE224602213046FFF77BFEB3
:1033C00005F5D0551A2203213046FFF774FEADB241
:1033D00041F6F8739D42CDD94FF0FF30C8E7038B1B
:1033E00073B50446002B4AD01023838480219F208C
:1033F000FFF7D6FD8021BF20FFF7D2FD0A21BC20B8
:10340000FFF7CEFD08219F20FFF7CAFDFDF7E6F884
:1034100005461C20FFF7D1FD0646FDF7DFF816F044
:103420000A0FA0EB050001D13128F2D90821BF20F5
:10343000FFF7B6FD228B02F5D052043295B2EAB204
:1034400000212046FFF737FE2A0A01212046FFF718
:1034500032FE01210DF10700FFF7BCFD1C20FFF734
:10346000ACFD820709D59DF807309B0605D5A38CD6
:10347000013B9BB2A384002BB8D10023238302B06D
:1034800070BD73B539210546FFF7E3FD00284BD029
:103490002A7D00212846FFF70EFEAA8A0121120A82
:1034A0002846FFF708FE06216846FFF793FD9DF8C2
:1034B00001209DF800309DF8044043EA022314F0F7
:1034C0008004AB8214D09DF803309DF8021041EACD
:1034D0000321A1F113039BB240F2CD5293421ED8B7
:1034E0000439A96205F12C0009B2FFF773FD01242C
:1034F000AE8AB6B1013EB6B2321C18BF01220C2111
:103500002846FFF7D8FD0D212846320AFFF7D3FDE4
:1035100040219E20FFF744FD204602B070BD0024EC
:10352000E6E741F6FF16E7E70446F5E7034B0360DD
:10353000034B0B6082231360704700BFF01B012018
:10354000E8190120FEE7000008B5054C204600F010
:1035500031FE00F089FE4FF4FA70FFF7F1FAF5E75B
:10356000801E012030B595B03022002108A807F058
:1035700029FF0021142203A807F024FF00241C4B7C
:1035800001941A6C42F080521A641B6C03F0805351
:103590000193019B174B02941A6842F480421A600F
:1035A0001B6803F480430293029B012308934FF4AA
:1035B000803309934FF480030225A8220F9308A8B3
:1035C00004231093119213930E951295FDF77AF937
:1035D0000F2303934FF4A053069305214FF4805318
:1035E00003A8049505940793FDF740FB15B030BD83
:1035F000003802400070004080B590B0FCF7C8FF72
:10360000FFF7B0FF142200210BA8002407F0DAFE18
:103610007C4B05941A6B7C4842F080021A631A6B4B
:1036200002F080020592059A06941A6B42F001029C
:103630001A631A6B02F001020692069A07941A6B3B
:1036400042F004021A631A6B02F004020792079A0E
:1036500008941A6B42F008021A631B6B03F008030C
:10366000089322461021089BFDF71AF922464FF4D1
:1036700060416648FDF714F91026654B65480C93C8
:103680000BA901250B960D94FDF72AF80BA95E48AE
:103690000C950B960D940E94FDF722F84FF46043B1
:1036A0000BA95A480B930C950D940E94FDF718F83E
:1036B000052122460A20FCF7BDFF0A20FCF7EEFF99
:1036C0005548564A564D84604FF4827380E80C008A
:1036D0004FF4007383610A23C362C46004614461D0
:1036E000C461046244628462FDF72EFC32462146C6
:1036F0000BA807F067FE4B4BAC604FF0530940F24C
:10370000E738284685E80802C5F80C802C61AC61D2
:103710004FF4805709940A94FDF79EFF0BA92846A1
:103720000B97FDF7BDFF09A9284609943E4D0A9461
:10373000FEF74AF8324621460BA807F043FE3B4B02
:10374000AC60284685E80802C5F80C802C61AC61A5
:1037500009940A94FDF780FF0BA928460B97FDF703
:103760009FFF09A9284609940A94FEF72DF83048CE
:10377000304984604FF4E13380E80A000C23436150
:10378000C46004618461C461FEF7D0F8214620461C
:1037900000F00EFC284B04936FF07F43274D0993F4
:1037A000274B0293274B019309AA0BAB0DEB0601A4
:1037B000009428460B9403F039FD284603F0C0FD21
:1037C00095F83530580702D5284603F0BFFD002490
:1037D0001A481D4DFFF7D6FB23464FF416721B49BE
:1037E000019500941A48FFF72FF8022300934FF435
:1037F000C8722346174901951748FFF725F8FFF7C8
:1038000051F8FEE70038024000080240000C024078
:103810000000111000000240101F01200030014084
:10382000C41E012000040040001E012000080040CA
:10383000401E012000480040A9FEC111801E012049
:10384000953F000811420008441C012071BF000888
:103850004935000877BF0008453500080368B3F113
:10386000804F01D1FCF7AEBE7047000007B50F4B8B
:1038700000220092596C41F480415964596C01F462
:103880008041009100990192196C41F080511964B6
:103890001B6C03F0805301930F216FF00100019B1B
:1038A000FCF7C8FE03B05DF804FB00BF003802401F
:1038B00010B5044688B01422002103A807F082FD49
:1038C0002268144B9A4222D103F5843300210191DE
:1038D0005A6C114842F480525A645A6C02F4805275
:1038E0000192019A02911A6B42F001021A631B6B5A
:1038F00003F001030293029BE0230393022304934A
:103900000323069303A905230793FCF7E9FE08B0F8
:1039100010BD00BF003001400000024007B5036841
:10392000164A934215D1164B00220092196C41F0B1
:10393000020119641B6C03F0020300931D20052192
:10394000009BFCF777FE1D20FCF7A8FE03B05DF896
:1039500004FB0C4A9342F9D1094B00220192196CE5
:1039600041F0040119641B6C03F0040301931E2051
:103970000521019BFCF75EFE1E20E5E700040040E8
:10398000003802400008004010B5044688B01422F8
:10399000002103A807F016FD2268144B9A4223D198
:1039A00003F5F833002101911A6C114842F480228A
:1039B0001A641A6C02F480220192019A02911A6B25
:1039C00042F008021A631B6B03F008030293029B88
:1039D0004FF440730393022304930323069303A934
:1039E00007230793FCF77CFE08B010BD0048004099
:1039F000000C024030B5014689B000221C20FCF7C3
:103A000019FE1C20FCF74AFE0025154B02951A6C86
:103A1000144C42F001021A641B6C03F00103029380
:103A200001A903A8029BFDF7DDF9FDF7BBF94FF0F3
:103A30008043236040F2E733E36040000A4BB0FB71
:103A4000F3F00138606020462561A560FDF704FEB3
:103A500020B92046FDF7E4FC09B030BD0120FBE7AA
:103A600000380240681F012040420F007047FEE707
:103A7000FEE7FEE7FEE770471020FCF717BF0000E7
:103A80000148FDF7E1BC00BF681F01200148FDF7B8
:103A9000DBBC00BFC41E01200148FDF7D5BC00BF40
:103AA000001E012001207047024B16221A604FF0C1
:103AB000FF30704790A90120014B16221A60FEE7E3
:103AC00090A9012070B50E4615460C46A31B9D42D9
:103AD00001DC284670BDAFF3008004F8010BF5E768
:103AE00070B50E4615460C46A31B9D4201DC2846C8
:103AF00070BD14F8010BAFF30080F5E7094B1968AE
:103B0000024609B9084919601868694602448A42A0
:103B100089BF064B1A600C224FF0FF3088BF1A6035
:103B2000704700BF481C012094A9012090A90120E2
:103B30004FF0FF3070474FF400534B600020704748
:103B40000120704700207047054BD3F8882042F4CD
:103B50007002C3F888204FF000629A60704700BF7F
:103B600000ED00E07047FEF7DBBE000038B50D4603
:103B7000044650B9154B1649FA22164807F0D6FCF0
:103B8000002007F005FB07F04AFA012903D90F4B83
:103B90001149FC22F1E7032200210120FEF776FA09
:103BA000206078B1012D01D0002038BD00231A46D5
:103BB0001946FEF78FFA0128F6D0044B074940F268
:103BC0000712DAE74FF0FF3038BD00BF0CC0000825
:103BD000A7C0000836C000085EC0000881C0000809
:103BE00010B558B9104B11494FF48872104807F0BE
:103BF0009DFC002007F0CCFA07F011FA046824B904
:103C0000094B0C4940F21112F0E700231A461946FD
:103C10002046FEF75FFA012804D9034B06494FF40A
:103C20008B72E3E710BD00BF0CC00008A7C00008FE
:103C300036C00008A2C00008B3C0000838B558B9A3
:103C4000174B184940F21D12174807F06FFC00206F
:103C500007F09EFA07F0E3F9046824B9104B134902
:103C60004FF48F72F0E759B94FF0FF312046FEF75D
:103C70008BFB01280ED00A4B40F223120C49E3E7DC
:103C80002046FEF781FB38B1012803D0044B40F2F7
:103C90002B12F3E7012038BD4FF0FF3038BD00BFD5
:103CA0000CC00008A7C0000836C00008A2C0000869
:103CB000A7BF000810B50B46044658B90E4B0F4974
:103CC0004FF4A1720E4807F031FC002007F060FAB3
:103CD00007F0A5F9002904DC074B0A4940F243121A
:103CE000F0E7002204211846FEF7D0F92060B0FA70
:103CF00080F04009404210BD0CC00008BFBF000862
:103D000036C00008CCBF000813B5019158B9134B59
:103D1000134940F25D12134807F008FC002007F039
:103D200037FA07F07CF9046824B90C4B0E494FF4BC
:103D3000AF72F0E700231A4601A92046FEF7CAF940
:103D4000012805D038B1054B08494FF4B272E2E7BB
:103D5000002002B010BD4FF0FF30FAE70CC00008A1
:103D6000BFBF000836C00008D5BF0008F8BF000874
:103D700073B50C46164658B91A4B1B494FF4C2721C
:103D80001A4807F0D3FB002007F002FA07F047F9C2
:103D9000056825B9134B164940F28512F0E701B9C1
:103DA00001AC66B94FF0FF3221462846FEF748FACB
:103DB000012815D00B4B4FF4C7720E49E0E732468D
:103DC00021462846FEF73CFA20B920604FF0FF302C
:103DD00002B070BD012803D0024B40F29712ECE70D
:103DE0000120F5E70CC00008BFBF000836C000087E
:103DF000D5BF000895BF00081FB504460846191E28
:103E00000BDC104B104940F2D712104807F08EFB24
:103E1000002007F0BDF907F002F903AB0193069B00
:103E200000931346C1F38F022146FEF70DFD0128D2
:103E300004D0044B064940F2E112E6E7039804B0CF
:103E400010BD00BF0CC00008D5C0000836C0000877
:103E5000E7C0000807B500212D48FFF7EFFE2D4B06
:103E60001B6813B12C4A10689847294D2B4E06F059
:103E70000DFD431C044618D12846FFF7B1FE01A9E9
:103E800000223046FFF774FF00212846FFF7D6FED8
:103E9000019CF4B9224B91222249234807F046FBAA
:103EA000002007F075F907F0BAF810B906F0CCFC5D
:103EB000DDE72846FFF794FE224601A93046FFF7CA
:103EC00057FF002104462846FFF7B8FE0134EDD025
:103ED000DEE72378012B11D004D3022B14D0104B32
:103EE000CF22D9E7201D0BC8984710B1606803F0B6
:103EF00017FB2146092003F0DFF8B8E7A0686368E4
:103F0000984721460820F6E76368A0689847AEE71F
:103F1000A81F01204C1C0120501C0120541C012012
:103F200054C100086CC1000836C000082DE9F041FA
:103F3000144D2C6880460F46164654B9124B13494F
:103F40001348FC2207F0F2FA204607F021F907F0A7
:103F500066F8092003F08CF8044670B10023037062
:103F6000C0F804808760C66001462846FFF7CCFE93
:103F700028B12146092003F09FF84FF0FF30BDE83B
:103F8000F08100BF541C012054C1000847C1000843
:103F900036C0000891F8353013F0180F14BF024AEC
:103FA000024AFFF7C3BF00BFADAE00080D610008B5
:103FB00037B505460C4600F09AFA154B15481D60BA
:103FC000154B05211C60FFF775FE58B1134B1449C2
:103FD00040F26122134807F0A9FA002007F0D8F850
:103FE00007F01DF801211048FFF7C0FD024620B17F
:103FF0000A4B0E4940F26522ECE7052300930C4979
:104000000C484FF47A73FFF7F7FE03B030BD00BFE2
:104010004C1C0120541C0120501C012054C10008DC
:10402000FCC0000836C00008A81F01201FC10008FE
:10403000553E000840C1000840BA80B2704700BA3F
:1040400070470000F8B50D480F460989FFF77BF966
:10405000054688B93C46064661896068FFF763F902
:10406000638924681E44002CF6D13B899E420ABF16
:10407000024B6FF001051E832846F8BDAC1F0120DE
:104080000A480B4B4FF400724FF4827C80E8081012
:104090008261002310228360C36003614361C261B7
:1040A000036243628362FCF74FBF00BF101F012011
:1040B00000300140F0B589B000241E4B01941A6B0A
:1040C0001D4F42F001021A631A6B02F001020192C5
:1040D000019A02941A6B42F004021A631B6B059456
:1040E00003F0040310250126029303A93846029B1E
:1040F000039504960696FCF7F3FA324629463846AD
:10410000FCF7CEFB0D4B0E48049303A903950594D1
:10411000FCF7E6FAFFF7B4FF0320FCF779FA224632
:1041200002210A20FCF786FA0A20FCF7B7FA09B048
:10413000F0BD00BF0038024000080240000021101E
:104140000000024038B50623194D80F834300223B0
:1041500080F82E300023044680F82F3080F830306D
:1041600080F8313080F8323080F8333000F12E02A0
:104170002B60AB60284610232B736A60FFF79AFF11
:1041800040F2DC53A38594F8353043F00A0384F8F9
:1041900035302846FEF7BEFF40B12846FFF79CF8B1
:1041A00094F8353043F0040384F8353038BD00BF4F
:1041B000AC1F01202DE9F041144D80462846FFF741
:1041C00060F9D8B1298DC9B14FF4C172002003F054
:1041D00001FA064690B1044600272C3562896068D2
:1041E000E91907F0E4F8638924681F44002CF5D12D
:1041F000D8F8103041463046984708B9BDE8F081FC
:104200003046BDE8F04103F08BB900BFAC1F012080
:1042100010B5044658B90E4B0E490F4840F24312F0
:1042200007F084F9204606F0B3FF06F0F8FE0B4BCA
:104230008362652380F836306E2380F83730084B70
:104240004361084B8361FFF77DFF002010BD00BF75
:104250008AC10008DCC1000836C00008A8C10008F7
:10426000095D0008454000080148FFF7B8B800BFE5
:10427000AC1F01201FB504AA4FF47A7302F8010D98
:104280000093114601230448FCF743FF9DF80F00FB
:1042900005B05DF804FB00BF101F012030B585B0EC
:1042A00004AC134D04F8010D0A20FCF705FA0022B6
:1042B00010212846FCF7F4FA0120FEF79BFE4FF48C
:1042C0007A7300932246012321460A48FCF721FF16
:1042D000012210212846FCF7E3FA0120FEF78AFEAE
:1042E0000A20FCF7DBF99DF80F0005B030BD00BFD8
:1042F00000080240101F012073B504460A200D4635
:104300001646FCF7D9F9184800221021FCF7C8FA24
:104310000120FEF76FFEADB934B14FF47A73324627
:1043200021461248FCF74DFE012210210E48FCF7F1
:10433000B7FA0120FEF75EFE0A2002B0BDE8704029
:10434000FCF7ACB94FF47A732CB9324629460748CA
:10435000FCF7CFFFE8E700932A463346214603489F
:10436000FCF7D7FEE0E700BF00080240101F012065
:1043700008B560B10A20FCF79FF90B480022102114
:10438000FCF78EFA0120BDE80840FEF733BE01229B
:1043900010210548FCF784FA0120FEF72BFE0A20C5
:1043A000BDE80840FCF77AB90008024013B50023C5
:1043B00010F00102ADF806301FD0994224DD431CF5
:1043C00000788DF8070001390020012917DC02D19F
:1043D0001B788DF80630BDF80630034498B200EB28
:1043E000134398B200EB134022B103029BB2C0F317
:1043F0000720184380B202B010BD0346E4E733F84B
:10440000024B02392044E0E71846E4E72DE9F04189
:104410001C68069B1B680546180C10FA83F010FAFE
:1044200084F000EB144084B204EB104084B20F46D9
:10443000164604EB10444FF00008D5B9B8F1000F50
:1044400004D023029BB2C4F307241C433846FFF771
:10445000F3FD05463046FFF7EFFD28440444A0B2C3
:1044600000EB1444A0B200EB1440C04380B2BDE89E
:10447000F08169896868FFF799FF6B890444A0B2ED
:10448000DB0700EB144406D523029BB2C4F30724D8
:1044900088F001081C432D68CFE7FFF7B7BF08B5C8
:1044A000FFF784FFC04380B208BD70B50026054603
:1044B000344645B926B123029BB2C4F307241C43FA
:1044C000E04380B270BD69896868FFF76FFF6B8950
:1044D000204484B2DB0704EB104406D523029BB2D0
:1044E000C4F3072486F001061C432D68E1E708B5F4
:1044F000FFF738FB02F050FB02F0ACFD02F068FE63
:1045000006F0D6F903F0A4FABDE8084006F076B943
:1045100043798B421FBF0023417183710381704730
:1045200010B4431CFF240C549BB20020432B07D92A
:1045300003F1F00189B210465DF8044B03F0D0B8E6
:104540005C1CC854A3B2F1E738B5446A054608219B
:104550002046FFF7DDFF002204F11C01284601F090
:1045600029FBA379FF2B1CBF0133A37101232381F6
:1045700038BD000037B5054658B93E4B3E493F4867
:1045800040F2154206F0D2FF284606F001FE06F082
:1045900046FD446A44B9374B3949384840F217421E
:1045A00006F0C4FF2046F0E700236382A36A5A1C8A
:1045B0000BD03C221E33B3FBF2F34FF6FF72934253
:1045C00028BF1346002B42D0A382E36A581C0DD0AB
:1045D0003C221E33B3FBF2F34FF6FF72934228BF27
:1045E0001346002B35D063816389E381236B591C0B
:1045F0000CD03C221E33B3FBF2F34FF6FF72934212
:1046000028BF13463BB3A381A3892382A389628970
:104610009A4202D30BB100236381E379EBB1236AA1
:104620000093636A01932BB9E369009A134043F046
:104630008073019320460A21FFF76AFF01AB6A46A7
:1046400004F11C01284602F0C5FD03B030BD012372
:10465000BAE70123C7E70123D5E7237F1A0601D470
:10466000FF23DDE7BF2B8CBF6FF07F434FF6FF7357
:10467000D6E700BFB4C10008D1C1000836C00008A9
:10468000EAC1000810B5841C442C0BD9094B0A4917
:104690000A4840F2AE5206F049FF002006F078FDCD
:1046A00006F0BDFC130A0B54431C9BB2A0B2CA54C3
:1046B00010BD00BFB4C1000898C3000836C0000890
:1046C00010B59C1C0444442C0BD9094B09490A48D9
:1046D00040F29A5206F02AFF002006F059FD06F03B
:1046E0009EFC0A54421C92B202308B5480B210BD20
:1046F000B4C10008CBC2000836C0000808B540F2BB
:10470000A652054B0549064806F010FF002006F0AA
:104710003FFD06F084FC00BFB4C100080DC30008D3
:1047200036C0000838B5041D442C0BD90D4B0E497A
:104730000E4840F2B75206F0F9FE002006F028FDC0
:1047400006F06DFC130E0B54431C9BB2150CCD549C
:10475000831C9BB2150ACD54C31C9BB2A0B2CA5491
:1047600038BD00BFB4C100085EC3000836C00008F1
:1047700038B5174D002303624362EB78044613B14A
:10478000144BDB6883622B79D3B1124B1B69E36254
:104790006B79C3B10F4B5B6923630B69E361AB7941
:1047A0002BB10C4B9869FFF74AFC01232062E3719F
:1047B000EB7923B1074BD869FFF741FC606238BD44
:1047C000A36A5B08E3E7A36AC3EBC303DB08E3E781
:1047D000F4250120FC25012038B50C4B1C7854B978
:1047E0000B4B0C490C48FF2206F0A0FE204606F0B9
:1047F000CFFC06F014FC013CE4B21C7024B9074D58
:10480000286806F001FB2C6038BD00BF5C1C01204D
:10481000B4C100087FC2000836C00008581C01203F
:10482000F8B5174C27781FBB164D2E6856B1164B9E
:1048300016491748E52206F079FE384606F0A8FC2E
:1048400006F0EDFB06F00EFB2860B0B1427A11498C
:1048500042F020024272442206F010F943220D4930
:10486000286806F077FA32460B49286806F0B4FA51
:104870002378013323700020F8BD4FF0FF30F8BDDE
:104880005C1C0120581C0120B4C10008A6C200080D
:1048900036C0000858C70008BD4D00082DE9F84390
:1048A0000E4617469946054640B93E4B3E4940F2F2
:1048B00069723E4806F03AFE002008E059B9394BCB
:1048C0003B493A4840F26A7206F030FE304606F044
:1048D0005FFC06F0A4FB4FF420724FF49A7136206F
:1048E00002F078FE8046002859D04389B3F59A7FBC
:1048F00004D22C4B2F4940F27272DAE7032F02D117
:104900007379032B07D1B2792B4B12B91A68013294
:104910001A601B683360D8F804404FF49A72002183
:10492000204606F04FFD01232370637095F8343064
:10493000A3703068FFF783FB042F606008D0FB1F73
:10494000012B05D9032F05D17379043B012B01D825
:104950006B68E36005F12E0304F11C02343513F893
:10496000011B02F8011BAB42F9D163236FF07D02FA
:1049700084F8EC3084F8EF30352384F8ED2084F8A7
:10498000F0305322012384F8EE2084F8F13084F8CB
:10499000F270B9F1000F02D00323A9F800304046AD
:1049A000BDE8F883B4C1000802C2000836C00008A0
:1049B00021C200083FC2000810000020F8B50446DC
:1049C0000D46174632B31046FBF702FC064608B305
:1049D000C4F1410398420BD9134B40F2CB52134917
:1049E000134806F0A3FD002006F0D2FB06F017FBEB
:1049F000FF2803D90C4B40F2CD52F0E7C3B2294651
:104A00000C222046FFF75CFE00230544C4189E429A
:104A1000A4B201D12046F8BD432CFA5C01D9FFF7BE
:104A20006DFEEA540133F1E7B4C1000842C3000847
:104A300036C000082DE9FF41064658B9564B574984
:104A4000574840F2771206F071FD304606F0A0FBA1
:104A500006F0E5FA446A44B94F4B5249504840F2D7
:104A6000791206F063FD2046F0E701212046FFF7AA
:104A70004FFD0DF10E03032221463046FFF70EFFD6
:104A80000746002800F085804568BDF80E00F03527
:104A9000022339222946FFF713FEB28DADF80E002E
:104AA0002946FFF7EFFD042332222946ADF80E0018
:104AB000FFF706FE8046ADF80E00E069FFF7BFFA8B
:104AC000294602464046FFF72DFE0423362229469A
:104AD000ADF80E00FFF7F4FD8046ADF80E00A069BA
:104AE000FFF7ADFA294602464046FFF71BFE0323B7
:104AF00037222946ADF80E00FFF7E2FDDFF8B4E0FB
:104B0000ADF80E000023BDF80E2013F80E10432A56
:104B100001D9FFF7F3FD501C013380B2032BA954D8
:104B2000ADF80E00EFD12946B26AFFF747FF2946DC
:104B30003A46ADF80E00FFF7F3FC1B4B1B48019300
:104B4000009643231A4A0068394606F001F80546E4
:104B5000384602F0E5FCA379FF2B1CBF0133A3719B
:104B6000A279052A9FBF01239340C3EB431203EBB5
:104B700082039ABFDB009BB24EF660234FF4FA72B9
:104B8000284603F2F31393FBF2F3238104B0BDE84C
:104B9000F0814FF0FF35DEE7B4C1000845C40008DE
:104BA00036C0000860C4000858C70008581C01201F
:104BB0005CC70008A3C200082DE9FF41456A07460B
:104BC00003212846FFF7A4FC0DF10E03032229461A
:104BD0003846FFF763FE064600286FD04468BDF8EC
:104BE0000E00F034022339222146FFF769FD4FF40D
:104BF00010722146ADF80E00FFF744FD0423322267
:104C00002146ADF80E00FFF75BFD8046ADF80E00C3
:104C1000E869FFF714FA214602464046FFF782FD95
:104C2000032337222146ADF80E00FFF749FDDFF8D8
:104C30009CE0ADF80E000023BDF80E2013F80E1016
:104C4000432A01D9FFF75AFD501C013380B2032BD0
:104C5000A154ADF80E00EFD12146BA6AFFF7AEFEBF
:104C600021463246ADF80E00FFF75AFC1548009772
:104C70004323154A0068314606F018F804463046CA
:104C800002F04EFCAB79FF2B1CBF0133AB71AB794B
:104C9000092B9FBFC3EB431203EB8203DB009BB2E4
:104CA00088BF42F210734FF4FA72204603F2F313F6
:104CB00093FBF2F32B8104B0BDE8F0814FF0FF3499
:104CC000E0E700BF581C01205CC70008A3C2000831
:104CD0002DE9FF41446A0026804606212046E66110
:104CE000FFF716FC0DF10E03012221464046FFF7A7
:104CF000D5FD074600283BD04568BDF80E00F035CD
:104D0000022339222946FFF7DBFCB8F82C20ADF846
:104D10000E002946FFF7B6FC032337222946ADF8DB
:104D20000E00FFF7CDFC3346204EADF80E00BDF867
:104D30000E20995D432A01D9FFF7E0FC501C013396
:104D400080B2032BA954ADF80E00F0D13A462946A3
:104D5000FFF7E6FB164B17480193CDF8008043237D
:104D6000154A0068394605F0F3FE384602F0D8FBD4
:104D7000A379FF2B1CBF0133A371A279052A9FBF22
:104D800001239340C3EB431203EB82039ABFDB0082
:104D90009BB24EF660234FF4FA72002003F2F31335
:104DA00093FBF2F3238104B0BDE8F081A3C20008B5
:104DB00058C70008581C01205CC700082DE9F04FB7
:104DC000AA4B5D6889B06B6A00920193002B3BD0BF
:104DD0001B79002B38D053892B2B35D95268137887
:104DE000022B31D195F8344005F12E0102F11C005F
:104DF0000023DEB2B44201D9062B1DD15068FFF763
:104E00001EF9019B1B6898421ED1994A0099039292
:104E100000235360498913602B2915D9009A029306
:104E2000B2F808904FF0F00B009E73895B4511D9E2
:104E3000736804935C46F4E011F8017B10F8016B91
:104E4000B74203F10103D4D0009802F069FB09B026
:104E5000BDE8F08F3668ABEB0302A9EB03091FFA3C
:104E600082FB1FFA89F9002EDFD1EDE7A31C9BB26C
:104E70009C42E9D87289601C904225DA049A224447
:104E8000527834294FD026D8012931D006D30329AE
:104E900035D0332941D0002940F0918084B2738904
:104EA000A34200F2BE80E41AA9EB0309A4B21FFAE0
:104EB00089F94C45C8D23668002E40F0B0806D4B61
:104EC0006D4940F29D6220E03268002A00F02581A1
:104ED00052681278D5E736293AD033D33A293DD0F3
:104EE0003B29D8D1042A67D0624B40F2616204E0CA
:104EF000042A39D05F4B40F22E62604905E0032A54
:104F00004AD85C4B5E4940F233625E4806F00EFBC5
:104F1000002006F03DF906F082F8042A40D0554BF7
:104F200040F24162E9E7012A04D0524B40F24F625D
:104F30005549EAE7BBF1F00F35D04E4B534940F2EB
:104F40005162E2E7012A34D04A4B40F25562EFE762
:104F5000042A2BD0474B40F25962CEE7042A28D0CE
:104F6000444B40F25D62C8E79046062714444FF672
:104F7000FD718C423FF768AF9C18A4B2B8F1000FE6
:104F80008DD04FF0000A072FCDF81CA01CD9394B4B
:104F90003F494FF4CF62B8E707274FF00408E5E731
:104FA00090460327E2E790460027DFE79046022776
:104FB000DCE790461746D9E790460527D6E74FF03D
:104FC000FF374FF00008D1E7294AD25D0592002A49
:104FD0007FF465AF1FFA88FA524607A9304602F0FF
:104FE0009BFC82457FF430AFB8F1040F0BD10798DA
:104FF000FFF725F807901E4A0123D355254A079B42
:1050000042F827304BE7B8F1010F04D0194B224981
:105010004FF4D26279E79DF81C300793EBE7736891
:1050200004934C4504D2049B195DFF297FF41EAF05
:10503000039B1B78002B00F08D80164B03991B6897
:105040000022012B0A700CD0022B06D10023029300
:105050004FF06C094FF02C0BE6E6032B7AD10123BD
:1050600002934FF0EC094FF06C0BDDE6DC250120DC
:10507000F4250120B4C1000832C40008D3C30008DD
:10508000DCC3000836C00008EEC30008F7C3000800
:105090000EC40008FC2501201FC40008033B022B9E
:1050A0003FF6D2AE686A3146FFF762FB2846FFF74B
:1050B00061FAC9E6062B15D1019B5B79DA1E022A3B
:1050C00002D9012B7FF4C0AE686A0C21FFF720FAE9
:1050D000304B28461A46194602F07CF82846FFF75E
:1050E000F7FDB1E6022B7FF4AFAE019B5B79062B97
:1050F0007FF4AAAE039B9B78002B3FF4A5AE6C6AAD
:10510000BDF8083023819068FEF799FFA0613369EC
:10511000E3612846FFF78EFC96E634293FF405AF9D
:105120000CD801293FF4E6AEFFF4B8AE03293FF4F2
:10513000E8AE33293FF4F3AE0022ACE636293FF463
:1051400009AFFFF401AF3A293FF40AAF3B293FF41E
:10515000CBAEF1E7029B002B7FF478AF039B5B782B
:10516000002B3FF471AE009B0B4A5E681379052B50
:10517000A0D1019B5B79012B90D1686A3146FFF782
:10518000F7FA95F835301B07284690D5FFF7DCF97C
:105190005AE600BF58C70008FC2501202DE9FF4151
:1051A000064658B9294B2A492A4840F28B3206F064
:1051B000BDF9304605F0ECFF05F031FF446A002CE4
:1051C00041D06379082B3ED10A68E3699A423AD10B
:1051D0000C212046FFF79CF90DF10E030422214615
:1051E0003046FFF75BFB054630B34768BDF80E005D
:1051F000F037042332223946FFF762FA8046ADF8D1
:105200000E00E069FEF71BFF394602464046FFF7F5
:1052100089FA2A463946ADF80E00FFF781F90E4BA0
:105220000E480193009643230D4A0068294605F075
:105230008FFC284602F074F9A379FF2B1CBF0133C1
:10524000A3711423238104B0BDE8F081B4C1000828
:10525000DCC1000836C0000858C70008581C0120EF
:105260005CC70008F0B5456A85B0074605212846A9
:10527000FFF74EF90DF10E03032229463846FFF7DA
:105280000DFB064600285CD04468BDF80E00F034E3
:10529000022339222146FFF713FABA8DADF80E002A
:1052A0002146FFF7EFF9032337222146ADF80E0020
:1052B000FFF706FADFF894E0ADF80E000023BDF822
:1052C0000E2013F80E10432A01D9FFF717FA501CCD
:1052D000013380B2032BA154ADF80E00EFD121466B
:1052E000BA6AFFF76BFB21463246ADF80E00FFF7B6
:1052F00017F915480097432305F118023146006855
:1053000005F0D4FC0446304602F00AF9AB79FF2BD5
:105310001CBF0133AB71AB79092B9FBFC3EB4312A9
:1053200003EB82031B019BB288BF44F620634FF45A
:10533000FA72204603F2F31393FBF2F32B8105B0CC
:10534000F0BD4FF0FF34E1E7581C0120A3C2000874
:1053500058B1406A48B140790A2805D0043801287C
:105360008CBF002001207047012070472DE9FF41CC
:10537000446A0746002C51D06379002B4ED0A369B4
:1053800003930023A361E361236263622363E36207
:10539000A362A38263822382E381FFF7D9FF68B30C
:1053A0000DF10A03072221463846FFF777FA054632
:1053B00020B34668BDF80A00F03604233622314691
:1053C000FFF77EF98046ADF80A000398FEF737FE36
:1053D000314602464046FFF7A5F92A463146ADF868
:1053E0000A00FFF79DF80F480097432303AA2946B8
:1053F000006805F05BFC284602F092F80A4B38463C
:1054000019461A4601F0E6FE00212046FFF780F813
:1054100023791BB1FFF7E0F90023237104B0BDE845
:10542000F08100BF581C012058C7000838B5044659
:1054300058B9284B2849294840F2E72206F076F867
:10544000204605F0A5FE05F0EAFD90F8350010F0C5
:10545000010508D11F4B224920484FF43A7206F04B
:1054600065F82846EDE7A38D656AB3F5107F02D293
:105470004FF0FF321BE0E5B9342001F00DFD054689
:105480000028F5D0606234220021284605F09AFFFA
:10549000FFF7C6F902460028EAD101232B7194F8E0
:1054A00035305B070BD402212846FFF731F8104650
:1054B00038BD2B79002BE6D0FFF78EF9E3E72046C5
:1054C000FFF706FC02460028F1D02046FFF74EFF0A
:1054D000CEE700BFB4C10008DCC1000836C0000838
:1054E0009EC400082DE9F04F5B4B5C4E1D685C4F7D
:1054F000DFF8708185B015B905B0BDE8F08F6C6A32
:105500007CB163796BB1A18A69B1628A013292B2CE
:105510009142628207D12846FFF728FF2846FFF70D
:1055200085FF2D68E7E7228A002A7AD0511E012ADA
:10553000218276D1013BDAB2092AF2D840F219234E
:10554000D340DB4313F0010BEBD104212046FEF7DF
:10555000DFFF0DF10E03032221462846FFF79EF9D7
:10556000824600283DD04368BDF80E0003F1F009E3
:10557000392202234946FFF7A3F8AA8DADF80E00A1
:105580004946FFF77FF8032337224946ADF80E005E
:10559000FFF796F85B46ADF80E00BDF80E20995D5A
:1055A000432A01D9FFF7AAF8501C013380B2032B1C
:1055B00009F80210ADF80E00EFD1AA6A4946FFF7CC
:1055C000FDF952464946ADF80E00FEF7A9FF0095D9
:1055D000432342465146386805F068FB504601F0C7
:1055E0009FFFA379FF2B1CBF0133A371A379092B64
:1055F0009FBFC3EB431203EB8203DB009BB288BF68
:1056000042F210734FF4FA7203F2F31393FBF2F3C6
:10561000628A2381A38A9B1A012B82DD5B1023827D
:105620007FE7E289002A3FF47CAF511E012AE18125
:105630007FF477AF03F0FB02012A02D00A2B7FF43C
:1056400070AF2846FFF70EFEA389628A9B1A012BD2
:10565000C4BF5B10E38164E768A90120A3C200080E
:10566000581C01205CC7000838B51E4B1C6800257B
:1056700004B938BD636A23B11A89012A03D9013AF2
:105680001A812468F4E7FCD15A791D810C2A01D0D3
:10569000062A03D12046FFF71BFBF2E7012A0CD1B3
:1056A0009B79052B204602D8FFF7C4F9E9E7FFF7FD
:1056B0005DFE2046FFF7BAFEE3E7082A09D19B7991
:1056C000012B204602D8FEF73FFFDAE7FEF752FF34
:1056D000D7E7032AD5D19B79012B2046DBD8FFF7EA
:1056E0006BFACEE768A9012070B518260B4D46432A
:1056F0000446A85918B101F013FF0023AB51182339
:1057000003FB045300221A755A829A605A60044AB5
:1057100010689288D8601A8270BD00BF601C01209A
:10572000B3DF00082DE9F74F454B00244FF00A0E78
:1057300007469046A3460194009476467546F44683
:105740000A2E20B293F8149012D1B9F1000F3DD077
:10575000002F65D03A6892465A68924560D1B8F1F8
:10576000000F02D09A6890455AD103B0BDE8F08F7F
:10577000B9F1000FECD101340A2C03F11803DFD189
:1057800011F0020449D10A2E2DD1CB0745D50A2D9F
:105790001ED018236B432A4AD35803B3294B2A49F6
:1057A00040F26D12294805F0C1FE002005F0F0FC22
:1057B00005F035FC019A9145DDD3CDF8049084467F
:1057C000D9E7D945D7D3CB460546D4E70646D2E735
:1057D000BCF10A0F12D1BEF10A0F1ED07546284641
:1057E000FFF782FF2E46164A182303FB0622117D7F
:1057F00031B1144B164940F28512D3E76546EEE706
:105800000FB1396851600E4A03FB062A0023AAF83B
:105810001230CAF808803046A7E74FF0FF30A4E7FF
:10582000B9F1010FB3F81290CBD11A68002AC1D098
:10583000009A91459FD3CDF8009086469BE700BF24
:10584000601C0120BFC40008DEC4000836C0000888
:10585000F5C400082DE9F3470B9D884691469A460A
:10586000074658B92D4B2E4940F257422D4805F0B6
:105870005DFE002005F08CFC05F0D1FB4FF420729A
:105880001C210E2001F0A6FE0646002842D04389C6
:105890001B2B04D8214B244940F26342E6E74468BD
:1058A000BDF83400FEF7C8FBE08097F83430062BD3
:1058B00004D01A4B1D4940F26A42D7E7DAF80020BB
:1058C000A260BAF80420A2812A68C4F81220AA882B
:1058D000E2820A9A1268C4F80E200C9A1268A26139
:1058E000237101220423002562706371082240F6AF
:1058F0000603A2702570E5704246009331464B4680
:10590000384605F023FB304601F00AFE284602B077
:10591000BDE8F0874FF0FF30F9E700BFBFC40008D3
:10592000DCC1000836C00008E1C5000812C6000846
:105930002DE9F047804686B00C4659B94B4B4C498F
:1059400040F28A224B4805F0F1FD002005F020FCD2
:1059500005F065FB45682B88B3F5807F08D12B796E
:10596000062B05D16B79042B02D16B88082B05D04F
:10597000404601F0D5FD06B0BDE8F0874E68D5F889
:105980000E000590AB6916B19B1B5E425E4194F818
:105990003430002E14BF4FF0010A4FF0020A062BDC
:1059A00005F1080704D0314B334940F2A912C9E789
:1059B00000283DD0214600F020FD8146C0BB059B5C
:1059C00003F0F003E02B33D02246514605A8FFF741
:1059D000A9FE00282CDB294B182202FB00F103EB67
:1059E000010E4FF0020C8EF814C04FF00C0CCEF8E4
:1059F000084010FB02C23868985003EB020CBA88CA
:105A0000ACF8042053F801A0AEF81290BAF1000FE0
:105A10000ED043F801904FF40063009304F12E027E
:105A20003B465146204605F091FA504601F078FD7C
:105A3000EB88B3F5807F07D0B3F5007F98D105A937
:105A40002046FFF7ABFB93E7002E91D00222039292
:105A500005AA04F12E030292221D009201973A46F4
:105A600019462046FFF7F6FE82E700BFBFC40008D4
:105A7000DCC1000836C000083DC50008601C0120DC
:105A80001FB5024600F12E03029101240549019140
:105A9000043200920394044A1946FFF7DBFE04B077
:105AA00010BD00BFB3DF00085FDF0008F8B5134C7E
:105AB000002502260427227C6AB1E38901339BB2C8
:105AC000B3F5967FE38103D2012A0AD1042B0CD9C6
:105AD0002846FFF709FE01350A2D04F11804EAD122
