:020000040800F2
:100000000000082429B300080DB200080FB2000850
:1000100011B2000813B2000815B200080000000079
:1000200000000000000000000000000017B20008FF
:1000300019B20008000000001BB200081DB2000841
:1000400079B3000879B3000879B3000879B30008E0
:1000500079B3000879B3000879B3000879B30008D0
:1000600079B3000879B3000879B3000879B30008C0
:1000700079B3000879B3000879B3000879B30008B0
:1000800079B3000879B3000879B3000879B30008A0
:1000900079B3000879B3000879B3000879B3000890
:1000A00079B3000879B3000879B3000879B3000880
:1000B00021B2000879B3000879B3000879B30008C9
:1000C00079B3000879B3000879B3000879B3000860
:1000D00079B3000879B3000879B3000879B3000850
:1000E00079B3000879B300080000000079B3000874
:1000F00079B3000879B3000879B3000879B3000830
:1001000079B3000879B3000879B3000879B300081F
:1001100079B3000879B3000879B3000879B300080F
:1001200079B3000879B3000879B3000879B30008FF
:1001300079B3000879B3000879B3000879B30008EF
:1001400000000000000000000000000000000000AF
:1001500079B3000879B3000879B3000879B30008CF
:1001600079B3000879B3000879B3000879B30008BF
:1001700079B3000879B3000879B3000800000000E3
:1001800079B3000879B3000879B3000879B300089F
:1001900079B3000879B3000879B3000879B300088F
:1001A00079B3000879B3000879B3000879B300087F
:1001B00079B3000879B3000879B3000879B300086F
:1001C00079B3000879B3000879B3000879B300085F
:1001D00079B3000879B3000879B3000879B300084F
:1001E00079B3000879B3000879B3000879B300083F
:1001F00079B3000879B3000879B3000879B300082F
:1002000079B3000879B3000879B3000879B300081E
:1002100079B3000879B3000879B3000879B300080E
:1002200079B3000879B3000879B300080000000032
:1002300079B3000879B300080000000079B3000822
:1002400079B3000879B3000879B3000879B30008DE
:1002500079B3000879B3000879B3000879B30008CE
:1002600079B3000879B3000879B3000879B30008BE
:1002700079B3000879B3000879B3000800000000E2
:1002800079B3000879B3000879B3000800000000D2
:080290000000000079B3000832
:1002A00010B5054C237833B9044B13B10448AFF3B0
:1002B00000800123237010BD900000240000000086
:1002C00048C2000808B5034B1BB103490348AFF30C
:1002D000008008BD000000009400002448C200080F
:1002E00010F8012B11F8013B012A28BF9A42F7D0E0
:1002F000D01A7047034613F8012B002AFBD1181AB5
:1003000001387047000000000000000000000000FD
:1003100001F0FF01102A2BDB10F0070F08D010F8B6
:10032000013B013A8B422DD010F0070F42B3F6D1BA
:10033000F0B441EA012141EA014122F007047FF0D3
:1003400000070023F0E80256083C85EA010586EA2A
:10035000010685FA47F5A3FA87F586FA47F6A5FA66
:1003600087F68EB9EED1F0BC01F0FF0102F0070272
:1003700032B110F8013B013A83EA010313B1F8D11D
:100380000020704701387047002D06BF35460338FE
:10039000073815F0010F07D1013015F4807F02BF37
:1003A000013015F4C03F0130F0BC0138704700BF88
:1003B00053B94AB9002908BF00281CBF4FF0FF31CC
:1003C0004FF0FF3000F07AB9ADF1080C6DE904CEC2
:1003D00000F006F8DDF804E0DDE9022304B0704720
:1003E0002DE9F0478C460D460446089E002B51D15E
:1003F0008A4217466DD9B2FA82FEBEF1000F0BD0C9
:10040000CEF1200C01FA0EF520FA0CFC02FA0EF7E0
:100410004CEA050C00FA0EF44FEA174A250CBCFB17
:10042000FAF81FFA87F90AFB18CC45EA0C4508FBD5
:1004300009F3AB420AD9ED1908F1FF3280F02381AC
:10044000AB4240F22081A8F102083D44ED1AA4B26B
:10045000B5FBFAF00AFB105544EA054400FB09F924
:10046000A14509D9E41900F1FF3380F00A81A145C3
:1004700040F2078102383C44A4EB090440EA0840FA
:100480000021002E61D024FA0EF400233460736042
:10049000BDE8F0878B4207D9002E54D0002186E8B2
:1004A00021000846BDE8F087B3FA83F1002940F047
:1004B0008E80AB4202D3824200F2FA80841A65EB4E
:1004C00003050120AC46002E3FD086E81010BDE8A1
:1004D000F08712B90127B7FBF2F7B7FA87FEBEF132
:1004E000000F34D1EB1B3A0C1FFA87FC0121B3FB40
:1004F000F2F8250C02FB183345EA03450CFB08F320
:10050000AB4207D9ED1908F1FF3002D2AB4200F23D
:10051000D1808046ED1AA3B2B5FBF2F002FB105574
:1005200043EA05440CFB00FCA44507D9E41900F19B
:10053000FF3302D2A44500F2B8801846A4EB0C04A5
:1005400040EA08409DE731463046BDE8F087CEF1ED
:10055000200405FA0EF307FA0EF720FA04F83A0C15
:1005600025FA04F448EA0308B4FBF2F14FEA18450F
:1005700002FB11441FFA87FC45EA044501FB0CF31A
:10058000AB4200FA0EF409D9ED1901F1FF3080F009
:100590008A80AB4240F2878002393D44EB1A1FFA51
:1005A00088F5B3FBF2F002FB103345EA034500FB8C
:1005B0000CF3AB4207D9ED1900F1FF386FD2AB4213
:1005C0006DD902383D44EB1A40EA01418FE7C1F191
:1005D000200722FA07F88B4005FA01F448EA0303E2
:1005E00020FA07FE4FEA134CFD404EEA040EB5FB1D
:1005F000FCF94FEA1E440CFB19551FFA83F844EA34
:10060000054509FB08F4AC4202FA01F200FA01FACE
:1006100008D9ED1809F1FF3043D2AC4241D9A9F114
:1006200002091D442D1B1FFA8EFEB5FBFCF00CFBCE
:1006300010554EEA054400FB08F8A04507D9E41818
:1006400000F1FF3529D2A04527D902381C4440EAE1
:100650000940A4EB0804A0FB02894C45C6464D4660
:1006600015D312D056B1BAEB0E0364EB050404FAAD
:1006700007F7CB401F43CC40376074600021BDE8D2
:10068000F0871846F8E69046E0E6C245EAD2B8EBB5
:10069000020E69EB03050138E4E72846D7E7404638
:1006A00091E78146BEE7014678E702383C4445E7DA
:1006B000084608E7A8F102083D442BE7704700BF51
:1006C00030B570B1CC6864B18A6852B10B6943B17E
:1006D0000D6849688560C1604461026183610020E2
:1006E00030BD4FF0FF3030BD73B50023466804467F
:1006F0000193002E36D1836803B19847202300254B
:100700002360636901AA12213046984700281DDB47
:10071000019B03F01F03B3421AD100252660206815
:100720001F283AD87DB923694FF4004229469847DB
:10073000002835DB636901AA29462068984700280C
:100740000ADA6FF00405284602B070BD6FF00405A8
:100750000136202ED5D1E2E7A36998470546019BD3
:100760001B040CD4A36998470546A3699847401B0E
:10077000B0F5FA6FF9D9012300256360E3E7A369B7
:100780009847401BB0F5FA7F0DD8636901AA002194
:10079000206898470028E2DAD3E76FF00205D2E735
:1007A0006FF00305CFE76FF00105CCE773B50026C6
:1007B00002AD4369044645F8046D01212A460068EC
:1007C0009847B04203DA6FF0040002B070BD63696D
:1007D0002A460121206898470028F4DB019B5B072B
:1007E0002CD563692A463146206898470028EADB01
:1007F000019BDE040ED403F40452B2F5045F01D170
:100800000220E2E7980401D50320DEE7D90513D5DD
:100810000420DAE763692A461F21206898470028E8
:10082000D1DB019BDA040BD503F01C03182BE7D0B6
:10083000082BE9D0142BEBD00520C6E70120C4E734
:100840000620C2E738B50F4B0546187808B90120D5
:1008500038BD4FF47A730C4AB3FBF0F31068B0FB69
:10086000F3F000F0BDF804460028F0D10F2DEED8CB
:10087000024629464FF0FF3000F06CF8034B20464B
:100880001D6038BD00000024240000240400002462
:1008900010B5032000F04CF801F09AFB0F49104A04
:1008A0008B69C3F30323D35C03F01F03D8408B6928
:1008B00003F00F03D35C0B4A03F01F0320FA03F38A
:1008C0001360094B18600020FFF7BCFF044618B9FD
:1008D0000AF032FC204610BD0124FBE70044025818
:1008E0003DF300082800002424000024034A044BA0
:1008F00011681B780B441360704700BF7406002416
:1009000000000024014B1868704700BF74060024E3
:10091000014B1868000C70470010005C034A5368D4
:1009200023F4600318435060704700BF0004005870
:10093000074A0002D36800F4E06023F4E0631B047C
:100940001B0C43F0BF6343F400330343D360704791
:1009500000ED00E0194B30B5DC68C4F30224C4F1AB
:100960000703251D042B28BF0423062D4FF0010586
:100970008CBF033C002405FA03F3002803F1FF3386
:1009800001EA030101FA04F105FA04F404F1FF3469
:1009900002EA040242EA01024FEA021207DB00F116
:1009A0006040D2B200F5614080F8002330BD00F015
:1009B0000F00D2B2024B1A5430BD00BF00ED00E070
:1009C00014ED00E0002808DB4209012300F01F00BD
:1009D00003FA00F0014B43F82200704700E100E009
:1009E0000138B0F1807F0AD2064BF021064A5860E8
:1009F000002082F82310072298601A6070470120B7
:100A0000704700BF10E000E000ED00E0BFF35F8F33
:100A1000044A536A23F4803353620022024B5A6023
:100A2000704700BF00ED00E090ED00E0064A40F0A6
:100A30000100064B5860536A43F480335362BFF39E
:100A40004F8FBFF36F8F704700ED00E090ED00E037
:100A50004378124A10B593600178D9B14368D360E6
:100A6000C37A047B1B0643EA04730B43817A43EA8F
:100A7000C143417B43EA8143817B43EA4143C17BDC
:100A800043EA0143417A43EA0123017A43EA4103FD
:100A9000136110BDD160116110BD00BF90ED00E089
:100AA0008B680A6891F804C01A430B7C002B2DE96F
:100AB000F04F08BF4FF4002385B018BF002391F812
:100AC0000CE04F7B00934B7C8E7B002BCD7B8C7C92
:100AD0000CBF4FF40033002391F81C9001934B6935
:100AE00091F81DB01A438B6913438A7F002A0CBF0B
:100AF0004FF4806200220292CA7F039291F8202074
:100B0000002A0268486AD2F800A008BF4FF4807833
:100B100043EA0003C86A2AF07F4A18BF4FF0000872
:100B2000034303982AF47B0A2AF4FE4A2AF07C0A3B
:100B300043EA0A0343EACC6343EACE5343EA8753CA
:100B400043EA465343EA055343EA044343EA09337D
:100B500043EACB2391F828B043EA4023009843EAC4
:100B60000B130343019803430298034343EA08032A
:100B70001360CE6B91F8323091F83870002B5368C7
:100B800091F8305023F07C5391F831400CBF4FF472
:100B90008030002023F4EF2323F4FF6323F00703C6
:100BA00043EA46634E6B33438E6C43EA076343EA82
:100BB00085430D6D43EA444391F854400343486C28
:100BC0005360D36823F4877323F00103034391F840
:100BD000400043EA0023D36091F84C30002B136FA0
:100BE00023F0F2030CBF802000201B041B0C43EAFF
:100BF00006432B43CD6D43EA440391F86140034320
:100C00001367D2F8900091F8563020F003000343A8
:100C100091F8550043EA4003886DC2F89030D2F84D
:100C2000003D23F072030343C2F8003D91F86030A9
:100C300091F86210002BD2F8303D23F07B030CBFFB
:100C4000402000202B4343EA041343EAC10303433B
:100C5000C2F8303D05B0BDE8F08F0000026802F533
:100C60008050036823F4F04330B523F002030C688E
:100C70000D79234341F2040403600B7B1059DB031D
:100C800020F4504043EA05338D6820F001002B43E7
:100C90000343487B135102F588540B6A256843EAE5
:100CA0000043104828400343087D236041F20414A8
:100CB0004B7F15591B0343EA0013086903430A4895
:100CC00028400D7F0343135141F208148B691059DA
:100CD00043EAC57320F0004121F47C110B4313510A
:100CE00030BD00BF00C0FEFFEFEFC0FF2DE9F74FA2
:100CF000866A019200EB8609D9F81830DA68002A72
:100D000003DA022003B0BDE8F08F0C688F6814F09E
:100D1000040E2AD0DD684A6A2D0C2D042A4305688A
:100D2000DA60DA6842F48032DA602A6E42F48012C5
:100D30002A66220719D59A681FFA82FCCA6A4CEA09
:100D400002429A60DA6842F40032DA60DA6822F429
:100D5000402C0A6B4CEA0202DA606A6E42F480129E
:100D60006A662A6D42F080622A6514F010080BD082
:100D70009D688A6925F47F5525F03F052A439A60CE
:100D8000DA6842F08062DA6014F0140C18D0DA6885
:100D9000751C42F08042032DDA6088BFF51EDA68C8
:100DA00042F00042DA6000EB85029269D2F80CC092
:100DB000BCF1000F6EDADA6822F00042DA60A0E7D8
:100DC00035463A680CF1010C1A609A6822F47F5A91
:100DD0007A682AF03F0A4AEA0202DFF8ECA19A6038
:100DE000BA68002A5AD017685F609F6807EA0A0A43
:100DF00057684AEA07479F60DF68B8F1000F54D090
:100E000027F4F0080F6A48EAC747DF60DF684FEA57
:100E10009748CF694FEA884848EA0707DF60DF68EC
:100E200047F48027DF60BEF1000F06D09F6827F4EB
:100E3000404E8F6A4EEA07079F60DF68A40747F0BD
:100E40000057DF60DF6827F08047DF60DF6847F02A
:100E50000047DF6005D5DF68CC6827F060773C434A
:100E6000DC60594FDFF864B1DFF864E1D2F8088044
:100E7000B8F1000F33D1019A002A00F0A0809A68DF
:100E800042F000429A60DA6842F08052DA6085628D
:100E9000002037E713464FF0010C92E75A609A683A
:100EA00002EA0A029A603A46A6E727F4FF484F682A
:100EB00028F07F0848EA0707DF60E70706D5DF6804
:100EC00027F440384F6948EA0707DF60A706AAD52C
:100ED000DF6827F040680F6948EA0707A2E76C1C43
:100EE000DA68032C22F0805288BFEC1EDA6000EB37
:100EF00084039B69DA6822F00052DA60DA68002A1B
:100F000013DAD9F81810002294453FF4FAAECB68F2
:100F1000013223F00043CB60731C032B88BFF31E08
:100F200000EB83011E468969EEE7D8F800200CF13A
:100F3000010C1A609D68D8F8042025F47F5525F02F
:100F40003F052A439A60D8F8082012B315685D60FF
:100F50009D6805EA0708556848EA05459D60D1F88F
:100F600000A0DD681AF0100F19D005EA0E08CD694F
:100F700048EA0505DD60DD6845F48025DD60DD6853
:100F800045F00045DD60DD6825F08045DD602546E3
:100F90006CE75A609A683A409A604246DFE705EA91
:100FA0000B084D681AF0010F48EA0505DD60E6D030
:100FB000DD6825F440384D6948EA0505DEE79A68A2
:100FC00022F000425EE700BFFFFF00C00080FFFF8D
:100FD0000000FCFF0AB1032903D90123C3651846A9
:100FE000704700EB8100C16A0A600A61CA6842F07A
:100FF0008072CA602BB18B604B61CB6843F0007389
:10100000CB60CB68002043F00043CB607047416D5C
:10101000102910B527D1232341F204144365036836
:101020001A6842F002021A601A6842F001021A605D
:10103000D3F8002D42F00102C3F8002D1A5942F0F6
:1010400001021A5141F208141A5942F001021A51D0
:1010500003F58B531A6842F481721A6022234165AA
:101060008365002010BD012010BD436D0BB3232309
:1010700041F20411436503685A5822F001025A50A4
:1010800041F208115A5822F001025A501A6822F00F
:1010900001021A60D3F8002D42F00102C3F8002DBE
:1010A0001A6822F002021A6010234365836500204B
:1010B000704701207047F8B50446154629B9C36D3D
:1010C00043F00103E3650120F8BD436D102BFAD115
:1010D0000022FFF70BFE18B1E36D43F00203F1E7C6
:1010E000A36A9A1D54F822605A1C032A8ABF033B44
:1010F000A262A362A26A2368063203F5895354F8F8
:1011000022201A60FFF7FEFB0746F368002B03DB83
:10111000102300206365F8BD236803F58B531A681C
:10112000D20408D5E26D42F00802E2651B6823662E
:10113000E0236365C7E76B1CE7D0FFF7E3FBC01B49
:10114000854201D3002DE0D1E36D43F00403E36554
:101150001023EEE7F0B5456C6DB9C46B2A462946FD
:10116000052700EB8403DE6AF368002B1CDA0029F4
:101170003ED1002343640020F0BDF668B6000AD5D6
:10118000032B4FF0010188BFE31E00EB8302D66AF8
:1011900022461C46E8E7032B01F1010188BFE31E4C
:1011A00000EB8304E66AF4E7013FE0D0F36813F054
:1011B000805F04F10103E0D00131012908BF22461C
:1011C000032B88BFE31E00EB8304E46AE568002D6F
:1011D00009DBE468670006D5012484641C19032C2C
:1011E0008CBF033B2346C363026441640120F0BD0E
:1011F00000EB82034FF08076DB6A1C691C60DE60C6
:101200005C692CB15C699C60DC6844F00074DC6053
:10121000DC6844F00044DC60C46C1CB1DC6844F061
:101220008044DC60531C0135032B8CBF033A1A4603
:10123000A94200EB8203DB6ADFD19AE7F8B50546E5
:101240000C4611B90120E865F8BD436CABB1296CBF
:1012500000266A6C05EB8103B646571EDB6ABE4565
:10126000686910D3DA681969C2F30E022160921B13
:10127000824220D862600020F8BDFFF76BFF002893
:10128000E5D10120F8BD1A69606022605A691AB17F
:10129000A4685A69606022604A1CDE68A4680EF186
:1012A000010E032AC6F30E0688BFCA1E05EB820391
:1012B0001146DB6AD3E759690029E2D0A168121A06
:1012C0005B6960600B604A60D5E7436C70B50446AB
:1012D0000E46056C6BB1636C2B445A1E032A0ED864
:1012E00004EB82040020E36ADB68C3F30E0333607F
:1012F00070BDFFF72FFF0028EDD1012070BD5A1FF0
:10130000EEE7416CF0B5002937D0836C93B14E1CE9
:10131000056C00244FF08077013900EB8503DB6A10
:10132000A64209D1016841F228128B500023436480
:101330001846F0BD0E46EBE71A691A60DF605A697D
:101340002AB15A699A60DA6842F00072DA60DA68A3
:1013500042F00042DA60C26C1AB1DA6842F08042B0
:10136000DA608C4207D26A1C032A88BFEA1E00EBAF
:1013700082031546DB6A0134D2E70120F0BD70B567
:10138000044600681D46D0F80032DB0701D5012075
:1013900070BDD0F8003223F0787343EA415121F454
:1013A000F81141EA024242F00D02C0F80022FFF7B4
:1013B000A9FA06462368D3F8000210F0010004D110
:1013C000D3F804329BB22B6070BDFFF79BFA801BF1
:1013D000B0F57A7FEED9DAE738B504460068D0F880
:1013E0000052ED0701D5012038BDD0F800029BB2B4
:1013F00020F0787040EA415121F4F81141EA0242AC
:101400000C4922F00C02C1F8043242F00502C1F886
:101410000022FFF777FA05462368D3F8000210F0A0
:10142000010000D138BDFFF76DFA401BB0F57A7F9F
:10143000F2D9D8E700800240002900F0C18003689B
:1014400000201A6802F00C02CA621A68C2F3001285
:1014500081F828201A6802F060024A621A6882F451
:101460008072C2F3002281F820201A68C2F3402261
:10147000CA771A6882F48062C2F380228A771A6877
:10148000C2F3C0224A771A68C2F300320A771A6898
:1014900002F400528A611A6802F480424A611A68B2
:1014A000C2F300428A741A6882F40032C2F34042E6
:1014B0004A741A6882F40022C2F3C0420A741A689D
:1014C000C2F30052CA731A68C2F340528A731A6890
:1014D000C2F380524A731A68C2F3C0520A731A6880
:1014E00002F0E0628A601A68C2F3C0620A711A6888
:1014F00002F0E0420A605A68C2F30D024A635A6879
:1015000082F48032C2F3004281F832205A68C2F37A
:10151000404281F831205A68C2F3804281F830207D
:101520005A68C2F3006281F838205A68C2F34462F4
:10153000CA63DA68C2F3002281F84020DA6802F058
:101540000F024A641A6FC2F3400281F854201A6FE6
:1015500082F08002C2F3C01281F84C201A6F02F0B0
:1015600070020A651A6F120C8A64D3F8902002F098
:10157000010281F85620D3F89020C2F3400281F88E
:101580005520D3F8002D02F072028A65D3F8302D71
:1015900002F02302CA65D3F8302DC2F3C00281F8ED
:1015A0006220D3F8302DD3F8303DC2F3001283F01F
:1015B000400381F86120C3F3801381F860307047E5
:1015C0000120704708B531B1836D102B03D1FFF7AF
:1015D00067FA002008BD012008BD000038B5036887
:1015E0000546D3F8004200F0BDFE124B124A24F427
:1015F00070640344934205D844F400742B68C3F824
:10160000004238BD0D4B0E4A0344934202D844F4C5
:101610004074F3E70B4B0C4A03449342EED90B4B57
:101620000B4A0344934294BF44F4807444F48064AE
:10163000E4E700BF00D3CEFEBFE1E40040F1E9FDE6
:101640003F787D0100796CFCFF596202001F0AFAA5
:101650007FF0FA0270B50546A4B0002800F0BD8006
:10166000436D0BB909F02EF92323287A6B65864B5D
:10167000D3F8F42042F00202C3F8F420D3F8F43097
:1016800003F002030193019B002840F09880FFF7CC
:1016900045F92B6803F580531A6842F001021A607D
:1016A000FFF730F906462B6803F580531C6814F0E9
:1016B000010440F087802846FFF790FF2E6800F075
:1016C00051FE724B0BA914948DF849408DF84B4094
:1016D0008DF854408DF864401A948DF88D408DF843
:1016E0008E408DF838400D948DF83E408DF848407E
:1016F0001F941D9416948DF86C408DF882408DF8DF
:101700005D40B0FBF3F04FF40053013811934FF4F8
:10171000C363C6F8DC0001261893202328468DF801
:101720003B6022934FF040538DF830600B934FF4A1
:1017300080438DF85E60109302238DF83A608DF837
:101740008C608DF83D608DF84A608DF84C608DF8A6
:10175000394021938DF880408DF881408DF85C40B0
:101760008DF83C601C948DF87860FFF799F94FF480
:10177000001302A928468DF80C60089306934FF4D5
:10178000067304960A9302948DF824408DF8154050
:101790008DF814408DF81C408DF82540FFF75EFA57
:1017A0002B68686903F588510A6822F4E01242F454
:1017B00000220A6010F0030111D0EE650BE04FF437
:1017C000000064E7FFF79EF8801BB0F5FA7F7FF614
:1017D0006AAF0423EB65E0236B65012052E041F220
:1017E00008141A5922F4FF4222F07E0242EA400213
:1017F000E8681A5100F1600605F11804024611600C
:1018000051609160D16044F8042B1832B242F6D195
:10181000A96241F22C1203210024995041F21412C2
:101820002969985003F5895201F16006106005F1AD
:101830002C000A46146054609460D46014615461B2
:1018400040F8042B1832B242F4D1032041F2301296
:10185000EC632C646C64EC64AC64985041F21C1230
:101860000020995001F5D86141F2281299506A6818
:101870009188C3F800131268C3F804231023EC65A1
:101880006B65AB6524B070BD0044025840420F0048
:101890002DE9F04F0B6885B0DFF8C8814FF0B049F3
:1018A00001930023DFF8C0C1019ADA4002D105B0EC
:1018B000BDE8F08F0127019A9F4012EA070500F06A
:1018C000BB804A685E0022F0100E0EF1FF34012C3E
:1018D00014D84FF0030AD0F808B00AFA06F42BEA3D
:1018E000040ACC68B44044EA0A048460446824EAE8
:1018F0000707C2F300149C40274347600324C768CE
:10190000BEF1020F04FA06F46FEA040407EA040ABF
:101910008F6807FA06F747EA0A07C76016D14FEA49
:10192000D30A03F0070B4FF00F0E00EB8A0A4FEAC1
:101930008B0BDAF820700EFA0BFE27EA0E0E0F69F9
:1019400007FA0BF747EA0E07CAF8207007683C4011
:1019500002F0030707FA06F634430460D4006BD59F
:10196000D8F8F44023F0030603F003074FF00F0EFE
:1019700044F0020406F1B046BF00C8F8F44006F592
:101980008066D8F8F44004F002040394039C0EFA35
:1019900007F4D6F808A02AEA040E314CA0424DD034
:1019A00004F58064A0424BD004F58064A04249D085
:1019B00004F58064A04247D004F58064A04245D07D
:1019C00004F58064A04243D004F58064A04241D075
:1019D00004F58064A0423FD004F58064A0423DD06D
:1019E00004F58064A04214BF0A240924BC40D70334
:1019F00044EA0E04B4606FEA0506DCF8004054BF08
:101A000034402C439703CCF80040DCF8044054BF2A
:101A100034402C43D7024FF0B047CCF80440D9F8FB
:101A2000004054BF34402C4392023C607C6854BF59
:101A300034402C43C9F80440013335E70024D5E78E
:101A40000124D3E70224D1E70324CFE70424CDE720
:101A50000524CBE70624C9E70724C7E70824C5E720
:101A60000000025800440258800000580AB1816109
:101A700070470904FBE7436931EA030308BF09041F
:101A80008161704738B5104CE36813F0040FE368C8
:101A900005D103F00703181A18BF012038BD23F041
:101AA00007031843E060FEF72DFF054663689B04BB
:101AB00001D5002038BDFEF725FF401BB0F57A7F29
:101AC000F4D9012038BD00BF00480258F8B50446DB
:101AD00008B90120F8BD0368D8075AD423689907CC
:101AE00000F1A7802368DA0623D5A94B1A69996A01
:101AF00002F03802082A07D0182A40F0FB8001F0D3
:101B00000302012A40F0F6801B68DB0502D5E36979
:101B1000802BDED1FEF7FCFE41F203039C4A984283
:101B2000216A00F2E080536823F0F84343EA8163BE
:101B300053602368190700F1168123689A0600F1A3
:101B40003C8123685D071ED5924D2B6843F480735A
:101B50002B60FEF7D7FE06462B68DA0540F152816E
:101B6000A3688B4D012B40F054812B6F43F0010390
:101B70002B6741F28835FEF7C5FE854E0746336F69
:101B80009B0740F16C81606A002840F06F81002063
:101B9000F8BD7F4B1A69996A02F03802102A05D005
:101BA000182A0AD101F00302022A06D11B689A03FF
:101BB00094D56368002B91D18BE76368744DB3F5BE
:101BC000803F11D12B6843F480332B60FEF79AFEDF
:101BD0006F4D06462B689B0380D4FEF793FE801B57
:101BE0006428F7D90320F8BDA3B92B6823F4803308
:101BF0002B602B6823F480232B60FEF783FE0646C0
:101C00002B689F037FF56AAFFEF77CFE801B64287C
:101C1000F6D9E7E7B3F5A02F2B6803D143F480236F
:101C20002B60CFE723F480332B602B6823F48023D1
:101C3000CBE7574B1A69996A12F0380203D0182A79
:101C40001BD18E0719D11B685D0703D5E368002BF4
:101C50003FF43FAFFEF75CFE41F203034C4A98426B
:101C60002169536895BF23F47C3323F0FE4343EA94
:101C7000013343EA0163536034E7454DE2682B6862
:101C80000AB323F0190313432B60FEF73BFE06460D
:101C90002B68580711D5FEF73BFE41F2030322697A
:101CA00098426B6895BF23F47C3323F0FE4343EAEC
:101CB000023343EA02636B6014E7FEF723FE801BE6
:101CC0000228E5D98EE723F001032B60FEF71AFE08
:101CD00006462B6859077FF505AFFEF713FE801BFC
:101CE0000228F6D97EE7D36823F07C5343EA0163E8
:101CF000D3601EE7E369264D23B32B6843F08003CE
:101D00002B60FEF7FFFD06462B68DF050DD5FEF7BD
:101D1000FFFD41F20303226A98420CD86B6823F05E
:101D2000F84343EA82636B6003E7FEF7EBFD801B39
:101D30000228E9D956E7EB6823F07C5343EA0263B3
:101D4000EB60F6E62B6823F080032B60FEF7DAFDEC
:101D500006462B68D8057FF5ECAEFEF7D3FD801B59
:101D60000228F6D93EE76369094DABB16B6F43F0CA
:101D700001036B67FEF7C6FD06466B6F9B073FF5D9
:101D8000DCAEFEF7BFFD801B0228F6D92AE700BFB4
:101D900000440258004802586B6F23F001036B6740
:101DA000FEF7B0FD06466B6F9F077FF5C6AEFEF7E8
:101DB000A9FD801B0228F6D914E7A369834D83B1DE
:101DC0002B6843F480532B60FEF79CFD06462B687E
:101DD00098043FF5B6AEFEF795FD801B0228F6D9B4
:101DE00000E72B6823F480532B60FEF78BFD06463B
:101DF0002B6899047FF5A5AEFEF784FD801B0228B1
:101E0000F6D9EFE6FEF77EFD801B64287FF6A4AED0
:101E1000E8E6B3B92B6F41F2883723F001032B6753
:101E20002B6F23F004032B67FEF76CFD06462B6F28
:101E300098077FF5A8AEFEF765FD801BB842F6D97E
:101E4000D0E6052B2B6F03D143F004032B678CE600
:101E500023F001032B672B6F23F0040388E6FEF7C2
:101E600051FDC01BA8427FF68AAEBBE6574D2B69D9
:101E700003F03803182B7AD02B68022823F08073E4
:101E80002B6067D1FEF73EFD06462B6899015BD4B7
:101E9000AB6AA26A23F47C7323F003031343E26A60
:101EA00043EA0213AB62636BA26B013B013A5B0234
:101EB00012049BB202F4FE021343226B013AC2F3F6
:101EC00008021343E26B013A120602F0FE4213438A
:101ED0002B63EB6A23F00103EB626B6BA26C23F4C0
:101EE0007F4323F0F80343EAC2036B63EB6A226C7F
:101EF00023F00C031343EB62EB6A626C23F00203E2
:101F0000324C1343EB62EB6A43F48033EB62EB6ACF
:101F100043F40033EB62EB6A43F48023EB62EB6A39
:101F200043F00103EB622B6843F080732B60FEF7F4
:101F3000E9FC054623689A013FF529AEFEF7E2FC6D
:101F4000401B0228F6D94DE6FEF7DCFC801B022878
:101F50009BD947E6FEF7D6FC04462B689B017FF52C
:101F600016AEFEF7CFFC001B0228F6D93AE6012890
:101F7000AA6A2B6B28D002F00301A06A81427FF489
:101F8000A8ADC2F30512E16A8A427FF4A2AD226BCA
:101F9000C3F30801013A91427FF49BAD626BC3F336
:101FA0004621013A91427FF494ADA26BC3F30641FE
:101FB000013A91427FF48DADE06BC3F306630138C3
:101FC000181A18BF0120F8BDF8BD00BF0044025820
:101FD000484B1A6902F03802102A10B50ED0182AA0
:101FE0000ED0002A40F083801A68434812F0200F78
:101FF0007ED01B68C3F3C103D84010BD3F4810BD5D
:10200000996A986ADA6AC0F305105C6B00286FD091
:10201000C4F3CC0402F001029FED395AF7EE005AE6
:10202000624307EE902A01F00302B8EEE76A012A44
:1020300007EE900AF8EEE76A02D00FD3022A48D0E2
:102040001B6BC3F3080307EE903AF8EEE77AE6EE6F
:10205000057A9FED2C6A77EEA57A37E01A6892062A
:1020600027D51968244AC1F3C1011B6BCA40C3F3C9
:10207000080307EE902AF8EEE77A87EEA67A07EED5
:10208000903AF8EEE77AE6EE057A77EEA57A194B04
:1020900067EE877A1B6BC3F34623013307EE103AD2
:1020A000F8EEC76A87EEA67AFCEEC77A17EE900ABA
:1020B00010BD1B6BC3F3080307EE903AF8EEE77A06
:1020C000E6EE057A9FED106A77EEA57A86EE267A1F
:1020D000DDE71B6BC3F3080307EE903AF8EEE77AEF
:1020E000E6EE057A9FED096A77EEA57AEEE70848F5
:1020F00010BD00BF004402580090D00300127A00C7
:10210000000000390024744A0024744C0024F44A6E
:1021100000093D002DE9F0410D46044610B90120AB
:10212000BDE8F081894A136803F00F038B42C0F0C9
:10213000938023685F0700F19B801E070BD58449BD
:102140006669C86900F07000864204D9CA6922F045
:1021500070023243CA61D8060BD57D49A669C869A9
:1021600000F4E060864204D9CA6922F4E062324396
:10217000CA6199060BD57649E669086A00F07000D5
:10218000864204D90A6A22F0700232430A629A0730
:102190000BD56F49E668886900F00F00864204D9C4
:1021A0008A6922F00F0232438A61DF076ED4236806
:1021B0009E0700F1A28065490A6802F00F0295426D
:1021C000C0F0A980580700F1B28019070BD560490B
:1021D0006569C86900F07000854204D2CA6922F0BE
:1021E00070022A43CA61DA060BD55949A569C86944
:1021F00000F4E060854204D2CA6922F4E0622A4316
:10220000CA619B060BD5524AE069116A01F0700160
:10221000884204D2136A23F0700303431362FFF76A
:10222000D7FE4B494B4A8B69C3F30323D35C03F0BE
:102230001F03D8408B6903F00F03D35C464A03F0B9
:102240001F0320FA03F31360444B1860444BBDE8AE
:10225000F0411868FEF7F6BA136823F00F030B433A
:102260001360136803F00F0399427FF458AF60E7DF
:1022700037492669886900F0700086427FF65DAFB5
:102280008A6922F0700232438A6156E7304BA168B6
:102290009A6922F470620A439A6161681A68022995
:1022A0001ED112F4003F3FF43AAF1A6941F2883868
:1022B000274E22F007020A431A61FEF723FB074666
:1022C0003369626803F03803B3EBC20F3FF46FAFBA
:1022D000FEF718FBC01B4045F2D90320BDE8F08192
:1022E000032902D112F0007FDDE7012902D112F4A7
:1022F000807FD8E712F0040FD5E71549E6688869B2
:1023000000F00F008642BFF456AF8A6922F00F0238
:1023100032438A614FE70A6822F00F022A430A60BB
:102320000A6802F00F0295427FF4F9AE4AE70849C5
:102330002569886900F070008542BFF446AF8A695C
:1023400022F070022A438A613FE700BF002000525A
:10235000004402583DF30008280000242400002413
:102360000400002408B5FFF733FE0B4A0B499369BC
:102370009269C3F3032302F00F02CB5C03F01F0347
:1023800020FA03F3885C064A00F01F0023FA00F0ED
:102390001060044A136008BD004402583DF3000871
:1023A000280000242400002408B5FFF7DBFF054BBC
:1023B000054ADB69C3F30213D35C03F01F03D84063
:1023C00008BD00BF004402583DF3000808B5FFF700
:1023D000C9FF054B054ADB69C3F30223D35C03F055
:1023E0001F03D84008BD00BF004402583DF3000859
:1023F000F8B53A4C06460D46A36A03F00303032BD7
:1024000069D0236823F080632360FEF77BFA0746D8
:1024100023681A014BD4A36A326823F47C3343EA5D
:102420000233A362B368F268013B013A5B02120413
:102430009BB202F4FE0213437268013AC2F308022F
:1024400013433269013A120602F0FE421343A363BA
:10245000E36A726923F0C0031343E362E36AB2697B
:1024600023F020031343E362E36A23F01003E362E3
:10247000E36BF26923F47F4323F0F80343EAC203DA
:10248000E363E36A43F01003E362E36AB5B943F43C
:102490000023E362114C236843F080632360FEF75E
:1024A00031FA054623681B010FD50020F8BDFEF761
:1024B00029FAC01B0228ABD90320F8BD012D0CBF9F
:1024C00043F4801343F40013E3E7FEF71BFA401BC9
:1024D0000228E7D9F0E70120F8BD00BF0044025808
:1024E000F8B53A4C06460D46A36A03F00303032BE6
:1024F00069D0236823F080532360FEF703FA074670
:1025000023689A004BD4A36A326823F07C7343EAB1
:102510000253A362B368F268013B013A5B02120402
:102520009BB202F4FE0213437268013AC2F308023E
:1025300013433269013A120602F0FE421343236448
:10254000E36A726923F440631343E362E36AB269A6
:1025500023F400731343E362E36A23F48073E362BA
:10256000636CF26923F47F4323F0F80343EAC20368
:102570006364E36A43F48073E362E36AB5B943F4E6
:102580008003E362114C236843F080532360FEF71D
:10259000B9F9054623689B000FD50020F8BDFEF76A
:1025A000B1F9C01B0228ABD90320F8BD012D0CBF27
:1025B00043F4000343F08073E3E7FEF7A3F9401B05
:1025C0000228E7D9F0E70120F8BD00BF0044025817
:1025D0002DE9F8430668044616F0006623D0436EE2
:1025E000B3F5801F18D002D883B101261BE0B3F5E4
:1025F000001F23D0B3F5401FF7D19F4A0026616E1C
:10260000136D23F440130B4313650CE09A4AD36A0D
:1026100043F40033D362F0E702210430FFF7E8FE11
:1026200006460028E9D02368DD0534D5636D042B08
:1026300030D8DFE803F0080F290D0D000221243007
:10264000FFF74EFFECE78C4AD36A43F40033D362C2
:10265000354604E00021201DFFF7CAFE0546E5B916
:10266000854A616D136D23F007030B4313652368DF
:10267000980521D5A36D802B3BD010D86BB3402B90
:1026800031D00126354617E0002104F12400FFF780
:1026900027FFE3E701263546E9E72E46E7E7C02BAB
:1026A00002D0B3F5807FECD14DBB734AA16D136DA1
:1026B00023F4E0730B4313652368590530D5D4F830
:1026C000A430B3F5800F47D01BD8002B38D0B3F51A
:1026D000001F3BD00126354622E0674AD36A43F407
:1026E0000033D362E0E70021201DFFF781FE05469D
:1026F000DAE7002104F12400FFF7F2FEF7E72E46A7
:10270000DAE7B3F5C00F02D0B3F5000FE2D14DBB4D
:10271000594AD4F8A410936D23F460030B439365D6
:1027200023681A052FD5D4F8A830B3F1007F41D023
:102730001AD89BB3B3F1807F36D00126354622E00C
:102740004D4AD36A43F40033D362E0E70021201DF1
:10275000FFF74EFE0546DAE7002104F12400FFF7FB
:10276000BFFEF7E72E46DBE7B3F1407F02D0B3F1BF
:10277000806FE2D125BB404AD4F8A810936D23F0B6
:10278000E0630B43936523689B0127D5A36C102B53
:1027900033D017D8D3B1012635461FE0364AD36A65
:1027A00043F40033D362E5E70021201DFFF720FE4C
:1027B0000546DFE7002104F12400FFF791FEF7E76B
:1027C0002E46E0E7202B1ED0302BE4D10DBB2A4A49
:1027D000A16CD36C23F030030B43D3642368DF0474
:1027E00027D5E36DB3F5005F3ED014D883B3B3F5BE
:1027F000805F33D0012635461BE01F4AD36A43F47D
:102800000033D362E2E70221201DFFF7F1FD054608
:10281000DCE72E46E2E7B3F5405F02D0B3F5804F28
:10282000E8D13DBB144AE16D136D23F4E0430B4343
:1028300013652368980432D5236EB3F5003F44D066
:102840001CD823B3B3F5803F39D00126354626E0A6
:10285000094AD36A43F40033D362E2E70021201D22
:10286000FFF7C6FD0546DCE7002104F12400FFF771
:1028700037FEF7E72E46DCE700440258B3F5802F19
:1028800005D0B3F5A02F02D0B3F5403FDDD115BB85
:10289000A04A216E136D23F4E0230B4313652368D4
:1028A00059042DD5D4F8AC30B3F1005F4BD014D817
:1028B000E3B1B3F1805F40D00126354620E001212D
:1028C000201DFFF795FD0546E1E7012104F12400F5
:1028D000FFF706FEF7E72E46E1E7B3F1804F05D09C
:1028E000B3F1A04F02D0B3F1405FE5D1002D30D15C
:1028F000884AD4F8AC10936D23F0E0430B43936502
:1029000023681A040FD5E36EB3F1805F23D0B3F1CF
:10291000005F26D05BBB6DBB7E4AE16E136D23F07A
:1029200040530B4313652368DB0133D5636C032BE2
:102930007DD8DFE803F0262176260121201DFFF750
:1029400057FD0546D2E7012104F12400FFF7C8FD39
:10295000F7E72E46D4E76F4AD36A43F40033D362D5
:10296000D9E70121201DFFF743FD0546D3E70126E6
:102970003546D8E72E46D6E7664AD36A43F4003395
:10298000D362002D56D1634A616CD36C23F00303EC
:102990000B43D36423685F0256D55F4F3B6843F413
:1029A00080733B60FDF7AEFF80463B68D80543D59A
:1029B000002D61D1574BD4F8B0001A6F424012F489
:1029C000407F0BD01A6F196F22F4407241F48031AE
:1029D0001967196F21F4803119671A67B0F5807F84
:1029E00008D1FDF78FFF4B4F804641F288393B6F8E
:1029F000990736D5D4F8B030464903F44072B2F5A1
:102A0000407F35D10869454A20F47C5002EA131210
:102A100002430A61C3F30B033E4A116F0B43136772
:102A200012E00221201DFFF7E3FC0546A9E701267D
:102A30003546AFE72E46ADE7FDF764FFA0EB080093
:102A40006428B2D9032635462368DA0724D5A36F54
:102A5000102B32D012D8BBB1082B28D00126354616
:102A60001AE0FDF74FFFA0EB08004845BFD9E9E7A2
:102A70000A6922F47C52CCE72E46E5E7202B03D0EE
:102A8000282B01D0182BE9D1EDB9224AA16F536D43
:102A900023F038030B43536523689B0722D5636FEC
:102AA000052B31D8DFE803F016112A16161601217E
:102AB000201DFFF79DFC0546E6E7012104F12400F7
:102AC000FFF70EFDF7E72E46E6E70121201DFFF791
:102AD0008FFC0546DDB90F4A616F536D23F0070384
:102AE0000B43536523685F0728D5D4F89030052B36
:102AF0003AD8DFE803F01A15331A1A1A012104F143
:102B00002400FFF7EDFCE4E701263546EAE72E4610
:102B1000E8E700BF0044025800480258CFFFFF001A
:102B20000121201DFFF764FC054605BB984AD4F837
:102B30009010936D23F007030B4393652368980669
:102B400029D5D4F88C30B3F1005F3AD011D8CBB18D
:102B5000B3F1805F2FD0012635461CE0012104F13E
:102B60002400FFF7BDFCDFE701263546E6E72E46E9
:102B7000E4E7B3F1804F05D0B3F1A04F02D0B3F139
:102B8000405FE8D11DBB824AD4F88C10536D23F00E
:102B9000E0430B435365236859062CD5D4F898308D
:102BA000B3F5006F3FD014D8E3B1B3F5806F34D0E4
:102BB000012635461FE00021201DFFF719FC0546C0
:102BC000E0E7022104F12400FFF78AFCF7E72E4634
:102BD000E1E7B3F5805F05D0B3F5A05F02D0B3F5B0
:102BE000406FE5D12DBB6A4AD4F89810936D23F459
:102BF000E0530B43936523681A0630D5D4F89C3014
:102C0000B3F5804F00F0A48015D8EBB1B3F5005FA9
:102C100000F098800126354621E00021201DFFF7B5
:102C2000E7FB0546DEE7022104F12400FFF758FC2C
:102C3000F7E72E46DFE7B3F5004F05D0B3F5204F99
:102C400002D0B3F5C04FE5D1002D40F08780504A47
:102C5000D4F89C10936D23F460430B439365236871
:102C60001B0714D5D4F88030B3F5805F07D102215B
:102C700004F12400FFF734FC002818BF0126444A61
:102C8000D4F88010536D23F440530B4353652368ED
:102C9000DF0614D5D4F89430B3F5807F07D1022134
:102CA00004F12400FFF71CFC002818BF0126384A55
:102CB000D4F89410936D23F440730B439365236809
:102CC000180317D5D4F8A010B1F5803F48D0B1F55E
:102CD000003F05D0002949D1201DFFF789FB05469B
:102CE000002D46D12A4AD4F8A010936D23F4403326
:102CF0000B4393652368590318D5D4F88430B3F592
:102D0000001F38D0B3F5401F07D0B3F5801F39D16D
:102D10001F4AD36A43F40033D362B5BB1C4AD4F8CC
:102D20008410536D23F440130B4353652368DA0377
:102D30003ED5E36C73B3B3F5803F00F0828001268B
:102D4000354635E00021201DFFF752FB05467BE7A5
:102D5000022104F12400FFF7C3FBF7E72E467EE7CC
:102D6000022104F12400FFF7BBFBB8E7012635463A
:102D7000C0E72E46BEE7012104F12400FFF7B0FBB7
:102D80000546CAE701263546D0E72E46CEE700BF06
:102D900000440258374AD36A43F40033D362002D0B
:102DA00055D1344AE16CD36C23F480330B43D364A4
:102DB00023689B0007D5022104F12400FFF790FB54
:102DC000002818BF012623689F030ED5E16FB1F5D7
:102DD000807F46D03DD8002941D1002D47D12548DC
:102DE000426D22F440720A434265D80206D5214959
:102DF000206F0A6D22F0004202430A65990206D54F
:102E00001C49A06E0A6D22F0807202430A655A00C6
:102E100009D5184A116921F4004111611169D4F8EA
:102E2000B80001431161002B06DA124A216DD36C00
:102E300023F040530B43D364301C18BF0120BDE87E
:102E4000F8830221201DFFF7D3FA0546A7E72E4697
:102E5000AEE7B1F5007FC0D0B1F5407FBDD001260F
:102E6000C3E70448C26A42F40032C262B5E72E46A4
:102E7000BBE700BF0044025808B5FFF773FA054BE3
:102E8000054A1B6AC3F30213D35C03F01F03D84047
:102E900008BD00BF004402583DF300084E4930B55C
:102EA0008C6A8B6ACD6AC3F30533CA6B002B00F0C2
:102EB0008E80C5F30015C2F3CC029FED485AF7EEA1
:102EC000005A6A4307EE902A04F00302B8EEE76A5C
:102ED000012A07EE903AF8EEE76A02D00FD3022AF1
:102EE00067D08B6BC3F3080307EE903AF8EEE77AEE
:102EF000E6EE057A9FED3A6A77EEA57A56E00B6822
:102F00009B0646D50A688B6BC2F3C101354AC3F3F1
:102F10000803CA4007EE902AF8EEE77A87EEA67A11
:102F200007EE903AF8EEE77AE6EE057A77EEA57AC4
:102F3000294A67EE877A936BC3F3462307EE103A6C
:102F4000B8EEC77A37EE257AC7EE876AFCEEE66AF6
:102F5000C0ED006A936BC3F3064307EE103AB8EE78
:102F6000C77A37EE257AC7EE876AFCEEE66AC0EDCF
:102F7000016A936BC3F3066307EE103AB8EEC77AA3
:102F800077EE255A87EEA57ABCEEC77A80ED027AF5
:102F900030BD8B6BC3F3080307EE903AF8EEE77A87
:102FA000E6EE057A9FED106A77EEA57A86EE267A30
:102FB000BEE78B6BC3F3080307EE903AF8EEE77AAF
:102FC000E6EE057A9FED096A77EEA57AEEE70360F3
:102FD0004360836030BD00BF0044025800000039E8
:102FE0000024744A0090D0030024744C0024F44A56
:102FF0004E4930B58C6A8B6ACD6AC3F305534A6C6F
:10300000002B00F08E80C5F30025C2F3CC029FEDAB
:10301000485AF7EE005A6A4307EE902A04F003027A
:10302000B8EEE76A012A07EE903AF8EEE76A02D0B6
:103030000FD3022A67D00B6CC3F3080307EE903A54
:10304000F8EEE77AE6EE057A9FED3A6A77EEA57A32
:1030500056E00B689B0646D50A680B6CC2F3C101AB
:10306000354AC3F30803CA4007EE902AF8EEE77A20
:1030700087EEA67A07EE903AF8EEE77AE6EE057A62
:1030800077EEA57A294A67EE877A136CC3F3462355
:1030900007EE103AB8EEC77A37EE257AC7EE876AA0
:1030A000FCEEE66AC0ED006A136CC3F3064307EE5C
:1030B000103AB8EEC77A37EE257AC7EE876AFCEE8B
:1030C000E66AC0ED016A136CC3F3066307EE103ABB
:1030D000B8EEC77A77EE255A87EEA57ABCEEC77AA6
:1030E00080ED027A30BD0B6CC3F3080307EE903A13
:1030F000F8EEE77AE6EE057A9FED106A77EEA57AAC
:1031000086EE267ABEE70B6CC3F3080307EE903A0F
:10311000F8EEE77AE6EE057A9FED096A77EEA57A92
:10312000EEE703604360836030BD00BF0044025897
:10313000000000390024744A0090D0030024744C2D
:103140000024F44A7047704770477047704703681F
:103150001A69910710B504460FD5DA6892070CD5A5
:103160006FF002021A6101229B690277990700F051
:103170008580FFF7E9FF0023237723681A69520748
:1031800010D5DA6850070DD56FF0040220461A6199
:1031900002229B69227713F4407F75D0FFF7D4FF9A
:1031A0000023237723681A6911070FD5DA681207FD
:1031B0000CD56FF0080220461A610422DB692277E1
:1031C0009B0767D0FFF7C0FF0023237723681A69A6
:1031D000D00610D5DA68D1060DD56FF01002204662
:1031E0001A610822DB69227713F4407F58D0FFF779
:1031F000ABFF0023237723681A69D20708D5DA6862
:10320000D00705D56FF0010220461A61FFF79AFF3B
:1032100023681A69110608D5DA68120605D56FF019
:10322000800220461A6100F0C6F923681A69D005A9
:1032300008D5DA68110605D56FF4807220461A6148
:1032400000F0BAF923681A69520608D5DA68500600
:1032500005D56FF0400220461A61FFF777FF23681B
:103260001A69910622D5DA6892061FD56FF02002FE
:1032700020461A61BDE8104000F09CB9FFF763FFDB
:103280002046FFF762FF76E7FFF75DFF2046FFF776
:103290005CFF85E7FFF757FF2046FFF756FF93E7F0
:1032A000FFF751FF2046FFF750FFA2E710BD0000D7
:1032B000304A0368904212D0B0F1804F0FD0A2F58F
:1032C0007C4290420BD002F58062904207D002F51A
:1032D0008062904203D002F57842904219D14A6848
:1032E00023F070031343234A90421DD0B0F1804F66
:1032F0001AD0A2F57C42904216D002F5806290422C
:1033000012D002F5806290420ED002F578429042CF
:103310000AD0194A904207D002F58062904203D049
:1033200002F58062904203D123F44073CA681343CC
:103330004A6923F08003134303608B68C3620B6800
:1033400083620C4B98420FD003F5806398420BD0F8
:1033500003F57053984207D003F58063984203D079
:1033600003F58063984201D10B6903630123436134
:10337000704700BF000001400040014010B5044606
:10338000A0B190F83D3003F0FF021BB980F83C205B
:1033900007F0E4FE02232068211D84F83D30FFF78A
:1033A00087FF0123002084F83D3010BD012010BDAF
:1033B00010B50A43846842EA032324F47F4423437C
:1033C000836010BD90F83C30012B70B504464FF07F
:1033D000020034D084F83D000123206884F83C309A
:1033E00082684D4B134083600B68602B60D014D80B
:1033F000202B03D00BD80BB1102B1AD1826843F0CD
:10340000070322F4401222F0700213434EE0402BD7
:1034100068D0502B32D0302BEFE7B3F1101FEDD036
:103420000ED8B3F5005F1FD0B3F5801FE6D0702B28
:103430000FD00123002084F83D3084F83C0070BD9B
:10344000364A9342DAD010329342D7D0203A934290
:10345000D3E7CB684A688968FFF7AAFF22689368B8
:1034600043F077039360E4E7CB684A688968FFF725
:103470009FFF2268936843F48043F3E74A68CE686D
:10348000016A056A21F00A0125F001050A43056277
:10349000836923F0F00343EA0613836102628368C1
:1034A00023F4401323F0700343F057038360C0E715
:1034B0004D68CE68016A21F0100101628269036AD9
:1034C00022F4704223F0A00342EA063243EA0513D5
:1034D00082610362836823F4401323F0700343F096
:1034E0006703E3E74A68CE68016A056A21F00A01CA
:1034F00025F001050A430562836923F0F00343EADE
:10350000061383610262836823F4401323F070037F
:1035100043F04703CAE700BF8800CEFF3000100029
:1035200090F83C30012B4FF0020370B53AD080F890
:103530003D30012203681C4D80F83C20AB425A68A4
:103540009C6802D0194EB34203D122F470024E6837
:1035500032430E6822F07002AB4242EA06025A6021
:1035600015D0B3F1804F12D0114A93420FD002F51B
:10357000806293420BD002F58062934207D002F53D
:103580007842934203D0A2F56C42934204D18968F9
:1035900024F080020A439A60012380F83D30002322
:1035A00080F83C30184670BD000001400004014026
:1035B00000040040704770477047000000000000A2
:1035C0000368C26981682DE9F043054600691C68FB
:1035D00087B0014368690143686E11430143BB48EA
:1035E00020400143E8681960596821F440510143C3
:1035F000A8695960B6498B421CBF296A084399687B
:1036000021F06E4121F430610143686A9960D96A02
:1036100021F00F010143D962AE498B421DD1AE4B5F
:103620005B6D03F03803282B00F25E87AB49CC5C5E
:10363000B2F5004F40F05F87082C00F0DE8400F206
:10364000BA83012C00F03284C0F0F483042C00F023
:10365000AF840122002300F050BCA1498B4208D165
:103660009D4B5B6D03F00703052B00F23A879D49E4
:10367000DDE79D498B4208D1974B5B6D03F0070353
:10368000052B00F22E879949D1E799498B4208D141
:10369000914B5B6D03F00703052B00F222879549E0
:1036A000C5E795498B4208D18B4B5B6D03F007034F
:1036B000052B00F216879149B9E791498B4208D151
:1036C000854B5B6D03F03803282B00F20A878D4988
:1036D000ADE78D498B4208D17F4B5B6D03F007034B
:1036E000052B00F2FE868949A1E789498B4208D162
:1036F000794B5B6D03F00703052B00F2F2868549D9
:1037000095E773498B4240F0EC86734B9B6D03F059
:103710000703052B01D90122A6E07F4AD45C082CBF
:1037200000F0C8802FD8022C7DD0042CF3D168463D
:10373000FFF7B4FB019A6B6A002B00F0C080012BED
:1037400000F0BF80022B00F0BE80032B00F0E88069
:10375000042B00F0AB80052B00F0E480062B00F07A
:10376000E380072B00F0E280082B00F0E180092BBA
:1037700000F0E0800A2B00F0DF800B2B14BF012348
:103780004FF4807393E0202C00F00A81402C00F06D
:103790002181102CBFD1504B1A68920640F1E48071
:1037A0001A685E4BC2F3C102D340002800F0C68005
:1037B000012800F0C580022800F0C480032800F032
:1037C000C380042800F0C280052800F0C1800628CC
:1037D00000F0C080072800F0BF80082800F0BE80FD
:1037E000092800F0BD800A2800F0BC800B2814BF17
:1037F00001204FF48070B3FBF0F26E6806EB4603D5
:10380000934288D8B2EB063F85D8082C00F0D281CD
:1038100000F24381022C00F08D81042C00F0C58160
:1038200001220020B8E1FFF727FB6B6A43B3012BAD
:1038300028D0022B28D0032B28D0042B28D0052BEE
:1038400028D0062B28D0072B28D0082B28D0092BCE
:1038500028D00A2B28D00B2B14BF01234FF48073E0
:10386000B0FBF3F2002AC8D101231046A5F86A3054
:10387000A5F868300023EB662B6707B0BDE8F0833E
:103880000123EDE72346EBE70423E9E70623E7E717
:103890000823E5E70A23E3E70C23E1E71023DFE74A
:1038A0002023DDE74023DBE78023D9E70823B2FBB1
:1038B000F3F2D7E703A8FFF79BFB049A3BE701234A
:1038C000F5E70223F3E70423F1E700BFF369FFCF35
:1038D000000C0058001001400044025860C200086B
:1038E0000044004089C200080048004089C2000826
:1038F000004C004089C200080050004089C2000806
:103900000014014060C200080078004089C200082D
:10391000007C004089C200088FC200080090D003DC
:103920000623C4E70A23C2E70C23C0E71023BEE73F
:103930002023BCE74023BAE78023B8E701205AE7F9
:10394000022058E7042056E7062054E7082052E7F3
:103950000A2050E70C204EE710204CE720204AE7D1
:10396000402048E7802046E700284FD001284FD06C
:1039700002284FD003284FD004284FD005284FD01D
:1039800006284FD007284FD008284FD009284FD0FD
:103990000A2851D0AD4AAE4B0B2818BF1A462CE767
:1039A000002841D0012841D0022841D0032841D02D
:1039B000042841D0052841D0062841D0072841D00D
:1039C000082841D0092841D00A2842D043F609529C
:1039D000A04BE1E700283FD0012840D0022841D089
:1039E000032842D0042843D0052844D0062845D0D7
:1039F000072846D0082847D0092848D00A2849D0A7
:103A00000B280CBF80224FF40042F6E6904AF4E601
:103A1000914AF2E6914AF0E6914AEEE6914AECE6E6
:103A2000914AEAE6914AE8E68A4AE6E6904AE4E6FE
:103A3000904AE2E6904AE0E6904ADEE6904ADCE60A
:103A4000904ADAE6814AD8E68F4AD6E64FF2244217
:103A5000D3E647F61222D0E64FF40042CDE64FF40B
:103A60008042CAE64FF40052C7E641F25552C4E61E
:103A70004FF48052C1E640F6CC42BEE640F6AA22A0
:103A8000BBE64FF40062B8E64FF48062B5E64FF44F
:103A90000072B2E64FF48072AFE6202C00F01C8179
:103AA000402C00F04F81102C7FF4BAAE774A740896
:103AB000136813F0200F6B6A00F0AD801268644841
:103AC000C2F3C102D040002B00F0A380012B00F014
:103AD0008C80022B00F08B80032B00F08A80042B5B
:103AE00000F08980052B00F08880062B00F087808D
:103AF000072B00F08680082B00F08580092B00F052
:103B000084800A2B00F083800B2B40F082804FF4DE
:103B1000807200230021FCF74BFC32464FEA01295A
:103B200000234FEA002849EA106918EB040049F124
:103B300000012EE0FFF7A0F96B6A002B53D0012B98
:103B40003DD0022B3DD0032B3DD0042B3DD0052B87
:103B50003DD0062B3DD0072B3DD0082B3DD0092B67
:103B60003DD00A2B3DD00B2B3DD14FF4807200236A
:103B70000021FCF71DFC6C680F02002306022246A0
:103B800047EA1067600816EB000847F10009404655
:103B90004946FCF70DFC0022A0F540713C4B9942D0
:103BA0003FF6B9AD2B68D8605EE66846FFF776F958
:103BB0000198C1E703A8FFF71BFA0498BCE70222AB
:103BC000D5E70422D3E70622D1E70822CFE70A226D
:103BD000CDE70C22CBE71022C9E72022C7E740221D
:103BE000C5E78022C3E70122C1E7022291E7042250
:103BF0008FE706228DE708228BE70A2289E70C224D
:103C000087E7102285E7202283E7402281E7802290
:103C10007FE701227DE7002B5BD0012B3AD0022BFE
:103C200041D0032B41D0042B43D0052B43D0062B8E
:103C300043D0072B45D0082B45D0092B45D00A2B64
:103C400045D00B2B45D10248002125E090D0030040
:103C50000090D00300093D000048E8010024F40072
:103C6000AAC2A20000127A0000A8610055615100AA
:103C700080841E0040420F002A2C0A0020A1070069
:103C8000801A06001516050048E801000044025895
:103C9000FFFC0F00AE480121001932464FF000032F
:103CA00041F1000175E7AB48CEE7A1A1D1E90001E0
:103CB000F2E7A948C8E7A948C6E79FA1D1E90001F2
:103CC000EAE7A748C0E7A748BEE7A748BCE7A74878
:103CD000BAE7A7480321DFE76B6A8BB3012B16D045
:103CE000022B16D0032B16D0042B19D0052B19D07C
:103CF000062B19D0072B1BD0082B1BD0092B1BD050
:103D00000A2B1BD00B2B1BD19A48002106E09548AB
:103D1000FBE79548F9E78AA1D1E900017408BBE700
:103D20009248F2E79448F0E787A1D1E90001F5E76E
:103D30009248EAE79248E8E79248E6E79248E4E7E3
:103D40008748E2E76B6A9BB3012B16D0022B17D092
:103D5000032B18D0042B18D0052B19D0062B19D003
:103D6000072B19D0082B1AD0092B1BD00A2B1CD0DB
:103D70000B2B1DD14FF40040C7E74FF48000C4E780
:103D80004FF40010C1E78148BFE74FF48010BCE753
:103D90007F48BAE77F48B8E74FF40020B5E74FF413
:103DA0008020B2E74FF40030AFE74FF48030ACE74B
:103DB0004FF40000A9E7202C00F08E81402C00F089
:103DC000C481102C7FF445AC734B69681A6812F0FB
:103DD000200F00F04B811B68684AC3F3C10322FA2D
:103DE00003F3002800F02C81012800F02B81022829
:103DF00000F02A81032800F02981042800F028819E
:103E0000052800F02781062800F02681072800F009
:103E10002581082800F02481092800F023810A2840
:103E200000F022810B2814BF01224FF48072B3FBF3
:103E3000F2F21FE0FEF7B8FA696A09B3012921D04E
:103E4000022921D0032921D0042921D0052921D0FC
:103E5000062921D0072921D0082921D0092921D0DC
:103E60000A2921D00B2914BF01224FF480726968FE
:103E7000B0FBF2F24B0803EB4203B3FBF1F33AE081
:103E80000122F4E70222F2E70422F0E70622EEE73D
:103E90000822ECE70A22EAE70C22E8E71022E6E72C
:103EA0002022E4E74022E2E78022E0E7FEF78EFAF4
:103EB0006A6AC2B1012A2FD0022A2FD0032A2FD03A
:103EC000042A2FD0052A2FD0062A67D0072A67D0C8
:103ED000082A67D0092A67D00A2A67D00B2A14BF9C
:103EE00001244FF480746A68B0FBF4F4530803EBC8
:103EF0004403B3FBF2F39BB20022A3F110004FF690
:103F0000EF7188423FF607AC23F00F01C3F3420381
:103F100028680B43C360A7E40224E4E70424E2E733
:103F20000624E0E70824DEE70A24DCE7AFF300809C
:103F300000AAC2A20000000000556151000000006C
:103F4000002A2C0A000000000015160500000000E1
:103F5000000048E8000024F40000127A0000A86184
:103F60000000093D0080841E0040420F0020A10790
:103F7000000090D000093D0000801A060090D00398
:103F80000048E8010024F40000127A0000551500F2
:103F900000CC0C0000AA0A00004402580C24A2E73E
:103FA0001024A0E720249EE740249CE780249AE781
:103FB0006846FEF773FF6A6A019B6AB3012A2DD037
:103FC000022A16D0032A2DD0042A11D0052A2BD07C
:103FD000062A2BD0072A2BD0082A2BD0092A2BD02F
:103FE0000A2A2BD00B2A14BF01244FF4807400E05E
:103FF00008246A68B3FBF4F478E703A8FEF7F8FF37
:104000006A6A049B42B1012A08D0022A08D0032A16
:1040100008D0042ADAD1ECE70124EAE70224E8E731
:104020000424E6E70624E4E70A24E2E70C24E0E7B8
:104030001024DEE72024DCE74024DAE78024D8E7F8
:104040000122F4E60222F2E60422F0E60622EEE67F
:104050000822ECE60A22EAE60C22E8E61022E6E66E
:104060002022E4E64022E2E68022E0E6F0B10128E8
:104070001ED002281ED003281ED004281ED00528DA
:104080001ED006281ED007281ED008281ED00928BA
:104090001ED00A281ED0A34BA34A0B2814BF1046DB
:1040A000184600EB5100B0FBF1F324E79E48F8E717
:1040B0009E48F6E79E48F4E79E48F2E79E48F0E700
:1040C0009E48EEE79E48ECE79E48EAE79E48E8E710
:1040D0009E48E6E79E48E4E700B3012820D0022886
:1040E00020D0032820D0042820D0052820D006285E
:1040F00020D0072820D0082820D0092820D00A283E
:1041000020D047F612228F4B0B2814BF18461046BA
:104110006B6800EB5300B0FBF3F3ECE68948F7E77C
:104120008948F5E78948F3E78A48F1E78848EFE7E7
:104130008948EDE78948EBE77A48E9E78848E7E707
:104140008848E5E74FF22440E2E7E8B1012817D0BC
:1041500002281CD003281DD004281ED005281FD0FB
:10416000062820D0072821D0082822D0092823D0CB
:104170000A2824D00B2814BF4FF480324FF48072E9
:10418000696802EB510378E64FF48032F8E74FF4A8
:104190008042F5E742F6AA22F2E74FF40052EFE739
:1041A00041F69812ECE741F25452E9E74FF480529D
:1041B000E6E74FF40062E3E74FF48062E0E74FF494
:1041C0000072DDE7FEF7F0F86B6A63B3012B2CD0C9
:1041D000022B2CD0032B2CD0042B2CD0052B2CD035
:1041E000062B2CD0072B2CD0082B2CD0092B2CD015
:1041F0000A2B2CD00B2B14BF01234FF480736A6859
:10420000B0FBF3F303EB5203B3FBF2F39BB20022D8
:10421000A3F110004FF6EF7188423FF67CAA29689F
:10422000CB60FFF721BB0123E9E70223E7E7042383
:10423000E5E70623E3E70823E1E70A23DFE70C23AA
:10424000DDE71023DBE72023D9E74023D7E78023EE
:10425000D5E7FEF7BBF86B6AC3B1012B1AD0022B6E
:104260001AD0032B1AD0042B1AD0052B1AD0062BE8
:104270001AD0072B1AD0082B1AD0092B1AD00A2BC8
:104280001AD00B2B14BF01244FF480746A68B0FB62
:10429000F4F3B7E70224F9E70424F7E70624F5E787
:1042A0000824F3E70A24F1E70C24EFE71024EDE7F4
:1042B0002024EBE74024E9E78024E7E70824686846
:1042C000B3FBF4F303EB5003B3FBF0F39EE703A857
:1042D000FEF78EFE6A6A049B4AB1012A09D0022ABF
:1042E00009D0032A09D0042A40F02581E7E70124F8
:1042F000E5E70224E3E70424E1E70624DFE70A24F4
:10430000DDE70C24DBE71024D9E72024D7E740249D
:10431000D5E78024D3E7012260E102225EE1042296
:104320005CE100BF20A107000020A1070090D0039E
:104330000048E801548545010024F4000050C30002
:10434000AAC2A20000127A0000093D0080841E006B
:1043500040420F005458140000350C002A2C0A006B
:1043600090D0030048E80100062237E1082235E139
:104370000A2233E10C2231E110222FE120222DE12B
:1043800040222BE1802229E1F0B101281ED0022831
:104390001ED003281ED004281ED005281ED00628B3
:1043A0001ED007281ED008281ED009281ED00A2893
:1043B0001ED08E4B8E4A0B2814BF1046184600EBB9
:1043C0005100B0FBF1F321E78948F8E78948F6E7A7
:1043D0008948F4E78948F2E78948F0E78948EEE739
:1043E0008948ECE78948EAE78948E8E78948E6E749
:1043F0008948E4E700B3012820D0022820D0032810
:1044000020D0042820D0052820D0062820D0072836
:1044100020D0082820D0092820D00A2821D043F60F
:1044200009527A4B0B2814BF184610466B6800EBF4
:104430005300B0FBF3F3E9E67448F7E77448F5E797
:104440007448F3E77548F1E77348EFE77448EDE720
:104450007448EBE76548E9E77348E7E74FF2244023
:10446000E4E747F61220E1E7D0B101281BD002288B
:104470001CD003281DD004281ED005281FD00628D4
:1044800020D0072821D0082822D0092823D00A28A4
:1044900024D00B2814BF4FF400438023686811E731
:1044A0004FF40043FAE74FF48043F7E74FF400532B
:1044B000F4E741F25553F1E74FF48053EEE740F64D
:1044C000CC43EBE740F6AA23E8E74FF40063E5E7C7
:1044D0004FF48063E2E74FF40073DFE74FF480733B
:1044E000DCE78024FFF7A4B8B2F5004F3FF4B1A891
:1044F000012200238CE6082C3FF4E9AE33D8012CCE
:104500003FF4A7AEFFF45EAE042C7FF404A9684626
:10451000FEF7C4FC6A6A019B002A3FF4E8AE012A58
:104520003FF4E7AE022A3FF4CAAE032A3FF4E5AEF9
:10453000042A3FF4C3AE052A3FF4E1AE062A3FF455
:10454000E0AE072A3FF4DFAE082A3FF4DEAE092AC8
:104550003FF4DDAE0A2A3FF4DCAE0B2A14BF01247F
:104560004FF48074ABE6202C3FF444AF402C3FF472
:104570007BAF102C7FF4CFA82C4B69681A6812F01F
:10458000200F3FF401AF1A68194BC2F3C102D340A8
:1045900000283FF4C0AE01283FF4BFAE02283FF42C
:1045A000BEAE03283FF4E0AE04283FF4DFAE05289A
:1045B0003FF4DEAE06283FF4DDAE07283FF4DCAE64
:1045C00008283FF4DBAE09283FF4DAAE0A283FF4AE
:1045D000D9AE0B2814BF01224FF48072B3FBF2F363
:1045E00003EB5103B3FBF1F310E600BF90D00300DF
:1045F0000090D0030048E8010024F400AAC2A20001
:1046000000127A0000A861005561510000093D00C8
:1046100080841E0040420F0020A107002A2C0A00BF
:10462000801A06001516050048E8010000440258EB
:10463000836ADA0710B506D50168C46A4A6822F4AD
:10464000003222434A609C0706D50168046B4A6821
:1046500022F4803222434A60590706D50168446B30
:104660004A6822F4802222434A601A0706D501686C
:10467000846B4A6822F4004222434A60DC0606D575
:104680000168C46B8A6822F4805222438A609906CA
:1046900006D50168046C8A6822F4005222438A60BD
:1046A0005A0610D50168446C4A68B4F5801F22F49C
:1046B000801242EA04024A6005D14A68846C22F4FE
:1046C000C00222434A601B0606D50268C16C5368CB
:1046D00023F400230B43536010BD2DE9F041069DE8
:1046E00004460F46164698462168CA6937EA02030F
:1046F0000CBF01220022B24202D00020BDE8F081AE
:10470000681CF2D0FCF7FEF8A0EB08008542206898
:10471000036800D38DB923F4D0730360836823F05A
:10472000010383602023C4F88030C4F88430002360
:10473000032084F87C30BDE8F0815A07D4D5C369E2
:104740001B05D1D54FF400630362036823F4D073D3
:104750000360836823F0010383602023C4F8803062
:10476000C4F88430C4F88830E1E72DE9F74398466F
:10477000D0F8803004460E46202B91464ED10029B9
:104780004AD0002A48D090F87C30012B46D0012333
:10479000002580F87C302123C0F88850C0F8803094
:1047A000FCF7B0F8A3680746A4F85490B3F5805F0F
:1047B000A4F8569003D123690BB935461E46B4F8C8
:1047C00056203B46CDF8008092B252B94021204697
:1047D000FFF783FF58B9202384F87C00C4F88030A9
:1047E00006E0002280212046FFF777FF18B1032062
:1047F00003B0BDE8F08322685EB935F8023BC3F32D
:1048000008039362B4F85630013B9BB2A4F85630CB
:10481000D5E716F8013BF4E70120E9E70220E7E7D6
:1048200073B500260446C0F88860FCF76BF823686F
:1048300005461B681A0717D423681B685B070AD54F
:104840006FF07E4300224FF48001204600932B46F8
:10485000FFF743FFA0B920230020C4F8803084F87C
:104860007C00C4F884300CE06FF07E4332464FF495
:104870000011009303462046FFF72FFF0028DBD0EE
:10488000032002B070BD10B5044650B3D0F880309C
:104890001BB980F87C3006F081FC22682423204676
:1048A000C4F88030136823F001031360FEF788FE1C
:1048B000012816D0A36A13B12046FFF7B9FE23687A
:1048C00020465A6822F490425A609A6822F02A02DE
:1048D0009A601A6842F00102BDE810401A60FFF7C2
:1048E0009FBF012010BD1FB5032201230421022414
:1048F0008DF8032007228DF800308DF80420002267
:104900008DF801308DF806208DF8072008228DF8EB
:1049100002308DF808208DF80C20426E8DF805309D
:104920008DF809108DF80A408DF80B108DF80D30B8
:104930008DF80E308DF80F302AB9A0F86A30A0F843
:10494000683004B010BD02689368916804AAC3F38C
:10495000426302EB517111F8102C11F8081CD200BF
:1049600092FBF1F2A0F86A2004AA134413F8102C69
:1049700013F8083CD20092FBF3F3E0E790F87C30A8
:10498000012B14D002682423C0F88030116813680A
:1049900021F0005123F001031360002343661160EE
:1049A000202280F87C30C0F8802018467047022012
:1049B000704738B590F87C300446012B1BD001239A
:1049C00080F87C302423C0F8803003681D681A68A2
:1049D00022F001021A609A6822F060421143996045
:1049E000FFF781FF03681D602023C0F8803000209E
:1049F00084F87C0038BD022038BD38B590F87C3092
:104A00000446012B1BD0012380F87C302423C0F8FE
:104A1000803003681D681A6822F001021A609A68E3
:104A200022F0606211439960FFF75DFF03681D602B
:104A30002023C0F88030002084F87C0038BD02209C
:104A400038BD000070B50E460546A8B1A1B10C4CAA
:104A500061683046FBF744FC40B9A3682B60E3680B
:104A6000E8606B60AB60237C2B7470BD2468002C05
:104A7000EED16FF0050070BD6FF00F0070BD00BF8C
:104A800004DA0008704742688068101A704710B551
:104A90000446406918B1FFF7F5FF00236361206AFF
:104AA00018B102F0A1F80023236210BD38B50D46FD
:104AB0000A4904462960FFF7C5FF68B10849204646
:104AC0002960FFF7BFFF38B1064920462960FFF78C
:104AD000B9FF08B100242C60204638BD40DA000838
:104AE0004ADA000853DA000870B50C4615462ABBAE
:104AF00021B30121204602F0D1FC2C2001F0CEFD93
:104B00000646F0B12C22294606F076FC31462046B6
:104B1000F46102F0DBFC0C49204602F0DBFC0B499F
:104B2000204602F005FD0A492046042202F01EFD3F
:104B30000849204602F0E6FC284670BD6FF00505E6
:104B4000FAE74FF0FF35F7E7E54C0008C94F0008DA
:104B5000A94C0008914C000838B504460D460021C8
:104B600002F0B4FC0021204602F0B4FC00212046F3
:104B700002F0DEFC00222046114602F0F7FC002184
:104B8000204602F0BFFC2DB12846FFF780FF2846E3
:104B900001F062FC204602F0F9FF054620B1042234
:104BA0000249204602F0E2FC284638BDA94C000824
:104BB0002DE9F04107460D4639B14B6AA3B9486962
:104BC00038B929463846FFF7C7FF00242046BDE81C
:104BD000F081FFF758FF0028F3DD2A4B40F28342B3
:104BE00029492A4806F010FC6A6A4FF6FF744FF60E
:104BF000FE73D5F818809A4298BF1446A1B2B8F156
:104C0000000F32D0686980B343689A1A036813446E
:104C1000B8EB030318BF01235CB37C8EDEB2B7F898
:104C200060206400A4B2944228BF14468C4228BF7E
:104C30000C46334622464146384604F041FD431CAB
:104C400015D1B7F8603033B1B7F86230082B02D80D
:104C50006408012CEDD800246B6A002BB6D168697A
:104C6000FFF711FF0028B1DCABE70123D4E70028F0
:104C7000F1D1AB692344AB616B6A1C1B6C620124EC
:104C8000EAE700BFAFDA0008E6DA00081DDB00083B
:104C900008B50B46014628B1002280F828201846A6
:104CA000FFF786FF002008BD10B50C46014620B96D
:104CB0002046FFF751FF002010BD90F82830013347
:104CC000DBB2042B80F82830F2D04369002BF2D0FD
:104CD0002046FFF76DFF0028EDD0204605F074F860
:104CE000E9E700002DE9F04F87B0044615469A46E3
:104CF00002914BB952B188B90298298902F07AFB26
:104D0000284601F071FF01E0002AF5D12146029802
:104D1000FFF722FF002007B0BDE8F08F118902984D
:104D200002F068FB6369002B40F02D81A369002B22
:104D300040F03181206A002840F08F8025622846AB
:104D400002F00CF9206A0368002B00F08A80B0F8AA
:104D5000089040F2FF33DFF8448299458F4928BF1D
:104D6000994600234A4602F0D1F9B9F1060F40F204
:104D7000F7804A468A49404600F077F9002800F05B
:104D8000EF8004228749404606F06CFB0190002822
:104D90006CD1A9F1040308F10406834908F1030B5F
:104DA0009BB230461A46039300F05FF9039B074617
:104DB00050B91A467A49304600F057F9074600289C
:104DC00000F0CE8001230193BB4580F0C9804A46A4
:104DD0007649404600F049F9002800F0C180BF1B29
:104DE00000233046BFB288F80330F3550596FBF731
:104DF00081FA002800F09280471EF35D2F2B40F0CF
:104E00008D806B4B9E429B4602D1012840F08680EC
:104E10003F2F28BF3F273FB13A463146644806F04E
:104E2000E0FA00230BF807304FF00008DFF8949108
:104E300017B3D7F13F020ED059F8386003923046CD
:104E4000FBF758FA039A3146824228BF02460BEB21
:104E5000070006F0C6FA564A10E0294602F092F81A
:104E60006DE7D5F80480B5F80A907EE7002388F84E
:104E700004306FF00F0A3BE059F838201146204605
:104E800003922646FFF7DEFD039A002841D10592E2
:104E900033686661A3617368002B06DA454B40F600
:104EA000CF024549454806F0AFFA736863620023B4
:104EB00084F8283063691B7CDA0768D43D4B40F6E0
:104EC000DF023F493D4806F09FFA019B83B16369C9
:104ED0001B7CDB070CD5626A3449A06900F0C5F879
:104EE00030B1A3690430C21A636AA0619B1A63627D
:104EF000206A18B101F078FE00232362284601F0F1
:104F000073FEBAF1000F39D121460298FFF750FE27
:104F100000E708F10108B8F1050F89D13F21059894
:104F200006F08AFA08B10023037005992046264648
:104F3000FFF788FD0028ABD005A92046FFF7B6FD96
:104F400006460028A4D105A92046FFF7AFFD064676
:104F500000289DD16061A061606284F82800C7E7E5
:104F6000206A01F0F3FF236A1B89B3F5806F80D2BA
:104F700005283FF67EAF6FF0040ABFE71AF1100F65
:104F80007FF4C8AEC2E6284601F02EFEC2E6019BC1
:104F9000002BADD09FE76FF0070AA9E7EC000024D3
:104FA00065DA00085EDA0008B8F3000863DA000882
:104FB000AC000024AFDA000868DA00081DDB000846
:104FC00086DA000818DA000810B5044630B1FFF799
:104FD0005EFD2046BDE8104001F03EBA10BD000065
:104FE00010B52E2002F0BAFF044630B9154B4FF42D
:104FF00021621549154806F007FA0121204602F002
:105000004DFA50221249204602F022F930B10D4BE0
:1050100040F615220F490D4806F0F6F92046FF210B
:1050200002F0B8F9044630B9064B40F617220A4997
:10503000064806F0E9F920460849BDE8104002F0AC
:105040008FBA00BFAFDA000845DB00081DDB00089F
:10505000B8DE000860DB00087CDB0008E94A0008D5
:1050600040BA80B2704700BA7047F8B504460846A7
:105070000F461546FBF73EF9064690B125442078C9
:1050800080B1A3199D4201D20020F8BD3B78834234
:1050900005D132463946204606F0E4F908B101341C
:1050A000EDE72046F8BD08B501F0B6F901F0CAFBFE
:1050B00001F041FC05F038FA02F0C8F8BDE80840FC
:1050C00005F0D8B970B51826074C05464643A059D7
:1050D00018B101F089FD0023A351182303FB0544F7
:1050E0000023237570BD00BFEC0400242DE9F347B5
:1050F0000B9D894692469846074630B92C4B4FF493
:105100008B622C492C4806F07FF900221C210220DA
:1051100001F0CCFD0646002847D043891B2B06D85A
:10512000234B40F264422549234806F06DF9746828
:10513000BDF83400FFF794FFE08097F82430062B89
:1051400006D01B4B40F26B421D491B4806F05CF930
:10515000D8F800304A4631463846A360B8F80430E3
:10516000A3812B68C4F81230AB880025E3820A9B28
:105170001B68C4F80E300C9B1B682570A3610123CB
:10518000E57063700823A370062323710423637101
:1051900040F606030093534605F0C2FA304601F08C
:1051A00023FD284602B0BDE8F0874FF0FF30F9E755
:1051B000CADC000801DD00081DDB00080FDD000867
:1051C00040DD00082DE9F74F3E4B0A22054600203E
:1051D0009446144681468046834696461E46019173
:1051E000BEF10A0F1F7D11D197B94FFA80FE013031
:1051F00018330A28F4D1019B990704D4BEF10A0F91
:105200001CD1DB0735D44FF0FF3009E0002FEED082
:10521000002D4AD029688A4659688A4545D140B24E
:1052200003B0BDE8F08FC245E1D34FFA80FCD04611
:10523000DDE7CA4524BF44B2D146D8E75FFA8EF70E
:10524000182303FB07631B7D33B11F4B40F287120A
:105250001E491F4806F0D8F825B118232A6803FB19
:1052600007635A60182378B203FB07660023738232
:10527000D6E70A2C0FD01823E7B25C43335933B179
:10528000114B40F26F121349114806F0BDF8384631
:10529000FFF718FFD4E7BCF10A0F02D05FFA8CF7D2
:1052A000F5E70A2AAFD0D7B2F1E7012FB3F812A081
:1052B000BFD11F68002FB6D0DA4598D342B2D3468B
:1052C00095E700BFEC040024CADC0008ECDB000812
:1052D0001DDB0008D5DB000870B50646074D00242D
:1052E0002B7D2BB1AB68B34202D12046FFF7EAFE1B
:1052F000013418350A2CF3D170BD00BFEC04002432
:105300002DE9F047804686B00C4649B9464B4FF42C
:1053100022724649464806F077F806B0BDE8F087A5
:1053200045682B88B3F5807F08D12B79062B05D1F2
:105330006B79042B02D16B88082B03D0404601F017
:1053400053FCEAE7D5F80E304E680593AB6916B109
:105350009B1B5E425E41002E94F8243005F1080745
:1053600014BF4FF001094FF00209062B06D02E4B57
:1053700040F2AB122F492E4806F046F80598002857
:105380003CD0214600F095FC8246B8BB059B03F05B
:10539000F003E02B32D0494605A8FFF713FF0028A1
:1053A0002CDB1822244B4FF0020C02FB00F103EB24
:1053B000010E8EF814C04FF00C0CCEF8084012FB12
:1053C00000C2386803EB020C9850BA88ACF804208D
:1053D00053F80190AEF812A0B9F1000F0ED043F8C7
:1053E00001A04FF4006304F12502494600932046D2
:1053F0003B4605F095F9484601F0F6FBEB88B3F51E
:10540000807F9BD1002E99D0022204F125030197C1
:105410002046039205AA19460292221D00923A469E
:10542000FFF764FE8AE700BFCADC000801DD000860
:105430001DDB000834DC0008EC0400241FB5024624
:1054400000F12503029101240549043203940191DE
:1054500019460092034AFFF749FE04B010BD00BF91
:10546000F4F2000888F20008F8B5134C0025022673
:105470000427227C6AB1E38901339BB2B3F5967F9E
:10548000E38103D2012A09D1042B0BD92846FFF767
:1054900019FE013518340A2DEBD1F8BD032A06D1C7
:1054A0002774F6E721466068FFF7C8FFF1E7042A92
:1054B000EFD12674EDE700BFF00400242DE9F0439E
:1054C0001446274D182285B00646884602FB045232
:1054D000127D012A06D8234B40F2ED2222492348AF
:1054E00005F092FF182106F1250701FB045999F8F0
:1054F0001430022B0DD1B9F81230B3F58E7F17D9C5
:10550000494630460431FFF799FF10B9032389F863
:10551000143018234FF400624146304603FB045315
:1055200000923A460C3305F0FBF805B0BDE8F08375
:10553000B3F5877FEDD304EB440301213046DB0054
:105540000391394603F10C0204332B442A4402939D
:10555000074B0193331D00933B46FFF7C7FDD4E78C
:10556000EC040024CADC000858DC00081DDB00083D
:10557000F4F200082DE9F3478946804601461646B5
:10558000D9F8000000F095FB044600285ED1D9F858
:10559000003003F0F002E02A58D0002B56D0012151
:1055A0004846FFF70FFE051E53DB404F182303FB51
:1055B00005731A7D1AB90124C3F808801C751823D5
:1055C00003FB05731B7D33B9394B40F2C9323949AE
:1055D000394805F019FF0CB9002E3CD14946404628
:1055E000FFF72CFF002E38D102B0BDE8F087FBD1C9
:1055F0003446DFF8BC80DFF8C890DFF8BCA09CB967
:10560000304601F0ABFC002E4CD0B046182303FB13
:1056100005F21C46B85808B101F0E6FA04FB05F3A0
:10562000002047F80380DFE7628923899A4208D186
:10563000236833B143464FF47B724946504605F028
:10564000E3FE237B012B1ED12468D8E76FF00F0007
:10565000CAE72846C8E74FF0FF30182303FB05725E
:10566000127D012AC3D9154A3146404615700C22D5
:1056700013FB05234FF400623B44009208F125021E
:1056800005F04EF8B0E700222189022001F00EFB60
:10569000804638B1314601F0AFFC0028B6D0404614
:1056A00001F0A2FA4FF0FF309EE700BFEC040024A7
:1056B000CADC000888DC00081DDB0008DC050024CB
:1056C000B0DC0008F0B50E4685B01546044630B98A
:1056D0003E4B40F21B323E493E4805F095FE36B93E
:1056E0003A4B4FF447723C493A4805F08DFE35B9C4
:1056F000364B40F21D323949364805F085FE2146C9
:10570000286800F0D6FA00285AD12B6803F0F0027E
:10571000E02A1DD101238DF809008DF808305E23A1
:105720008DF80A306B7803F07F038DF80B30AB787F
:105730008DF80C30EB788DF80D3002AB4FF4006231
:1057400031462046009204F1250204F0E9FF1FE0F3
:105750006268A1685A400A4208D09BB24FF6A9621B
:10576000934203D0E3686BB304F10C051C4B182083
:105770001C491A7800FB0210017D0129194609D93C
:105780002F6843689F4205D131462046FFF796FEB9
:1057900005B0F0BD134B0022187D012806D92F68F3
:1057A0005868874202D1D2B20A70EDE7013218334D
:1057B0000A2AF1D1324629462046FFF7DBFEE7E709
:1057C000094BBBE76FF00300E2E700BFCADC00084B
:1057D00001DD00081DDB0008C3E6000815DC000839
:1057E000DC050024EC04002488F20008F0B504462F
:1057F00087B00F46164624210022012001F056FAF8
:105800000546A0B34389232B06D81A4B4FF4B17237
:1058100019491A4805F0F8FD226800236C6802F166
:105820001C00237104F108016371A371E371134635
:105830002770667053F8046B834241F8046BF9D10A
:1058400006AED36846F8043D304600F0BBF858B1C8
:10585000002101233246A170E170029028468DE8B4
:105860000A00FF2300F014FA284601F0BDF907B042
:10587000F0BD00BFE8DD00081DDE00081DDB0008EC
:10588000454B2DE9F043D3F8089085B0044688468F
:1058900099F800501F4605F00F05AD00132D2AD9C9
:1058A0004289032A27D942681278082A23D15869E5
:1058B00000F0F002E02A1ED0196800F0FAF906465E
:1058C000C8B92389072B16D905F10E01204601F02E
:1058D00085F900284FD0218932460220294489B217
:1058E00001F0E4F9064630B1428905F108039A4215
:1058F00007D201F079F9204605B0BDE8F04301F088
:1059000073B949462A46406805F06BFD6942304646
:1059100001F064F938B1214BAF222149214805F04B
:1059200073FD3046E5E72146304601F065FB00286F
:10593000F7D12046344601F057F9294620466668DB
:1059400001F04CF902460028D5D161687B69CB6033
:105950003B690B61FF233070B070F0700B7288727E
:10596000C8720121009020460191CDF808800E49AF
:1059700000F08EF9BFE7C5F57F412046F23109B24C
:1059800001F02CF90028D8D0044BC0220749054863
:1059900005F03AFDAFE700BF78060024E8DD000817
:1059A00081DD00081DDB00088C060024B6DD000840
:1059B0000A4604300321FFF719BF0A4604300B21C1
:1059C000FFF714BF134B30B51B686BB9124A12684E
:1059D000EAB192F82B1001F00501052917D15168A1
:1059E000002918BF134612E093F82B4004F005027B
:1059F000052AE9D15A68002AE6D001689D684A4024
:105A00002A4204D0A207DFD4DA689142DCD11846DA
:105A100030BD00BF903B0024943B00242DE9F84F9B
:105A200047680546884697F800904FEA1913042BFB
:105A300005D0284601F0D8F80020BDE8F88F788816
:105A400009F00F09FFF70CFB2B894FEA890904467F
:105A5000834203D90146284601F008FA6B894B4579
:105A6000E7D32B89A342E4D3B9F1130FE1D93B6902
:105A7000494C636103F0F003FA68E02B226139D1ED
:105A800098F82B30DA0703D5D8F80430002B58D11A
:105A900000264146206900F00CF90028C9D123698D
:105AA00003F0F003E02BC4D0002EC2D0FB8823F01B
:105AB000C00333B1284600F02BFA05460028BBD0BE
:105AC0004768A760C9F10001284684E840013B7897
:105AD00003F00F039B00A38101F080F87B7A062B73
